{
  "_format": "hh-sol-artifact-1",
  "contractName": "TriggerContract",
  "sourceName": "contracts/TriggerContract.sol",
  "abi": [
    {
      "inputs": [],
      "stateMutability": "nonpayable",
      "type": "constructor"
    },
    {
      "inputs": [],
      "name": "AccessControlBadConfirmation",
      "type": "error"
    },
    {
      "inputs": [
        {
          "internalType": "address",
          "name": "account",
          "type": "address"
        },
        {
          "internalType": "bytes32",
          "name": "neededRole",
          "type": "bytes32"
        }
      ],
      "name": "AccessControlUnauthorizedAccount",
      "type": "error"
    },
    {
      "inputs": [],
      "name": "EnforcedPause",
      "type": "error"
    },
    {
      "inputs": [],
      "name": "ExpectedPause",
      "type": "error"
    },
    {
      "inputs": [],
      "name": "ReentrancyGuardReentrantCall",
      "type": "error"
    },
    {
      "anonymous": false,
      "inputs": [
        {
          "indexed": false,
          "internalType": "string",
          "name": "asset",
          "type": "string"
        },
        {
          "indexed": false,
          "internalType": "uint32",
          "name": "spotIndex",
          "type": "uint32"
        }
      ],
      "name": "AssetIndexSet",
      "type": "event"
    },
    {
      "anonymous": false,
      "inputs": [
        {
          "indexed": false,
          "internalType": "uint256",
          "name": "newFee",
          "type": "uint256"
        }
      ],
      "name": "FeeUpdated",
      "type": "event"
    },
    {
      "anonymous": false,
      "inputs": [
        {
          "indexed": false,
          "internalType": "address",
          "name": "account",
          "type": "address"
        }
      ],
      "name": "Paused",
      "type": "event"
    },
    {
      "anonymous": false,
      "inputs": [
        {
          "indexed": false,
          "internalType": "uint256",
          "name": "newMaxDeviation",
          "type": "uint256"
        }
      ],
      "name": "PriceDeviationUpdated",
      "type": "event"
    },
    {
      "anonymous": false,
      "inputs": [
        {
          "indexed": true,
          "internalType": "bytes32",
          "name": "role",
          "type": "bytes32"
        },
        {
          "indexed": true,
          "internalType": "bytes32",
          "name": "previousAdminRole",
          "type": "bytes32"
        },
        {
          "indexed": true,
          "internalType": "bytes32",
          "name": "newAdminRole",
          "type": "bytes32"
        }
      ],
      "name": "RoleAdminChanged",
      "type": "event"
    },
    {
      "anonymous": false,
      "inputs": [
        {
          "indexed": true,
          "internalType": "bytes32",
          "name": "role",
          "type": "bytes32"
        },
        {
          "indexed": true,
          "internalType": "address",
          "name": "account",
          "type": "address"
        },
        {
          "indexed": true,
          "internalType": "address",
          "name": "sender",
          "type": "address"
        }
      ],
      "name": "RoleGranted",
      "type": "event"
    },
    {
      "anonymous": false,
      "inputs": [
        {
          "indexed": true,
          "internalType": "bytes32",
          "name": "role",
          "type": "bytes32"
        },
        {
          "indexed": true,
          "internalType": "address",
          "name": "account",
          "type": "address"
        },
        {
          "indexed": true,
          "internalType": "address",
          "name": "sender",
          "type": "address"
        }
      ],
      "name": "RoleRevoked",
      "type": "event"
    },
    {
      "anonymous": false,
      "inputs": [
        {
          "indexed": true,
          "internalType": "uint256",
          "name": "triggerId",
          "type": "uint256"
        },
        {
          "indexed": true,
          "internalType": "address",
          "name": "user",
          "type": "address"
        }
      ],
      "name": "TriggerCancelled",
      "type": "event"
    },
    {
      "anonymous": false,
      "inputs": [
        {
          "indexed": true,
          "internalType": "uint256",
          "name": "triggerId",
          "type": "uint256"
        },
        {
          "indexed": true,
          "internalType": "address",
          "name": "user",
          "type": "address"
        },
        {
          "indexed": false,
          "internalType": "string",
          "name": "watchAsset",
          "type": "string"
        },
        {
          "indexed": false,
          "internalType": "uint256",
          "name": "targetPrice",
          "type": "uint256"
        },
        {
          "indexed": false,
          "internalType": "bool",
          "name": "isAbove",
          "type": "bool"
        },
        {
          "indexed": false,
          "internalType": "string",
          "name": "tradeAsset",
          "type": "string"
        },
        {
          "indexed": false,
          "internalType": "bool",
          "name": "isBuy",
          "type": "bool"
        },
        {
          "indexed": false,
          "internalType": "uint256",
          "name": "amount",
          "type": "uint256"
        }
      ],
      "name": "TriggerCreated",
      "type": "event"
    },
    {
      "anonymous": false,
      "inputs": [
        {
          "indexed": true,
          "internalType": "uint256",
          "name": "triggerId",
          "type": "uint256"
        },
        {
          "indexed": true,
          "internalType": "address",
          "name": "executor",
          "type": "address"
        },
        {
          "indexed": false,
          "internalType": "uint256",
          "name": "executionPrice",
          "type": "uint256"
        },
        {
          "indexed": false,
          "internalType": "bytes32",
          "name": "executionTxHash",
          "type": "bytes32"
        }
      ],
      "name": "TriggerExecuted",
      "type": "event"
    },
    {
      "anonymous": false,
      "inputs": [
        {
          "indexed": true,
          "internalType": "uint256",
          "name": "triggerId",
          "type": "uint256"
        }
      ],
      "name": "TriggerExpired",
      "type": "event"
    },
    {
      "anonymous": false,
      "inputs": [
        {
          "indexed": true,
          "internalType": "uint256",
          "name": "triggerId",
          "type": "uint256"
        },
        {
          "indexed": false,
          "internalType": "string",
          "name": "reason",
          "type": "string"
        }
      ],
      "name": "TriggerFailed",
      "type": "event"
    },
    {
      "anonymous": false,
      "inputs": [
        {
          "indexed": false,
          "internalType": "address",
          "name": "account",
          "type": "address"
        }
      ],
      "name": "Unpaused",
      "type": "event"
    },
    {
      "inputs": [],
      "name": "DEFAULT_ADMIN_ROLE",
      "outputs": [
        {
          "internalType": "bytes32",
          "name": "",
          "type": "bytes32"
        }
      ],
      "stateMutability": "view",
      "type": "function"
    },
    {
      "inputs": [],
      "name": "EXECUTOR_ROLE",
      "outputs": [
        {
          "internalType": "bytes32",
          "name": "",
          "type": "bytes32"
        }
      ],
      "stateMutability": "view",
      "type": "function"
    },
    {
      "inputs": [],
      "name": "MAX_TRIGGER_DURATION",
      "outputs": [
        {
          "internalType": "uint256",
          "name": "",
          "type": "uint256"
        }
      ],
      "stateMutability": "view",
      "type": "function"
    },
    {
      "inputs": [],
      "name": "MIN_TRIGGER_DURATION",
      "outputs": [
        {
          "internalType": "uint256",
          "name": "",
          "type": "uint256"
        }
      ],
      "stateMutability": "view",
      "type": "function"
    },
    {
      "inputs": [],
      "name": "activeTriggerCount",
      "outputs": [
        {
          "internalType": "uint256",
          "name": "",
          "type": "uint256"
        }
      ],
      "stateMutability": "view",
      "type": "function"
    },
    {
      "inputs": [
        {
          "internalType": "string",
          "name": "",
          "type": "string"
        }
      ],
      "name": "assetToSpotIndex",
      "outputs": [
        {
          "internalType": "uint32",
          "name": "",
          "type": "uint32"
        }
      ],
      "stateMutability": "view",
      "type": "function"
    },
    {
      "inputs": [
        {
          "internalType": "uint256",
          "name": "triggerId",
          "type": "uint256"
        }
      ],
      "name": "cancelTrigger",
      "outputs": [],
      "stateMutability": "nonpayable",
      "type": "function"
    },
    {
      "inputs": [
        {
          "internalType": "uint256",
          "name": "triggerId",
          "type": "uint256"
        },
        {
          "internalType": "uint256",
          "name": "currentPrice",
          "type": "uint256"
        }
      ],
      "name": "checkTrigger",
      "outputs": [
        {
          "internalType": "bool",
          "name": "shouldExecute",
          "type": "bool"
        },
        {
          "internalType": "string",
          "name": "reason",
          "type": "string"
        }
      ],
      "stateMutability": "view",
      "type": "function"
    },
    {
      "inputs": [
        {
          "internalType": "string",
          "name": "watchAsset",
          "type": "string"
        },
        {
          "internalType": "uint256",
          "name": "targetPrice",
          "type": "uint256"
        },
        {
          "internalType": "bool",
          "name": "isAbove",
          "type": "bool"
        },
        {
          "internalType": "string",
          "name": "tradeAsset",
          "type": "string"
        },
        {
          "internalType": "bool",
          "name": "isBuy",
          "type": "bool"
        },
        {
          "internalType": "uint256",
          "name": "amount",
          "type": "uint256"
        },
        {
          "internalType": "uint256",
          "name": "maxSlippage",
          "type": "uint256"
        },
        {
          "internalType": "uint256",
          "name": "durationHours",
          "type": "uint256"
        }
      ],
      "name": "createTrigger",
      "outputs": [
        {
          "internalType": "uint256",
          "name": "triggerId",
          "type": "uint256"
        }
      ],
      "stateMutability": "payable",
      "type": "function"
    },
    {
      "inputs": [],
      "name": "getActiveTriggerCount",
      "outputs": [
        {
          "internalType": "uint256",
          "name": "",
          "type": "uint256"
        }
      ],
      "stateMutability": "view",
      "type": "function"
    },
    {
      "inputs": [
        {
          "internalType": "string",
          "name": "asset",
          "type": "string"
        }
      ],
      "name": "getOraclePrice",
      "outputs": [
        {
          "internalType": "uint64",
          "name": "price",
          "type": "uint64"
        },
        {
          "internalType": "bool",
          "name": "valid",
          "type": "bool"
        }
      ],
      "stateMutability": "view",
      "type": "function"
    },
    {
      "inputs": [
        {
          "internalType": "bytes32",
          "name": "role",
          "type": "bytes32"
        }
      ],
      "name": "getRoleAdmin",
      "outputs": [
        {
          "internalType": "bytes32",
          "name": "",
          "type": "bytes32"
        }
      ],
      "stateMutability": "view",
      "type": "function"
    },
    {
      "inputs": [
        {
          "internalType": "uint256",
          "name": "triggerId",
          "type": "uint256"
        }
      ],
      "name": "getTrigger",
      "outputs": [
        {
          "components": [
            {
              "internalType": "uint256",
              "name": "id",
              "type": "uint256"
            },
            {
              "internalType": "address",
              "name": "user",
              "type": "address"
            },
            {
              "internalType": "string",
              "name": "watchAsset",
              "type": "string"
            },
            {
              "internalType": "uint256",
              "name": "targetPrice",
              "type": "uint256"
            },
            {
              "internalType": "bool",
              "name": "isAbove",
              "type": "bool"
            },
            {
              "internalType": "string",
              "name": "tradeAsset",
              "type": "string"
            },
            {
              "internalType": "bool",
              "name": "isBuy",
              "type": "bool"
            },
            {
              "internalType": "uint256",
              "name": "amount",
              "type": "uint256"
            },
            {
              "internalType": "uint256",
              "name": "maxSlippage",
              "type": "uint256"
            },
            {
              "internalType": "uint256",
              "name": "createdAt",
              "type": "uint256"
            },
            {
              "internalType": "uint256",
              "name": "expiresAt",
              "type": "uint256"
            },
            {
              "internalType": "enum TriggerContract.TriggerStatus",
              "name": "status",
              "type": "uint8"
            },
            {
              "internalType": "uint256",
              "name": "feePaid",
              "type": "uint256"
            },
            {
              "internalType": "uint256",
              "name": "executedAt",
              "type": "uint256"
            },
            {
              "internalType": "uint256",
              "name": "executionPrice",
              "type": "uint256"
            },
            {
              "internalType": "bytes32",
              "name": "executionTxHash",
              "type": "bytes32"
            }
          ],
          "internalType": "struct TriggerContract.Trigger",
          "name": "",
          "type": "tuple"
        }
      ],
      "stateMutability": "view",
      "type": "function"
    },
    {
      "inputs": [
        {
          "internalType": "address",
          "name": "user",
          "type": "address"
        }
      ],
      "name": "getUserActiveTriggers",
      "outputs": [
        {
          "components": [
            {
              "internalType": "uint256",
              "name": "id",
              "type": "uint256"
            },
            {
              "internalType": "address",
              "name": "user",
              "type": "address"
            },
            {
              "internalType": "string",
              "name": "watchAsset",
              "type": "string"
            },
            {
              "internalType": "uint256",
              "name": "targetPrice",
              "type": "uint256"
            },
            {
              "internalType": "bool",
              "name": "isAbove",
              "type": "bool"
            },
            {
              "internalType": "string",
              "name": "tradeAsset",
              "type": "string"
            },
            {
              "internalType": "bool",
              "name": "isBuy",
              "type": "bool"
            },
            {
              "internalType": "uint256",
              "name": "amount",
              "type": "uint256"
            },
            {
              "internalType": "uint256",
              "name": "maxSlippage",
              "type": "uint256"
            },
            {
              "internalType": "uint256",
              "name": "createdAt",
              "type": "uint256"
            },
            {
              "internalType": "uint256",
              "name": "expiresAt",
              "type": "uint256"
            },
            {
              "internalType": "enum TriggerContract.TriggerStatus",
              "name": "status",
              "type": "uint8"
            },
            {
              "internalType": "uint256",
              "name": "feePaid",
              "type": "uint256"
            },
            {
              "internalType": "uint256",
              "name": "executedAt",
              "type": "uint256"
            },
            {
              "internalType": "uint256",
              "name": "executionPrice",
              "type": "uint256"
            },
            {
              "internalType": "bytes32",
              "name": "executionTxHash",
              "type": "bytes32"
            }
          ],
          "internalType": "struct TriggerContract.Trigger[]",
          "name": "",
          "type": "tuple[]"
        }
      ],
      "stateMutability": "view",
      "type": "function"
    },
    {
      "inputs": [
        {
          "internalType": "address",
          "name": "user",
          "type": "address"
        }
      ],
      "name": "getUserTriggers",
      "outputs": [
        {
          "internalType": "uint256[]",
          "name": "",
          "type": "uint256[]"
        }
      ],
      "stateMutability": "view",
      "type": "function"
    },
    {
      "inputs": [
        {
          "internalType": "bytes32",
          "name": "role",
          "type": "bytes32"
        },
        {
          "internalType": "address",
          "name": "account",
          "type": "address"
        }
      ],
      "name": "grantRole",
      "outputs": [],
      "stateMutability": "nonpayable",
      "type": "function"
    },
    {
      "inputs": [
        {
          "internalType": "bytes32",
          "name": "role",
          "type": "bytes32"
        },
        {
          "internalType": "address",
          "name": "account",
          "type": "address"
        }
      ],
      "name": "hasRole",
      "outputs": [
        {
          "internalType": "bool",
          "name": "",
          "type": "bool"
        }
      ],
      "stateMutability": "view",
      "type": "function"
    },
    {
      "inputs": [
        {
          "internalType": "uint256",
          "name": "triggerId",
          "type": "uint256"
        },
        {
          "internalType": "uint256",
          "name": "executionPrice",
          "type": "uint256"
        },
        {
          "internalType": "bytes32",
          "name": "executionTxHash",
          "type": "bytes32"
        }
      ],
      "name": "markExecuted",
      "outputs": [],
      "stateMutability": "nonpayable",
      "type": "function"
    },
    {
      "inputs": [
        {
          "internalType": "uint256[]",
          "name": "triggerIds",
          "type": "uint256[]"
        }
      ],
      "name": "markExpired",
      "outputs": [],
      "stateMutability": "nonpayable",
      "type": "function"
    },
    {
      "inputs": [
        {
          "internalType": "uint256",
          "name": "triggerId",
          "type": "uint256"
        },
        {
          "internalType": "string",
          "name": "reason",
          "type": "string"
        }
      ],
      "name": "markFailed",
      "outputs": [],
      "stateMutability": "nonpayable",
      "type": "function"
    },
    {
      "inputs": [],
      "name": "maxPriceDeviation",
      "outputs": [
        {
          "internalType": "uint256",
          "name": "",
          "type": "uint256"
        }
      ],
      "stateMutability": "view",
      "type": "function"
    },
    {
      "inputs": [],
      "name": "nextTriggerId",
      "outputs": [
        {
          "internalType": "uint256",
          "name": "",
          "type": "uint256"
        }
      ],
      "stateMutability": "view",
      "type": "function"
    },
    {
      "inputs": [],
      "name": "pause",
      "outputs": [],
      "stateMutability": "nonpayable",
      "type": "function"
    },
    {
      "inputs": [],
      "name": "paused",
      "outputs": [
        {
          "internalType": "bool",
          "name": "",
          "type": "bool"
        }
      ],
      "stateMutability": "view",
      "type": "function"
    },
    {
      "inputs": [
        {
          "internalType": "bytes32",
          "name": "role",
          "type": "bytes32"
        },
        {
          "internalType": "address",
          "name": "callerConfirmation",
          "type": "address"
        }
      ],
      "name": "renounceRole",
      "outputs": [],
      "stateMutability": "nonpayable",
      "type": "function"
    },
    {
      "inputs": [
        {
          "internalType": "bytes32",
          "name": "role",
          "type": "bytes32"
        },
        {
          "internalType": "address",
          "name": "account",
          "type": "address"
        }
      ],
      "name": "revokeRole",
      "outputs": [],
      "stateMutability": "nonpayable",
      "type": "function"
    },
    {
      "inputs": [
        {
          "internalType": "string",
          "name": "asset",
          "type": "string"
        },
        {
          "internalType": "uint32",
          "name": "spotIndex",
          "type": "uint32"
        }
      ],
      "name": "setAssetIndex",
      "outputs": [],
      "stateMutability": "nonpayable",
      "type": "function"
    },
    {
      "inputs": [
        {
          "internalType": "string[]",
          "name": "assets",
          "type": "string[]"
        },
        {
          "internalType": "uint32[]",
          "name": "spotIndexes",
          "type": "uint32[]"
        }
      ],
      "name": "setAssetIndexes",
      "outputs": [],
      "stateMutability": "nonpayable",
      "type": "function"
    },
    {
      "inputs": [
        {
          "internalType": "bytes4",
          "name": "interfaceId",
          "type": "bytes4"
        }
      ],
      "name": "supportsInterface",
      "outputs": [
        {
          "internalType": "bool",
          "name": "",
          "type": "bool"
        }
      ],
      "stateMutability": "view",
      "type": "function"
    },
    {
      "inputs": [],
      "name": "triggerFee",
      "outputs": [
        {
          "internalType": "uint256",
          "name": "",
          "type": "uint256"
        }
      ],
      "stateMutability": "view",
      "type": "function"
    },
    {
      "inputs": [
        {
          "internalType": "uint256",
          "name": "",
          "type": "uint256"
        }
      ],
      "name": "triggers",
      "outputs": [
        {
          "internalType": "uint256",
          "name": "id",
          "type": "uint256"
        },
        {
          "internalType": "address",
          "name": "user",
          "type": "address"
        },
        {
          "internalType": "string",
          "name": "watchAsset",
          "type": "string"
        },
        {
          "internalType": "uint256",
          "name": "targetPrice",
          "type": "uint256"
        },
        {
          "internalType": "bool",
          "name": "isAbove",
          "type": "bool"
        },
        {
          "internalType": "string",
          "name": "tradeAsset",
          "type": "string"
        },
        {
          "internalType": "bool",
          "name": "isBuy",
          "type": "bool"
        },
        {
          "internalType": "uint256",
          "name": "amount",
          "type": "uint256"
        },
        {
          "internalType": "uint256",
          "name": "maxSlippage",
          "type": "uint256"
        },
        {
          "internalType": "uint256",
          "name": "createdAt",
          "type": "uint256"
        },
        {
          "internalType": "uint256",
          "name": "expiresAt",
          "type": "uint256"
        },
        {
          "internalType": "enum TriggerContract.TriggerStatus",
          "name": "status",
          "type": "uint8"
        },
        {
          "internalType": "uint256",
          "name": "feePaid",
          "type": "uint256"
        },
        {
          "internalType": "uint256",
          "name": "executedAt",
          "type": "uint256"
        },
        {
          "internalType": "uint256",
          "name": "executionPrice",
          "type": "uint256"
        },
        {
          "internalType": "bytes32",
          "name": "executionTxHash",
          "type": "bytes32"
        }
      ],
      "stateMutability": "view",
      "type": "function"
    },
    {
      "inputs": [],
      "name": "unpause",
      "outputs": [],
      "stateMutability": "nonpayable",
      "type": "function"
    },
    {
      "inputs": [
        {
          "internalType": "uint256",
          "name": "newMaxDeviation",
          "type": "uint256"
        }
      ],
      "name": "updateMaxPriceDeviation",
      "outputs": [],
      "stateMutability": "nonpayable",
      "type": "function"
    },
    {
      "inputs": [
        {
          "internalType": "uint256",
          "name": "newFee",
          "type": "uint256"
        }
      ],
      "name": "updateTriggerFee",
      "outputs": [],
      "stateMutability": "nonpayable",
      "type": "function"
    },
    {
      "inputs": [
        {
          "internalType": "uint256",
          "name": "oldTriggerId",
          "type": "uint256"
        },
        {
          "internalType": "uint256",
          "name": "newTargetPrice",
          "type": "uint256"
        },
        {
          "internalType": "bool",
          "name": "newIsAbove",
          "type": "bool"
        }
      ],
      "name": "updateTriggerPrice",
      "outputs": [
        {
          "internalType": "uint256",
          "name": "newTriggerId",
          "type": "uint256"
        }
      ],
      "stateMutability": "payable",
      "type": "function"
    },
    {
      "inputs": [
        {
          "internalType": "address",
          "name": "",
          "type": "address"
        },
        {
          "internalType": "uint256",
          "name": "",
          "type": "uint256"
        }
      ],
      "name": "userTriggers",
      "outputs": [
        {
          "internalType": "uint256",
          "name": "",
          "type": "uint256"
        }
      ],
      "stateMutability": "view",
      "type": "function"
    },
    {
      "inputs": [
        {
          "internalType": "string",
          "name": "asset",
          "type": "string"
        },
        {
          "internalType": "uint256",
          "name": "executionPrice",
          "type": "uint256"
        }
      ],
      "name": "verifyPriceWithOracle",
      "outputs": [
        {
          "internalType": "bool",
          "name": "valid",
          "type": "bool"
        }
      ],
      "stateMutability": "view",
      "type": "function"
    },
    {
      "inputs": [],
      "name": "withdrawFees",
      "outputs": [],
      "stateMutability": "nonpayable",
      "type": "function"
    },
    {
      "stateMutability": "payable",
      "type": "receive"
    }
  ],
  "bytecode": "0x6080604052346200004c57600160025566038d7ea4c6800060035560c860045560016007556200002f3362000051565b506200003b33620000d1565b50604051612bd99081620001748239f35b600080fd5b6001600160a01b031660008181527fad3228b676f7d3cd4284a5443f17f1962b36e491b30a40b2405849e597ba5fb5602052604081205490919060ff16620000cd57818052816020526040822081835260205260408220600160ff19825416179055339160008051602062002d4d8339815191528180a4600190565b5090565b6001600160a01b031660008181527fdae2aa361dfd1ca020a396615627d436107c35eff9fe7738a3512819782d706960205260408120549091907fd8aa0f3194971a2a116679f7c2090f6939c8d4e01a2a8d7e41d55e5351469e639060ff166200016e57808352826020526040832082845260205260408320600160ff1982541617905560008051602062002d4d833981519152339380a4600190565b50509056fe60a080604052600436101561001d575b50361561001b57600080fd5b005b60003560e01c90816301ffc9a714611ec35750806307bd026514611e8857806313ae981b14611e6b5780631816168414611e09578063248a9ca314611dda57806324f1c5c114611d4a5780632a1b3fd314611c025780632f2ff15d14611bc357806336568abe14611b7c5780633940fda414611abf5780633a90f05014611a1c5780633f4ba83a146119b257806342227fa414611994578063476343ee146118e75780634e712fb81461188b5780634efc9c85146118a95780635a487ef61461188b5780635c975abb146118685780635f3309291461119857806365672a7f14611150578063681475e81461106757806371876a1614610fb35780638456cb5914610f5a57806386b9d16e14610e3957806391d1485414610dec578063975b866214610dce5780639c50472b14610d81578063a217fddf14610d65578063a349832514610d0d578063a78dd42e14610bc3578063aefed8ff146109b9578063b71e83c41461096d578063d45ddd9c14610866578063d547741f14610827578063e2a2496c14610259578063f5a908f01461020d578063f6837157146101ef5763ffd581b6146101cc573861000f565b346101ea5760003660031901126101ea57602060405162278d008152f35b600080fd5b346101ea5760003660031901126101ea576020600354604051908152f35b346101ea5760203660031901126101ea576004356001600160401b038082116101ea576102486102436040933690600401611fc0565b612600565b909183519216825215156020820152f35b60603660031901126101ea576004356102706120af565b6102786125c1565b6102806125df565b8160005260056020526040600020916102a660018060a01b0360018501541633146127c9565b600b83019182549360ff85166005811015610645576102c5901561277b565b6102d2602435151561247a565b6102de60028201612207565b61034d6102ed60058401612207565b9660ff600685015416956007850154976002600c60088801549701549360ff191617905561031c6008546127bc565b60085533907f71b273ecdaf2f86cf04941c16ff6f1eae913cbfbeef44422d9c1c39847854d13600080a33490612541565b9461035c6003548710156124e6565b6007549561036987612532565b6007556201518042014211610811576040519361038585611f16565b878552336020860152836040860152602435606086015285151560808601528860a086015286151560c08601528260e086015261010085015242610120850152620151804201610140850152600061016085015261018084015260006101a084015260006101c084015260006101e0840152856000526005602052604060002093835185556001850160018060a01b036020860151166bffffffffffffffffffffffff60a01b82541617905560408401518051906001600160401b03821161072b57819061045660028901546121cd565b601f81116107be575b50602090601f831160011461074c57600092610741575b50508160011b916000199060031b1c19161760028601555b606084015160038601556104b760808501511515600487019060ff801983541691151516179055565b60a08401518051906001600160401b03821161072b5781906104dc60058901546121cd565b601f81116106d8575b50602090601f83116001146106665760009261065b575b50508160011b916000199060031b1c19161760058601555b61053360c08501511515600687019060ff801983541691151516179055565b60e0840151600786015561010084015160088601556101208401516009860155610140840151600a8601556101608401519060058210156106455760209886600f6101e07fea8640de2f174f1fa43c2fa556863133caabcfbbb2e37626b2a0239f4f84b006986105aa61062597600b8f9d0161254e565b610180810151600c8501556101a0810151600d8501556101c0810151600e85015501519101553360005260068a526105e6876040600020612566565b6105f1600854612532565b6008556106096040519560c0875260c087019061208a565b916024358b87015215156040860152848203606086015261208a565b941515608083015260a08201528033940390a36001600255604051908152f35b634e487b7160e01b600052602160045260246000fd5b015190508a806104fc565b9250600588016000526020600020906000935b601f19841685106106bd576001945083601f198116106106a4575b505050811b016005860155610514565b015160001960f88460031b161c191690558a8080610694565b81810151835560209485019460019093019290910190610679565b909150600588016000526020600020601f840160051c810160208510610724575b90849392915b601f830160051c820181106107155750506104e5565b600081558594506001016106ff565b50806106f9565b634e487b7160e01b600052604160045260246000fd5b015190508a80610476565b9250600288016000526020600020906000935b601f19841685106107a3576001945083601f1981161061078a575b505050811b01600286015561048e565b015160001960f88460031b161c191690558a808061077a565b8181015183556020948501946001909301929091019061075f565b909150600288016000526020600020601f840160051c81016020851061080a575b90849392915b601f830160051c820181106107fb57505061045f565b600081558594506001016107e5565b50806107df565b634e487b7160e01b600052601160045260246000fd5b346101ea5760403660031901126101ea5761001b600435610846612031565b90806000526000602052610861600160406000200154612361565b612405565b346101ea5760203660031901126101ea576004356108826125df565b80600052600560205260406000206108a760018060a01b0360018301541633146127c9565b600b810180549160ff83166005811015610645576002916108ca600c921561277b565b01549260ff19161790556108df6008546127bc565b60085580610917575b5033907f71b273ecdaf2f86cf04941c16ff6f1eae913cbfbeef44422d9c1c39847854d13600080a36001600255005b600080808093335af1610928612809565b501561093457816108e8565b60405162461bcd60e51b8152602060048201526011602482015270119959481c99599d5b990819985a5b1959607a1b6044820152606490fd5b346101ea5760203660031901126101ea577f8c4d35e54a3f2ef1134138fd8ea3daee6a3c89e10d2665996babdf70261e2c7660206004356109ac6122ad565b80600355604051908152a1005b346101ea576020806003193601126101ea576001600160a01b036109db612047565b16600052600681526040600020604051808284829454938481520190600052846000209260005b86828210610bad5784610a1781860382611f4d565b6000805b8251811015610a7457610a2e8184612b01565b51600052600580855260ff600b6040600020015416908110156106455715610a5f575b610a5a90612532565b610a1b565b90610a6c610a5a91612532565b919050610a51565b5082610a7f82612b15565b91610a8d6040519384611f4d565b808352610a9c601f1991612b15565b018160005b828110610b97575050506000805b8451811015610b3957610ac28186612b01565b5160005260059081845260ff600b6040600020015416918083101561064557610af19215610af6575b50612532565b610aaf565b610b008288612b01565b516000528452610b32604060002093610b21610b1b82612532565b95612a1f565b610b2b8289612b01565b5286612b01565b5086610aeb565b604080518481528551818601819052600092600582901b830181019188880191889085015b828710610b6b5785850386f35b909192938280610b87600193603f198a820301865288516120cb565b9601920196019592919092610b5e565b610b9f6129a7565b828287010152018290610aa1565b8554845260019586019587955093019201610a02565b346101ea5760203660031901126101ea576004356000908152600560205260409020805460018201546001600160a01b031691610c0260028201612207565b92600382015493600483015460ff1660058401610c1e90612207565b95600685015460ff16966007860154600887015490600988015492600a89015494600b8a015460ff1696600c8b015498600d8c01549a600e8d01549c600f01549d604051806080525260805160200152610200806080516040015260805101610c869161208a565b91608051606001521515608051608001526080518082039060a00152610cab9161208a565b99151560805160c0015260805160e0015260805161010001526080516101200152608051610140015260805161016001610ce4916120be565b60805161018001526080516101a001526080516101c001526080516101e0015260805180910390f35b346101ea5760403660031901126101ea57610d26612047565b6001600160a01b03166000908152600660205260409020805460243591908210156101ea57602091610d579161219f565b90546040519160031b1c8152f35b346101ea5760003660031901126101ea57602060405160008152f35b346101ea5760203660031901126101ea57610d9a6129a7565b506004356000526005602052610dca610db66040600020612a1f565b6040519182916020835260208301906120cb565b0390f35b346101ea5760003660031901126101ea576020600454604051908152f35b346101ea5760403660031901126101ea57610e05612031565b600435600052600060205260406000209060018060a01b0316600052602052602060ff604060002054166040519015158152f35b346101ea5760603660031901126101ea57602435600435604435610e5b612305565b8160005260056020526040600020600b81019081549060ff8216600581101561064557610e88901561277b565b610e9d86610e9860058401612207565b6126d6565b15610eff5783926001600f9360ff191617905542600d82015585600e8201550155610ec96008546127bc565b60085560405192835260208301527ff88d635c6c9dd6ccf33792822b70c3b41dc8cf753aa4ef23ef86461731d31a7560403393a3005b60405162461bcd60e51b815260206004820152602d60248201527f457865637574696f6e20707269636520646576696174657320746f6f206d756360448201526c682066726f6d206f7261636c6560981b6064820152608490fd5b346101ea5760003660031901126101ea57610f736122ad565b610f7b6125c1565b600160ff19815416176001557f62e78cea01bee320cd4e420270b5ea74000d11b0c9f74754ebdbfc544b05a2586020604051338152a1005b346101ea576020806003193601126101ea576001600160a01b03610fd5612047565b1660005260068152604060002060405190818382549182815201908192600052846000209060005b8682821061105357868661101382880383611f4d565b604051928392818401908285525180915260408401929160005b82811061103c57505050500390f35b83518552869550938101939281019260010161102d565b835485529093019260019283019201610ffd565b346101ea576020806003193601126101ea576004356001600160401b0381116101ea57611098903690600401612001565b919060005b8381106110a657005b6110b1818584612997565b356000526005908184526040600020600b81019081549060ff821694851015610645576110ed94159081611142575b506110f2575b5050612532565b61109d565b60ff1916600317905560088054611108906127bc565b9055611115818685612997565b357f74bc747684c4bbf3e0b059e4c600406a6de5ae015fd108b0e5b0b98e71802fe5600080a285806110e6565b600a915001544211886110e0565b346101ea5760403660031901126101ea576004356001600160401b0381116101ea5761118e6111856020923690600401611fc0565b602435906126d6565b6040519015158152f35b6101003660031901126101ea576004356001600160401b0381116101ea576111c490369060040161205d565b906111cd6120af565b60649182356001600160401b0381116101ea576111ee90369060040161205d565b90946084359384151585036101ea576112056125c1565b61120d6125df565b811561182d5782156117f257611226602435151561247a565b60a435156117b95761138860c4351161177d5760e4359560018710611746576102d08711611710575061125d6003543410156124e6565b6007549561126a87612532565b600755610e1081818102048114821517156108115761128a910242612541565b906040519161129883611f16565b8783523360208401526112ac368588611f89565b6040840152602435606084015281151560808401526112cc36868b611f89565b60a084015286151560c084015260a43560e084015260c4356101008401524261012084015261014083015260006101608301523461018083015260006101a083015260006101c083015260006101e0830152866000526005602052604060002093825185556001850160018060a01b036020850151166bffffffffffffffffffffffff60a01b82541617905560408301518051906001600160401b03821161072b57819061137d60028901546121cd565b601f81116116bd575b50602090601f831160011461164b57600092611640575b50508160011b916000199060031b1c19161760028601555b606083015160038601556113de60808401511515600487019060ff801983541691151516179055565b60a08301518051906001600160401b03821161072b57819061140360058901546121cd565b601f81116115ed575b50602090601f831160011461157b57600092611570575b50508160011b916000199060031b1c19161760058601555b61145a60c08401511515600687019060ff801983541691151516179055565b60e0830151600786015561010083015160088601556101208301516009860155610140830151600a8601556101608301519860058a101561064557611531899787600f6101e061154d9860209f6114d590600b7fea8640de2f174f1fa43c2fa556863133caabcfbbb2e37626b2a0239f4f84b0069e0161254e565b610180810151600c8501556101a0810151600d8501556101c0810151600e85015501519101553360005260068c52611511896040600020612566565b61151c600854612532565b6008556040519660c0885260c08801916125a0565b926024358b8701521515604086015284830360608601526125a0565b931515608082015260a43560a08201528033940390a36001600255604051908152f35b015190508b80611423565b9250600588016000526020600020906000935b601f19841685106115d2576001945083601f198116106115b9575b505050811b01600586015561143b565b015160001960f88460031b161c191690558b80806115a9565b8181015183556020948501946001909301929091019061158e565b909150600588016000526020600020601f840160051c810160208510611639575b90849392915b601f830160051c8201811061162a57505061140c565b60008155859450600101611614565b508061160e565b015190508b8061139d565b9250600288016000526020600020906000935b601f19841685106116a2576001945083601f19811610611689575b505050811b0160028601556113b5565b015160001960f88460031b161c191690558b8080611679565b8181015183556020948501946001909301929091019061165e565b909150600288016000526020600020601f840160051c810160208510611709575b90849392915b601f830160051c820181106116fa575050611386565b600081558594506001016116e4565b50806116de565b60405162461bcd60e51b81526020600482015260116024820152704475726174696f6e20746f6f206c6f6e6760781b6044820152fd5b60405162461bcd60e51b8152602060048201526012602482015271111d5c985d1a5bdb881d1bdbc81cda1bdc9d60721b6044820152fd5b60405162461bcd60e51b815260206004820152601560248201527409ac2f040e6d8d2e0e0c2ceca40e8dede40d0d2ced605b1b60448201528690fd5b60405162461bcd60e51b81526020600482015260126024820152710416d6f756e74206d757374206265203e20360741b60448201528690fd5b60405162461bcd60e51b8152602060048201526014602482015273151c98591948185cdcd95d081c995c5d5a5c995960621b60448201528690fd5b60405162461bcd60e51b815260206004820152601460248201527315d85d18da08185cdcd95d081c995c5d5a5c995960621b60448201528690fd5b346101ea5760003660031901126101ea57602060ff600154166040519015158152f35b346101ea5760003660031901126101ea576020600854604051908152f35b346101ea5760403660031901126101ea576118c8602435600435612839565b90610dca6040519283921515835260406020840152604083019061208a565b346101ea5760003660031901126101ea576119006122ad565b47801561195957600080808093335af1611918612809565b501561192057005b60405162461bcd60e51b815260206004820152601160248201527015da5d1a191c985dd85b0819985a5b1959607a1b6044820152606490fd5b60405162461bcd60e51b81526020600482015260136024820152724e6f206665657320746f20776974686472617760681b6044820152606490fd5b346101ea5760003660031901126101ea576020600754604051908152f35b346101ea5760003660031901126101ea576119cb6122ad565b60015460ff811615611a0a5760ff19166001557f5db9ee0a495bf2e6ff9c91a7834c1ba4fdd244a5e8aa4e537bd38aeae4b073aa6020604051338152a1005b604051638dfc202b60e01b8152600490fd5b346101ea5760403660031901126101ea576004356001600160401b0381116101ea57611a4c90369060040161205d565b6024359163ffffffff83168084036101ea577f4ce9f3693e41dabdc77c9be517202f5a1009a7fbeca72cfb83f61b86a77d24b593611aba91611a8c6122ad565b6040518585823760208187810160098152030190209063ffffffff1982541617905560405193849384612b2c565b0390a1005b346101ea5760403660031901126101ea576004356024356001600160401b0381116101ea57611af290369060040161205d565b90611afb612305565b826000526005602052600b6040600020019182549260ff84166005811015610645577f1322c62b2b0266a20579a26b0ddfcf33e8b042d86ceb5fae7b05362ea44afa0394611b4b6004921561277b565b60ff1916179055611b5d6008546127bc565b600855611b776040519283926020845260208401916125a0565b0390a2005b346101ea5760403660031901126101ea57611b95612031565b336001600160a01b03821603611bb15761001b90600435612405565b60405163334bd91960e11b8152600490fd5b346101ea5760403660031901126101ea5761001b600435611be2612031565b90806000526000602052611bfd600160406000200154612361565b612387565b346101ea5760403660031901126101ea576001600160401b036004358181116101ea57611c33903690600401612001565b916024359081116101ea57611c4c903690600401612001565b611c579291926122ad565b808403611d0d5760005b848110611c6a57005b80611c81611c7c611d08938588612997565b612b51565b63ffffffff6020611c93848a89612b62565b919082604051938492833781016009815203019020911663ffffffff198254161790557f4ce9f3693e41dabdc77c9be517202f5a1009a7fbeca72cfb83f61b86a77d24b5611ce2828887612b62565b90611d00611cf4611c7c86898c612997565b60405193849384612b2c565b0390a1612532565b611c61565b60405162461bcd60e51b8152602060048201526015602482015274082e4e4c2f240d8cadccee8d040dad2e6dac2e8c6d605b1b6044820152606490fd5b346101ea5760203660031901126101ea57600435611d666122ad565b6103e88111611da0576020817f0ab56de9fe168ce12a9a1f47b688d739db6607607c1d71dad52ddd8bedcf5e2592600455604051908152a1005b60405162461bcd60e51b8152602060048201526012602482015271088caecd2c2e8d2dedc40e8dede40d0d2ced60731b6044820152606490fd5b346101ea5760203660031901126101ea5760043560005260006020526020600160406000200154604051908152f35b346101ea5760203660031901126101ea576004356001600160401b0381116101ea5763ffffffff611e576020611e4481943690600401611fc0565b8160405193828580945193849201611fde565b810160098152030190205416604051908152f35b346101ea5760003660031901126101ea576020604051610e108152f35b346101ea5760003660031901126101ea5760206040517fd8aa0f3194971a2a116679f7c2090f6939c8d4e01a2a8d7e41d55e5351469e638152f35b346101ea5760203660031901126101ea576004359063ffffffff60e01b82168092036101ea57602091637965db0b60e01b8114908115611f05575b5015158152f35b6301ffc9a760e01b14905083611efe565b61020081019081106001600160401b0382111761072b57604052565b604081019081106001600160401b0382111761072b57604052565b90601f801991011681019081106001600160401b0382111761072b57604052565b6001600160401b03811161072b57601f01601f191660200190565b929192611f9582611f6e565b91611fa36040519384611f4d565b8294818452818301116101ea578281602093846000960137010152565b9080601f830112156101ea57816020611fdb93359101611f89565b90565b60005b838110611ff15750506000910152565b8181015183820152602001611fe1565b9181601f840112156101ea578235916001600160401b0383116101ea576020808501948460051b0101116101ea57565b602435906001600160a01b03821682036101ea57565b600435906001600160a01b03821682036101ea57565b9181601f840112156101ea578235916001600160401b0383116101ea57602083818601950101116101ea57565b906020916120a381518092818552858086019101611fde565b601f01601f1916010190565b6044359081151582036101ea57565b9060058210156106455752565b908151815260018060a01b0360208301511660208201526121266120fe604084015161020080604086015284019061208a565b6060840151606084015260808401511515608084015260a084015183820360a085015261208a565b9160c0810151151560c083015260e081015160e083015261010080820151908301526101208082015190830152610140808201519083015261217161016080830151908401906120be565b61018080820151908301526101a080820151908301526101c080820151908301526101e08091015191015290565b80548210156121b75760005260206000200190600090565b634e487b7160e01b600052603260045260246000fd5b90600182811c921680156121fd575b60208310146121e757565b634e487b7160e01b600052602260045260246000fd5b91607f16916121dc565b906040519182600082549261221b846121cd565b90818452600194858116908160001461228a5750600114612247575b505061224592500383611f4d565b565b9093915060005260209081600020936000915b81831061227257505061224593508201013880612237565b8554888401850152948501948794509183019161225a565b91505061224594506020925060ff191682840152151560051b8201013880612237565b3360009081527fad3228b676f7d3cd4284a5443f17f1962b36e491b30a40b2405849e597ba5fb5602052604081205460ff16156122e75750565b6044906040519063e2517d3f60e01b82523360048301526024820152fd5b3360009081527fdae2aa361dfd1ca020a396615627d436107c35eff9fe7738a3512819782d706960205260409020547fd8aa0f3194971a2a116679f7c2090f6939c8d4e01a2a8d7e41d55e5351469e639060ff16156122e75750565b80600052600060205260406000203360005260205260ff60406000205416156122e75750565b9060009180835282602052604083209160018060a01b03169182845260205260ff6040842054161560001461240057808352826020526040832082845260205260408320600160ff198254161790557f2f8788117e7eff1d82e926ec794901d17c78024a50270940304540a733656f0d339380a4600190565b505090565b9060009180835282602052604083209160018060a01b03169182845260205260ff6040842054166000146124005780835282602052604083208284526020526040832060ff1981541690557ff6391f5c32d9c69d2a47ea670b442974b53935d1edc7fd64eb21e047a839171b339380a4600190565b1561248157565b60405162461bcd60e51b815260206004820152601860248201527f546172676574207072696365206d757374206265203e203000000000000000006044820152606490fd5b81156124d0570490565b634e487b7160e01b600052601260045260246000fd5b156124ed57565b60405162461bcd60e51b815260206004820152601860248201527f496e73756666696369656e7420747269676765722066656500000000000000006044820152606490fd5b60001981146108115760010190565b9190820180921161081157565b9060058110156106455760ff80198354169116179055565b80546801000000000000000081101561072b576125889160018201815561219f565b819291549060031b91821b91600019901b1916179055565b908060209392818452848401376000828201840152601f01601f1916010190565b60ff600154166125cd57565b60405163d93c066560e01b8152600490fd5b60028054146125ee5760028055565b604051633ee5aeb560e01b8152600490fd5b63ffffffff604051828180945161261d8160209788809601611fde565b8101600981520301902054169081156126bf57604051916332c935bb60e21b8352600483015280826024816108075afa916000918361267b575b5050901560001461266b5750600090600090565b906001600160401b038216151590565b81813d83116126b8575b61268f8183611f4d565b810103126126b45751906001600160401b03821682036126b157503880612657565b80fd5b5080fd5b503d612685565b5050600090600090565b9190820391821161081157565b6126df90612600565b15612774576001600160401b03606491160490600082821160001461272f575081612709916126c9565b906127109182810292818404149015171561081157612727916124c6565b600454101590565b92919061273c90826126c9565b612710908181029181830414901517156127605761275b9293506124c6565b612727565b634e487b7160e01b84526011600452602484fd5b5050600190565b1561278257565b60405162461bcd60e51b815260206004820152601260248201527154726967676572206e6f742061637469766560701b6044820152606490fd5b8015610811576000190190565b156127d057565b60405162461bcd60e51b81526020600482015260116024820152702737ba103a3934b3b3b2b91037bbb732b960791b6044820152606490fd5b3d15612834573d9061281a82611f6e565b916128286040519384611f4d565b82523d6000602084013e565b606090565b91909160009081526020906005825260409384822060ff600b8201541660058110156129835761295457600a81015442116129285781156128fe578060ff60046003930154166000146128f557015411155b156128bd57506f526561647920746f206578656375746560801b60019351916128b383611f32565b6010835282015290565b7f507269636520636f6e646974696f6e206e6f74206d6574000000000000000000909351916128eb83611f32565b6017835282015290565b0154101561288b565b50506c496e76616c696420707269636560981b9093519161291e83611f32565b600d835282015290565b50506e151c9a59d9d95c88195e1c1a5c9959608a1b9093519161294a83611f32565b600f835282015290565b50507154726967676572206e6f742061637469766560701b9093519161297983611f32565b6012835282015290565b634e487b7160e01b84526021600452602484fd5b91908110156121b75760051b0190565b604051906129b482611f16565b816101e060009182815282602082015260606040820152826060820152826080820152606060a08201528260c08201528260e08201528261010082015282610120820152826101408201528261016082015282610180820152826101a0820152826101c08201520152565b90604051612a2c81611f16565b8254815260018301546001600160a01b03166020820152918290612a5260028201612207565b60408301526003810154606083015260ff60048201541615156080830152612a7c60058201612207565b60a083015260ff600682015416151560c0830152600781015460e083015260088101546101008301526009810154610120830152600a81015461014083015260ff600b820154166005811015610645576101e091600f91610160850152600c810154610180850152600d8101546101a0850152600e8101546101c08501520154910152565b80518210156121b75760209160051b010190565b6001600160401b03811161072b5760051b60200190565b91612b4a60209263ffffffff929695966040865260408601916125a0565b9416910152565b3563ffffffff811681036101ea5790565b91908110156121b75760051b81013590601e19813603018212156101ea5701908135916001600160401b0383116101ea5760200182360381136101ea57919056fea2646970667358221220ef867960a8d09fa5ce523d53b9c3357620cf8637ae70d2b73ddf1afddbef13e464736f6c634300081400332f8788117e7eff1d82e926ec794901d17c78024a50270940304540a733656f0d",
  "linkReferences": {},
  "deployedLinkReferences": {}
}