{"contracts/TriggerContract.sol":{"TriggerContract":{"abi":[{"inputs":[],"stateMutability":"nonpayable","type":"constructor"},{"inputs":[],"name":"AccessControlBadConfirmation","type":"error"},{"inputs":[{"internalType":"address","name":"account","type":"address"},{"internalType":"bytes32","name":"neededRole","type":"bytes32"}],"name":"AccessControlUnauthorizedAccount","type":"error"},{"inputs":[],"name":"EnforcedPause","type":"error"},{"inputs":[],"name":"ExpectedPause","type":"error"},{"inputs":[],"name":"InsufficientDeposit","type":"error"},{"inputs":[],"name":"InvalidSlippage","type":"error"},{"inputs":[],"name":"NotRefundable","type":"error"},{"inputs":[],"name":"OracleCallFailed","type":"error"},{"inputs":[],"name":"ReentrancyGuardReentrantCall","type":"error"},{"inputs":[],"name":"SwapFailed","type":"error"},{"inputs":[],"name":"TokenContractNotSet","type":"error"},{"inputs":[],"name":"TriggerAlreadyExecuted","type":"error"},{"inputs":[],"name":"TriggerBeingExecuted","type":"error"},{"inputs":[],"name":"TriggerConditionNotMet","type":"error"},{"inputs":[],"name":"TriggerNotFound","type":"error"},{"inputs":[],"name":"UnauthorizedUser","type":"error"},{"inputs":[],"name":"ZeroAmount","type":"error"},{"anonymous":false,"inputs":[{"indexed":false,"internalType":"address","name":"account","type":"address"}],"name":"Paused","type":"event"},{"anonymous":false,"inputs":[{"indexed":true,"internalType":"uint256","name":"triggerId","type":"uint256"},{"indexed":true,"internalType":"address","name":"user","type":"address"},{"indexed":false,"internalType":"uint256","name":"usdcAmount","type":"uint256"}],"name":"RefundClaimed","type":"event"},{"anonymous":false,"inputs":[{"indexed":true,"internalType":"bytes32","name":"role","type":"bytes32"},{"indexed":true,"internalType":"bytes32","name":"previousAdminRole","type":"bytes32"},{"indexed":true,"internalType":"bytes32","name":"newAdminRole","type":"bytes32"}],"name":"RoleAdminChanged","type":"event"},{"anonymous":false,"inputs":[{"indexed":true,"internalType":"bytes32","name":"role","type":"bytes32"},{"indexed":true,"internalType":"address","name":"account","type":"address"},{"indexed":true,"internalType":"address","name":"sender","type":"address"}],"name":"RoleGranted","type":"event"},{"anonymous":false,"inputs":[{"indexed":true,"internalType":"bytes32","name":"role","type":"bytes32"},{"indexed":true,"internalType":"address","name":"account","type":"address"},{"indexed":true,"internalType":"address","name":"sender","type":"address"}],"name":"RoleRevoked","type":"event"},{"anonymous":false,"inputs":[{"indexed":true,"internalType":"uint256","name":"triggerId","type":"uint256"},{"indexed":true,"internalType":"address","name":"user","type":"address"}],"name":"TriggerCancelled","type":"event"},{"anonymous":false,"inputs":[{"indexed":true,"internalType":"uint256","name":"triggerId","type":"uint256"},{"indexed":true,"internalType":"address","name":"user","type":"address"},{"indexed":false,"internalType":"uint32","name":"targetOracleIndex","type":"uint32"},{"indexed":false,"internalType":"uint64","name":"targetToken","type":"uint64"},{"indexed":false,"internalType":"uint256","name":"usdcAmount","type":"uint256"},{"indexed":false,"internalType":"uint256","name":"triggerPrice","type":"uint256"},{"indexed":false,"internalType":"bool","name":"isAbove","type":"bool"},{"indexed":false,"internalType":"uint256","name":"maxSlippage","type":"uint256"}],"name":"TriggerCreated","type":"event"},{"anonymous":false,"inputs":[{"indexed":true,"internalType":"uint256","name":"triggerId","type":"uint256"},{"indexed":true,"internalType":"address","name":"executor","type":"address"},{"indexed":false,"internalType":"uint256","name":"executionPrice","type":"uint256"},{"indexed":false,"internalType":"uint256","name":"outputAmount","type":"uint256"}],"name":"TriggerExecuted","type":"event"},{"anonymous":false,"inputs":[{"indexed":true,"internalType":"uint256","name":"triggerId","type":"uint256"},{"indexed":true,"internalType":"address","name":"executor","type":"address"},{"indexed":false,"internalType":"string","name":"reason","type":"string"}],"name":"TriggerExecutionFailed","type":"event"},{"anonymous":false,"inputs":[{"indexed":true,"internalType":"uint256","name":"triggerId","type":"uint256"},{"indexed":true,"internalType":"address","name":"executor","type":"address"},{"indexed":false,"internalType":"uint256","name":"executionPrice","type":"uint256"}],"name":"TriggerExecutionStarted","type":"event"},{"anonymous":false,"inputs":[{"indexed":false,"internalType":"address","name":"account","type":"address"}],"name":"Unpaused","type":"event"},{"inputs":[],"name":"DEFAULT_ADMIN_ROLE","outputs":[{"internalType":"bytes32","name":"","type":"bytes32"}],"stateMutability":"view","type":"function"},{"inputs":[],"name":"EXECUTOR_ROLE","outputs":[{"internalType":"bytes32","name":"","type":"bytes32"}],"stateMutability":"view","type":"function"},{"inputs":[],"name":"MAX_SLIPPAGE","outputs":[{"internalType":"uint256","name":"","type":"uint256"}],"stateMutability":"view","type":"function"},{"inputs":[],"name":"USDC_TOKEN_ID","outputs":[{"internalType":"uint64","name":"","type":"uint64"}],"stateMutability":"view","type":"function"},{"inputs":[{"internalType":"uint256","name":"triggerId","type":"uint256"}],"name":"cancelTrigger","outputs":[],"stateMutability":"nonpayable","type":"function"},{"inputs":[{"internalType":"uint256","name":"triggerId","type":"uint256"}],"name":"claimRefund","outputs":[],"stateMutability":"nonpayable","type":"function"},{"inputs":[{"internalType":"uint256","name":"triggerId","type":"uint256"},{"internalType":"uint256","name":"actualOutputAmount","type":"uint256"}],"name":"completeTriggerExecution","outputs":[],"stateMutability":"nonpayable","type":"function"},{"inputs":[{"internalType":"uint64","name":"rawPrice","type":"uint64"},{"internalType":"uint8","name":"assetDecimals","type":"uint8"}],"name":"convertOraclePrice","outputs":[{"internalType":"uint256","name":"","type":"uint256"}],"stateMutability":"pure","type":"function"},{"inputs":[{"internalType":"uint32","name":"targetOracleIndex","type":"uint32"},{"internalType":"uint64","name":"targetToken","type":"uint64"},{"internalType":"uint256","name":"usdcAmount","type":"uint256"},{"internalType":"uint256","name":"triggerPrice","type":"uint256"},{"internalType":"bool","name":"isAbove","type":"bool"},{"internalType":"uint256","name":"maxSlippage","type":"uint256"}],"name":"createTrigger","outputs":[],"stateMutability":"payable","type":"function"},{"inputs":[{"internalType":"uint64","name":"tokenId","type":"uint64"},{"internalType":"uint256","name":"amount","type":"uint256"}],"name":"emergencyWithdraw","outputs":[],"stateMutability":"nonpayable","type":"function"},{"inputs":[],"name":"executionReward","outputs":[{"internalType":"uint256","name":"","type":"uint256"}],"stateMutability":"view","type":"function"},{"inputs":[{"internalType":"uint64","name":"tokenId","type":"uint64"}],"name":"getContractSpotBalance","outputs":[{"internalType":"uint64","name":"total","type":"uint64"},{"internalType":"uint64","name":"hold","type":"uint64"}],"stateMutability":"view","type":"function"},{"inputs":[{"internalType":"uint32","name":"oracleIndex","type":"uint32"}],"name":"getOraclePrice","outputs":[{"internalType":"uint64","name":"","type":"uint64"}],"stateMutability":"view","type":"function"},{"inputs":[{"internalType":"bytes32","name":"role","type":"bytes32"}],"name":"getRoleAdmin","outputs":[{"internalType":"bytes32","name":"","type":"bytes32"}],"stateMutability":"view","type":"function"},{"inputs":[{"internalType":"uint64","name":"tokenId","type":"uint64"}],"name":"getSystemAddress","outputs":[{"internalType":"address","name":"","type":"address"}],"stateMutability":"pure","type":"function"},{"inputs":[{"internalType":"uint256","name":"triggerId","type":"uint256"}],"name":"getTrigger","outputs":[{"components":[{"internalType":"uint256","name":"id","type":"uint256"},{"internalType":"address","name":"user","type":"address"},{"internalType":"uint32","name":"targetOracleIndex","type":"uint32"},{"internalType":"uint64","name":"targetToken","type":"uint64"},{"internalType":"uint256","name":"usdcAmount","type":"uint256"},{"internalType":"uint256","name":"triggerPrice","type":"uint256"},{"internalType":"bool","name":"isAbove","type":"bool"},{"internalType":"uint256","name":"maxSlippage","type":"uint256"},{"internalType":"uint256","name":"createdAt","type":"uint256"},{"internalType":"enum TriggerContract.ExecutionState","name":"state","type":"uint8"},{"internalType":"uint256","name":"executionStarted","type":"uint256"},{"internalType":"uint256","name":"outputAmount","type":"uint256"}],"internalType":"struct TriggerContract.Trigger","name":"","type":"tuple"}],"stateMutability":"view","type":"function"},{"inputs":[{"internalType":"address","name":"user","type":"address"}],"name":"getUserTriggers","outputs":[{"internalType":"uint256[]","name":"","type":"uint256[]"}],"stateMutability":"view","type":"function"},{"inputs":[{"internalType":"bytes32","name":"role","type":"bytes32"},{"internalType":"address","name":"account","type":"address"}],"name":"grantRole","outputs":[],"stateMutability":"nonpayable","type":"function"},{"inputs":[{"internalType":"bytes32","name":"role","type":"bytes32"},{"internalType":"address","name":"account","type":"address"}],"name":"hasRole","outputs":[{"internalType":"bool","name":"","type":"bool"}],"stateMutability":"view","type":"function"},{"inputs":[{"internalType":"uint256","name":"triggerId","type":"uint256"}],"name":"isTriggerReady","outputs":[{"internalType":"bool","name":"conditionMet","type":"bool"},{"internalType":"uint256","name":"currentPrice","type":"uint256"}],"stateMutability":"view","type":"function"},{"inputs":[{"internalType":"uint256","name":"triggerId","type":"uint256"},{"internalType":"string","name":"reason","type":"string"}],"name":"markExecutionFailed","outputs":[],"stateMutability":"nonpayable","type":"function"},{"inputs":[],"name":"nextTriggerId","outputs":[{"internalType":"uint256","name":"","type":"uint256"}],"stateMutability":"view","type":"function"},{"inputs":[],"name":"pause","outputs":[],"stateMutability":"nonpayable","type":"function"},{"inputs":[],"name":"paused","outputs":[{"internalType":"bool","name":"","type":"bool"}],"stateMutability":"view","type":"function"},{"inputs":[{"internalType":"bytes32","name":"role","type":"bytes32"},{"internalType":"address","name":"callerConfirmation","type":"address"}],"name":"renounceRole","outputs":[],"stateMutability":"nonpayable","type":"function"},{"inputs":[{"internalType":"bytes32","name":"role","type":"bytes32"},{"internalType":"address","name":"account","type":"address"}],"name":"revokeRole","outputs":[],"stateMutability":"nonpayable","type":"function"},{"inputs":[{"internalType":"uint256","name":"newReward","type":"uint256"}],"name":"setExecutionReward","outputs":[],"stateMutability":"nonpayable","type":"function"},{"inputs":[{"internalType":"uint64","name":"tokenId","type":"uint64"},{"internalType":"address","name":"contractAddress","type":"address"}],"name":"setTokenContract","outputs":[],"stateMutability":"nonpayable","type":"function"},{"inputs":[{"internalType":"uint256","name":"triggerId","type":"uint256"}],"name":"startTriggerExecution","outputs":[],"stateMutability":"nonpayable","type":"function"},{"inputs":[{"internalType":"bytes4","name":"interfaceId","type":"bytes4"}],"name":"supportsInterface","outputs":[{"internalType":"bool","name":"","type":"bool"}],"stateMutability":"view","type":"function"},{"inputs":[{"internalType":"uint64","name":"","type":"uint64"}],"name":"tokenContracts","outputs":[{"internalType":"address","name":"","type":"address"}],"stateMutability":"view","type":"function"},{"inputs":[{"internalType":"uint256","name":"","type":"uint256"}],"name":"triggers","outputs":[{"internalType":"uint256","name":"id","type":"uint256"},{"internalType":"address","name":"user","type":"address"},{"internalType":"uint32","name":"targetOracleIndex","type":"uint32"},{"internalType":"uint64","name":"targetToken","type":"uint64"},{"internalType":"uint256","name":"usdcAmount","type":"uint256"},{"internalType":"uint256","name":"triggerPrice","type":"uint256"},{"internalType":"bool","name":"isAbove","type":"bool"},{"internalType":"uint256","name":"maxSlippage","type":"uint256"},{"internalType":"uint256","name":"createdAt","type":"uint256"},{"internalType":"enum TriggerContract.ExecutionState","name":"state","type":"uint8"},{"internalType":"uint256","name":"executionStarted","type":"uint256"},{"internalType":"uint256","name":"outputAmount","type":"uint256"}],"stateMutability":"view","type":"function"},{"inputs":[],"name":"unpause","outputs":[],"stateMutability":"nonpayable","type":"function"},{"inputs":[{"internalType":"address","name":"","type":"address"},{"internalType":"uint256","name":"","type":"uint256"}],"name":"userTriggers","outputs":[{"internalType":"uint256","name":"","type":"uint256"}],"stateMutability":"view","type":"function"},{"inputs":[{"internalType":"address","name":"","type":"address"}],"name":"userUsdcDeposits","outputs":[{"internalType":"uint256","name":"","type":"uint256"}],"stateMutability":"view","type":"function"}],"evm":{"bytecode":{"linkReferences":{},"object":"608060405234620000465760018055662386f26fc10000600355600160045562000029336200004b565b506200003533620000cb565b50604051611d4990816200016e8239f35b600080fd5b6001600160a01b031660008181527fad3228b676f7d3cd4284a5443f17f1962b36e491b30a40b2405849e597ba5fb5602052604081205490919060ff16620000c757818052816020526040822081835260205260408220600160ff19825416179055339160008051602062001eb78339815191528180a4600190565b5090565b6001600160a01b031660008181527fdae2aa361dfd1ca020a396615627d436107c35eff9fe7738a3512819782d706960205260408120549091907fd8aa0f3194971a2a116679f7c2090f6939c8d4e01a2a8d7e41d55e5351469e639060ff166200016857808352826020526040832082845260205260408320600160ff1982541617905560008051602062001eb7833981519152339380a4600190565b50509056fe608080604052600436101561001357600080fd5b60003560e01c90816301ffc9a7146116d55750806307bd0265146116ac5780631c2c75461461168e578063248a9ca31461165f5780632af78bd11461162a5780632f2ff15d146115eb57806330e178cb1461153457806336568abe146114ed5780633f4ba83a1461148357806342227fa4146114655780634f3646921461127b5780635b7baf6414610ff35780635c975abb14610fd057806371876a1614610f1c578063721883fe14610eda57806382b3302114610eb95780638456cb5914610e5f5780638d485a7014610e4357806391d1485414610df6578063955e699914610c895780639c50472b14610ad1578063a217fddf14610ab5578063a349832514610a5d578063a44295c5146106e7578063a78dd42e14610625578063a7ba07c9146105c5578063c332b99b146104bb578063c548da741461048f578063cce63a7e14610455578063cd5160761461041a578063d45ddd9c14610272578063d547741f14610231578063eae5cc9b146101f6578063ecf7ab06146101c15763f9759518146101a057600080fd5b346101bc5760003660031901126101bc57602060405160328152f35b600080fd5b346101bc5760203660031901126101bc5760206101e46101df611767565b611bde565b6040516001600160a01b039091168152f35b346101bc5760403660031901126101bc5761020f611767565b6024359060ff821682036101bc5760209161022991611b5f565b604051908152f35b346101bc5760403660031901126101bc5761027060043561025061173b565b9080600052600060205261026b60016040600020015461185a565b6118fe565b005b346101bc576020806003193601126101bc5760043590610290611c45565b6000828152600682526040902060018101546001600160a01b03908116330361040857600782019081549160ff831660058110156103f257600281146103e0576001146103ce576002859261031b92600460009660ff19161790556001855260058452604085205416940193845460405194858094819363a9059cbb60e01b83523360048401611c75565b03925af1801561038c576103a1575b506000808080600354818115610398575b3390f11561038c576008905491336000525261035d6040600020918254611c68565b905533907f71b273ecdaf2f86cf04941c16ff6f1eae913cbfbeef44422d9c1c39847854d13600080a360018055005b6040513d6000823e3d90fd5b506108fc61033b565b6103c090833d85116103c7575b6103b881836119aa565b810190611c0f565b508361032a565b503d6103ae565b604051630bf1bfcb60e21b8152600490fd5b604051637964cce760e01b8152600490fd5b634e487b7160e01b600052602160045260246000fd5b6040516302a43f8b60e01b8152600490fd5b346101bc5760203660031901126101bc57604061043d610438611767565b611a97565b82516000196001851b01928316815291166020820152f35b346101bc5760203660031901126101bc576001600160a01b03610476611751565b1660005260086020526020604060002054604051908152f35b346101bc5760203660031901126101bc5760406104ad600435611c90565b825191151582526020820152f35b346101bc5760403660031901126101bc576001600160401b036004356024358281116101bc57366023820112156101bc5780600401359283116101bc5736602484830101116101bc5761050c611c45565b610514611810565b600082815260066020526040902060018101546001600160a01b0316156105b3576007019081549160ff831660058110156103f2576001036103e05760037fe2f539a3535e507c6a2144a65d12ba177cee10bd8b9e02b2940080234f9e8ded9360ff191617905583602460405192602084528260208501520160408301376000604085830101526040813395601f80199101168101030190a360018055005b6040516364bec99f60e11b8152600490fd5b346101bc5760403660031901126101bc576105de611767565b6105e661173b565b906105ef6117b8565b6001600160401b0316600090815260056020526040902080546001600160a01b0319166001600160a01b03909216919091179055005b346101bc5760203660031901126101bc57600435600052600660205261018060406000208054906001810154906106d96002820154600383015460ff60048501541660058501549060068601549260ff6007880154169460096008890154980154986040519a8b5260018060a01b03811660208c015263ffffffff8160a01c1660408c015260c01c60608b015260808a015260a0890152151560c088015260e087015261010086015261012085019061177d565b610140830152610160820152f35b60c03660031901126101bc576106fb611728565b6024356001600160401b03811681036101bc5760843580151581036101bc57610722611c45565b61072a611c27565b60443515610a4b5761138860a43511610a39576003543410610a275761074f83611a20565b50600160005260056020527f1471eb6eb2c5e789fc3de43f8ce62938c7d1836ec861730447e2ada8fd81017b546001600160a01b03168015610a155760206000916064604051809481936323b872dd60e01b835233600484015230602484015260443560448401525af1801561038c576109f6575b506004549160001983146109ca57600183016004556040516107e581611973565b83815233602082015263ffffffff8516604082015260018060401b0382166060820152604435608082015260643560a082015282151560c082015260a43560e0820152426101008201526000610120820152600061014082015260006101608201528360005260066020526040600020908051825560018060a01b0360208201511663ffffffff60a01b604083015160a01b1660018060c01b0319606084015160c01b1691171760018301556080810151600283015560a081015160038301556004820160c0820151151560ff8019835416911617905560e08101516005830155610100810151600683015561012081015160058110156103f25760099161016091600785019060ff801983541691161790556101408101516008850155015191015533600052600760205260406000208054600160401b8110156109e0576109339160018201815561178a565b81549060031b9085821b91600019901b1916179055336000526008602052604060002080549060443582018092116109ca575563ffffffff6040519416845260018060401b03166020840152604435604084015260643560608401521515608083015260a43560a08301527f4fe5a9916d833d964266d87040f9d46efaff2df8145a4b9a224fe459baf876c260c03393a360018055005b634e487b7160e01b600052601160045260246000fd5b634e487b7160e01b600052604160045260246000fd5b610a0e9060203d6020116103c7576103b881836119aa565b50836107c4565b604051634c32eccd60e11b8152600490fd5b60405163070f6eed60e11b8152600490fd5b60405163334ee9a160e01b8152600490fd5b604051631f2a200560e01b8152600490fd5b346101bc5760403660031901126101bc57610a76611751565b6001600160a01b03166000908152600760205260409020805460243591908210156101bc57602091610aa79161178a565b90546040519160031b1c8152f35b346101bc5760003660031901126101bc57602060405160008152f35b346101bc5760203660031901126101bc576000610160604051610af381611973565b8281528260208201528260408201528260608201528260808201528260a08201528260c08201528260e0820152826101008201528261012082015282610140820152015260043560005260066020526040600020604051610b5381611973565b81548152600182015460018060a01b038116602083015263ffffffff8160a01c16604083015260c01c606082015260028201546080820152600382015460a082015260ff600483015416151560c0820152600582015460e0820152600682015461010082015260ff60078301541660058110156103f2576101809260099161012084015260088101546101408401520154610160820152610160604051918051835260018060a01b03602082015116602084015263ffffffff604082015116604084015260018060401b0360608201511660608401526080810151608084015260a081015160a084015260c0810151151560c084015260e081015160e0840152610100810151610100840152610c7361012082015161012085019061177d565b6101408101516101408401520151610160820152f35b346101bc576020806003193601126101bc57600435610ca6611c45565b610cae611c27565b610cb6611810565b6000818152600683526040902060018101546001600160a01b03939091848316156105b357600781019485549360ff851660058110156103f2576103e057610d0963ffffffff610d0e9260a01c16611a20565b611b3b565b9560ff600484015416600014610de95760038301548710155b15610dd75760028493604492600160009860ff1916179055426008820155015491600186526005845260408620541691604051958693849263a9059cbb60e01b8452600180609d1b01600485015260248401525af191821561038c577fae294fda5f576d88acaf01ef83a87bdf24f852f32034fae5de5c54602c58b08892610dba575b506040519384523393a360018055005b610dd090823d84116103c7576103b881836119aa565b5084610daa565b604051631cd6f91f60e21b8152600490fd5b6003830154871115610d27565b346101bc5760403660031901126101bc57610e0f61173b565b600435600052600060205260406000209060018060a01b0316600052602052602060ff604060002054166040519015158152f35b346101bc5760003660031901126101bc57602060405160018152f35b346101bc5760003660031901126101bc57610e786117b8565b610e80611c27565b600160ff1960025416176002557f62e78cea01bee320cd4e420270b5ea74000d11b0c9f74754ebdbfc544b05a2586020604051338152a1005b346101bc5760203660031901126101bc57610ed26117b8565b600435600355005b346101bc5760203660031901126101bc576001600160401b03610efb611767565b166000526005602052602060018060a01b0360406000205416604051908152f35b346101bc576020806003193601126101bc576001600160a01b03610f3e611751565b1660005260078152604060002060405190818382549182815201908192600052846000209060005b86828210610fbc578686610f7c828803836119aa565b604051928392818401908285525180915260408401929160005b828110610fa557505050500390f35b835185528695509381019392810192600101610f96565b835485529093019260019283019201610f66565b346101bc5760003660031901126101bc57602060ff600254166040519015158152f35b346101bc576020806003193601126101bc57600435611010611c45565b6000818152600683526040902060018101546001600160a01b0390811633036104085760078201805460ff811660058110156103f2576003036112695760049060ff1916179055600160005260058452604060002054166040516370a0823160e01b81523060048201528481602481855afa92831561038c578591600094611237575b5060020180549093811161116557506110c7600092845460405194858094819363a9059cbb60e01b83523360048401611c75565b03925af1801561038c57611148575b505b600080808060035481811561113f575b3390f11561038c57807ff3f402280ef0a7905e124aa621b65eaeb2725c343e8b36d398ed78c29daf285c9154336000526008855261112c6040600020918254611c68565b905554926040519384523393a360018055005b506108fc6110e8565b61115e90843d86116103c7576103b881836119aa565b50836110d6565b91505060405190600685830152336040830152600160608301526080820152608081526111918161198f565b604051848101916317938e1360e01b83528560248301528051908160448401528660005b8381106112235750505091816111e96064828660008381998299010152601f801991011681010360448101845201826119aa565b5190827333333333333333333333333333333333333333335af161120b6119cd565b506110d8575b60405163081ceff360e41b8152600490fd5b8281018201518582016064015281016111b5565b8281939295503d8311611262575b61124f81836119aa565b810103126101bc57519184906002611093565b503d611245565b604051631ba168fb60e11b8152600490fd5b346101bc5760403660031901126101bc5760243560043561129a611c45565b6112a2611c27565b6112aa611810565b80600052602091600683526040600020600181019081549060018060a01b039182811680156105b357600783019160ff83541660058110156103f2576001036103e05760c01c866112fa82611a97565b506001600160401b031610611211576040519160068a84015260408301526060820152856080820152608081526113308161198f565b604051888101916317938e1360e01b83528960248301528051908160448401528a60005b8381106114515750505091816113886064828660008381998299010152601f801991011681010360448101845201826119aa565b5190827333333333333333333333333333333333333333335af16113aa6119cd565b501561121157600260ff198254161790558360098201556000808080600354818115611448575b3390f11561038c5761141292610d0992600263ffffffff93015490825416600052600888526114066040600020918254611c68565b90555460a01c16611a20565b926040519384528301527f97aeecd1ccc9a1d182697b34bbb36ee4d32463998821b003c5a22c36563a596860403393a360018055005b506108fc6113d1565b828101820151858201606401528101611354565b346101bc5760003660031901126101bc576020600454604051908152f35b346101bc5760003660031901126101bc5761149c6117b8565b60025460ff8116156114db5760ff19166002557f5db9ee0a495bf2e6ff9c91a7834c1ba4fdd244a5e8aa4e537bd38aeae4b073aa6020604051338152a1005b604051638dfc202b60e01b8152600490fd5b346101bc5760403660031901126101bc5761150661173b565b336001600160a01b0382160361152257610270906004356118fe565b60405163334bd91960e11b8152600490fd5b346101bc5760403660031901126101bc57600061154f611767565b6024359061155b6117b8565b6001600160401b03168015831461158c575081808092818115611583575b3390f11561038c57005b506108fc611579565b6020916115c49184526005835260018060a01b036040852054169060405194858094819363a9059cbb60e01b83523360048401611c75565b03925af1801561038c576115d457005b6102709060203d81116103c7576103b881836119aa565b346101bc5760403660031901126101bc5761027060043561160a61173b565b9080600052600060205261162560016040600020015461185a565b611880565b346101bc5760203660031901126101bc57602061164d611648611728565b611a20565b6040516001600160401b039091168152f35b346101bc5760203660031901126101bc5760043560005260006020526020600160406000200154604051908152f35b346101bc5760003660031901126101bc576020600354604051908152f35b346101bc5760003660031901126101bc576020604051600080516020611cf48339815191528152f35b346101bc5760203660031901126101bc576004359063ffffffff60e01b82168092036101bc57602091637965db0b60e01b8114908115611717575b5015158152f35b6301ffc9a760e01b14905083611710565b6004359063ffffffff821682036101bc57565b602435906001600160a01b03821682036101bc57565b600435906001600160a01b03821682036101bc57565b600435906001600160401b03821682036101bc57565b9060058210156103f25752565b80548210156117a25760005260206000200190600090565b634e487b7160e01b600052603260045260246000fd5b3360009081527fad3228b676f7d3cd4284a5443f17f1962b36e491b30a40b2405849e597ba5fb5602052604081205460ff16156117f25750565b6044906040519063e2517d3f60e01b82523360048301526024820152fd5b3360009081527fdae2aa361dfd1ca020a396615627d436107c35eff9fe7738a3512819782d70696020526040902054600080516020611cf48339815191529060ff16156117f25750565b80600052600060205260406000203360005260205260ff60406000205416156117f25750565b9060009180835282602052604083209160018060a01b03169182845260205260ff604084205416156000146118f957808352826020526040832082845260205260408320600160ff198254161790557f2f8788117e7eff1d82e926ec794901d17c78024a50270940304540a733656f0d339380a4600190565b505090565b9060009180835282602052604083209160018060a01b03169182845260205260ff6040842054166000146118f95780835282602052604083208284526020526040832060ff1981541690557ff6391f5c32d9c69d2a47ea670b442974b53935d1edc7fd64eb21e047a839171b339380a4600190565b61018081019081106001600160401b038211176109e057604052565b60a081019081106001600160401b038211176109e057604052565b601f909101601f19168101906001600160401b038211908210176109e057604052565b3d15611a07573d906001600160401b0382116109e057604051916119fb601f8201601f1916602001846119aa565b82523d6000602084013e565b606090565b51906001600160401b03821682036101bc57565b6040805163ffffffff90921660208084019182528352908201906001600160401b038211838310176109e057600092839260405251906108075afa611a636119cd565b9015611a85576020818051810103126101bc576020611a829101611a0c565b90565b604051638390524960e01b8152600490fd5b6040805130602082019081526001600160401b03938416828401528282529192909160608301918211838310176109e0576000928392855251906108015afa611ade6119cd565b9015611b19576060818051810103126101bc57611b146060611b0d611b0560208501611a0c565b948401611a0c565b9201611a0c565b509091565b8151638390524960e01b8152600490fd5b60ff16604d81116109ca57600a0a90565b6001600160401b031664e8d4a5100081810291808304909114901517156109ca5790565b9060ff1660128110611baa576011190160ff81116109ca57611b8090611b2a565b908115611b94576001600160401b03160490565b634e487b7160e01b600052601260045260246000fd5b6001600160401b039091169060120360ff81116109ca57611bca90611b2a565b908181029181830414901517156109ca5790565b6001600160401b03168015611bf6576001609d1b1790565b5073222222222222222222222222222222222222222290565b908160209103126101bc575180151581036101bc5790565b60ff60025416611c3357565b60405163d93c066560e01b8152600490fd5b600260015414611c56576002600155565b604051633ee5aeb560e01b8152600490fd5b919082039182116109ca57565b6001600160a01b039091168152602081019190915260400190565b600090815260066020526040902060018101546001600160a01b03811615611ce957611cc9610d0963ffffffff60039360a01c16611a20565b9160ff600482015416600014611ce157015481101591565b015481111591565b505060009060009056fed8aa0f3194971a2a116679f7c2090f6939c8d4e01a2a8d7e41d55e5351469e63a2646970667358221220be0536200462792d505f23e1ce54e9453a823f2a501676ac4ddb82dbbd93444264736f6c634300081400332f8788117e7eff1d82e926ec794901d17c78024a50270940304540a733656f0d","opcodes":"PUSH1 0x80 PUSH1 0x40 MSTORE CALLVALUE PUSH3 0x46 JUMPI PUSH1 0x1 DUP1 SSTORE PUSH7 0x2386F26FC10000 PUSH1 0x3 SSTORE PUSH1 0x1 PUSH1 0x4 SSTORE PUSH3 0x29 CALLER PUSH3 0x4B JUMP JUMPDEST POP PUSH3 0x35 CALLER PUSH3 0xCB JUMP JUMPDEST POP PUSH1 0x40 MLOAD PUSH2 0x1D49 SWAP1 DUP2 PUSH3 0x16E DUP3 CODECOPY RETURN JUMPDEST PUSH1 0x0 DUP1 REVERT JUMPDEST PUSH1 0x1 PUSH1 0x1 PUSH1 0xA0 SHL SUB AND PUSH1 0x0 DUP2 DUP2 MSTORE PUSH32 0xAD3228B676F7D3CD4284A5443F17F1962B36E491B30A40B2405849E597BA5FB5 PUSH1 0x20 MSTORE PUSH1 0x40 DUP2 KECCAK256 SLOAD SWAP1 SWAP2 SWAP1 PUSH1 0xFF AND PUSH3 0xC7 JUMPI DUP2 DUP1 MSTORE DUP2 PUSH1 0x20 MSTORE PUSH1 0x40 DUP3 KECCAK256 DUP2 DUP4 MSTORE PUSH1 0x20 MSTORE PUSH1 0x40 DUP3 KECCAK256 PUSH1 0x1 PUSH1 0xFF NOT DUP3 SLOAD AND OR SWAP1 SSTORE CALLER SWAP2 PUSH1 0x0 DUP1 MLOAD PUSH1 0x20 PUSH3 0x1EB7 DUP4 CODECOPY DUP2 MLOAD SWAP2 MSTORE DUP2 DUP1 LOG4 PUSH1 0x1 SWAP1 JUMP JUMPDEST POP SWAP1 JUMP JUMPDEST PUSH1 0x1 PUSH1 0x1 PUSH1 0xA0 SHL SUB AND PUSH1 0x0 DUP2 DUP2 MSTORE PUSH32 0xDAE2AA361DFD1CA020A396615627D436107C35EFF9FE7738A3512819782D7069 PUSH1 0x20 MSTORE PUSH1 0x40 DUP2 KECCAK256 SLOAD SWAP1 SWAP2 SWAP1 PUSH32 0xD8AA0F3194971A2A116679F7C2090F6939C8D4E01A2A8D7E41D55E5351469E63 SWAP1 PUSH1 0xFF AND PUSH3 0x168 JUMPI DUP1 DUP4 MSTORE DUP3 PUSH1 0x20 MSTORE PUSH1 0x40 DUP4 KECCAK256 DUP3 DUP5 MSTORE PUSH1 0x20 MSTORE PUSH1 0x40 DUP4 KECCAK256 PUSH1 0x1 PUSH1 0xFF NOT DUP3 SLOAD AND OR SWAP1 SSTORE PUSH1 0x0 DUP1 MLOAD PUSH1 0x20 PUSH3 0x1EB7 DUP4 CODECOPY DUP2 MLOAD SWAP2 MSTORE CALLER SWAP4 DUP1 LOG4 PUSH1 0x1 SWAP1 JUMP JUMPDEST POP POP SWAP1 JUMP INVALID PUSH1 0x80 DUP1 PUSH1 0x40 MSTORE PUSH1 0x4 CALLDATASIZE LT ISZERO PUSH2 0x13 JUMPI PUSH1 0x0 DUP1 REVERT JUMPDEST PUSH1 0x0 CALLDATALOAD PUSH1 0xE0 SHR SWAP1 DUP2 PUSH4 0x1FFC9A7 EQ PUSH2 0x16D5 JUMPI POP DUP1 PUSH4 0x7BD0265 EQ PUSH2 0x16AC JUMPI DUP1 PUSH4 0x1C2C7546 EQ PUSH2 0x168E JUMPI DUP1 PUSH4 0x248A9CA3 EQ PUSH2 0x165F JUMPI DUP1 PUSH4 0x2AF78BD1 EQ PUSH2 0x162A JUMPI DUP1 PUSH4 0x2F2FF15D EQ PUSH2 0x15EB JUMPI DUP1 PUSH4 0x30E178CB EQ PUSH2 0x1534 JUMPI DUP1 PUSH4 0x36568ABE EQ PUSH2 0x14ED JUMPI DUP1 PUSH4 0x3F4BA83A EQ PUSH2 0x1483 JUMPI DUP1 PUSH4 0x42227FA4 EQ PUSH2 0x1465 JUMPI DUP1 PUSH4 0x4F364692 EQ PUSH2 0x127B JUMPI DUP1 PUSH4 0x5B7BAF64 EQ PUSH2 0xFF3 JUMPI DUP1 PUSH4 0x5C975ABB EQ PUSH2 0xFD0 JUMPI DUP1 PUSH4 0x71876A16 EQ PUSH2 0xF1C JUMPI DUP1 PUSH4 0x721883FE EQ PUSH2 0xEDA JUMPI DUP1 PUSH4 0x82B33021 EQ PUSH2 0xEB9 JUMPI DUP1 PUSH4 0x8456CB59 EQ PUSH2 0xE5F JUMPI DUP1 PUSH4 0x8D485A70 EQ PUSH2 0xE43 JUMPI DUP1 PUSH4 0x91D14854 EQ PUSH2 0xDF6 JUMPI DUP1 PUSH4 0x955E6999 EQ PUSH2 0xC89 JUMPI DUP1 PUSH4 0x9C50472B EQ PUSH2 0xAD1 JUMPI DUP1 PUSH4 0xA217FDDF EQ PUSH2 0xAB5 JUMPI DUP1 PUSH4 0xA3498325 EQ PUSH2 0xA5D JUMPI DUP1 PUSH4 0xA44295C5 EQ PUSH2 0x6E7 JUMPI DUP1 PUSH4 0xA78DD42E EQ PUSH2 0x625 JUMPI DUP1 PUSH4 0xA7BA07C9 EQ PUSH2 0x5C5 JUMPI DUP1 PUSH4 0xC332B99B EQ PUSH2 0x4BB JUMPI DUP1 PUSH4 0xC548DA74 EQ PUSH2 0x48F JUMPI DUP1 PUSH4 0xCCE63A7E EQ PUSH2 0x455 JUMPI DUP1 PUSH4 0xCD516076 EQ PUSH2 0x41A JUMPI DUP1 PUSH4 0xD45DDD9C EQ PUSH2 0x272 JUMPI DUP1 PUSH4 0xD547741F EQ PUSH2 0x231 JUMPI DUP1 PUSH4 0xEAE5CC9B EQ PUSH2 0x1F6 JUMPI DUP1 PUSH4 0xECF7AB06 EQ PUSH2 0x1C1 JUMPI PUSH4 0xF9759518 EQ PUSH2 0x1A0 JUMPI PUSH1 0x0 DUP1 REVERT JUMPDEST CALLVALUE PUSH2 0x1BC JUMPI PUSH1 0x0 CALLDATASIZE PUSH1 0x3 NOT ADD SLT PUSH2 0x1BC JUMPI PUSH1 0x20 PUSH1 0x40 MLOAD PUSH1 0x32 DUP2 MSTORE RETURN JUMPDEST PUSH1 0x0 DUP1 REVERT JUMPDEST CALLVALUE PUSH2 0x1BC JUMPI PUSH1 0x20 CALLDATASIZE PUSH1 0x3 NOT ADD SLT PUSH2 0x1BC JUMPI PUSH1 0x20 PUSH2 0x1E4 PUSH2 0x1DF PUSH2 0x1767 JUMP JUMPDEST PUSH2 0x1BDE JUMP JUMPDEST PUSH1 0x40 MLOAD PUSH1 0x1 PUSH1 0x1 PUSH1 0xA0 SHL SUB SWAP1 SWAP2 AND DUP2 MSTORE RETURN JUMPDEST CALLVALUE PUSH2 0x1BC JUMPI PUSH1 0x40 CALLDATASIZE PUSH1 0x3 NOT ADD SLT PUSH2 0x1BC JUMPI PUSH2 0x20F PUSH2 0x1767 JUMP JUMPDEST PUSH1 0x24 CALLDATALOAD SWAP1 PUSH1 0xFF DUP3 AND DUP3 SUB PUSH2 0x1BC JUMPI PUSH1 0x20 SWAP2 PUSH2 0x229 SWAP2 PUSH2 0x1B5F JUMP JUMPDEST PUSH1 0x40 MLOAD SWAP1 DUP2 MSTORE RETURN JUMPDEST CALLVALUE PUSH2 0x1BC JUMPI PUSH1 0x40 CALLDATASIZE PUSH1 0x3 NOT ADD SLT PUSH2 0x1BC JUMPI PUSH2 0x270 PUSH1 0x4 CALLDATALOAD PUSH2 0x250 PUSH2 0x173B JUMP JUMPDEST SWAP1 DUP1 PUSH1 0x0 MSTORE PUSH1 0x0 PUSH1 0x20 MSTORE PUSH2 0x26B PUSH1 0x1 PUSH1 0x40 PUSH1 0x0 KECCAK256 ADD SLOAD PUSH2 0x185A JUMP JUMPDEST PUSH2 0x18FE JUMP JUMPDEST STOP JUMPDEST CALLVALUE PUSH2 0x1BC JUMPI PUSH1 0x20 DUP1 PUSH1 0x3 NOT CALLDATASIZE ADD SLT PUSH2 0x1BC JUMPI PUSH1 0x4 CALLDATALOAD SWAP1 PUSH2 0x290 PUSH2 0x1C45 JUMP JUMPDEST PUSH1 0x0 DUP3 DUP2 MSTORE PUSH1 0x6 DUP3 MSTORE PUSH1 0x40 SWAP1 KECCAK256 PUSH1 0x1 DUP2 ADD SLOAD PUSH1 0x1 PUSH1 0x1 PUSH1 0xA0 SHL SUB SWAP1 DUP2 AND CALLER SUB PUSH2 0x408 JUMPI PUSH1 0x7 DUP3 ADD SWAP1 DUP2 SLOAD SWAP2 PUSH1 0xFF DUP4 AND PUSH1 0x5 DUP2 LT ISZERO PUSH2 0x3F2 JUMPI PUSH1 0x2 DUP2 EQ PUSH2 0x3E0 JUMPI PUSH1 0x1 EQ PUSH2 0x3CE JUMPI PUSH1 0x2 DUP6 SWAP3 PUSH2 0x31B SWAP3 PUSH1 0x4 PUSH1 0x0 SWAP7 PUSH1 0xFF NOT AND OR SWAP1 SSTORE PUSH1 0x1 DUP6 MSTORE PUSH1 0x5 DUP5 MSTORE PUSH1 0x40 DUP6 KECCAK256 SLOAD AND SWAP5 ADD SWAP4 DUP5 SLOAD PUSH1 0x40 MLOAD SWAP5 DUP6 DUP1 SWAP5 DUP2 SWAP4 PUSH4 0xA9059CBB PUSH1 0xE0 SHL DUP4 MSTORE CALLER PUSH1 0x4 DUP5 ADD PUSH2 0x1C75 JUMP JUMPDEST SUB SWAP3 GAS CALL DUP1 ISZERO PUSH2 0x38C JUMPI PUSH2 0x3A1 JUMPI JUMPDEST POP PUSH1 0x0 DUP1 DUP1 DUP1 PUSH1 0x3 SLOAD DUP2 DUP2 ISZERO PUSH2 0x398 JUMPI JUMPDEST CALLER SWAP1 CALL ISZERO PUSH2 0x38C JUMPI PUSH1 0x8 SWAP1 SLOAD SWAP2 CALLER PUSH1 0x0 MSTORE MSTORE PUSH2 0x35D PUSH1 0x40 PUSH1 0x0 KECCAK256 SWAP2 DUP3 SLOAD PUSH2 0x1C68 JUMP JUMPDEST SWAP1 SSTORE CALLER SWAP1 PUSH32 0x71B273ECDAF2F86CF04941C16FF6F1EAE913CBFBEEF44422D9C1C39847854D13 PUSH1 0x0 DUP1 LOG3 PUSH1 0x1 DUP1 SSTORE STOP JUMPDEST PUSH1 0x40 MLOAD RETURNDATASIZE PUSH1 0x0 DUP3 RETURNDATACOPY RETURNDATASIZE SWAP1 REVERT JUMPDEST POP PUSH2 0x8FC PUSH2 0x33B JUMP JUMPDEST PUSH2 0x3C0 SWAP1 DUP4 RETURNDATASIZE DUP6 GT PUSH2 0x3C7 JUMPI JUMPDEST PUSH2 0x3B8 DUP2 DUP4 PUSH2 0x19AA JUMP JUMPDEST DUP2 ADD SWAP1 PUSH2 0x1C0F JUMP JUMPDEST POP DUP4 PUSH2 0x32A JUMP JUMPDEST POP RETURNDATASIZE PUSH2 0x3AE JUMP JUMPDEST PUSH1 0x40 MLOAD PUSH4 0xBF1BFCB PUSH1 0xE2 SHL DUP2 MSTORE PUSH1 0x4 SWAP1 REVERT JUMPDEST PUSH1 0x40 MLOAD PUSH4 0x7964CCE7 PUSH1 0xE0 SHL DUP2 MSTORE PUSH1 0x4 SWAP1 REVERT JUMPDEST PUSH4 0x4E487B71 PUSH1 0xE0 SHL PUSH1 0x0 MSTORE PUSH1 0x21 PUSH1 0x4 MSTORE PUSH1 0x24 PUSH1 0x0 REVERT JUMPDEST PUSH1 0x40 MLOAD PUSH4 0x2A43F8B PUSH1 0xE0 SHL DUP2 MSTORE PUSH1 0x4 SWAP1 REVERT JUMPDEST CALLVALUE PUSH2 0x1BC JUMPI PUSH1 0x20 CALLDATASIZE PUSH1 0x3 NOT ADD SLT PUSH2 0x1BC JUMPI PUSH1 0x40 PUSH2 0x43D PUSH2 0x438 PUSH2 0x1767 JUMP JUMPDEST PUSH2 0x1A97 JUMP JUMPDEST DUP3 MLOAD PUSH1 0x0 NOT PUSH1 0x1 DUP6 SHL ADD SWAP3 DUP4 AND DUP2 MSTORE SWAP2 AND PUSH1 0x20 DUP3 ADD MSTORE RETURN JUMPDEST CALLVALUE PUSH2 0x1BC JUMPI PUSH1 0x20 CALLDATASIZE PUSH1 0x3 NOT ADD SLT PUSH2 0x1BC JUMPI PUSH1 0x1 PUSH1 0x1 PUSH1 0xA0 SHL SUB PUSH2 0x476 PUSH2 0x1751 JUMP JUMPDEST AND PUSH1 0x0 MSTORE PUSH1 0x8 PUSH1 0x20 MSTORE PUSH1 0x20 PUSH1 0x40 PUSH1 0x0 KECCAK256 SLOAD PUSH1 0x40 MLOAD SWAP1 DUP2 MSTORE RETURN JUMPDEST CALLVALUE PUSH2 0x1BC JUMPI PUSH1 0x20 CALLDATASIZE PUSH1 0x3 NOT ADD SLT PUSH2 0x1BC JUMPI PUSH1 0x40 PUSH2 0x4AD PUSH1 0x4 CALLDATALOAD PUSH2 0x1C90 JUMP JUMPDEST DUP3 MLOAD SWAP2 ISZERO ISZERO DUP3 MSTORE PUSH1 0x20 DUP3 ADD MSTORE RETURN JUMPDEST CALLVALUE PUSH2 0x1BC JUMPI PUSH1 0x40 CALLDATASIZE PUSH1 0x3 NOT ADD SLT PUSH2 0x1BC JUMPI PUSH1 0x1 PUSH1 0x1 PUSH1 0x40 SHL SUB PUSH1 0x4 CALLDATALOAD PUSH1 0x24 CALLDATALOAD DUP3 DUP2 GT PUSH2 0x1BC JUMPI CALLDATASIZE PUSH1 0x23 DUP3 ADD SLT ISZERO PUSH2 0x1BC JUMPI DUP1 PUSH1 0x4 ADD CALLDATALOAD SWAP3 DUP4 GT PUSH2 0x1BC JUMPI CALLDATASIZE PUSH1 0x24 DUP5 DUP4 ADD ADD GT PUSH2 0x1BC JUMPI PUSH2 0x50C PUSH2 0x1C45 JUMP JUMPDEST PUSH2 0x514 PUSH2 0x1810 JUMP JUMPDEST PUSH1 0x0 DUP3 DUP2 MSTORE PUSH1 0x6 PUSH1 0x20 MSTORE PUSH1 0x40 SWAP1 KECCAK256 PUSH1 0x1 DUP2 ADD SLOAD PUSH1 0x1 PUSH1 0x1 PUSH1 0xA0 SHL SUB AND ISZERO PUSH2 0x5B3 JUMPI PUSH1 0x7 ADD SWAP1 DUP2 SLOAD SWAP2 PUSH1 0xFF DUP4 AND PUSH1 0x5 DUP2 LT ISZERO PUSH2 0x3F2 JUMPI PUSH1 0x1 SUB PUSH2 0x3E0 JUMPI PUSH1 0x3 PUSH32 0xE2F539A3535E507C6A2144A65D12BA177CEE10BD8B9E02B2940080234F9E8DED SWAP4 PUSH1 0xFF NOT AND OR SWAP1 SSTORE DUP4 PUSH1 0x24 PUSH1 0x40 MLOAD SWAP3 PUSH1 0x20 DUP5 MSTORE DUP3 PUSH1 0x20 DUP6 ADD MSTORE ADD PUSH1 0x40 DUP4 ADD CALLDATACOPY PUSH1 0x0 PUSH1 0x40 DUP6 DUP4 ADD ADD MSTORE PUSH1 0x40 DUP2 CALLER SWAP6 PUSH1 0x1F DUP1 NOT SWAP2 ADD AND DUP2 ADD SUB ADD SWAP1 LOG3 PUSH1 0x1 DUP1 SSTORE STOP JUMPDEST PUSH1 0x40 MLOAD PUSH4 0x64BEC99F PUSH1 0xE1 SHL DUP2 MSTORE PUSH1 0x4 SWAP1 REVERT JUMPDEST CALLVALUE PUSH2 0x1BC JUMPI PUSH1 0x40 CALLDATASIZE PUSH1 0x3 NOT ADD SLT PUSH2 0x1BC JUMPI PUSH2 0x5DE PUSH2 0x1767 JUMP JUMPDEST PUSH2 0x5E6 PUSH2 0x173B JUMP JUMPDEST SWAP1 PUSH2 0x5EF PUSH2 0x17B8 JUMP JUMPDEST PUSH1 0x1 PUSH1 0x1 PUSH1 0x40 SHL SUB AND PUSH1 0x0 SWAP1 DUP2 MSTORE PUSH1 0x5 PUSH1 0x20 MSTORE PUSH1 0x40 SWAP1 KECCAK256 DUP1 SLOAD PUSH1 0x1 PUSH1 0x1 PUSH1 0xA0 SHL SUB NOT AND PUSH1 0x1 PUSH1 0x1 PUSH1 0xA0 SHL SUB SWAP1 SWAP3 AND SWAP2 SWAP1 SWAP2 OR SWAP1 SSTORE STOP JUMPDEST CALLVALUE PUSH2 0x1BC JUMPI PUSH1 0x20 CALLDATASIZE PUSH1 0x3 NOT ADD SLT PUSH2 0x1BC JUMPI PUSH1 0x4 CALLDATALOAD PUSH1 0x0 MSTORE PUSH1 0x6 PUSH1 0x20 MSTORE PUSH2 0x180 PUSH1 0x40 PUSH1 0x0 KECCAK256 DUP1 SLOAD SWAP1 PUSH1 0x1 DUP2 ADD SLOAD SWAP1 PUSH2 0x6D9 PUSH1 0x2 DUP3 ADD SLOAD PUSH1 0x3 DUP4 ADD SLOAD PUSH1 0xFF PUSH1 0x4 DUP6 ADD SLOAD AND PUSH1 0x5 DUP6 ADD SLOAD SWAP1 PUSH1 0x6 DUP7 ADD SLOAD SWAP3 PUSH1 0xFF PUSH1 0x7 DUP9 ADD SLOAD AND SWAP5 PUSH1 0x9 PUSH1 0x8 DUP10 ADD SLOAD SWAP9 ADD SLOAD SWAP9 PUSH1 0x40 MLOAD SWAP11 DUP12 MSTORE PUSH1 0x1 DUP1 PUSH1 0xA0 SHL SUB DUP2 AND PUSH1 0x20 DUP13 ADD MSTORE PUSH4 0xFFFFFFFF DUP2 PUSH1 0xA0 SHR AND PUSH1 0x40 DUP13 ADD MSTORE PUSH1 0xC0 SHR PUSH1 0x60 DUP12 ADD MSTORE PUSH1 0x80 DUP11 ADD MSTORE PUSH1 0xA0 DUP10 ADD MSTORE ISZERO ISZERO PUSH1 0xC0 DUP9 ADD MSTORE PUSH1 0xE0 DUP8 ADD MSTORE PUSH2 0x100 DUP7 ADD MSTORE PUSH2 0x120 DUP6 ADD SWAP1 PUSH2 0x177D JUMP JUMPDEST PUSH2 0x140 DUP4 ADD MSTORE PUSH2 0x160 DUP3 ADD MSTORE RETURN JUMPDEST PUSH1 0xC0 CALLDATASIZE PUSH1 0x3 NOT ADD SLT PUSH2 0x1BC JUMPI PUSH2 0x6FB PUSH2 0x1728 JUMP JUMPDEST PUSH1 0x24 CALLDATALOAD PUSH1 0x1 PUSH1 0x1 PUSH1 0x40 SHL SUB DUP2 AND DUP2 SUB PUSH2 0x1BC JUMPI PUSH1 0x84 CALLDATALOAD DUP1 ISZERO ISZERO DUP2 SUB PUSH2 0x1BC JUMPI PUSH2 0x722 PUSH2 0x1C45 JUMP JUMPDEST PUSH2 0x72A PUSH2 0x1C27 JUMP JUMPDEST PUSH1 0x44 CALLDATALOAD ISZERO PUSH2 0xA4B JUMPI PUSH2 0x1388 PUSH1 0xA4 CALLDATALOAD GT PUSH2 0xA39 JUMPI PUSH1 0x3 SLOAD CALLVALUE LT PUSH2 0xA27 JUMPI PUSH2 0x74F DUP4 PUSH2 0x1A20 JUMP JUMPDEST POP PUSH1 0x1 PUSH1 0x0 MSTORE PUSH1 0x5 PUSH1 0x20 MSTORE PUSH32 0x1471EB6EB2C5E789FC3DE43F8CE62938C7D1836EC861730447E2ADA8FD81017B SLOAD PUSH1 0x1 PUSH1 0x1 PUSH1 0xA0 SHL SUB AND DUP1 ISZERO PUSH2 0xA15 JUMPI PUSH1 0x20 PUSH1 0x0 SWAP2 PUSH1 0x64 PUSH1 0x40 MLOAD DUP1 SWAP5 DUP2 SWAP4 PUSH4 0x23B872DD PUSH1 0xE0 SHL DUP4 MSTORE CALLER PUSH1 0x4 DUP5 ADD MSTORE ADDRESS PUSH1 0x24 DUP5 ADD MSTORE PUSH1 0x44 CALLDATALOAD PUSH1 0x44 DUP5 ADD MSTORE GAS CALL DUP1 ISZERO PUSH2 0x38C JUMPI PUSH2 0x9F6 JUMPI JUMPDEST POP PUSH1 0x4 SLOAD SWAP2 PUSH1 0x0 NOT DUP4 EQ PUSH2 0x9CA JUMPI PUSH1 0x1 DUP4 ADD PUSH1 0x4 SSTORE PUSH1 0x40 MLOAD PUSH2 0x7E5 DUP2 PUSH2 0x1973 JUMP JUMPDEST DUP4 DUP2 MSTORE CALLER PUSH1 0x20 DUP3 ADD MSTORE PUSH4 0xFFFFFFFF DUP6 AND PUSH1 0x40 DUP3 ADD MSTORE PUSH1 0x1 DUP1 PUSH1 0x40 SHL SUB DUP3 AND PUSH1 0x60 DUP3 ADD MSTORE PUSH1 0x44 CALLDATALOAD PUSH1 0x80 DUP3 ADD MSTORE PUSH1 0x64 CALLDATALOAD PUSH1 0xA0 DUP3 ADD MSTORE DUP3 ISZERO ISZERO PUSH1 0xC0 DUP3 ADD MSTORE PUSH1 0xA4 CALLDATALOAD PUSH1 0xE0 DUP3 ADD MSTORE TIMESTAMP PUSH2 0x100 DUP3 ADD MSTORE PUSH1 0x0 PUSH2 0x120 DUP3 ADD MSTORE PUSH1 0x0 PUSH2 0x140 DUP3 ADD MSTORE PUSH1 0x0 PUSH2 0x160 DUP3 ADD MSTORE DUP4 PUSH1 0x0 MSTORE PUSH1 0x6 PUSH1 0x20 MSTORE PUSH1 0x40 PUSH1 0x0 KECCAK256 SWAP1 DUP1 MLOAD DUP3 SSTORE PUSH1 0x1 DUP1 PUSH1 0xA0 SHL SUB PUSH1 0x20 DUP3 ADD MLOAD AND PUSH4 0xFFFFFFFF PUSH1 0xA0 SHL PUSH1 0x40 DUP4 ADD MLOAD PUSH1 0xA0 SHL AND PUSH1 0x1 DUP1 PUSH1 0xC0 SHL SUB NOT PUSH1 0x60 DUP5 ADD MLOAD PUSH1 0xC0 SHL AND SWAP2 OR OR PUSH1 0x1 DUP4 ADD SSTORE PUSH1 0x80 DUP2 ADD MLOAD PUSH1 0x2 DUP4 ADD SSTORE PUSH1 0xA0 DUP2 ADD MLOAD PUSH1 0x3 DUP4 ADD SSTORE PUSH1 0x4 DUP3 ADD PUSH1 0xC0 DUP3 ADD MLOAD ISZERO ISZERO PUSH1 0xFF DUP1 NOT DUP4 SLOAD AND SWAP2 AND OR SWAP1 SSTORE PUSH1 0xE0 DUP2 ADD MLOAD PUSH1 0x5 DUP4 ADD SSTORE PUSH2 0x100 DUP2 ADD MLOAD PUSH1 0x6 DUP4 ADD SSTORE PUSH2 0x120 DUP2 ADD MLOAD PUSH1 0x5 DUP2 LT ISZERO PUSH2 0x3F2 JUMPI PUSH1 0x9 SWAP2 PUSH2 0x160 SWAP2 PUSH1 0x7 DUP6 ADD SWAP1 PUSH1 0xFF DUP1 NOT DUP4 SLOAD AND SWAP2 AND OR SWAP1 SSTORE PUSH2 0x140 DUP2 ADD MLOAD PUSH1 0x8 DUP6 ADD SSTORE ADD MLOAD SWAP2 ADD SSTORE CALLER PUSH1 0x0 MSTORE PUSH1 0x7 PUSH1 0x20 MSTORE PUSH1 0x40 PUSH1 0x0 KECCAK256 DUP1 SLOAD PUSH1 0x1 PUSH1 0x40 SHL DUP2 LT ISZERO PUSH2 0x9E0 JUMPI PUSH2 0x933 SWAP2 PUSH1 0x1 DUP3 ADD DUP2 SSTORE PUSH2 0x178A JUMP JUMPDEST DUP2 SLOAD SWAP1 PUSH1 0x3 SHL SWAP1 DUP6 DUP3 SHL SWAP2 PUSH1 0x0 NOT SWAP1 SHL NOT AND OR SWAP1 SSTORE CALLER PUSH1 0x0 MSTORE PUSH1 0x8 PUSH1 0x20 MSTORE PUSH1 0x40 PUSH1 0x0 KECCAK256 DUP1 SLOAD SWAP1 PUSH1 0x44 CALLDATALOAD DUP3 ADD DUP1 SWAP3 GT PUSH2 0x9CA JUMPI SSTORE PUSH4 0xFFFFFFFF PUSH1 0x40 MLOAD SWAP5 AND DUP5 MSTORE PUSH1 0x1 DUP1 PUSH1 0x40 SHL SUB AND PUSH1 0x20 DUP5 ADD MSTORE PUSH1 0x44 CALLDATALOAD PUSH1 0x40 DUP5 ADD MSTORE PUSH1 0x64 CALLDATALOAD PUSH1 0x60 DUP5 ADD MSTORE ISZERO ISZERO PUSH1 0x80 DUP4 ADD MSTORE PUSH1 0xA4 CALLDATALOAD PUSH1 0xA0 DUP4 ADD MSTORE PUSH32 0x4FE5A9916D833D964266D87040F9D46EFAFF2DF8145A4B9A224FE459BAF876C2 PUSH1 0xC0 CALLER SWAP4 LOG3 PUSH1 0x1 DUP1 SSTORE STOP JUMPDEST PUSH4 0x4E487B71 PUSH1 0xE0 SHL PUSH1 0x0 MSTORE PUSH1 0x11 PUSH1 0x4 MSTORE PUSH1 0x24 PUSH1 0x0 REVERT JUMPDEST PUSH4 0x4E487B71 PUSH1 0xE0 SHL PUSH1 0x0 MSTORE PUSH1 0x41 PUSH1 0x4 MSTORE PUSH1 0x24 PUSH1 0x0 REVERT JUMPDEST PUSH2 0xA0E SWAP1 PUSH1 0x20 RETURNDATASIZE PUSH1 0x20 GT PUSH2 0x3C7 JUMPI PUSH2 0x3B8 DUP2 DUP4 PUSH2 0x19AA JUMP JUMPDEST POP DUP4 PUSH2 0x7C4 JUMP JUMPDEST PUSH1 0x40 MLOAD PUSH4 0x4C32ECCD PUSH1 0xE1 SHL DUP2 MSTORE PUSH1 0x4 SWAP1 REVERT JUMPDEST PUSH1 0x40 MLOAD PUSH4 0x70F6EED PUSH1 0xE1 SHL DUP2 MSTORE PUSH1 0x4 SWAP1 REVERT JUMPDEST PUSH1 0x40 MLOAD PUSH4 0x334EE9A1 PUSH1 0xE0 SHL DUP2 MSTORE PUSH1 0x4 SWAP1 REVERT JUMPDEST PUSH1 0x40 MLOAD PUSH4 0x1F2A2005 PUSH1 0xE0 SHL DUP2 MSTORE PUSH1 0x4 SWAP1 REVERT JUMPDEST CALLVALUE PUSH2 0x1BC JUMPI PUSH1 0x40 CALLDATASIZE PUSH1 0x3 NOT ADD SLT PUSH2 0x1BC JUMPI PUSH2 0xA76 PUSH2 0x1751 JUMP JUMPDEST PUSH1 0x1 PUSH1 0x1 PUSH1 0xA0 SHL SUB AND PUSH1 0x0 SWAP1 DUP2 MSTORE PUSH1 0x7 PUSH1 0x20 MSTORE PUSH1 0x40 SWAP1 KECCAK256 DUP1 SLOAD PUSH1 0x24 CALLDATALOAD SWAP2 SWAP1 DUP3 LT ISZERO PUSH2 0x1BC JUMPI PUSH1 0x20 SWAP2 PUSH2 0xAA7 SWAP2 PUSH2 0x178A JUMP JUMPDEST SWAP1 SLOAD PUSH1 0x40 MLOAD SWAP2 PUSH1 0x3 SHL SHR DUP2 MSTORE RETURN JUMPDEST CALLVALUE PUSH2 0x1BC JUMPI PUSH1 0x0 CALLDATASIZE PUSH1 0x3 NOT ADD SLT PUSH2 0x1BC JUMPI PUSH1 0x20 PUSH1 0x40 MLOAD PUSH1 0x0 DUP2 MSTORE RETURN JUMPDEST CALLVALUE PUSH2 0x1BC JUMPI PUSH1 0x20 CALLDATASIZE PUSH1 0x3 NOT ADD SLT PUSH2 0x1BC JUMPI PUSH1 0x0 PUSH2 0x160 PUSH1 0x40 MLOAD PUSH2 0xAF3 DUP2 PUSH2 0x1973 JUMP JUMPDEST DUP3 DUP2 MSTORE DUP3 PUSH1 0x20 DUP3 ADD MSTORE DUP3 PUSH1 0x40 DUP3 ADD MSTORE DUP3 PUSH1 0x60 DUP3 ADD MSTORE DUP3 PUSH1 0x80 DUP3 ADD MSTORE DUP3 PUSH1 0xA0 DUP3 ADD MSTORE DUP3 PUSH1 0xC0 DUP3 ADD MSTORE DUP3 PUSH1 0xE0 DUP3 ADD MSTORE DUP3 PUSH2 0x100 DUP3 ADD MSTORE DUP3 PUSH2 0x120 DUP3 ADD MSTORE DUP3 PUSH2 0x140 DUP3 ADD MSTORE ADD MSTORE PUSH1 0x4 CALLDATALOAD PUSH1 0x0 MSTORE PUSH1 0x6 PUSH1 0x20 MSTORE PUSH1 0x40 PUSH1 0x0 KECCAK256 PUSH1 0x40 MLOAD PUSH2 0xB53 DUP2 PUSH2 0x1973 JUMP JUMPDEST DUP2 SLOAD DUP2 MSTORE PUSH1 0x1 DUP3 ADD SLOAD PUSH1 0x1 DUP1 PUSH1 0xA0 SHL SUB DUP2 AND PUSH1 0x20 DUP4 ADD MSTORE PUSH4 0xFFFFFFFF DUP2 PUSH1 0xA0 SHR AND PUSH1 0x40 DUP4 ADD MSTORE PUSH1 0xC0 SHR PUSH1 0x60 DUP3 ADD MSTORE PUSH1 0x2 DUP3 ADD SLOAD PUSH1 0x80 DUP3 ADD MSTORE PUSH1 0x3 DUP3 ADD SLOAD PUSH1 0xA0 DUP3 ADD MSTORE PUSH1 0xFF PUSH1 0x4 DUP4 ADD SLOAD AND ISZERO ISZERO PUSH1 0xC0 DUP3 ADD MSTORE PUSH1 0x5 DUP3 ADD SLOAD PUSH1 0xE0 DUP3 ADD MSTORE PUSH1 0x6 DUP3 ADD SLOAD PUSH2 0x100 DUP3 ADD MSTORE PUSH1 0xFF PUSH1 0x7 DUP4 ADD SLOAD AND PUSH1 0x5 DUP2 LT ISZERO PUSH2 0x3F2 JUMPI PUSH2 0x180 SWAP3 PUSH1 0x9 SWAP2 PUSH2 0x120 DUP5 ADD MSTORE PUSH1 0x8 DUP2 ADD SLOAD PUSH2 0x140 DUP5 ADD MSTORE ADD SLOAD PUSH2 0x160 DUP3 ADD MSTORE PUSH2 0x160 PUSH1 0x40 MLOAD SWAP2 DUP1 MLOAD DUP4 MSTORE PUSH1 0x1 DUP1 PUSH1 0xA0 SHL SUB PUSH1 0x20 DUP3 ADD MLOAD AND PUSH1 0x20 DUP5 ADD MSTORE PUSH4 0xFFFFFFFF PUSH1 0x40 DUP3 ADD MLOAD AND PUSH1 0x40 DUP5 ADD MSTORE PUSH1 0x1 DUP1 PUSH1 0x40 SHL SUB PUSH1 0x60 DUP3 ADD MLOAD AND PUSH1 0x60 DUP5 ADD MSTORE PUSH1 0x80 DUP2 ADD MLOAD PUSH1 0x80 DUP5 ADD MSTORE PUSH1 0xA0 DUP2 ADD MLOAD PUSH1 0xA0 DUP5 ADD MSTORE PUSH1 0xC0 DUP2 ADD MLOAD ISZERO ISZERO PUSH1 0xC0 DUP5 ADD MSTORE PUSH1 0xE0 DUP2 ADD MLOAD PUSH1 0xE0 DUP5 ADD MSTORE PUSH2 0x100 DUP2 ADD MLOAD PUSH2 0x100 DUP5 ADD MSTORE PUSH2 0xC73 PUSH2 0x120 DUP3 ADD MLOAD PUSH2 0x120 DUP6 ADD SWAP1 PUSH2 0x177D JUMP JUMPDEST PUSH2 0x140 DUP2 ADD MLOAD PUSH2 0x140 DUP5 ADD MSTORE ADD MLOAD PUSH2 0x160 DUP3 ADD MSTORE RETURN JUMPDEST CALLVALUE PUSH2 0x1BC JUMPI PUSH1 0x20 DUP1 PUSH1 0x3 NOT CALLDATASIZE ADD SLT PUSH2 0x1BC JUMPI PUSH1 0x4 CALLDATALOAD PUSH2 0xCA6 PUSH2 0x1C45 JUMP JUMPDEST PUSH2 0xCAE PUSH2 0x1C27 JUMP JUMPDEST PUSH2 0xCB6 PUSH2 0x1810 JUMP JUMPDEST PUSH1 0x0 DUP2 DUP2 MSTORE PUSH1 0x6 DUP4 MSTORE PUSH1 0x40 SWAP1 KECCAK256 PUSH1 0x1 DUP2 ADD SLOAD PUSH1 0x1 PUSH1 0x1 PUSH1 0xA0 SHL SUB SWAP4 SWAP1 SWAP2 DUP5 DUP4 AND ISZERO PUSH2 0x5B3 JUMPI PUSH1 0x7 DUP2 ADD SWAP5 DUP6 SLOAD SWAP4 PUSH1 0xFF DUP6 AND PUSH1 0x5 DUP2 LT ISZERO PUSH2 0x3F2 JUMPI PUSH2 0x3E0 JUMPI PUSH2 0xD09 PUSH4 0xFFFFFFFF PUSH2 0xD0E SWAP3 PUSH1 0xA0 SHR AND PUSH2 0x1A20 JUMP JUMPDEST PUSH2 0x1B3B JUMP JUMPDEST SWAP6 PUSH1 0xFF PUSH1 0x4 DUP5 ADD SLOAD AND PUSH1 0x0 EQ PUSH2 0xDE9 JUMPI PUSH1 0x3 DUP4 ADD SLOAD DUP8 LT ISZERO JUMPDEST ISZERO PUSH2 0xDD7 JUMPI PUSH1 0x2 DUP5 SWAP4 PUSH1 0x44 SWAP3 PUSH1 0x1 PUSH1 0x0 SWAP9 PUSH1 0xFF NOT AND OR SWAP1 SSTORE TIMESTAMP PUSH1 0x8 DUP3 ADD SSTORE ADD SLOAD SWAP2 PUSH1 0x1 DUP7 MSTORE PUSH1 0x5 DUP5 MSTORE PUSH1 0x40 DUP7 KECCAK256 SLOAD AND SWAP2 PUSH1 0x40 MLOAD SWAP6 DUP7 SWAP4 DUP5 SWAP3 PUSH4 0xA9059CBB PUSH1 0xE0 SHL DUP5 MSTORE PUSH1 0x1 DUP1 PUSH1 0x9D SHL ADD PUSH1 0x4 DUP6 ADD MSTORE PUSH1 0x24 DUP5 ADD MSTORE GAS CALL SWAP2 DUP3 ISZERO PUSH2 0x38C JUMPI PUSH32 0xAE294FDA5F576D88ACAF01EF83A87BDF24F852F32034FAE5DE5C54602C58B088 SWAP3 PUSH2 0xDBA JUMPI JUMPDEST POP PUSH1 0x40 MLOAD SWAP4 DUP5 MSTORE CALLER SWAP4 LOG3 PUSH1 0x1 DUP1 SSTORE STOP JUMPDEST PUSH2 0xDD0 SWAP1 DUP3 RETURNDATASIZE DUP5 GT PUSH2 0x3C7 JUMPI PUSH2 0x3B8 DUP2 DUP4 PUSH2 0x19AA JUMP JUMPDEST POP DUP5 PUSH2 0xDAA JUMP JUMPDEST PUSH1 0x40 MLOAD PUSH4 0x1CD6F91F PUSH1 0xE2 SHL DUP2 MSTORE PUSH1 0x4 SWAP1 REVERT JUMPDEST PUSH1 0x3 DUP4 ADD SLOAD DUP8 GT ISZERO PUSH2 0xD27 JUMP JUMPDEST CALLVALUE PUSH2 0x1BC JUMPI PUSH1 0x40 CALLDATASIZE PUSH1 0x3 NOT ADD SLT PUSH2 0x1BC JUMPI PUSH2 0xE0F PUSH2 0x173B JUMP JUMPDEST PUSH1 0x4 CALLDATALOAD PUSH1 0x0 MSTORE PUSH1 0x0 PUSH1 0x20 MSTORE PUSH1 0x40 PUSH1 0x0 KECCAK256 SWAP1 PUSH1 0x1 DUP1 PUSH1 0xA0 SHL SUB AND PUSH1 0x0 MSTORE PUSH1 0x20 MSTORE PUSH1 0x20 PUSH1 0xFF PUSH1 0x40 PUSH1 0x0 KECCAK256 SLOAD AND PUSH1 0x40 MLOAD SWAP1 ISZERO ISZERO DUP2 MSTORE RETURN JUMPDEST CALLVALUE PUSH2 0x1BC JUMPI PUSH1 0x0 CALLDATASIZE PUSH1 0x3 NOT ADD SLT PUSH2 0x1BC JUMPI PUSH1 0x20 PUSH1 0x40 MLOAD PUSH1 0x1 DUP2 MSTORE RETURN JUMPDEST CALLVALUE PUSH2 0x1BC JUMPI PUSH1 0x0 CALLDATASIZE PUSH1 0x3 NOT ADD SLT PUSH2 0x1BC JUMPI PUSH2 0xE78 PUSH2 0x17B8 JUMP JUMPDEST PUSH2 0xE80 PUSH2 0x1C27 JUMP JUMPDEST PUSH1 0x1 PUSH1 0xFF NOT PUSH1 0x2 SLOAD AND OR PUSH1 0x2 SSTORE PUSH32 0x62E78CEA01BEE320CD4E420270B5EA74000D11B0C9F74754EBDBFC544B05A258 PUSH1 0x20 PUSH1 0x40 MLOAD CALLER DUP2 MSTORE LOG1 STOP JUMPDEST CALLVALUE PUSH2 0x1BC JUMPI PUSH1 0x20 CALLDATASIZE PUSH1 0x3 NOT ADD SLT PUSH2 0x1BC JUMPI PUSH2 0xED2 PUSH2 0x17B8 JUMP JUMPDEST PUSH1 0x4 CALLDATALOAD PUSH1 0x3 SSTORE STOP JUMPDEST CALLVALUE PUSH2 0x1BC JUMPI PUSH1 0x20 CALLDATASIZE PUSH1 0x3 NOT ADD SLT PUSH2 0x1BC JUMPI PUSH1 0x1 PUSH1 0x1 PUSH1 0x40 SHL SUB PUSH2 0xEFB PUSH2 0x1767 JUMP JUMPDEST AND PUSH1 0x0 MSTORE PUSH1 0x5 PUSH1 0x20 MSTORE PUSH1 0x20 PUSH1 0x1 DUP1 PUSH1 0xA0 SHL SUB PUSH1 0x40 PUSH1 0x0 KECCAK256 SLOAD AND PUSH1 0x40 MLOAD SWAP1 DUP2 MSTORE RETURN JUMPDEST CALLVALUE PUSH2 0x1BC JUMPI PUSH1 0x20 DUP1 PUSH1 0x3 NOT CALLDATASIZE ADD SLT PUSH2 0x1BC JUMPI PUSH1 0x1 PUSH1 0x1 PUSH1 0xA0 SHL SUB PUSH2 0xF3E PUSH2 0x1751 JUMP JUMPDEST AND PUSH1 0x0 MSTORE PUSH1 0x7 DUP2 MSTORE PUSH1 0x40 PUSH1 0x0 KECCAK256 PUSH1 0x40 MLOAD SWAP1 DUP2 DUP4 DUP3 SLOAD SWAP2 DUP3 DUP2 MSTORE ADD SWAP1 DUP2 SWAP3 PUSH1 0x0 MSTORE DUP5 PUSH1 0x0 KECCAK256 SWAP1 PUSH1 0x0 JUMPDEST DUP7 DUP3 DUP3 LT PUSH2 0xFBC JUMPI DUP7 DUP7 PUSH2 0xF7C DUP3 DUP9 SUB DUP4 PUSH2 0x19AA JUMP JUMPDEST PUSH1 0x40 MLOAD SWAP3 DUP4 SWAP3 DUP2 DUP5 ADD SWAP1 DUP3 DUP6 MSTORE MLOAD DUP1 SWAP2 MSTORE PUSH1 0x40 DUP5 ADD SWAP3 SWAP2 PUSH1 0x0 JUMPDEST DUP3 DUP2 LT PUSH2 0xFA5 JUMPI POP POP POP POP SUB SWAP1 RETURN JUMPDEST DUP4 MLOAD DUP6 MSTORE DUP7 SWAP6 POP SWAP4 DUP2 ADD SWAP4 SWAP3 DUP2 ADD SWAP3 PUSH1 0x1 ADD PUSH2 0xF96 JUMP JUMPDEST DUP4 SLOAD DUP6 MSTORE SWAP1 SWAP4 ADD SWAP3 PUSH1 0x1 SWAP3 DUP4 ADD SWAP3 ADD PUSH2 0xF66 JUMP JUMPDEST CALLVALUE PUSH2 0x1BC JUMPI PUSH1 0x0 CALLDATASIZE PUSH1 0x3 NOT ADD SLT PUSH2 0x1BC JUMPI PUSH1 0x20 PUSH1 0xFF PUSH1 0x2 SLOAD AND PUSH1 0x40 MLOAD SWAP1 ISZERO ISZERO DUP2 MSTORE RETURN JUMPDEST CALLVALUE PUSH2 0x1BC JUMPI PUSH1 0x20 DUP1 PUSH1 0x3 NOT CALLDATASIZE ADD SLT PUSH2 0x1BC JUMPI PUSH1 0x4 CALLDATALOAD PUSH2 0x1010 PUSH2 0x1C45 JUMP JUMPDEST PUSH1 0x0 DUP2 DUP2 MSTORE PUSH1 0x6 DUP4 MSTORE PUSH1 0x40 SWAP1 KECCAK256 PUSH1 0x1 DUP2 ADD SLOAD PUSH1 0x1 PUSH1 0x1 PUSH1 0xA0 SHL SUB SWAP1 DUP2 AND CALLER SUB PUSH2 0x408 JUMPI PUSH1 0x7 DUP3 ADD DUP1 SLOAD PUSH1 0xFF DUP2 AND PUSH1 0x5 DUP2 LT ISZERO PUSH2 0x3F2 JUMPI PUSH1 0x3 SUB PUSH2 0x1269 JUMPI PUSH1 0x4 SWAP1 PUSH1 0xFF NOT AND OR SWAP1 SSTORE PUSH1 0x1 PUSH1 0x0 MSTORE PUSH1 0x5 DUP5 MSTORE PUSH1 0x40 PUSH1 0x0 KECCAK256 SLOAD AND PUSH1 0x40 MLOAD PUSH4 0x70A08231 PUSH1 0xE0 SHL DUP2 MSTORE ADDRESS PUSH1 0x4 DUP3 ADD MSTORE DUP5 DUP2 PUSH1 0x24 DUP2 DUP6 GAS STATICCALL SWAP3 DUP4 ISZERO PUSH2 0x38C JUMPI DUP6 SWAP2 PUSH1 0x0 SWAP5 PUSH2 0x1237 JUMPI JUMPDEST POP PUSH1 0x2 ADD DUP1 SLOAD SWAP1 SWAP4 DUP2 GT PUSH2 0x1165 JUMPI POP PUSH2 0x10C7 PUSH1 0x0 SWAP3 DUP5 SLOAD PUSH1 0x40 MLOAD SWAP5 DUP6 DUP1 SWAP5 DUP2 SWAP4 PUSH4 0xA9059CBB PUSH1 0xE0 SHL DUP4 MSTORE CALLER PUSH1 0x4 DUP5 ADD PUSH2 0x1C75 JUMP JUMPDEST SUB SWAP3 GAS CALL DUP1 ISZERO PUSH2 0x38C JUMPI PUSH2 0x1148 JUMPI JUMPDEST POP JUMPDEST PUSH1 0x0 DUP1 DUP1 DUP1 PUSH1 0x3 SLOAD DUP2 DUP2 ISZERO PUSH2 0x113F JUMPI JUMPDEST CALLER SWAP1 CALL ISZERO PUSH2 0x38C JUMPI DUP1 PUSH32 0xF3F402280EF0A7905E124AA621B65EAEB2725C343E8B36D398ED78C29DAF285C SWAP2 SLOAD CALLER PUSH1 0x0 MSTORE PUSH1 0x8 DUP6 MSTORE PUSH2 0x112C PUSH1 0x40 PUSH1 0x0 KECCAK256 SWAP2 DUP3 SLOAD PUSH2 0x1C68 JUMP JUMPDEST SWAP1 SSTORE SLOAD SWAP3 PUSH1 0x40 MLOAD SWAP4 DUP5 MSTORE CALLER SWAP4 LOG3 PUSH1 0x1 DUP1 SSTORE STOP JUMPDEST POP PUSH2 0x8FC PUSH2 0x10E8 JUMP JUMPDEST PUSH2 0x115E SWAP1 DUP5 RETURNDATASIZE DUP7 GT PUSH2 0x3C7 JUMPI PUSH2 0x3B8 DUP2 DUP4 PUSH2 0x19AA JUMP JUMPDEST POP DUP4 PUSH2 0x10D6 JUMP JUMPDEST SWAP2 POP POP PUSH1 0x40 MLOAD SWAP1 PUSH1 0x6 DUP6 DUP4 ADD MSTORE CALLER PUSH1 0x40 DUP4 ADD MSTORE PUSH1 0x1 PUSH1 0x60 DUP4 ADD MSTORE PUSH1 0x80 DUP3 ADD MSTORE PUSH1 0x80 DUP2 MSTORE PUSH2 0x1191 DUP2 PUSH2 0x198F JUMP JUMPDEST PUSH1 0x40 MLOAD DUP5 DUP2 ADD SWAP2 PUSH4 0x17938E13 PUSH1 0xE0 SHL DUP4 MSTORE DUP6 PUSH1 0x24 DUP4 ADD MSTORE DUP1 MLOAD SWAP1 DUP2 PUSH1 0x44 DUP5 ADD MSTORE DUP7 PUSH1 0x0 JUMPDEST DUP4 DUP2 LT PUSH2 0x1223 JUMPI POP POP POP SWAP2 DUP2 PUSH2 0x11E9 PUSH1 0x64 DUP3 DUP7 PUSH1 0x0 DUP4 DUP2 SWAP10 DUP3 SWAP10 ADD ADD MSTORE PUSH1 0x1F DUP1 NOT SWAP2 ADD AND DUP2 ADD SUB PUSH1 0x44 DUP2 ADD DUP5 MSTORE ADD DUP3 PUSH2 0x19AA JUMP JUMPDEST MLOAD SWAP1 DUP3 PUSH20 0x3333333333333333333333333333333333333333 GAS CALL PUSH2 0x120B PUSH2 0x19CD JUMP JUMPDEST POP PUSH2 0x10D8 JUMPI JUMPDEST PUSH1 0x40 MLOAD PUSH4 0x81CEFF3 PUSH1 0xE4 SHL DUP2 MSTORE PUSH1 0x4 SWAP1 REVERT JUMPDEST DUP3 DUP2 ADD DUP3 ADD MLOAD DUP6 DUP3 ADD PUSH1 0x64 ADD MSTORE DUP2 ADD PUSH2 0x11B5 JUMP JUMPDEST DUP3 DUP2 SWAP4 SWAP3 SWAP6 POP RETURNDATASIZE DUP4 GT PUSH2 0x1262 JUMPI JUMPDEST PUSH2 0x124F DUP2 DUP4 PUSH2 0x19AA JUMP JUMPDEST DUP2 ADD SUB SLT PUSH2 0x1BC JUMPI MLOAD SWAP2 DUP5 SWAP1 PUSH1 0x2 PUSH2 0x1093 JUMP JUMPDEST POP RETURNDATASIZE PUSH2 0x1245 JUMP JUMPDEST PUSH1 0x40 MLOAD PUSH4 0x1BA168FB PUSH1 0xE1 SHL DUP2 MSTORE PUSH1 0x4 SWAP1 REVERT JUMPDEST CALLVALUE PUSH2 0x1BC JUMPI PUSH1 0x40 CALLDATASIZE PUSH1 0x3 NOT ADD SLT PUSH2 0x1BC JUMPI PUSH1 0x24 CALLDATALOAD PUSH1 0x4 CALLDATALOAD PUSH2 0x129A PUSH2 0x1C45 JUMP JUMPDEST PUSH2 0x12A2 PUSH2 0x1C27 JUMP JUMPDEST PUSH2 0x12AA PUSH2 0x1810 JUMP JUMPDEST DUP1 PUSH1 0x0 MSTORE PUSH1 0x20 SWAP2 PUSH1 0x6 DUP4 MSTORE PUSH1 0x40 PUSH1 0x0 KECCAK256 PUSH1 0x1 DUP2 ADD SWAP1 DUP2 SLOAD SWAP1 PUSH1 0x1 DUP1 PUSH1 0xA0 SHL SUB SWAP2 DUP3 DUP2 AND DUP1 ISZERO PUSH2 0x5B3 JUMPI PUSH1 0x7 DUP4 ADD SWAP2 PUSH1 0xFF DUP4 SLOAD AND PUSH1 0x5 DUP2 LT ISZERO PUSH2 0x3F2 JUMPI PUSH1 0x1 SUB PUSH2 0x3E0 JUMPI PUSH1 0xC0 SHR DUP7 PUSH2 0x12FA DUP3 PUSH2 0x1A97 JUMP JUMPDEST POP PUSH1 0x1 PUSH1 0x1 PUSH1 0x40 SHL SUB AND LT PUSH2 0x1211 JUMPI PUSH1 0x40 MLOAD SWAP2 PUSH1 0x6 DUP11 DUP5 ADD MSTORE PUSH1 0x40 DUP4 ADD MSTORE PUSH1 0x60 DUP3 ADD MSTORE DUP6 PUSH1 0x80 DUP3 ADD MSTORE PUSH1 0x80 DUP2 MSTORE PUSH2 0x1330 DUP2 PUSH2 0x198F JUMP JUMPDEST PUSH1 0x40 MLOAD DUP9 DUP2 ADD SWAP2 PUSH4 0x17938E13 PUSH1 0xE0 SHL DUP4 MSTORE DUP10 PUSH1 0x24 DUP4 ADD MSTORE DUP1 MLOAD SWAP1 DUP2 PUSH1 0x44 DUP5 ADD MSTORE DUP11 PUSH1 0x0 JUMPDEST DUP4 DUP2 LT PUSH2 0x1451 JUMPI POP POP POP SWAP2 DUP2 PUSH2 0x1388 PUSH1 0x64 DUP3 DUP7 PUSH1 0x0 DUP4 DUP2 SWAP10 DUP3 SWAP10 ADD ADD MSTORE PUSH1 0x1F DUP1 NOT SWAP2 ADD AND DUP2 ADD SUB PUSH1 0x44 DUP2 ADD DUP5 MSTORE ADD DUP3 PUSH2 0x19AA JUMP JUMPDEST MLOAD SWAP1 DUP3 PUSH20 0x3333333333333333333333333333333333333333 GAS CALL PUSH2 0x13AA PUSH2 0x19CD JUMP JUMPDEST POP ISZERO PUSH2 0x1211 JUMPI PUSH1 0x2 PUSH1 0xFF NOT DUP3 SLOAD AND OR SWAP1 SSTORE DUP4 PUSH1 0x9 DUP3 ADD SSTORE PUSH1 0x0 DUP1 DUP1 DUP1 PUSH1 0x3 SLOAD DUP2 DUP2 ISZERO PUSH2 0x1448 JUMPI JUMPDEST CALLER SWAP1 CALL ISZERO PUSH2 0x38C JUMPI PUSH2 0x1412 SWAP3 PUSH2 0xD09 SWAP3 PUSH1 0x2 PUSH4 0xFFFFFFFF SWAP4 ADD SLOAD SWAP1 DUP3 SLOAD AND PUSH1 0x0 MSTORE PUSH1 0x8 DUP9 MSTORE PUSH2 0x1406 PUSH1 0x40 PUSH1 0x0 KECCAK256 SWAP2 DUP3 SLOAD PUSH2 0x1C68 JUMP JUMPDEST SWAP1 SSTORE SLOAD PUSH1 0xA0 SHR AND PUSH2 0x1A20 JUMP JUMPDEST SWAP3 PUSH1 0x40 MLOAD SWAP4 DUP5 MSTORE DUP4 ADD MSTORE PUSH32 0x97AEECD1CCC9A1D182697B34BBB36EE4D32463998821B003C5A22C36563A5968 PUSH1 0x40 CALLER SWAP4 LOG3 PUSH1 0x1 DUP1 SSTORE STOP JUMPDEST POP PUSH2 0x8FC PUSH2 0x13D1 JUMP JUMPDEST DUP3 DUP2 ADD DUP3 ADD MLOAD DUP6 DUP3 ADD PUSH1 0x64 ADD MSTORE DUP2 ADD PUSH2 0x1354 JUMP JUMPDEST CALLVALUE PUSH2 0x1BC JUMPI PUSH1 0x0 CALLDATASIZE PUSH1 0x3 NOT ADD SLT PUSH2 0x1BC JUMPI PUSH1 0x20 PUSH1 0x4 SLOAD PUSH1 0x40 MLOAD SWAP1 DUP2 MSTORE RETURN JUMPDEST CALLVALUE PUSH2 0x1BC JUMPI PUSH1 0x0 CALLDATASIZE PUSH1 0x3 NOT ADD SLT PUSH2 0x1BC JUMPI PUSH2 0x149C PUSH2 0x17B8 JUMP JUMPDEST PUSH1 0x2 SLOAD PUSH1 0xFF DUP2 AND ISZERO PUSH2 0x14DB JUMPI PUSH1 0xFF NOT AND PUSH1 0x2 SSTORE PUSH32 0x5DB9EE0A495BF2E6FF9C91A7834C1BA4FDD244A5E8AA4E537BD38AEAE4B073AA PUSH1 0x20 PUSH1 0x40 MLOAD CALLER DUP2 MSTORE LOG1 STOP JUMPDEST PUSH1 0x40 MLOAD PUSH4 0x8DFC202B PUSH1 0xE0 SHL DUP2 MSTORE PUSH1 0x4 SWAP1 REVERT JUMPDEST CALLVALUE PUSH2 0x1BC JUMPI PUSH1 0x40 CALLDATASIZE PUSH1 0x3 NOT ADD SLT PUSH2 0x1BC JUMPI PUSH2 0x1506 PUSH2 0x173B JUMP JUMPDEST CALLER PUSH1 0x1 PUSH1 0x1 PUSH1 0xA0 SHL SUB DUP3 AND SUB PUSH2 0x1522 JUMPI PUSH2 0x270 SWAP1 PUSH1 0x4 CALLDATALOAD PUSH2 0x18FE JUMP JUMPDEST PUSH1 0x40 MLOAD PUSH4 0x334BD919 PUSH1 0xE1 SHL DUP2 MSTORE PUSH1 0x4 SWAP1 REVERT JUMPDEST CALLVALUE PUSH2 0x1BC JUMPI PUSH1 0x40 CALLDATASIZE PUSH1 0x3 NOT ADD SLT PUSH2 0x1BC JUMPI PUSH1 0x0 PUSH2 0x154F PUSH2 0x1767 JUMP JUMPDEST PUSH1 0x24 CALLDATALOAD SWAP1 PUSH2 0x155B PUSH2 0x17B8 JUMP JUMPDEST PUSH1 0x1 PUSH1 0x1 PUSH1 0x40 SHL SUB AND DUP1 ISZERO DUP4 EQ PUSH2 0x158C JUMPI POP DUP2 DUP1 DUP1 SWAP3 DUP2 DUP2 ISZERO PUSH2 0x1583 JUMPI JUMPDEST CALLER SWAP1 CALL ISZERO PUSH2 0x38C JUMPI STOP JUMPDEST POP PUSH2 0x8FC PUSH2 0x1579 JUMP JUMPDEST PUSH1 0x20 SWAP2 PUSH2 0x15C4 SWAP2 DUP5 MSTORE PUSH1 0x5 DUP4 MSTORE PUSH1 0x1 DUP1 PUSH1 0xA0 SHL SUB PUSH1 0x40 DUP6 KECCAK256 SLOAD AND SWAP1 PUSH1 0x40 MLOAD SWAP5 DUP6 DUP1 SWAP5 DUP2 SWAP4 PUSH4 0xA9059CBB PUSH1 0xE0 SHL DUP4 MSTORE CALLER PUSH1 0x4 DUP5 ADD PUSH2 0x1C75 JUMP JUMPDEST SUB SWAP3 GAS CALL DUP1 ISZERO PUSH2 0x38C JUMPI PUSH2 0x15D4 JUMPI STOP JUMPDEST PUSH2 0x270 SWAP1 PUSH1 0x20 RETURNDATASIZE DUP2 GT PUSH2 0x3C7 JUMPI PUSH2 0x3B8 DUP2 DUP4 PUSH2 0x19AA JUMP JUMPDEST CALLVALUE PUSH2 0x1BC JUMPI PUSH1 0x40 CALLDATASIZE PUSH1 0x3 NOT ADD SLT PUSH2 0x1BC JUMPI PUSH2 0x270 PUSH1 0x4 CALLDATALOAD PUSH2 0x160A PUSH2 0x173B JUMP JUMPDEST SWAP1 DUP1 PUSH1 0x0 MSTORE PUSH1 0x0 PUSH1 0x20 MSTORE PUSH2 0x1625 PUSH1 0x1 PUSH1 0x40 PUSH1 0x0 KECCAK256 ADD SLOAD PUSH2 0x185A JUMP JUMPDEST PUSH2 0x1880 JUMP JUMPDEST CALLVALUE PUSH2 0x1BC JUMPI PUSH1 0x20 CALLDATASIZE PUSH1 0x3 NOT ADD SLT PUSH2 0x1BC JUMPI PUSH1 0x20 PUSH2 0x164D PUSH2 0x1648 PUSH2 0x1728 JUMP JUMPDEST PUSH2 0x1A20 JUMP JUMPDEST PUSH1 0x40 MLOAD PUSH1 0x1 PUSH1 0x1 PUSH1 0x40 SHL SUB SWAP1 SWAP2 AND DUP2 MSTORE RETURN JUMPDEST CALLVALUE PUSH2 0x1BC JUMPI PUSH1 0x20 CALLDATASIZE PUSH1 0x3 NOT ADD SLT PUSH2 0x1BC JUMPI PUSH1 0x4 CALLDATALOAD PUSH1 0x0 MSTORE PUSH1 0x0 PUSH1 0x20 MSTORE PUSH1 0x20 PUSH1 0x1 PUSH1 0x40 PUSH1 0x0 KECCAK256 ADD SLOAD PUSH1 0x40 MLOAD SWAP1 DUP2 MSTORE RETURN JUMPDEST CALLVALUE PUSH2 0x1BC JUMPI PUSH1 0x0 CALLDATASIZE PUSH1 0x3 NOT ADD SLT PUSH2 0x1BC JUMPI PUSH1 0x20 PUSH1 0x3 SLOAD PUSH1 0x40 MLOAD SWAP1 DUP2 MSTORE RETURN JUMPDEST CALLVALUE PUSH2 0x1BC JUMPI PUSH1 0x0 CALLDATASIZE PUSH1 0x3 NOT ADD SLT PUSH2 0x1BC JUMPI PUSH1 0x20 PUSH1 0x40 MLOAD PUSH1 0x0 DUP1 MLOAD PUSH1 0x20 PUSH2 0x1CF4 DUP4 CODECOPY DUP2 MLOAD SWAP2 MSTORE DUP2 MSTORE RETURN JUMPDEST CALLVALUE PUSH2 0x1BC JUMPI PUSH1 0x20 CALLDATASIZE PUSH1 0x3 NOT ADD SLT PUSH2 0x1BC JUMPI PUSH1 0x4 CALLDATALOAD SWAP1 PUSH4 0xFFFFFFFF PUSH1 0xE0 SHL DUP3 AND DUP1 SWAP3 SUB PUSH2 0x1BC JUMPI PUSH1 0x20 SWAP2 PUSH4 0x7965DB0B PUSH1 0xE0 SHL DUP2 EQ SWAP1 DUP2 ISZERO PUSH2 0x1717 JUMPI JUMPDEST POP ISZERO ISZERO DUP2 MSTORE RETURN JUMPDEST PUSH4 0x1FFC9A7 PUSH1 0xE0 SHL EQ SWAP1 POP DUP4 PUSH2 0x1710 JUMP JUMPDEST PUSH1 0x4 CALLDATALOAD SWAP1 PUSH4 0xFFFFFFFF DUP3 AND DUP3 SUB PUSH2 0x1BC JUMPI JUMP JUMPDEST PUSH1 0x24 CALLDATALOAD SWAP1 PUSH1 0x1 PUSH1 0x1 PUSH1 0xA0 SHL SUB DUP3 AND DUP3 SUB PUSH2 0x1BC JUMPI JUMP JUMPDEST PUSH1 0x4 CALLDATALOAD SWAP1 PUSH1 0x1 PUSH1 0x1 PUSH1 0xA0 SHL SUB DUP3 AND DUP3 SUB PUSH2 0x1BC JUMPI JUMP JUMPDEST PUSH1 0x4 CALLDATALOAD SWAP1 PUSH1 0x1 PUSH1 0x1 PUSH1 0x40 SHL SUB DUP3 AND DUP3 SUB PUSH2 0x1BC JUMPI JUMP JUMPDEST SWAP1 PUSH1 0x5 DUP3 LT ISZERO PUSH2 0x3F2 JUMPI MSTORE JUMP JUMPDEST DUP1 SLOAD DUP3 LT ISZERO PUSH2 0x17A2 JUMPI PUSH1 0x0 MSTORE PUSH1 0x20 PUSH1 0x0 KECCAK256 ADD SWAP1 PUSH1 0x0 SWAP1 JUMP JUMPDEST PUSH4 0x4E487B71 PUSH1 0xE0 SHL PUSH1 0x0 MSTORE PUSH1 0x32 PUSH1 0x4 MSTORE PUSH1 0x24 PUSH1 0x0 REVERT JUMPDEST CALLER PUSH1 0x0 SWAP1 DUP2 MSTORE PUSH32 0xAD3228B676F7D3CD4284A5443F17F1962B36E491B30A40B2405849E597BA5FB5 PUSH1 0x20 MSTORE PUSH1 0x40 DUP2 KECCAK256 SLOAD PUSH1 0xFF AND ISZERO PUSH2 0x17F2 JUMPI POP JUMP JUMPDEST PUSH1 0x44 SWAP1 PUSH1 0x40 MLOAD SWAP1 PUSH4 0xE2517D3F PUSH1 0xE0 SHL DUP3 MSTORE CALLER PUSH1 0x4 DUP4 ADD MSTORE PUSH1 0x24 DUP3 ADD MSTORE REVERT JUMPDEST CALLER PUSH1 0x0 SWAP1 DUP2 MSTORE PUSH32 0xDAE2AA361DFD1CA020A396615627D436107C35EFF9FE7738A3512819782D7069 PUSH1 0x20 MSTORE PUSH1 0x40 SWAP1 KECCAK256 SLOAD PUSH1 0x0 DUP1 MLOAD PUSH1 0x20 PUSH2 0x1CF4 DUP4 CODECOPY DUP2 MLOAD SWAP2 MSTORE SWAP1 PUSH1 0xFF AND ISZERO PUSH2 0x17F2 JUMPI POP JUMP JUMPDEST DUP1 PUSH1 0x0 MSTORE PUSH1 0x0 PUSH1 0x20 MSTORE PUSH1 0x40 PUSH1 0x0 KECCAK256 CALLER PUSH1 0x0 MSTORE PUSH1 0x20 MSTORE PUSH1 0xFF PUSH1 0x40 PUSH1 0x0 KECCAK256 SLOAD AND ISZERO PUSH2 0x17F2 JUMPI POP JUMP JUMPDEST SWAP1 PUSH1 0x0 SWAP2 DUP1 DUP4 MSTORE DUP3 PUSH1 0x20 MSTORE PUSH1 0x40 DUP4 KECCAK256 SWAP2 PUSH1 0x1 DUP1 PUSH1 0xA0 SHL SUB AND SWAP2 DUP3 DUP5 MSTORE PUSH1 0x20 MSTORE PUSH1 0xFF PUSH1 0x40 DUP5 KECCAK256 SLOAD AND ISZERO PUSH1 0x0 EQ PUSH2 0x18F9 JUMPI DUP1 DUP4 MSTORE DUP3 PUSH1 0x20 MSTORE PUSH1 0x40 DUP4 KECCAK256 DUP3 DUP5 MSTORE PUSH1 0x20 MSTORE PUSH1 0x40 DUP4 KECCAK256 PUSH1 0x1 PUSH1 0xFF NOT DUP3 SLOAD AND OR SWAP1 SSTORE PUSH32 0x2F8788117E7EFF1D82E926EC794901D17C78024A50270940304540A733656F0D CALLER SWAP4 DUP1 LOG4 PUSH1 0x1 SWAP1 JUMP JUMPDEST POP POP SWAP1 JUMP JUMPDEST SWAP1 PUSH1 0x0 SWAP2 DUP1 DUP4 MSTORE DUP3 PUSH1 0x20 MSTORE PUSH1 0x40 DUP4 KECCAK256 SWAP2 PUSH1 0x1 DUP1 PUSH1 0xA0 SHL SUB AND SWAP2 DUP3 DUP5 MSTORE PUSH1 0x20 MSTORE PUSH1 0xFF PUSH1 0x40 DUP5 KECCAK256 SLOAD AND PUSH1 0x0 EQ PUSH2 0x18F9 JUMPI DUP1 DUP4 MSTORE DUP3 PUSH1 0x20 MSTORE PUSH1 0x40 DUP4 KECCAK256 DUP3 DUP5 MSTORE PUSH1 0x20 MSTORE PUSH1 0x40 DUP4 KECCAK256 PUSH1 0xFF NOT DUP2 SLOAD AND SWAP1 SSTORE PUSH32 0xF6391F5C32D9C69D2A47EA670B442974B53935D1EDC7FD64EB21E047A839171B CALLER SWAP4 DUP1 LOG4 PUSH1 0x1 SWAP1 JUMP JUMPDEST PUSH2 0x180 DUP2 ADD SWAP1 DUP2 LT PUSH1 0x1 PUSH1 0x1 PUSH1 0x40 SHL SUB DUP3 GT OR PUSH2 0x9E0 JUMPI PUSH1 0x40 MSTORE JUMP JUMPDEST PUSH1 0xA0 DUP2 ADD SWAP1 DUP2 LT PUSH1 0x1 PUSH1 0x1 PUSH1 0x40 SHL SUB DUP3 GT OR PUSH2 0x9E0 JUMPI PUSH1 0x40 MSTORE JUMP JUMPDEST PUSH1 0x1F SWAP1 SWAP2 ADD PUSH1 0x1F NOT AND DUP2 ADD SWAP1 PUSH1 0x1 PUSH1 0x1 PUSH1 0x40 SHL SUB DUP3 GT SWAP1 DUP3 LT OR PUSH2 0x9E0 JUMPI PUSH1 0x40 MSTORE JUMP JUMPDEST RETURNDATASIZE ISZERO PUSH2 0x1A07 JUMPI RETURNDATASIZE SWAP1 PUSH1 0x1 PUSH1 0x1 PUSH1 0x40 SHL SUB DUP3 GT PUSH2 0x9E0 JUMPI PUSH1 0x40 MLOAD SWAP2 PUSH2 0x19FB PUSH1 0x1F DUP3 ADD PUSH1 0x1F NOT AND PUSH1 0x20 ADD DUP5 PUSH2 0x19AA JUMP JUMPDEST DUP3 MSTORE RETURNDATASIZE PUSH1 0x0 PUSH1 0x20 DUP5 ADD RETURNDATACOPY JUMP JUMPDEST PUSH1 0x60 SWAP1 JUMP JUMPDEST MLOAD SWAP1 PUSH1 0x1 PUSH1 0x1 PUSH1 0x40 SHL SUB DUP3 AND DUP3 SUB PUSH2 0x1BC JUMPI JUMP JUMPDEST PUSH1 0x40 DUP1 MLOAD PUSH4 0xFFFFFFFF SWAP1 SWAP3 AND PUSH1 0x20 DUP1 DUP5 ADD SWAP2 DUP3 MSTORE DUP4 MSTORE SWAP1 DUP3 ADD SWAP1 PUSH1 0x1 PUSH1 0x1 PUSH1 0x40 SHL SUB DUP3 GT DUP4 DUP4 LT OR PUSH2 0x9E0 JUMPI PUSH1 0x0 SWAP3 DUP4 SWAP3 PUSH1 0x40 MSTORE MLOAD SWAP1 PUSH2 0x807 GAS STATICCALL PUSH2 0x1A63 PUSH2 0x19CD JUMP JUMPDEST SWAP1 ISZERO PUSH2 0x1A85 JUMPI PUSH1 0x20 DUP2 DUP1 MLOAD DUP2 ADD SUB SLT PUSH2 0x1BC JUMPI PUSH1 0x20 PUSH2 0x1A82 SWAP2 ADD PUSH2 0x1A0C JUMP JUMPDEST SWAP1 JUMP JUMPDEST PUSH1 0x40 MLOAD PUSH4 0x83905249 PUSH1 0xE0 SHL DUP2 MSTORE PUSH1 0x4 SWAP1 REVERT JUMPDEST PUSH1 0x40 DUP1 MLOAD ADDRESS PUSH1 0x20 DUP3 ADD SWAP1 DUP2 MSTORE PUSH1 0x1 PUSH1 0x1 PUSH1 0x40 SHL SUB SWAP4 DUP5 AND DUP3 DUP5 ADD MSTORE DUP3 DUP3 MSTORE SWAP2 SWAP3 SWAP1 SWAP2 PUSH1 0x60 DUP4 ADD SWAP2 DUP3 GT DUP4 DUP4 LT OR PUSH2 0x9E0 JUMPI PUSH1 0x0 SWAP3 DUP4 SWAP3 DUP6 MSTORE MLOAD SWAP1 PUSH2 0x801 GAS STATICCALL PUSH2 0x1ADE PUSH2 0x19CD JUMP JUMPDEST SWAP1 ISZERO PUSH2 0x1B19 JUMPI PUSH1 0x60 DUP2 DUP1 MLOAD DUP2 ADD SUB SLT PUSH2 0x1BC JUMPI PUSH2 0x1B14 PUSH1 0x60 PUSH2 0x1B0D PUSH2 0x1B05 PUSH1 0x20 DUP6 ADD PUSH2 0x1A0C JUMP JUMPDEST SWAP5 DUP5 ADD PUSH2 0x1A0C JUMP JUMPDEST SWAP3 ADD PUSH2 0x1A0C JUMP JUMPDEST POP SWAP1 SWAP2 JUMP JUMPDEST DUP2 MLOAD PUSH4 0x83905249 PUSH1 0xE0 SHL DUP2 MSTORE PUSH1 0x4 SWAP1 REVERT JUMPDEST PUSH1 0xFF AND PUSH1 0x4D DUP2 GT PUSH2 0x9CA JUMPI PUSH1 0xA EXP SWAP1 JUMP JUMPDEST PUSH1 0x1 PUSH1 0x1 PUSH1 0x40 SHL SUB AND PUSH5 0xE8D4A51000 DUP2 DUP2 MUL SWAP2 DUP1 DUP4 DIV SWAP1 SWAP2 EQ SWAP1 ISZERO OR ISZERO PUSH2 0x9CA JUMPI SWAP1 JUMP JUMPDEST SWAP1 PUSH1 0xFF AND PUSH1 0x12 DUP2 LT PUSH2 0x1BAA JUMPI PUSH1 0x11 NOT ADD PUSH1 0xFF DUP2 GT PUSH2 0x9CA JUMPI PUSH2 0x1B80 SWAP1 PUSH2 0x1B2A JUMP JUMPDEST SWAP1 DUP2 ISZERO PUSH2 0x1B94 JUMPI PUSH1 0x1 PUSH1 0x1 PUSH1 0x40 SHL SUB AND DIV SWAP1 JUMP JUMPDEST PUSH4 0x4E487B71 PUSH1 0xE0 SHL PUSH1 0x0 MSTORE PUSH1 0x12 PUSH1 0x4 MSTORE PUSH1 0x24 PUSH1 0x0 REVERT JUMPDEST PUSH1 0x1 PUSH1 0x1 PUSH1 0x40 SHL SUB SWAP1 SWAP2 AND SWAP1 PUSH1 0x12 SUB PUSH1 0xFF DUP2 GT PUSH2 0x9CA JUMPI PUSH2 0x1BCA SWAP1 PUSH2 0x1B2A JUMP JUMPDEST SWAP1 DUP2 DUP2 MUL SWAP2 DUP2 DUP4 DIV EQ SWAP1 ISZERO OR ISZERO PUSH2 0x9CA JUMPI SWAP1 JUMP JUMPDEST PUSH1 0x1 PUSH1 0x1 PUSH1 0x40 SHL SUB AND DUP1 ISZERO PUSH2 0x1BF6 JUMPI PUSH1 0x1 PUSH1 0x9D SHL OR SWAP1 JUMP JUMPDEST POP PUSH20 0x2222222222222222222222222222222222222222 SWAP1 JUMP JUMPDEST SWAP1 DUP2 PUSH1 0x20 SWAP2 SUB SLT PUSH2 0x1BC JUMPI MLOAD DUP1 ISZERO ISZERO DUP2 SUB PUSH2 0x1BC JUMPI SWAP1 JUMP JUMPDEST PUSH1 0xFF PUSH1 0x2 SLOAD AND PUSH2 0x1C33 JUMPI JUMP JUMPDEST PUSH1 0x40 MLOAD PUSH4 0xD93C0665 PUSH1 0xE0 SHL DUP2 MSTORE PUSH1 0x4 SWAP1 REVERT JUMPDEST PUSH1 0x2 PUSH1 0x1 SLOAD EQ PUSH2 0x1C56 JUMPI PUSH1 0x2 PUSH1 0x1 SSTORE JUMP JUMPDEST PUSH1 0x40 MLOAD PUSH4 0x3EE5AEB5 PUSH1 0xE0 SHL DUP2 MSTORE PUSH1 0x4 SWAP1 REVERT JUMPDEST SWAP2 SWAP1 DUP3 SUB SWAP2 DUP3 GT PUSH2 0x9CA JUMPI JUMP JUMPDEST PUSH1 0x1 PUSH1 0x1 PUSH1 0xA0 SHL SUB SWAP1 SWAP2 AND DUP2 MSTORE PUSH1 0x20 DUP2 ADD SWAP2 SWAP1 SWAP2 MSTORE PUSH1 0x40 ADD SWAP1 JUMP JUMPDEST PUSH1 0x0 SWAP1 DUP2 MSTORE PUSH1 0x6 PUSH1 0x20 MSTORE PUSH1 0x40 SWAP1 KECCAK256 PUSH1 0x1 DUP2 ADD SLOAD PUSH1 0x1 PUSH1 0x1 PUSH1 0xA0 SHL SUB DUP2 AND ISZERO PUSH2 0x1CE9 JUMPI PUSH2 0x1CC9 PUSH2 0xD09 PUSH4 0xFFFFFFFF PUSH1 0x3 SWAP4 PUSH1 0xA0 SHR AND PUSH2 0x1A20 JUMP JUMPDEST SWAP2 PUSH1 0xFF PUSH1 0x4 DUP3 ADD SLOAD AND PUSH1 0x0 EQ PUSH2 0x1CE1 JUMPI ADD SLOAD DUP2 LT ISZERO SWAP2 JUMP JUMPDEST ADD SLOAD DUP2 GT ISZERO SWAP2 JUMP JUMPDEST POP POP PUSH1 0x0 SWAP1 PUSH1 0x0 SWAP1 JUMP INVALID 0xD8 0xAA 0xF BALANCE SWAP5 SWAP8 BYTE 0x2A GT PUSH7 0x79F7C2090F6939 0xC8 0xD4 0xE0 BYTE 0x2A DUP14 PUSH31 0x41D55E5351469E63A2646970667358221220BE0536200462792D505F23E1CE SLOAD 0xE9 GASLIMIT GASPRICE DUP3 EXTCODEHASH 0x2A POP AND PUSH23 0xAC4DDB82DBBD93444264736F6C634300081400332F8788 GT PUSH31 0x7EFF1D82E926EC794901D17C78024A50270940304540A733656F0D00000000 "},"methodIdentifiers":{"DEFAULT_ADMIN_ROLE()":"a217fddf","EXECUTOR_ROLE()":"07bd0265","MAX_SLIPPAGE()":"f9759518","USDC_TOKEN_ID()":"8d485a70","cancelTrigger(uint256)":"d45ddd9c","claimRefund(uint256)":"5b7baf64","completeTriggerExecution(uint256,uint256)":"4f364692","convertOraclePrice(uint64,uint8)":"eae5cc9b","createTrigger(uint32,uint64,uint256,uint256,bool,uint256)":"a44295c5","emergencyWithdraw(uint64,uint256)":"30e178cb","executionReward()":"1c2c7546","getContractSpotBalance(uint64)":"cd516076","getOraclePrice(uint32)":"2af78bd1","getRoleAdmin(bytes32)":"248a9ca3","getSystemAddress(uint64)":"ecf7ab06","getTrigger(uint256)":"9c50472b","getUserTriggers(address)":"71876a16","grantRole(bytes32,address)":"2f2ff15d","hasRole(bytes32,address)":"91d14854","isTriggerReady(uint256)":"c548da74","markExecutionFailed(uint256,string)":"c332b99b","nextTriggerId()":"42227fa4","pause()":"8456cb59","paused()":"5c975abb","renounceRole(bytes32,address)":"36568abe","revokeRole(bytes32,address)":"d547741f","setExecutionReward(uint256)":"82b33021","setTokenContract(uint64,address)":"a7ba07c9","startTriggerExecution(uint256)":"955e6999","supportsInterface(bytes4)":"01ffc9a7","tokenContracts(uint64)":"721883fe","triggers(uint256)":"a78dd42e","unpause()":"3f4ba83a","userTriggers(address,uint256)":"a3498325","userUsdcDeposits(address)":"cce63a7e"}},"storageLayout":{"storage":[{"astId":26,"contract":"contracts/TriggerContract.sol:TriggerContract","label":"_roles","offset":0,"slot":"0","type":"t_mapping(t_bytes32,t_struct(RoleData)21_storage)"},{"astId":605,"contract":"contracts/TriggerContract.sol:TriggerContract","label":"_status","offset":0,"slot":"1","type":"t_uint256"},{"astId":495,"contract":"contracts/TriggerContract.sol:TriggerContract","label":"_paused","offset":0,"slot":"2","type":"t_bool"},{"astId":1409,"contract":"contracts/TriggerContract.sol:TriggerContract","label":"executionReward","offset":0,"slot":"3","type":"t_uint256"},{"astId":1412,"contract":"contracts/TriggerContract.sol:TriggerContract","label":"nextTriggerId","offset":0,"slot":"4","type":"t_uint256"},{"astId":1416,"contract":"contracts/TriggerContract.sol:TriggerContract","label":"tokenContracts","offset":0,"slot":"5","type":"t_mapping(t_uint64,t_address)"},{"astId":1453,"contract":"contracts/TriggerContract.sol:TriggerContract","label":"triggers","offset":0,"slot":"6","type":"t_mapping(t_uint256,t_struct(Trigger)1448_storage)"},{"astId":1458,"contract":"contracts/TriggerContract.sol:TriggerContract","label":"userTriggers","offset":0,"slot":"7","type":"t_mapping(t_address,t_array(t_uint256)dyn_storage)"},{"astId":1462,"contract":"contracts/TriggerContract.sol:TriggerContract","label":"userUsdcDeposits","offset":0,"slot":"8","type":"t_mapping(t_address,t_uint256)"}],"types":{"t_address":{"encoding":"inplace","label":"address","numberOfBytes":"20"},"t_array(t_uint256)dyn_storage":{"base":"t_uint256","encoding":"dynamic_array","label":"uint256[]","numberOfBytes":"32"},"t_bool":{"encoding":"inplace","label":"bool","numberOfBytes":"1"},"t_bytes32":{"encoding":"inplace","label":"bytes32","numberOfBytes":"32"},"t_enum(ExecutionState)1422":{"encoding":"inplace","label":"enum TriggerContract.ExecutionState","numberOfBytes":"1"},"t_mapping(t_address,t_array(t_uint256)dyn_storage)":{"encoding":"mapping","key":"t_address","label":"mapping(address => uint256[])","numberOfBytes":"32","value":"t_array(t_uint256)dyn_storage"},"t_mapping(t_address,t_bool)":{"encoding":"mapping","key":"t_address","label":"mapping(address => bool)","numberOfBytes":"32","value":"t_bool"},"t_mapping(t_address,t_uint256)":{"encoding":"mapping","key":"t_address","label":"mapping(address => uint256)","numberOfBytes":"32","value":"t_uint256"},"t_mapping(t_bytes32,t_struct(RoleData)21_storage)":{"encoding":"mapping","key":"t_bytes32","label":"mapping(bytes32 => struct AccessControl.RoleData)","numberOfBytes":"32","value":"t_struct(RoleData)21_storage"},"t_mapping(t_uint256,t_struct(Trigger)1448_storage)":{"encoding":"mapping","key":"t_uint256","label":"mapping(uint256 => struct TriggerContract.Trigger)","numberOfBytes":"32","value":"t_struct(Trigger)1448_storage"},"t_mapping(t_uint64,t_address)":{"encoding":"mapping","key":"t_uint64","label":"mapping(uint64 => address)","numberOfBytes":"32","value":"t_address"},"t_struct(RoleData)21_storage":{"encoding":"inplace","label":"struct AccessControl.RoleData","members":[{"astId":18,"contract":"contracts/TriggerContract.sol:TriggerContract","label":"hasRole","offset":0,"slot":"0","type":"t_mapping(t_address,t_bool)"},{"astId":20,"contract":"contracts/TriggerContract.sol:TriggerContract","label":"adminRole","offset":0,"slot":"1","type":"t_bytes32"}],"numberOfBytes":"64"},"t_struct(Trigger)1448_storage":{"encoding":"inplace","label":"struct TriggerContract.Trigger","members":[{"astId":1424,"contract":"contracts/TriggerContract.sol:TriggerContract","label":"id","offset":0,"slot":"0","type":"t_uint256"},{"astId":1426,"contract":"contracts/TriggerContract.sol:TriggerContract","label":"user","offset":0,"slot":"1","type":"t_address"},{"astId":1428,"contract":"contracts/TriggerContract.sol:TriggerContract","label":"targetOracleIndex","offset":20,"slot":"1","type":"t_uint32"},{"astId":1430,"contract":"contracts/TriggerContract.sol:TriggerContract","label":"targetToken","offset":24,"slot":"1","type":"t_uint64"},{"astId":1432,"contract":"contracts/TriggerContract.sol:TriggerContract","label":"usdcAmount","offset":0,"slot":"2","type":"t_uint256"},{"astId":1434,"contract":"contracts/TriggerContract.sol:TriggerContract","label":"triggerPrice","offset":0,"slot":"3","type":"t_uint256"},{"astId":1436,"contract":"contracts/TriggerContract.sol:TriggerContract","label":"isAbove","offset":0,"slot":"4","type":"t_bool"},{"astId":1438,"contract":"contracts/TriggerContract.sol:TriggerContract","label":"maxSlippage","offset":0,"slot":"5","type":"t_uint256"},{"astId":1440,"contract":"contracts/TriggerContract.sol:TriggerContract","label":"createdAt","offset":0,"slot":"6","type":"t_uint256"},{"astId":1443,"contract":"contracts/TriggerContract.sol:TriggerContract","label":"state","offset":0,"slot":"7","type":"t_enum(ExecutionState)1422"},{"astId":1445,"contract":"contracts/TriggerContract.sol:TriggerContract","label":"executionStarted","offset":0,"slot":"8","type":"t_uint256"},{"astId":1447,"contract":"contracts/TriggerContract.sol:TriggerContract","label":"outputAmount","offset":0,"slot":"9","type":"t_uint256"}],"numberOfBytes":"320"},"t_uint256":{"encoding":"inplace","label":"uint256","numberOfBytes":"32"},"t_uint32":{"encoding":"inplace","label":"uint32","numberOfBytes":"4"},"t_uint64":{"encoding":"inplace","label":"uint64","numberOfBytes":"8"}}}}}}