{"contracts/SwapContract.sol":{"SwapContract":{"abi":[{"inputs":[],"stateMutability":"nonpayable","type":"constructor"},{"inputs":[],"name":"AccessControlBadConfirmation","type":"error"},{"inputs":[{"internalType":"address","name":"account","type":"address"},{"internalType":"bytes32","name":"neededRole","type":"bytes32"}],"name":"AccessControlUnauthorizedAccount","type":"error"},{"inputs":[],"name":"EnforcedPause","type":"error"},{"inputs":[],"name":"ExpectedPause","type":"error"},{"inputs":[],"name":"InsufficientDeposit","type":"error"},{"inputs":[],"name":"InsufficientOutput","type":"error"},{"inputs":[],"name":"InvalidSlippage","type":"error"},{"inputs":[],"name":"OracleCallFailed","type":"error"},{"inputs":[],"name":"ReentrancyGuardReentrantCall","type":"error"},{"inputs":[],"name":"SwapExecutionFailed","type":"error"},{"inputs":[],"name":"TokenContractNotSet","type":"error"},{"inputs":[],"name":"ZeroAmount","type":"error"},{"anonymous":false,"inputs":[{"indexed":false,"internalType":"address","name":"account","type":"address"}],"name":"Paused","type":"event"},{"anonymous":false,"inputs":[{"indexed":true,"internalType":"bytes32","name":"role","type":"bytes32"},{"indexed":true,"internalType":"bytes32","name":"previousAdminRole","type":"bytes32"},{"indexed":true,"internalType":"bytes32","name":"newAdminRole","type":"bytes32"}],"name":"RoleAdminChanged","type":"event"},{"anonymous":false,"inputs":[{"indexed":true,"internalType":"bytes32","name":"role","type":"bytes32"},{"indexed":true,"internalType":"address","name":"account","type":"address"},{"indexed":true,"internalType":"address","name":"sender","type":"address"}],"name":"RoleGranted","type":"event"},{"anonymous":false,"inputs":[{"indexed":true,"internalType":"bytes32","name":"role","type":"bytes32"},{"indexed":true,"internalType":"address","name":"account","type":"address"},{"indexed":true,"internalType":"address","name":"sender","type":"address"}],"name":"RoleRevoked","type":"event"},{"anonymous":false,"inputs":[{"indexed":true,"internalType":"address","name":"user","type":"address"},{"indexed":false,"internalType":"uint64","name":"fromToken","type":"uint64"},{"indexed":false,"internalType":"uint64","name":"targetToken","type":"uint64"},{"indexed":false,"internalType":"uint256","name":"inputAmount","type":"uint256"},{"indexed":false,"internalType":"uint256","name":"outputAmount","type":"uint256"},{"indexed":false,"internalType":"uint256","name":"executionPrice","type":"uint256"}],"name":"SwapExecuted","type":"event"},{"anonymous":false,"inputs":[{"indexed":true,"internalType":"address","name":"user","type":"address"},{"indexed":false,"internalType":"uint64","name":"fromToken","type":"uint64"},{"indexed":false,"internalType":"uint64","name":"targetToken","type":"uint64"},{"indexed":false,"internalType":"uint256","name":"inputAmount","type":"uint256"},{"indexed":false,"internalType":"string","name":"reason","type":"string"}],"name":"SwapFailed","type":"event"},{"anonymous":false,"inputs":[{"indexed":false,"internalType":"address","name":"account","type":"address"}],"name":"Unpaused","type":"event"},{"inputs":[],"name":"DEFAULT_ADMIN_ROLE","outputs":[{"internalType":"bytes32","name":"","type":"bytes32"}],"stateMutability":"view","type":"function"},{"inputs":[],"name":"EXECUTOR_ROLE","outputs":[{"internalType":"bytes32","name":"","type":"bytes32"}],"stateMutability":"view","type":"function"},{"inputs":[],"name":"MAX_SLIPPAGE","outputs":[{"internalType":"uint256","name":"","type":"uint256"}],"stateMutability":"view","type":"function"},{"inputs":[{"internalType":"uint64","name":"rawPrice","type":"uint64"},{"internalType":"uint8","name":"assetDecimals","type":"uint8"}],"name":"convertOraclePrice","outputs":[{"internalType":"uint256","name":"","type":"uint256"}],"stateMutability":"pure","type":"function"},{"inputs":[{"internalType":"uint64","name":"fromToken","type":"uint64"},{"internalType":"uint64","name":"targetToken","type":"uint64"},{"internalType":"uint256","name":"inputAmount","type":"uint256"},{"internalType":"uint256","name":"minOutputAmount","type":"uint256"},{"internalType":"uint32","name":"fromOracleIndex","type":"uint32"},{"internalType":"uint32","name":"targetOracleIndex","type":"uint32"}],"name":"executeSwap","outputs":[],"stateMutability":"payable","type":"function"},{"inputs":[{"internalType":"uint64","name":"tokenId","type":"uint64"}],"name":"getContractSpotBalance","outputs":[{"internalType":"uint64","name":"total","type":"uint64"},{"internalType":"uint64","name":"hold","type":"uint64"}],"stateMutability":"view","type":"function"},{"inputs":[{"internalType":"uint32","name":"oracleIndex","type":"uint32"}],"name":"getOraclePrice","outputs":[{"internalType":"uint64","name":"","type":"uint64"}],"stateMutability":"view","type":"function"},{"inputs":[{"internalType":"bytes32","name":"role","type":"bytes32"}],"name":"getRoleAdmin","outputs":[{"internalType":"bytes32","name":"","type":"bytes32"}],"stateMutability":"view","type":"function"},{"inputs":[{"internalType":"uint64","name":"tokenId","type":"uint64"}],"name":"getSystemAddress","outputs":[{"internalType":"address","name":"","type":"address"}],"stateMutability":"pure","type":"function"},{"inputs":[{"internalType":"bytes32","name":"role","type":"bytes32"},{"internalType":"address","name":"account","type":"address"}],"name":"grantRole","outputs":[],"stateMutability":"nonpayable","type":"function"},{"inputs":[{"internalType":"bytes32","name":"role","type":"bytes32"},{"internalType":"address","name":"account","type":"address"}],"name":"hasRole","outputs":[{"internalType":"bool","name":"","type":"bool"}],"stateMutability":"view","type":"function"},{"inputs":[],"name":"pause","outputs":[],"stateMutability":"nonpayable","type":"function"},{"inputs":[],"name":"paused","outputs":[{"internalType":"bool","name":"","type":"bool"}],"stateMutability":"view","type":"function"},{"inputs":[{"internalType":"bytes32","name":"role","type":"bytes32"},{"internalType":"address","name":"callerConfirmation","type":"address"}],"name":"renounceRole","outputs":[],"stateMutability":"nonpayable","type":"function"},{"inputs":[{"internalType":"bytes32","name":"role","type":"bytes32"},{"internalType":"address","name":"account","type":"address"}],"name":"revokeRole","outputs":[],"stateMutability":"nonpayable","type":"function"},{"inputs":[{"internalType":"uint256","name":"newFee","type":"uint256"}],"name":"setSwapFee","outputs":[],"stateMutability":"nonpayable","type":"function"},{"inputs":[{"internalType":"uint64","name":"tokenId","type":"uint64"},{"internalType":"address","name":"contractAddress","type":"address"}],"name":"setTokenContract","outputs":[],"stateMutability":"nonpayable","type":"function"},{"inputs":[{"internalType":"bytes4","name":"interfaceId","type":"bytes4"}],"name":"supportsInterface","outputs":[{"internalType":"bool","name":"","type":"bool"}],"stateMutability":"view","type":"function"},{"inputs":[],"name":"swapFee","outputs":[{"internalType":"uint256","name":"","type":"uint256"}],"stateMutability":"view","type":"function"},{"inputs":[{"internalType":"uint64","name":"","type":"uint64"}],"name":"tokenContracts","outputs":[{"internalType":"address","name":"","type":"address"}],"stateMutability":"view","type":"function"},{"inputs":[],"name":"unpause","outputs":[],"stateMutability":"nonpayable","type":"function"},{"inputs":[],"name":"withdrawFees","outputs":[],"stateMutability":"nonpayable","type":"function"}],"evm":{"bytecode":{"linkReferences":{},"object":"60806040523461003b576001805566038d7ea4c6800060035561002133610040565b5061002b336100be565b50604051611046908161015f8239f35b600080fd5b6001600160a01b031660008181527fad3228b676f7d3cd4284a5443f17f1962b36e491b30a40b2405849e597ba5fb5602052604081205490919060ff166100ba57818052816020526040822081835260205260408220600160ff1982541617905533916000805160206111a58339815191528180a4600190565b5090565b6001600160a01b031660008181527fdae2aa361dfd1ca020a396615627d436107c35eff9fe7738a3512819782d706960205260408120549091907fd8aa0f3194971a2a116679f7c2090f6939c8d4e01a2a8d7e41d55e5351469e639060ff1661015957808352826020526040832082845260205260408320600160ff198254161790556000805160206111a5833981519152339380a4600190565b50509056fe608060408181526004918236101561001657600080fd5b600092833560e01c91826301ffc9a714610ad45750816307bd026514610a99578163248a9ca314610a6f5781632af78bd114610a305781632f2ff15d14610a0657816334e19907146109e457816336568abe1461099e5781633f4ba83a14610934578163476343ee146108ee57816354cf2aeb146108cf5781635c975abb146108ab578163721883fe1461086a5781638456cb591461080f57816391d14854146107c9578163a217fddf146107ae578163a2f8296014610314578163a7ba07c9146102b7578163cd516076146101ec578163d547741f146101a957508063eae5cc9b1461016b578063ecf7ab06146101355763f97595181461011757600080fd5b346101315781600319360112610131576020905160328152f35b5080fd5b50346101315760203660031901126101315760209061015a610155610b42565b610ea5565b90516001600160a01b039091168152f35b5034610131578060031936011261013157610184610b42565b6024359260ff841684036101a6575060209261019f91610e4a565b9051908152f35b80fd5b919050346101e857806003193601126101e8576101e491356101df60016101ce610b27565b938387528660205286200154610bb0565b610c54565b5080f35b8280fd5b905082346101a65760203660031901126101a657610208610b42565b835130602082019081526001600160401b03928316828701528582529192919060608101848111828210176102a45786525182918291906108015afa9261024d610d02565b931561029657506060838051810103126101a6575061026e60208301610d41565b91610286606061027f868401610d41565b9201610d41565b5081845193168352166020820152f35b8451638390524960e01b8152fd5b634e487b7160e01b845260418652602484fd5b919050346101e857806003193601126101e8576102d2610b42565b916102db610b27565b926102e4610b58565b6001600160401b03168452602052822080546001600160a01b0319166001600160a01b0390921691909117905580f35b905060c03660031901126101e85761032a610b42565b6001600160401b0392909160243584811692908381036107aa57604435926084359163ffffffff9687841684036107a65760a43597881688036107a65760019860028a54146107965760028a5561037f610eee565b86156107865780821698888a1461077657896106b65760035488018089116106a357340361069357918997969593918c95935b6103bb86610d55565b95856103d86103d26103cc85610d55565b99610e26565b98610e26565b988b6103ed8b6103e88c84610df3565b610e06565b9d8c6103f889610ea5565b91806105ff5750929350839250829182916001600160a01b031682f1156105f35761042c6104268492610d55565b92610d55565b911690606e820291808304606e14901517156105e0578216906064820291808304606414901517156105e057829161046391610e06565b16908751918d60208401528b898401528d6060840152608083015280891660a08301528d60c08301528d60e0830152610100814216818401528252610120820190828210908211176105cd578d918183928a526104eb6101408301926317938e1360e01b84526104d7816101448101610f0c565b0361013f198101835261011f190182610cc9565b5190827333333333333333333333333333333333333333335af161050d610d02565b50156105bd5760643588106105a35750866105289133610f55565b670de0b6b3a76400009182810292818404149015171561059057509061054d91610e06565b9381519586526020860152840152606083015260808201527f02cd1bc2f5c6b6878d5e9654a56f4ca5755e4a910437dc5a733fba8109b1a7da60a03392a2805580f35b634e487b7160e01b8a5260119052602489fd5b856105b088859333610f55565b5163bb2875c360e01b8152fd5b855163382a82a760e11b81528390fd5b634e487b7160e01b8e526041855260248efd5b634e487b7160e01b8f526011865260248ffd5b8e8951903d90823e3d90fd5b8452602085815281852054915163a9059cbb60e01b81526001600160a01b0393841696810196909652602486019390935291928492604492849291165af1801561068657849261042c9261042692610658575b50610d55565b6106789060203d811161067f575b6106708183610cc9565b810190610ed6565b5038610652565b503d610666565b508f8a51903d90823e3d90fd5b865163070f6eed60e11b81528590fd5b634e487b7160e01b8d526011865260248dfd5b99989796959493929190600354341061076657888c526020849052858c20546001600160a01b03169a8b1561075657908c9594939291868851809e6323b872dd60e01b825233888301523060248301528b6044830152815a93606492602095f19c8d1561074c578b9c9d9b9a9b61072e575b506103b2565b6107459060203d811161067f576106708183610cc9565b5038610728565b88513d89823e3d90fd5b8651634c32eccd60e11b81528590fd5b855163070f6eed60e11b81528490fd5b865163334ee9a160e01b81528590fd5b8551631f2a200560e01b81528490fd5b8551633ee5aeb560e01b81528490fd5b8980fd5b8680fd5b50503461013157816003193601126101315751908152602090f35b9050346101e857816003193601126101e8578160209360ff926107ea610b27565b903582528186528282206001600160a01b039091168252855220549151911615158152f35b50503461013157816003193601126101315760207f62e78cea01bee320cd4e420270b5ea74000d11b0c9f74754ebdbfc544b05a2589161084d610b58565b610855610eee565b600160ff19600254161760025551338152a180f35b9050346101e85760203660031901126101e857602092906001600160401b03610891610b42565b16825283528190205490516001600160a01b039091168152f35b50503461013157816003193601126101315760209060ff6002541690519015158152f35b5050346101315781600319360112610131576020906003549051908152f35b505034610131578160031936011261013157610908610b58565b818080804781811561092b575b3390f115610921575080f35b51903d90823e3d90fd5b506108fc610915565b9050346101e857826003193601126101e85761094e610b58565b6002549060ff821615610990575060ff1916600255513381527f5db9ee0a495bf2e6ff9c91a7834c1ba4fdd244a5e8aa4e537bd38aeae4b073aa90602090a180f35b8251638dfc202b60e01b8152fd5b8383346101315780600319360112610131576109b8610b27565b90336001600160a01b038316036109d557506101e4919235610c54565b5163334bd91960e11b81528390fd5b839034610131576020366003190112610131576109ff610b58565b3560035580f35b919050346101e857806003193601126101e8576101e49135610a2b60016101ce610b27565b610bd6565b9050346101e85760203660031901126101e857359163ffffffff831683036101a65750610a5e602092610d55565b90516001600160401b039091168152f35b9050346101e85760203660031901126101e857816020936001923581528085522001549051908152f35b505034610131578160031936011261013157602090517fd8aa0f3194971a2a116679f7c2090f6939c8d4e01a2a8d7e41d55e5351469e638152f35b8491346101e85760203660031901126101e8573563ffffffff60e01b81168091036101e85760209250637965db0b60e01b8114908115610b16575b5015158152f35b6301ffc9a760e01b14905083610b0f565b602435906001600160a01b0382168203610b3d57565b600080fd5b600435906001600160401b0382168203610b3d57565b3360009081527fad3228b676f7d3cd4284a5443f17f1962b36e491b30a40b2405849e597ba5fb5602052604081205460ff1615610b925750565b6044906040519063e2517d3f60e01b82523360048301526024820152fd5b80600052600060205260406000203360005260205260ff6040600020541615610b925750565b9060009180835282602052604083209160018060a01b03169182845260205260ff60408420541615600014610c4f57808352826020526040832082845260205260408320600160ff198254161790557f2f8788117e7eff1d82e926ec794901d17c78024a50270940304540a733656f0d339380a4600190565b505090565b9060009180835282602052604083209160018060a01b03169182845260205260ff604084205416600014610c4f5780835282602052604083208284526020526040832060ff1981541690557ff6391f5c32d9c69d2a47ea670b442974b53935d1edc7fd64eb21e047a839171b339380a4600190565b601f909101601f19168101906001600160401b03821190821017610cec57604052565b634e487b7160e01b600052604160045260246000fd5b3d15610d3c573d906001600160401b038211610cec5760405191610d30601f8201601f191660200184610cc9565b82523d6000602084013e565b606090565b51906001600160401b0382168203610b3d57565b6040805163ffffffff90921660208084019182528352908201906001600160401b03821183831017610cec57600092839260405251906108075afa610d98610d02565b9015610dba57602081805181010312610b3d576020610db79101610d41565b90565b604051638390524960e01b8152600490fd5b60ff16604d8111610ddd57600a0a90565b634e487b7160e01b600052601160045260246000fd5b81810292918115918404141715610ddd57565b8115610e10570490565b634e487b7160e01b600052601260045260246000fd5b6001600160401b031664e8d4a510008181029180830490911490151715610ddd5790565b9060ff1660128110610e7e57601119019060ff8211610ddd57610e6f610db792610dcc565b906001600160401b0316610e06565b6012039060ff8211610ddd57610e96610db792610dcc565b906001600160401b0316610df3565b6001600160401b03168015610ebd576001609d1b1790565b5073222222222222222222222222222222222222222290565b90816020910312610b3d57518015158103610b3d5790565b60ff60025416610efa57565b60405163d93c066560e01b8152600490fd5b6020808252825181830181905290939260005b828110610f4157505060409293506000838284010152601f8019910116010190565b818101860151848201604001528501610f1f565b60408051600660208201526001600160a01b03909216908201526001600160401b03918216606082015260808082019390935291825260a0820190811182821017610cec57600091818392604052610fd460c08301926317938e1360e01b8452610fc28160c48101610f0c565b0360bf1981018352609f190182610cc9565b5190827333333333333333333333333333333333333333335af1610ff6610d02565b5015610ffe57565b60405163382a82a760e11b8152600490fdfea2646970667358221220e933096f3c1c881383677b10c8f8203e9ec3e5ee2266f0f0d2148aaca2ae19e464736f6c634300081400332f8788117e7eff1d82e926ec794901d17c78024a50270940304540a733656f0d","opcodes":"PUSH1 0x80 PUSH1 0x40 MSTORE CALLVALUE PUSH2 0x3B JUMPI PUSH1 0x1 DUP1 SSTORE PUSH7 0x38D7EA4C68000 PUSH1 0x3 SSTORE PUSH2 0x21 CALLER PUSH2 0x40 JUMP JUMPDEST POP PUSH2 0x2B CALLER PUSH2 0xBE JUMP JUMPDEST POP PUSH1 0x40 MLOAD PUSH2 0x1046 SWAP1 DUP2 PUSH2 0x15F DUP3 CODECOPY RETURN JUMPDEST PUSH1 0x0 DUP1 REVERT JUMPDEST PUSH1 0x1 PUSH1 0x1 PUSH1 0xA0 SHL SUB AND PUSH1 0x0 DUP2 DUP2 MSTORE PUSH32 0xAD3228B676F7D3CD4284A5443F17F1962B36E491B30A40B2405849E597BA5FB5 PUSH1 0x20 MSTORE PUSH1 0x40 DUP2 KECCAK256 SLOAD SWAP1 SWAP2 SWAP1 PUSH1 0xFF AND PUSH2 0xBA JUMPI DUP2 DUP1 MSTORE DUP2 PUSH1 0x20 MSTORE PUSH1 0x40 DUP3 KECCAK256 DUP2 DUP4 MSTORE PUSH1 0x20 MSTORE PUSH1 0x40 DUP3 KECCAK256 PUSH1 0x1 PUSH1 0xFF NOT DUP3 SLOAD AND OR SWAP1 SSTORE CALLER SWAP2 PUSH1 0x0 DUP1 MLOAD PUSH1 0x20 PUSH2 0x11A5 DUP4 CODECOPY DUP2 MLOAD SWAP2 MSTORE DUP2 DUP1 LOG4 PUSH1 0x1 SWAP1 JUMP JUMPDEST POP SWAP1 JUMP JUMPDEST PUSH1 0x1 PUSH1 0x1 PUSH1 0xA0 SHL SUB AND PUSH1 0x0 DUP2 DUP2 MSTORE PUSH32 0xDAE2AA361DFD1CA020A396615627D436107C35EFF9FE7738A3512819782D7069 PUSH1 0x20 MSTORE PUSH1 0x40 DUP2 KECCAK256 SLOAD SWAP1 SWAP2 SWAP1 PUSH32 0xD8AA0F3194971A2A116679F7C2090F6939C8D4E01A2A8D7E41D55E5351469E63 SWAP1 PUSH1 0xFF AND PUSH2 0x159 JUMPI DUP1 DUP4 MSTORE DUP3 PUSH1 0x20 MSTORE PUSH1 0x40 DUP4 KECCAK256 DUP3 DUP5 MSTORE PUSH1 0x20 MSTORE PUSH1 0x40 DUP4 KECCAK256 PUSH1 0x1 PUSH1 0xFF NOT DUP3 SLOAD AND OR SWAP1 SSTORE PUSH1 0x0 DUP1 MLOAD PUSH1 0x20 PUSH2 0x11A5 DUP4 CODECOPY DUP2 MLOAD SWAP2 MSTORE CALLER SWAP4 DUP1 LOG4 PUSH1 0x1 SWAP1 JUMP JUMPDEST POP POP SWAP1 JUMP INVALID PUSH1 0x80 PUSH1 0x40 DUP2 DUP2 MSTORE PUSH1 0x4 SWAP2 DUP3 CALLDATASIZE LT ISZERO PUSH2 0x16 JUMPI PUSH1 0x0 DUP1 REVERT JUMPDEST PUSH1 0x0 SWAP3 DUP4 CALLDATALOAD PUSH1 0xE0 SHR SWAP2 DUP3 PUSH4 0x1FFC9A7 EQ PUSH2 0xAD4 JUMPI POP DUP2 PUSH4 0x7BD0265 EQ PUSH2 0xA99 JUMPI DUP2 PUSH4 0x248A9CA3 EQ PUSH2 0xA6F JUMPI DUP2 PUSH4 0x2AF78BD1 EQ PUSH2 0xA30 JUMPI DUP2 PUSH4 0x2F2FF15D EQ PUSH2 0xA06 JUMPI DUP2 PUSH4 0x34E19907 EQ PUSH2 0x9E4 JUMPI DUP2 PUSH4 0x36568ABE EQ PUSH2 0x99E JUMPI DUP2 PUSH4 0x3F4BA83A EQ PUSH2 0x934 JUMPI DUP2 PUSH4 0x476343EE EQ PUSH2 0x8EE JUMPI DUP2 PUSH4 0x54CF2AEB EQ PUSH2 0x8CF JUMPI DUP2 PUSH4 0x5C975ABB EQ PUSH2 0x8AB JUMPI DUP2 PUSH4 0x721883FE EQ PUSH2 0x86A JUMPI DUP2 PUSH4 0x8456CB59 EQ PUSH2 0x80F JUMPI DUP2 PUSH4 0x91D14854 EQ PUSH2 0x7C9 JUMPI DUP2 PUSH4 0xA217FDDF EQ PUSH2 0x7AE JUMPI DUP2 PUSH4 0xA2F82960 EQ PUSH2 0x314 JUMPI DUP2 PUSH4 0xA7BA07C9 EQ PUSH2 0x2B7 JUMPI DUP2 PUSH4 0xCD516076 EQ PUSH2 0x1EC JUMPI DUP2 PUSH4 0xD547741F EQ PUSH2 0x1A9 JUMPI POP DUP1 PUSH4 0xEAE5CC9B EQ PUSH2 0x16B JUMPI DUP1 PUSH4 0xECF7AB06 EQ PUSH2 0x135 JUMPI PUSH4 0xF9759518 EQ PUSH2 0x117 JUMPI PUSH1 0x0 DUP1 REVERT JUMPDEST CALLVALUE PUSH2 0x131 JUMPI DUP2 PUSH1 0x3 NOT CALLDATASIZE ADD SLT PUSH2 0x131 JUMPI PUSH1 0x20 SWAP1 MLOAD PUSH1 0x32 DUP2 MSTORE RETURN JUMPDEST POP DUP1 REVERT JUMPDEST POP CALLVALUE PUSH2 0x131 JUMPI PUSH1 0x20 CALLDATASIZE PUSH1 0x3 NOT ADD SLT PUSH2 0x131 JUMPI PUSH1 0x20 SWAP1 PUSH2 0x15A PUSH2 0x155 PUSH2 0xB42 JUMP JUMPDEST PUSH2 0xEA5 JUMP JUMPDEST SWAP1 MLOAD PUSH1 0x1 PUSH1 0x1 PUSH1 0xA0 SHL SUB SWAP1 SWAP2 AND DUP2 MSTORE RETURN JUMPDEST POP CALLVALUE PUSH2 0x131 JUMPI DUP1 PUSH1 0x3 NOT CALLDATASIZE ADD SLT PUSH2 0x131 JUMPI PUSH2 0x184 PUSH2 0xB42 JUMP JUMPDEST PUSH1 0x24 CALLDATALOAD SWAP3 PUSH1 0xFF DUP5 AND DUP5 SUB PUSH2 0x1A6 JUMPI POP PUSH1 0x20 SWAP3 PUSH2 0x19F SWAP2 PUSH2 0xE4A JUMP JUMPDEST SWAP1 MLOAD SWAP1 DUP2 MSTORE RETURN JUMPDEST DUP1 REVERT JUMPDEST SWAP2 SWAP1 POP CALLVALUE PUSH2 0x1E8 JUMPI DUP1 PUSH1 0x3 NOT CALLDATASIZE ADD SLT PUSH2 0x1E8 JUMPI PUSH2 0x1E4 SWAP2 CALLDATALOAD PUSH2 0x1DF PUSH1 0x1 PUSH2 0x1CE PUSH2 0xB27 JUMP JUMPDEST SWAP4 DUP4 DUP8 MSTORE DUP7 PUSH1 0x20 MSTORE DUP7 KECCAK256 ADD SLOAD PUSH2 0xBB0 JUMP JUMPDEST PUSH2 0xC54 JUMP JUMPDEST POP DUP1 RETURN JUMPDEST DUP3 DUP1 REVERT JUMPDEST SWAP1 POP DUP3 CALLVALUE PUSH2 0x1A6 JUMPI PUSH1 0x20 CALLDATASIZE PUSH1 0x3 NOT ADD SLT PUSH2 0x1A6 JUMPI PUSH2 0x208 PUSH2 0xB42 JUMP JUMPDEST DUP4 MLOAD ADDRESS PUSH1 0x20 DUP3 ADD SWAP1 DUP2 MSTORE PUSH1 0x1 PUSH1 0x1 PUSH1 0x40 SHL SUB SWAP3 DUP4 AND DUP3 DUP8 ADD MSTORE DUP6 DUP3 MSTORE SWAP2 SWAP3 SWAP2 SWAP1 PUSH1 0x60 DUP2 ADD DUP5 DUP2 GT DUP3 DUP3 LT OR PUSH2 0x2A4 JUMPI DUP7 MSTORE MLOAD DUP3 SWAP2 DUP3 SWAP2 SWAP1 PUSH2 0x801 GAS STATICCALL SWAP3 PUSH2 0x24D PUSH2 0xD02 JUMP JUMPDEST SWAP4 ISZERO PUSH2 0x296 JUMPI POP PUSH1 0x60 DUP4 DUP1 MLOAD DUP2 ADD SUB SLT PUSH2 0x1A6 JUMPI POP PUSH2 0x26E PUSH1 0x20 DUP4 ADD PUSH2 0xD41 JUMP JUMPDEST SWAP2 PUSH2 0x286 PUSH1 0x60 PUSH2 0x27F DUP7 DUP5 ADD PUSH2 0xD41 JUMP JUMPDEST SWAP3 ADD PUSH2 0xD41 JUMP JUMPDEST POP DUP2 DUP5 MLOAD SWAP4 AND DUP4 MSTORE AND PUSH1 0x20 DUP3 ADD MSTORE RETURN JUMPDEST DUP5 MLOAD PUSH4 0x83905249 PUSH1 0xE0 SHL DUP2 MSTORE REVERT JUMPDEST PUSH4 0x4E487B71 PUSH1 0xE0 SHL DUP5 MSTORE PUSH1 0x41 DUP7 MSTORE PUSH1 0x24 DUP5 REVERT JUMPDEST SWAP2 SWAP1 POP CALLVALUE PUSH2 0x1E8 JUMPI DUP1 PUSH1 0x3 NOT CALLDATASIZE ADD SLT PUSH2 0x1E8 JUMPI PUSH2 0x2D2 PUSH2 0xB42 JUMP JUMPDEST SWAP2 PUSH2 0x2DB PUSH2 0xB27 JUMP JUMPDEST SWAP3 PUSH2 0x2E4 PUSH2 0xB58 JUMP JUMPDEST PUSH1 0x1 PUSH1 0x1 PUSH1 0x40 SHL SUB AND DUP5 MSTORE PUSH1 0x20 MSTORE DUP3 KECCAK256 DUP1 SLOAD PUSH1 0x1 PUSH1 0x1 PUSH1 0xA0 SHL SUB NOT AND PUSH1 0x1 PUSH1 0x1 PUSH1 0xA0 SHL SUB SWAP1 SWAP3 AND SWAP2 SWAP1 SWAP2 OR SWAP1 SSTORE DUP1 RETURN JUMPDEST SWAP1 POP PUSH1 0xC0 CALLDATASIZE PUSH1 0x3 NOT ADD SLT PUSH2 0x1E8 JUMPI PUSH2 0x32A PUSH2 0xB42 JUMP JUMPDEST PUSH1 0x1 PUSH1 0x1 PUSH1 0x40 SHL SUB SWAP3 SWAP1 SWAP2 PUSH1 0x24 CALLDATALOAD DUP5 DUP2 AND SWAP3 SWAP1 DUP4 DUP2 SUB PUSH2 0x7AA JUMPI PUSH1 0x44 CALLDATALOAD SWAP3 PUSH1 0x84 CALLDATALOAD SWAP2 PUSH4 0xFFFFFFFF SWAP7 DUP8 DUP5 AND DUP5 SUB PUSH2 0x7A6 JUMPI PUSH1 0xA4 CALLDATALOAD SWAP8 DUP9 AND DUP9 SUB PUSH2 0x7A6 JUMPI PUSH1 0x1 SWAP9 PUSH1 0x2 DUP11 SLOAD EQ PUSH2 0x796 JUMPI PUSH1 0x2 DUP11 SSTORE PUSH2 0x37F PUSH2 0xEEE JUMP JUMPDEST DUP7 ISZERO PUSH2 0x786 JUMPI DUP1 DUP3 AND SWAP9 DUP9 DUP11 EQ PUSH2 0x776 JUMPI DUP10 PUSH2 0x6B6 JUMPI PUSH1 0x3 SLOAD DUP9 ADD DUP1 DUP10 GT PUSH2 0x6A3 JUMPI CALLVALUE SUB PUSH2 0x693 JUMPI SWAP2 DUP10 SWAP8 SWAP7 SWAP6 SWAP4 SWAP2 DUP13 SWAP6 SWAP4 JUMPDEST PUSH2 0x3BB DUP7 PUSH2 0xD55 JUMP JUMPDEST SWAP6 DUP6 PUSH2 0x3D8 PUSH2 0x3D2 PUSH2 0x3CC DUP6 PUSH2 0xD55 JUMP JUMPDEST SWAP10 PUSH2 0xE26 JUMP JUMPDEST SWAP9 PUSH2 0xE26 JUMP JUMPDEST SWAP9 DUP12 PUSH2 0x3ED DUP12 PUSH2 0x3E8 DUP13 DUP5 PUSH2 0xDF3 JUMP JUMPDEST PUSH2 0xE06 JUMP JUMPDEST SWAP14 DUP13 PUSH2 0x3F8 DUP10 PUSH2 0xEA5 JUMP JUMPDEST SWAP2 DUP1 PUSH2 0x5FF JUMPI POP SWAP3 SWAP4 POP DUP4 SWAP3 POP DUP3 SWAP2 DUP3 SWAP2 PUSH1 0x1 PUSH1 0x1 PUSH1 0xA0 SHL SUB AND DUP3 CALL ISZERO PUSH2 0x5F3 JUMPI PUSH2 0x42C PUSH2 0x426 DUP5 SWAP3 PUSH2 0xD55 JUMP JUMPDEST SWAP3 PUSH2 0xD55 JUMP JUMPDEST SWAP2 AND SWAP1 PUSH1 0x6E DUP3 MUL SWAP2 DUP1 DUP4 DIV PUSH1 0x6E EQ SWAP1 ISZERO OR ISZERO PUSH2 0x5E0 JUMPI DUP3 AND SWAP1 PUSH1 0x64 DUP3 MUL SWAP2 DUP1 DUP4 DIV PUSH1 0x64 EQ SWAP1 ISZERO OR ISZERO PUSH2 0x5E0 JUMPI DUP3 SWAP2 PUSH2 0x463 SWAP2 PUSH2 0xE06 JUMP JUMPDEST AND SWAP1 DUP8 MLOAD SWAP2 DUP14 PUSH1 0x20 DUP5 ADD MSTORE DUP12 DUP10 DUP5 ADD MSTORE DUP14 PUSH1 0x60 DUP5 ADD MSTORE PUSH1 0x80 DUP4 ADD MSTORE DUP1 DUP10 AND PUSH1 0xA0 DUP4 ADD MSTORE DUP14 PUSH1 0xC0 DUP4 ADD MSTORE DUP14 PUSH1 0xE0 DUP4 ADD MSTORE PUSH2 0x100 DUP2 TIMESTAMP AND DUP2 DUP5 ADD MSTORE DUP3 MSTORE PUSH2 0x120 DUP3 ADD SWAP1 DUP3 DUP3 LT SWAP1 DUP3 GT OR PUSH2 0x5CD JUMPI DUP14 SWAP2 DUP2 DUP4 SWAP3 DUP11 MSTORE PUSH2 0x4EB PUSH2 0x140 DUP4 ADD SWAP3 PUSH4 0x17938E13 PUSH1 0xE0 SHL DUP5 MSTORE PUSH2 0x4D7 DUP2 PUSH2 0x144 DUP2 ADD PUSH2 0xF0C JUMP JUMPDEST SUB PUSH2 0x13F NOT DUP2 ADD DUP4 MSTORE PUSH2 0x11F NOT ADD DUP3 PUSH2 0xCC9 JUMP JUMPDEST MLOAD SWAP1 DUP3 PUSH20 0x3333333333333333333333333333333333333333 GAS CALL PUSH2 0x50D PUSH2 0xD02 JUMP JUMPDEST POP ISZERO PUSH2 0x5BD JUMPI PUSH1 0x64 CALLDATALOAD DUP9 LT PUSH2 0x5A3 JUMPI POP DUP7 PUSH2 0x528 SWAP2 CALLER PUSH2 0xF55 JUMP JUMPDEST PUSH8 0xDE0B6B3A7640000 SWAP2 DUP3 DUP2 MUL SWAP3 DUP2 DUP5 DIV EQ SWAP1 ISZERO OR ISZERO PUSH2 0x590 JUMPI POP SWAP1 PUSH2 0x54D SWAP2 PUSH2 0xE06 JUMP JUMPDEST SWAP4 DUP2 MLOAD SWAP6 DUP7 MSTORE PUSH1 0x20 DUP7 ADD MSTORE DUP5 ADD MSTORE PUSH1 0x60 DUP4 ADD MSTORE PUSH1 0x80 DUP3 ADD MSTORE PUSH32 0x2CD1BC2F5C6B6878D5E9654A56F4CA5755E4A910437DC5A733FBA8109B1A7DA PUSH1 0xA0 CALLER SWAP3 LOG2 DUP1 SSTORE DUP1 RETURN JUMPDEST PUSH4 0x4E487B71 PUSH1 0xE0 SHL DUP11 MSTORE PUSH1 0x11 SWAP1 MSTORE PUSH1 0x24 DUP10 REVERT JUMPDEST DUP6 PUSH2 0x5B0 DUP9 DUP6 SWAP4 CALLER PUSH2 0xF55 JUMP JUMPDEST MLOAD PUSH4 0xBB2875C3 PUSH1 0xE0 SHL DUP2 MSTORE REVERT JUMPDEST DUP6 MLOAD PUSH4 0x382A82A7 PUSH1 0xE1 SHL DUP2 MSTORE DUP4 SWAP1 REVERT JUMPDEST PUSH4 0x4E487B71 PUSH1 0xE0 SHL DUP15 MSTORE PUSH1 0x41 DUP6 MSTORE PUSH1 0x24 DUP15 REVERT JUMPDEST PUSH4 0x4E487B71 PUSH1 0xE0 SHL DUP16 MSTORE PUSH1 0x11 DUP7 MSTORE PUSH1 0x24 DUP16 REVERT JUMPDEST DUP15 DUP10 MLOAD SWAP1 RETURNDATASIZE SWAP1 DUP3 RETURNDATACOPY RETURNDATASIZE SWAP1 REVERT JUMPDEST DUP5 MSTORE PUSH1 0x20 DUP6 DUP2 MSTORE DUP2 DUP6 KECCAK256 SLOAD SWAP2 MLOAD PUSH4 0xA9059CBB PUSH1 0xE0 SHL DUP2 MSTORE PUSH1 0x1 PUSH1 0x1 PUSH1 0xA0 SHL SUB SWAP4 DUP5 AND SWAP7 DUP2 ADD SWAP7 SWAP1 SWAP7 MSTORE PUSH1 0x24 DUP7 ADD SWAP4 SWAP1 SWAP4 MSTORE SWAP2 SWAP3 DUP5 SWAP3 PUSH1 0x44 SWAP3 DUP5 SWAP3 SWAP2 AND GAS CALL DUP1 ISZERO PUSH2 0x686 JUMPI DUP5 SWAP3 PUSH2 0x42C SWAP3 PUSH2 0x426 SWAP3 PUSH2 0x658 JUMPI JUMPDEST POP PUSH2 0xD55 JUMP JUMPDEST PUSH2 0x678 SWAP1 PUSH1 0x20 RETURNDATASIZE DUP2 GT PUSH2 0x67F JUMPI JUMPDEST PUSH2 0x670 DUP2 DUP4 PUSH2 0xCC9 JUMP JUMPDEST DUP2 ADD SWAP1 PUSH2 0xED6 JUMP JUMPDEST POP CODESIZE PUSH2 0x652 JUMP JUMPDEST POP RETURNDATASIZE PUSH2 0x666 JUMP JUMPDEST POP DUP16 DUP11 MLOAD SWAP1 RETURNDATASIZE SWAP1 DUP3 RETURNDATACOPY RETURNDATASIZE SWAP1 REVERT JUMPDEST DUP7 MLOAD PUSH4 0x70F6EED PUSH1 0xE1 SHL DUP2 MSTORE DUP6 SWAP1 REVERT JUMPDEST PUSH4 0x4E487B71 PUSH1 0xE0 SHL DUP14 MSTORE PUSH1 0x11 DUP7 MSTORE PUSH1 0x24 DUP14 REVERT JUMPDEST SWAP10 SWAP9 SWAP8 SWAP7 SWAP6 SWAP5 SWAP4 SWAP3 SWAP2 SWAP1 PUSH1 0x3 SLOAD CALLVALUE LT PUSH2 0x766 JUMPI DUP9 DUP13 MSTORE PUSH1 0x20 DUP5 SWAP1 MSTORE DUP6 DUP13 KECCAK256 SLOAD PUSH1 0x1 PUSH1 0x1 PUSH1 0xA0 SHL SUB AND SWAP11 DUP12 ISZERO PUSH2 0x756 JUMPI SWAP1 DUP13 SWAP6 SWAP5 SWAP4 SWAP3 SWAP2 DUP7 DUP9 MLOAD DUP1 SWAP15 PUSH4 0x23B872DD PUSH1 0xE0 SHL DUP3 MSTORE CALLER DUP9 DUP4 ADD MSTORE ADDRESS PUSH1 0x24 DUP4 ADD MSTORE DUP12 PUSH1 0x44 DUP4 ADD MSTORE DUP2 GAS SWAP4 PUSH1 0x64 SWAP3 PUSH1 0x20 SWAP6 CALL SWAP13 DUP14 ISZERO PUSH2 0x74C JUMPI DUP12 SWAP13 SWAP14 SWAP12 SWAP11 SWAP12 PUSH2 0x72E JUMPI JUMPDEST POP PUSH2 0x3B2 JUMP JUMPDEST PUSH2 0x745 SWAP1 PUSH1 0x20 RETURNDATASIZE DUP2 GT PUSH2 0x67F JUMPI PUSH2 0x670 DUP2 DUP4 PUSH2 0xCC9 JUMP JUMPDEST POP CODESIZE PUSH2 0x728 JUMP JUMPDEST DUP9 MLOAD RETURNDATASIZE DUP10 DUP3 RETURNDATACOPY RETURNDATASIZE SWAP1 REVERT JUMPDEST DUP7 MLOAD PUSH4 0x4C32ECCD PUSH1 0xE1 SHL DUP2 MSTORE DUP6 SWAP1 REVERT JUMPDEST DUP6 MLOAD PUSH4 0x70F6EED PUSH1 0xE1 SHL DUP2 MSTORE DUP5 SWAP1 REVERT JUMPDEST DUP7 MLOAD PUSH4 0x334EE9A1 PUSH1 0xE0 SHL DUP2 MSTORE DUP6 SWAP1 REVERT JUMPDEST DUP6 MLOAD PUSH4 0x1F2A2005 PUSH1 0xE0 SHL DUP2 MSTORE DUP5 SWAP1 REVERT JUMPDEST DUP6 MLOAD PUSH4 0x3EE5AEB5 PUSH1 0xE0 SHL DUP2 MSTORE DUP5 SWAP1 REVERT JUMPDEST DUP10 DUP1 REVERT JUMPDEST DUP7 DUP1 REVERT JUMPDEST POP POP CALLVALUE PUSH2 0x131 JUMPI DUP2 PUSH1 0x3 NOT CALLDATASIZE ADD SLT PUSH2 0x131 JUMPI MLOAD SWAP1 DUP2 MSTORE PUSH1 0x20 SWAP1 RETURN JUMPDEST SWAP1 POP CALLVALUE PUSH2 0x1E8 JUMPI DUP2 PUSH1 0x3 NOT CALLDATASIZE ADD SLT PUSH2 0x1E8 JUMPI DUP2 PUSH1 0x20 SWAP4 PUSH1 0xFF SWAP3 PUSH2 0x7EA PUSH2 0xB27 JUMP JUMPDEST SWAP1 CALLDATALOAD DUP3 MSTORE DUP2 DUP7 MSTORE DUP3 DUP3 KECCAK256 PUSH1 0x1 PUSH1 0x1 PUSH1 0xA0 SHL SUB SWAP1 SWAP2 AND DUP3 MSTORE DUP6 MSTORE KECCAK256 SLOAD SWAP2 MLOAD SWAP2 AND ISZERO ISZERO DUP2 MSTORE RETURN JUMPDEST POP POP CALLVALUE PUSH2 0x131 JUMPI DUP2 PUSH1 0x3 NOT CALLDATASIZE ADD SLT PUSH2 0x131 JUMPI PUSH1 0x20 PUSH32 0x62E78CEA01BEE320CD4E420270B5EA74000D11B0C9F74754EBDBFC544B05A258 SWAP2 PUSH2 0x84D PUSH2 0xB58 JUMP JUMPDEST PUSH2 0x855 PUSH2 0xEEE JUMP JUMPDEST PUSH1 0x1 PUSH1 0xFF NOT PUSH1 0x2 SLOAD AND OR PUSH1 0x2 SSTORE MLOAD CALLER DUP2 MSTORE LOG1 DUP1 RETURN JUMPDEST SWAP1 POP CALLVALUE PUSH2 0x1E8 JUMPI PUSH1 0x20 CALLDATASIZE PUSH1 0x3 NOT ADD SLT PUSH2 0x1E8 JUMPI PUSH1 0x20 SWAP3 SWAP1 PUSH1 0x1 PUSH1 0x1 PUSH1 0x40 SHL SUB PUSH2 0x891 PUSH2 0xB42 JUMP JUMPDEST AND DUP3 MSTORE DUP4 MSTORE DUP2 SWAP1 KECCAK256 SLOAD SWAP1 MLOAD PUSH1 0x1 PUSH1 0x1 PUSH1 0xA0 SHL SUB SWAP1 SWAP2 AND DUP2 MSTORE RETURN JUMPDEST POP POP CALLVALUE PUSH2 0x131 JUMPI DUP2 PUSH1 0x3 NOT CALLDATASIZE ADD SLT PUSH2 0x131 JUMPI PUSH1 0x20 SWAP1 PUSH1 0xFF PUSH1 0x2 SLOAD AND SWAP1 MLOAD SWAP1 ISZERO ISZERO DUP2 MSTORE RETURN JUMPDEST POP POP CALLVALUE PUSH2 0x131 JUMPI DUP2 PUSH1 0x3 NOT CALLDATASIZE ADD SLT PUSH2 0x131 JUMPI PUSH1 0x20 SWAP1 PUSH1 0x3 SLOAD SWAP1 MLOAD SWAP1 DUP2 MSTORE RETURN JUMPDEST POP POP CALLVALUE PUSH2 0x131 JUMPI DUP2 PUSH1 0x3 NOT CALLDATASIZE ADD SLT PUSH2 0x131 JUMPI PUSH2 0x908 PUSH2 0xB58 JUMP JUMPDEST DUP2 DUP1 DUP1 DUP1 SELFBALANCE DUP2 DUP2 ISZERO PUSH2 0x92B JUMPI JUMPDEST CALLER SWAP1 CALL ISZERO PUSH2 0x921 JUMPI POP DUP1 RETURN JUMPDEST MLOAD SWAP1 RETURNDATASIZE SWAP1 DUP3 RETURNDATACOPY RETURNDATASIZE SWAP1 REVERT JUMPDEST POP PUSH2 0x8FC PUSH2 0x915 JUMP JUMPDEST SWAP1 POP CALLVALUE PUSH2 0x1E8 JUMPI DUP3 PUSH1 0x3 NOT CALLDATASIZE ADD SLT PUSH2 0x1E8 JUMPI PUSH2 0x94E PUSH2 0xB58 JUMP JUMPDEST PUSH1 0x2 SLOAD SWAP1 PUSH1 0xFF DUP3 AND ISZERO PUSH2 0x990 JUMPI POP PUSH1 0xFF NOT AND PUSH1 0x2 SSTORE MLOAD CALLER DUP2 MSTORE PUSH32 0x5DB9EE0A495BF2E6FF9C91A7834C1BA4FDD244A5E8AA4E537BD38AEAE4B073AA SWAP1 PUSH1 0x20 SWAP1 LOG1 DUP1 RETURN JUMPDEST DUP3 MLOAD PUSH4 0x8DFC202B PUSH1 0xE0 SHL DUP2 MSTORE REVERT JUMPDEST DUP4 DUP4 CALLVALUE PUSH2 0x131 JUMPI DUP1 PUSH1 0x3 NOT CALLDATASIZE ADD SLT PUSH2 0x131 JUMPI PUSH2 0x9B8 PUSH2 0xB27 JUMP JUMPDEST SWAP1 CALLER PUSH1 0x1 PUSH1 0x1 PUSH1 0xA0 SHL SUB DUP4 AND SUB PUSH2 0x9D5 JUMPI POP PUSH2 0x1E4 SWAP2 SWAP3 CALLDATALOAD PUSH2 0xC54 JUMP JUMPDEST MLOAD PUSH4 0x334BD919 PUSH1 0xE1 SHL DUP2 MSTORE DUP4 SWAP1 REVERT JUMPDEST DUP4 SWAP1 CALLVALUE PUSH2 0x131 JUMPI PUSH1 0x20 CALLDATASIZE PUSH1 0x3 NOT ADD SLT PUSH2 0x131 JUMPI PUSH2 0x9FF PUSH2 0xB58 JUMP JUMPDEST CALLDATALOAD PUSH1 0x3 SSTORE DUP1 RETURN JUMPDEST SWAP2 SWAP1 POP CALLVALUE PUSH2 0x1E8 JUMPI DUP1 PUSH1 0x3 NOT CALLDATASIZE ADD SLT PUSH2 0x1E8 JUMPI PUSH2 0x1E4 SWAP2 CALLDATALOAD PUSH2 0xA2B PUSH1 0x1 PUSH2 0x1CE PUSH2 0xB27 JUMP JUMPDEST PUSH2 0xBD6 JUMP JUMPDEST SWAP1 POP CALLVALUE PUSH2 0x1E8 JUMPI PUSH1 0x20 CALLDATASIZE PUSH1 0x3 NOT ADD SLT PUSH2 0x1E8 JUMPI CALLDATALOAD SWAP2 PUSH4 0xFFFFFFFF DUP4 AND DUP4 SUB PUSH2 0x1A6 JUMPI POP PUSH2 0xA5E PUSH1 0x20 SWAP3 PUSH2 0xD55 JUMP JUMPDEST SWAP1 MLOAD PUSH1 0x1 PUSH1 0x1 PUSH1 0x40 SHL SUB SWAP1 SWAP2 AND DUP2 MSTORE RETURN JUMPDEST SWAP1 POP CALLVALUE PUSH2 0x1E8 JUMPI PUSH1 0x20 CALLDATASIZE PUSH1 0x3 NOT ADD SLT PUSH2 0x1E8 JUMPI DUP2 PUSH1 0x20 SWAP4 PUSH1 0x1 SWAP3 CALLDATALOAD DUP2 MSTORE DUP1 DUP6 MSTORE KECCAK256 ADD SLOAD SWAP1 MLOAD SWAP1 DUP2 MSTORE RETURN JUMPDEST POP POP CALLVALUE PUSH2 0x131 JUMPI DUP2 PUSH1 0x3 NOT CALLDATASIZE ADD SLT PUSH2 0x131 JUMPI PUSH1 0x20 SWAP1 MLOAD PUSH32 0xD8AA0F3194971A2A116679F7C2090F6939C8D4E01A2A8D7E41D55E5351469E63 DUP2 MSTORE RETURN JUMPDEST DUP5 SWAP2 CALLVALUE PUSH2 0x1E8 JUMPI PUSH1 0x20 CALLDATASIZE PUSH1 0x3 NOT ADD SLT PUSH2 0x1E8 JUMPI CALLDATALOAD PUSH4 0xFFFFFFFF PUSH1 0xE0 SHL DUP2 AND DUP1 SWAP2 SUB PUSH2 0x1E8 JUMPI PUSH1 0x20 SWAP3 POP PUSH4 0x7965DB0B PUSH1 0xE0 SHL DUP2 EQ SWAP1 DUP2 ISZERO PUSH2 0xB16 JUMPI JUMPDEST POP ISZERO ISZERO DUP2 MSTORE RETURN JUMPDEST PUSH4 0x1FFC9A7 PUSH1 0xE0 SHL EQ SWAP1 POP DUP4 PUSH2 0xB0F JUMP JUMPDEST PUSH1 0x24 CALLDATALOAD SWAP1 PUSH1 0x1 PUSH1 0x1 PUSH1 0xA0 SHL SUB DUP3 AND DUP3 SUB PUSH2 0xB3D JUMPI JUMP JUMPDEST PUSH1 0x0 DUP1 REVERT JUMPDEST PUSH1 0x4 CALLDATALOAD SWAP1 PUSH1 0x1 PUSH1 0x1 PUSH1 0x40 SHL SUB DUP3 AND DUP3 SUB PUSH2 0xB3D JUMPI JUMP JUMPDEST CALLER PUSH1 0x0 SWAP1 DUP2 MSTORE PUSH32 0xAD3228B676F7D3CD4284A5443F17F1962B36E491B30A40B2405849E597BA5FB5 PUSH1 0x20 MSTORE PUSH1 0x40 DUP2 KECCAK256 SLOAD PUSH1 0xFF AND ISZERO PUSH2 0xB92 JUMPI POP JUMP JUMPDEST PUSH1 0x44 SWAP1 PUSH1 0x40 MLOAD SWAP1 PUSH4 0xE2517D3F PUSH1 0xE0 SHL DUP3 MSTORE CALLER PUSH1 0x4 DUP4 ADD MSTORE PUSH1 0x24 DUP3 ADD MSTORE REVERT JUMPDEST DUP1 PUSH1 0x0 MSTORE PUSH1 0x0 PUSH1 0x20 MSTORE PUSH1 0x40 PUSH1 0x0 KECCAK256 CALLER PUSH1 0x0 MSTORE PUSH1 0x20 MSTORE PUSH1 0xFF PUSH1 0x40 PUSH1 0x0 KECCAK256 SLOAD AND ISZERO PUSH2 0xB92 JUMPI POP JUMP JUMPDEST SWAP1 PUSH1 0x0 SWAP2 DUP1 DUP4 MSTORE DUP3 PUSH1 0x20 MSTORE PUSH1 0x40 DUP4 KECCAK256 SWAP2 PUSH1 0x1 DUP1 PUSH1 0xA0 SHL SUB AND SWAP2 DUP3 DUP5 MSTORE PUSH1 0x20 MSTORE PUSH1 0xFF PUSH1 0x40 DUP5 KECCAK256 SLOAD AND ISZERO PUSH1 0x0 EQ PUSH2 0xC4F JUMPI DUP1 DUP4 MSTORE DUP3 PUSH1 0x20 MSTORE PUSH1 0x40 DUP4 KECCAK256 DUP3 DUP5 MSTORE PUSH1 0x20 MSTORE PUSH1 0x40 DUP4 KECCAK256 PUSH1 0x1 PUSH1 0xFF NOT DUP3 SLOAD AND OR SWAP1 SSTORE PUSH32 0x2F8788117E7EFF1D82E926EC794901D17C78024A50270940304540A733656F0D CALLER SWAP4 DUP1 LOG4 PUSH1 0x1 SWAP1 JUMP JUMPDEST POP POP SWAP1 JUMP JUMPDEST SWAP1 PUSH1 0x0 SWAP2 DUP1 DUP4 MSTORE DUP3 PUSH1 0x20 MSTORE PUSH1 0x40 DUP4 KECCAK256 SWAP2 PUSH1 0x1 DUP1 PUSH1 0xA0 SHL SUB AND SWAP2 DUP3 DUP5 MSTORE PUSH1 0x20 MSTORE PUSH1 0xFF PUSH1 0x40 DUP5 KECCAK256 SLOAD AND PUSH1 0x0 EQ PUSH2 0xC4F JUMPI DUP1 DUP4 MSTORE DUP3 PUSH1 0x20 MSTORE PUSH1 0x40 DUP4 KECCAK256 DUP3 DUP5 MSTORE PUSH1 0x20 MSTORE PUSH1 0x40 DUP4 KECCAK256 PUSH1 0xFF NOT DUP2 SLOAD AND SWAP1 SSTORE PUSH32 0xF6391F5C32D9C69D2A47EA670B442974B53935D1EDC7FD64EB21E047A839171B CALLER SWAP4 DUP1 LOG4 PUSH1 0x1 SWAP1 JUMP JUMPDEST PUSH1 0x1F SWAP1 SWAP2 ADD PUSH1 0x1F NOT AND DUP2 ADD SWAP1 PUSH1 0x1 PUSH1 0x1 PUSH1 0x40 SHL SUB DUP3 GT SWAP1 DUP3 LT OR PUSH2 0xCEC JUMPI PUSH1 0x40 MSTORE JUMP JUMPDEST PUSH4 0x4E487B71 PUSH1 0xE0 SHL PUSH1 0x0 MSTORE PUSH1 0x41 PUSH1 0x4 MSTORE PUSH1 0x24 PUSH1 0x0 REVERT JUMPDEST RETURNDATASIZE ISZERO PUSH2 0xD3C JUMPI RETURNDATASIZE SWAP1 PUSH1 0x1 PUSH1 0x1 PUSH1 0x40 SHL SUB DUP3 GT PUSH2 0xCEC JUMPI PUSH1 0x40 MLOAD SWAP2 PUSH2 0xD30 PUSH1 0x1F DUP3 ADD PUSH1 0x1F NOT AND PUSH1 0x20 ADD DUP5 PUSH2 0xCC9 JUMP JUMPDEST DUP3 MSTORE RETURNDATASIZE PUSH1 0x0 PUSH1 0x20 DUP5 ADD RETURNDATACOPY JUMP JUMPDEST PUSH1 0x60 SWAP1 JUMP JUMPDEST MLOAD SWAP1 PUSH1 0x1 PUSH1 0x1 PUSH1 0x40 SHL SUB DUP3 AND DUP3 SUB PUSH2 0xB3D JUMPI JUMP JUMPDEST PUSH1 0x40 DUP1 MLOAD PUSH4 0xFFFFFFFF SWAP1 SWAP3 AND PUSH1 0x20 DUP1 DUP5 ADD SWAP2 DUP3 MSTORE DUP4 MSTORE SWAP1 DUP3 ADD SWAP1 PUSH1 0x1 PUSH1 0x1 PUSH1 0x40 SHL SUB DUP3 GT DUP4 DUP4 LT OR PUSH2 0xCEC JUMPI PUSH1 0x0 SWAP3 DUP4 SWAP3 PUSH1 0x40 MSTORE MLOAD SWAP1 PUSH2 0x807 GAS STATICCALL PUSH2 0xD98 PUSH2 0xD02 JUMP JUMPDEST SWAP1 ISZERO PUSH2 0xDBA JUMPI PUSH1 0x20 DUP2 DUP1 MLOAD DUP2 ADD SUB SLT PUSH2 0xB3D JUMPI PUSH1 0x20 PUSH2 0xDB7 SWAP2 ADD PUSH2 0xD41 JUMP JUMPDEST SWAP1 JUMP JUMPDEST PUSH1 0x40 MLOAD PUSH4 0x83905249 PUSH1 0xE0 SHL DUP2 MSTORE PUSH1 0x4 SWAP1 REVERT JUMPDEST PUSH1 0xFF AND PUSH1 0x4D DUP2 GT PUSH2 0xDDD JUMPI PUSH1 0xA EXP SWAP1 JUMP JUMPDEST PUSH4 0x4E487B71 PUSH1 0xE0 SHL PUSH1 0x0 MSTORE PUSH1 0x11 PUSH1 0x4 MSTORE PUSH1 0x24 PUSH1 0x0 REVERT JUMPDEST DUP2 DUP2 MUL SWAP3 SWAP2 DUP2 ISZERO SWAP2 DUP5 DIV EQ OR ISZERO PUSH2 0xDDD JUMPI JUMP JUMPDEST DUP2 ISZERO PUSH2 0xE10 JUMPI DIV SWAP1 JUMP JUMPDEST PUSH4 0x4E487B71 PUSH1 0xE0 SHL PUSH1 0x0 MSTORE PUSH1 0x12 PUSH1 0x4 MSTORE PUSH1 0x24 PUSH1 0x0 REVERT JUMPDEST PUSH1 0x1 PUSH1 0x1 PUSH1 0x40 SHL SUB AND PUSH5 0xE8D4A51000 DUP2 DUP2 MUL SWAP2 DUP1 DUP4 DIV SWAP1 SWAP2 EQ SWAP1 ISZERO OR ISZERO PUSH2 0xDDD JUMPI SWAP1 JUMP JUMPDEST SWAP1 PUSH1 0xFF AND PUSH1 0x12 DUP2 LT PUSH2 0xE7E JUMPI PUSH1 0x11 NOT ADD SWAP1 PUSH1 0xFF DUP3 GT PUSH2 0xDDD JUMPI PUSH2 0xE6F PUSH2 0xDB7 SWAP3 PUSH2 0xDCC JUMP JUMPDEST SWAP1 PUSH1 0x1 PUSH1 0x1 PUSH1 0x40 SHL SUB AND PUSH2 0xE06 JUMP JUMPDEST PUSH1 0x12 SUB SWAP1 PUSH1 0xFF DUP3 GT PUSH2 0xDDD JUMPI PUSH2 0xE96 PUSH2 0xDB7 SWAP3 PUSH2 0xDCC JUMP JUMPDEST SWAP1 PUSH1 0x1 PUSH1 0x1 PUSH1 0x40 SHL SUB AND PUSH2 0xDF3 JUMP JUMPDEST PUSH1 0x1 PUSH1 0x1 PUSH1 0x40 SHL SUB AND DUP1 ISZERO PUSH2 0xEBD JUMPI PUSH1 0x1 PUSH1 0x9D SHL OR SWAP1 JUMP JUMPDEST POP PUSH20 0x2222222222222222222222222222222222222222 SWAP1 JUMP JUMPDEST SWAP1 DUP2 PUSH1 0x20 SWAP2 SUB SLT PUSH2 0xB3D JUMPI MLOAD DUP1 ISZERO ISZERO DUP2 SUB PUSH2 0xB3D JUMPI SWAP1 JUMP JUMPDEST PUSH1 0xFF PUSH1 0x2 SLOAD AND PUSH2 0xEFA JUMPI JUMP JUMPDEST PUSH1 0x40 MLOAD PUSH4 0xD93C0665 PUSH1 0xE0 SHL DUP2 MSTORE PUSH1 0x4 SWAP1 REVERT JUMPDEST PUSH1 0x20 DUP1 DUP3 MSTORE DUP3 MLOAD DUP2 DUP4 ADD DUP2 SWAP1 MSTORE SWAP1 SWAP4 SWAP3 PUSH1 0x0 JUMPDEST DUP3 DUP2 LT PUSH2 0xF41 JUMPI POP POP PUSH1 0x40 SWAP3 SWAP4 POP PUSH1 0x0 DUP4 DUP3 DUP5 ADD ADD MSTORE PUSH1 0x1F DUP1 NOT SWAP2 ADD AND ADD ADD SWAP1 JUMP JUMPDEST DUP2 DUP2 ADD DUP7 ADD MLOAD DUP5 DUP3 ADD PUSH1 0x40 ADD MSTORE DUP6 ADD PUSH2 0xF1F JUMP JUMPDEST PUSH1 0x40 DUP1 MLOAD PUSH1 0x6 PUSH1 0x20 DUP3 ADD MSTORE PUSH1 0x1 PUSH1 0x1 PUSH1 0xA0 SHL SUB SWAP1 SWAP3 AND SWAP1 DUP3 ADD MSTORE PUSH1 0x1 PUSH1 0x1 PUSH1 0x40 SHL SUB SWAP2 DUP3 AND PUSH1 0x60 DUP3 ADD MSTORE PUSH1 0x80 DUP1 DUP3 ADD SWAP4 SWAP1 SWAP4 MSTORE SWAP2 DUP3 MSTORE PUSH1 0xA0 DUP3 ADD SWAP1 DUP2 GT DUP3 DUP3 LT OR PUSH2 0xCEC JUMPI PUSH1 0x0 SWAP2 DUP2 DUP4 SWAP3 PUSH1 0x40 MSTORE PUSH2 0xFD4 PUSH1 0xC0 DUP4 ADD SWAP3 PUSH4 0x17938E13 PUSH1 0xE0 SHL DUP5 MSTORE PUSH2 0xFC2 DUP2 PUSH1 0xC4 DUP2 ADD PUSH2 0xF0C JUMP JUMPDEST SUB PUSH1 0xBF NOT DUP2 ADD DUP4 MSTORE PUSH1 0x9F NOT ADD DUP3 PUSH2 0xCC9 JUMP JUMPDEST MLOAD SWAP1 DUP3 PUSH20 0x3333333333333333333333333333333333333333 GAS CALL PUSH2 0xFF6 PUSH2 0xD02 JUMP JUMPDEST POP ISZERO PUSH2 0xFFE JUMPI JUMP JUMPDEST PUSH1 0x40 MLOAD PUSH4 0x382A82A7 PUSH1 0xE1 SHL DUP2 MSTORE PUSH1 0x4 SWAP1 REVERT INVALID LOG2 PUSH5 0x6970667358 0x22 SLT KECCAK256 0xE9 CALLER MULMOD PUSH16 0x3C1C881383677B10C8F8203E9EC3E5EE 0x22 PUSH7 0xF0F0D2148AACA2 0xAE NOT 0xE4 PUSH5 0x736F6C6343 STOP ADDMOD EQ STOP CALLER 0x2F DUP8 DUP9 GT PUSH31 0x7EFF1D82E926EC794901D17C78024A50270940304540A733656F0D00000000 "},"methodIdentifiers":{"DEFAULT_ADMIN_ROLE()":"a217fddf","EXECUTOR_ROLE()":"07bd0265","MAX_SLIPPAGE()":"f9759518","convertOraclePrice(uint64,uint8)":"eae5cc9b","executeSwap(uint64,uint64,uint256,uint256,uint32,uint32)":"a2f82960","getContractSpotBalance(uint64)":"cd516076","getOraclePrice(uint32)":"2af78bd1","getRoleAdmin(bytes32)":"248a9ca3","getSystemAddress(uint64)":"ecf7ab06","grantRole(bytes32,address)":"2f2ff15d","hasRole(bytes32,address)":"91d14854","pause()":"8456cb59","paused()":"5c975abb","renounceRole(bytes32,address)":"36568abe","revokeRole(bytes32,address)":"d547741f","setSwapFee(uint256)":"34e19907","setTokenContract(uint64,address)":"a7ba07c9","supportsInterface(bytes4)":"01ffc9a7","swapFee()":"54cf2aeb","tokenContracts(uint64)":"721883fe","unpause()":"3f4ba83a","withdrawFees()":"476343ee"}},"storageLayout":{"storage":[{"astId":26,"contract":"contracts/SwapContract.sol:SwapContract","label":"_roles","offset":0,"slot":"0","type":"t_mapping(t_bytes32,t_struct(RoleData)21_storage)"},{"astId":605,"contract":"contracts/SwapContract.sol:SwapContract","label":"_status","offset":0,"slot":"1","type":"t_uint256"},{"astId":495,"contract":"contracts/SwapContract.sol:SwapContract","label":"_paused","offset":0,"slot":"2","type":"t_bool"},{"astId":732,"contract":"contracts/SwapContract.sol:SwapContract","label":"swapFee","offset":0,"slot":"3","type":"t_uint256"},{"astId":736,"contract":"contracts/SwapContract.sol:SwapContract","label":"tokenContracts","offset":0,"slot":"4","type":"t_mapping(t_uint64,t_address)"}],"types":{"t_address":{"encoding":"inplace","label":"address","numberOfBytes":"20"},"t_bool":{"encoding":"inplace","label":"bool","numberOfBytes":"1"},"t_bytes32":{"encoding":"inplace","label":"bytes32","numberOfBytes":"32"},"t_mapping(t_address,t_bool)":{"encoding":"mapping","key":"t_address","label":"mapping(address => bool)","numberOfBytes":"32","value":"t_bool"},"t_mapping(t_bytes32,t_struct(RoleData)21_storage)":{"encoding":"mapping","key":"t_bytes32","label":"mapping(bytes32 => struct AccessControl.RoleData)","numberOfBytes":"32","value":"t_struct(RoleData)21_storage"},"t_mapping(t_uint64,t_address)":{"encoding":"mapping","key":"t_uint64","label":"mapping(uint64 => address)","numberOfBytes":"32","value":"t_address"},"t_struct(RoleData)21_storage":{"encoding":"inplace","label":"struct AccessControl.RoleData","members":[{"astId":18,"contract":"contracts/SwapContract.sol:SwapContract","label":"hasRole","offset":0,"slot":"0","type":"t_mapping(t_address,t_bool)"},{"astId":20,"contract":"contracts/SwapContract.sol:SwapContract","label":"adminRole","offset":0,"slot":"1","type":"t_bytes32"}],"numberOfBytes":"64"},"t_uint256":{"encoding":"inplace","label":"uint256","numberOfBytes":"32"},"t_uint64":{"encoding":"inplace","label":"uint64","numberOfBytes":"8"}}}}}}