{"contracts/BridgeHelper.sol":{"BridgeHelper":{"abi":[{"inputs":[],"stateMutability":"nonpayable","type":"constructor"},{"inputs":[{"internalType":"address","name":"owner","type":"address"}],"name":"OwnableInvalidOwner","type":"error"},{"inputs":[{"internalType":"address","name":"account","type":"address"}],"name":"OwnableUnauthorizedAccount","type":"error"},{"inputs":[{"internalType":"address","name":"token","type":"address"}],"name":"SafeERC20FailedOperation","type":"error"},{"anonymous":false,"inputs":[{"indexed":true,"internalType":"address","name":"user","type":"address"},{"indexed":false,"internalType":"string","name":"token","type":"string"},{"indexed":false,"internalType":"uint256","name":"amount","type":"uint256"},{"indexed":false,"internalType":"address","name":"systemAddress","type":"address"}],"name":"BridgedToHyperCore","type":"event"},{"anonymous":false,"inputs":[{"indexed":true,"internalType":"address","name":"previousOwner","type":"address"},{"indexed":true,"internalType":"address","name":"newOwner","type":"address"}],"name":"OwnershipTransferStarted","type":"event"},{"anonymous":false,"inputs":[{"indexed":true,"internalType":"address","name":"previousOwner","type":"address"},{"indexed":true,"internalType":"address","name":"newOwner","type":"address"}],"name":"OwnershipTransferred","type":"event"},{"anonymous":false,"inputs":[{"indexed":false,"internalType":"string","name":"symbol","type":"string"},{"indexed":false,"internalType":"address","name":"tokenAddress","type":"address"},{"indexed":false,"internalType":"uint64","name":"tokenIndex","type":"uint64"}],"name":"TokenConfigured","type":"event"},{"inputs":[],"name":"acceptOwnership","outputs":[],"stateMutability":"nonpayable","type":"function"},{"inputs":[],"name":"bridgeHype","outputs":[],"stateMutability":"payable","type":"function"},{"inputs":[{"internalType":"string","name":"symbol","type":"string"},{"internalType":"uint256","name":"amount","type":"uint256"}],"name":"bridgeToken","outputs":[],"stateMutability":"nonpayable","type":"function"},{"inputs":[{"internalType":"string","name":"symbol","type":"string"},{"internalType":"address","name":"tokenAddress","type":"address"},{"internalType":"uint64","name":"tokenIndex","type":"uint64"}],"name":"configureToken","outputs":[],"stateMutability":"nonpayable","type":"function"},{"inputs":[{"internalType":"uint64","name":"tokenIndex","type":"uint64"}],"name":"getSystemAddress","outputs":[{"internalType":"address","name":"","type":"address"}],"stateMutability":"pure","type":"function"},{"inputs":[{"internalType":"string","name":"symbol","type":"string"}],"name":"getTokenConfig","outputs":[{"internalType":"address","name":"tokenAddress","type":"address"},{"internalType":"uint64","name":"tokenIndex","type":"uint64"},{"internalType":"address","name":"systemAddress","type":"address"}],"stateMutability":"view","type":"function"},{"inputs":[],"name":"owner","outputs":[{"internalType":"address","name":"","type":"address"}],"stateMutability":"view","type":"function"},{"inputs":[],"name":"pendingOwner","outputs":[{"internalType":"address","name":"","type":"address"}],"stateMutability":"view","type":"function"},{"inputs":[],"name":"renounceOwnership","outputs":[],"stateMutability":"nonpayable","type":"function"},{"inputs":[{"internalType":"string","name":"","type":"string"}],"name":"tokenAddresses","outputs":[{"internalType":"address","name":"","type":"address"}],"stateMutability":"view","type":"function"},{"inputs":[{"internalType":"string","name":"","type":"string"}],"name":"tokenIndices","outputs":[{"internalType":"uint64","name":"","type":"uint64"}],"stateMutability":"view","type":"function"},{"inputs":[{"internalType":"address","name":"newOwner","type":"address"}],"name":"transferOwnership","outputs":[],"stateMutability":"nonpayable","type":"function"},{"stateMutability":"payable","type":"receive"}],"evm":{"bytecode":{"linkReferences":{},"object":"608080604052346100c75733156100b157602460018060a01b0319806001541660015560005490339082161760005560405190339060018060a01b03167f8be0079c531659141344cd1fd0a4f28419497f9722a3daafe3b4186f6b6457e0600080a3635553444360e01b8152600360048201522060018060401b0319906001828254161790556024604051634859504560e01b81526003600482015220908154169055604051610a2f90816100cd8239f35b631e4fbdf760e01b815260006004820152602490fd5b600080fdfe60406080815260048036101561007e575b50361561001c57600080fd5b61004a6000808080347322222222222222222222222222222222222222225af16100446108ee565b5061091e565b517f69e64e0e408384ca504a7d6faeed1dbc841e9102f5274dc8ee176b626d39e51d339180610079348261095f565b0390a2005b90600091823560e01c806336c7d041146106b4578063715018a61461064f57806379ba5097146105cd57806381f868f7146105425780638da5cb5b1461051a578063935b13f6146104c4578063a05803b31461046f578063d4546d2314610293578063e30c39781461026a578063ecf7ab0614610225578063f2fde38b146101b65763fa94246f14610111575090610010565b826003193601126101b257341561017f575061014a82808080347322222222222222222222222222222222222222225af16100446108ee565b517f69e64e0e408384ca504a7d6faeed1dbc841e9102f5274dc8ee176b626d39e51d339180610179348261095f565b0390a280f35b6020606492519162461bcd60e51b8352820152600e60248201526d4d7573742073656e64204859504560901b6044820152fd5b8280fd5b83823461022157602036600319011261022157356001600160a01b03818116918290036101b2576101e56108a1565b600180546001600160a01b031916831790558254167f38d16b8cac22d99fc7c124b9cd0de2d3fa1faef420bfe791d8c362d765e227008380a380f35b5080fd5b50346101b25760203660031901126101b257359167ffffffffffffffff8316830361026757506102566020926109a0565b90516001600160a01b039091168152f35b80fd5b50503461022157816003193601126102215760015490516001600160a01b039091168152602090f35b5082903461022157826003193601126102215767ffffffffffffffff813581811161046b576102c590369084016107b1565b91909460248035908115610434578251958589883760028688019081528790036020908101909720546001600160a01b039081169081156103fb5761031f878c8a89519182378b818c8101600381520301902054166109a0565b908651908a8201926323b872dd60e01b8452338784015216978860448301528660648301526064825260a0820190828210908211176103e95787525189918b919082855af1156103df5788513d6103d65750803b155b6103c4575050506103b47f69e64e0e408384ca504a7d6faeed1dbc841e9102f5274dc8ee176b626d39e51d9596978351956060875260608701916108cd565b958401528201528033930390a280f35b8451635274afe760e01b815291820152fd5b60011415610375565b84513d8a823e3d90fd5b634e487b7160e01b8c5260418552858cfd5b855162461bcd60e51b81528084018a905260148186015273151bdad95b881b9bdd0818dbdb999a59dd5c995960621b6044820152606490fd5b856012606492602086519362461bcd60e51b8552840152820152710416d6f756e74206d757374206265203e20360741b6044820152fd5b8380fd5b5050346102215760209161048236610838565b908251918051915b8281106104b357505090838167ffffffffffffffff938101600381520301902054169051908152f35b81810186015184820152850161048a565b505034610221576020916104d736610838565b908251918051915b8281106105095750506002908201908152819003830190205490516001600160a01b039091168152f35b8181018601518482015285016104df565b505034610221578160031936011261022157905490516001600160a01b039091168152602090f35b5091903461022157602036600319011261022157823567ffffffffffffffff928382116102675750606093610579913691016107b1565b909282519180858437602081840160028152848260018060a01b039687930301902054169582865193849283378101600381520301902054166105bb816109a0565b90835194855260208501521690820152f35b5090346101b257826003193601126101b257600154916001600160a01b039133838516036106385750506001600160a01b031991821660015582543392811683178455167f8be0079c531659141344cd1fd0a4f28419497f9722a3daafe3b4186f6b6457e08380a380f35b60249250519063118cdaa760e01b82523390820152fd5b83346102675780600319360112610267576106686108a1565b600180546001600160a01b03199081169091558154908116825581906001600160a01b03167f8be0079c531659141344cd1fd0a4f28419497f9722a3daafe3b4186f6b6457e08280a380f35b50346101b25760603660031901126101b257803567ffffffffffffffff918282116107ad576106e5913691016107b1565b90916024356001600160a01b03811691908290036107a9576044359081168091036107a9577f761bb66a1cb74bbb406033c028eada522f45aebc3bbbe4b26c8e6cfc804961dc946107346108a1565b8051848682376020818681016002815203019020836bffffffffffffffffffffffff60a01b82541617905580518486823760208186810160038152030190208267ffffffffffffffff1982541617905561079a81519586956060875260608701916108cd565b9260208501528301520390a180f35b8580fd5b8480fd5b9181601f840112156107df5782359167ffffffffffffffff83116107df57602083818601950101116107df57565b600080fd5b90601f8019910116810190811067ffffffffffffffff82111761080657604052565b634e487b7160e01b600052604160045260246000fd5b67ffffffffffffffff811161080657601f01601f191660200190565b60206003198201126107df5760043567ffffffffffffffff81116107df57816023820112156107df578060040135906108708261081c565b9261087e60405194856107e4565b828452602483830101116107df5781600092602460209301838601378301015290565b6000546001600160a01b031633036108b557565b60405163118cdaa760e01b8152336004820152602490fd5b908060209392818452848401376000828201840152601f01601f1916010190565b3d15610919573d906108ff8261081c565b9161090d60405193846107e4565b82523d6000602084013e565b606090565b1561092557565b60405162461bcd60e51b81526020600482015260126024820152711216541148189c9a5919d94819985a5b195960721b6044820152606490fd5b6040732222222222222222222222222222222222222222919392936060815260046060820152634859504560e01b608082015260a081019460208201520152565b67ffffffffffffffff1680156109e0576001600160a01b03906001609d1b018181116109ca571690565b634e487b7160e01b600052601160045260246000fd5b507322222222222222222222222222222222222222229056fea2646970667358221220542a98a7628f6aed14d3844cbe0c55a6378f0d4911ecd78a8e6995c9ea2df41d64736f6c63430008140033","opcodes":"PUSH1 0x80 DUP1 PUSH1 0x40 MSTORE CALLVALUE PUSH2 0xC7 JUMPI CALLER ISZERO PUSH2 0xB1 JUMPI PUSH1 0x24 PUSH1 0x1 DUP1 PUSH1 0xA0 SHL SUB NOT DUP1 PUSH1 0x1 SLOAD AND PUSH1 0x1 SSTORE PUSH1 0x0 SLOAD SWAP1 CALLER SWAP1 DUP3 AND OR PUSH1 0x0 SSTORE PUSH1 0x40 MLOAD SWAP1 CALLER SWAP1 PUSH1 0x1 DUP1 PUSH1 0xA0 SHL SUB AND PUSH32 0x8BE0079C531659141344CD1FD0A4F28419497F9722A3DAAFE3B4186F6B6457E0 PUSH1 0x0 DUP1 LOG3 PUSH4 0x55534443 PUSH1 0xE0 SHL DUP2 MSTORE PUSH1 0x3 PUSH1 0x4 DUP3 ADD MSTORE KECCAK256 PUSH1 0x1 DUP1 PUSH1 0x40 SHL SUB NOT SWAP1 PUSH1 0x1 DUP3 DUP3 SLOAD AND OR SWAP1 SSTORE PUSH1 0x24 PUSH1 0x40 MLOAD PUSH4 0x48595045 PUSH1 0xE0 SHL DUP2 MSTORE PUSH1 0x3 PUSH1 0x4 DUP3 ADD MSTORE KECCAK256 SWAP1 DUP2 SLOAD AND SWAP1 SSTORE PUSH1 0x40 MLOAD PUSH2 0xA2F SWAP1 DUP2 PUSH2 0xCD DUP3 CODECOPY RETURN JUMPDEST PUSH4 0x1E4FBDF7 PUSH1 0xE0 SHL DUP2 MSTORE PUSH1 0x0 PUSH1 0x4 DUP3 ADD MSTORE PUSH1 0x24 SWAP1 REVERT JUMPDEST PUSH1 0x0 DUP1 REVERT INVALID PUSH1 0x40 PUSH1 0x80 DUP2 MSTORE PUSH1 0x4 DUP1 CALLDATASIZE LT ISZERO PUSH2 0x7E JUMPI JUMPDEST POP CALLDATASIZE ISZERO PUSH2 0x1C JUMPI PUSH1 0x0 DUP1 REVERT JUMPDEST PUSH2 0x4A PUSH1 0x0 DUP1 DUP1 DUP1 CALLVALUE PUSH20 0x2222222222222222222222222222222222222222 GAS CALL PUSH2 0x44 PUSH2 0x8EE JUMP JUMPDEST POP PUSH2 0x91E JUMP JUMPDEST MLOAD PUSH32 0x69E64E0E408384CA504A7D6FAEED1DBC841E9102F5274DC8EE176B626D39E51D CALLER SWAP2 DUP1 PUSH2 0x79 CALLVALUE DUP3 PUSH2 0x95F JUMP JUMPDEST SUB SWAP1 LOG2 STOP JUMPDEST SWAP1 PUSH1 0x0 SWAP2 DUP3 CALLDATALOAD PUSH1 0xE0 SHR DUP1 PUSH4 0x36C7D041 EQ PUSH2 0x6B4 JUMPI DUP1 PUSH4 0x715018A6 EQ PUSH2 0x64F JUMPI DUP1 PUSH4 0x79BA5097 EQ PUSH2 0x5CD JUMPI DUP1 PUSH4 0x81F868F7 EQ PUSH2 0x542 JUMPI DUP1 PUSH4 0x8DA5CB5B EQ PUSH2 0x51A JUMPI DUP1 PUSH4 0x935B13F6 EQ PUSH2 0x4C4 JUMPI DUP1 PUSH4 0xA05803B3 EQ PUSH2 0x46F JUMPI DUP1 PUSH4 0xD4546D23 EQ PUSH2 0x293 JUMPI DUP1 PUSH4 0xE30C3978 EQ PUSH2 0x26A JUMPI DUP1 PUSH4 0xECF7AB06 EQ PUSH2 0x225 JUMPI DUP1 PUSH4 0xF2FDE38B EQ PUSH2 0x1B6 JUMPI PUSH4 0xFA94246F EQ PUSH2 0x111 JUMPI POP SWAP1 PUSH2 0x10 JUMP JUMPDEST DUP3 PUSH1 0x3 NOT CALLDATASIZE ADD SLT PUSH2 0x1B2 JUMPI CALLVALUE ISZERO PUSH2 0x17F JUMPI POP PUSH2 0x14A DUP3 DUP1 DUP1 DUP1 CALLVALUE PUSH20 0x2222222222222222222222222222222222222222 GAS CALL PUSH2 0x44 PUSH2 0x8EE JUMP JUMPDEST MLOAD PUSH32 0x69E64E0E408384CA504A7D6FAEED1DBC841E9102F5274DC8EE176B626D39E51D CALLER SWAP2 DUP1 PUSH2 0x179 CALLVALUE DUP3 PUSH2 0x95F JUMP JUMPDEST SUB SWAP1 LOG2 DUP1 RETURN JUMPDEST PUSH1 0x20 PUSH1 0x64 SWAP3 MLOAD SWAP2 PUSH3 0x461BCD PUSH1 0xE5 SHL DUP4 MSTORE DUP3 ADD MSTORE PUSH1 0xE PUSH1 0x24 DUP3 ADD MSTORE PUSH14 0x4D7573742073656E642048595045 PUSH1 0x90 SHL PUSH1 0x44 DUP3 ADD MSTORE REVERT JUMPDEST DUP3 DUP1 REVERT JUMPDEST DUP4 DUP3 CALLVALUE PUSH2 0x221 JUMPI PUSH1 0x20 CALLDATASIZE PUSH1 0x3 NOT ADD SLT PUSH2 0x221 JUMPI CALLDATALOAD PUSH1 0x1 PUSH1 0x1 PUSH1 0xA0 SHL SUB DUP2 DUP2 AND SWAP2 DUP3 SWAP1 SUB PUSH2 0x1B2 JUMPI PUSH2 0x1E5 PUSH2 0x8A1 JUMP JUMPDEST PUSH1 0x1 DUP1 SLOAD PUSH1 0x1 PUSH1 0x1 PUSH1 0xA0 SHL SUB NOT AND DUP4 OR SWAP1 SSTORE DUP3 SLOAD AND PUSH32 0x38D16B8CAC22D99FC7C124B9CD0DE2D3FA1FAEF420BFE791D8C362D765E22700 DUP4 DUP1 LOG3 DUP1 RETURN JUMPDEST POP DUP1 REVERT JUMPDEST POP CALLVALUE PUSH2 0x1B2 JUMPI PUSH1 0x20 CALLDATASIZE PUSH1 0x3 NOT ADD SLT PUSH2 0x1B2 JUMPI CALLDATALOAD SWAP2 PUSH8 0xFFFFFFFFFFFFFFFF DUP4 AND DUP4 SUB PUSH2 0x267 JUMPI POP PUSH2 0x256 PUSH1 0x20 SWAP3 PUSH2 0x9A0 JUMP JUMPDEST SWAP1 MLOAD PUSH1 0x1 PUSH1 0x1 PUSH1 0xA0 SHL SUB SWAP1 SWAP2 AND DUP2 MSTORE RETURN JUMPDEST DUP1 REVERT JUMPDEST POP POP CALLVALUE PUSH2 0x221 JUMPI DUP2 PUSH1 0x3 NOT CALLDATASIZE ADD SLT PUSH2 0x221 JUMPI PUSH1 0x1 SLOAD SWAP1 MLOAD PUSH1 0x1 PUSH1 0x1 PUSH1 0xA0 SHL SUB SWAP1 SWAP2 AND DUP2 MSTORE PUSH1 0x20 SWAP1 RETURN JUMPDEST POP DUP3 SWAP1 CALLVALUE PUSH2 0x221 JUMPI DUP3 PUSH1 0x3 NOT CALLDATASIZE ADD SLT PUSH2 0x221 JUMPI PUSH8 0xFFFFFFFFFFFFFFFF DUP2 CALLDATALOAD DUP2 DUP2 GT PUSH2 0x46B JUMPI PUSH2 0x2C5 SWAP1 CALLDATASIZE SWAP1 DUP5 ADD PUSH2 0x7B1 JUMP JUMPDEST SWAP2 SWAP1 SWAP5 PUSH1 0x24 DUP1 CALLDATALOAD SWAP1 DUP2 ISZERO PUSH2 0x434 JUMPI DUP3 MLOAD SWAP6 DUP6 DUP10 DUP9 CALLDATACOPY PUSH1 0x2 DUP7 DUP9 ADD SWAP1 DUP2 MSTORE DUP8 SWAP1 SUB PUSH1 0x20 SWAP1 DUP2 ADD SWAP1 SWAP8 KECCAK256 SLOAD PUSH1 0x1 PUSH1 0x1 PUSH1 0xA0 SHL SUB SWAP1 DUP2 AND SWAP1 DUP2 ISZERO PUSH2 0x3FB JUMPI PUSH2 0x31F DUP8 DUP13 DUP11 DUP10 MLOAD SWAP2 DUP3 CALLDATACOPY DUP12 DUP2 DUP13 DUP2 ADD PUSH1 0x3 DUP2 MSTORE SUB ADD SWAP1 KECCAK256 SLOAD AND PUSH2 0x9A0 JUMP JUMPDEST SWAP1 DUP7 MLOAD SWAP1 DUP11 DUP3 ADD SWAP3 PUSH4 0x23B872DD PUSH1 0xE0 SHL DUP5 MSTORE CALLER DUP8 DUP5 ADD MSTORE AND SWAP8 DUP9 PUSH1 0x44 DUP4 ADD MSTORE DUP7 PUSH1 0x64 DUP4 ADD MSTORE PUSH1 0x64 DUP3 MSTORE PUSH1 0xA0 DUP3 ADD SWAP1 DUP3 DUP3 LT SWAP1 DUP3 GT OR PUSH2 0x3E9 JUMPI DUP8 MSTORE MLOAD DUP10 SWAP2 DUP12 SWAP2 SWAP1 DUP3 DUP6 GAS CALL ISZERO PUSH2 0x3DF JUMPI DUP9 MLOAD RETURNDATASIZE PUSH2 0x3D6 JUMPI POP DUP1 EXTCODESIZE ISZERO JUMPDEST PUSH2 0x3C4 JUMPI POP POP POP PUSH2 0x3B4 PUSH32 0x69E64E0E408384CA504A7D6FAEED1DBC841E9102F5274DC8EE176B626D39E51D SWAP6 SWAP7 SWAP8 DUP4 MLOAD SWAP6 PUSH1 0x60 DUP8 MSTORE PUSH1 0x60 DUP8 ADD SWAP2 PUSH2 0x8CD JUMP JUMPDEST SWAP6 DUP5 ADD MSTORE DUP3 ADD MSTORE DUP1 CALLER SWAP4 SUB SWAP1 LOG2 DUP1 RETURN JUMPDEST DUP5 MLOAD PUSH4 0x5274AFE7 PUSH1 0xE0 SHL DUP2 MSTORE SWAP2 DUP3 ADD MSTORE REVERT JUMPDEST PUSH1 0x1 EQ ISZERO PUSH2 0x375 JUMP JUMPDEST DUP5 MLOAD RETURNDATASIZE DUP11 DUP3 RETURNDATACOPY RETURNDATASIZE SWAP1 REVERT JUMPDEST PUSH4 0x4E487B71 PUSH1 0xE0 SHL DUP13 MSTORE PUSH1 0x41 DUP6 MSTORE DUP6 DUP13 REVERT JUMPDEST DUP6 MLOAD PUSH3 0x461BCD PUSH1 0xE5 SHL DUP2 MSTORE DUP1 DUP5 ADD DUP11 SWAP1 MSTORE PUSH1 0x14 DUP2 DUP7 ADD MSTORE PUSH20 0x151BDAD95B881B9BDD0818DBDB999A59DD5C9959 PUSH1 0x62 SHL PUSH1 0x44 DUP3 ADD MSTORE PUSH1 0x64 SWAP1 REVERT JUMPDEST DUP6 PUSH1 0x12 PUSH1 0x64 SWAP3 PUSH1 0x20 DUP7 MLOAD SWAP4 PUSH3 0x461BCD PUSH1 0xE5 SHL DUP6 MSTORE DUP5 ADD MSTORE DUP3 ADD MSTORE PUSH18 0x416D6F756E74206D757374206265203E203 PUSH1 0x74 SHL PUSH1 0x44 DUP3 ADD MSTORE REVERT JUMPDEST DUP4 DUP1 REVERT JUMPDEST POP POP CALLVALUE PUSH2 0x221 JUMPI PUSH1 0x20 SWAP2 PUSH2 0x482 CALLDATASIZE PUSH2 0x838 JUMP JUMPDEST SWAP1 DUP3 MLOAD SWAP2 DUP1 MLOAD SWAP2 JUMPDEST DUP3 DUP2 LT PUSH2 0x4B3 JUMPI POP POP SWAP1 DUP4 DUP2 PUSH8 0xFFFFFFFFFFFFFFFF SWAP4 DUP2 ADD PUSH1 0x3 DUP2 MSTORE SUB ADD SWAP1 KECCAK256 SLOAD AND SWAP1 MLOAD SWAP1 DUP2 MSTORE RETURN JUMPDEST DUP2 DUP2 ADD DUP7 ADD MLOAD DUP5 DUP3 ADD MSTORE DUP6 ADD PUSH2 0x48A JUMP JUMPDEST POP POP CALLVALUE PUSH2 0x221 JUMPI PUSH1 0x20 SWAP2 PUSH2 0x4D7 CALLDATASIZE PUSH2 0x838 JUMP JUMPDEST SWAP1 DUP3 MLOAD SWAP2 DUP1 MLOAD SWAP2 JUMPDEST DUP3 DUP2 LT PUSH2 0x509 JUMPI POP POP PUSH1 0x2 SWAP1 DUP3 ADD SWAP1 DUP2 MSTORE DUP2 SWAP1 SUB DUP4 ADD SWAP1 KECCAK256 SLOAD SWAP1 MLOAD PUSH1 0x1 PUSH1 0x1 PUSH1 0xA0 SHL SUB SWAP1 SWAP2 AND DUP2 MSTORE RETURN JUMPDEST DUP2 DUP2 ADD DUP7 ADD MLOAD DUP5 DUP3 ADD MSTORE DUP6 ADD PUSH2 0x4DF JUMP JUMPDEST POP POP CALLVALUE PUSH2 0x221 JUMPI DUP2 PUSH1 0x3 NOT CALLDATASIZE ADD SLT PUSH2 0x221 JUMPI SWAP1 SLOAD SWAP1 MLOAD PUSH1 0x1 PUSH1 0x1 PUSH1 0xA0 SHL SUB SWAP1 SWAP2 AND DUP2 MSTORE PUSH1 0x20 SWAP1 RETURN JUMPDEST POP SWAP2 SWAP1 CALLVALUE PUSH2 0x221 JUMPI PUSH1 0x20 CALLDATASIZE PUSH1 0x3 NOT ADD SLT PUSH2 0x221 JUMPI DUP3 CALLDATALOAD PUSH8 0xFFFFFFFFFFFFFFFF SWAP3 DUP4 DUP3 GT PUSH2 0x267 JUMPI POP PUSH1 0x60 SWAP4 PUSH2 0x579 SWAP2 CALLDATASIZE SWAP2 ADD PUSH2 0x7B1 JUMP JUMPDEST SWAP1 SWAP3 DUP3 MLOAD SWAP2 DUP1 DUP6 DUP5 CALLDATACOPY PUSH1 0x20 DUP2 DUP5 ADD PUSH1 0x2 DUP2 MSTORE DUP5 DUP3 PUSH1 0x1 DUP1 PUSH1 0xA0 SHL SUB SWAP7 DUP8 SWAP4 SUB ADD SWAP1 KECCAK256 SLOAD AND SWAP6 DUP3 DUP7 MLOAD SWAP4 DUP5 SWAP3 DUP4 CALLDATACOPY DUP2 ADD PUSH1 0x3 DUP2 MSTORE SUB ADD SWAP1 KECCAK256 SLOAD AND PUSH2 0x5BB DUP2 PUSH2 0x9A0 JUMP JUMPDEST SWAP1 DUP4 MLOAD SWAP5 DUP6 MSTORE PUSH1 0x20 DUP6 ADD MSTORE AND SWAP1 DUP3 ADD MSTORE RETURN JUMPDEST POP SWAP1 CALLVALUE PUSH2 0x1B2 JUMPI DUP3 PUSH1 0x3 NOT CALLDATASIZE ADD SLT PUSH2 0x1B2 JUMPI PUSH1 0x1 SLOAD SWAP2 PUSH1 0x1 PUSH1 0x1 PUSH1 0xA0 SHL SUB SWAP2 CALLER DUP4 DUP6 AND SUB PUSH2 0x638 JUMPI POP POP PUSH1 0x1 PUSH1 0x1 PUSH1 0xA0 SHL SUB NOT SWAP2 DUP3 AND PUSH1 0x1 SSTORE DUP3 SLOAD CALLER SWAP3 DUP2 AND DUP4 OR DUP5 SSTORE AND PUSH32 0x8BE0079C531659141344CD1FD0A4F28419497F9722A3DAAFE3B4186F6B6457E0 DUP4 DUP1 LOG3 DUP1 RETURN JUMPDEST PUSH1 0x24 SWAP3 POP MLOAD SWAP1 PUSH4 0x118CDAA7 PUSH1 0xE0 SHL DUP3 MSTORE CALLER SWAP1 DUP3 ADD MSTORE REVERT JUMPDEST DUP4 CALLVALUE PUSH2 0x267 JUMPI DUP1 PUSH1 0x3 NOT CALLDATASIZE ADD SLT PUSH2 0x267 JUMPI PUSH2 0x668 PUSH2 0x8A1 JUMP JUMPDEST PUSH1 0x1 DUP1 SLOAD PUSH1 0x1 PUSH1 0x1 PUSH1 0xA0 SHL SUB NOT SWAP1 DUP2 AND SWAP1 SWAP2 SSTORE DUP2 SLOAD SWAP1 DUP2 AND DUP3 SSTORE DUP2 SWAP1 PUSH1 0x1 PUSH1 0x1 PUSH1 0xA0 SHL SUB AND PUSH32 0x8BE0079C531659141344CD1FD0A4F28419497F9722A3DAAFE3B4186F6B6457E0 DUP3 DUP1 LOG3 DUP1 RETURN JUMPDEST POP CALLVALUE PUSH2 0x1B2 JUMPI PUSH1 0x60 CALLDATASIZE PUSH1 0x3 NOT ADD SLT PUSH2 0x1B2 JUMPI DUP1 CALLDATALOAD PUSH8 0xFFFFFFFFFFFFFFFF SWAP2 DUP3 DUP3 GT PUSH2 0x7AD JUMPI PUSH2 0x6E5 SWAP2 CALLDATASIZE SWAP2 ADD PUSH2 0x7B1 JUMP JUMPDEST SWAP1 SWAP2 PUSH1 0x24 CALLDATALOAD PUSH1 0x1 PUSH1 0x1 PUSH1 0xA0 SHL SUB DUP2 AND SWAP2 SWAP1 DUP3 SWAP1 SUB PUSH2 0x7A9 JUMPI PUSH1 0x44 CALLDATALOAD SWAP1 DUP2 AND DUP1 SWAP2 SUB PUSH2 0x7A9 JUMPI PUSH32 0x761BB66A1CB74BBB406033C028EADA522F45AEBC3BBBE4B26C8E6CFC804961DC SWAP5 PUSH2 0x734 PUSH2 0x8A1 JUMP JUMPDEST DUP1 MLOAD DUP5 DUP7 DUP3 CALLDATACOPY PUSH1 0x20 DUP2 DUP7 DUP2 ADD PUSH1 0x2 DUP2 MSTORE SUB ADD SWAP1 KECCAK256 DUP4 PUSH12 0xFFFFFFFFFFFFFFFFFFFFFFFF PUSH1 0xA0 SHL DUP3 SLOAD AND OR SWAP1 SSTORE DUP1 MLOAD DUP5 DUP7 DUP3 CALLDATACOPY PUSH1 0x20 DUP2 DUP7 DUP2 ADD PUSH1 0x3 DUP2 MSTORE SUB ADD SWAP1 KECCAK256 DUP3 PUSH8 0xFFFFFFFFFFFFFFFF NOT DUP3 SLOAD AND OR SWAP1 SSTORE PUSH2 0x79A DUP2 MLOAD SWAP6 DUP7 SWAP6 PUSH1 0x60 DUP8 MSTORE PUSH1 0x60 DUP8 ADD SWAP2 PUSH2 0x8CD JUMP JUMPDEST SWAP3 PUSH1 0x20 DUP6 ADD MSTORE DUP4 ADD MSTORE SUB SWAP1 LOG1 DUP1 RETURN JUMPDEST DUP6 DUP1 REVERT JUMPDEST DUP5 DUP1 REVERT JUMPDEST SWAP2 DUP2 PUSH1 0x1F DUP5 ADD SLT ISZERO PUSH2 0x7DF JUMPI DUP3 CALLDATALOAD SWAP2 PUSH8 0xFFFFFFFFFFFFFFFF DUP4 GT PUSH2 0x7DF JUMPI PUSH1 0x20 DUP4 DUP2 DUP7 ADD SWAP6 ADD ADD GT PUSH2 0x7DF JUMPI JUMP JUMPDEST PUSH1 0x0 DUP1 REVERT JUMPDEST SWAP1 PUSH1 0x1F DUP1 NOT SWAP2 ADD AND DUP2 ADD SWAP1 DUP2 LT PUSH8 0xFFFFFFFFFFFFFFFF DUP3 GT OR PUSH2 0x806 JUMPI PUSH1 0x40 MSTORE JUMP JUMPDEST PUSH4 0x4E487B71 PUSH1 0xE0 SHL PUSH1 0x0 MSTORE PUSH1 0x41 PUSH1 0x4 MSTORE PUSH1 0x24 PUSH1 0x0 REVERT JUMPDEST PUSH8 0xFFFFFFFFFFFFFFFF DUP2 GT PUSH2 0x806 JUMPI PUSH1 0x1F ADD PUSH1 0x1F NOT AND PUSH1 0x20 ADD SWAP1 JUMP JUMPDEST PUSH1 0x20 PUSH1 0x3 NOT DUP3 ADD SLT PUSH2 0x7DF JUMPI PUSH1 0x4 CALLDATALOAD PUSH8 0xFFFFFFFFFFFFFFFF DUP2 GT PUSH2 0x7DF JUMPI DUP2 PUSH1 0x23 DUP3 ADD SLT ISZERO PUSH2 0x7DF JUMPI DUP1 PUSH1 0x4 ADD CALLDATALOAD SWAP1 PUSH2 0x870 DUP3 PUSH2 0x81C JUMP JUMPDEST SWAP3 PUSH2 0x87E PUSH1 0x40 MLOAD SWAP5 DUP6 PUSH2 0x7E4 JUMP JUMPDEST DUP3 DUP5 MSTORE PUSH1 0x24 DUP4 DUP4 ADD ADD GT PUSH2 0x7DF JUMPI DUP2 PUSH1 0x0 SWAP3 PUSH1 0x24 PUSH1 0x20 SWAP4 ADD DUP4 DUP7 ADD CALLDATACOPY DUP4 ADD ADD MSTORE SWAP1 JUMP JUMPDEST PUSH1 0x0 SLOAD PUSH1 0x1 PUSH1 0x1 PUSH1 0xA0 SHL SUB AND CALLER SUB PUSH2 0x8B5 JUMPI JUMP JUMPDEST PUSH1 0x40 MLOAD PUSH4 0x118CDAA7 PUSH1 0xE0 SHL DUP2 MSTORE CALLER PUSH1 0x4 DUP3 ADD MSTORE PUSH1 0x24 SWAP1 REVERT JUMPDEST SWAP1 DUP1 PUSH1 0x20 SWAP4 SWAP3 DUP2 DUP5 MSTORE DUP5 DUP5 ADD CALLDATACOPY PUSH1 0x0 DUP3 DUP3 ADD DUP5 ADD MSTORE PUSH1 0x1F ADD PUSH1 0x1F NOT AND ADD ADD SWAP1 JUMP JUMPDEST RETURNDATASIZE ISZERO PUSH2 0x919 JUMPI RETURNDATASIZE SWAP1 PUSH2 0x8FF DUP3 PUSH2 0x81C JUMP JUMPDEST SWAP2 PUSH2 0x90D PUSH1 0x40 MLOAD SWAP4 DUP5 PUSH2 0x7E4 JUMP JUMPDEST DUP3 MSTORE RETURNDATASIZE PUSH1 0x0 PUSH1 0x20 DUP5 ADD RETURNDATACOPY JUMP JUMPDEST PUSH1 0x60 SWAP1 JUMP JUMPDEST ISZERO PUSH2 0x925 JUMPI JUMP JUMPDEST PUSH1 0x40 MLOAD PUSH3 0x461BCD PUSH1 0xE5 SHL DUP2 MSTORE PUSH1 0x20 PUSH1 0x4 DUP3 ADD MSTORE PUSH1 0x12 PUSH1 0x24 DUP3 ADD MSTORE PUSH18 0x1216541148189C9A5919D94819985A5B1959 PUSH1 0x72 SHL PUSH1 0x44 DUP3 ADD MSTORE PUSH1 0x64 SWAP1 REVERT JUMPDEST PUSH1 0x40 PUSH20 0x2222222222222222222222222222222222222222 SWAP2 SWAP4 SWAP3 SWAP4 PUSH1 0x60 DUP2 MSTORE PUSH1 0x4 PUSH1 0x60 DUP3 ADD MSTORE PUSH4 0x48595045 PUSH1 0xE0 SHL PUSH1 0x80 DUP3 ADD MSTORE PUSH1 0xA0 DUP2 ADD SWAP5 PUSH1 0x20 DUP3 ADD MSTORE ADD MSTORE JUMP JUMPDEST PUSH8 0xFFFFFFFFFFFFFFFF AND DUP1 ISZERO PUSH2 0x9E0 JUMPI PUSH1 0x1 PUSH1 0x1 PUSH1 0xA0 SHL SUB SWAP1 PUSH1 0x1 PUSH1 0x9D SHL ADD DUP2 DUP2 GT PUSH2 0x9CA JUMPI AND SWAP1 JUMP JUMPDEST PUSH4 0x4E487B71 PUSH1 0xE0 SHL PUSH1 0x0 MSTORE PUSH1 0x11 PUSH1 0x4 MSTORE PUSH1 0x24 PUSH1 0x0 REVERT JUMPDEST POP PUSH20 0x2222222222222222222222222222222222222222 SWAP1 JUMP INVALID LOG2 PUSH5 0x6970667358 0x22 SLT KECCAK256 SLOAD 0x2A SWAP9 0xA7 PUSH3 0x8F6AED EQ 0xD3 DUP5 0x4C 0xBE 0xC SSTORE 0xA6 CALLDATACOPY DUP16 0xD 0x49 GT 0xEC 0xD7 DUP11 DUP15 PUSH10 0x95C9EA2DF41D64736F6C PUSH4 0x43000814 STOP CALLER "},"methodIdentifiers":{"acceptOwnership()":"79ba5097","bridgeHype()":"fa94246f","bridgeToken(string,uint256)":"d4546d23","configureToken(string,address,uint64)":"36c7d041","getSystemAddress(uint64)":"ecf7ab06","getTokenConfig(string)":"81f868f7","owner()":"8da5cb5b","pendingOwner()":"e30c3978","renounceOwnership()":"715018a6","tokenAddresses(string)":"935b13f6","tokenIndices(string)":"a05803b3","transferOwnership(address)":"f2fde38b"}},"storageLayout":{"storage":[{"astId":388,"contract":"contracts/BridgeHelper.sol:BridgeHelper","label":"_owner","offset":0,"slot":"0","type":"t_address"},{"astId":536,"contract":"contracts/BridgeHelper.sol:BridgeHelper","label":"_pendingOwner","offset":0,"slot":"1","type":"t_address"},{"astId":1508,"contract":"contracts/BridgeHelper.sol:BridgeHelper","label":"tokenAddresses","offset":0,"slot":"2","type":"t_mapping(t_string_memory_ptr,t_address)"},{"astId":1512,"contract":"contracts/BridgeHelper.sol:BridgeHelper","label":"tokenIndices","offset":0,"slot":"3","type":"t_mapping(t_string_memory_ptr,t_uint64)"}],"types":{"t_address":{"encoding":"inplace","label":"address","numberOfBytes":"20"},"t_mapping(t_string_memory_ptr,t_address)":{"encoding":"mapping","key":"t_string_memory_ptr","label":"mapping(string => address)","numberOfBytes":"32","value":"t_address"},"t_mapping(t_string_memory_ptr,t_uint64)":{"encoding":"mapping","key":"t_string_memory_ptr","label":"mapping(string => uint64)","numberOfBytes":"32","value":"t_uint64"},"t_string_memory_ptr":{"encoding":"bytes","label":"string","numberOfBytes":"32"},"t_uint64":{"encoding":"inplace","label":"uint64","numberOfBytes":"8"}}}}}}