{"contracts/TriggerContract.sol":{"TriggerContract":{"abi":[{"inputs":[],"stateMutability":"nonpayable","type":"constructor"},{"inputs":[],"name":"AccessControlBadConfirmation","type":"error"},{"inputs":[{"internalType":"address","name":"account","type":"address"},{"internalType":"bytes32","name":"neededRole","type":"bytes32"}],"name":"AccessControlUnauthorizedAccount","type":"error"},{"inputs":[],"name":"EnforcedPause","type":"error"},{"inputs":[],"name":"ExpectedPause","type":"error"},{"inputs":[],"name":"ReentrancyGuardReentrantCall","type":"error"},{"anonymous":false,"inputs":[{"indexed":false,"internalType":"uint256","name":"newFee","type":"uint256"}],"name":"FeeUpdated","type":"event"},{"anonymous":false,"inputs":[{"indexed":false,"internalType":"address","name":"account","type":"address"}],"name":"Paused","type":"event"},{"anonymous":false,"inputs":[{"indexed":true,"internalType":"bytes32","name":"role","type":"bytes32"},{"indexed":true,"internalType":"bytes32","name":"previousAdminRole","type":"bytes32"},{"indexed":true,"internalType":"bytes32","name":"newAdminRole","type":"bytes32"}],"name":"RoleAdminChanged","type":"event"},{"anonymous":false,"inputs":[{"indexed":true,"internalType":"bytes32","name":"role","type":"bytes32"},{"indexed":true,"internalType":"address","name":"account","type":"address"},{"indexed":true,"internalType":"address","name":"sender","type":"address"}],"name":"RoleGranted","type":"event"},{"anonymous":false,"inputs":[{"indexed":true,"internalType":"bytes32","name":"role","type":"bytes32"},{"indexed":true,"internalType":"address","name":"account","type":"address"},{"indexed":true,"internalType":"address","name":"sender","type":"address"}],"name":"RoleRevoked","type":"event"},{"anonymous":false,"inputs":[{"indexed":true,"internalType":"uint256","name":"triggerId","type":"uint256"},{"indexed":true,"internalType":"address","name":"user","type":"address"}],"name":"TriggerCancelled","type":"event"},{"anonymous":false,"inputs":[{"indexed":true,"internalType":"uint256","name":"triggerId","type":"uint256"},{"indexed":true,"internalType":"address","name":"user","type":"address"},{"indexed":false,"internalType":"string","name":"watchAsset","type":"string"},{"indexed":false,"internalType":"uint256","name":"targetPrice","type":"uint256"},{"indexed":false,"internalType":"bool","name":"isAbove","type":"bool"},{"indexed":false,"internalType":"string","name":"tradeAsset","type":"string"},{"indexed":false,"internalType":"bool","name":"isBuy","type":"bool"},{"indexed":false,"internalType":"uint256","name":"amount","type":"uint256"}],"name":"TriggerCreated","type":"event"},{"anonymous":false,"inputs":[{"indexed":true,"internalType":"uint256","name":"triggerId","type":"uint256"},{"indexed":true,"internalType":"address","name":"executor","type":"address"},{"indexed":false,"internalType":"uint256","name":"executionPrice","type":"uint256"},{"indexed":false,"internalType":"bytes32","name":"executionTxHash","type":"bytes32"}],"name":"TriggerExecuted","type":"event"},{"anonymous":false,"inputs":[{"indexed":true,"internalType":"uint256","name":"triggerId","type":"uint256"}],"name":"TriggerExpired","type":"event"},{"anonymous":false,"inputs":[{"indexed":true,"internalType":"uint256","name":"triggerId","type":"uint256"},{"indexed":false,"internalType":"string","name":"reason","type":"string"}],"name":"TriggerFailed","type":"event"},{"anonymous":false,"inputs":[{"indexed":false,"internalType":"address","name":"account","type":"address"}],"name":"Unpaused","type":"event"},{"inputs":[],"name":"DEFAULT_ADMIN_ROLE","outputs":[{"internalType":"bytes32","name":"","type":"bytes32"}],"stateMutability":"view","type":"function"},{"inputs":[],"name":"EXECUTOR_ROLE","outputs":[{"internalType":"bytes32","name":"","type":"bytes32"}],"stateMutability":"view","type":"function"},{"inputs":[],"name":"MAX_TRIGGER_DURATION","outputs":[{"internalType":"uint256","name":"","type":"uint256"}],"stateMutability":"view","type":"function"},{"inputs":[],"name":"MIN_TRIGGER_DURATION","outputs":[{"internalType":"uint256","name":"","type":"uint256"}],"stateMutability":"view","type":"function"},{"inputs":[],"name":"activeTriggerCount","outputs":[{"internalType":"uint256","name":"","type":"uint256"}],"stateMutability":"view","type":"function"},{"inputs":[{"internalType":"uint256","name":"triggerId","type":"uint256"}],"name":"cancelTrigger","outputs":[],"stateMutability":"nonpayable","type":"function"},{"inputs":[{"internalType":"uint256","name":"triggerId","type":"uint256"},{"internalType":"uint256","name":"currentPrice","type":"uint256"}],"name":"checkTrigger","outputs":[{"internalType":"bool","name":"shouldExecute","type":"bool"},{"internalType":"string","name":"reason","type":"string"}],"stateMutability":"view","type":"function"},{"inputs":[{"internalType":"string","name":"watchAsset","type":"string"},{"internalType":"uint256","name":"targetPrice","type":"uint256"},{"internalType":"bool","name":"isAbove","type":"bool"},{"internalType":"string","name":"tradeAsset","type":"string"},{"internalType":"bool","name":"isBuy","type":"bool"},{"internalType":"uint256","name":"amount","type":"uint256"},{"internalType":"uint256","name":"maxSlippage","type":"uint256"},{"internalType":"uint256","name":"durationHours","type":"uint256"}],"name":"createTrigger","outputs":[{"internalType":"uint256","name":"triggerId","type":"uint256"}],"stateMutability":"payable","type":"function"},{"inputs":[],"name":"getActiveTriggerCount","outputs":[{"internalType":"uint256","name":"","type":"uint256"}],"stateMutability":"view","type":"function"},{"inputs":[{"internalType":"bytes32","name":"role","type":"bytes32"}],"name":"getRoleAdmin","outputs":[{"internalType":"bytes32","name":"","type":"bytes32"}],"stateMutability":"view","type":"function"},{"inputs":[{"internalType":"uint256","name":"triggerId","type":"uint256"}],"name":"getTrigger","outputs":[{"components":[{"internalType":"uint256","name":"id","type":"uint256"},{"internalType":"address","name":"user","type":"address"},{"internalType":"string","name":"watchAsset","type":"string"},{"internalType":"uint256","name":"targetPrice","type":"uint256"},{"internalType":"bool","name":"isAbove","type":"bool"},{"internalType":"string","name":"tradeAsset","type":"string"},{"internalType":"bool","name":"isBuy","type":"bool"},{"internalType":"uint256","name":"amount","type":"uint256"},{"internalType":"uint256","name":"maxSlippage","type":"uint256"},{"internalType":"uint256","name":"createdAt","type":"uint256"},{"internalType":"uint256","name":"expiresAt","type":"uint256"},{"internalType":"enum TriggerContract.TriggerStatus","name":"status","type":"uint8"},{"internalType":"uint256","name":"feePaid","type":"uint256"},{"internalType":"uint256","name":"executedAt","type":"uint256"},{"internalType":"uint256","name":"executionPrice","type":"uint256"},{"internalType":"bytes32","name":"executionTxHash","type":"bytes32"}],"internalType":"struct TriggerContract.Trigger","name":"","type":"tuple"}],"stateMutability":"view","type":"function"},{"inputs":[{"internalType":"address","name":"user","type":"address"}],"name":"getUserActiveTriggers","outputs":[{"components":[{"internalType":"uint256","name":"id","type":"uint256"},{"internalType":"address","name":"user","type":"address"},{"internalType":"string","name":"watchAsset","type":"string"},{"internalType":"uint256","name":"targetPrice","type":"uint256"},{"internalType":"bool","name":"isAbove","type":"bool"},{"internalType":"string","name":"tradeAsset","type":"string"},{"internalType":"bool","name":"isBuy","type":"bool"},{"internalType":"uint256","name":"amount","type":"uint256"},{"internalType":"uint256","name":"maxSlippage","type":"uint256"},{"internalType":"uint256","name":"createdAt","type":"uint256"},{"internalType":"uint256","name":"expiresAt","type":"uint256"},{"internalType":"enum TriggerContract.TriggerStatus","name":"status","type":"uint8"},{"internalType":"uint256","name":"feePaid","type":"uint256"},{"internalType":"uint256","name":"executedAt","type":"uint256"},{"internalType":"uint256","name":"executionPrice","type":"uint256"},{"internalType":"bytes32","name":"executionTxHash","type":"bytes32"}],"internalType":"struct TriggerContract.Trigger[]","name":"","type":"tuple[]"}],"stateMutability":"view","type":"function"},{"inputs":[{"internalType":"address","name":"user","type":"address"}],"name":"getUserTriggers","outputs":[{"internalType":"uint256[]","name":"","type":"uint256[]"}],"stateMutability":"view","type":"function"},{"inputs":[{"internalType":"bytes32","name":"role","type":"bytes32"},{"internalType":"address","name":"account","type":"address"}],"name":"grantRole","outputs":[],"stateMutability":"nonpayable","type":"function"},{"inputs":[{"internalType":"bytes32","name":"role","type":"bytes32"},{"internalType":"address","name":"account","type":"address"}],"name":"hasRole","outputs":[{"internalType":"bool","name":"","type":"bool"}],"stateMutability":"view","type":"function"},{"inputs":[{"internalType":"uint256","name":"triggerId","type":"uint256"},{"internalType":"uint256","name":"executionPrice","type":"uint256"},{"internalType":"bytes32","name":"executionTxHash","type":"bytes32"}],"name":"markExecuted","outputs":[],"stateMutability":"nonpayable","type":"function"},{"inputs":[{"internalType":"uint256[]","name":"triggerIds","type":"uint256[]"}],"name":"markExpired","outputs":[],"stateMutability":"nonpayable","type":"function"},{"inputs":[{"internalType":"uint256","name":"triggerId","type":"uint256"},{"internalType":"string","name":"reason","type":"string"}],"name":"markFailed","outputs":[],"stateMutability":"nonpayable","type":"function"},{"inputs":[],"name":"nextTriggerId","outputs":[{"internalType":"uint256","name":"","type":"uint256"}],"stateMutability":"view","type":"function"},{"inputs":[],"name":"pause","outputs":[],"stateMutability":"nonpayable","type":"function"},{"inputs":[],"name":"paused","outputs":[{"internalType":"bool","name":"","type":"bool"}],"stateMutability":"view","type":"function"},{"inputs":[{"internalType":"bytes32","name":"role","type":"bytes32"},{"internalType":"address","name":"callerConfirmation","type":"address"}],"name":"renounceRole","outputs":[],"stateMutability":"nonpayable","type":"function"},{"inputs":[{"internalType":"bytes32","name":"role","type":"bytes32"},{"internalType":"address","name":"account","type":"address"}],"name":"revokeRole","outputs":[],"stateMutability":"nonpayable","type":"function"},{"inputs":[{"internalType":"bytes4","name":"interfaceId","type":"bytes4"}],"name":"supportsInterface","outputs":[{"internalType":"bool","name":"","type":"bool"}],"stateMutability":"view","type":"function"},{"inputs":[],"name":"triggerFee","outputs":[{"internalType":"uint256","name":"","type":"uint256"}],"stateMutability":"view","type":"function"},{"inputs":[{"internalType":"uint256","name":"","type":"uint256"}],"name":"triggers","outputs":[{"internalType":"uint256","name":"id","type":"uint256"},{"internalType":"address","name":"user","type":"address"},{"internalType":"string","name":"watchAsset","type":"string"},{"internalType":"uint256","name":"targetPrice","type":"uint256"},{"internalType":"bool","name":"isAbove","type":"bool"},{"internalType":"string","name":"tradeAsset","type":"string"},{"internalType":"bool","name":"isBuy","type":"bool"},{"internalType":"uint256","name":"amount","type":"uint256"},{"internalType":"uint256","name":"maxSlippage","type":"uint256"},{"internalType":"uint256","name":"createdAt","type":"uint256"},{"internalType":"uint256","name":"expiresAt","type":"uint256"},{"internalType":"enum TriggerContract.TriggerStatus","name":"status","type":"uint8"},{"internalType":"uint256","name":"feePaid","type":"uint256"},{"internalType":"uint256","name":"executedAt","type":"uint256"},{"internalType":"uint256","name":"executionPrice","type":"uint256"},{"internalType":"bytes32","name":"executionTxHash","type":"bytes32"}],"stateMutability":"view","type":"function"},{"inputs":[],"name":"unpause","outputs":[],"stateMutability":"nonpayable","type":"function"},{"inputs":[{"internalType":"uint256","name":"newFee","type":"uint256"}],"name":"updateTriggerFee","outputs":[],"stateMutability":"nonpayable","type":"function"},{"inputs":[{"internalType":"address","name":"","type":"address"},{"internalType":"uint256","name":"","type":"uint256"}],"name":"userTriggers","outputs":[{"internalType":"uint256","name":"","type":"uint256"}],"stateMutability":"view","type":"function"},{"inputs":[],"name":"withdrawFees","outputs":[],"stateMutability":"nonpayable","type":"function"},{"stateMutability":"payable","type":"receive"}],"evm":{"bytecode":{"linkReferences":{},"object":"6080604052346200004757600160025566038d7ea4c6800060035560016006556200002a336200004c565b506200003633620000cc565b50604051611f8990816200016f8239f35b600080fd5b6001600160a01b031660008181527fad3228b676f7d3cd4284a5443f17f1962b36e491b30a40b2405849e597ba5fb5602052604081205490919060ff16620000c857818052816020526040822081835260205260408220600160ff198254161790553391600080516020620020f88339815191528180a4600190565b5090565b6001600160a01b031660008181527fdae2aa361dfd1ca020a396615627d436107c35eff9fe7738a3512819782d706960205260408120549091907fd8aa0f3194971a2a116679f7c2090f6939c8d4e01a2a8d7e41d55e5351469e639060ff166200016957808352826020526040832082845260205260408320600160ff19825416179055600080516020620020f8833981519152339380a4600190565b50509056fe60a080604052600436101561001d575b50361561001b57600080fd5b005b60003560e01c90816301ffc9a71461161b5750806307bd0265146115e057806313ae981b146115c3578063248a9ca3146115945780632f2ff15d1461155557806336568abe1461150e5780633940fda4146114505780633f4ba83a146113e657806342227fa4146113c8578063476343ee1461131b5780634e712fb8146112bf5780634efc9c85146112dd5780635a487ef6146112bf5780635c975abb1461129c5780635f33092914610ad6578063681475e8146109b557806371876a16146109015780638456cb59146108a857806386b9d16e146107fc57806391d14854146107af5780639c50472b14610762578063a217fddf14610746578063a3498325146106ee578063a78dd42e146105a2578063aefed8ff14610393578063b71e83c414610347578063d45ddd9c146101f4578063d547741f146101b5578063f6837157146101975763ffd581b614610174573861000f565b3461019257600036600319011261019257602060405162278d008152f35b600080fd5b34610192576000366003190112610192576020600354604051908152f35b346101925760403660031901126101925761001b6004356101d461166e565b908060005260006020526101ef600160406000200154611a06565b611aaa565b3461019257602036600319011261019257600435610210611bc0565b600081815260046020526040902060018101546001600160a01b0316330361030e57600b810180549160ff831660058110156102f857600291610255600c9215611be1565b01549260ff191617905561026a600754611c22565b600755806102a2575b5033907f71b273ecdaf2f86cf04941c16ff6f1eae913cbfbeef44422d9c1c39847854d13600080a36001600255005b600080808093335af16102b3611c2f565b50156102bf5781610273565b60405162461bcd60e51b8152602060048201526011602482015270119959481c99599d5b990819985a5b1959607a1b6044820152606490fd5b634e487b7160e01b600052602160045260246000fd5b60405162461bcd60e51b81526020600482015260116024820152702737ba103a3934b3b3b2b91037bbb732b960791b6044820152606490fd5b34610192576020366003190112610192577f8c4d35e54a3f2ef1134138fd8ea3daee6a3c89e10d2665996babdf70261e2c7660206004356103866119cc565b80600355604051908152a1005b3461019257602080600319360112610192576001600160a01b036103b5611684565b16600052600590818152604060002090604051808383829554938481520190600052836000209260005b8582821061058c575050506103f69250038361188a565b60009060005b83518110156104545761040f8185611f27565b516000526004825260ff600b6040600020015416858110156102f8571561043f575b61043a90611b1f565b6103fc565b9161044c61043a91611b1f565b929050610431565b5092919061046181611f3b565b9061046f604051928361188a565b80825261047e601f1991611f3b565b018460005b8281106105765750505060009060005b835181101561051a576104a68185611f27565b516000526004865260ff600b604060002001541690858210156102f8576104d191156104d657611b1f565b610493565b6104e08186611f27565b51600052600487526105146040600020946105036104fd82611b1f565b96611e45565b61050d8287611f27565b5284611f27565b50611b1f565b60408051878152835181890181905260009281891b8301810191868b01918b9085015b82871061054a5785850386f35b909192938280610566600193603f198a82030186528851611715565b960192019601959291909261053d565b61057e611dcd565b828286010152018590610483565b85548452600195860195889550930192016103df565b346101925760203660031901126101925760048035600090815260209190915260409020805460018201546001600160a01b0316916105e3600282016118ac565b92600382015493600483015460ff16600584016105ff906118ac565b95600685015460ff16966007860154600887015490600988015492600a89015494600b8a015460ff1696600c8b015498600d8c01549a600e8d01549c600f01549d604051806080525260805160200152610200806080516040015260805101610667916116c8565b91608051606001521515608051608001526080518082039060a0015261068c916116c8565b99151560805160c0015260805160e00152608051610100015260805161012001526080516101400152608051610160016106c591611708565b60805161018001526080516101a001526080516101c001526080516101e0015260805180910390f35b3461019257604036600319011261019257610707611684565b6001600160a01b031660009081526005602052604090208054602435919082101561019257602091610738916117e9565b90546040519160031b1c8152f35b3461019257600036600319011261019257602060405160008152f35b346101925760203660031901126101925761077b611dcd565b5060043560005260046020526107ab6107976040600020611e45565b604051918291602083526020830190611715565b0390f35b34610192576040366003190112610192576107c861166e565b600435600052600060205260406000209060018060a01b0316600052602052602060ff604060002054166040519015158152f35b346101925760603660031901126101925760243560043560443561081e611952565b8160005260046020526040600020600b81019081549060ff82169260058410156102f8576001600f93610852879615611be1565b60ff191617905542600d82015585600e8201550155610872600754611c22565b60075560405192835260208301527ff88d635c6c9dd6ccf33792822b70c3b41dc8cf753aa4ef23ef86461731d31a7560403393a3005b34610192576000366003190112610192576108c16119cc565b6108c9611ba2565b600160ff19815416176001557f62e78cea01bee320cd4e420270b5ea74000d11b0c9f74754ebdbfc544b05a2586020604051338152a1005b3461019257602080600319360112610192576001600160a01b03610923611684565b1660005260058152604060002060405190818382549182815201908192600052846000209060005b868282106109a15786866109618288038361188a565b604051928392818401908285525180915260408401929160005b82811061098a57505050500390f35b83518552869550938101939281019260010161097b565b83548552909301926001928301920161094b565b34610192576020806003193601126101925767ffffffffffffffff906004358281116101925736602382011215610192578060040135928311610192576024908181019060059083369187841b0101116101925760005b858110610a1557005b610a20818785611dbd565b35600052600485526040600020600b81019081549060ff821685811015610ac15790610a5e94939291159081610ab3575b50610a63575b5050611b1f565b610a0c565b60ff1916600317905560078054610a7990611c22565b9055610a86818886611dbd565b357f74bc747684c4bbf3e0b059e4c600406a6de5ae015fd108b0e5b0b98e71802fe5600080a28780610a57565b600a9150015442118a610a51565b87634e487b7160e01b60005260216004526000fd5b6101003660031901126101925760043567ffffffffffffffff811161019257610b0390369060040161169a565b6044359081151582036101925760643567ffffffffffffffff811161019257610b3090369060040161169a565b909360843592831515840361019257610b47611ba2565b610b4f611bc0565b801561126057821561122457602435156111df5760a435156111a55761138860c4351161116857600160e4351061112e576102d060e435116110f55760035434106110b05760065494610ba186611b1f565b600655610e108060e435029060e43582041460e43515171561109a57804201421161109a5760405190610bd382611851565b878252336020830152610be7368587611b4a565b604083015260243560608301528215156080830152610c0736878b611b4a565b60a083015286151560c083015260a43560e083015260c43561010083015242610120830152420161014082015260006101608201523461018082015260006101a082015260006101c082015260006101e0820152866000526004602052604060002090805182556001820160018060a01b036020830151166bffffffffffffffffffffffff60a01b825416179055604081015180519067ffffffffffffffff8211610ee4578190610cbb6002860154611817565b601f8111611047575b50602090601f8311600114610fd557600092610fca575b50508160011b916000199060031b1c19161760028301555b60608101516003830155610d1c60808201511515600484019060ff801983541691151516179055565b60a081015180519067ffffffffffffffff8211610ee4578190610d426005860154611817565b601f8111610f77575b50602090601f8311600114610f0557600092610efa575b50508160011b916000199060031b1c19161760058301555b610d9960c08201511515600684019060ff801983541691151516179055565b60e0810151600783015561010081015160088301556101208101516009830155610140810151600a83015561016081015160058110156102f857600f916101e091600b85019060ff80198354169116179055610180810151600c8501556101a0810151600d8501556101c0810151600e850155015191015533600052600560205260406000209081549468010000000000000000861015610ee457602098610ea57fea8640de2f174f1fa43c2fa556863133caabcfbbb2e37626b2a0239f4f84b00696610e7089610ec19760018e9c0181556117e9565b81549060031b908b821b91600019901b1916179055610e90600754611b1f565b6007556040519660c0885260c0880191611b81565b926024358b870152151560408601528483036060860152611b81565b931515608082015260a43560a08201528033940390a36001600255604051908152f35b634e487b7160e01b600052604160045260246000fd5b015190508b80610d62565b9250600585016000526020600020906000935b601f1984168510610f5c576001945083601f19811610610f43575b505050811b016005830155610d7a565b015160001960f88460031b161c191690558b8080610f33565b81810151835560209485019460019093019290910190610f18565b909150600585016000526020600020601f840160051c810160208510610fc3575b90849392915b601f830160051c82018110610fb4575050610d4b565b60008155859450600101610f9e565b5080610f98565b015190508b80610cdb565b9250600285016000526020600020906000935b601f198416851061102c576001945083601f19811610611013575b505050811b016002830155610cf3565b015160001960f88460031b161c191690558b8080611003565b81810151835560209485019460019093019290910190610fe8565b909150600285016000526020600020601f840160051c810160208510611093575b90849392915b601f830160051c82018110611084575050610cc4565b6000815585945060010161106e565b5080611068565b634e487b7160e01b600052601160045260246000fd5b60405162461bcd60e51b815260206004820152601860248201527f496e73756666696369656e7420747269676765722066656500000000000000006044820152606490fd5b60405162461bcd60e51b81526020600482015260116024820152704475726174696f6e20746f6f206c6f6e6760781b6044820152606490fd5b60405162461bcd60e51b8152602060048201526012602482015271111d5c985d1a5bdb881d1bdbc81cda1bdc9d60721b6044820152606490fd5b60405162461bcd60e51b815260206004820152601560248201527409ac2f040e6d8d2e0e0c2ceca40e8dede40d0d2ced605b1b6044820152606490fd5b60405162461bcd60e51b81526020600482015260126024820152710416d6f756e74206d757374206265203e20360741b6044820152606490fd5b60405162461bcd60e51b815260206004820152601860248201527f546172676574207072696365206d757374206265203e203000000000000000006044820152606490fd5b60405162461bcd60e51b8152602060048201526014602482015273151c98591948185cdcd95d081c995c5d5a5c995960621b6044820152606490fd5b60405162461bcd60e51b815260206004820152601460248201527315d85d18da08185cdcd95d081c995c5d5a5c995960621b6044820152606490fd5b3461019257600036600319011261019257602060ff600154166040519015158152f35b34610192576000366003190112610192576020600754604051908152f35b34610192576040366003190112610192576112fc602435600435611c5f565b906107ab604051928392151583526040602084015260408301906116c8565b34610192576000366003190112610192576113346119cc565b47801561138d57600080808093335af161134c611c2f565b501561135457005b60405162461bcd60e51b815260206004820152601160248201527015da5d1a191c985dd85b0819985a5b1959607a1b6044820152606490fd5b60405162461bcd60e51b81526020600482015260136024820152724e6f206665657320746f20776974686472617760681b6044820152606490fd5b34610192576000366003190112610192576020600654604051908152f35b34610192576000366003190112610192576113ff6119cc565b60015460ff81161561143e5760ff19166001557f5db9ee0a495bf2e6ff9c91a7834c1ba4fdd244a5e8aa4e537bd38aeae4b073aa6020604051338152a1005b604051638dfc202b60e01b8152600490fd5b346101925760403660031901126101925760043560243567ffffffffffffffff81116101925761148490369060040161169a565b9061148d611952565b826000526004602052600b6040600020019182549260ff841660058110156102f8577f1322c62b2b0266a20579a26b0ddfcf33e8b042d86ceb5fae7b05362ea44afa03946114dd60049215611be1565b60ff19161790556114ef600754611c22565b600755611509604051928392602084526020840191611b81565b0390a2005b346101925760403660031901126101925761152761166e565b336001600160a01b038216036115435761001b90600435611aaa565b60405163334bd91960e11b8152600490fd5b346101925760403660031901126101925761001b60043561157461166e565b9080600052600060205261158f600160406000200154611a06565b611a2c565b346101925760203660031901126101925760043560005260006020526020600160406000200154604051908152f35b34610192576000366003190112610192576020604051610e108152f35b346101925760003660031901126101925760206040517fd8aa0f3194971a2a116679f7c2090f6939c8d4e01a2a8d7e41d55e5351469e638152f35b34610192576020366003190112610192576004359063ffffffff60e01b821680920361019257602091637965db0b60e01b811490811561165d575b5015158152f35b6301ffc9a760e01b14905083611656565b602435906001600160a01b038216820361019257565b600435906001600160a01b038216820361019257565b9181601f840112156101925782359167ffffffffffffffff8311610192576020838186019501011161019257565b919082519283825260005b8481106116f4575050826000602080949584010152601f8019910116010190565b6020818301810151848301820152016116d3565b9060058210156102f85752565b908151815260018060a01b03602083015116602082015261177061174860408401516102008060408601528401906116c8565b6060840151606084015260808401511515608084015260a084015183820360a08501526116c8565b9160c0810151151560c083015260e081015160e08301526101008082015190830152610120808201519083015261014080820151908301526117bb6101608083015190840190611708565b61018080820151908301526101a080820151908301526101c080820151908301526101e08091015191015290565b80548210156118015760005260206000200190600090565b634e487b7160e01b600052603260045260246000fd5b90600182811c92168015611847575b602083101461183157565b634e487b7160e01b600052602260045260246000fd5b91607f1691611826565b610200810190811067ffffffffffffffff821117610ee457604052565b6040810190811067ffffffffffffffff821117610ee457604052565b90601f8019910116810190811067ffffffffffffffff821117610ee457604052565b90604051918260008254926118c084611817565b90818452600194858116908160001461192f57506001146118ec575b50506118ea9250038361188a565b565b9093915060005260209081600020936000915b8183106119175750506118ea935082010138806118dc565b855488840185015294850194879450918301916118ff565b9150506118ea94506020925060ff191682840152151560051b82010138806118dc565b3360009081527fdae2aa361dfd1ca020a396615627d436107c35eff9fe7738a3512819782d706960205260409020547fd8aa0f3194971a2a116679f7c2090f6939c8d4e01a2a8d7e41d55e5351469e639060ff16156119ae5750565b6044906040519063e2517d3f60e01b82523360048301526024820152fd5b3360009081527fad3228b676f7d3cd4284a5443f17f1962b36e491b30a40b2405849e597ba5fb5602052604081205460ff16156119ae5750565b80600052600060205260406000203360005260205260ff60406000205416156119ae5750565b9060009180835282602052604083209160018060a01b03169182845260205260ff60408420541615600014611aa557808352826020526040832082845260205260408320600160ff198254161790557f2f8788117e7eff1d82e926ec794901d17c78024a50270940304540a733656f0d339380a4600190565b505090565b9060009180835282602052604083209160018060a01b03169182845260205260ff604084205416600014611aa55780835282602052604083208284526020526040832060ff1981541690557ff6391f5c32d9c69d2a47ea670b442974b53935d1edc7fd64eb21e047a839171b339380a4600190565b600019811461109a5760010190565b67ffffffffffffffff8111610ee457601f01601f191660200190565b929192611b5682611b2e565b91611b64604051938461188a565b829481845281830111610192578281602093846000960137010152565b908060209392818452848401376000828201840152601f01601f1916010190565b60ff60015416611bae57565b60405163d93c066560e01b8152600490fd5b6002805414611bcf5760028055565b604051633ee5aeb560e01b8152600490fd5b15611be857565b60405162461bcd60e51b815260206004820152601260248201527154726967676572206e6f742061637469766560701b6044820152606490fd5b801561109a576000190190565b3d15611c5a573d90611c4082611b2e565b91611c4e604051938461188a565b82523d6000602084013e565b606090565b91909160009081526020906004825260409384822060ff600b820154166005811015611da957611d7a57600a8101544211611d4e578115611d24578060ff6004600393015416600014611d1b57015411155b15611ce357506f526561647920746f206578656375746560801b6001935191611cd98361186e565b6010835282015290565b7f507269636520636f6e646974696f6e206e6f74206d657400000000000000000090935191611d118361186e565b6017835282015290565b01541015611cb1565b50506c496e76616c696420707269636560981b90935191611d448361186e565b600d835282015290565b50506e151c9a59d9d95c88195e1c1a5c9959608a1b90935191611d708361186e565b600f835282015290565b50507154726967676572206e6f742061637469766560701b90935191611d9f8361186e565b6012835282015290565b634e487b7160e01b84526021600452602484fd5b91908110156118015760051b0190565b60405190611dda82611851565b816101e060009182815282602082015260606040820152826060820152826080820152606060a08201528260c08201528260e08201528261010082015282610120820152826101408201528261016082015282610180820152826101a0820152826101c08201520152565b90604051611e5281611851565b8254815260018301546001600160a01b03166020820152918290611e78600282016118ac565b60408301526003810154606083015260ff60048201541615156080830152611ea2600582016118ac565b60a083015260ff600682015416151560c0830152600781015460e083015260088101546101008301526009810154610120830152600a81015461014083015260ff600b8201541660058110156102f8576101e091600f91610160850152600c810154610180850152600d8101546101a0850152600e8101546101c08501520154910152565b80518210156118015760209160051b010190565b67ffffffffffffffff8111610ee45760051b6020019056fea2646970667358221220f096500c10b246dc76d6ab38c18159aab151e97dde3adc66cfcf28180298d82064736f6c634300081400332f8788117e7eff1d82e926ec794901d17c78024a50270940304540a733656f0d","opcodes":"PUSH1 0x80 PUSH1 0x40 MSTORE CALLVALUE PUSH3 0x47 JUMPI PUSH1 0x1 PUSH1 0x2 SSTORE PUSH7 0x38D7EA4C68000 PUSH1 0x3 SSTORE PUSH1 0x1 PUSH1 0x6 SSTORE PUSH3 0x2A CALLER PUSH3 0x4C JUMP JUMPDEST POP PUSH3 0x36 CALLER PUSH3 0xCC JUMP JUMPDEST POP PUSH1 0x40 MLOAD PUSH2 0x1F89 SWAP1 DUP2 PUSH3 0x16F DUP3 CODECOPY RETURN JUMPDEST PUSH1 0x0 DUP1 REVERT JUMPDEST PUSH1 0x1 PUSH1 0x1 PUSH1 0xA0 SHL SUB AND PUSH1 0x0 DUP2 DUP2 MSTORE PUSH32 0xAD3228B676F7D3CD4284A5443F17F1962B36E491B30A40B2405849E597BA5FB5 PUSH1 0x20 MSTORE PUSH1 0x40 DUP2 KECCAK256 SLOAD SWAP1 SWAP2 SWAP1 PUSH1 0xFF AND PUSH3 0xC8 JUMPI DUP2 DUP1 MSTORE DUP2 PUSH1 0x20 MSTORE PUSH1 0x40 DUP3 KECCAK256 DUP2 DUP4 MSTORE PUSH1 0x20 MSTORE PUSH1 0x40 DUP3 KECCAK256 PUSH1 0x1 PUSH1 0xFF NOT DUP3 SLOAD AND OR SWAP1 SSTORE CALLER SWAP2 PUSH1 0x0 DUP1 MLOAD PUSH1 0x20 PUSH3 0x20F8 DUP4 CODECOPY DUP2 MLOAD SWAP2 MSTORE DUP2 DUP1 LOG4 PUSH1 0x1 SWAP1 JUMP JUMPDEST POP SWAP1 JUMP JUMPDEST PUSH1 0x1 PUSH1 0x1 PUSH1 0xA0 SHL SUB AND PUSH1 0x0 DUP2 DUP2 MSTORE PUSH32 0xDAE2AA361DFD1CA020A396615627D436107C35EFF9FE7738A3512819782D7069 PUSH1 0x20 MSTORE PUSH1 0x40 DUP2 KECCAK256 SLOAD SWAP1 SWAP2 SWAP1 PUSH32 0xD8AA0F3194971A2A116679F7C2090F6939C8D4E01A2A8D7E41D55E5351469E63 SWAP1 PUSH1 0xFF AND PUSH3 0x169 JUMPI DUP1 DUP4 MSTORE DUP3 PUSH1 0x20 MSTORE PUSH1 0x40 DUP4 KECCAK256 DUP3 DUP5 MSTORE PUSH1 0x20 MSTORE PUSH1 0x40 DUP4 KECCAK256 PUSH1 0x1 PUSH1 0xFF NOT DUP3 SLOAD AND OR SWAP1 SSTORE PUSH1 0x0 DUP1 MLOAD PUSH1 0x20 PUSH3 0x20F8 DUP4 CODECOPY DUP2 MLOAD SWAP2 MSTORE CALLER SWAP4 DUP1 LOG4 PUSH1 0x1 SWAP1 JUMP JUMPDEST POP POP SWAP1 JUMP INVALID PUSH1 0xA0 DUP1 PUSH1 0x40 MSTORE PUSH1 0x4 CALLDATASIZE LT ISZERO PUSH2 0x1D JUMPI JUMPDEST POP CALLDATASIZE ISZERO PUSH2 0x1B JUMPI PUSH1 0x0 DUP1 REVERT JUMPDEST STOP JUMPDEST PUSH1 0x0 CALLDATALOAD PUSH1 0xE0 SHR SWAP1 DUP2 PUSH4 0x1FFC9A7 EQ PUSH2 0x161B JUMPI POP DUP1 PUSH4 0x7BD0265 EQ PUSH2 0x15E0 JUMPI DUP1 PUSH4 0x13AE981B EQ PUSH2 0x15C3 JUMPI DUP1 PUSH4 0x248A9CA3 EQ PUSH2 0x1594 JUMPI DUP1 PUSH4 0x2F2FF15D EQ PUSH2 0x1555 JUMPI DUP1 PUSH4 0x36568ABE EQ PUSH2 0x150E JUMPI DUP1 PUSH4 0x3940FDA4 EQ PUSH2 0x1450 JUMPI DUP1 PUSH4 0x3F4BA83A EQ PUSH2 0x13E6 JUMPI DUP1 PUSH4 0x42227FA4 EQ PUSH2 0x13C8 JUMPI DUP1 PUSH4 0x476343EE EQ PUSH2 0x131B JUMPI DUP1 PUSH4 0x4E712FB8 EQ PUSH2 0x12BF JUMPI DUP1 PUSH4 0x4EFC9C85 EQ PUSH2 0x12DD JUMPI DUP1 PUSH4 0x5A487EF6 EQ PUSH2 0x12BF JUMPI DUP1 PUSH4 0x5C975ABB EQ PUSH2 0x129C JUMPI DUP1 PUSH4 0x5F330929 EQ PUSH2 0xAD6 JUMPI DUP1 PUSH4 0x681475E8 EQ PUSH2 0x9B5 JUMPI DUP1 PUSH4 0x71876A16 EQ PUSH2 0x901 JUMPI DUP1 PUSH4 0x8456CB59 EQ PUSH2 0x8A8 JUMPI DUP1 PUSH4 0x86B9D16E EQ PUSH2 0x7FC JUMPI DUP1 PUSH4 0x91D14854 EQ PUSH2 0x7AF JUMPI DUP1 PUSH4 0x9C50472B EQ PUSH2 0x762 JUMPI DUP1 PUSH4 0xA217FDDF EQ PUSH2 0x746 JUMPI DUP1 PUSH4 0xA3498325 EQ PUSH2 0x6EE JUMPI DUP1 PUSH4 0xA78DD42E EQ PUSH2 0x5A2 JUMPI DUP1 PUSH4 0xAEFED8FF EQ PUSH2 0x393 JUMPI DUP1 PUSH4 0xB71E83C4 EQ PUSH2 0x347 JUMPI DUP1 PUSH4 0xD45DDD9C EQ PUSH2 0x1F4 JUMPI DUP1 PUSH4 0xD547741F EQ PUSH2 0x1B5 JUMPI DUP1 PUSH4 0xF6837157 EQ PUSH2 0x197 JUMPI PUSH4 0xFFD581B6 EQ PUSH2 0x174 JUMPI CODESIZE PUSH2 0xF JUMP JUMPDEST CALLVALUE PUSH2 0x192 JUMPI PUSH1 0x0 CALLDATASIZE PUSH1 0x3 NOT ADD SLT PUSH2 0x192 JUMPI PUSH1 0x20 PUSH1 0x40 MLOAD PUSH3 0x278D00 DUP2 MSTORE RETURN JUMPDEST PUSH1 0x0 DUP1 REVERT JUMPDEST CALLVALUE PUSH2 0x192 JUMPI PUSH1 0x0 CALLDATASIZE PUSH1 0x3 NOT ADD SLT PUSH2 0x192 JUMPI PUSH1 0x20 PUSH1 0x3 SLOAD PUSH1 0x40 MLOAD SWAP1 DUP2 MSTORE RETURN JUMPDEST CALLVALUE PUSH2 0x192 JUMPI PUSH1 0x40 CALLDATASIZE PUSH1 0x3 NOT ADD SLT PUSH2 0x192 JUMPI PUSH2 0x1B PUSH1 0x4 CALLDATALOAD PUSH2 0x1D4 PUSH2 0x166E JUMP JUMPDEST SWAP1 DUP1 PUSH1 0x0 MSTORE PUSH1 0x0 PUSH1 0x20 MSTORE PUSH2 0x1EF PUSH1 0x1 PUSH1 0x40 PUSH1 0x0 KECCAK256 ADD SLOAD PUSH2 0x1A06 JUMP JUMPDEST PUSH2 0x1AAA JUMP JUMPDEST CALLVALUE PUSH2 0x192 JUMPI PUSH1 0x20 CALLDATASIZE PUSH1 0x3 NOT ADD SLT PUSH2 0x192 JUMPI PUSH1 0x4 CALLDATALOAD PUSH2 0x210 PUSH2 0x1BC0 JUMP JUMPDEST PUSH1 0x0 DUP2 DUP2 MSTORE PUSH1 0x4 PUSH1 0x20 MSTORE PUSH1 0x40 SWAP1 KECCAK256 PUSH1 0x1 DUP2 ADD SLOAD PUSH1 0x1 PUSH1 0x1 PUSH1 0xA0 SHL SUB AND CALLER SUB PUSH2 0x30E JUMPI PUSH1 0xB DUP2 ADD DUP1 SLOAD SWAP2 PUSH1 0xFF DUP4 AND PUSH1 0x5 DUP2 LT ISZERO PUSH2 0x2F8 JUMPI PUSH1 0x2 SWAP2 PUSH2 0x255 PUSH1 0xC SWAP3 ISZERO PUSH2 0x1BE1 JUMP JUMPDEST ADD SLOAD SWAP3 PUSH1 0xFF NOT AND OR SWAP1 SSTORE PUSH2 0x26A PUSH1 0x7 SLOAD PUSH2 0x1C22 JUMP JUMPDEST PUSH1 0x7 SSTORE DUP1 PUSH2 0x2A2 JUMPI JUMPDEST POP CALLER SWAP1 PUSH32 0x71B273ECDAF2F86CF04941C16FF6F1EAE913CBFBEEF44422D9C1C39847854D13 PUSH1 0x0 DUP1 LOG3 PUSH1 0x1 PUSH1 0x2 SSTORE STOP JUMPDEST PUSH1 0x0 DUP1 DUP1 DUP1 SWAP4 CALLER GAS CALL PUSH2 0x2B3 PUSH2 0x1C2F JUMP JUMPDEST POP ISZERO PUSH2 0x2BF JUMPI DUP2 PUSH2 0x273 JUMP JUMPDEST PUSH1 0x40 MLOAD PUSH3 0x461BCD PUSH1 0xE5 SHL DUP2 MSTORE PUSH1 0x20 PUSH1 0x4 DUP3 ADD MSTORE PUSH1 0x11 PUSH1 0x24 DUP3 ADD MSTORE PUSH17 0x119959481C99599D5B990819985A5B1959 PUSH1 0x7A SHL PUSH1 0x44 DUP3 ADD MSTORE PUSH1 0x64 SWAP1 REVERT JUMPDEST PUSH4 0x4E487B71 PUSH1 0xE0 SHL PUSH1 0x0 MSTORE PUSH1 0x21 PUSH1 0x4 MSTORE PUSH1 0x24 PUSH1 0x0 REVERT JUMPDEST PUSH1 0x40 MLOAD PUSH3 0x461BCD PUSH1 0xE5 SHL DUP2 MSTORE PUSH1 0x20 PUSH1 0x4 DUP3 ADD MSTORE PUSH1 0x11 PUSH1 0x24 DUP3 ADD MSTORE PUSH17 0x2737BA103A3934B3B3B2B91037BBB732B9 PUSH1 0x79 SHL PUSH1 0x44 DUP3 ADD MSTORE PUSH1 0x64 SWAP1 REVERT JUMPDEST CALLVALUE PUSH2 0x192 JUMPI PUSH1 0x20 CALLDATASIZE PUSH1 0x3 NOT ADD SLT PUSH2 0x192 JUMPI PUSH32 0x8C4D35E54A3F2EF1134138FD8EA3DAEE6A3C89E10D2665996BABDF70261E2C76 PUSH1 0x20 PUSH1 0x4 CALLDATALOAD PUSH2 0x386 PUSH2 0x19CC JUMP JUMPDEST DUP1 PUSH1 0x3 SSTORE PUSH1 0x40 MLOAD SWAP1 DUP2 MSTORE LOG1 STOP JUMPDEST CALLVALUE PUSH2 0x192 JUMPI PUSH1 0x20 DUP1 PUSH1 0x3 NOT CALLDATASIZE ADD SLT PUSH2 0x192 JUMPI PUSH1 0x1 PUSH1 0x1 PUSH1 0xA0 SHL SUB PUSH2 0x3B5 PUSH2 0x1684 JUMP JUMPDEST AND PUSH1 0x0 MSTORE PUSH1 0x5 SWAP1 DUP2 DUP2 MSTORE PUSH1 0x40 PUSH1 0x0 KECCAK256 SWAP1 PUSH1 0x40 MLOAD DUP1 DUP4 DUP4 DUP3 SWAP6 SLOAD SWAP4 DUP5 DUP2 MSTORE ADD SWAP1 PUSH1 0x0 MSTORE DUP4 PUSH1 0x0 KECCAK256 SWAP3 PUSH1 0x0 JUMPDEST DUP6 DUP3 DUP3 LT PUSH2 0x58C JUMPI POP POP POP PUSH2 0x3F6 SWAP3 POP SUB DUP4 PUSH2 0x188A JUMP JUMPDEST PUSH1 0x0 SWAP1 PUSH1 0x0 JUMPDEST DUP4 MLOAD DUP2 LT ISZERO PUSH2 0x454 JUMPI PUSH2 0x40F DUP2 DUP6 PUSH2 0x1F27 JUMP JUMPDEST MLOAD PUSH1 0x0 MSTORE PUSH1 0x4 DUP3 MSTORE PUSH1 0xFF PUSH1 0xB PUSH1 0x40 PUSH1 0x0 KECCAK256 ADD SLOAD AND DUP6 DUP2 LT ISZERO PUSH2 0x2F8 JUMPI ISZERO PUSH2 0x43F JUMPI JUMPDEST PUSH2 0x43A SWAP1 PUSH2 0x1B1F JUMP JUMPDEST PUSH2 0x3FC JUMP JUMPDEST SWAP2 PUSH2 0x44C PUSH2 0x43A SWAP2 PUSH2 0x1B1F JUMP JUMPDEST SWAP3 SWAP1 POP PUSH2 0x431 JUMP JUMPDEST POP SWAP3 SWAP2 SWAP1 PUSH2 0x461 DUP2 PUSH2 0x1F3B JUMP JUMPDEST SWAP1 PUSH2 0x46F PUSH1 0x40 MLOAD SWAP3 DUP4 PUSH2 0x188A JUMP JUMPDEST DUP1 DUP3 MSTORE PUSH2 0x47E PUSH1 0x1F NOT SWAP2 PUSH2 0x1F3B JUMP JUMPDEST ADD DUP5 PUSH1 0x0 JUMPDEST DUP3 DUP2 LT PUSH2 0x576 JUMPI POP POP POP PUSH1 0x0 SWAP1 PUSH1 0x0 JUMPDEST DUP4 MLOAD DUP2 LT ISZERO PUSH2 0x51A JUMPI PUSH2 0x4A6 DUP2 DUP6 PUSH2 0x1F27 JUMP JUMPDEST MLOAD PUSH1 0x0 MSTORE PUSH1 0x4 DUP7 MSTORE PUSH1 0xFF PUSH1 0xB PUSH1 0x40 PUSH1 0x0 KECCAK256 ADD SLOAD AND SWAP1 DUP6 DUP3 LT ISZERO PUSH2 0x2F8 JUMPI PUSH2 0x4D1 SWAP2 ISZERO PUSH2 0x4D6 JUMPI PUSH2 0x1B1F JUMP JUMPDEST PUSH2 0x493 JUMP JUMPDEST PUSH2 0x4E0 DUP2 DUP7 PUSH2 0x1F27 JUMP JUMPDEST MLOAD PUSH1 0x0 MSTORE PUSH1 0x4 DUP8 MSTORE PUSH2 0x514 PUSH1 0x40 PUSH1 0x0 KECCAK256 SWAP5 PUSH2 0x503 PUSH2 0x4FD DUP3 PUSH2 0x1B1F JUMP JUMPDEST SWAP7 PUSH2 0x1E45 JUMP JUMPDEST PUSH2 0x50D DUP3 DUP8 PUSH2 0x1F27 JUMP JUMPDEST MSTORE DUP5 PUSH2 0x1F27 JUMP JUMPDEST POP PUSH2 0x1B1F JUMP JUMPDEST PUSH1 0x40 DUP1 MLOAD DUP8 DUP2 MSTORE DUP4 MLOAD DUP2 DUP10 ADD DUP2 SWAP1 MSTORE PUSH1 0x0 SWAP3 DUP2 DUP10 SHL DUP4 ADD DUP2 ADD SWAP2 DUP7 DUP12 ADD SWAP2 DUP12 SWAP1 DUP6 ADD JUMPDEST DUP3 DUP8 LT PUSH2 0x54A JUMPI DUP6 DUP6 SUB DUP7 RETURN JUMPDEST SWAP1 SWAP2 SWAP3 SWAP4 DUP3 DUP1 PUSH2 0x566 PUSH1 0x1 SWAP4 PUSH1 0x3F NOT DUP11 DUP3 SUB ADD DUP7 MSTORE DUP9 MLOAD PUSH2 0x1715 JUMP JUMPDEST SWAP7 ADD SWAP3 ADD SWAP7 ADD SWAP6 SWAP3 SWAP2 SWAP1 SWAP3 PUSH2 0x53D JUMP JUMPDEST PUSH2 0x57E PUSH2 0x1DCD JUMP JUMPDEST DUP3 DUP3 DUP7 ADD ADD MSTORE ADD DUP6 SWAP1 PUSH2 0x483 JUMP JUMPDEST DUP6 SLOAD DUP5 MSTORE PUSH1 0x1 SWAP6 DUP7 ADD SWAP6 DUP9 SWAP6 POP SWAP4 ADD SWAP3 ADD PUSH2 0x3DF JUMP JUMPDEST CALLVALUE PUSH2 0x192 JUMPI PUSH1 0x20 CALLDATASIZE PUSH1 0x3 NOT ADD SLT PUSH2 0x192 JUMPI PUSH1 0x4 DUP1 CALLDATALOAD PUSH1 0x0 SWAP1 DUP2 MSTORE PUSH1 0x20 SWAP2 SWAP1 SWAP2 MSTORE PUSH1 0x40 SWAP1 KECCAK256 DUP1 SLOAD PUSH1 0x1 DUP3 ADD SLOAD PUSH1 0x1 PUSH1 0x1 PUSH1 0xA0 SHL SUB AND SWAP2 PUSH2 0x5E3 PUSH1 0x2 DUP3 ADD PUSH2 0x18AC JUMP JUMPDEST SWAP3 PUSH1 0x3 DUP3 ADD SLOAD SWAP4 PUSH1 0x4 DUP4 ADD SLOAD PUSH1 0xFF AND PUSH1 0x5 DUP5 ADD PUSH2 0x5FF SWAP1 PUSH2 0x18AC JUMP JUMPDEST SWAP6 PUSH1 0x6 DUP6 ADD SLOAD PUSH1 0xFF AND SWAP7 PUSH1 0x7 DUP7 ADD SLOAD PUSH1 0x8 DUP8 ADD SLOAD SWAP1 PUSH1 0x9 DUP9 ADD SLOAD SWAP3 PUSH1 0xA DUP10 ADD SLOAD SWAP5 PUSH1 0xB DUP11 ADD SLOAD PUSH1 0xFF AND SWAP7 PUSH1 0xC DUP12 ADD SLOAD SWAP9 PUSH1 0xD DUP13 ADD SLOAD SWAP11 PUSH1 0xE DUP14 ADD SLOAD SWAP13 PUSH1 0xF ADD SLOAD SWAP14 PUSH1 0x40 MLOAD DUP1 PUSH1 0x80 MSTORE MSTORE PUSH1 0x80 MLOAD PUSH1 0x20 ADD MSTORE PUSH2 0x200 DUP1 PUSH1 0x80 MLOAD PUSH1 0x40 ADD MSTORE PUSH1 0x80 MLOAD ADD PUSH2 0x667 SWAP2 PUSH2 0x16C8 JUMP JUMPDEST SWAP2 PUSH1 0x80 MLOAD PUSH1 0x60 ADD MSTORE ISZERO ISZERO PUSH1 0x80 MLOAD PUSH1 0x80 ADD MSTORE PUSH1 0x80 MLOAD DUP1 DUP3 SUB SWAP1 PUSH1 0xA0 ADD MSTORE PUSH2 0x68C SWAP2 PUSH2 0x16C8 JUMP JUMPDEST SWAP10 ISZERO ISZERO PUSH1 0x80 MLOAD PUSH1 0xC0 ADD MSTORE PUSH1 0x80 MLOAD PUSH1 0xE0 ADD MSTORE PUSH1 0x80 MLOAD PUSH2 0x100 ADD MSTORE PUSH1 0x80 MLOAD PUSH2 0x120 ADD MSTORE PUSH1 0x80 MLOAD PUSH2 0x140 ADD MSTORE PUSH1 0x80 MLOAD PUSH2 0x160 ADD PUSH2 0x6C5 SWAP2 PUSH2 0x1708 JUMP JUMPDEST PUSH1 0x80 MLOAD PUSH2 0x180 ADD MSTORE PUSH1 0x80 MLOAD PUSH2 0x1A0 ADD MSTORE PUSH1 0x80 MLOAD PUSH2 0x1C0 ADD MSTORE PUSH1 0x80 MLOAD PUSH2 0x1E0 ADD MSTORE PUSH1 0x80 MLOAD DUP1 SWAP2 SUB SWAP1 RETURN JUMPDEST CALLVALUE PUSH2 0x192 JUMPI PUSH1 0x40 CALLDATASIZE PUSH1 0x3 NOT ADD SLT PUSH2 0x192 JUMPI PUSH2 0x707 PUSH2 0x1684 JUMP JUMPDEST PUSH1 0x1 PUSH1 0x1 PUSH1 0xA0 SHL SUB AND PUSH1 0x0 SWAP1 DUP2 MSTORE PUSH1 0x5 PUSH1 0x20 MSTORE PUSH1 0x40 SWAP1 KECCAK256 DUP1 SLOAD PUSH1 0x24 CALLDATALOAD SWAP2 SWAP1 DUP3 LT ISZERO PUSH2 0x192 JUMPI PUSH1 0x20 SWAP2 PUSH2 0x738 SWAP2 PUSH2 0x17E9 JUMP JUMPDEST SWAP1 SLOAD PUSH1 0x40 MLOAD SWAP2 PUSH1 0x3 SHL SHR DUP2 MSTORE RETURN JUMPDEST CALLVALUE PUSH2 0x192 JUMPI PUSH1 0x0 CALLDATASIZE PUSH1 0x3 NOT ADD SLT PUSH2 0x192 JUMPI PUSH1 0x20 PUSH1 0x40 MLOAD PUSH1 0x0 DUP2 MSTORE RETURN JUMPDEST CALLVALUE PUSH2 0x192 JUMPI PUSH1 0x20 CALLDATASIZE PUSH1 0x3 NOT ADD SLT PUSH2 0x192 JUMPI PUSH2 0x77B PUSH2 0x1DCD JUMP JUMPDEST POP PUSH1 0x4 CALLDATALOAD PUSH1 0x0 MSTORE PUSH1 0x4 PUSH1 0x20 MSTORE PUSH2 0x7AB PUSH2 0x797 PUSH1 0x40 PUSH1 0x0 KECCAK256 PUSH2 0x1E45 JUMP JUMPDEST PUSH1 0x40 MLOAD SWAP2 DUP3 SWAP2 PUSH1 0x20 DUP4 MSTORE PUSH1 0x20 DUP4 ADD SWAP1 PUSH2 0x1715 JUMP JUMPDEST SUB SWAP1 RETURN JUMPDEST CALLVALUE PUSH2 0x192 JUMPI PUSH1 0x40 CALLDATASIZE PUSH1 0x3 NOT ADD SLT PUSH2 0x192 JUMPI PUSH2 0x7C8 PUSH2 0x166E JUMP JUMPDEST PUSH1 0x4 CALLDATALOAD PUSH1 0x0 MSTORE PUSH1 0x0 PUSH1 0x20 MSTORE PUSH1 0x40 PUSH1 0x0 KECCAK256 SWAP1 PUSH1 0x1 DUP1 PUSH1 0xA0 SHL SUB AND PUSH1 0x0 MSTORE PUSH1 0x20 MSTORE PUSH1 0x20 PUSH1 0xFF PUSH1 0x40 PUSH1 0x0 KECCAK256 SLOAD AND PUSH1 0x40 MLOAD SWAP1 ISZERO ISZERO DUP2 MSTORE RETURN JUMPDEST CALLVALUE PUSH2 0x192 JUMPI PUSH1 0x60 CALLDATASIZE PUSH1 0x3 NOT ADD SLT PUSH2 0x192 JUMPI PUSH1 0x24 CALLDATALOAD PUSH1 0x4 CALLDATALOAD PUSH1 0x44 CALLDATALOAD PUSH2 0x81E PUSH2 0x1952 JUMP JUMPDEST DUP2 PUSH1 0x0 MSTORE PUSH1 0x4 PUSH1 0x20 MSTORE PUSH1 0x40 PUSH1 0x0 KECCAK256 PUSH1 0xB DUP2 ADD SWAP1 DUP2 SLOAD SWAP1 PUSH1 0xFF DUP3 AND SWAP3 PUSH1 0x5 DUP5 LT ISZERO PUSH2 0x2F8 JUMPI PUSH1 0x1 PUSH1 0xF SWAP4 PUSH2 0x852 DUP8 SWAP7 ISZERO PUSH2 0x1BE1 JUMP JUMPDEST PUSH1 0xFF NOT AND OR SWAP1 SSTORE TIMESTAMP PUSH1 0xD DUP3 ADD SSTORE DUP6 PUSH1 0xE DUP3 ADD SSTORE ADD SSTORE PUSH2 0x872 PUSH1 0x7 SLOAD PUSH2 0x1C22 JUMP JUMPDEST PUSH1 0x7 SSTORE PUSH1 0x40 MLOAD SWAP3 DUP4 MSTORE PUSH1 0x20 DUP4 ADD MSTORE PUSH32 0xF88D635C6C9DD6CCF33792822B70C3B41DC8CF753AA4EF23EF86461731D31A75 PUSH1 0x40 CALLER SWAP4 LOG3 STOP JUMPDEST CALLVALUE PUSH2 0x192 JUMPI PUSH1 0x0 CALLDATASIZE PUSH1 0x3 NOT ADD SLT PUSH2 0x192 JUMPI PUSH2 0x8C1 PUSH2 0x19CC JUMP JUMPDEST PUSH2 0x8C9 PUSH2 0x1BA2 JUMP JUMPDEST PUSH1 0x1 PUSH1 0xFF NOT DUP2 SLOAD AND OR PUSH1 0x1 SSTORE PUSH32 0x62E78CEA01BEE320CD4E420270B5EA74000D11B0C9F74754EBDBFC544B05A258 PUSH1 0x20 PUSH1 0x40 MLOAD CALLER DUP2 MSTORE LOG1 STOP JUMPDEST CALLVALUE PUSH2 0x192 JUMPI PUSH1 0x20 DUP1 PUSH1 0x3 NOT CALLDATASIZE ADD SLT PUSH2 0x192 JUMPI PUSH1 0x1 PUSH1 0x1 PUSH1 0xA0 SHL SUB PUSH2 0x923 PUSH2 0x1684 JUMP JUMPDEST AND PUSH1 0x0 MSTORE PUSH1 0x5 DUP2 MSTORE PUSH1 0x40 PUSH1 0x0 KECCAK256 PUSH1 0x40 MLOAD SWAP1 DUP2 DUP4 DUP3 SLOAD SWAP2 DUP3 DUP2 MSTORE ADD SWAP1 DUP2 SWAP3 PUSH1 0x0 MSTORE DUP5 PUSH1 0x0 KECCAK256 SWAP1 PUSH1 0x0 JUMPDEST DUP7 DUP3 DUP3 LT PUSH2 0x9A1 JUMPI DUP7 DUP7 PUSH2 0x961 DUP3 DUP9 SUB DUP4 PUSH2 0x188A JUMP JUMPDEST PUSH1 0x40 MLOAD SWAP3 DUP4 SWAP3 DUP2 DUP5 ADD SWAP1 DUP3 DUP6 MSTORE MLOAD DUP1 SWAP2 MSTORE PUSH1 0x40 DUP5 ADD SWAP3 SWAP2 PUSH1 0x0 JUMPDEST DUP3 DUP2 LT PUSH2 0x98A JUMPI POP POP POP POP SUB SWAP1 RETURN JUMPDEST DUP4 MLOAD DUP6 MSTORE DUP7 SWAP6 POP SWAP4 DUP2 ADD SWAP4 SWAP3 DUP2 ADD SWAP3 PUSH1 0x1 ADD PUSH2 0x97B JUMP JUMPDEST DUP4 SLOAD DUP6 MSTORE SWAP1 SWAP4 ADD SWAP3 PUSH1 0x1 SWAP3 DUP4 ADD SWAP3 ADD PUSH2 0x94B JUMP JUMPDEST CALLVALUE PUSH2 0x192 JUMPI PUSH1 0x20 DUP1 PUSH1 0x3 NOT CALLDATASIZE ADD SLT PUSH2 0x192 JUMPI PUSH8 0xFFFFFFFFFFFFFFFF SWAP1 PUSH1 0x4 CALLDATALOAD DUP3 DUP2 GT PUSH2 0x192 JUMPI CALLDATASIZE PUSH1 0x23 DUP3 ADD SLT ISZERO PUSH2 0x192 JUMPI DUP1 PUSH1 0x4 ADD CALLDATALOAD SWAP3 DUP4 GT PUSH2 0x192 JUMPI PUSH1 0x24 SWAP1 DUP2 DUP2 ADD SWAP1 PUSH1 0x5 SWAP1 DUP4 CALLDATASIZE SWAP2 DUP8 DUP5 SHL ADD ADD GT PUSH2 0x192 JUMPI PUSH1 0x0 JUMPDEST DUP6 DUP2 LT PUSH2 0xA15 JUMPI STOP JUMPDEST PUSH2 0xA20 DUP2 DUP8 DUP6 PUSH2 0x1DBD JUMP JUMPDEST CALLDATALOAD PUSH1 0x0 MSTORE PUSH1 0x4 DUP6 MSTORE PUSH1 0x40 PUSH1 0x0 KECCAK256 PUSH1 0xB DUP2 ADD SWAP1 DUP2 SLOAD SWAP1 PUSH1 0xFF DUP3 AND DUP6 DUP2 LT ISZERO PUSH2 0xAC1 JUMPI SWAP1 PUSH2 0xA5E SWAP5 SWAP4 SWAP3 SWAP2 ISZERO SWAP1 DUP2 PUSH2 0xAB3 JUMPI JUMPDEST POP PUSH2 0xA63 JUMPI JUMPDEST POP POP PUSH2 0x1B1F JUMP JUMPDEST PUSH2 0xA0C JUMP JUMPDEST PUSH1 0xFF NOT AND PUSH1 0x3 OR SWAP1 SSTORE PUSH1 0x7 DUP1 SLOAD PUSH2 0xA79 SWAP1 PUSH2 0x1C22 JUMP JUMPDEST SWAP1 SSTORE PUSH2 0xA86 DUP2 DUP9 DUP7 PUSH2 0x1DBD JUMP JUMPDEST CALLDATALOAD PUSH32 0x74BC747684C4BBF3E0B059E4C600406A6DE5AE015FD108B0E5B0B98E71802FE5 PUSH1 0x0 DUP1 LOG2 DUP8 DUP1 PUSH2 0xA57 JUMP JUMPDEST PUSH1 0xA SWAP2 POP ADD SLOAD TIMESTAMP GT DUP11 PUSH2 0xA51 JUMP JUMPDEST DUP8 PUSH4 0x4E487B71 PUSH1 0xE0 SHL PUSH1 0x0 MSTORE PUSH1 0x21 PUSH1 0x4 MSTORE PUSH1 0x0 REVERT JUMPDEST PUSH2 0x100 CALLDATASIZE PUSH1 0x3 NOT ADD SLT PUSH2 0x192 JUMPI PUSH1 0x4 CALLDATALOAD PUSH8 0xFFFFFFFFFFFFFFFF DUP2 GT PUSH2 0x192 JUMPI PUSH2 0xB03 SWAP1 CALLDATASIZE SWAP1 PUSH1 0x4 ADD PUSH2 0x169A JUMP JUMPDEST PUSH1 0x44 CALLDATALOAD SWAP1 DUP2 ISZERO ISZERO DUP3 SUB PUSH2 0x192 JUMPI PUSH1 0x64 CALLDATALOAD PUSH8 0xFFFFFFFFFFFFFFFF DUP2 GT PUSH2 0x192 JUMPI PUSH2 0xB30 SWAP1 CALLDATASIZE SWAP1 PUSH1 0x4 ADD PUSH2 0x169A JUMP JUMPDEST SWAP1 SWAP4 PUSH1 0x84 CALLDATALOAD SWAP3 DUP4 ISZERO ISZERO DUP5 SUB PUSH2 0x192 JUMPI PUSH2 0xB47 PUSH2 0x1BA2 JUMP JUMPDEST PUSH2 0xB4F PUSH2 0x1BC0 JUMP JUMPDEST DUP1 ISZERO PUSH2 0x1260 JUMPI DUP3 ISZERO PUSH2 0x1224 JUMPI PUSH1 0x24 CALLDATALOAD ISZERO PUSH2 0x11DF JUMPI PUSH1 0xA4 CALLDATALOAD ISZERO PUSH2 0x11A5 JUMPI PUSH2 0x1388 PUSH1 0xC4 CALLDATALOAD GT PUSH2 0x1168 JUMPI PUSH1 0x1 PUSH1 0xE4 CALLDATALOAD LT PUSH2 0x112E JUMPI PUSH2 0x2D0 PUSH1 0xE4 CALLDATALOAD GT PUSH2 0x10F5 JUMPI PUSH1 0x3 SLOAD CALLVALUE LT PUSH2 0x10B0 JUMPI PUSH1 0x6 SLOAD SWAP5 PUSH2 0xBA1 DUP7 PUSH2 0x1B1F JUMP JUMPDEST PUSH1 0x6 SSTORE PUSH2 0xE10 DUP1 PUSH1 0xE4 CALLDATALOAD MUL SWAP1 PUSH1 0xE4 CALLDATALOAD DUP3 DIV EQ PUSH1 0xE4 CALLDATALOAD ISZERO OR ISZERO PUSH2 0x109A JUMPI DUP1 TIMESTAMP ADD TIMESTAMP GT PUSH2 0x109A JUMPI PUSH1 0x40 MLOAD SWAP1 PUSH2 0xBD3 DUP3 PUSH2 0x1851 JUMP JUMPDEST DUP8 DUP3 MSTORE CALLER PUSH1 0x20 DUP4 ADD MSTORE PUSH2 0xBE7 CALLDATASIZE DUP6 DUP8 PUSH2 0x1B4A JUMP JUMPDEST PUSH1 0x40 DUP4 ADD MSTORE PUSH1 0x24 CALLDATALOAD PUSH1 0x60 DUP4 ADD MSTORE DUP3 ISZERO ISZERO PUSH1 0x80 DUP4 ADD MSTORE PUSH2 0xC07 CALLDATASIZE DUP8 DUP12 PUSH2 0x1B4A JUMP JUMPDEST PUSH1 0xA0 DUP4 ADD MSTORE DUP7 ISZERO ISZERO PUSH1 0xC0 DUP4 ADD MSTORE PUSH1 0xA4 CALLDATALOAD PUSH1 0xE0 DUP4 ADD MSTORE PUSH1 0xC4 CALLDATALOAD PUSH2 0x100 DUP4 ADD MSTORE TIMESTAMP PUSH2 0x120 DUP4 ADD MSTORE TIMESTAMP ADD PUSH2 0x140 DUP3 ADD MSTORE PUSH1 0x0 PUSH2 0x160 DUP3 ADD MSTORE CALLVALUE PUSH2 0x180 DUP3 ADD MSTORE PUSH1 0x0 PUSH2 0x1A0 DUP3 ADD MSTORE PUSH1 0x0 PUSH2 0x1C0 DUP3 ADD MSTORE PUSH1 0x0 PUSH2 0x1E0 DUP3 ADD MSTORE DUP7 PUSH1 0x0 MSTORE PUSH1 0x4 PUSH1 0x20 MSTORE PUSH1 0x40 PUSH1 0x0 KECCAK256 SWAP1 DUP1 MLOAD DUP3 SSTORE PUSH1 0x1 DUP3 ADD PUSH1 0x1 DUP1 PUSH1 0xA0 SHL SUB PUSH1 0x20 DUP4 ADD MLOAD AND PUSH12 0xFFFFFFFFFFFFFFFFFFFFFFFF PUSH1 0xA0 SHL DUP3 SLOAD AND OR SWAP1 SSTORE PUSH1 0x40 DUP2 ADD MLOAD DUP1 MLOAD SWAP1 PUSH8 0xFFFFFFFFFFFFFFFF DUP3 GT PUSH2 0xEE4 JUMPI DUP2 SWAP1 PUSH2 0xCBB PUSH1 0x2 DUP7 ADD SLOAD PUSH2 0x1817 JUMP JUMPDEST PUSH1 0x1F DUP2 GT PUSH2 0x1047 JUMPI JUMPDEST POP PUSH1 0x20 SWAP1 PUSH1 0x1F DUP4 GT PUSH1 0x1 EQ PUSH2 0xFD5 JUMPI PUSH1 0x0 SWAP3 PUSH2 0xFCA JUMPI JUMPDEST POP POP DUP2 PUSH1 0x1 SHL SWAP2 PUSH1 0x0 NOT SWAP1 PUSH1 0x3 SHL SHR NOT AND OR PUSH1 0x2 DUP4 ADD SSTORE JUMPDEST PUSH1 0x60 DUP2 ADD MLOAD PUSH1 0x3 DUP4 ADD SSTORE PUSH2 0xD1C PUSH1 0x80 DUP3 ADD MLOAD ISZERO ISZERO PUSH1 0x4 DUP5 ADD SWAP1 PUSH1 0xFF DUP1 NOT DUP4 SLOAD AND SWAP2 ISZERO ISZERO AND OR SWAP1 SSTORE JUMP JUMPDEST PUSH1 0xA0 DUP2 ADD MLOAD DUP1 MLOAD SWAP1 PUSH8 0xFFFFFFFFFFFFFFFF DUP3 GT PUSH2 0xEE4 JUMPI DUP2 SWAP1 PUSH2 0xD42 PUSH1 0x5 DUP7 ADD SLOAD PUSH2 0x1817 JUMP JUMPDEST PUSH1 0x1F DUP2 GT PUSH2 0xF77 JUMPI JUMPDEST POP PUSH1 0x20 SWAP1 PUSH1 0x1F DUP4 GT PUSH1 0x1 EQ PUSH2 0xF05 JUMPI PUSH1 0x0 SWAP3 PUSH2 0xEFA JUMPI JUMPDEST POP POP DUP2 PUSH1 0x1 SHL SWAP2 PUSH1 0x0 NOT SWAP1 PUSH1 0x3 SHL SHR NOT AND OR PUSH1 0x5 DUP4 ADD SSTORE JUMPDEST PUSH2 0xD99 PUSH1 0xC0 DUP3 ADD MLOAD ISZERO ISZERO PUSH1 0x6 DUP5 ADD SWAP1 PUSH1 0xFF DUP1 NOT DUP4 SLOAD AND SWAP2 ISZERO ISZERO AND OR SWAP1 SSTORE JUMP JUMPDEST PUSH1 0xE0 DUP2 ADD MLOAD PUSH1 0x7 DUP4 ADD SSTORE PUSH2 0x100 DUP2 ADD MLOAD PUSH1 0x8 DUP4 ADD SSTORE PUSH2 0x120 DUP2 ADD MLOAD PUSH1 0x9 DUP4 ADD SSTORE PUSH2 0x140 DUP2 ADD MLOAD PUSH1 0xA DUP4 ADD SSTORE PUSH2 0x160 DUP2 ADD MLOAD PUSH1 0x5 DUP2 LT ISZERO PUSH2 0x2F8 JUMPI PUSH1 0xF SWAP2 PUSH2 0x1E0 SWAP2 PUSH1 0xB DUP6 ADD SWAP1 PUSH1 0xFF DUP1 NOT DUP4 SLOAD AND SWAP2 AND OR SWAP1 SSTORE PUSH2 0x180 DUP2 ADD MLOAD PUSH1 0xC DUP6 ADD SSTORE PUSH2 0x1A0 DUP2 ADD MLOAD PUSH1 0xD DUP6 ADD SSTORE PUSH2 0x1C0 DUP2 ADD MLOAD PUSH1 0xE DUP6 ADD SSTORE ADD MLOAD SWAP2 ADD SSTORE CALLER PUSH1 0x0 MSTORE PUSH1 0x5 PUSH1 0x20 MSTORE PUSH1 0x40 PUSH1 0x0 KECCAK256 SWAP1 DUP2 SLOAD SWAP5 PUSH9 0x10000000000000000 DUP7 LT ISZERO PUSH2 0xEE4 JUMPI PUSH1 0x20 SWAP9 PUSH2 0xEA5 PUSH32 0xEA8640DE2F174F1FA43C2FA556863133CAABCFBBB2E37626B2A0239F4F84B006 SWAP7 PUSH2 0xE70 DUP10 PUSH2 0xEC1 SWAP8 PUSH1 0x1 DUP15 SWAP13 ADD DUP2 SSTORE PUSH2 0x17E9 JUMP JUMPDEST DUP2 SLOAD SWAP1 PUSH1 0x3 SHL SWAP1 DUP12 DUP3 SHL SWAP2 PUSH1 0x0 NOT SWAP1 SHL NOT AND OR SWAP1 SSTORE PUSH2 0xE90 PUSH1 0x7 SLOAD PUSH2 0x1B1F JUMP JUMPDEST PUSH1 0x7 SSTORE PUSH1 0x40 MLOAD SWAP7 PUSH1 0xC0 DUP9 MSTORE PUSH1 0xC0 DUP9 ADD SWAP2 PUSH2 0x1B81 JUMP JUMPDEST SWAP3 PUSH1 0x24 CALLDATALOAD DUP12 DUP8 ADD MSTORE ISZERO ISZERO PUSH1 0x40 DUP7 ADD MSTORE DUP5 DUP4 SUB PUSH1 0x60 DUP7 ADD MSTORE PUSH2 0x1B81 JUMP JUMPDEST SWAP4 ISZERO ISZERO PUSH1 0x80 DUP3 ADD MSTORE PUSH1 0xA4 CALLDATALOAD PUSH1 0xA0 DUP3 ADD MSTORE DUP1 CALLER SWAP5 SUB SWAP1 LOG3 PUSH1 0x1 PUSH1 0x2 SSTORE PUSH1 0x40 MLOAD SWAP1 DUP2 MSTORE RETURN JUMPDEST PUSH4 0x4E487B71 PUSH1 0xE0 SHL PUSH1 0x0 MSTORE PUSH1 0x41 PUSH1 0x4 MSTORE PUSH1 0x24 PUSH1 0x0 REVERT JUMPDEST ADD MLOAD SWAP1 POP DUP12 DUP1 PUSH2 0xD62 JUMP JUMPDEST SWAP3 POP PUSH1 0x5 DUP6 ADD PUSH1 0x0 MSTORE PUSH1 0x20 PUSH1 0x0 KECCAK256 SWAP1 PUSH1 0x0 SWAP4 JUMPDEST PUSH1 0x1F NOT DUP5 AND DUP6 LT PUSH2 0xF5C JUMPI PUSH1 0x1 SWAP5 POP DUP4 PUSH1 0x1F NOT DUP2 AND LT PUSH2 0xF43 JUMPI JUMPDEST POP POP POP DUP2 SHL ADD PUSH1 0x5 DUP4 ADD SSTORE PUSH2 0xD7A JUMP JUMPDEST ADD MLOAD PUSH1 0x0 NOT PUSH1 0xF8 DUP5 PUSH1 0x3 SHL AND SHR NOT AND SWAP1 SSTORE DUP12 DUP1 DUP1 PUSH2 0xF33 JUMP JUMPDEST DUP2 DUP2 ADD MLOAD DUP4 SSTORE PUSH1 0x20 SWAP5 DUP6 ADD SWAP5 PUSH1 0x1 SWAP1 SWAP4 ADD SWAP3 SWAP1 SWAP2 ADD SWAP1 PUSH2 0xF18 JUMP JUMPDEST SWAP1 SWAP2 POP PUSH1 0x5 DUP6 ADD PUSH1 0x0 MSTORE PUSH1 0x20 PUSH1 0x0 KECCAK256 PUSH1 0x1F DUP5 ADD PUSH1 0x5 SHR DUP2 ADD PUSH1 0x20 DUP6 LT PUSH2 0xFC3 JUMPI JUMPDEST SWAP1 DUP5 SWAP4 SWAP3 SWAP2 JUMPDEST PUSH1 0x1F DUP4 ADD PUSH1 0x5 SHR DUP3 ADD DUP2 LT PUSH2 0xFB4 JUMPI POP POP PUSH2 0xD4B JUMP JUMPDEST PUSH1 0x0 DUP2 SSTORE DUP6 SWAP5 POP PUSH1 0x1 ADD PUSH2 0xF9E JUMP JUMPDEST POP DUP1 PUSH2 0xF98 JUMP JUMPDEST ADD MLOAD SWAP1 POP DUP12 DUP1 PUSH2 0xCDB JUMP JUMPDEST SWAP3 POP PUSH1 0x2 DUP6 ADD PUSH1 0x0 MSTORE PUSH1 0x20 PUSH1 0x0 KECCAK256 SWAP1 PUSH1 0x0 SWAP4 JUMPDEST PUSH1 0x1F NOT DUP5 AND DUP6 LT PUSH2 0x102C JUMPI PUSH1 0x1 SWAP5 POP DUP4 PUSH1 0x1F NOT DUP2 AND LT PUSH2 0x1013 JUMPI JUMPDEST POP POP POP DUP2 SHL ADD PUSH1 0x2 DUP4 ADD SSTORE PUSH2 0xCF3 JUMP JUMPDEST ADD MLOAD PUSH1 0x0 NOT PUSH1 0xF8 DUP5 PUSH1 0x3 SHL AND SHR NOT AND SWAP1 SSTORE DUP12 DUP1 DUP1 PUSH2 0x1003 JUMP JUMPDEST DUP2 DUP2 ADD MLOAD DUP4 SSTORE PUSH1 0x20 SWAP5 DUP6 ADD SWAP5 PUSH1 0x1 SWAP1 SWAP4 ADD SWAP3 SWAP1 SWAP2 ADD SWAP1 PUSH2 0xFE8 JUMP JUMPDEST SWAP1 SWAP2 POP PUSH1 0x2 DUP6 ADD PUSH1 0x0 MSTORE PUSH1 0x20 PUSH1 0x0 KECCAK256 PUSH1 0x1F DUP5 ADD PUSH1 0x5 SHR DUP2 ADD PUSH1 0x20 DUP6 LT PUSH2 0x1093 JUMPI JUMPDEST SWAP1 DUP5 SWAP4 SWAP3 SWAP2 JUMPDEST PUSH1 0x1F DUP4 ADD PUSH1 0x5 SHR DUP3 ADD DUP2 LT PUSH2 0x1084 JUMPI POP POP PUSH2 0xCC4 JUMP JUMPDEST PUSH1 0x0 DUP2 SSTORE DUP6 SWAP5 POP PUSH1 0x1 ADD PUSH2 0x106E JUMP JUMPDEST POP DUP1 PUSH2 0x1068 JUMP JUMPDEST PUSH4 0x4E487B71 PUSH1 0xE0 SHL PUSH1 0x0 MSTORE PUSH1 0x11 PUSH1 0x4 MSTORE PUSH1 0x24 PUSH1 0x0 REVERT JUMPDEST PUSH1 0x40 MLOAD PUSH3 0x461BCD PUSH1 0xE5 SHL DUP2 MSTORE PUSH1 0x20 PUSH1 0x4 DUP3 ADD MSTORE PUSH1 0x18 PUSH1 0x24 DUP3 ADD MSTORE PUSH32 0x496E73756666696369656E742074726967676572206665650000000000000000 PUSH1 0x44 DUP3 ADD MSTORE PUSH1 0x64 SWAP1 REVERT JUMPDEST PUSH1 0x40 MLOAD PUSH3 0x461BCD PUSH1 0xE5 SHL DUP2 MSTORE PUSH1 0x20 PUSH1 0x4 DUP3 ADD MSTORE PUSH1 0x11 PUSH1 0x24 DUP3 ADD MSTORE PUSH17 0x4475726174696F6E20746F6F206C6F6E67 PUSH1 0x78 SHL PUSH1 0x44 DUP3 ADD MSTORE PUSH1 0x64 SWAP1 REVERT JUMPDEST PUSH1 0x40 MLOAD PUSH3 0x461BCD PUSH1 0xE5 SHL DUP2 MSTORE PUSH1 0x20 PUSH1 0x4 DUP3 ADD MSTORE PUSH1 0x12 PUSH1 0x24 DUP3 ADD MSTORE PUSH18 0x111D5C985D1A5BDB881D1BDBC81CDA1BDC9D PUSH1 0x72 SHL PUSH1 0x44 DUP3 ADD MSTORE PUSH1 0x64 SWAP1 REVERT JUMPDEST PUSH1 0x40 MLOAD PUSH3 0x461BCD PUSH1 0xE5 SHL DUP2 MSTORE PUSH1 0x20 PUSH1 0x4 DUP3 ADD MSTORE PUSH1 0x15 PUSH1 0x24 DUP3 ADD MSTORE PUSH21 0x9AC2F040E6D8D2E0E0C2CECA40E8DEDE40D0D2CED PUSH1 0x5B SHL PUSH1 0x44 DUP3 ADD MSTORE PUSH1 0x64 SWAP1 REVERT JUMPDEST PUSH1 0x40 MLOAD PUSH3 0x461BCD PUSH1 0xE5 SHL DUP2 MSTORE PUSH1 0x20 PUSH1 0x4 DUP3 ADD MSTORE PUSH1 0x12 PUSH1 0x24 DUP3 ADD MSTORE PUSH18 0x416D6F756E74206D757374206265203E203 PUSH1 0x74 SHL PUSH1 0x44 DUP3 ADD MSTORE PUSH1 0x64 SWAP1 REVERT JUMPDEST PUSH1 0x40 MLOAD PUSH3 0x461BCD PUSH1 0xE5 SHL DUP2 MSTORE PUSH1 0x20 PUSH1 0x4 DUP3 ADD MSTORE PUSH1 0x18 PUSH1 0x24 DUP3 ADD MSTORE PUSH32 0x546172676574207072696365206D757374206265203E20300000000000000000 PUSH1 0x44 DUP3 ADD MSTORE PUSH1 0x64 SWAP1 REVERT JUMPDEST PUSH1 0x40 MLOAD PUSH3 0x461BCD PUSH1 0xE5 SHL DUP2 MSTORE PUSH1 0x20 PUSH1 0x4 DUP3 ADD MSTORE PUSH1 0x14 PUSH1 0x24 DUP3 ADD MSTORE PUSH20 0x151C98591948185CDCD95D081C995C5D5A5C9959 PUSH1 0x62 SHL PUSH1 0x44 DUP3 ADD MSTORE PUSH1 0x64 SWAP1 REVERT JUMPDEST PUSH1 0x40 MLOAD PUSH3 0x461BCD PUSH1 0xE5 SHL DUP2 MSTORE PUSH1 0x20 PUSH1 0x4 DUP3 ADD MSTORE PUSH1 0x14 PUSH1 0x24 DUP3 ADD MSTORE PUSH20 0x15D85D18DA08185CDCD95D081C995C5D5A5C9959 PUSH1 0x62 SHL PUSH1 0x44 DUP3 ADD MSTORE PUSH1 0x64 SWAP1 REVERT JUMPDEST CALLVALUE PUSH2 0x192 JUMPI PUSH1 0x0 CALLDATASIZE PUSH1 0x3 NOT ADD SLT PUSH2 0x192 JUMPI PUSH1 0x20 PUSH1 0xFF PUSH1 0x1 SLOAD AND PUSH1 0x40 MLOAD SWAP1 ISZERO ISZERO DUP2 MSTORE RETURN JUMPDEST CALLVALUE PUSH2 0x192 JUMPI PUSH1 0x0 CALLDATASIZE PUSH1 0x3 NOT ADD SLT PUSH2 0x192 JUMPI PUSH1 0x20 PUSH1 0x7 SLOAD PUSH1 0x40 MLOAD SWAP1 DUP2 MSTORE RETURN JUMPDEST CALLVALUE PUSH2 0x192 JUMPI PUSH1 0x40 CALLDATASIZE PUSH1 0x3 NOT ADD SLT PUSH2 0x192 JUMPI PUSH2 0x12FC PUSH1 0x24 CALLDATALOAD PUSH1 0x4 CALLDATALOAD PUSH2 0x1C5F JUMP JUMPDEST SWAP1 PUSH2 0x7AB PUSH1 0x40 MLOAD SWAP3 DUP4 SWAP3 ISZERO ISZERO DUP4 MSTORE PUSH1 0x40 PUSH1 0x20 DUP5 ADD MSTORE PUSH1 0x40 DUP4 ADD SWAP1 PUSH2 0x16C8 JUMP JUMPDEST CALLVALUE PUSH2 0x192 JUMPI PUSH1 0x0 CALLDATASIZE PUSH1 0x3 NOT ADD SLT PUSH2 0x192 JUMPI PUSH2 0x1334 PUSH2 0x19CC JUMP JUMPDEST SELFBALANCE DUP1 ISZERO PUSH2 0x138D JUMPI PUSH1 0x0 DUP1 DUP1 DUP1 SWAP4 CALLER GAS CALL PUSH2 0x134C PUSH2 0x1C2F JUMP JUMPDEST POP ISZERO PUSH2 0x1354 JUMPI STOP JUMPDEST PUSH1 0x40 MLOAD PUSH3 0x461BCD PUSH1 0xE5 SHL DUP2 MSTORE PUSH1 0x20 PUSH1 0x4 DUP3 ADD MSTORE PUSH1 0x11 PUSH1 0x24 DUP3 ADD MSTORE PUSH17 0x15DA5D1A191C985DD85B0819985A5B1959 PUSH1 0x7A SHL PUSH1 0x44 DUP3 ADD MSTORE PUSH1 0x64 SWAP1 REVERT JUMPDEST PUSH1 0x40 MLOAD PUSH3 0x461BCD PUSH1 0xE5 SHL DUP2 MSTORE PUSH1 0x20 PUSH1 0x4 DUP3 ADD MSTORE PUSH1 0x13 PUSH1 0x24 DUP3 ADD MSTORE PUSH19 0x4E6F206665657320746F207769746864726177 PUSH1 0x68 SHL PUSH1 0x44 DUP3 ADD MSTORE PUSH1 0x64 SWAP1 REVERT JUMPDEST CALLVALUE PUSH2 0x192 JUMPI PUSH1 0x0 CALLDATASIZE PUSH1 0x3 NOT ADD SLT PUSH2 0x192 JUMPI PUSH1 0x20 PUSH1 0x6 SLOAD PUSH1 0x40 MLOAD SWAP1 DUP2 MSTORE RETURN JUMPDEST CALLVALUE PUSH2 0x192 JUMPI PUSH1 0x0 CALLDATASIZE PUSH1 0x3 NOT ADD SLT PUSH2 0x192 JUMPI PUSH2 0x13FF PUSH2 0x19CC JUMP JUMPDEST PUSH1 0x1 SLOAD PUSH1 0xFF DUP2 AND ISZERO PUSH2 0x143E JUMPI PUSH1 0xFF NOT AND PUSH1 0x1 SSTORE PUSH32 0x5DB9EE0A495BF2E6FF9C91A7834C1BA4FDD244A5E8AA4E537BD38AEAE4B073AA PUSH1 0x20 PUSH1 0x40 MLOAD CALLER DUP2 MSTORE LOG1 STOP JUMPDEST PUSH1 0x40 MLOAD PUSH4 0x8DFC202B PUSH1 0xE0 SHL DUP2 MSTORE PUSH1 0x4 SWAP1 REVERT JUMPDEST CALLVALUE PUSH2 0x192 JUMPI PUSH1 0x40 CALLDATASIZE PUSH1 0x3 NOT ADD SLT PUSH2 0x192 JUMPI PUSH1 0x4 CALLDATALOAD PUSH1 0x24 CALLDATALOAD PUSH8 0xFFFFFFFFFFFFFFFF DUP2 GT PUSH2 0x192 JUMPI PUSH2 0x1484 SWAP1 CALLDATASIZE SWAP1 PUSH1 0x4 ADD PUSH2 0x169A JUMP JUMPDEST SWAP1 PUSH2 0x148D PUSH2 0x1952 JUMP JUMPDEST DUP3 PUSH1 0x0 MSTORE PUSH1 0x4 PUSH1 0x20 MSTORE PUSH1 0xB PUSH1 0x40 PUSH1 0x0 KECCAK256 ADD SWAP2 DUP3 SLOAD SWAP3 PUSH1 0xFF DUP5 AND PUSH1 0x5 DUP2 LT ISZERO PUSH2 0x2F8 JUMPI PUSH32 0x1322C62B2B0266A20579A26B0DDFCF33E8B042D86CEB5FAE7B05362EA44AFA03 SWAP5 PUSH2 0x14DD PUSH1 0x4 SWAP3 ISZERO PUSH2 0x1BE1 JUMP JUMPDEST PUSH1 0xFF NOT AND OR SWAP1 SSTORE PUSH2 0x14EF PUSH1 0x7 SLOAD PUSH2 0x1C22 JUMP JUMPDEST PUSH1 0x7 SSTORE PUSH2 0x1509 PUSH1 0x40 MLOAD SWAP3 DUP4 SWAP3 PUSH1 0x20 DUP5 MSTORE PUSH1 0x20 DUP5 ADD SWAP2 PUSH2 0x1B81 JUMP JUMPDEST SUB SWAP1 LOG2 STOP JUMPDEST CALLVALUE PUSH2 0x192 JUMPI PUSH1 0x40 CALLDATASIZE PUSH1 0x3 NOT ADD SLT PUSH2 0x192 JUMPI PUSH2 0x1527 PUSH2 0x166E JUMP JUMPDEST CALLER PUSH1 0x1 PUSH1 0x1 PUSH1 0xA0 SHL SUB DUP3 AND SUB PUSH2 0x1543 JUMPI PUSH2 0x1B SWAP1 PUSH1 0x4 CALLDATALOAD PUSH2 0x1AAA JUMP JUMPDEST PUSH1 0x40 MLOAD PUSH4 0x334BD919 PUSH1 0xE1 SHL DUP2 MSTORE PUSH1 0x4 SWAP1 REVERT JUMPDEST CALLVALUE PUSH2 0x192 JUMPI PUSH1 0x40 CALLDATASIZE PUSH1 0x3 NOT ADD SLT PUSH2 0x192 JUMPI PUSH2 0x1B PUSH1 0x4 CALLDATALOAD PUSH2 0x1574 PUSH2 0x166E JUMP JUMPDEST SWAP1 DUP1 PUSH1 0x0 MSTORE PUSH1 0x0 PUSH1 0x20 MSTORE PUSH2 0x158F PUSH1 0x1 PUSH1 0x40 PUSH1 0x0 KECCAK256 ADD SLOAD PUSH2 0x1A06 JUMP JUMPDEST PUSH2 0x1A2C JUMP JUMPDEST CALLVALUE PUSH2 0x192 JUMPI PUSH1 0x20 CALLDATASIZE PUSH1 0x3 NOT ADD SLT PUSH2 0x192 JUMPI PUSH1 0x4 CALLDATALOAD PUSH1 0x0 MSTORE PUSH1 0x0 PUSH1 0x20 MSTORE PUSH1 0x20 PUSH1 0x1 PUSH1 0x40 PUSH1 0x0 KECCAK256 ADD SLOAD PUSH1 0x40 MLOAD SWAP1 DUP2 MSTORE RETURN JUMPDEST CALLVALUE PUSH2 0x192 JUMPI PUSH1 0x0 CALLDATASIZE PUSH1 0x3 NOT ADD SLT PUSH2 0x192 JUMPI PUSH1 0x20 PUSH1 0x40 MLOAD PUSH2 0xE10 DUP2 MSTORE RETURN JUMPDEST CALLVALUE PUSH2 0x192 JUMPI PUSH1 0x0 CALLDATASIZE PUSH1 0x3 NOT ADD SLT PUSH2 0x192 JUMPI PUSH1 0x20 PUSH1 0x40 MLOAD PUSH32 0xD8AA0F3194971A2A116679F7C2090F6939C8D4E01A2A8D7E41D55E5351469E63 DUP2 MSTORE RETURN JUMPDEST CALLVALUE PUSH2 0x192 JUMPI PUSH1 0x20 CALLDATASIZE PUSH1 0x3 NOT ADD SLT PUSH2 0x192 JUMPI PUSH1 0x4 CALLDATALOAD SWAP1 PUSH4 0xFFFFFFFF PUSH1 0xE0 SHL DUP3 AND DUP1 SWAP3 SUB PUSH2 0x192 JUMPI PUSH1 0x20 SWAP2 PUSH4 0x7965DB0B PUSH1 0xE0 SHL DUP2 EQ SWAP1 DUP2 ISZERO PUSH2 0x165D JUMPI JUMPDEST POP ISZERO ISZERO DUP2 MSTORE RETURN JUMPDEST PUSH4 0x1FFC9A7 PUSH1 0xE0 SHL EQ SWAP1 POP DUP4 PUSH2 0x1656 JUMP JUMPDEST PUSH1 0x24 CALLDATALOAD SWAP1 PUSH1 0x1 PUSH1 0x1 PUSH1 0xA0 SHL SUB DUP3 AND DUP3 SUB PUSH2 0x192 JUMPI JUMP JUMPDEST PUSH1 0x4 CALLDATALOAD SWAP1 PUSH1 0x1 PUSH1 0x1 PUSH1 0xA0 SHL SUB DUP3 AND DUP3 SUB PUSH2 0x192 JUMPI JUMP JUMPDEST SWAP2 DUP2 PUSH1 0x1F DUP5 ADD SLT ISZERO PUSH2 0x192 JUMPI DUP3 CALLDATALOAD SWAP2 PUSH8 0xFFFFFFFFFFFFFFFF DUP4 GT PUSH2 0x192 JUMPI PUSH1 0x20 DUP4 DUP2 DUP7 ADD SWAP6 ADD ADD GT PUSH2 0x192 JUMPI JUMP JUMPDEST SWAP2 SWAP1 DUP3 MLOAD SWAP3 DUP4 DUP3 MSTORE PUSH1 0x0 JUMPDEST DUP5 DUP2 LT PUSH2 0x16F4 JUMPI POP POP DUP3 PUSH1 0x0 PUSH1 0x20 DUP1 SWAP5 SWAP6 DUP5 ADD ADD MSTORE PUSH1 0x1F DUP1 NOT SWAP2 ADD AND ADD ADD SWAP1 JUMP JUMPDEST PUSH1 0x20 DUP2 DUP4 ADD DUP2 ADD MLOAD DUP5 DUP4 ADD DUP3 ADD MSTORE ADD PUSH2 0x16D3 JUMP JUMPDEST SWAP1 PUSH1 0x5 DUP3 LT ISZERO PUSH2 0x2F8 JUMPI MSTORE JUMP JUMPDEST SWAP1 DUP2 MLOAD DUP2 MSTORE PUSH1 0x1 DUP1 PUSH1 0xA0 SHL SUB PUSH1 0x20 DUP4 ADD MLOAD AND PUSH1 0x20 DUP3 ADD MSTORE PUSH2 0x1770 PUSH2 0x1748 PUSH1 0x40 DUP5 ADD MLOAD PUSH2 0x200 DUP1 PUSH1 0x40 DUP7 ADD MSTORE DUP5 ADD SWAP1 PUSH2 0x16C8 JUMP JUMPDEST PUSH1 0x60 DUP5 ADD MLOAD PUSH1 0x60 DUP5 ADD MSTORE PUSH1 0x80 DUP5 ADD MLOAD ISZERO ISZERO PUSH1 0x80 DUP5 ADD MSTORE PUSH1 0xA0 DUP5 ADD MLOAD DUP4 DUP3 SUB PUSH1 0xA0 DUP6 ADD MSTORE PUSH2 0x16C8 JUMP JUMPDEST SWAP2 PUSH1 0xC0 DUP2 ADD MLOAD ISZERO ISZERO PUSH1 0xC0 DUP4 ADD MSTORE PUSH1 0xE0 DUP2 ADD MLOAD PUSH1 0xE0 DUP4 ADD MSTORE PUSH2 0x100 DUP1 DUP3 ADD MLOAD SWAP1 DUP4 ADD MSTORE PUSH2 0x120 DUP1 DUP3 ADD MLOAD SWAP1 DUP4 ADD MSTORE PUSH2 0x140 DUP1 DUP3 ADD MLOAD SWAP1 DUP4 ADD MSTORE PUSH2 0x17BB PUSH2 0x160 DUP1 DUP4 ADD MLOAD SWAP1 DUP5 ADD SWAP1 PUSH2 0x1708 JUMP JUMPDEST PUSH2 0x180 DUP1 DUP3 ADD MLOAD SWAP1 DUP4 ADD MSTORE PUSH2 0x1A0 DUP1 DUP3 ADD MLOAD SWAP1 DUP4 ADD MSTORE PUSH2 0x1C0 DUP1 DUP3 ADD MLOAD SWAP1 DUP4 ADD MSTORE PUSH2 0x1E0 DUP1 SWAP2 ADD MLOAD SWAP2 ADD MSTORE SWAP1 JUMP JUMPDEST DUP1 SLOAD DUP3 LT ISZERO PUSH2 0x1801 JUMPI PUSH1 0x0 MSTORE PUSH1 0x20 PUSH1 0x0 KECCAK256 ADD SWAP1 PUSH1 0x0 SWAP1 JUMP JUMPDEST PUSH4 0x4E487B71 PUSH1 0xE0 SHL PUSH1 0x0 MSTORE PUSH1 0x32 PUSH1 0x4 MSTORE PUSH1 0x24 PUSH1 0x0 REVERT JUMPDEST SWAP1 PUSH1 0x1 DUP3 DUP2 SHR SWAP3 AND DUP1 ISZERO PUSH2 0x1847 JUMPI JUMPDEST PUSH1 0x20 DUP4 LT EQ PUSH2 0x1831 JUMPI JUMP JUMPDEST PUSH4 0x4E487B71 PUSH1 0xE0 SHL PUSH1 0x0 MSTORE PUSH1 0x22 PUSH1 0x4 MSTORE PUSH1 0x24 PUSH1 0x0 REVERT JUMPDEST SWAP2 PUSH1 0x7F AND SWAP2 PUSH2 0x1826 JUMP JUMPDEST PUSH2 0x200 DUP2 ADD SWAP1 DUP2 LT PUSH8 0xFFFFFFFFFFFFFFFF DUP3 GT OR PUSH2 0xEE4 JUMPI PUSH1 0x40 MSTORE JUMP JUMPDEST PUSH1 0x40 DUP2 ADD SWAP1 DUP2 LT PUSH8 0xFFFFFFFFFFFFFFFF DUP3 GT OR PUSH2 0xEE4 JUMPI PUSH1 0x40 MSTORE JUMP JUMPDEST SWAP1 PUSH1 0x1F DUP1 NOT SWAP2 ADD AND DUP2 ADD SWAP1 DUP2 LT PUSH8 0xFFFFFFFFFFFFFFFF DUP3 GT OR PUSH2 0xEE4 JUMPI PUSH1 0x40 MSTORE JUMP JUMPDEST SWAP1 PUSH1 0x40 MLOAD SWAP2 DUP3 PUSH1 0x0 DUP3 SLOAD SWAP3 PUSH2 0x18C0 DUP5 PUSH2 0x1817 JUMP JUMPDEST SWAP1 DUP2 DUP5 MSTORE PUSH1 0x1 SWAP5 DUP6 DUP2 AND SWAP1 DUP2 PUSH1 0x0 EQ PUSH2 0x192F JUMPI POP PUSH1 0x1 EQ PUSH2 0x18EC JUMPI JUMPDEST POP POP PUSH2 0x18EA SWAP3 POP SUB DUP4 PUSH2 0x188A JUMP JUMPDEST JUMP JUMPDEST SWAP1 SWAP4 SWAP2 POP PUSH1 0x0 MSTORE PUSH1 0x20 SWAP1 DUP2 PUSH1 0x0 KECCAK256 SWAP4 PUSH1 0x0 SWAP2 JUMPDEST DUP2 DUP4 LT PUSH2 0x1917 JUMPI POP POP PUSH2 0x18EA SWAP4 POP DUP3 ADD ADD CODESIZE DUP1 PUSH2 0x18DC JUMP JUMPDEST DUP6 SLOAD DUP9 DUP5 ADD DUP6 ADD MSTORE SWAP5 DUP6 ADD SWAP5 DUP8 SWAP5 POP SWAP2 DUP4 ADD SWAP2 PUSH2 0x18FF JUMP JUMPDEST SWAP2 POP POP PUSH2 0x18EA SWAP5 POP PUSH1 0x20 SWAP3 POP PUSH1 0xFF NOT AND DUP3 DUP5 ADD MSTORE ISZERO ISZERO PUSH1 0x5 SHL DUP3 ADD ADD CODESIZE DUP1 PUSH2 0x18DC JUMP JUMPDEST CALLER PUSH1 0x0 SWAP1 DUP2 MSTORE PUSH32 0xDAE2AA361DFD1CA020A396615627D436107C35EFF9FE7738A3512819782D7069 PUSH1 0x20 MSTORE PUSH1 0x40 SWAP1 KECCAK256 SLOAD PUSH32 0xD8AA0F3194971A2A116679F7C2090F6939C8D4E01A2A8D7E41D55E5351469E63 SWAP1 PUSH1 0xFF AND ISZERO PUSH2 0x19AE JUMPI POP JUMP JUMPDEST PUSH1 0x44 SWAP1 PUSH1 0x40 MLOAD SWAP1 PUSH4 0xE2517D3F PUSH1 0xE0 SHL DUP3 MSTORE CALLER PUSH1 0x4 DUP4 ADD MSTORE PUSH1 0x24 DUP3 ADD MSTORE REVERT JUMPDEST CALLER PUSH1 0x0 SWAP1 DUP2 MSTORE PUSH32 0xAD3228B676F7D3CD4284A5443F17F1962B36E491B30A40B2405849E597BA5FB5 PUSH1 0x20 MSTORE PUSH1 0x40 DUP2 KECCAK256 SLOAD PUSH1 0xFF AND ISZERO PUSH2 0x19AE JUMPI POP JUMP JUMPDEST DUP1 PUSH1 0x0 MSTORE PUSH1 0x0 PUSH1 0x20 MSTORE PUSH1 0x40 PUSH1 0x0 KECCAK256 CALLER PUSH1 0x0 MSTORE PUSH1 0x20 MSTORE PUSH1 0xFF PUSH1 0x40 PUSH1 0x0 KECCAK256 SLOAD AND ISZERO PUSH2 0x19AE JUMPI POP JUMP JUMPDEST SWAP1 PUSH1 0x0 SWAP2 DUP1 DUP4 MSTORE DUP3 PUSH1 0x20 MSTORE PUSH1 0x40 DUP4 KECCAK256 SWAP2 PUSH1 0x1 DUP1 PUSH1 0xA0 SHL SUB AND SWAP2 DUP3 DUP5 MSTORE PUSH1 0x20 MSTORE PUSH1 0xFF PUSH1 0x40 DUP5 KECCAK256 SLOAD AND ISZERO PUSH1 0x0 EQ PUSH2 0x1AA5 JUMPI DUP1 DUP4 MSTORE DUP3 PUSH1 0x20 MSTORE PUSH1 0x40 DUP4 KECCAK256 DUP3 DUP5 MSTORE PUSH1 0x20 MSTORE PUSH1 0x40 DUP4 KECCAK256 PUSH1 0x1 PUSH1 0xFF NOT DUP3 SLOAD AND OR SWAP1 SSTORE PUSH32 0x2F8788117E7EFF1D82E926EC794901D17C78024A50270940304540A733656F0D CALLER SWAP4 DUP1 LOG4 PUSH1 0x1 SWAP1 JUMP JUMPDEST POP POP SWAP1 JUMP JUMPDEST SWAP1 PUSH1 0x0 SWAP2 DUP1 DUP4 MSTORE DUP3 PUSH1 0x20 MSTORE PUSH1 0x40 DUP4 KECCAK256 SWAP2 PUSH1 0x1 DUP1 PUSH1 0xA0 SHL SUB AND SWAP2 DUP3 DUP5 MSTORE PUSH1 0x20 MSTORE PUSH1 0xFF PUSH1 0x40 DUP5 KECCAK256 SLOAD AND PUSH1 0x0 EQ PUSH2 0x1AA5 JUMPI DUP1 DUP4 MSTORE DUP3 PUSH1 0x20 MSTORE PUSH1 0x40 DUP4 KECCAK256 DUP3 DUP5 MSTORE PUSH1 0x20 MSTORE PUSH1 0x40 DUP4 KECCAK256 PUSH1 0xFF NOT DUP2 SLOAD AND SWAP1 SSTORE PUSH32 0xF6391F5C32D9C69D2A47EA670B442974B53935D1EDC7FD64EB21E047A839171B CALLER SWAP4 DUP1 LOG4 PUSH1 0x1 SWAP1 JUMP JUMPDEST PUSH1 0x0 NOT DUP2 EQ PUSH2 0x109A JUMPI PUSH1 0x1 ADD SWAP1 JUMP JUMPDEST PUSH8 0xFFFFFFFFFFFFFFFF DUP2 GT PUSH2 0xEE4 JUMPI PUSH1 0x1F ADD PUSH1 0x1F NOT AND PUSH1 0x20 ADD SWAP1 JUMP JUMPDEST SWAP3 SWAP2 SWAP3 PUSH2 0x1B56 DUP3 PUSH2 0x1B2E JUMP JUMPDEST SWAP2 PUSH2 0x1B64 PUSH1 0x40 MLOAD SWAP4 DUP5 PUSH2 0x188A JUMP JUMPDEST DUP3 SWAP5 DUP2 DUP5 MSTORE DUP2 DUP4 ADD GT PUSH2 0x192 JUMPI DUP3 DUP2 PUSH1 0x20 SWAP4 DUP5 PUSH1 0x0 SWAP7 ADD CALLDATACOPY ADD ADD MSTORE JUMP JUMPDEST SWAP1 DUP1 PUSH1 0x20 SWAP4 SWAP3 DUP2 DUP5 MSTORE DUP5 DUP5 ADD CALLDATACOPY PUSH1 0x0 DUP3 DUP3 ADD DUP5 ADD MSTORE PUSH1 0x1F ADD PUSH1 0x1F NOT AND ADD ADD SWAP1 JUMP JUMPDEST PUSH1 0xFF PUSH1 0x1 SLOAD AND PUSH2 0x1BAE JUMPI JUMP JUMPDEST PUSH1 0x40 MLOAD PUSH4 0xD93C0665 PUSH1 0xE0 SHL DUP2 MSTORE PUSH1 0x4 SWAP1 REVERT JUMPDEST PUSH1 0x2 DUP1 SLOAD EQ PUSH2 0x1BCF JUMPI PUSH1 0x2 DUP1 SSTORE JUMP JUMPDEST PUSH1 0x40 MLOAD PUSH4 0x3EE5AEB5 PUSH1 0xE0 SHL DUP2 MSTORE PUSH1 0x4 SWAP1 REVERT JUMPDEST ISZERO PUSH2 0x1BE8 JUMPI JUMP JUMPDEST PUSH1 0x40 MLOAD PUSH3 0x461BCD PUSH1 0xE5 SHL DUP2 MSTORE PUSH1 0x20 PUSH1 0x4 DUP3 ADD MSTORE PUSH1 0x12 PUSH1 0x24 DUP3 ADD MSTORE PUSH18 0x54726967676572206E6F7420616374697665 PUSH1 0x70 SHL PUSH1 0x44 DUP3 ADD MSTORE PUSH1 0x64 SWAP1 REVERT JUMPDEST DUP1 ISZERO PUSH2 0x109A JUMPI PUSH1 0x0 NOT ADD SWAP1 JUMP JUMPDEST RETURNDATASIZE ISZERO PUSH2 0x1C5A JUMPI RETURNDATASIZE SWAP1 PUSH2 0x1C40 DUP3 PUSH2 0x1B2E JUMP JUMPDEST SWAP2 PUSH2 0x1C4E PUSH1 0x40 MLOAD SWAP4 DUP5 PUSH2 0x188A JUMP JUMPDEST DUP3 MSTORE RETURNDATASIZE PUSH1 0x0 PUSH1 0x20 DUP5 ADD RETURNDATACOPY JUMP JUMPDEST PUSH1 0x60 SWAP1 JUMP JUMPDEST SWAP2 SWAP1 SWAP2 PUSH1 0x0 SWAP1 DUP2 MSTORE PUSH1 0x20 SWAP1 PUSH1 0x4 DUP3 MSTORE PUSH1 0x40 SWAP4 DUP5 DUP3 KECCAK256 PUSH1 0xFF PUSH1 0xB DUP3 ADD SLOAD AND PUSH1 0x5 DUP2 LT ISZERO PUSH2 0x1DA9 JUMPI PUSH2 0x1D7A JUMPI PUSH1 0xA DUP2 ADD SLOAD TIMESTAMP GT PUSH2 0x1D4E JUMPI DUP2 ISZERO PUSH2 0x1D24 JUMPI DUP1 PUSH1 0xFF PUSH1 0x4 PUSH1 0x3 SWAP4 ADD SLOAD AND PUSH1 0x0 EQ PUSH2 0x1D1B JUMPI ADD SLOAD GT ISZERO JUMPDEST ISZERO PUSH2 0x1CE3 JUMPI POP PUSH16 0x526561647920746F2065786563757465 PUSH1 0x80 SHL PUSH1 0x1 SWAP4 MLOAD SWAP2 PUSH2 0x1CD9 DUP4 PUSH2 0x186E JUMP JUMPDEST PUSH1 0x10 DUP4 MSTORE DUP3 ADD MSTORE SWAP1 JUMP JUMPDEST PUSH32 0x507269636520636F6E646974696F6E206E6F74206D6574000000000000000000 SWAP1 SWAP4 MLOAD SWAP2 PUSH2 0x1D11 DUP4 PUSH2 0x186E JUMP JUMPDEST PUSH1 0x17 DUP4 MSTORE DUP3 ADD MSTORE SWAP1 JUMP JUMPDEST ADD SLOAD LT ISZERO PUSH2 0x1CB1 JUMP JUMPDEST POP POP PUSH13 0x496E76616C6964207072696365 PUSH1 0x98 SHL SWAP1 SWAP4 MLOAD SWAP2 PUSH2 0x1D44 DUP4 PUSH2 0x186E JUMP JUMPDEST PUSH1 0xD DUP4 MSTORE DUP3 ADD MSTORE SWAP1 JUMP JUMPDEST POP POP PUSH15 0x151C9A59D9D95C88195E1C1A5C9959 PUSH1 0x8A SHL SWAP1 SWAP4 MLOAD SWAP2 PUSH2 0x1D70 DUP4 PUSH2 0x186E JUMP JUMPDEST PUSH1 0xF DUP4 MSTORE DUP3 ADD MSTORE SWAP1 JUMP JUMPDEST POP POP PUSH18 0x54726967676572206E6F7420616374697665 PUSH1 0x70 SHL SWAP1 SWAP4 MLOAD SWAP2 PUSH2 0x1D9F DUP4 PUSH2 0x186E JUMP JUMPDEST PUSH1 0x12 DUP4 MSTORE DUP3 ADD MSTORE SWAP1 JUMP JUMPDEST PUSH4 0x4E487B71 PUSH1 0xE0 SHL DUP5 MSTORE PUSH1 0x21 PUSH1 0x4 MSTORE PUSH1 0x24 DUP5 REVERT JUMPDEST SWAP2 SWAP1 DUP2 LT ISZERO PUSH2 0x1801 JUMPI PUSH1 0x5 SHL ADD SWAP1 JUMP JUMPDEST PUSH1 0x40 MLOAD SWAP1 PUSH2 0x1DDA DUP3 PUSH2 0x1851 JUMP JUMPDEST DUP2 PUSH2 0x1E0 PUSH1 0x0 SWAP2 DUP3 DUP2 MSTORE DUP3 PUSH1 0x20 DUP3 ADD MSTORE PUSH1 0x60 PUSH1 0x40 DUP3 ADD MSTORE DUP3 PUSH1 0x60 DUP3 ADD MSTORE DUP3 PUSH1 0x80 DUP3 ADD MSTORE PUSH1 0x60 PUSH1 0xA0 DUP3 ADD MSTORE DUP3 PUSH1 0xC0 DUP3 ADD MSTORE DUP3 PUSH1 0xE0 DUP3 ADD MSTORE DUP3 PUSH2 0x100 DUP3 ADD MSTORE DUP3 PUSH2 0x120 DUP3 ADD MSTORE DUP3 PUSH2 0x140 DUP3 ADD MSTORE DUP3 PUSH2 0x160 DUP3 ADD MSTORE DUP3 PUSH2 0x180 DUP3 ADD MSTORE DUP3 PUSH2 0x1A0 DUP3 ADD MSTORE DUP3 PUSH2 0x1C0 DUP3 ADD MSTORE ADD MSTORE JUMP JUMPDEST SWAP1 PUSH1 0x40 MLOAD PUSH2 0x1E52 DUP2 PUSH2 0x1851 JUMP JUMPDEST DUP3 SLOAD DUP2 MSTORE PUSH1 0x1 DUP4 ADD SLOAD PUSH1 0x1 PUSH1 0x1 PUSH1 0xA0 SHL SUB AND PUSH1 0x20 DUP3 ADD MSTORE SWAP2 DUP3 SWAP1 PUSH2 0x1E78 PUSH1 0x2 DUP3 ADD PUSH2 0x18AC JUMP JUMPDEST PUSH1 0x40 DUP4 ADD MSTORE PUSH1 0x3 DUP2 ADD SLOAD PUSH1 0x60 DUP4 ADD MSTORE PUSH1 0xFF PUSH1 0x4 DUP3 ADD SLOAD AND ISZERO ISZERO PUSH1 0x80 DUP4 ADD MSTORE PUSH2 0x1EA2 PUSH1 0x5 DUP3 ADD PUSH2 0x18AC JUMP JUMPDEST PUSH1 0xA0 DUP4 ADD MSTORE PUSH1 0xFF PUSH1 0x6 DUP3 ADD SLOAD AND ISZERO ISZERO PUSH1 0xC0 DUP4 ADD MSTORE PUSH1 0x7 DUP2 ADD SLOAD PUSH1 0xE0 DUP4 ADD MSTORE PUSH1 0x8 DUP2 ADD SLOAD PUSH2 0x100 DUP4 ADD MSTORE PUSH1 0x9 DUP2 ADD SLOAD PUSH2 0x120 DUP4 ADD MSTORE PUSH1 0xA DUP2 ADD SLOAD PUSH2 0x140 DUP4 ADD MSTORE PUSH1 0xFF PUSH1 0xB DUP3 ADD SLOAD AND PUSH1 0x5 DUP2 LT ISZERO PUSH2 0x2F8 JUMPI PUSH2 0x1E0 SWAP2 PUSH1 0xF SWAP2 PUSH2 0x160 DUP6 ADD MSTORE PUSH1 0xC DUP2 ADD SLOAD PUSH2 0x180 DUP6 ADD MSTORE PUSH1 0xD DUP2 ADD SLOAD PUSH2 0x1A0 DUP6 ADD MSTORE PUSH1 0xE DUP2 ADD SLOAD PUSH2 0x1C0 DUP6 ADD MSTORE ADD SLOAD SWAP2 ADD MSTORE JUMP JUMPDEST DUP1 MLOAD DUP3 LT ISZERO PUSH2 0x1801 JUMPI PUSH1 0x20 SWAP2 PUSH1 0x5 SHL ADD ADD SWAP1 JUMP JUMPDEST PUSH8 0xFFFFFFFFFFFFFFFF DUP2 GT PUSH2 0xEE4 JUMPI PUSH1 0x5 SHL PUSH1 0x20 ADD SWAP1 JUMP INVALID LOG2 PUSH5 0x6970667358 0x22 SLT KECCAK256 CREATE SWAP7 POP 0xC LT 0xB2 CHAINID 0xDC PUSH23 0xD6AB38C18159AAB151E97DDE3ADC66CFCF28180298D820 PUSH5 0x736F6C6343 STOP ADDMOD EQ STOP CALLER 0x2F DUP8 DUP9 GT PUSH31 0x7EFF1D82E926EC794901D17C78024A50270940304540A733656F0D00000000 "},"methodIdentifiers":{"DEFAULT_ADMIN_ROLE()":"a217fddf","EXECUTOR_ROLE()":"07bd0265","MAX_TRIGGER_DURATION()":"ffd581b6","MIN_TRIGGER_DURATION()":"13ae981b","activeTriggerCount()":"4e712fb8","cancelTrigger(uint256)":"d45ddd9c","checkTrigger(uint256,uint256)":"4efc9c85","createTrigger(string,uint256,bool,string,bool,uint256,uint256,uint256)":"5f330929","getActiveTriggerCount()":"5a487ef6","getRoleAdmin(bytes32)":"248a9ca3","getTrigger(uint256)":"9c50472b","getUserActiveTriggers(address)":"aefed8ff","getUserTriggers(address)":"71876a16","grantRole(bytes32,address)":"2f2ff15d","hasRole(bytes32,address)":"91d14854","markExecuted(uint256,uint256,bytes32)":"86b9d16e","markExpired(uint256[])":"681475e8","markFailed(uint256,string)":"3940fda4","nextTriggerId()":"42227fa4","pause()":"8456cb59","paused()":"5c975abb","renounceRole(bytes32,address)":"36568abe","revokeRole(bytes32,address)":"d547741f","supportsInterface(bytes4)":"01ffc9a7","triggerFee()":"f6837157","triggers(uint256)":"a78dd42e","unpause()":"3f4ba83a","updateTriggerFee(uint256)":"b71e83c4","userTriggers(address,uint256)":"a3498325","withdrawFees()":"476343ee"}},"storageLayout":{"storage":[{"astId":27,"contract":"contracts/TriggerContract.sol:TriggerContract","label":"_roles","offset":0,"slot":"0","type":"t_mapping(t_bytes32,t_struct(RoleData)22_storage)"},{"astId":1284,"contract":"contracts/TriggerContract.sol:TriggerContract","label":"_paused","offset":0,"slot":"1","type":"t_bool"},{"astId":1394,"contract":"contracts/TriggerContract.sol:TriggerContract","label":"_status","offset":0,"slot":"2","type":"t_uint256"},{"astId":2659,"contract":"contracts/TriggerContract.sol:TriggerContract","label":"triggerFee","offset":0,"slot":"3","type":"t_uint256"},{"astId":2711,"contract":"contracts/TriggerContract.sol:TriggerContract","label":"triggers","offset":0,"slot":"4","type":"t_mapping(t_uint256,t_struct(Trigger)2706_storage)"},{"astId":2716,"contract":"contracts/TriggerContract.sol:TriggerContract","label":"userTriggers","offset":0,"slot":"5","type":"t_mapping(t_address,t_array(t_uint256)dyn_storage)"},{"astId":2719,"contract":"contracts/TriggerContract.sol:TriggerContract","label":"nextTriggerId","offset":0,"slot":"6","type":"t_uint256"},{"astId":2721,"contract":"contracts/TriggerContract.sol:TriggerContract","label":"activeTriggerCount","offset":0,"slot":"7","type":"t_uint256"}],"types":{"t_address":{"encoding":"inplace","label":"address","numberOfBytes":"20"},"t_array(t_uint256)dyn_storage":{"base":"t_uint256","encoding":"dynamic_array","label":"uint256[]","numberOfBytes":"32"},"t_bool":{"encoding":"inplace","label":"bool","numberOfBytes":"1"},"t_bytes32":{"encoding":"inplace","label":"bytes32","numberOfBytes":"32"},"t_enum(TriggerStatus)2671":{"encoding":"inplace","label":"enum TriggerContract.TriggerStatus","numberOfBytes":"1"},"t_mapping(t_address,t_array(t_uint256)dyn_storage)":{"encoding":"mapping","key":"t_address","label":"mapping(address => uint256[])","numberOfBytes":"32","value":"t_array(t_uint256)dyn_storage"},"t_mapping(t_address,t_bool)":{"encoding":"mapping","key":"t_address","label":"mapping(address => bool)","numberOfBytes":"32","value":"t_bool"},"t_mapping(t_bytes32,t_struct(RoleData)22_storage)":{"encoding":"mapping","key":"t_bytes32","label":"mapping(bytes32 => struct AccessControl.RoleData)","numberOfBytes":"32","value":"t_struct(RoleData)22_storage"},"t_mapping(t_uint256,t_struct(Trigger)2706_storage)":{"encoding":"mapping","key":"t_uint256","label":"mapping(uint256 => struct TriggerContract.Trigger)","numberOfBytes":"32","value":"t_struct(Trigger)2706_storage"},"t_string_storage":{"encoding":"bytes","label":"string","numberOfBytes":"32"},"t_struct(RoleData)22_storage":{"encoding":"inplace","label":"struct AccessControl.RoleData","members":[{"astId":19,"contract":"contracts/TriggerContract.sol:TriggerContract","label":"hasRole","offset":0,"slot":"0","type":"t_mapping(t_address,t_bool)"},{"astId":21,"contract":"contracts/TriggerContract.sol:TriggerContract","label":"adminRole","offset":0,"slot":"1","type":"t_bytes32"}],"numberOfBytes":"64"},"t_struct(Trigger)2706_storage":{"encoding":"inplace","label":"struct TriggerContract.Trigger","members":[{"astId":2674,"contract":"contracts/TriggerContract.sol:TriggerContract","label":"id","offset":0,"slot":"0","type":"t_uint256"},{"astId":2676,"contract":"contracts/TriggerContract.sol:TriggerContract","label":"user","offset":0,"slot":"1","type":"t_address"},{"astId":2678,"contract":"contracts/TriggerContract.sol:TriggerContract","label":"watchAsset","offset":0,"slot":"2","type":"t_string_storage"},{"astId":2680,"contract":"contracts/TriggerContract.sol:TriggerContract","label":"targetPrice","offset":0,"slot":"3","type":"t_uint256"},{"astId":2682,"contract":"contracts/TriggerContract.sol:TriggerContract","label":"isAbove","offset":0,"slot":"4","type":"t_bool"},{"astId":2684,"contract":"contracts/TriggerContract.sol:TriggerContract","label":"tradeAsset","offset":0,"slot":"5","type":"t_string_storage"},{"astId":2686,"contract":"contracts/TriggerContract.sol:TriggerContract","label":"isBuy","offset":0,"slot":"6","type":"t_bool"},{"astId":2688,"contract":"contracts/TriggerContract.sol:TriggerContract","label":"amount","offset":0,"slot":"7","type":"t_uint256"},{"astId":2690,"contract":"contracts/TriggerContract.sol:TriggerContract","label":"maxSlippage","offset":0,"slot":"8","type":"t_uint256"},{"astId":2692,"contract":"contracts/TriggerContract.sol:TriggerContract","label":"createdAt","offset":0,"slot":"9","type":"t_uint256"},{"astId":2694,"contract":"contracts/TriggerContract.sol:TriggerContract","label":"expiresAt","offset":0,"slot":"10","type":"t_uint256"},{"astId":2697,"contract":"contracts/TriggerContract.sol:TriggerContract","label":"status","offset":0,"slot":"11","type":"t_enum(TriggerStatus)2671"},{"astId":2699,"contract":"contracts/TriggerContract.sol:TriggerContract","label":"feePaid","offset":0,"slot":"12","type":"t_uint256"},{"astId":2701,"contract":"contracts/TriggerContract.sol:TriggerContract","label":"executedAt","offset":0,"slot":"13","type":"t_uint256"},{"astId":2703,"contract":"contracts/TriggerContract.sol:TriggerContract","label":"executionPrice","offset":0,"slot":"14","type":"t_uint256"},{"astId":2705,"contract":"contracts/TriggerContract.sol:TriggerContract","label":"executionTxHash","offset":0,"slot":"15","type":"t_bytes32"}],"numberOfBytes":"512"},"t_uint256":{"encoding":"inplace","label":"uint256","numberOfBytes":"32"}}}}}}