{"contracts/TriggerContract.sol":{"TriggerContract":{"abi":[{"inputs":[],"stateMutability":"nonpayable","type":"constructor"},{"inputs":[],"name":"AccessControlBadConfirmation","type":"error"},{"inputs":[{"internalType":"address","name":"account","type":"address"},{"internalType":"bytes32","name":"neededRole","type":"bytes32"}],"name":"AccessControlUnauthorizedAccount","type":"error"},{"inputs":[],"name":"EnforcedPause","type":"error"},{"inputs":[],"name":"ExpectedPause","type":"error"},{"inputs":[],"name":"ReentrancyGuardReentrantCall","type":"error"},{"anonymous":false,"inputs":[{"indexed":false,"internalType":"string","name":"asset","type":"string"},{"indexed":false,"internalType":"uint32","name":"spotIndex","type":"uint32"}],"name":"AssetIndexSet","type":"event"},{"anonymous":false,"inputs":[{"indexed":false,"internalType":"uint256","name":"newFee","type":"uint256"}],"name":"FeeUpdated","type":"event"},{"anonymous":false,"inputs":[{"indexed":false,"internalType":"bool","name":"required","type":"bool"}],"name":"OracleVerificationUpdated","type":"event"},{"anonymous":false,"inputs":[{"indexed":false,"internalType":"address","name":"account","type":"address"}],"name":"Paused","type":"event"},{"anonymous":false,"inputs":[{"indexed":false,"internalType":"uint256","name":"newMaxDeviation","type":"uint256"}],"name":"PriceDeviationUpdated","type":"event"},{"anonymous":false,"inputs":[{"indexed":true,"internalType":"bytes32","name":"role","type":"bytes32"},{"indexed":true,"internalType":"bytes32","name":"previousAdminRole","type":"bytes32"},{"indexed":true,"internalType":"bytes32","name":"newAdminRole","type":"bytes32"}],"name":"RoleAdminChanged","type":"event"},{"anonymous":false,"inputs":[{"indexed":true,"internalType":"bytes32","name":"role","type":"bytes32"},{"indexed":true,"internalType":"address","name":"account","type":"address"},{"indexed":true,"internalType":"address","name":"sender","type":"address"}],"name":"RoleGranted","type":"event"},{"anonymous":false,"inputs":[{"indexed":true,"internalType":"bytes32","name":"role","type":"bytes32"},{"indexed":true,"internalType":"address","name":"account","type":"address"},{"indexed":true,"internalType":"address","name":"sender","type":"address"}],"name":"RoleRevoked","type":"event"},{"anonymous":false,"inputs":[{"indexed":true,"internalType":"uint256","name":"triggerId","type":"uint256"},{"indexed":true,"internalType":"address","name":"user","type":"address"}],"name":"TriggerCancelled","type":"event"},{"anonymous":false,"inputs":[{"indexed":true,"internalType":"uint256","name":"triggerId","type":"uint256"},{"indexed":true,"internalType":"address","name":"user","type":"address"},{"indexed":false,"internalType":"string","name":"watchAsset","type":"string"},{"indexed":false,"internalType":"uint256","name":"targetPrice","type":"uint256"},{"indexed":false,"internalType":"bool","name":"isAbove","type":"bool"},{"indexed":false,"internalType":"string","name":"tradeAsset","type":"string"},{"indexed":false,"internalType":"bool","name":"isBuy","type":"bool"},{"indexed":false,"internalType":"uint256","name":"amount","type":"uint256"}],"name":"TriggerCreated","type":"event"},{"anonymous":false,"inputs":[{"indexed":true,"internalType":"uint256","name":"triggerId","type":"uint256"},{"indexed":true,"internalType":"address","name":"executor","type":"address"},{"indexed":false,"internalType":"uint256","name":"executionPrice","type":"uint256"},{"indexed":false,"internalType":"bytes32","name":"executionTxHash","type":"bytes32"}],"name":"TriggerExecuted","type":"event"},{"anonymous":false,"inputs":[{"indexed":true,"internalType":"uint256","name":"triggerId","type":"uint256"}],"name":"TriggerExpired","type":"event"},{"anonymous":false,"inputs":[{"indexed":true,"internalType":"uint256","name":"triggerId","type":"uint256"},{"indexed":false,"internalType":"string","name":"reason","type":"string"}],"name":"TriggerFailed","type":"event"},{"anonymous":false,"inputs":[{"indexed":false,"internalType":"address","name":"account","type":"address"}],"name":"Unpaused","type":"event"},{"inputs":[],"name":"DEFAULT_ADMIN_ROLE","outputs":[{"internalType":"bytes32","name":"","type":"bytes32"}],"stateMutability":"view","type":"function"},{"inputs":[],"name":"EXECUTOR_ROLE","outputs":[{"internalType":"bytes32","name":"","type":"bytes32"}],"stateMutability":"view","type":"function"},{"inputs":[],"name":"MAX_TRIGGER_DURATION","outputs":[{"internalType":"uint256","name":"","type":"uint256"}],"stateMutability":"view","type":"function"},{"inputs":[],"name":"MIN_TRIGGER_DURATION","outputs":[{"internalType":"uint256","name":"","type":"uint256"}],"stateMutability":"view","type":"function"},{"inputs":[],"name":"activeTriggerCount","outputs":[{"internalType":"uint256","name":"","type":"uint256"}],"stateMutability":"view","type":"function"},{"inputs":[{"internalType":"string","name":"","type":"string"}],"name":"assetToSpotIndex","outputs":[{"internalType":"uint32","name":"","type":"uint32"}],"stateMutability":"view","type":"function"},{"inputs":[{"internalType":"uint256","name":"triggerId","type":"uint256"}],"name":"cancelTrigger","outputs":[],"stateMutability":"nonpayable","type":"function"},{"inputs":[{"internalType":"uint256","name":"triggerId","type":"uint256"},{"internalType":"uint256","name":"currentPrice","type":"uint256"}],"name":"checkTrigger","outputs":[{"internalType":"bool","name":"shouldExecute","type":"bool"},{"internalType":"string","name":"reason","type":"string"}],"stateMutability":"view","type":"function"},{"inputs":[{"internalType":"string","name":"watchAsset","type":"string"},{"internalType":"uint256","name":"targetPrice","type":"uint256"},{"internalType":"bool","name":"isAbove","type":"bool"},{"internalType":"string","name":"tradeAsset","type":"string"},{"internalType":"bool","name":"isBuy","type":"bool"},{"internalType":"uint256","name":"amount","type":"uint256"},{"internalType":"uint256","name":"maxSlippage","type":"uint256"},{"internalType":"uint256","name":"durationHours","type":"uint256"}],"name":"createTrigger","outputs":[{"internalType":"uint256","name":"triggerId","type":"uint256"}],"stateMutability":"payable","type":"function"},{"inputs":[],"name":"getActiveTriggerCount","outputs":[{"internalType":"uint256","name":"","type":"uint256"}],"stateMutability":"view","type":"function"},{"inputs":[{"internalType":"string","name":"asset","type":"string"}],"name":"getOraclePrice","outputs":[{"internalType":"uint64","name":"price","type":"uint64"},{"internalType":"bool","name":"valid","type":"bool"}],"stateMutability":"view","type":"function"},{"inputs":[{"internalType":"bytes32","name":"role","type":"bytes32"}],"name":"getRoleAdmin","outputs":[{"internalType":"bytes32","name":"","type":"bytes32"}],"stateMutability":"view","type":"function"},{"inputs":[{"internalType":"uint256","name":"triggerId","type":"uint256"}],"name":"getTrigger","outputs":[{"components":[{"internalType":"uint256","name":"id","type":"uint256"},{"internalType":"address","name":"user","type":"address"},{"internalType":"string","name":"watchAsset","type":"string"},{"internalType":"uint256","name":"targetPrice","type":"uint256"},{"internalType":"bool","name":"isAbove","type":"bool"},{"internalType":"string","name":"tradeAsset","type":"string"},{"internalType":"bool","name":"isBuy","type":"bool"},{"internalType":"uint256","name":"amount","type":"uint256"},{"internalType":"uint256","name":"maxSlippage","type":"uint256"},{"internalType":"uint256","name":"createdAt","type":"uint256"},{"internalType":"uint256","name":"expiresAt","type":"uint256"},{"internalType":"enum TriggerContract.TriggerStatus","name":"status","type":"uint8"},{"internalType":"uint256","name":"feePaid","type":"uint256"},{"internalType":"uint256","name":"executedAt","type":"uint256"},{"internalType":"uint256","name":"executionPrice","type":"uint256"},{"internalType":"bytes32","name":"executionTxHash","type":"bytes32"}],"internalType":"struct TriggerContract.Trigger","name":"","type":"tuple"}],"stateMutability":"view","type":"function"},{"inputs":[{"internalType":"address","name":"user","type":"address"}],"name":"getUserActiveTriggers","outputs":[{"components":[{"internalType":"uint256","name":"id","type":"uint256"},{"internalType":"address","name":"user","type":"address"},{"internalType":"string","name":"watchAsset","type":"string"},{"internalType":"uint256","name":"targetPrice","type":"uint256"},{"internalType":"bool","name":"isAbove","type":"bool"},{"internalType":"string","name":"tradeAsset","type":"string"},{"internalType":"bool","name":"isBuy","type":"bool"},{"internalType":"uint256","name":"amount","type":"uint256"},{"internalType":"uint256","name":"maxSlippage","type":"uint256"},{"internalType":"uint256","name":"createdAt","type":"uint256"},{"internalType":"uint256","name":"expiresAt","type":"uint256"},{"internalType":"enum TriggerContract.TriggerStatus","name":"status","type":"uint8"},{"internalType":"uint256","name":"feePaid","type":"uint256"},{"internalType":"uint256","name":"executedAt","type":"uint256"},{"internalType":"uint256","name":"executionPrice","type":"uint256"},{"internalType":"bytes32","name":"executionTxHash","type":"bytes32"}],"internalType":"struct TriggerContract.Trigger[]","name":"","type":"tuple[]"}],"stateMutability":"view","type":"function"},{"inputs":[{"internalType":"address","name":"user","type":"address"}],"name":"getUserTriggers","outputs":[{"internalType":"uint256[]","name":"","type":"uint256[]"}],"stateMutability":"view","type":"function"},{"inputs":[{"internalType":"bytes32","name":"role","type":"bytes32"},{"internalType":"address","name":"account","type":"address"}],"name":"grantRole","outputs":[],"stateMutability":"nonpayable","type":"function"},{"inputs":[{"internalType":"bytes32","name":"role","type":"bytes32"},{"internalType":"address","name":"account","type":"address"}],"name":"hasRole","outputs":[{"internalType":"bool","name":"","type":"bool"}],"stateMutability":"view","type":"function"},{"inputs":[{"internalType":"uint256","name":"triggerId","type":"uint256"},{"internalType":"uint256","name":"executionPrice","type":"uint256"},{"internalType":"bytes32","name":"executionTxHash","type":"bytes32"}],"name":"markExecuted","outputs":[],"stateMutability":"nonpayable","type":"function"},{"inputs":[{"internalType":"uint256[]","name":"triggerIds","type":"uint256[]"}],"name":"markExpired","outputs":[],"stateMutability":"nonpayable","type":"function"},{"inputs":[{"internalType":"uint256","name":"triggerId","type":"uint256"},{"internalType":"string","name":"reason","type":"string"}],"name":"markFailed","outputs":[],"stateMutability":"nonpayable","type":"function"},{"inputs":[],"name":"maxPriceDeviation","outputs":[{"internalType":"uint256","name":"","type":"uint256"}],"stateMutability":"view","type":"function"},{"inputs":[],"name":"nextTriggerId","outputs":[{"internalType":"uint256","name":"","type":"uint256"}],"stateMutability":"view","type":"function"},{"inputs":[],"name":"pause","outputs":[],"stateMutability":"nonpayable","type":"function"},{"inputs":[],"name":"paused","outputs":[{"internalType":"bool","name":"","type":"bool"}],"stateMutability":"view","type":"function"},{"inputs":[{"internalType":"uint256","name":"startId","type":"uint256"},{"internalType":"uint256","name":"endId","type":"uint256"}],"name":"recalculateActiveTriggerCount","outputs":[],"stateMutability":"nonpayable","type":"function"},{"inputs":[{"internalType":"bytes32","name":"role","type":"bytes32"},{"internalType":"address","name":"callerConfirmation","type":"address"}],"name":"renounceRole","outputs":[],"stateMutability":"nonpayable","type":"function"},{"inputs":[],"name":"requireOracleVerification","outputs":[{"internalType":"bool","name":"","type":"bool"}],"stateMutability":"view","type":"function"},{"inputs":[{"internalType":"bytes32","name":"role","type":"bytes32"},{"internalType":"address","name":"account","type":"address"}],"name":"revokeRole","outputs":[],"stateMutability":"nonpayable","type":"function"},{"inputs":[{"internalType":"string","name":"asset","type":"string"},{"internalType":"uint32","name":"spotIndex","type":"uint32"}],"name":"setAssetIndex","outputs":[],"stateMutability":"nonpayable","type":"function"},{"inputs":[{"internalType":"string[]","name":"assets","type":"string[]"},{"internalType":"uint32[]","name":"spotIndexes","type":"uint32[]"}],"name":"setAssetIndexes","outputs":[],"stateMutability":"nonpayable","type":"function"},{"inputs":[{"internalType":"bool","name":"required","type":"bool"}],"name":"setRequireOracleVerification","outputs":[],"stateMutability":"nonpayable","type":"function"},{"inputs":[{"internalType":"bytes4","name":"interfaceId","type":"bytes4"}],"name":"supportsInterface","outputs":[{"internalType":"bool","name":"","type":"bool"}],"stateMutability":"view","type":"function"},{"inputs":[],"name":"triggerFee","outputs":[{"internalType":"uint256","name":"","type":"uint256"}],"stateMutability":"view","type":"function"},{"inputs":[{"internalType":"uint256","name":"","type":"uint256"}],"name":"triggers","outputs":[{"internalType":"uint256","name":"id","type":"uint256"},{"internalType":"address","name":"user","type":"address"},{"internalType":"string","name":"watchAsset","type":"string"},{"internalType":"uint256","name":"targetPrice","type":"uint256"},{"internalType":"bool","name":"isAbove","type":"bool"},{"internalType":"string","name":"tradeAsset","type":"string"},{"internalType":"bool","name":"isBuy","type":"bool"},{"internalType":"uint256","name":"amount","type":"uint256"},{"internalType":"uint256","name":"maxSlippage","type":"uint256"},{"internalType":"uint256","name":"createdAt","type":"uint256"},{"internalType":"uint256","name":"expiresAt","type":"uint256"},{"internalType":"enum TriggerContract.TriggerStatus","name":"status","type":"uint8"},{"internalType":"uint256","name":"feePaid","type":"uint256"},{"internalType":"uint256","name":"executedAt","type":"uint256"},{"internalType":"uint256","name":"executionPrice","type":"uint256"},{"internalType":"bytes32","name":"executionTxHash","type":"bytes32"}],"stateMutability":"view","type":"function"},{"inputs":[],"name":"unpause","outputs":[],"stateMutability":"nonpayable","type":"function"},{"inputs":[{"internalType":"uint256","name":"newMaxDeviation","type":"uint256"}],"name":"updateMaxPriceDeviation","outputs":[],"stateMutability":"nonpayable","type":"function"},{"inputs":[{"internalType":"uint256","name":"newFee","type":"uint256"}],"name":"updateTriggerFee","outputs":[],"stateMutability":"nonpayable","type":"function"},{"inputs":[{"internalType":"uint256","name":"oldTriggerId","type":"uint256"},{"internalType":"uint256","name":"newTargetPrice","type":"uint256"},{"internalType":"bool","name":"newIsAbove","type":"bool"}],"name":"updateTriggerPrice","outputs":[{"internalType":"uint256","name":"newTriggerId","type":"uint256"}],"stateMutability":"payable","type":"function"},{"inputs":[{"internalType":"address","name":"","type":"address"},{"internalType":"uint256","name":"","type":"uint256"}],"name":"userTriggers","outputs":[{"internalType":"uint256","name":"","type":"uint256"}],"stateMutability":"view","type":"function"},{"inputs":[{"internalType":"string","name":"asset","type":"string"},{"internalType":"uint256","name":"executionPrice","type":"uint256"}],"name":"verifyPriceWithOracle","outputs":[{"internalType":"bool","name":"valid","type":"bool"}],"stateMutability":"view","type":"function"},{"inputs":[],"name":"withdrawFees","outputs":[],"stateMutability":"nonpayable","type":"function"},{"stateMutability":"payable","type":"receive"}],"evm":{"bytecode":{"linkReferences":{},"object":"6080604052346200005657600160025566038d7ea4c6800060035560c860045560ff1960055416600555600160085562000039336200005b565b506200004533620000db565b50604051612dd190816200017e8239f35b600080fd5b6001600160a01b031660008181527fad3228b676f7d3cd4284a5443f17f1962b36e491b30a40b2405849e597ba5fb5602052604081205490919060ff16620000d757818052816020526040822081835260205260408220600160ff19825416179055339160008051602062002f4f8339815191528180a4600190565b5090565b6001600160a01b031660008181527fdae2aa361dfd1ca020a396615627d436107c35eff9fe7738a3512819782d706960205260408120549091907fd8aa0f3194971a2a116679f7c2090f6939c8d4e01a2a8d7e41d55e5351469e639060ff166200017857808352826020526040832082845260205260408320600160ff1982541617905560008051602062002f4f833981519152339380a4600190565b50509056fe60a080604052600436101561001d575b50361561001b57600080fd5b005b60003560e01c90816301ffc9a7146120a557508063069a7f871461204357806307bd02651461200857806313ae981b14611feb5780631816168414611f89578063248a9ca314611f5a57806324f1c5c114611eca5780632a1b3fd314611d825780632f2ff15d14611d4357806336568abe14611cfc5780633940fda414611c3157806339f0825114611c0e5780633a90f05014611b6b5780633f4ba83a14611b0157806342227fa414611ae3578063476343ee14611a365780634e712fb8146119e25780634efc9c8514611a005780635a487ef6146119e25780635c975abb146119bf5780635f330929146112ed57806365672a7f146112a5578063681475e8146111ae57806371001300146110c257806371876a161461100e5780638456cb5914610fb557806386b9d16e14610e7a57806391d1485414610e2d578063975b866214610e0f5780639c50472b14610dc2578063a217fddf14610da6578063a349832514610d4e578063a78dd42e14610c04578063aefed8ff146109f6578063b71e83c4146109aa578063d45ddd9c14610895578063d547741f14610856578063e2a2496c1461027a578063f5a908f01461022e578063f6837157146102105763ffd581b6146101ed573861000f565b3461020b57600036600319011261020b57602060405162278d008152f35b600080fd5b3461020b57600036600319011261020b576020600354604051908152f35b3461020b57602036600319011261020b576004356001600160401b0380821161020b5761026961026460409336906004016121b1565b6127f8565b909183519216825215156020820152f35b606036600319011261020b576004356102916120f8565b6102996127b9565b6102a16127d7565b8160005260066020526040600020916102c760018060a01b0360018501541633146129c1565b600b83019182549360ff85166005811015610662576102e69015612973565b6102f36024351515612672565b6102ff600282016123ff565b61036a61030e600584016123ff565b9660ff600685015416956007850154976002600c60088801549701549360ff191617905560095480610844575b5033907f71b273ecdaf2f86cf04941c16ff6f1eae913cbfbeef44422d9c1c39847854d13600080a33490612739565b946103796003548710156126de565b600854956103868761272a565b600855620151804201421161082e57604051936103a285612107565b878552336020860152836040860152602435606086015285151560808601528860a086015286151560c08601528260e086015261010085015242610120850152620151804201610140850152600061016085015261018084015260006101a084015260006101c084015260006101e0840152856000526006602052604060002093835185556001850160018060a01b036020860151166bffffffffffffffffffffffff60a01b82541617905560408401518051906001600160401b03821161074857819061047360028901546123c5565b601f81116107db575b50602090601f83116001146107695760009261075e575b50508160011b916000199060031b1c19161760028601555b606084015160038601556104d460808501511515600487019060ff801983541691151516179055565b60a08401518051906001600160401b0382116107485781906104f960058901546123c5565b601f81116106f5575b50602090601f831160011461068357600092610678575b50508160011b916000199060031b1c19161760058601555b61055060c08501511515600687019060ff801983541691151516179055565b60e0840151600786015561010084015160088601556101208401516009860155610140840151600a8601556101608401519060058210156106625760209886600f6101e07fea8640de2f174f1fa43c2fa556863133caabcfbbb2e37626b2a0239f4f84b006986105c761064297600b8f9d01612746565b610180810151600c8501556101a0810151600d8501556101c0810151600e85015501519101553360005260078a5261060387604060002061275e565b61060e60095461272a565b6009556106266040519560c0875260c0870190612291565b916024358b870152151560408601528482036060860152612291565b941515608083015260a08201528033940390a36001600255604051908152f35b634e487b7160e01b600052602160045260246000fd5b015190508a80610519565b9250600588016000526020600020906000935b601f19841685106106da576001945083601f198116106106c1575b505050811b016005860155610531565b015160001960f88460031b161c191690558a80806106b1565b81810151835560209485019460019093019290910190610696565b909150600588016000526020600020601f840160051c810160208510610741575b90849392915b601f830160051c82018110610732575050610502565b6000815585945060010161071c565b5080610716565b634e487b7160e01b600052604160045260246000fd5b015190508a80610493565b9250600288016000526020600020906000935b601f19841685106107c0576001945083601f198116106107a7575b505050811b0160028601556104ab565b015160001960f88460031b161c191690558a8080610797565b8181015183556020948501946001909301929091019061077c565b909150600288016000526020600020601f840160051c810160208510610827575b90849392915b601f830160051c8201811061081857505061047c565b60008155859450600101610802565b50806107fc565b634e487b7160e01b600052601160045260246000fd5b61084d906129b4565b6009558961033b565b3461020b57604036600319011261020b5761001b600435610875612222565b90806000526000602052610890600160406000200154612559565b6125fd565b3461020b57602036600319011261020b576004356108b16127d7565b80600052600660205260406000206108d660018060a01b0360018301541633146129c1565b600b810180549160ff83166005811015610662576002916108f9600c9215612973565b01549260ff191617905560095480610998575b5080610942575b5033907f71b273ecdaf2f86cf04941c16ff6f1eae913cbfbeef44422d9c1c39847854d13600080a36001600255005b600080808093335af1610953612a01565b501561095f5781610913565b60405162461bcd60e51b8152602060048201526011602482015270119959481c99599d5b990819985a5b1959607a1b6044820152606490fd5b6109a1906129b4565b6009558261090c565b3461020b57602036600319011261020b577f8c4d35e54a3f2ef1134138fd8ea3daee6a3c89e10d2665996babdf70261e2c7660206004356109e96124a5565b80600355604051908152a1005b3461020b5760208060031936011261020b576001600160a01b03610a18612238565b16600052600781526040600020604051808284829454938481520190600052846000209260005b86828210610bee5784610a548186038261213e565b60009160005b8251811015610ab357610a6d8184612cf9565b516000526006825260ff600b604060002001541660058110156106625715610a9e575b610a999061272a565b610a5a565b92610aab610a999161272a565b939050610a90565b508290610abf82612d0d565b91610acd604051938461213e565b808352610adc601f1991612d0d565b018160005b828110610bd8575050506000805b8451811015610b7a57610b028186612cf9565b5160005260069081845260ff600b604060002001541691600583101561066257610b329215610b37575b5061272a565b610aef565b610b418288612cf9565b516000528452610b73604060002093610b62610b5c8261272a565b95612c17565b610b6c8289612cf9565b5286612cf9565b5086610b2c565b604080518481528551818601819052600092600582901b830181019188880191889085015b828710610bac5785850386f35b909192938280610bc8600193603f198a820301865288516122c3565b9601920196019592919092610b9f565b610be0612b9f565b828287010152018290610ae1565b8554845260019586019587955093019201610a3f565b3461020b57602036600319011261020b576004356000908152600660205260409020805460018201546001600160a01b031691610c43600282016123ff565b92600382015493600483015460ff1660058401610c5f906123ff565b95600685015460ff16966007860154600887015490600988015492600a89015494600b8a015460ff1696600c8b015498600d8c01549a600e8d01549c600f01549d604051806080525260805160200152610200806080516040015260805101610cc791612291565b91608051606001521515608051608001526080518082039060a00152610cec91612291565b99151560805160c0015260805160e0015260805161010001526080516101200152608051610140015260805161016001610d25916122b6565b60805161018001526080516101a001526080516101c001526080516101e0015260805180910390f35b3461020b57604036600319011261020b57610d67612238565b6001600160a01b031660009081526007602052604090208054602435919082101561020b57602091610d9891612397565b90546040519160031b1c8152f35b3461020b57600036600319011261020b57602060405160008152f35b3461020b57602036600319011261020b57610ddb612b9f565b506004356000526006602052610e0b610df76040600020612c17565b6040519182916020835260208301906122c3565b0390f35b3461020b57600036600319011261020b576020600454604051908152f35b3461020b57604036600319011261020b57610e46612222565b600435600052600060205260406000209060018060a01b0316600052602052602060ff604060002054166040519015158152f35b3461020b57606036600319011261020b57602435600435604435610e9c6124fd565b8160005260066020526040600020600b81019081549060ff821691600583101561066257610ecb859315612973565b60ff60055416610f41575b926001600f939460ff191617905542600d82015585600e820155015560095480610f2f575b5060405192835260208301527ff88d635c6c9dd6ccf33792822b70c3b41dc8cf753aa4ef23ef86461731d31a7560403393a3005b610f38906129b4565b60095583610efb565b9150610f5886610f53600584016123ff565b6128ce565b15610f64578391610ed6565b60405162461bcd60e51b8152602060048201526024808201527f457865637574696f6e2070726963652064657669617465732066726f6d206f7260448201526361636c6560e01b6064820152608490fd5b3461020b57600036600319011261020b57610fce6124a5565b610fd66127b9565b600160ff19815416176001557f62e78cea01bee320cd4e420270b5ea74000d11b0c9f74754ebdbfc544b05a2586020604051338152a1005b3461020b5760208060031936011261020b576001600160a01b03611030612238565b1660005260078152604060002060405190818382549182815201908192600052846000209060005b868282106110ae57868661106e8288038361213e565b604051928392818401908285525180915260408401929160005b82811061109757505050500390f35b835185528695509381019392810192600101611088565b835485529093019260019283019201611058565b3461020b576110d03661227b565b6110d86124a5565b60085481116111775780821015611142576000915b8181106110fb576009839055005b80600052600660205260ff600b60406000200154166005811015610662571561112d575b6111289061272a565b6110ed565b9161113a6111289161272a565b92905061111f565b60405162461bcd60e51b815260206004820152600d60248201526c496e76616c69642072616e676560981b6044820152606490fd5b60405162461bcd60e51b815260206004820152600f60248201526e08adcc840928840e8dede40d0d2ced608b1b6044820152606490fd5b3461020b5760208060031936011261020b576004356001600160401b03811161020b576111df9036906004016121f2565b919060005b8381106111ed57005b6111f8818584612b8f565b3560005260068352604060002090600b8201805460ff81169360058510156106625761123394159081611297575b50611238575b505061272a565b6111e4565b60ff191660031790556009805480611285575b5050611258818685612b8f565b357f74bc747684c4bbf3e0b059e4c600406a6de5ae015fd108b0e5b0b98e71802fe5600080a2858061122c565b61128e906129b4565b9055858061124b565b600a91500154421188611226565b3461020b57604036600319011261020b576004356001600160401b03811161020b576112e36112da60209236906004016121b1565b602435906128ce565b6040519015158152f35b61010036600319011261020b576004356001600160401b03811161020b5761131990369060040161224e565b906113226120f8565b9060649081356001600160401b03811161020b5761134490369060040161224e565b909460843593841515850361020b5761135b6127b9565b6113636127d7565b811561198657821561194d5761137c6024351515612672565b60a435156119165761138860c435116118dc57600160e435106118a5576102d060e4351161186f57506113b36003543410156126de565b600854946113c08661272a565b600855610e1060e4358160e4350204811460e43515171561082e576113e99060e4350242612739565b90604051916113f783612107565b87835233602084015261140b36858861217a565b60408401526024356060840152811515608084015261142b36868b61217a565b60a084015286151560c084015260a43560e084015260c4356101008401524261012084015261014083015260006101608301523461018083015260006101a083015260006101c083015260006101e0830152866000526006602052604060002093825185556001850160018060a01b036020850151166bffffffffffffffffffffffff60a01b82541617905560408301518051906001600160401b0382116107485781906114dc60028901546123c5565b601f811161181c575b50602090601f83116001146117aa5760009261179f575b50508160011b916000199060031b1c19161760028601555b6060830151600386015561153d60808401511515600487019060ff801983541691151516179055565b60a08301518051906001600160401b03821161074857819061156260058901546123c5565b601f811161174c575b50602090601f83116001146116da576000926116cf575b50508160011b916000199060031b1c19161760058601555b6115b960c08401511515600687019060ff801983541691151516179055565b60e0830151600786015561010083015160088601556101208301516009860155610140830151600a8601556101608301519860058a101561066257611690899787600f6101e06116ac9860209f61163490600b7fea8640de2f174f1fa43c2fa556863133caabcfbbb2e37626b2a0239f4f84b0069e01612746565b610180810151600c8501556101a0810151600d8501556101c0810151600e85015501519101553360005260078c5261167089604060002061275e565b61167b60095461272a565b6009556040519660c0885260c0880191612798565b926024358b870152151560408601528483036060860152612798565b931515608082015260a43560a08201528033940390a36001600255604051908152f35b015190508b80611582565b9250600588016000526020600020906000935b601f1984168510611731576001945083601f19811610611718575b505050811b01600586015561159a565b015160001960f88460031b161c191690558b8080611708565b818101518355602094850194600190930192909101906116ed565b909150600588016000526020600020601f840160051c810160208510611798575b90849392915b601f830160051c8201811061178957505061156b565b60008155859450600101611773565b508061176d565b015190508b806114fc565b9250600288016000526020600020906000935b601f1984168510611801576001945083601f198116106117e8575b505050811b016002860155611514565b015160001960f88460031b161c191690558b80806117d8565b818101518355602094850194600190930192909101906117bd565b909150600288016000526020600020601f840160051c810160208510611868575b90849392915b601f830160051c820181106118595750506114e5565b60008155859450600101611843565b508061183d565b60405162461bcd60e51b81526020600482015260116024820152704475726174696f6e20746f6f206c6f6e6760781b6044820152fd5b60405162461bcd60e51b8152602060048201526012602482015271111d5c985d1a5bdb881d1bdbc81cda1bdc9d60721b6044820152fd5b60405162461bcd60e51b815260206004820152601560248201527409ac2f040e6d8d2e0e0c2ceca40e8dede40d0d2ced605b1b6044820152fd5b60405162461bcd60e51b81526020600482015260126024820152710416d6f756e74206d757374206265203e20360741b6044820152fd5b60405162461bcd60e51b8152602060048201526014602482015273151c98591948185cdcd95d081c995c5d5a5c995960621b6044820152fd5b60405162461bcd60e51b815260206004820152601460248201527315d85d18da08185cdcd95d081c995c5d5a5c995960621b6044820152fd5b3461020b57600036600319011261020b57602060ff600154166040519015158152f35b3461020b57600036600319011261020b576020600954604051908152f35b3461020b57611a17611a113661227b565b90612a31565b90610e0b60405192839215158352604060208401526040830190612291565b3461020b57600036600319011261020b57611a4f6124a5565b478015611aa857600080808093335af1611a67612a01565b5015611a6f57005b60405162461bcd60e51b815260206004820152601160248201527015da5d1a191c985dd85b0819985a5b1959607a1b6044820152606490fd5b60405162461bcd60e51b81526020600482015260136024820152724e6f206665657320746f20776974686472617760681b6044820152606490fd5b3461020b57600036600319011261020b576020600854604051908152f35b3461020b57600036600319011261020b57611b1a6124a5565b60015460ff811615611b595760ff19166001557f5db9ee0a495bf2e6ff9c91a7834c1ba4fdd244a5e8aa4e537bd38aeae4b073aa6020604051338152a1005b604051638dfc202b60e01b8152600490fd5b3461020b57604036600319011261020b576004356001600160401b03811161020b57611b9b90369060040161224e565b6024359163ffffffff831680840361020b577f4ce9f3693e41dabdc77c9be517202f5a1009a7fbeca72cfb83f61b86a77d24b593611c0991611bdb6124a5565b60405185858237602081878101600a8152030190209063ffffffff1982541617905560405193849384612d24565b0390a1005b3461020b57600036600319011261020b57602060ff600554166040519015158152f35b3461020b57604036600319011261020b576004356024356001600160401b03811161020b57611c6490369060040161224e565b90611c6d6124fd565b826000526006602052600b6040600020019182549260ff84166005811015610662577f1322c62b2b0266a20579a26b0ddfcf33e8b042d86ceb5fae7b05362ea44afa0394611cbd60049215612973565b60ff191617905560095480611cea575b50611ce5604051928392602084526020840191612798565b0390a2005b611cf3906129b4565b60095584611ccd565b3461020b57604036600319011261020b57611d15612222565b336001600160a01b03821603611d315761001b906004356125fd565b60405163334bd91960e11b8152600490fd5b3461020b57604036600319011261020b5761001b600435611d62612222565b90806000526000602052611d7d600160406000200154612559565b61257f565b3461020b57604036600319011261020b576001600160401b0360043581811161020b57611db39036906004016121f2565b9160243590811161020b57611dcc9036906004016121f2565b611dd79291926124a5565b808403611e8d5760005b848110611dea57005b80611e01611dfc611e88938588612b8f565b612d49565b63ffffffff6020611e13848a89612d5a565b91908260405193849283378101600a815203019020911663ffffffff198254161790557f4ce9f3693e41dabdc77c9be517202f5a1009a7fbeca72cfb83f61b86a77d24b5611e62828887612d5a565b90611e80611e74611dfc86898c612b8f565b60405193849384612d24565b0390a161272a565b611de1565b60405162461bcd60e51b8152602060048201526015602482015274082e4e4c2f240d8cadccee8d040dad2e6dac2e8c6d605b1b6044820152606490fd5b3461020b57602036600319011261020b57600435611ee66124a5565b6103e88111611f20576020817f0ab56de9fe168ce12a9a1f47b688d739db6607607c1d71dad52ddd8bedcf5e2592600455604051908152a1005b60405162461bcd60e51b8152602060048201526012602482015271088caecd2c2e8d2dedc40e8dede40d0d2ced60731b6044820152606490fd5b3461020b57602036600319011261020b5760043560005260006020526020600160406000200154604051908152f35b3461020b57602036600319011261020b576004356001600160401b03811161020b5763ffffffff611fd76020611fc4819436906004016121b1565b81604051938285809451938492016121cf565b8101600a8152030190205416604051908152f35b3461020b57600036600319011261020b576020604051610e108152f35b3461020b57600036600319011261020b5760206040517fd8aa0f3194971a2a116679f7c2090f6939c8d4e01a2a8d7e41d55e5351469e638152f35b3461020b57602036600319011261020b5760043580151580910361020b5760207faa226f1d60857bdc1d6e53c2da65e2f6e4114ca84f8a5a340f3c2262c70e98e49161208d6124a5565b60ff196005541660ff821617600555604051908152a1005b3461020b57602036600319011261020b576004359063ffffffff60e01b821680920361020b57602091637965db0b60e01b81149081156120e7575b5015158152f35b6301ffc9a760e01b149050836120e0565b60443590811515820361020b57565b61020081019081106001600160401b0382111761074857604052565b604081019081106001600160401b0382111761074857604052565b90601f801991011681019081106001600160401b0382111761074857604052565b6001600160401b03811161074857601f01601f191660200190565b9291926121868261215f565b91612194604051938461213e565b82948184528183011161020b578281602093846000960137010152565b9080601f8301121561020b578160206121cc9335910161217a565b90565b60005b8381106121e25750506000910152565b81810151838201526020016121d2565b9181601f8401121561020b578235916001600160401b03831161020b576020808501948460051b01011161020b57565b602435906001600160a01b038216820361020b57565b600435906001600160a01b038216820361020b57565b9181601f8401121561020b578235916001600160401b03831161020b576020838186019501011161020b57565b604090600319011261020b576004359060243590565b906020916122aa815180928185528580860191016121cf565b601f01601f1916010190565b9060058210156106625752565b908151815260018060a01b03602083015116602082015261231e6122f66040840151610200806040860152840190612291565b6060840151606084015260808401511515608084015260a084015183820360a0850152612291565b9160c0810151151560c083015260e081015160e083015261010080820151908301526101208082015190830152610140808201519083015261236961016080830151908401906122b6565b61018080820151908301526101a080820151908301526101c080820151908301526101e08091015191015290565b80548210156123af5760005260206000200190600090565b634e487b7160e01b600052603260045260246000fd5b90600182811c921680156123f5575b60208310146123df57565b634e487b7160e01b600052602260045260246000fd5b91607f16916123d4565b9060405191826000825492612413846123c5565b908184526001948581169081600014612482575060011461243f575b505061243d9250038361213e565b565b9093915060005260209081600020936000915b81831061246a57505061243d9350820101388061242f565b85548884018501529485019487945091830191612452565b91505061243d94506020925060ff191682840152151560051b820101388061242f565b3360009081527fad3228b676f7d3cd4284a5443f17f1962b36e491b30a40b2405849e597ba5fb5602052604081205460ff16156124df5750565b6044906040519063e2517d3f60e01b82523360048301526024820152fd5b3360009081527fdae2aa361dfd1ca020a396615627d436107c35eff9fe7738a3512819782d706960205260409020547fd8aa0f3194971a2a116679f7c2090f6939c8d4e01a2a8d7e41d55e5351469e639060ff16156124df5750565b80600052600060205260406000203360005260205260ff60406000205416156124df5750565b9060009180835282602052604083209160018060a01b03169182845260205260ff604084205416156000146125f857808352826020526040832082845260205260408320600160ff198254161790557f2f8788117e7eff1d82e926ec794901d17c78024a50270940304540a733656f0d339380a4600190565b505090565b9060009180835282602052604083209160018060a01b03169182845260205260ff6040842054166000146125f85780835282602052604083208284526020526040832060ff1981541690557ff6391f5c32d9c69d2a47ea670b442974b53935d1edc7fd64eb21e047a839171b339380a4600190565b1561267957565b60405162461bcd60e51b815260206004820152601860248201527f546172676574207072696365206d757374206265203e203000000000000000006044820152606490fd5b81156126c8570490565b634e487b7160e01b600052601260045260246000fd5b156126e557565b60405162461bcd60e51b815260206004820152601860248201527f496e73756666696369656e7420747269676765722066656500000000000000006044820152606490fd5b600019811461082e5760010190565b9190820180921161082e57565b9060058110156106625760ff80198354169116179055565b8054680100000000000000008110156107485761278091600182018155612397565b819291549060031b91821b91600019901b1916179055565b908060209392818452848401376000828201840152601f01601f1916010190565b60ff600154166127c557565b60405163d93c066560e01b8152600490fd5b60028054146127e65760028055565b604051633ee5aeb560e01b8152600490fd5b63ffffffff604051828180945161281581602097888096016121cf565b8101600a81520301902054169081156128b757604051916332c935bb60e21b8352600483015280826024816108075afa9160009183612873575b505090156000146128635750600090600090565b906001600160401b038216151590565b81813d83116128b0575b612887818361213e565b810103126128ac5751906001600160401b03821682036128a95750388061284f565b80fd5b5080fd5b503d61287d565b5050600090600090565b9190820391821161082e57565b6128d7906127f8565b1561296c576001600160401b036064911604906000828211600014612927575081612901916128c1565b906127109182810292818404149015171561082e5761291f916126be565b600454101590565b92919061293490826128c1565b61271090818102918183041490151715612958576129539293506126be565b61291f565b634e487b7160e01b84526011600452602484fd5b5050600190565b1561297a57565b60405162461bcd60e51b815260206004820152601260248201527154726967676572206e6f742061637469766560701b6044820152606490fd5b801561082e576000190190565b156129c857565b60405162461bcd60e51b81526020600482015260116024820152702737ba103a3934b3b3b2b91037bbb732b960791b6044820152606490fd5b3d15612a2c573d90612a128261215f565b91612a20604051938461213e565b82523d6000602084013e565b606090565b91909160009081526020906006825260409384822060ff600b820154166005811015612b7b57612b4c57600a8101544211612b20578115612af6578060ff6004600393015416600014612aed57015411155b15612ab557506f526561647920746f206578656375746560801b6001935191612aab83612123565b6010835282015290565b7f507269636520636f6e646974696f6e206e6f74206d657400000000000000000090935191612ae383612123565b6017835282015290565b01541015612a83565b50506c496e76616c696420707269636560981b90935191612b1683612123565b600d835282015290565b50506e151c9a59d9d95c88195e1c1a5c9959608a1b90935191612b4283612123565b600f835282015290565b50507154726967676572206e6f742061637469766560701b90935191612b7183612123565b6012835282015290565b634e487b7160e01b84526021600452602484fd5b91908110156123af5760051b0190565b60405190612bac82612107565b816101e060009182815282602082015260606040820152826060820152826080820152606060a08201528260c08201528260e08201528261010082015282610120820152826101408201528261016082015282610180820152826101a0820152826101c08201520152565b90604051612c2481612107565b8254815260018301546001600160a01b03166020820152918290612c4a600282016123ff565b60408301526003810154606083015260ff60048201541615156080830152612c74600582016123ff565b60a083015260ff600682015416151560c0830152600781015460e083015260088101546101008301526009810154610120830152600a81015461014083015260ff600b820154166005811015610662576101e091600f91610160850152600c810154610180850152600d8101546101a0850152600e8101546101c08501520154910152565b80518210156123af5760209160051b010190565b6001600160401b0381116107485760051b60200190565b91612d4260209263ffffffff92969596604086526040860191612798565b9416910152565b3563ffffffff8116810361020b5790565b91908110156123af5760051b81013590601e198136030182121561020b5701908135916001600160401b03831161020b57602001823603811361020b57919056fea2646970667358221220833f60818938d84c31c7ad0ffa62e4e676129e9933747d20f0bdad2c9ee8de1d64736f6c634300081400332f8788117e7eff1d82e926ec794901d17c78024a50270940304540a733656f0d","opcodes":"PUSH1 0x80 PUSH1 0x40 MSTORE CALLVALUE PUSH3 0x56 JUMPI PUSH1 0x1 PUSH1 0x2 SSTORE PUSH7 0x38D7EA4C68000 PUSH1 0x3 SSTORE PUSH1 0xC8 PUSH1 0x4 SSTORE PUSH1 0xFF NOT PUSH1 0x5 SLOAD AND PUSH1 0x5 SSTORE PUSH1 0x1 PUSH1 0x8 SSTORE PUSH3 0x39 CALLER PUSH3 0x5B JUMP JUMPDEST POP PUSH3 0x45 CALLER PUSH3 0xDB JUMP JUMPDEST POP PUSH1 0x40 MLOAD PUSH2 0x2DD1 SWAP1 DUP2 PUSH3 0x17E DUP3 CODECOPY RETURN JUMPDEST PUSH1 0x0 DUP1 REVERT JUMPDEST PUSH1 0x1 PUSH1 0x1 PUSH1 0xA0 SHL SUB AND PUSH1 0x0 DUP2 DUP2 MSTORE PUSH32 0xAD3228B676F7D3CD4284A5443F17F1962B36E491B30A40B2405849E597BA5FB5 PUSH1 0x20 MSTORE PUSH1 0x40 DUP2 KECCAK256 SLOAD SWAP1 SWAP2 SWAP1 PUSH1 0xFF AND PUSH3 0xD7 JUMPI DUP2 DUP1 MSTORE DUP2 PUSH1 0x20 MSTORE PUSH1 0x40 DUP3 KECCAK256 DUP2 DUP4 MSTORE PUSH1 0x20 MSTORE PUSH1 0x40 DUP3 KECCAK256 PUSH1 0x1 PUSH1 0xFF NOT DUP3 SLOAD AND OR SWAP1 SSTORE CALLER SWAP2 PUSH1 0x0 DUP1 MLOAD PUSH1 0x20 PUSH3 0x2F4F DUP4 CODECOPY DUP2 MLOAD SWAP2 MSTORE DUP2 DUP1 LOG4 PUSH1 0x1 SWAP1 JUMP JUMPDEST POP SWAP1 JUMP JUMPDEST PUSH1 0x1 PUSH1 0x1 PUSH1 0xA0 SHL SUB AND PUSH1 0x0 DUP2 DUP2 MSTORE PUSH32 0xDAE2AA361DFD1CA020A396615627D436107C35EFF9FE7738A3512819782D7069 PUSH1 0x20 MSTORE PUSH1 0x40 DUP2 KECCAK256 SLOAD SWAP1 SWAP2 SWAP1 PUSH32 0xD8AA0F3194971A2A116679F7C2090F6939C8D4E01A2A8D7E41D55E5351469E63 SWAP1 PUSH1 0xFF AND PUSH3 0x178 JUMPI DUP1 DUP4 MSTORE DUP3 PUSH1 0x20 MSTORE PUSH1 0x40 DUP4 KECCAK256 DUP3 DUP5 MSTORE PUSH1 0x20 MSTORE PUSH1 0x40 DUP4 KECCAK256 PUSH1 0x1 PUSH1 0xFF NOT DUP3 SLOAD AND OR SWAP1 SSTORE PUSH1 0x0 DUP1 MLOAD PUSH1 0x20 PUSH3 0x2F4F DUP4 CODECOPY DUP2 MLOAD SWAP2 MSTORE CALLER SWAP4 DUP1 LOG4 PUSH1 0x1 SWAP1 JUMP JUMPDEST POP POP SWAP1 JUMP INVALID PUSH1 0xA0 DUP1 PUSH1 0x40 MSTORE PUSH1 0x4 CALLDATASIZE LT ISZERO PUSH2 0x1D JUMPI JUMPDEST POP CALLDATASIZE ISZERO PUSH2 0x1B JUMPI PUSH1 0x0 DUP1 REVERT JUMPDEST STOP JUMPDEST PUSH1 0x0 CALLDATALOAD PUSH1 0xE0 SHR SWAP1 DUP2 PUSH4 0x1FFC9A7 EQ PUSH2 0x20A5 JUMPI POP DUP1 PUSH4 0x69A7F87 EQ PUSH2 0x2043 JUMPI DUP1 PUSH4 0x7BD0265 EQ PUSH2 0x2008 JUMPI DUP1 PUSH4 0x13AE981B EQ PUSH2 0x1FEB JUMPI DUP1 PUSH4 0x18161684 EQ PUSH2 0x1F89 JUMPI DUP1 PUSH4 0x248A9CA3 EQ PUSH2 0x1F5A JUMPI DUP1 PUSH4 0x24F1C5C1 EQ PUSH2 0x1ECA JUMPI DUP1 PUSH4 0x2A1B3FD3 EQ PUSH2 0x1D82 JUMPI DUP1 PUSH4 0x2F2FF15D EQ PUSH2 0x1D43 JUMPI DUP1 PUSH4 0x36568ABE EQ PUSH2 0x1CFC JUMPI DUP1 PUSH4 0x3940FDA4 EQ PUSH2 0x1C31 JUMPI DUP1 PUSH4 0x39F08251 EQ PUSH2 0x1C0E JUMPI DUP1 PUSH4 0x3A90F050 EQ PUSH2 0x1B6B JUMPI DUP1 PUSH4 0x3F4BA83A EQ PUSH2 0x1B01 JUMPI DUP1 PUSH4 0x42227FA4 EQ PUSH2 0x1AE3 JUMPI DUP1 PUSH4 0x476343EE EQ PUSH2 0x1A36 JUMPI DUP1 PUSH4 0x4E712FB8 EQ PUSH2 0x19E2 JUMPI DUP1 PUSH4 0x4EFC9C85 EQ PUSH2 0x1A00 JUMPI DUP1 PUSH4 0x5A487EF6 EQ PUSH2 0x19E2 JUMPI DUP1 PUSH4 0x5C975ABB EQ PUSH2 0x19BF JUMPI DUP1 PUSH4 0x5F330929 EQ PUSH2 0x12ED JUMPI DUP1 PUSH4 0x65672A7F EQ PUSH2 0x12A5 JUMPI DUP1 PUSH4 0x681475E8 EQ PUSH2 0x11AE JUMPI DUP1 PUSH4 0x71001300 EQ PUSH2 0x10C2 JUMPI DUP1 PUSH4 0x71876A16 EQ PUSH2 0x100E JUMPI DUP1 PUSH4 0x8456CB59 EQ PUSH2 0xFB5 JUMPI DUP1 PUSH4 0x86B9D16E EQ PUSH2 0xE7A JUMPI DUP1 PUSH4 0x91D14854 EQ PUSH2 0xE2D JUMPI DUP1 PUSH4 0x975B8662 EQ PUSH2 0xE0F JUMPI DUP1 PUSH4 0x9C50472B EQ PUSH2 0xDC2 JUMPI DUP1 PUSH4 0xA217FDDF EQ PUSH2 0xDA6 JUMPI DUP1 PUSH4 0xA3498325 EQ PUSH2 0xD4E JUMPI DUP1 PUSH4 0xA78DD42E EQ PUSH2 0xC04 JUMPI DUP1 PUSH4 0xAEFED8FF EQ PUSH2 0x9F6 JUMPI DUP1 PUSH4 0xB71E83C4 EQ PUSH2 0x9AA JUMPI DUP1 PUSH4 0xD45DDD9C EQ PUSH2 0x895 JUMPI DUP1 PUSH4 0xD547741F EQ PUSH2 0x856 JUMPI DUP1 PUSH4 0xE2A2496C EQ PUSH2 0x27A JUMPI DUP1 PUSH4 0xF5A908F0 EQ PUSH2 0x22E JUMPI DUP1 PUSH4 0xF6837157 EQ PUSH2 0x210 JUMPI PUSH4 0xFFD581B6 EQ PUSH2 0x1ED JUMPI CODESIZE PUSH2 0xF JUMP JUMPDEST CALLVALUE PUSH2 0x20B JUMPI PUSH1 0x0 CALLDATASIZE PUSH1 0x3 NOT ADD SLT PUSH2 0x20B JUMPI PUSH1 0x20 PUSH1 0x40 MLOAD PUSH3 0x278D00 DUP2 MSTORE RETURN JUMPDEST PUSH1 0x0 DUP1 REVERT JUMPDEST CALLVALUE PUSH2 0x20B JUMPI PUSH1 0x0 CALLDATASIZE PUSH1 0x3 NOT ADD SLT PUSH2 0x20B JUMPI PUSH1 0x20 PUSH1 0x3 SLOAD PUSH1 0x40 MLOAD SWAP1 DUP2 MSTORE RETURN JUMPDEST CALLVALUE PUSH2 0x20B JUMPI PUSH1 0x20 CALLDATASIZE PUSH1 0x3 NOT ADD SLT PUSH2 0x20B JUMPI PUSH1 0x4 CALLDATALOAD PUSH1 0x1 PUSH1 0x1 PUSH1 0x40 SHL SUB DUP1 DUP3 GT PUSH2 0x20B JUMPI PUSH2 0x269 PUSH2 0x264 PUSH1 0x40 SWAP4 CALLDATASIZE SWAP1 PUSH1 0x4 ADD PUSH2 0x21B1 JUMP JUMPDEST PUSH2 0x27F8 JUMP JUMPDEST SWAP1 SWAP2 DUP4 MLOAD SWAP3 AND DUP3 MSTORE ISZERO ISZERO PUSH1 0x20 DUP3 ADD MSTORE RETURN JUMPDEST PUSH1 0x60 CALLDATASIZE PUSH1 0x3 NOT ADD SLT PUSH2 0x20B JUMPI PUSH1 0x4 CALLDATALOAD PUSH2 0x291 PUSH2 0x20F8 JUMP JUMPDEST PUSH2 0x299 PUSH2 0x27B9 JUMP JUMPDEST PUSH2 0x2A1 PUSH2 0x27D7 JUMP JUMPDEST DUP2 PUSH1 0x0 MSTORE PUSH1 0x6 PUSH1 0x20 MSTORE PUSH1 0x40 PUSH1 0x0 KECCAK256 SWAP2 PUSH2 0x2C7 PUSH1 0x1 DUP1 PUSH1 0xA0 SHL SUB PUSH1 0x1 DUP6 ADD SLOAD AND CALLER EQ PUSH2 0x29C1 JUMP JUMPDEST PUSH1 0xB DUP4 ADD SWAP2 DUP3 SLOAD SWAP4 PUSH1 0xFF DUP6 AND PUSH1 0x5 DUP2 LT ISZERO PUSH2 0x662 JUMPI PUSH2 0x2E6 SWAP1 ISZERO PUSH2 0x2973 JUMP JUMPDEST PUSH2 0x2F3 PUSH1 0x24 CALLDATALOAD ISZERO ISZERO PUSH2 0x2672 JUMP JUMPDEST PUSH2 0x2FF PUSH1 0x2 DUP3 ADD PUSH2 0x23FF JUMP JUMPDEST PUSH2 0x36A PUSH2 0x30E PUSH1 0x5 DUP5 ADD PUSH2 0x23FF JUMP JUMPDEST SWAP7 PUSH1 0xFF PUSH1 0x6 DUP6 ADD SLOAD AND SWAP6 PUSH1 0x7 DUP6 ADD SLOAD SWAP8 PUSH1 0x2 PUSH1 0xC PUSH1 0x8 DUP9 ADD SLOAD SWAP8 ADD SLOAD SWAP4 PUSH1 0xFF NOT AND OR SWAP1 SSTORE PUSH1 0x9 SLOAD DUP1 PUSH2 0x844 JUMPI JUMPDEST POP CALLER SWAP1 PUSH32 0x71B273ECDAF2F86CF04941C16FF6F1EAE913CBFBEEF44422D9C1C39847854D13 PUSH1 0x0 DUP1 LOG3 CALLVALUE SWAP1 PUSH2 0x2739 JUMP JUMPDEST SWAP5 PUSH2 0x379 PUSH1 0x3 SLOAD DUP8 LT ISZERO PUSH2 0x26DE JUMP JUMPDEST PUSH1 0x8 SLOAD SWAP6 PUSH2 0x386 DUP8 PUSH2 0x272A JUMP JUMPDEST PUSH1 0x8 SSTORE PUSH3 0x15180 TIMESTAMP ADD TIMESTAMP GT PUSH2 0x82E JUMPI PUSH1 0x40 MLOAD SWAP4 PUSH2 0x3A2 DUP6 PUSH2 0x2107 JUMP JUMPDEST DUP8 DUP6 MSTORE CALLER PUSH1 0x20 DUP7 ADD MSTORE DUP4 PUSH1 0x40 DUP7 ADD MSTORE PUSH1 0x24 CALLDATALOAD PUSH1 0x60 DUP7 ADD MSTORE DUP6 ISZERO ISZERO PUSH1 0x80 DUP7 ADD MSTORE DUP9 PUSH1 0xA0 DUP7 ADD MSTORE DUP7 ISZERO ISZERO PUSH1 0xC0 DUP7 ADD MSTORE DUP3 PUSH1 0xE0 DUP7 ADD MSTORE PUSH2 0x100 DUP6 ADD MSTORE TIMESTAMP PUSH2 0x120 DUP6 ADD MSTORE PUSH3 0x15180 TIMESTAMP ADD PUSH2 0x140 DUP6 ADD MSTORE PUSH1 0x0 PUSH2 0x160 DUP6 ADD MSTORE PUSH2 0x180 DUP5 ADD MSTORE PUSH1 0x0 PUSH2 0x1A0 DUP5 ADD MSTORE PUSH1 0x0 PUSH2 0x1C0 DUP5 ADD MSTORE PUSH1 0x0 PUSH2 0x1E0 DUP5 ADD MSTORE DUP6 PUSH1 0x0 MSTORE PUSH1 0x6 PUSH1 0x20 MSTORE PUSH1 0x40 PUSH1 0x0 KECCAK256 SWAP4 DUP4 MLOAD DUP6 SSTORE PUSH1 0x1 DUP6 ADD PUSH1 0x1 DUP1 PUSH1 0xA0 SHL SUB PUSH1 0x20 DUP7 ADD MLOAD AND PUSH12 0xFFFFFFFFFFFFFFFFFFFFFFFF PUSH1 0xA0 SHL DUP3 SLOAD AND OR SWAP1 SSTORE PUSH1 0x40 DUP5 ADD MLOAD DUP1 MLOAD SWAP1 PUSH1 0x1 PUSH1 0x1 PUSH1 0x40 SHL SUB DUP3 GT PUSH2 0x748 JUMPI DUP2 SWAP1 PUSH2 0x473 PUSH1 0x2 DUP10 ADD SLOAD PUSH2 0x23C5 JUMP JUMPDEST PUSH1 0x1F DUP2 GT PUSH2 0x7DB JUMPI JUMPDEST POP PUSH1 0x20 SWAP1 PUSH1 0x1F DUP4 GT PUSH1 0x1 EQ PUSH2 0x769 JUMPI PUSH1 0x0 SWAP3 PUSH2 0x75E JUMPI JUMPDEST POP POP DUP2 PUSH1 0x1 SHL SWAP2 PUSH1 0x0 NOT SWAP1 PUSH1 0x3 SHL SHR NOT AND OR PUSH1 0x2 DUP7 ADD SSTORE JUMPDEST PUSH1 0x60 DUP5 ADD MLOAD PUSH1 0x3 DUP7 ADD SSTORE PUSH2 0x4D4 PUSH1 0x80 DUP6 ADD MLOAD ISZERO ISZERO PUSH1 0x4 DUP8 ADD SWAP1 PUSH1 0xFF DUP1 NOT DUP4 SLOAD AND SWAP2 ISZERO ISZERO AND OR SWAP1 SSTORE JUMP JUMPDEST PUSH1 0xA0 DUP5 ADD MLOAD DUP1 MLOAD SWAP1 PUSH1 0x1 PUSH1 0x1 PUSH1 0x40 SHL SUB DUP3 GT PUSH2 0x748 JUMPI DUP2 SWAP1 PUSH2 0x4F9 PUSH1 0x5 DUP10 ADD SLOAD PUSH2 0x23C5 JUMP JUMPDEST PUSH1 0x1F DUP2 GT PUSH2 0x6F5 JUMPI JUMPDEST POP PUSH1 0x20 SWAP1 PUSH1 0x1F DUP4 GT PUSH1 0x1 EQ PUSH2 0x683 JUMPI PUSH1 0x0 SWAP3 PUSH2 0x678 JUMPI JUMPDEST POP POP DUP2 PUSH1 0x1 SHL SWAP2 PUSH1 0x0 NOT SWAP1 PUSH1 0x3 SHL SHR NOT AND OR PUSH1 0x5 DUP7 ADD SSTORE JUMPDEST PUSH2 0x550 PUSH1 0xC0 DUP6 ADD MLOAD ISZERO ISZERO PUSH1 0x6 DUP8 ADD SWAP1 PUSH1 0xFF DUP1 NOT DUP4 SLOAD AND SWAP2 ISZERO ISZERO AND OR SWAP1 SSTORE JUMP JUMPDEST PUSH1 0xE0 DUP5 ADD MLOAD PUSH1 0x7 DUP7 ADD SSTORE PUSH2 0x100 DUP5 ADD MLOAD PUSH1 0x8 DUP7 ADD SSTORE PUSH2 0x120 DUP5 ADD MLOAD PUSH1 0x9 DUP7 ADD SSTORE PUSH2 0x140 DUP5 ADD MLOAD PUSH1 0xA DUP7 ADD SSTORE PUSH2 0x160 DUP5 ADD MLOAD SWAP1 PUSH1 0x5 DUP3 LT ISZERO PUSH2 0x662 JUMPI PUSH1 0x20 SWAP9 DUP7 PUSH1 0xF PUSH2 0x1E0 PUSH32 0xEA8640DE2F174F1FA43C2FA556863133CAABCFBBB2E37626B2A0239F4F84B006 SWAP9 PUSH2 0x5C7 PUSH2 0x642 SWAP8 PUSH1 0xB DUP16 SWAP14 ADD PUSH2 0x2746 JUMP JUMPDEST PUSH2 0x180 DUP2 ADD MLOAD PUSH1 0xC DUP6 ADD SSTORE PUSH2 0x1A0 DUP2 ADD MLOAD PUSH1 0xD DUP6 ADD SSTORE PUSH2 0x1C0 DUP2 ADD MLOAD PUSH1 0xE DUP6 ADD SSTORE ADD MLOAD SWAP2 ADD SSTORE CALLER PUSH1 0x0 MSTORE PUSH1 0x7 DUP11 MSTORE PUSH2 0x603 DUP8 PUSH1 0x40 PUSH1 0x0 KECCAK256 PUSH2 0x275E JUMP JUMPDEST PUSH2 0x60E PUSH1 0x9 SLOAD PUSH2 0x272A JUMP JUMPDEST PUSH1 0x9 SSTORE PUSH2 0x626 PUSH1 0x40 MLOAD SWAP6 PUSH1 0xC0 DUP8 MSTORE PUSH1 0xC0 DUP8 ADD SWAP1 PUSH2 0x2291 JUMP JUMPDEST SWAP2 PUSH1 0x24 CALLDATALOAD DUP12 DUP8 ADD MSTORE ISZERO ISZERO PUSH1 0x40 DUP7 ADD MSTORE DUP5 DUP3 SUB PUSH1 0x60 DUP7 ADD MSTORE PUSH2 0x2291 JUMP JUMPDEST SWAP5 ISZERO ISZERO PUSH1 0x80 DUP4 ADD MSTORE PUSH1 0xA0 DUP3 ADD MSTORE DUP1 CALLER SWAP5 SUB SWAP1 LOG3 PUSH1 0x1 PUSH1 0x2 SSTORE PUSH1 0x40 MLOAD SWAP1 DUP2 MSTORE RETURN JUMPDEST PUSH4 0x4E487B71 PUSH1 0xE0 SHL PUSH1 0x0 MSTORE PUSH1 0x21 PUSH1 0x4 MSTORE PUSH1 0x24 PUSH1 0x0 REVERT JUMPDEST ADD MLOAD SWAP1 POP DUP11 DUP1 PUSH2 0x519 JUMP JUMPDEST SWAP3 POP PUSH1 0x5 DUP9 ADD PUSH1 0x0 MSTORE PUSH1 0x20 PUSH1 0x0 KECCAK256 SWAP1 PUSH1 0x0 SWAP4 JUMPDEST PUSH1 0x1F NOT DUP5 AND DUP6 LT PUSH2 0x6DA JUMPI PUSH1 0x1 SWAP5 POP DUP4 PUSH1 0x1F NOT DUP2 AND LT PUSH2 0x6C1 JUMPI JUMPDEST POP POP POP DUP2 SHL ADD PUSH1 0x5 DUP7 ADD SSTORE PUSH2 0x531 JUMP JUMPDEST ADD MLOAD PUSH1 0x0 NOT PUSH1 0xF8 DUP5 PUSH1 0x3 SHL AND SHR NOT AND SWAP1 SSTORE DUP11 DUP1 DUP1 PUSH2 0x6B1 JUMP JUMPDEST DUP2 DUP2 ADD MLOAD DUP4 SSTORE PUSH1 0x20 SWAP5 DUP6 ADD SWAP5 PUSH1 0x1 SWAP1 SWAP4 ADD SWAP3 SWAP1 SWAP2 ADD SWAP1 PUSH2 0x696 JUMP JUMPDEST SWAP1 SWAP2 POP PUSH1 0x5 DUP9 ADD PUSH1 0x0 MSTORE PUSH1 0x20 PUSH1 0x0 KECCAK256 PUSH1 0x1F DUP5 ADD PUSH1 0x5 SHR DUP2 ADD PUSH1 0x20 DUP6 LT PUSH2 0x741 JUMPI JUMPDEST SWAP1 DUP5 SWAP4 SWAP3 SWAP2 JUMPDEST PUSH1 0x1F DUP4 ADD PUSH1 0x5 SHR DUP3 ADD DUP2 LT PUSH2 0x732 JUMPI POP POP PUSH2 0x502 JUMP JUMPDEST PUSH1 0x0 DUP2 SSTORE DUP6 SWAP5 POP PUSH1 0x1 ADD PUSH2 0x71C JUMP JUMPDEST POP DUP1 PUSH2 0x716 JUMP JUMPDEST PUSH4 0x4E487B71 PUSH1 0xE0 SHL PUSH1 0x0 MSTORE PUSH1 0x41 PUSH1 0x4 MSTORE PUSH1 0x24 PUSH1 0x0 REVERT JUMPDEST ADD MLOAD SWAP1 POP DUP11 DUP1 PUSH2 0x493 JUMP JUMPDEST SWAP3 POP PUSH1 0x2 DUP9 ADD PUSH1 0x0 MSTORE PUSH1 0x20 PUSH1 0x0 KECCAK256 SWAP1 PUSH1 0x0 SWAP4 JUMPDEST PUSH1 0x1F NOT DUP5 AND DUP6 LT PUSH2 0x7C0 JUMPI PUSH1 0x1 SWAP5 POP DUP4 PUSH1 0x1F NOT DUP2 AND LT PUSH2 0x7A7 JUMPI JUMPDEST POP POP POP DUP2 SHL ADD PUSH1 0x2 DUP7 ADD SSTORE PUSH2 0x4AB JUMP JUMPDEST ADD MLOAD PUSH1 0x0 NOT PUSH1 0xF8 DUP5 PUSH1 0x3 SHL AND SHR NOT AND SWAP1 SSTORE DUP11 DUP1 DUP1 PUSH2 0x797 JUMP JUMPDEST DUP2 DUP2 ADD MLOAD DUP4 SSTORE PUSH1 0x20 SWAP5 DUP6 ADD SWAP5 PUSH1 0x1 SWAP1 SWAP4 ADD SWAP3 SWAP1 SWAP2 ADD SWAP1 PUSH2 0x77C JUMP JUMPDEST SWAP1 SWAP2 POP PUSH1 0x2 DUP9 ADD PUSH1 0x0 MSTORE PUSH1 0x20 PUSH1 0x0 KECCAK256 PUSH1 0x1F DUP5 ADD PUSH1 0x5 SHR DUP2 ADD PUSH1 0x20 DUP6 LT PUSH2 0x827 JUMPI JUMPDEST SWAP1 DUP5 SWAP4 SWAP3 SWAP2 JUMPDEST PUSH1 0x1F DUP4 ADD PUSH1 0x5 SHR DUP3 ADD DUP2 LT PUSH2 0x818 JUMPI POP POP PUSH2 0x47C JUMP JUMPDEST PUSH1 0x0 DUP2 SSTORE DUP6 SWAP5 POP PUSH1 0x1 ADD PUSH2 0x802 JUMP JUMPDEST POP DUP1 PUSH2 0x7FC JUMP JUMPDEST PUSH4 0x4E487B71 PUSH1 0xE0 SHL PUSH1 0x0 MSTORE PUSH1 0x11 PUSH1 0x4 MSTORE PUSH1 0x24 PUSH1 0x0 REVERT JUMPDEST PUSH2 0x84D SWAP1 PUSH2 0x29B4 JUMP JUMPDEST PUSH1 0x9 SSTORE DUP10 PUSH2 0x33B JUMP JUMPDEST CALLVALUE PUSH2 0x20B JUMPI PUSH1 0x40 CALLDATASIZE PUSH1 0x3 NOT ADD SLT PUSH2 0x20B JUMPI PUSH2 0x1B PUSH1 0x4 CALLDATALOAD PUSH2 0x875 PUSH2 0x2222 JUMP JUMPDEST SWAP1 DUP1 PUSH1 0x0 MSTORE PUSH1 0x0 PUSH1 0x20 MSTORE PUSH2 0x890 PUSH1 0x1 PUSH1 0x40 PUSH1 0x0 KECCAK256 ADD SLOAD PUSH2 0x2559 JUMP JUMPDEST PUSH2 0x25FD JUMP JUMPDEST CALLVALUE PUSH2 0x20B JUMPI PUSH1 0x20 CALLDATASIZE PUSH1 0x3 NOT ADD SLT PUSH2 0x20B JUMPI PUSH1 0x4 CALLDATALOAD PUSH2 0x8B1 PUSH2 0x27D7 JUMP JUMPDEST DUP1 PUSH1 0x0 MSTORE PUSH1 0x6 PUSH1 0x20 MSTORE PUSH1 0x40 PUSH1 0x0 KECCAK256 PUSH2 0x8D6 PUSH1 0x1 DUP1 PUSH1 0xA0 SHL SUB PUSH1 0x1 DUP4 ADD SLOAD AND CALLER EQ PUSH2 0x29C1 JUMP JUMPDEST PUSH1 0xB DUP2 ADD DUP1 SLOAD SWAP2 PUSH1 0xFF DUP4 AND PUSH1 0x5 DUP2 LT ISZERO PUSH2 0x662 JUMPI PUSH1 0x2 SWAP2 PUSH2 0x8F9 PUSH1 0xC SWAP3 ISZERO PUSH2 0x2973 JUMP JUMPDEST ADD SLOAD SWAP3 PUSH1 0xFF NOT AND OR SWAP1 SSTORE PUSH1 0x9 SLOAD DUP1 PUSH2 0x998 JUMPI JUMPDEST POP DUP1 PUSH2 0x942 JUMPI JUMPDEST POP CALLER SWAP1 PUSH32 0x71B273ECDAF2F86CF04941C16FF6F1EAE913CBFBEEF44422D9C1C39847854D13 PUSH1 0x0 DUP1 LOG3 PUSH1 0x1 PUSH1 0x2 SSTORE STOP JUMPDEST PUSH1 0x0 DUP1 DUP1 DUP1 SWAP4 CALLER GAS CALL PUSH2 0x953 PUSH2 0x2A01 JUMP JUMPDEST POP ISZERO PUSH2 0x95F JUMPI DUP2 PUSH2 0x913 JUMP JUMPDEST PUSH1 0x40 MLOAD PUSH3 0x461BCD PUSH1 0xE5 SHL DUP2 MSTORE PUSH1 0x20 PUSH1 0x4 DUP3 ADD MSTORE PUSH1 0x11 PUSH1 0x24 DUP3 ADD MSTORE PUSH17 0x119959481C99599D5B990819985A5B1959 PUSH1 0x7A SHL PUSH1 0x44 DUP3 ADD MSTORE PUSH1 0x64 SWAP1 REVERT JUMPDEST PUSH2 0x9A1 SWAP1 PUSH2 0x29B4 JUMP JUMPDEST PUSH1 0x9 SSTORE DUP3 PUSH2 0x90C JUMP JUMPDEST CALLVALUE PUSH2 0x20B JUMPI PUSH1 0x20 CALLDATASIZE PUSH1 0x3 NOT ADD SLT PUSH2 0x20B JUMPI PUSH32 0x8C4D35E54A3F2EF1134138FD8EA3DAEE6A3C89E10D2665996BABDF70261E2C76 PUSH1 0x20 PUSH1 0x4 CALLDATALOAD PUSH2 0x9E9 PUSH2 0x24A5 JUMP JUMPDEST DUP1 PUSH1 0x3 SSTORE PUSH1 0x40 MLOAD SWAP1 DUP2 MSTORE LOG1 STOP JUMPDEST CALLVALUE PUSH2 0x20B JUMPI PUSH1 0x20 DUP1 PUSH1 0x3 NOT CALLDATASIZE ADD SLT PUSH2 0x20B JUMPI PUSH1 0x1 PUSH1 0x1 PUSH1 0xA0 SHL SUB PUSH2 0xA18 PUSH2 0x2238 JUMP JUMPDEST AND PUSH1 0x0 MSTORE PUSH1 0x7 DUP2 MSTORE PUSH1 0x40 PUSH1 0x0 KECCAK256 PUSH1 0x40 MLOAD DUP1 DUP3 DUP5 DUP3 SWAP5 SLOAD SWAP4 DUP5 DUP2 MSTORE ADD SWAP1 PUSH1 0x0 MSTORE DUP5 PUSH1 0x0 KECCAK256 SWAP3 PUSH1 0x0 JUMPDEST DUP7 DUP3 DUP3 LT PUSH2 0xBEE JUMPI DUP5 PUSH2 0xA54 DUP2 DUP7 SUB DUP3 PUSH2 0x213E JUMP JUMPDEST PUSH1 0x0 SWAP2 PUSH1 0x0 JUMPDEST DUP3 MLOAD DUP2 LT ISZERO PUSH2 0xAB3 JUMPI PUSH2 0xA6D DUP2 DUP5 PUSH2 0x2CF9 JUMP JUMPDEST MLOAD PUSH1 0x0 MSTORE PUSH1 0x6 DUP3 MSTORE PUSH1 0xFF PUSH1 0xB PUSH1 0x40 PUSH1 0x0 KECCAK256 ADD SLOAD AND PUSH1 0x5 DUP2 LT ISZERO PUSH2 0x662 JUMPI ISZERO PUSH2 0xA9E JUMPI JUMPDEST PUSH2 0xA99 SWAP1 PUSH2 0x272A JUMP JUMPDEST PUSH2 0xA5A JUMP JUMPDEST SWAP3 PUSH2 0xAAB PUSH2 0xA99 SWAP2 PUSH2 0x272A JUMP JUMPDEST SWAP4 SWAP1 POP PUSH2 0xA90 JUMP JUMPDEST POP DUP3 SWAP1 PUSH2 0xABF DUP3 PUSH2 0x2D0D JUMP JUMPDEST SWAP2 PUSH2 0xACD PUSH1 0x40 MLOAD SWAP4 DUP5 PUSH2 0x213E JUMP JUMPDEST DUP1 DUP4 MSTORE PUSH2 0xADC PUSH1 0x1F NOT SWAP2 PUSH2 0x2D0D JUMP JUMPDEST ADD DUP2 PUSH1 0x0 JUMPDEST DUP3 DUP2 LT PUSH2 0xBD8 JUMPI POP POP POP PUSH1 0x0 DUP1 JUMPDEST DUP5 MLOAD DUP2 LT ISZERO PUSH2 0xB7A JUMPI PUSH2 0xB02 DUP2 DUP7 PUSH2 0x2CF9 JUMP JUMPDEST MLOAD PUSH1 0x0 MSTORE PUSH1 0x6 SWAP1 DUP2 DUP5 MSTORE PUSH1 0xFF PUSH1 0xB PUSH1 0x40 PUSH1 0x0 KECCAK256 ADD SLOAD AND SWAP2 PUSH1 0x5 DUP4 LT ISZERO PUSH2 0x662 JUMPI PUSH2 0xB32 SWAP3 ISZERO PUSH2 0xB37 JUMPI JUMPDEST POP PUSH2 0x272A JUMP JUMPDEST PUSH2 0xAEF JUMP JUMPDEST PUSH2 0xB41 DUP3 DUP9 PUSH2 0x2CF9 JUMP JUMPDEST MLOAD PUSH1 0x0 MSTORE DUP5 MSTORE PUSH2 0xB73 PUSH1 0x40 PUSH1 0x0 KECCAK256 SWAP4 PUSH2 0xB62 PUSH2 0xB5C DUP3 PUSH2 0x272A JUMP JUMPDEST SWAP6 PUSH2 0x2C17 JUMP JUMPDEST PUSH2 0xB6C DUP3 DUP10 PUSH2 0x2CF9 JUMP JUMPDEST MSTORE DUP7 PUSH2 0x2CF9 JUMP JUMPDEST POP DUP7 PUSH2 0xB2C JUMP JUMPDEST PUSH1 0x40 DUP1 MLOAD DUP5 DUP2 MSTORE DUP6 MLOAD DUP2 DUP7 ADD DUP2 SWAP1 MSTORE PUSH1 0x0 SWAP3 PUSH1 0x5 DUP3 SWAP1 SHL DUP4 ADD DUP2 ADD SWAP2 DUP9 DUP9 ADD SWAP2 DUP9 SWAP1 DUP6 ADD JUMPDEST DUP3 DUP8 LT PUSH2 0xBAC JUMPI DUP6 DUP6 SUB DUP7 RETURN JUMPDEST SWAP1 SWAP2 SWAP3 SWAP4 DUP3 DUP1 PUSH2 0xBC8 PUSH1 0x1 SWAP4 PUSH1 0x3F NOT DUP11 DUP3 SUB ADD DUP7 MSTORE DUP9 MLOAD PUSH2 0x22C3 JUMP JUMPDEST SWAP7 ADD SWAP3 ADD SWAP7 ADD SWAP6 SWAP3 SWAP2 SWAP1 SWAP3 PUSH2 0xB9F JUMP JUMPDEST PUSH2 0xBE0 PUSH2 0x2B9F JUMP JUMPDEST DUP3 DUP3 DUP8 ADD ADD MSTORE ADD DUP3 SWAP1 PUSH2 0xAE1 JUMP JUMPDEST DUP6 SLOAD DUP5 MSTORE PUSH1 0x1 SWAP6 DUP7 ADD SWAP6 DUP8 SWAP6 POP SWAP4 ADD SWAP3 ADD PUSH2 0xA3F JUMP JUMPDEST CALLVALUE PUSH2 0x20B JUMPI PUSH1 0x20 CALLDATASIZE PUSH1 0x3 NOT ADD SLT PUSH2 0x20B JUMPI PUSH1 0x4 CALLDATALOAD PUSH1 0x0 SWAP1 DUP2 MSTORE PUSH1 0x6 PUSH1 0x20 MSTORE PUSH1 0x40 SWAP1 KECCAK256 DUP1 SLOAD PUSH1 0x1 DUP3 ADD SLOAD PUSH1 0x1 PUSH1 0x1 PUSH1 0xA0 SHL SUB AND SWAP2 PUSH2 0xC43 PUSH1 0x2 DUP3 ADD PUSH2 0x23FF JUMP JUMPDEST SWAP3 PUSH1 0x3 DUP3 ADD SLOAD SWAP4 PUSH1 0x4 DUP4 ADD SLOAD PUSH1 0xFF AND PUSH1 0x5 DUP5 ADD PUSH2 0xC5F SWAP1 PUSH2 0x23FF JUMP JUMPDEST SWAP6 PUSH1 0x6 DUP6 ADD SLOAD PUSH1 0xFF AND SWAP7 PUSH1 0x7 DUP7 ADD SLOAD PUSH1 0x8 DUP8 ADD SLOAD SWAP1 PUSH1 0x9 DUP9 ADD SLOAD SWAP3 PUSH1 0xA DUP10 ADD SLOAD SWAP5 PUSH1 0xB DUP11 ADD SLOAD PUSH1 0xFF AND SWAP7 PUSH1 0xC DUP12 ADD SLOAD SWAP9 PUSH1 0xD DUP13 ADD SLOAD SWAP11 PUSH1 0xE DUP14 ADD SLOAD SWAP13 PUSH1 0xF ADD SLOAD SWAP14 PUSH1 0x40 MLOAD DUP1 PUSH1 0x80 MSTORE MSTORE PUSH1 0x80 MLOAD PUSH1 0x20 ADD MSTORE PUSH2 0x200 DUP1 PUSH1 0x80 MLOAD PUSH1 0x40 ADD MSTORE PUSH1 0x80 MLOAD ADD PUSH2 0xCC7 SWAP2 PUSH2 0x2291 JUMP JUMPDEST SWAP2 PUSH1 0x80 MLOAD PUSH1 0x60 ADD MSTORE ISZERO ISZERO PUSH1 0x80 MLOAD PUSH1 0x80 ADD MSTORE PUSH1 0x80 MLOAD DUP1 DUP3 SUB SWAP1 PUSH1 0xA0 ADD MSTORE PUSH2 0xCEC SWAP2 PUSH2 0x2291 JUMP JUMPDEST SWAP10 ISZERO ISZERO PUSH1 0x80 MLOAD PUSH1 0xC0 ADD MSTORE PUSH1 0x80 MLOAD PUSH1 0xE0 ADD MSTORE PUSH1 0x80 MLOAD PUSH2 0x100 ADD MSTORE PUSH1 0x80 MLOAD PUSH2 0x120 ADD MSTORE PUSH1 0x80 MLOAD PUSH2 0x140 ADD MSTORE PUSH1 0x80 MLOAD PUSH2 0x160 ADD PUSH2 0xD25 SWAP2 PUSH2 0x22B6 JUMP JUMPDEST PUSH1 0x80 MLOAD PUSH2 0x180 ADD MSTORE PUSH1 0x80 MLOAD PUSH2 0x1A0 ADD MSTORE PUSH1 0x80 MLOAD PUSH2 0x1C0 ADD MSTORE PUSH1 0x80 MLOAD PUSH2 0x1E0 ADD MSTORE PUSH1 0x80 MLOAD DUP1 SWAP2 SUB SWAP1 RETURN JUMPDEST CALLVALUE PUSH2 0x20B JUMPI PUSH1 0x40 CALLDATASIZE PUSH1 0x3 NOT ADD SLT PUSH2 0x20B JUMPI PUSH2 0xD67 PUSH2 0x2238 JUMP JUMPDEST PUSH1 0x1 PUSH1 0x1 PUSH1 0xA0 SHL SUB AND PUSH1 0x0 SWAP1 DUP2 MSTORE PUSH1 0x7 PUSH1 0x20 MSTORE PUSH1 0x40 SWAP1 KECCAK256 DUP1 SLOAD PUSH1 0x24 CALLDATALOAD SWAP2 SWAP1 DUP3 LT ISZERO PUSH2 0x20B JUMPI PUSH1 0x20 SWAP2 PUSH2 0xD98 SWAP2 PUSH2 0x2397 JUMP JUMPDEST SWAP1 SLOAD PUSH1 0x40 MLOAD SWAP2 PUSH1 0x3 SHL SHR DUP2 MSTORE RETURN JUMPDEST CALLVALUE PUSH2 0x20B JUMPI PUSH1 0x0 CALLDATASIZE PUSH1 0x3 NOT ADD SLT PUSH2 0x20B JUMPI PUSH1 0x20 PUSH1 0x40 MLOAD PUSH1 0x0 DUP2 MSTORE RETURN JUMPDEST CALLVALUE PUSH2 0x20B JUMPI PUSH1 0x20 CALLDATASIZE PUSH1 0x3 NOT ADD SLT PUSH2 0x20B JUMPI PUSH2 0xDDB PUSH2 0x2B9F JUMP JUMPDEST POP PUSH1 0x4 CALLDATALOAD PUSH1 0x0 MSTORE PUSH1 0x6 PUSH1 0x20 MSTORE PUSH2 0xE0B PUSH2 0xDF7 PUSH1 0x40 PUSH1 0x0 KECCAK256 PUSH2 0x2C17 JUMP JUMPDEST PUSH1 0x40 MLOAD SWAP2 DUP3 SWAP2 PUSH1 0x20 DUP4 MSTORE PUSH1 0x20 DUP4 ADD SWAP1 PUSH2 0x22C3 JUMP JUMPDEST SUB SWAP1 RETURN JUMPDEST CALLVALUE PUSH2 0x20B JUMPI PUSH1 0x0 CALLDATASIZE PUSH1 0x3 NOT ADD SLT PUSH2 0x20B JUMPI PUSH1 0x20 PUSH1 0x4 SLOAD PUSH1 0x40 MLOAD SWAP1 DUP2 MSTORE RETURN JUMPDEST CALLVALUE PUSH2 0x20B JUMPI PUSH1 0x40 CALLDATASIZE PUSH1 0x3 NOT ADD SLT PUSH2 0x20B JUMPI PUSH2 0xE46 PUSH2 0x2222 JUMP JUMPDEST PUSH1 0x4 CALLDATALOAD PUSH1 0x0 MSTORE PUSH1 0x0 PUSH1 0x20 MSTORE PUSH1 0x40 PUSH1 0x0 KECCAK256 SWAP1 PUSH1 0x1 DUP1 PUSH1 0xA0 SHL SUB AND PUSH1 0x0 MSTORE PUSH1 0x20 MSTORE PUSH1 0x20 PUSH1 0xFF PUSH1 0x40 PUSH1 0x0 KECCAK256 SLOAD AND PUSH1 0x40 MLOAD SWAP1 ISZERO ISZERO DUP2 MSTORE RETURN JUMPDEST CALLVALUE PUSH2 0x20B JUMPI PUSH1 0x60 CALLDATASIZE PUSH1 0x3 NOT ADD SLT PUSH2 0x20B JUMPI PUSH1 0x24 CALLDATALOAD PUSH1 0x4 CALLDATALOAD PUSH1 0x44 CALLDATALOAD PUSH2 0xE9C PUSH2 0x24FD JUMP JUMPDEST DUP2 PUSH1 0x0 MSTORE PUSH1 0x6 PUSH1 0x20 MSTORE PUSH1 0x40 PUSH1 0x0 KECCAK256 PUSH1 0xB DUP2 ADD SWAP1 DUP2 SLOAD SWAP1 PUSH1 0xFF DUP3 AND SWAP2 PUSH1 0x5 DUP4 LT ISZERO PUSH2 0x662 JUMPI PUSH2 0xECB DUP6 SWAP4 ISZERO PUSH2 0x2973 JUMP JUMPDEST PUSH1 0xFF PUSH1 0x5 SLOAD AND PUSH2 0xF41 JUMPI JUMPDEST SWAP3 PUSH1 0x1 PUSH1 0xF SWAP4 SWAP5 PUSH1 0xFF NOT AND OR SWAP1 SSTORE TIMESTAMP PUSH1 0xD DUP3 ADD SSTORE DUP6 PUSH1 0xE DUP3 ADD SSTORE ADD SSTORE PUSH1 0x9 SLOAD DUP1 PUSH2 0xF2F JUMPI JUMPDEST POP PUSH1 0x40 MLOAD SWAP3 DUP4 MSTORE PUSH1 0x20 DUP4 ADD MSTORE PUSH32 0xF88D635C6C9DD6CCF33792822B70C3B41DC8CF753AA4EF23EF86461731D31A75 PUSH1 0x40 CALLER SWAP4 LOG3 STOP JUMPDEST PUSH2 0xF38 SWAP1 PUSH2 0x29B4 JUMP JUMPDEST PUSH1 0x9 SSTORE DUP4 PUSH2 0xEFB JUMP JUMPDEST SWAP2 POP PUSH2 0xF58 DUP7 PUSH2 0xF53 PUSH1 0x5 DUP5 ADD PUSH2 0x23FF JUMP JUMPDEST PUSH2 0x28CE JUMP JUMPDEST ISZERO PUSH2 0xF64 JUMPI DUP4 SWAP2 PUSH2 0xED6 JUMP JUMPDEST PUSH1 0x40 MLOAD PUSH3 0x461BCD PUSH1 0xE5 SHL DUP2 MSTORE PUSH1 0x20 PUSH1 0x4 DUP3 ADD MSTORE PUSH1 0x24 DUP1 DUP3 ADD MSTORE PUSH32 0x457865637574696F6E2070726963652064657669617465732066726F6D206F72 PUSH1 0x44 DUP3 ADD MSTORE PUSH4 0x61636C65 PUSH1 0xE0 SHL PUSH1 0x64 DUP3 ADD MSTORE PUSH1 0x84 SWAP1 REVERT JUMPDEST CALLVALUE PUSH2 0x20B JUMPI PUSH1 0x0 CALLDATASIZE PUSH1 0x3 NOT ADD SLT PUSH2 0x20B JUMPI PUSH2 0xFCE PUSH2 0x24A5 JUMP JUMPDEST PUSH2 0xFD6 PUSH2 0x27B9 JUMP JUMPDEST PUSH1 0x1 PUSH1 0xFF NOT DUP2 SLOAD AND OR PUSH1 0x1 SSTORE PUSH32 0x62E78CEA01BEE320CD4E420270B5EA74000D11B0C9F74754EBDBFC544B05A258 PUSH1 0x20 PUSH1 0x40 MLOAD CALLER DUP2 MSTORE LOG1 STOP JUMPDEST CALLVALUE PUSH2 0x20B JUMPI PUSH1 0x20 DUP1 PUSH1 0x3 NOT CALLDATASIZE ADD SLT PUSH2 0x20B JUMPI PUSH1 0x1 PUSH1 0x1 PUSH1 0xA0 SHL SUB PUSH2 0x1030 PUSH2 0x2238 JUMP JUMPDEST AND PUSH1 0x0 MSTORE PUSH1 0x7 DUP2 MSTORE PUSH1 0x40 PUSH1 0x0 KECCAK256 PUSH1 0x40 MLOAD SWAP1 DUP2 DUP4 DUP3 SLOAD SWAP2 DUP3 DUP2 MSTORE ADD SWAP1 DUP2 SWAP3 PUSH1 0x0 MSTORE DUP5 PUSH1 0x0 KECCAK256 SWAP1 PUSH1 0x0 JUMPDEST DUP7 DUP3 DUP3 LT PUSH2 0x10AE JUMPI DUP7 DUP7 PUSH2 0x106E DUP3 DUP9 SUB DUP4 PUSH2 0x213E JUMP JUMPDEST PUSH1 0x40 MLOAD SWAP3 DUP4 SWAP3 DUP2 DUP5 ADD SWAP1 DUP3 DUP6 MSTORE MLOAD DUP1 SWAP2 MSTORE PUSH1 0x40 DUP5 ADD SWAP3 SWAP2 PUSH1 0x0 JUMPDEST DUP3 DUP2 LT PUSH2 0x1097 JUMPI POP POP POP POP SUB SWAP1 RETURN JUMPDEST DUP4 MLOAD DUP6 MSTORE DUP7 SWAP6 POP SWAP4 DUP2 ADD SWAP4 SWAP3 DUP2 ADD SWAP3 PUSH1 0x1 ADD PUSH2 0x1088 JUMP JUMPDEST DUP4 SLOAD DUP6 MSTORE SWAP1 SWAP4 ADD SWAP3 PUSH1 0x1 SWAP3 DUP4 ADD SWAP3 ADD PUSH2 0x1058 JUMP JUMPDEST CALLVALUE PUSH2 0x20B JUMPI PUSH2 0x10D0 CALLDATASIZE PUSH2 0x227B JUMP JUMPDEST PUSH2 0x10D8 PUSH2 0x24A5 JUMP JUMPDEST PUSH1 0x8 SLOAD DUP2 GT PUSH2 0x1177 JUMPI DUP1 DUP3 LT ISZERO PUSH2 0x1142 JUMPI PUSH1 0x0 SWAP2 JUMPDEST DUP2 DUP2 LT PUSH2 0x10FB JUMPI PUSH1 0x9 DUP4 SWAP1 SSTORE STOP JUMPDEST DUP1 PUSH1 0x0 MSTORE PUSH1 0x6 PUSH1 0x20 MSTORE PUSH1 0xFF PUSH1 0xB PUSH1 0x40 PUSH1 0x0 KECCAK256 ADD SLOAD AND PUSH1 0x5 DUP2 LT ISZERO PUSH2 0x662 JUMPI ISZERO PUSH2 0x112D JUMPI JUMPDEST PUSH2 0x1128 SWAP1 PUSH2 0x272A JUMP JUMPDEST PUSH2 0x10ED JUMP JUMPDEST SWAP2 PUSH2 0x113A PUSH2 0x1128 SWAP2 PUSH2 0x272A JUMP JUMPDEST SWAP3 SWAP1 POP PUSH2 0x111F JUMP JUMPDEST PUSH1 0x40 MLOAD PUSH3 0x461BCD PUSH1 0xE5 SHL DUP2 MSTORE PUSH1 0x20 PUSH1 0x4 DUP3 ADD MSTORE PUSH1 0xD PUSH1 0x24 DUP3 ADD MSTORE PUSH13 0x496E76616C69642072616E6765 PUSH1 0x98 SHL PUSH1 0x44 DUP3 ADD MSTORE PUSH1 0x64 SWAP1 REVERT JUMPDEST PUSH1 0x40 MLOAD PUSH3 0x461BCD PUSH1 0xE5 SHL DUP2 MSTORE PUSH1 0x20 PUSH1 0x4 DUP3 ADD MSTORE PUSH1 0xF PUSH1 0x24 DUP3 ADD MSTORE PUSH15 0x8ADCC840928840E8DEDE40D0D2CED PUSH1 0x8B SHL PUSH1 0x44 DUP3 ADD MSTORE PUSH1 0x64 SWAP1 REVERT JUMPDEST CALLVALUE PUSH2 0x20B JUMPI PUSH1 0x20 DUP1 PUSH1 0x3 NOT CALLDATASIZE ADD SLT PUSH2 0x20B JUMPI PUSH1 0x4 CALLDATALOAD PUSH1 0x1 PUSH1 0x1 PUSH1 0x40 SHL SUB DUP2 GT PUSH2 0x20B JUMPI PUSH2 0x11DF SWAP1 CALLDATASIZE SWAP1 PUSH1 0x4 ADD PUSH2 0x21F2 JUMP JUMPDEST SWAP2 SWAP1 PUSH1 0x0 JUMPDEST DUP4 DUP2 LT PUSH2 0x11ED JUMPI STOP JUMPDEST PUSH2 0x11F8 DUP2 DUP6 DUP5 PUSH2 0x2B8F JUMP JUMPDEST CALLDATALOAD PUSH1 0x0 MSTORE PUSH1 0x6 DUP4 MSTORE PUSH1 0x40 PUSH1 0x0 KECCAK256 SWAP1 PUSH1 0xB DUP3 ADD DUP1 SLOAD PUSH1 0xFF DUP2 AND SWAP4 PUSH1 0x5 DUP6 LT ISZERO PUSH2 0x662 JUMPI PUSH2 0x1233 SWAP5 ISZERO SWAP1 DUP2 PUSH2 0x1297 JUMPI JUMPDEST POP PUSH2 0x1238 JUMPI JUMPDEST POP POP PUSH2 0x272A JUMP JUMPDEST PUSH2 0x11E4 JUMP JUMPDEST PUSH1 0xFF NOT AND PUSH1 0x3 OR SWAP1 SSTORE PUSH1 0x9 DUP1 SLOAD DUP1 PUSH2 0x1285 JUMPI JUMPDEST POP POP PUSH2 0x1258 DUP2 DUP7 DUP6 PUSH2 0x2B8F JUMP JUMPDEST CALLDATALOAD PUSH32 0x74BC747684C4BBF3E0B059E4C600406A6DE5AE015FD108B0E5B0B98E71802FE5 PUSH1 0x0 DUP1 LOG2 DUP6 DUP1 PUSH2 0x122C JUMP JUMPDEST PUSH2 0x128E SWAP1 PUSH2 0x29B4 JUMP JUMPDEST SWAP1 SSTORE DUP6 DUP1 PUSH2 0x124B JUMP JUMPDEST PUSH1 0xA SWAP2 POP ADD SLOAD TIMESTAMP GT DUP9 PUSH2 0x1226 JUMP JUMPDEST CALLVALUE PUSH2 0x20B JUMPI PUSH1 0x40 CALLDATASIZE PUSH1 0x3 NOT ADD SLT PUSH2 0x20B JUMPI PUSH1 0x4 CALLDATALOAD PUSH1 0x1 PUSH1 0x1 PUSH1 0x40 SHL SUB DUP2 GT PUSH2 0x20B JUMPI PUSH2 0x12E3 PUSH2 0x12DA PUSH1 0x20 SWAP3 CALLDATASIZE SWAP1 PUSH1 0x4 ADD PUSH2 0x21B1 JUMP JUMPDEST PUSH1 0x24 CALLDATALOAD SWAP1 PUSH2 0x28CE JUMP JUMPDEST PUSH1 0x40 MLOAD SWAP1 ISZERO ISZERO DUP2 MSTORE RETURN JUMPDEST PUSH2 0x100 CALLDATASIZE PUSH1 0x3 NOT ADD SLT PUSH2 0x20B JUMPI PUSH1 0x4 CALLDATALOAD PUSH1 0x1 PUSH1 0x1 PUSH1 0x40 SHL SUB DUP2 GT PUSH2 0x20B JUMPI PUSH2 0x1319 SWAP1 CALLDATASIZE SWAP1 PUSH1 0x4 ADD PUSH2 0x224E JUMP JUMPDEST SWAP1 PUSH2 0x1322 PUSH2 0x20F8 JUMP JUMPDEST SWAP1 PUSH1 0x64 SWAP1 DUP2 CALLDATALOAD PUSH1 0x1 PUSH1 0x1 PUSH1 0x40 SHL SUB DUP2 GT PUSH2 0x20B JUMPI PUSH2 0x1344 SWAP1 CALLDATASIZE SWAP1 PUSH1 0x4 ADD PUSH2 0x224E JUMP JUMPDEST SWAP1 SWAP5 PUSH1 0x84 CALLDATALOAD SWAP4 DUP5 ISZERO ISZERO DUP6 SUB PUSH2 0x20B JUMPI PUSH2 0x135B PUSH2 0x27B9 JUMP JUMPDEST PUSH2 0x1363 PUSH2 0x27D7 JUMP JUMPDEST DUP2 ISZERO PUSH2 0x1986 JUMPI DUP3 ISZERO PUSH2 0x194D JUMPI PUSH2 0x137C PUSH1 0x24 CALLDATALOAD ISZERO ISZERO PUSH2 0x2672 JUMP JUMPDEST PUSH1 0xA4 CALLDATALOAD ISZERO PUSH2 0x1916 JUMPI PUSH2 0x1388 PUSH1 0xC4 CALLDATALOAD GT PUSH2 0x18DC JUMPI PUSH1 0x1 PUSH1 0xE4 CALLDATALOAD LT PUSH2 0x18A5 JUMPI PUSH2 0x2D0 PUSH1 0xE4 CALLDATALOAD GT PUSH2 0x186F JUMPI POP PUSH2 0x13B3 PUSH1 0x3 SLOAD CALLVALUE LT ISZERO PUSH2 0x26DE JUMP JUMPDEST PUSH1 0x8 SLOAD SWAP5 PUSH2 0x13C0 DUP7 PUSH2 0x272A JUMP JUMPDEST PUSH1 0x8 SSTORE PUSH2 0xE10 PUSH1 0xE4 CALLDATALOAD DUP2 PUSH1 0xE4 CALLDATALOAD MUL DIV DUP2 EQ PUSH1 0xE4 CALLDATALOAD ISZERO OR ISZERO PUSH2 0x82E JUMPI PUSH2 0x13E9 SWAP1 PUSH1 0xE4 CALLDATALOAD MUL TIMESTAMP PUSH2 0x2739 JUMP JUMPDEST SWAP1 PUSH1 0x40 MLOAD SWAP2 PUSH2 0x13F7 DUP4 PUSH2 0x2107 JUMP JUMPDEST DUP8 DUP4 MSTORE CALLER PUSH1 0x20 DUP5 ADD MSTORE PUSH2 0x140B CALLDATASIZE DUP6 DUP9 PUSH2 0x217A JUMP JUMPDEST PUSH1 0x40 DUP5 ADD MSTORE PUSH1 0x24 CALLDATALOAD PUSH1 0x60 DUP5 ADD MSTORE DUP2 ISZERO ISZERO PUSH1 0x80 DUP5 ADD MSTORE PUSH2 0x142B CALLDATASIZE DUP7 DUP12 PUSH2 0x217A JUMP JUMPDEST PUSH1 0xA0 DUP5 ADD MSTORE DUP7 ISZERO ISZERO PUSH1 0xC0 DUP5 ADD MSTORE PUSH1 0xA4 CALLDATALOAD PUSH1 0xE0 DUP5 ADD MSTORE PUSH1 0xC4 CALLDATALOAD PUSH2 0x100 DUP5 ADD MSTORE TIMESTAMP PUSH2 0x120 DUP5 ADD MSTORE PUSH2 0x140 DUP4 ADD MSTORE PUSH1 0x0 PUSH2 0x160 DUP4 ADD MSTORE CALLVALUE PUSH2 0x180 DUP4 ADD MSTORE PUSH1 0x0 PUSH2 0x1A0 DUP4 ADD MSTORE PUSH1 0x0 PUSH2 0x1C0 DUP4 ADD MSTORE PUSH1 0x0 PUSH2 0x1E0 DUP4 ADD MSTORE DUP7 PUSH1 0x0 MSTORE PUSH1 0x6 PUSH1 0x20 MSTORE PUSH1 0x40 PUSH1 0x0 KECCAK256 SWAP4 DUP3 MLOAD DUP6 SSTORE PUSH1 0x1 DUP6 ADD PUSH1 0x1 DUP1 PUSH1 0xA0 SHL SUB PUSH1 0x20 DUP6 ADD MLOAD AND PUSH12 0xFFFFFFFFFFFFFFFFFFFFFFFF PUSH1 0xA0 SHL DUP3 SLOAD AND OR SWAP1 SSTORE PUSH1 0x40 DUP4 ADD MLOAD DUP1 MLOAD SWAP1 PUSH1 0x1 PUSH1 0x1 PUSH1 0x40 SHL SUB DUP3 GT PUSH2 0x748 JUMPI DUP2 SWAP1 PUSH2 0x14DC PUSH1 0x2 DUP10 ADD SLOAD PUSH2 0x23C5 JUMP JUMPDEST PUSH1 0x1F DUP2 GT PUSH2 0x181C JUMPI JUMPDEST POP PUSH1 0x20 SWAP1 PUSH1 0x1F DUP4 GT PUSH1 0x1 EQ PUSH2 0x17AA JUMPI PUSH1 0x0 SWAP3 PUSH2 0x179F JUMPI JUMPDEST POP POP DUP2 PUSH1 0x1 SHL SWAP2 PUSH1 0x0 NOT SWAP1 PUSH1 0x3 SHL SHR NOT AND OR PUSH1 0x2 DUP7 ADD SSTORE JUMPDEST PUSH1 0x60 DUP4 ADD MLOAD PUSH1 0x3 DUP7 ADD SSTORE PUSH2 0x153D PUSH1 0x80 DUP5 ADD MLOAD ISZERO ISZERO PUSH1 0x4 DUP8 ADD SWAP1 PUSH1 0xFF DUP1 NOT DUP4 SLOAD AND SWAP2 ISZERO ISZERO AND OR SWAP1 SSTORE JUMP JUMPDEST PUSH1 0xA0 DUP4 ADD MLOAD DUP1 MLOAD SWAP1 PUSH1 0x1 PUSH1 0x1 PUSH1 0x40 SHL SUB DUP3 GT PUSH2 0x748 JUMPI DUP2 SWAP1 PUSH2 0x1562 PUSH1 0x5 DUP10 ADD SLOAD PUSH2 0x23C5 JUMP JUMPDEST PUSH1 0x1F DUP2 GT PUSH2 0x174C JUMPI JUMPDEST POP PUSH1 0x20 SWAP1 PUSH1 0x1F DUP4 GT PUSH1 0x1 EQ PUSH2 0x16DA JUMPI PUSH1 0x0 SWAP3 PUSH2 0x16CF JUMPI JUMPDEST POP POP DUP2 PUSH1 0x1 SHL SWAP2 PUSH1 0x0 NOT SWAP1 PUSH1 0x3 SHL SHR NOT AND OR PUSH1 0x5 DUP7 ADD SSTORE JUMPDEST PUSH2 0x15B9 PUSH1 0xC0 DUP5 ADD MLOAD ISZERO ISZERO PUSH1 0x6 DUP8 ADD SWAP1 PUSH1 0xFF DUP1 NOT DUP4 SLOAD AND SWAP2 ISZERO ISZERO AND OR SWAP1 SSTORE JUMP JUMPDEST PUSH1 0xE0 DUP4 ADD MLOAD PUSH1 0x7 DUP7 ADD SSTORE PUSH2 0x100 DUP4 ADD MLOAD PUSH1 0x8 DUP7 ADD SSTORE PUSH2 0x120 DUP4 ADD MLOAD PUSH1 0x9 DUP7 ADD SSTORE PUSH2 0x140 DUP4 ADD MLOAD PUSH1 0xA DUP7 ADD SSTORE PUSH2 0x160 DUP4 ADD MLOAD SWAP9 PUSH1 0x5 DUP11 LT ISZERO PUSH2 0x662 JUMPI PUSH2 0x1690 DUP10 SWAP8 DUP8 PUSH1 0xF PUSH2 0x1E0 PUSH2 0x16AC SWAP9 PUSH1 0x20 SWAP16 PUSH2 0x1634 SWAP1 PUSH1 0xB PUSH32 0xEA8640DE2F174F1FA43C2FA556863133CAABCFBBB2E37626B2A0239F4F84B006 SWAP15 ADD PUSH2 0x2746 JUMP JUMPDEST PUSH2 0x180 DUP2 ADD MLOAD PUSH1 0xC DUP6 ADD SSTORE PUSH2 0x1A0 DUP2 ADD MLOAD PUSH1 0xD DUP6 ADD SSTORE PUSH2 0x1C0 DUP2 ADD MLOAD PUSH1 0xE DUP6 ADD SSTORE ADD MLOAD SWAP2 ADD SSTORE CALLER PUSH1 0x0 MSTORE PUSH1 0x7 DUP13 MSTORE PUSH2 0x1670 DUP10 PUSH1 0x40 PUSH1 0x0 KECCAK256 PUSH2 0x275E JUMP JUMPDEST PUSH2 0x167B PUSH1 0x9 SLOAD PUSH2 0x272A JUMP JUMPDEST PUSH1 0x9 SSTORE PUSH1 0x40 MLOAD SWAP7 PUSH1 0xC0 DUP9 MSTORE PUSH1 0xC0 DUP9 ADD SWAP2 PUSH2 0x2798 JUMP JUMPDEST SWAP3 PUSH1 0x24 CALLDATALOAD DUP12 DUP8 ADD MSTORE ISZERO ISZERO PUSH1 0x40 DUP7 ADD MSTORE DUP5 DUP4 SUB PUSH1 0x60 DUP7 ADD MSTORE PUSH2 0x2798 JUMP JUMPDEST SWAP4 ISZERO ISZERO PUSH1 0x80 DUP3 ADD MSTORE PUSH1 0xA4 CALLDATALOAD PUSH1 0xA0 DUP3 ADD MSTORE DUP1 CALLER SWAP5 SUB SWAP1 LOG3 PUSH1 0x1 PUSH1 0x2 SSTORE PUSH1 0x40 MLOAD SWAP1 DUP2 MSTORE RETURN JUMPDEST ADD MLOAD SWAP1 POP DUP12 DUP1 PUSH2 0x1582 JUMP JUMPDEST SWAP3 POP PUSH1 0x5 DUP9 ADD PUSH1 0x0 MSTORE PUSH1 0x20 PUSH1 0x0 KECCAK256 SWAP1 PUSH1 0x0 SWAP4 JUMPDEST PUSH1 0x1F NOT DUP5 AND DUP6 LT PUSH2 0x1731 JUMPI PUSH1 0x1 SWAP5 POP DUP4 PUSH1 0x1F NOT DUP2 AND LT PUSH2 0x1718 JUMPI JUMPDEST POP POP POP DUP2 SHL ADD PUSH1 0x5 DUP7 ADD SSTORE PUSH2 0x159A JUMP JUMPDEST ADD MLOAD PUSH1 0x0 NOT PUSH1 0xF8 DUP5 PUSH1 0x3 SHL AND SHR NOT AND SWAP1 SSTORE DUP12 DUP1 DUP1 PUSH2 0x1708 JUMP JUMPDEST DUP2 DUP2 ADD MLOAD DUP4 SSTORE PUSH1 0x20 SWAP5 DUP6 ADD SWAP5 PUSH1 0x1 SWAP1 SWAP4 ADD SWAP3 SWAP1 SWAP2 ADD SWAP1 PUSH2 0x16ED JUMP JUMPDEST SWAP1 SWAP2 POP PUSH1 0x5 DUP9 ADD PUSH1 0x0 MSTORE PUSH1 0x20 PUSH1 0x0 KECCAK256 PUSH1 0x1F DUP5 ADD PUSH1 0x5 SHR DUP2 ADD PUSH1 0x20 DUP6 LT PUSH2 0x1798 JUMPI JUMPDEST SWAP1 DUP5 SWAP4 SWAP3 SWAP2 JUMPDEST PUSH1 0x1F DUP4 ADD PUSH1 0x5 SHR DUP3 ADD DUP2 LT PUSH2 0x1789 JUMPI POP POP PUSH2 0x156B JUMP JUMPDEST PUSH1 0x0 DUP2 SSTORE DUP6 SWAP5 POP PUSH1 0x1 ADD PUSH2 0x1773 JUMP JUMPDEST POP DUP1 PUSH2 0x176D JUMP JUMPDEST ADD MLOAD SWAP1 POP DUP12 DUP1 PUSH2 0x14FC JUMP JUMPDEST SWAP3 POP PUSH1 0x2 DUP9 ADD PUSH1 0x0 MSTORE PUSH1 0x20 PUSH1 0x0 KECCAK256 SWAP1 PUSH1 0x0 SWAP4 JUMPDEST PUSH1 0x1F NOT DUP5 AND DUP6 LT PUSH2 0x1801 JUMPI PUSH1 0x1 SWAP5 POP DUP4 PUSH1 0x1F NOT DUP2 AND LT PUSH2 0x17E8 JUMPI JUMPDEST POP POP POP DUP2 SHL ADD PUSH1 0x2 DUP7 ADD SSTORE PUSH2 0x1514 JUMP JUMPDEST ADD MLOAD PUSH1 0x0 NOT PUSH1 0xF8 DUP5 PUSH1 0x3 SHL AND SHR NOT AND SWAP1 SSTORE DUP12 DUP1 DUP1 PUSH2 0x17D8 JUMP JUMPDEST DUP2 DUP2 ADD MLOAD DUP4 SSTORE PUSH1 0x20 SWAP5 DUP6 ADD SWAP5 PUSH1 0x1 SWAP1 SWAP4 ADD SWAP3 SWAP1 SWAP2 ADD SWAP1 PUSH2 0x17BD JUMP JUMPDEST SWAP1 SWAP2 POP PUSH1 0x2 DUP9 ADD PUSH1 0x0 MSTORE PUSH1 0x20 PUSH1 0x0 KECCAK256 PUSH1 0x1F DUP5 ADD PUSH1 0x5 SHR DUP2 ADD PUSH1 0x20 DUP6 LT PUSH2 0x1868 JUMPI JUMPDEST SWAP1 DUP5 SWAP4 SWAP3 SWAP2 JUMPDEST PUSH1 0x1F DUP4 ADD PUSH1 0x5 SHR DUP3 ADD DUP2 LT PUSH2 0x1859 JUMPI POP POP PUSH2 0x14E5 JUMP JUMPDEST PUSH1 0x0 DUP2 SSTORE DUP6 SWAP5 POP PUSH1 0x1 ADD PUSH2 0x1843 JUMP JUMPDEST POP DUP1 PUSH2 0x183D JUMP JUMPDEST PUSH1 0x40 MLOAD PUSH3 0x461BCD PUSH1 0xE5 SHL DUP2 MSTORE PUSH1 0x20 PUSH1 0x4 DUP3 ADD MSTORE PUSH1 0x11 PUSH1 0x24 DUP3 ADD MSTORE PUSH17 0x4475726174696F6E20746F6F206C6F6E67 PUSH1 0x78 SHL PUSH1 0x44 DUP3 ADD MSTORE REVERT JUMPDEST PUSH1 0x40 MLOAD PUSH3 0x461BCD PUSH1 0xE5 SHL DUP2 MSTORE PUSH1 0x20 PUSH1 0x4 DUP3 ADD MSTORE PUSH1 0x12 PUSH1 0x24 DUP3 ADD MSTORE PUSH18 0x111D5C985D1A5BDB881D1BDBC81CDA1BDC9D PUSH1 0x72 SHL PUSH1 0x44 DUP3 ADD MSTORE REVERT JUMPDEST PUSH1 0x40 MLOAD PUSH3 0x461BCD PUSH1 0xE5 SHL DUP2 MSTORE PUSH1 0x20 PUSH1 0x4 DUP3 ADD MSTORE PUSH1 0x15 PUSH1 0x24 DUP3 ADD MSTORE PUSH21 0x9AC2F040E6D8D2E0E0C2CECA40E8DEDE40D0D2CED PUSH1 0x5B SHL PUSH1 0x44 DUP3 ADD MSTORE REVERT JUMPDEST PUSH1 0x40 MLOAD PUSH3 0x461BCD PUSH1 0xE5 SHL DUP2 MSTORE PUSH1 0x20 PUSH1 0x4 DUP3 ADD MSTORE PUSH1 0x12 PUSH1 0x24 DUP3 ADD MSTORE PUSH18 0x416D6F756E74206D757374206265203E203 PUSH1 0x74 SHL PUSH1 0x44 DUP3 ADD MSTORE REVERT JUMPDEST PUSH1 0x40 MLOAD PUSH3 0x461BCD PUSH1 0xE5 SHL DUP2 MSTORE PUSH1 0x20 PUSH1 0x4 DUP3 ADD MSTORE PUSH1 0x14 PUSH1 0x24 DUP3 ADD MSTORE PUSH20 0x151C98591948185CDCD95D081C995C5D5A5C9959 PUSH1 0x62 SHL PUSH1 0x44 DUP3 ADD MSTORE REVERT JUMPDEST PUSH1 0x40 MLOAD PUSH3 0x461BCD PUSH1 0xE5 SHL DUP2 MSTORE PUSH1 0x20 PUSH1 0x4 DUP3 ADD MSTORE PUSH1 0x14 PUSH1 0x24 DUP3 ADD MSTORE PUSH20 0x15D85D18DA08185CDCD95D081C995C5D5A5C9959 PUSH1 0x62 SHL PUSH1 0x44 DUP3 ADD MSTORE REVERT JUMPDEST CALLVALUE PUSH2 0x20B JUMPI PUSH1 0x0 CALLDATASIZE PUSH1 0x3 NOT ADD SLT PUSH2 0x20B JUMPI PUSH1 0x20 PUSH1 0xFF PUSH1 0x1 SLOAD AND PUSH1 0x40 MLOAD SWAP1 ISZERO ISZERO DUP2 MSTORE RETURN JUMPDEST CALLVALUE PUSH2 0x20B JUMPI PUSH1 0x0 CALLDATASIZE PUSH1 0x3 NOT ADD SLT PUSH2 0x20B JUMPI PUSH1 0x20 PUSH1 0x9 SLOAD PUSH1 0x40 MLOAD SWAP1 DUP2 MSTORE RETURN JUMPDEST CALLVALUE PUSH2 0x20B JUMPI PUSH2 0x1A17 PUSH2 0x1A11 CALLDATASIZE PUSH2 0x227B JUMP JUMPDEST SWAP1 PUSH2 0x2A31 JUMP JUMPDEST SWAP1 PUSH2 0xE0B PUSH1 0x40 MLOAD SWAP3 DUP4 SWAP3 ISZERO ISZERO DUP4 MSTORE PUSH1 0x40 PUSH1 0x20 DUP5 ADD MSTORE PUSH1 0x40 DUP4 ADD SWAP1 PUSH2 0x2291 JUMP JUMPDEST CALLVALUE PUSH2 0x20B JUMPI PUSH1 0x0 CALLDATASIZE PUSH1 0x3 NOT ADD SLT PUSH2 0x20B JUMPI PUSH2 0x1A4F PUSH2 0x24A5 JUMP JUMPDEST SELFBALANCE DUP1 ISZERO PUSH2 0x1AA8 JUMPI PUSH1 0x0 DUP1 DUP1 DUP1 SWAP4 CALLER GAS CALL PUSH2 0x1A67 PUSH2 0x2A01 JUMP JUMPDEST POP ISZERO PUSH2 0x1A6F JUMPI STOP JUMPDEST PUSH1 0x40 MLOAD PUSH3 0x461BCD PUSH1 0xE5 SHL DUP2 MSTORE PUSH1 0x20 PUSH1 0x4 DUP3 ADD MSTORE PUSH1 0x11 PUSH1 0x24 DUP3 ADD MSTORE PUSH17 0x15DA5D1A191C985DD85B0819985A5B1959 PUSH1 0x7A SHL PUSH1 0x44 DUP3 ADD MSTORE PUSH1 0x64 SWAP1 REVERT JUMPDEST PUSH1 0x40 MLOAD PUSH3 0x461BCD PUSH1 0xE5 SHL DUP2 MSTORE PUSH1 0x20 PUSH1 0x4 DUP3 ADD MSTORE PUSH1 0x13 PUSH1 0x24 DUP3 ADD MSTORE PUSH19 0x4E6F206665657320746F207769746864726177 PUSH1 0x68 SHL PUSH1 0x44 DUP3 ADD MSTORE PUSH1 0x64 SWAP1 REVERT JUMPDEST CALLVALUE PUSH2 0x20B JUMPI PUSH1 0x0 CALLDATASIZE PUSH1 0x3 NOT ADD SLT PUSH2 0x20B JUMPI PUSH1 0x20 PUSH1 0x8 SLOAD PUSH1 0x40 MLOAD SWAP1 DUP2 MSTORE RETURN JUMPDEST CALLVALUE PUSH2 0x20B JUMPI PUSH1 0x0 CALLDATASIZE PUSH1 0x3 NOT ADD SLT PUSH2 0x20B JUMPI PUSH2 0x1B1A PUSH2 0x24A5 JUMP JUMPDEST PUSH1 0x1 SLOAD PUSH1 0xFF DUP2 AND ISZERO PUSH2 0x1B59 JUMPI PUSH1 0xFF NOT AND PUSH1 0x1 SSTORE PUSH32 0x5DB9EE0A495BF2E6FF9C91A7834C1BA4FDD244A5E8AA4E537BD38AEAE4B073AA PUSH1 0x20 PUSH1 0x40 MLOAD CALLER DUP2 MSTORE LOG1 STOP JUMPDEST PUSH1 0x40 MLOAD PUSH4 0x8DFC202B PUSH1 0xE0 SHL DUP2 MSTORE PUSH1 0x4 SWAP1 REVERT JUMPDEST CALLVALUE PUSH2 0x20B JUMPI PUSH1 0x40 CALLDATASIZE PUSH1 0x3 NOT ADD SLT PUSH2 0x20B JUMPI PUSH1 0x4 CALLDATALOAD PUSH1 0x1 PUSH1 0x1 PUSH1 0x40 SHL SUB DUP2 GT PUSH2 0x20B JUMPI PUSH2 0x1B9B SWAP1 CALLDATASIZE SWAP1 PUSH1 0x4 ADD PUSH2 0x224E JUMP JUMPDEST PUSH1 0x24 CALLDATALOAD SWAP2 PUSH4 0xFFFFFFFF DUP4 AND DUP1 DUP5 SUB PUSH2 0x20B JUMPI PUSH32 0x4CE9F3693E41DABDC77C9BE517202F5A1009A7FBECA72CFB83F61B86A77D24B5 SWAP4 PUSH2 0x1C09 SWAP2 PUSH2 0x1BDB PUSH2 0x24A5 JUMP JUMPDEST PUSH1 0x40 MLOAD DUP6 DUP6 DUP3 CALLDATACOPY PUSH1 0x20 DUP2 DUP8 DUP2 ADD PUSH1 0xA DUP2 MSTORE SUB ADD SWAP1 KECCAK256 SWAP1 PUSH4 0xFFFFFFFF NOT DUP3 SLOAD AND OR SWAP1 SSTORE PUSH1 0x40 MLOAD SWAP4 DUP5 SWAP4 DUP5 PUSH2 0x2D24 JUMP JUMPDEST SUB SWAP1 LOG1 STOP JUMPDEST CALLVALUE PUSH2 0x20B JUMPI PUSH1 0x0 CALLDATASIZE PUSH1 0x3 NOT ADD SLT PUSH2 0x20B JUMPI PUSH1 0x20 PUSH1 0xFF PUSH1 0x5 SLOAD AND PUSH1 0x40 MLOAD SWAP1 ISZERO ISZERO DUP2 MSTORE RETURN JUMPDEST CALLVALUE PUSH2 0x20B JUMPI PUSH1 0x40 CALLDATASIZE PUSH1 0x3 NOT ADD SLT PUSH2 0x20B JUMPI PUSH1 0x4 CALLDATALOAD PUSH1 0x24 CALLDATALOAD PUSH1 0x1 PUSH1 0x1 PUSH1 0x40 SHL SUB DUP2 GT PUSH2 0x20B JUMPI PUSH2 0x1C64 SWAP1 CALLDATASIZE SWAP1 PUSH1 0x4 ADD PUSH2 0x224E JUMP JUMPDEST SWAP1 PUSH2 0x1C6D PUSH2 0x24FD JUMP JUMPDEST DUP3 PUSH1 0x0 MSTORE PUSH1 0x6 PUSH1 0x20 MSTORE PUSH1 0xB PUSH1 0x40 PUSH1 0x0 KECCAK256 ADD SWAP2 DUP3 SLOAD SWAP3 PUSH1 0xFF DUP5 AND PUSH1 0x5 DUP2 LT ISZERO PUSH2 0x662 JUMPI PUSH32 0x1322C62B2B0266A20579A26B0DDFCF33E8B042D86CEB5FAE7B05362EA44AFA03 SWAP5 PUSH2 0x1CBD PUSH1 0x4 SWAP3 ISZERO PUSH2 0x2973 JUMP JUMPDEST PUSH1 0xFF NOT AND OR SWAP1 SSTORE PUSH1 0x9 SLOAD DUP1 PUSH2 0x1CEA JUMPI JUMPDEST POP PUSH2 0x1CE5 PUSH1 0x40 MLOAD SWAP3 DUP4 SWAP3 PUSH1 0x20 DUP5 MSTORE PUSH1 0x20 DUP5 ADD SWAP2 PUSH2 0x2798 JUMP JUMPDEST SUB SWAP1 LOG2 STOP JUMPDEST PUSH2 0x1CF3 SWAP1 PUSH2 0x29B4 JUMP JUMPDEST PUSH1 0x9 SSTORE DUP5 PUSH2 0x1CCD JUMP JUMPDEST CALLVALUE PUSH2 0x20B JUMPI PUSH1 0x40 CALLDATASIZE PUSH1 0x3 NOT ADD SLT PUSH2 0x20B JUMPI PUSH2 0x1D15 PUSH2 0x2222 JUMP JUMPDEST CALLER PUSH1 0x1 PUSH1 0x1 PUSH1 0xA0 SHL SUB DUP3 AND SUB PUSH2 0x1D31 JUMPI PUSH2 0x1B SWAP1 PUSH1 0x4 CALLDATALOAD PUSH2 0x25FD JUMP JUMPDEST PUSH1 0x40 MLOAD PUSH4 0x334BD919 PUSH1 0xE1 SHL DUP2 MSTORE PUSH1 0x4 SWAP1 REVERT JUMPDEST CALLVALUE PUSH2 0x20B JUMPI PUSH1 0x40 CALLDATASIZE PUSH1 0x3 NOT ADD SLT PUSH2 0x20B JUMPI PUSH2 0x1B PUSH1 0x4 CALLDATALOAD PUSH2 0x1D62 PUSH2 0x2222 JUMP JUMPDEST SWAP1 DUP1 PUSH1 0x0 MSTORE PUSH1 0x0 PUSH1 0x20 MSTORE PUSH2 0x1D7D PUSH1 0x1 PUSH1 0x40 PUSH1 0x0 KECCAK256 ADD SLOAD PUSH2 0x2559 JUMP JUMPDEST PUSH2 0x257F JUMP JUMPDEST CALLVALUE PUSH2 0x20B JUMPI PUSH1 0x40 CALLDATASIZE PUSH1 0x3 NOT ADD SLT PUSH2 0x20B JUMPI PUSH1 0x1 PUSH1 0x1 PUSH1 0x40 SHL SUB PUSH1 0x4 CALLDATALOAD DUP2 DUP2 GT PUSH2 0x20B JUMPI PUSH2 0x1DB3 SWAP1 CALLDATASIZE SWAP1 PUSH1 0x4 ADD PUSH2 0x21F2 JUMP JUMPDEST SWAP2 PUSH1 0x24 CALLDATALOAD SWAP1 DUP2 GT PUSH2 0x20B JUMPI PUSH2 0x1DCC SWAP1 CALLDATASIZE SWAP1 PUSH1 0x4 ADD PUSH2 0x21F2 JUMP JUMPDEST PUSH2 0x1DD7 SWAP3 SWAP2 SWAP3 PUSH2 0x24A5 JUMP JUMPDEST DUP1 DUP5 SUB PUSH2 0x1E8D JUMPI PUSH1 0x0 JUMPDEST DUP5 DUP2 LT PUSH2 0x1DEA JUMPI STOP JUMPDEST DUP1 PUSH2 0x1E01 PUSH2 0x1DFC PUSH2 0x1E88 SWAP4 DUP6 DUP9 PUSH2 0x2B8F JUMP JUMPDEST PUSH2 0x2D49 JUMP JUMPDEST PUSH4 0xFFFFFFFF PUSH1 0x20 PUSH2 0x1E13 DUP5 DUP11 DUP10 PUSH2 0x2D5A JUMP JUMPDEST SWAP2 SWAP1 DUP3 PUSH1 0x40 MLOAD SWAP4 DUP5 SWAP3 DUP4 CALLDATACOPY DUP2 ADD PUSH1 0xA DUP2 MSTORE SUB ADD SWAP1 KECCAK256 SWAP2 AND PUSH4 0xFFFFFFFF NOT DUP3 SLOAD AND OR SWAP1 SSTORE PUSH32 0x4CE9F3693E41DABDC77C9BE517202F5A1009A7FBECA72CFB83F61B86A77D24B5 PUSH2 0x1E62 DUP3 DUP9 DUP8 PUSH2 0x2D5A JUMP JUMPDEST SWAP1 PUSH2 0x1E80 PUSH2 0x1E74 PUSH2 0x1DFC DUP7 DUP10 DUP13 PUSH2 0x2B8F JUMP JUMPDEST PUSH1 0x40 MLOAD SWAP4 DUP5 SWAP4 DUP5 PUSH2 0x2D24 JUMP JUMPDEST SUB SWAP1 LOG1 PUSH2 0x272A JUMP JUMPDEST PUSH2 0x1DE1 JUMP JUMPDEST PUSH1 0x40 MLOAD PUSH3 0x461BCD PUSH1 0xE5 SHL DUP2 MSTORE PUSH1 0x20 PUSH1 0x4 DUP3 ADD MSTORE PUSH1 0x15 PUSH1 0x24 DUP3 ADD MSTORE PUSH21 0x82E4E4C2F240D8CADCCEE8D040DAD2E6DAC2E8C6D PUSH1 0x5B SHL PUSH1 0x44 DUP3 ADD MSTORE PUSH1 0x64 SWAP1 REVERT JUMPDEST CALLVALUE PUSH2 0x20B JUMPI PUSH1 0x20 CALLDATASIZE PUSH1 0x3 NOT ADD SLT PUSH2 0x20B JUMPI PUSH1 0x4 CALLDATALOAD PUSH2 0x1EE6 PUSH2 0x24A5 JUMP JUMPDEST PUSH2 0x3E8 DUP2 GT PUSH2 0x1F20 JUMPI PUSH1 0x20 DUP2 PUSH32 0xAB56DE9FE168CE12A9A1F47B688D739DB6607607C1D71DAD52DDD8BEDCF5E25 SWAP3 PUSH1 0x4 SSTORE PUSH1 0x40 MLOAD SWAP1 DUP2 MSTORE LOG1 STOP JUMPDEST PUSH1 0x40 MLOAD PUSH3 0x461BCD PUSH1 0xE5 SHL DUP2 MSTORE PUSH1 0x20 PUSH1 0x4 DUP3 ADD MSTORE PUSH1 0x12 PUSH1 0x24 DUP3 ADD MSTORE PUSH18 0x88CAECD2C2E8D2DEDC40E8DEDE40D0D2CED PUSH1 0x73 SHL PUSH1 0x44 DUP3 ADD MSTORE PUSH1 0x64 SWAP1 REVERT JUMPDEST CALLVALUE PUSH2 0x20B JUMPI PUSH1 0x20 CALLDATASIZE PUSH1 0x3 NOT ADD SLT PUSH2 0x20B JUMPI PUSH1 0x4 CALLDATALOAD PUSH1 0x0 MSTORE PUSH1 0x0 PUSH1 0x20 MSTORE PUSH1 0x20 PUSH1 0x1 PUSH1 0x40 PUSH1 0x0 KECCAK256 ADD SLOAD PUSH1 0x40 MLOAD SWAP1 DUP2 MSTORE RETURN JUMPDEST CALLVALUE PUSH2 0x20B JUMPI PUSH1 0x20 CALLDATASIZE PUSH1 0x3 NOT ADD SLT PUSH2 0x20B JUMPI PUSH1 0x4 CALLDATALOAD PUSH1 0x1 PUSH1 0x1 PUSH1 0x40 SHL SUB DUP2 GT PUSH2 0x20B JUMPI PUSH4 0xFFFFFFFF PUSH2 0x1FD7 PUSH1 0x20 PUSH2 0x1FC4 DUP2 SWAP5 CALLDATASIZE SWAP1 PUSH1 0x4 ADD PUSH2 0x21B1 JUMP JUMPDEST DUP2 PUSH1 0x40 MLOAD SWAP4 DUP3 DUP6 DUP1 SWAP5 MLOAD SWAP4 DUP5 SWAP3 ADD PUSH2 0x21CF JUMP JUMPDEST DUP2 ADD PUSH1 0xA DUP2 MSTORE SUB ADD SWAP1 KECCAK256 SLOAD AND PUSH1 0x40 MLOAD SWAP1 DUP2 MSTORE RETURN JUMPDEST CALLVALUE PUSH2 0x20B JUMPI PUSH1 0x0 CALLDATASIZE PUSH1 0x3 NOT ADD SLT PUSH2 0x20B JUMPI PUSH1 0x20 PUSH1 0x40 MLOAD PUSH2 0xE10 DUP2 MSTORE RETURN JUMPDEST CALLVALUE PUSH2 0x20B JUMPI PUSH1 0x0 CALLDATASIZE PUSH1 0x3 NOT ADD SLT PUSH2 0x20B JUMPI PUSH1 0x20 PUSH1 0x40 MLOAD PUSH32 0xD8AA0F3194971A2A116679F7C2090F6939C8D4E01A2A8D7E41D55E5351469E63 DUP2 MSTORE RETURN JUMPDEST CALLVALUE PUSH2 0x20B JUMPI PUSH1 0x20 CALLDATASIZE PUSH1 0x3 NOT ADD SLT PUSH2 0x20B JUMPI PUSH1 0x4 CALLDATALOAD DUP1 ISZERO ISZERO DUP1 SWAP2 SUB PUSH2 0x20B JUMPI PUSH1 0x20 PUSH32 0xAA226F1D60857BDC1D6E53C2DA65E2F6E4114CA84F8A5A340F3C2262C70E98E4 SWAP2 PUSH2 0x208D PUSH2 0x24A5 JUMP JUMPDEST PUSH1 0xFF NOT PUSH1 0x5 SLOAD AND PUSH1 0xFF DUP3 AND OR PUSH1 0x5 SSTORE PUSH1 0x40 MLOAD SWAP1 DUP2 MSTORE LOG1 STOP JUMPDEST CALLVALUE PUSH2 0x20B JUMPI PUSH1 0x20 CALLDATASIZE PUSH1 0x3 NOT ADD SLT PUSH2 0x20B JUMPI PUSH1 0x4 CALLDATALOAD SWAP1 PUSH4 0xFFFFFFFF PUSH1 0xE0 SHL DUP3 AND DUP1 SWAP3 SUB PUSH2 0x20B JUMPI PUSH1 0x20 SWAP2 PUSH4 0x7965DB0B PUSH1 0xE0 SHL DUP2 EQ SWAP1 DUP2 ISZERO PUSH2 0x20E7 JUMPI JUMPDEST POP ISZERO ISZERO DUP2 MSTORE RETURN JUMPDEST PUSH4 0x1FFC9A7 PUSH1 0xE0 SHL EQ SWAP1 POP DUP4 PUSH2 0x20E0 JUMP JUMPDEST PUSH1 0x44 CALLDATALOAD SWAP1 DUP2 ISZERO ISZERO DUP3 SUB PUSH2 0x20B JUMPI JUMP JUMPDEST PUSH2 0x200 DUP2 ADD SWAP1 DUP2 LT PUSH1 0x1 PUSH1 0x1 PUSH1 0x40 SHL SUB DUP3 GT OR PUSH2 0x748 JUMPI PUSH1 0x40 MSTORE JUMP JUMPDEST PUSH1 0x40 DUP2 ADD SWAP1 DUP2 LT PUSH1 0x1 PUSH1 0x1 PUSH1 0x40 SHL SUB DUP3 GT OR PUSH2 0x748 JUMPI PUSH1 0x40 MSTORE JUMP JUMPDEST SWAP1 PUSH1 0x1F DUP1 NOT SWAP2 ADD AND DUP2 ADD SWAP1 DUP2 LT PUSH1 0x1 PUSH1 0x1 PUSH1 0x40 SHL SUB DUP3 GT OR PUSH2 0x748 JUMPI PUSH1 0x40 MSTORE JUMP JUMPDEST PUSH1 0x1 PUSH1 0x1 PUSH1 0x40 SHL SUB DUP2 GT PUSH2 0x748 JUMPI PUSH1 0x1F ADD PUSH1 0x1F NOT AND PUSH1 0x20 ADD SWAP1 JUMP JUMPDEST SWAP3 SWAP2 SWAP3 PUSH2 0x2186 DUP3 PUSH2 0x215F JUMP JUMPDEST SWAP2 PUSH2 0x2194 PUSH1 0x40 MLOAD SWAP4 DUP5 PUSH2 0x213E JUMP JUMPDEST DUP3 SWAP5 DUP2 DUP5 MSTORE DUP2 DUP4 ADD GT PUSH2 0x20B JUMPI DUP3 DUP2 PUSH1 0x20 SWAP4 DUP5 PUSH1 0x0 SWAP7 ADD CALLDATACOPY ADD ADD MSTORE JUMP JUMPDEST SWAP1 DUP1 PUSH1 0x1F DUP4 ADD SLT ISZERO PUSH2 0x20B JUMPI DUP2 PUSH1 0x20 PUSH2 0x21CC SWAP4 CALLDATALOAD SWAP2 ADD PUSH2 0x217A JUMP JUMPDEST SWAP1 JUMP JUMPDEST PUSH1 0x0 JUMPDEST DUP4 DUP2 LT PUSH2 0x21E2 JUMPI POP POP PUSH1 0x0 SWAP2 ADD MSTORE JUMP JUMPDEST DUP2 DUP2 ADD MLOAD DUP4 DUP3 ADD MSTORE PUSH1 0x20 ADD PUSH2 0x21D2 JUMP JUMPDEST SWAP2 DUP2 PUSH1 0x1F DUP5 ADD SLT ISZERO PUSH2 0x20B JUMPI DUP3 CALLDATALOAD SWAP2 PUSH1 0x1 PUSH1 0x1 PUSH1 0x40 SHL SUB DUP4 GT PUSH2 0x20B JUMPI PUSH1 0x20 DUP1 DUP6 ADD SWAP5 DUP5 PUSH1 0x5 SHL ADD ADD GT PUSH2 0x20B JUMPI JUMP JUMPDEST PUSH1 0x24 CALLDATALOAD SWAP1 PUSH1 0x1 PUSH1 0x1 PUSH1 0xA0 SHL SUB DUP3 AND DUP3 SUB PUSH2 0x20B JUMPI JUMP JUMPDEST PUSH1 0x4 CALLDATALOAD SWAP1 PUSH1 0x1 PUSH1 0x1 PUSH1 0xA0 SHL SUB DUP3 AND DUP3 SUB PUSH2 0x20B JUMPI JUMP JUMPDEST SWAP2 DUP2 PUSH1 0x1F DUP5 ADD SLT ISZERO PUSH2 0x20B JUMPI DUP3 CALLDATALOAD SWAP2 PUSH1 0x1 PUSH1 0x1 PUSH1 0x40 SHL SUB DUP4 GT PUSH2 0x20B JUMPI PUSH1 0x20 DUP4 DUP2 DUP7 ADD SWAP6 ADD ADD GT PUSH2 0x20B JUMPI JUMP JUMPDEST PUSH1 0x40 SWAP1 PUSH1 0x3 NOT ADD SLT PUSH2 0x20B JUMPI PUSH1 0x4 CALLDATALOAD SWAP1 PUSH1 0x24 CALLDATALOAD SWAP1 JUMP JUMPDEST SWAP1 PUSH1 0x20 SWAP2 PUSH2 0x22AA DUP2 MLOAD DUP1 SWAP3 DUP2 DUP6 MSTORE DUP6 DUP1 DUP7 ADD SWAP2 ADD PUSH2 0x21CF JUMP JUMPDEST PUSH1 0x1F ADD PUSH1 0x1F NOT AND ADD ADD SWAP1 JUMP JUMPDEST SWAP1 PUSH1 0x5 DUP3 LT ISZERO PUSH2 0x662 JUMPI MSTORE JUMP JUMPDEST SWAP1 DUP2 MLOAD DUP2 MSTORE PUSH1 0x1 DUP1 PUSH1 0xA0 SHL SUB PUSH1 0x20 DUP4 ADD MLOAD AND PUSH1 0x20 DUP3 ADD MSTORE PUSH2 0x231E PUSH2 0x22F6 PUSH1 0x40 DUP5 ADD MLOAD PUSH2 0x200 DUP1 PUSH1 0x40 DUP7 ADD MSTORE DUP5 ADD SWAP1 PUSH2 0x2291 JUMP JUMPDEST PUSH1 0x60 DUP5 ADD MLOAD PUSH1 0x60 DUP5 ADD MSTORE PUSH1 0x80 DUP5 ADD MLOAD ISZERO ISZERO PUSH1 0x80 DUP5 ADD MSTORE PUSH1 0xA0 DUP5 ADD MLOAD DUP4 DUP3 SUB PUSH1 0xA0 DUP6 ADD MSTORE PUSH2 0x2291 JUMP JUMPDEST SWAP2 PUSH1 0xC0 DUP2 ADD MLOAD ISZERO ISZERO PUSH1 0xC0 DUP4 ADD MSTORE PUSH1 0xE0 DUP2 ADD MLOAD PUSH1 0xE0 DUP4 ADD MSTORE PUSH2 0x100 DUP1 DUP3 ADD MLOAD SWAP1 DUP4 ADD MSTORE PUSH2 0x120 DUP1 DUP3 ADD MLOAD SWAP1 DUP4 ADD MSTORE PUSH2 0x140 DUP1 DUP3 ADD MLOAD SWAP1 DUP4 ADD MSTORE PUSH2 0x2369 PUSH2 0x160 DUP1 DUP4 ADD MLOAD SWAP1 DUP5 ADD SWAP1 PUSH2 0x22B6 JUMP JUMPDEST PUSH2 0x180 DUP1 DUP3 ADD MLOAD SWAP1 DUP4 ADD MSTORE PUSH2 0x1A0 DUP1 DUP3 ADD MLOAD SWAP1 DUP4 ADD MSTORE PUSH2 0x1C0 DUP1 DUP3 ADD MLOAD SWAP1 DUP4 ADD MSTORE PUSH2 0x1E0 DUP1 SWAP2 ADD MLOAD SWAP2 ADD MSTORE SWAP1 JUMP JUMPDEST DUP1 SLOAD DUP3 LT ISZERO PUSH2 0x23AF JUMPI PUSH1 0x0 MSTORE PUSH1 0x20 PUSH1 0x0 KECCAK256 ADD SWAP1 PUSH1 0x0 SWAP1 JUMP JUMPDEST PUSH4 0x4E487B71 PUSH1 0xE0 SHL PUSH1 0x0 MSTORE PUSH1 0x32 PUSH1 0x4 MSTORE PUSH1 0x24 PUSH1 0x0 REVERT JUMPDEST SWAP1 PUSH1 0x1 DUP3 DUP2 SHR SWAP3 AND DUP1 ISZERO PUSH2 0x23F5 JUMPI JUMPDEST PUSH1 0x20 DUP4 LT EQ PUSH2 0x23DF JUMPI JUMP JUMPDEST PUSH4 0x4E487B71 PUSH1 0xE0 SHL PUSH1 0x0 MSTORE PUSH1 0x22 PUSH1 0x4 MSTORE PUSH1 0x24 PUSH1 0x0 REVERT JUMPDEST SWAP2 PUSH1 0x7F AND SWAP2 PUSH2 0x23D4 JUMP JUMPDEST SWAP1 PUSH1 0x40 MLOAD SWAP2 DUP3 PUSH1 0x0 DUP3 SLOAD SWAP3 PUSH2 0x2413 DUP5 PUSH2 0x23C5 JUMP JUMPDEST SWAP1 DUP2 DUP5 MSTORE PUSH1 0x1 SWAP5 DUP6 DUP2 AND SWAP1 DUP2 PUSH1 0x0 EQ PUSH2 0x2482 JUMPI POP PUSH1 0x1 EQ PUSH2 0x243F JUMPI JUMPDEST POP POP PUSH2 0x243D SWAP3 POP SUB DUP4 PUSH2 0x213E JUMP JUMPDEST JUMP JUMPDEST SWAP1 SWAP4 SWAP2 POP PUSH1 0x0 MSTORE PUSH1 0x20 SWAP1 DUP2 PUSH1 0x0 KECCAK256 SWAP4 PUSH1 0x0 SWAP2 JUMPDEST DUP2 DUP4 LT PUSH2 0x246A JUMPI POP POP PUSH2 0x243D SWAP4 POP DUP3 ADD ADD CODESIZE DUP1 PUSH2 0x242F JUMP JUMPDEST DUP6 SLOAD DUP9 DUP5 ADD DUP6 ADD MSTORE SWAP5 DUP6 ADD SWAP5 DUP8 SWAP5 POP SWAP2 DUP4 ADD SWAP2 PUSH2 0x2452 JUMP JUMPDEST SWAP2 POP POP PUSH2 0x243D SWAP5 POP PUSH1 0x20 SWAP3 POP PUSH1 0xFF NOT AND DUP3 DUP5 ADD MSTORE ISZERO ISZERO PUSH1 0x5 SHL DUP3 ADD ADD CODESIZE DUP1 PUSH2 0x242F JUMP JUMPDEST CALLER PUSH1 0x0 SWAP1 DUP2 MSTORE PUSH32 0xAD3228B676F7D3CD4284A5443F17F1962B36E491B30A40B2405849E597BA5FB5 PUSH1 0x20 MSTORE PUSH1 0x40 DUP2 KECCAK256 SLOAD PUSH1 0xFF AND ISZERO PUSH2 0x24DF JUMPI POP JUMP JUMPDEST PUSH1 0x44 SWAP1 PUSH1 0x40 MLOAD SWAP1 PUSH4 0xE2517D3F PUSH1 0xE0 SHL DUP3 MSTORE CALLER PUSH1 0x4 DUP4 ADD MSTORE PUSH1 0x24 DUP3 ADD MSTORE REVERT JUMPDEST CALLER PUSH1 0x0 SWAP1 DUP2 MSTORE PUSH32 0xDAE2AA361DFD1CA020A396615627D436107C35EFF9FE7738A3512819782D7069 PUSH1 0x20 MSTORE PUSH1 0x40 SWAP1 KECCAK256 SLOAD PUSH32 0xD8AA0F3194971A2A116679F7C2090F6939C8D4E01A2A8D7E41D55E5351469E63 SWAP1 PUSH1 0xFF AND ISZERO PUSH2 0x24DF JUMPI POP JUMP JUMPDEST DUP1 PUSH1 0x0 MSTORE PUSH1 0x0 PUSH1 0x20 MSTORE PUSH1 0x40 PUSH1 0x0 KECCAK256 CALLER PUSH1 0x0 MSTORE PUSH1 0x20 MSTORE PUSH1 0xFF PUSH1 0x40 PUSH1 0x0 KECCAK256 SLOAD AND ISZERO PUSH2 0x24DF JUMPI POP JUMP JUMPDEST SWAP1 PUSH1 0x0 SWAP2 DUP1 DUP4 MSTORE DUP3 PUSH1 0x20 MSTORE PUSH1 0x40 DUP4 KECCAK256 SWAP2 PUSH1 0x1 DUP1 PUSH1 0xA0 SHL SUB AND SWAP2 DUP3 DUP5 MSTORE PUSH1 0x20 MSTORE PUSH1 0xFF PUSH1 0x40 DUP5 KECCAK256 SLOAD AND ISZERO PUSH1 0x0 EQ PUSH2 0x25F8 JUMPI DUP1 DUP4 MSTORE DUP3 PUSH1 0x20 MSTORE PUSH1 0x40 DUP4 KECCAK256 DUP3 DUP5 MSTORE PUSH1 0x20 MSTORE PUSH1 0x40 DUP4 KECCAK256 PUSH1 0x1 PUSH1 0xFF NOT DUP3 SLOAD AND OR SWAP1 SSTORE PUSH32 0x2F8788117E7EFF1D82E926EC794901D17C78024A50270940304540A733656F0D CALLER SWAP4 DUP1 LOG4 PUSH1 0x1 SWAP1 JUMP JUMPDEST POP POP SWAP1 JUMP JUMPDEST SWAP1 PUSH1 0x0 SWAP2 DUP1 DUP4 MSTORE DUP3 PUSH1 0x20 MSTORE PUSH1 0x40 DUP4 KECCAK256 SWAP2 PUSH1 0x1 DUP1 PUSH1 0xA0 SHL SUB AND SWAP2 DUP3 DUP5 MSTORE PUSH1 0x20 MSTORE PUSH1 0xFF PUSH1 0x40 DUP5 KECCAK256 SLOAD AND PUSH1 0x0 EQ PUSH2 0x25F8 JUMPI DUP1 DUP4 MSTORE DUP3 PUSH1 0x20 MSTORE PUSH1 0x40 DUP4 KECCAK256 DUP3 DUP5 MSTORE PUSH1 0x20 MSTORE PUSH1 0x40 DUP4 KECCAK256 PUSH1 0xFF NOT DUP2 SLOAD AND SWAP1 SSTORE PUSH32 0xF6391F5C32D9C69D2A47EA670B442974B53935D1EDC7FD64EB21E047A839171B CALLER SWAP4 DUP1 LOG4 PUSH1 0x1 SWAP1 JUMP JUMPDEST ISZERO PUSH2 0x2679 JUMPI JUMP JUMPDEST PUSH1 0x40 MLOAD PUSH3 0x461BCD PUSH1 0xE5 SHL DUP2 MSTORE PUSH1 0x20 PUSH1 0x4 DUP3 ADD MSTORE PUSH1 0x18 PUSH1 0x24 DUP3 ADD MSTORE PUSH32 0x546172676574207072696365206D757374206265203E20300000000000000000 PUSH1 0x44 DUP3 ADD MSTORE PUSH1 0x64 SWAP1 REVERT JUMPDEST DUP2 ISZERO PUSH2 0x26C8 JUMPI DIV SWAP1 JUMP JUMPDEST PUSH4 0x4E487B71 PUSH1 0xE0 SHL PUSH1 0x0 MSTORE PUSH1 0x12 PUSH1 0x4 MSTORE PUSH1 0x24 PUSH1 0x0 REVERT JUMPDEST ISZERO PUSH2 0x26E5 JUMPI JUMP JUMPDEST PUSH1 0x40 MLOAD PUSH3 0x461BCD PUSH1 0xE5 SHL DUP2 MSTORE PUSH1 0x20 PUSH1 0x4 DUP3 ADD MSTORE PUSH1 0x18 PUSH1 0x24 DUP3 ADD MSTORE PUSH32 0x496E73756666696369656E742074726967676572206665650000000000000000 PUSH1 0x44 DUP3 ADD MSTORE PUSH1 0x64 SWAP1 REVERT JUMPDEST PUSH1 0x0 NOT DUP2 EQ PUSH2 0x82E JUMPI PUSH1 0x1 ADD SWAP1 JUMP JUMPDEST SWAP2 SWAP1 DUP3 ADD DUP1 SWAP3 GT PUSH2 0x82E JUMPI JUMP JUMPDEST SWAP1 PUSH1 0x5 DUP2 LT ISZERO PUSH2 0x662 JUMPI PUSH1 0xFF DUP1 NOT DUP4 SLOAD AND SWAP2 AND OR SWAP1 SSTORE JUMP JUMPDEST DUP1 SLOAD PUSH9 0x10000000000000000 DUP2 LT ISZERO PUSH2 0x748 JUMPI PUSH2 0x2780 SWAP2 PUSH1 0x1 DUP3 ADD DUP2 SSTORE PUSH2 0x2397 JUMP JUMPDEST DUP2 SWAP3 SWAP2 SLOAD SWAP1 PUSH1 0x3 SHL SWAP2 DUP3 SHL SWAP2 PUSH1 0x0 NOT SWAP1 SHL NOT AND OR SWAP1 SSTORE JUMP JUMPDEST SWAP1 DUP1 PUSH1 0x20 SWAP4 SWAP3 DUP2 DUP5 MSTORE DUP5 DUP5 ADD CALLDATACOPY PUSH1 0x0 DUP3 DUP3 ADD DUP5 ADD MSTORE PUSH1 0x1F ADD PUSH1 0x1F NOT AND ADD ADD SWAP1 JUMP JUMPDEST PUSH1 0xFF PUSH1 0x1 SLOAD AND PUSH2 0x27C5 JUMPI JUMP JUMPDEST PUSH1 0x40 MLOAD PUSH4 0xD93C0665 PUSH1 0xE0 SHL DUP2 MSTORE PUSH1 0x4 SWAP1 REVERT JUMPDEST PUSH1 0x2 DUP1 SLOAD EQ PUSH2 0x27E6 JUMPI PUSH1 0x2 DUP1 SSTORE JUMP JUMPDEST PUSH1 0x40 MLOAD PUSH4 0x3EE5AEB5 PUSH1 0xE0 SHL DUP2 MSTORE PUSH1 0x4 SWAP1 REVERT JUMPDEST PUSH4 0xFFFFFFFF PUSH1 0x40 MLOAD DUP3 DUP2 DUP1 SWAP5 MLOAD PUSH2 0x2815 DUP2 PUSH1 0x20 SWAP8 DUP9 DUP1 SWAP7 ADD PUSH2 0x21CF JUMP JUMPDEST DUP2 ADD PUSH1 0xA DUP2 MSTORE SUB ADD SWAP1 KECCAK256 SLOAD AND SWAP1 DUP2 ISZERO PUSH2 0x28B7 JUMPI PUSH1 0x40 MLOAD SWAP2 PUSH4 0x32C935BB PUSH1 0xE2 SHL DUP4 MSTORE PUSH1 0x4 DUP4 ADD MSTORE DUP1 DUP3 PUSH1 0x24 DUP2 PUSH2 0x807 GAS STATICCALL SWAP2 PUSH1 0x0 SWAP2 DUP4 PUSH2 0x2873 JUMPI JUMPDEST POP POP SWAP1 ISZERO PUSH1 0x0 EQ PUSH2 0x2863 JUMPI POP PUSH1 0x0 SWAP1 PUSH1 0x0 SWAP1 JUMP JUMPDEST SWAP1 PUSH1 0x1 PUSH1 0x1 PUSH1 0x40 SHL SUB DUP3 AND ISZERO ISZERO SWAP1 JUMP JUMPDEST DUP2 DUP2 RETURNDATASIZE DUP4 GT PUSH2 0x28B0 JUMPI JUMPDEST PUSH2 0x2887 DUP2 DUP4 PUSH2 0x213E JUMP JUMPDEST DUP2 ADD SUB SLT PUSH2 0x28AC JUMPI MLOAD SWAP1 PUSH1 0x1 PUSH1 0x1 PUSH1 0x40 SHL SUB DUP3 AND DUP3 SUB PUSH2 0x28A9 JUMPI POP CODESIZE DUP1 PUSH2 0x284F JUMP JUMPDEST DUP1 REVERT JUMPDEST POP DUP1 REVERT JUMPDEST POP RETURNDATASIZE PUSH2 0x287D JUMP JUMPDEST POP POP PUSH1 0x0 SWAP1 PUSH1 0x0 SWAP1 JUMP JUMPDEST SWAP2 SWAP1 DUP3 SUB SWAP2 DUP3 GT PUSH2 0x82E JUMPI JUMP JUMPDEST PUSH2 0x28D7 SWAP1 PUSH2 0x27F8 JUMP JUMPDEST ISZERO PUSH2 0x296C JUMPI PUSH1 0x1 PUSH1 0x1 PUSH1 0x40 SHL SUB PUSH1 0x64 SWAP2 AND DIV SWAP1 PUSH1 0x0 DUP3 DUP3 GT PUSH1 0x0 EQ PUSH2 0x2927 JUMPI POP DUP2 PUSH2 0x2901 SWAP2 PUSH2 0x28C1 JUMP JUMPDEST SWAP1 PUSH2 0x2710 SWAP2 DUP3 DUP2 MUL SWAP3 DUP2 DUP5 DIV EQ SWAP1 ISZERO OR ISZERO PUSH2 0x82E JUMPI PUSH2 0x291F SWAP2 PUSH2 0x26BE JUMP JUMPDEST PUSH1 0x4 SLOAD LT ISZERO SWAP1 JUMP JUMPDEST SWAP3 SWAP2 SWAP1 PUSH2 0x2934 SWAP1 DUP3 PUSH2 0x28C1 JUMP JUMPDEST PUSH2 0x2710 SWAP1 DUP2 DUP2 MUL SWAP2 DUP2 DUP4 DIV EQ SWAP1 ISZERO OR ISZERO PUSH2 0x2958 JUMPI PUSH2 0x2953 SWAP3 SWAP4 POP PUSH2 0x26BE JUMP JUMPDEST PUSH2 0x291F JUMP JUMPDEST PUSH4 0x4E487B71 PUSH1 0xE0 SHL DUP5 MSTORE PUSH1 0x11 PUSH1 0x4 MSTORE PUSH1 0x24 DUP5 REVERT JUMPDEST POP POP PUSH1 0x1 SWAP1 JUMP JUMPDEST ISZERO PUSH2 0x297A JUMPI JUMP JUMPDEST PUSH1 0x40 MLOAD PUSH3 0x461BCD PUSH1 0xE5 SHL DUP2 MSTORE PUSH1 0x20 PUSH1 0x4 DUP3 ADD MSTORE PUSH1 0x12 PUSH1 0x24 DUP3 ADD MSTORE PUSH18 0x54726967676572206E6F7420616374697665 PUSH1 0x70 SHL PUSH1 0x44 DUP3 ADD MSTORE PUSH1 0x64 SWAP1 REVERT JUMPDEST DUP1 ISZERO PUSH2 0x82E JUMPI PUSH1 0x0 NOT ADD SWAP1 JUMP JUMPDEST ISZERO PUSH2 0x29C8 JUMPI JUMP JUMPDEST PUSH1 0x40 MLOAD PUSH3 0x461BCD PUSH1 0xE5 SHL DUP2 MSTORE PUSH1 0x20 PUSH1 0x4 DUP3 ADD MSTORE PUSH1 0x11 PUSH1 0x24 DUP3 ADD MSTORE PUSH17 0x2737BA103A3934B3B3B2B91037BBB732B9 PUSH1 0x79 SHL PUSH1 0x44 DUP3 ADD MSTORE PUSH1 0x64 SWAP1 REVERT JUMPDEST RETURNDATASIZE ISZERO PUSH2 0x2A2C JUMPI RETURNDATASIZE SWAP1 PUSH2 0x2A12 DUP3 PUSH2 0x215F JUMP JUMPDEST SWAP2 PUSH2 0x2A20 PUSH1 0x40 MLOAD SWAP4 DUP5 PUSH2 0x213E JUMP JUMPDEST DUP3 MSTORE RETURNDATASIZE PUSH1 0x0 PUSH1 0x20 DUP5 ADD RETURNDATACOPY JUMP JUMPDEST PUSH1 0x60 SWAP1 JUMP JUMPDEST SWAP2 SWAP1 SWAP2 PUSH1 0x0 SWAP1 DUP2 MSTORE PUSH1 0x20 SWAP1 PUSH1 0x6 DUP3 MSTORE PUSH1 0x40 SWAP4 DUP5 DUP3 KECCAK256 PUSH1 0xFF PUSH1 0xB DUP3 ADD SLOAD AND PUSH1 0x5 DUP2 LT ISZERO PUSH2 0x2B7B JUMPI PUSH2 0x2B4C JUMPI PUSH1 0xA DUP2 ADD SLOAD TIMESTAMP GT PUSH2 0x2B20 JUMPI DUP2 ISZERO PUSH2 0x2AF6 JUMPI DUP1 PUSH1 0xFF PUSH1 0x4 PUSH1 0x3 SWAP4 ADD SLOAD AND PUSH1 0x0 EQ PUSH2 0x2AED JUMPI ADD SLOAD GT ISZERO JUMPDEST ISZERO PUSH2 0x2AB5 JUMPI POP PUSH16 0x526561647920746F2065786563757465 PUSH1 0x80 SHL PUSH1 0x1 SWAP4 MLOAD SWAP2 PUSH2 0x2AAB DUP4 PUSH2 0x2123 JUMP JUMPDEST PUSH1 0x10 DUP4 MSTORE DUP3 ADD MSTORE SWAP1 JUMP JUMPDEST PUSH32 0x507269636520636F6E646974696F6E206E6F74206D6574000000000000000000 SWAP1 SWAP4 MLOAD SWAP2 PUSH2 0x2AE3 DUP4 PUSH2 0x2123 JUMP JUMPDEST PUSH1 0x17 DUP4 MSTORE DUP3 ADD MSTORE SWAP1 JUMP JUMPDEST ADD SLOAD LT ISZERO PUSH2 0x2A83 JUMP JUMPDEST POP POP PUSH13 0x496E76616C6964207072696365 PUSH1 0x98 SHL SWAP1 SWAP4 MLOAD SWAP2 PUSH2 0x2B16 DUP4 PUSH2 0x2123 JUMP JUMPDEST PUSH1 0xD DUP4 MSTORE DUP3 ADD MSTORE SWAP1 JUMP JUMPDEST POP POP PUSH15 0x151C9A59D9D95C88195E1C1A5C9959 PUSH1 0x8A SHL SWAP1 SWAP4 MLOAD SWAP2 PUSH2 0x2B42 DUP4 PUSH2 0x2123 JUMP JUMPDEST PUSH1 0xF DUP4 MSTORE DUP3 ADD MSTORE SWAP1 JUMP JUMPDEST POP POP PUSH18 0x54726967676572206E6F7420616374697665 PUSH1 0x70 SHL SWAP1 SWAP4 MLOAD SWAP2 PUSH2 0x2B71 DUP4 PUSH2 0x2123 JUMP JUMPDEST PUSH1 0x12 DUP4 MSTORE DUP3 ADD MSTORE SWAP1 JUMP JUMPDEST PUSH4 0x4E487B71 PUSH1 0xE0 SHL DUP5 MSTORE PUSH1 0x21 PUSH1 0x4 MSTORE PUSH1 0x24 DUP5 REVERT JUMPDEST SWAP2 SWAP1 DUP2 LT ISZERO PUSH2 0x23AF JUMPI PUSH1 0x5 SHL ADD SWAP1 JUMP JUMPDEST PUSH1 0x40 MLOAD SWAP1 PUSH2 0x2BAC DUP3 PUSH2 0x2107 JUMP JUMPDEST DUP2 PUSH2 0x1E0 PUSH1 0x0 SWAP2 DUP3 DUP2 MSTORE DUP3 PUSH1 0x20 DUP3 ADD MSTORE PUSH1 0x60 PUSH1 0x40 DUP3 ADD MSTORE DUP3 PUSH1 0x60 DUP3 ADD MSTORE DUP3 PUSH1 0x80 DUP3 ADD MSTORE PUSH1 0x60 PUSH1 0xA0 DUP3 ADD MSTORE DUP3 PUSH1 0xC0 DUP3 ADD MSTORE DUP3 PUSH1 0xE0 DUP3 ADD MSTORE DUP3 PUSH2 0x100 DUP3 ADD MSTORE DUP3 PUSH2 0x120 DUP3 ADD MSTORE DUP3 PUSH2 0x140 DUP3 ADD MSTORE DUP3 PUSH2 0x160 DUP3 ADD MSTORE DUP3 PUSH2 0x180 DUP3 ADD MSTORE DUP3 PUSH2 0x1A0 DUP3 ADD MSTORE DUP3 PUSH2 0x1C0 DUP3 ADD MSTORE ADD MSTORE JUMP JUMPDEST SWAP1 PUSH1 0x40 MLOAD PUSH2 0x2C24 DUP2 PUSH2 0x2107 JUMP JUMPDEST DUP3 SLOAD DUP2 MSTORE PUSH1 0x1 DUP4 ADD SLOAD PUSH1 0x1 PUSH1 0x1 PUSH1 0xA0 SHL SUB AND PUSH1 0x20 DUP3 ADD MSTORE SWAP2 DUP3 SWAP1 PUSH2 0x2C4A PUSH1 0x2 DUP3 ADD PUSH2 0x23FF JUMP JUMPDEST PUSH1 0x40 DUP4 ADD MSTORE PUSH1 0x3 DUP2 ADD SLOAD PUSH1 0x60 DUP4 ADD MSTORE PUSH1 0xFF PUSH1 0x4 DUP3 ADD SLOAD AND ISZERO ISZERO PUSH1 0x80 DUP4 ADD MSTORE PUSH2 0x2C74 PUSH1 0x5 DUP3 ADD PUSH2 0x23FF JUMP JUMPDEST PUSH1 0xA0 DUP4 ADD MSTORE PUSH1 0xFF PUSH1 0x6 DUP3 ADD SLOAD AND ISZERO ISZERO PUSH1 0xC0 DUP4 ADD MSTORE PUSH1 0x7 DUP2 ADD SLOAD PUSH1 0xE0 DUP4 ADD MSTORE PUSH1 0x8 DUP2 ADD SLOAD PUSH2 0x100 DUP4 ADD MSTORE PUSH1 0x9 DUP2 ADD SLOAD PUSH2 0x120 DUP4 ADD MSTORE PUSH1 0xA DUP2 ADD SLOAD PUSH2 0x140 DUP4 ADD MSTORE PUSH1 0xFF PUSH1 0xB DUP3 ADD SLOAD AND PUSH1 0x5 DUP2 LT ISZERO PUSH2 0x662 JUMPI PUSH2 0x1E0 SWAP2 PUSH1 0xF SWAP2 PUSH2 0x160 DUP6 ADD MSTORE PUSH1 0xC DUP2 ADD SLOAD PUSH2 0x180 DUP6 ADD MSTORE PUSH1 0xD DUP2 ADD SLOAD PUSH2 0x1A0 DUP6 ADD MSTORE PUSH1 0xE DUP2 ADD SLOAD PUSH2 0x1C0 DUP6 ADD MSTORE ADD SLOAD SWAP2 ADD MSTORE JUMP JUMPDEST DUP1 MLOAD DUP3 LT ISZERO PUSH2 0x23AF JUMPI PUSH1 0x20 SWAP2 PUSH1 0x5 SHL ADD ADD SWAP1 JUMP JUMPDEST PUSH1 0x1 PUSH1 0x1 PUSH1 0x40 SHL SUB DUP2 GT PUSH2 0x748 JUMPI PUSH1 0x5 SHL PUSH1 0x20 ADD SWAP1 JUMP JUMPDEST SWAP2 PUSH2 0x2D42 PUSH1 0x20 SWAP3 PUSH4 0xFFFFFFFF SWAP3 SWAP7 SWAP6 SWAP7 PUSH1 0x40 DUP7 MSTORE PUSH1 0x40 DUP7 ADD SWAP2 PUSH2 0x2798 JUMP JUMPDEST SWAP5 AND SWAP2 ADD MSTORE JUMP JUMPDEST CALLDATALOAD PUSH4 0xFFFFFFFF DUP2 AND DUP2 SUB PUSH2 0x20B JUMPI SWAP1 JUMP JUMPDEST SWAP2 SWAP1 DUP2 LT ISZERO PUSH2 0x23AF JUMPI PUSH1 0x5 SHL DUP2 ADD CALLDATALOAD SWAP1 PUSH1 0x1E NOT DUP2 CALLDATASIZE SUB ADD DUP3 SLT ISZERO PUSH2 0x20B JUMPI ADD SWAP1 DUP2 CALLDATALOAD SWAP2 PUSH1 0x1 PUSH1 0x1 PUSH1 0x40 SHL SUB DUP4 GT PUSH2 0x20B JUMPI PUSH1 0x20 ADD DUP3 CALLDATASIZE SUB DUP2 SGT PUSH2 0x20B JUMPI SWAP2 SWAP1 JUMP INVALID LOG2 PUSH5 0x6970667358 0x22 SLT KECCAK256 DUP4 EXTCODEHASH PUSH1 0x81 DUP10 CODESIZE 0xD8 0x4C BALANCE 0xC7 0xAD 0xF STATICCALL PUSH3 0xE4E676 SLT SWAP15 SWAP10 CALLER PUSH21 0x7D20F0BDAD2C9EE8DE1D64736F6C63430008140033 0x2F DUP8 DUP9 GT PUSH31 0x7EFF1D82E926EC794901D17C78024A50270940304540A733656F0D00000000 "},"methodIdentifiers":{"DEFAULT_ADMIN_ROLE()":"a217fddf","EXECUTOR_ROLE()":"07bd0265","MAX_TRIGGER_DURATION()":"ffd581b6","MIN_TRIGGER_DURATION()":"13ae981b","activeTriggerCount()":"4e712fb8","assetToSpotIndex(string)":"18161684","cancelTrigger(uint256)":"d45ddd9c","checkTrigger(uint256,uint256)":"4efc9c85","createTrigger(string,uint256,bool,string,bool,uint256,uint256,uint256)":"5f330929","getActiveTriggerCount()":"5a487ef6","getOraclePrice(string)":"f5a908f0","getRoleAdmin(bytes32)":"248a9ca3","getTrigger(uint256)":"9c50472b","getUserActiveTriggers(address)":"aefed8ff","getUserTriggers(address)":"71876a16","grantRole(bytes32,address)":"2f2ff15d","hasRole(bytes32,address)":"91d14854","markExecuted(uint256,uint256,bytes32)":"86b9d16e","markExpired(uint256[])":"681475e8","markFailed(uint256,string)":"3940fda4","maxPriceDeviation()":"975b8662","nextTriggerId()":"42227fa4","pause()":"8456cb59","paused()":"5c975abb","recalculateActiveTriggerCount(uint256,uint256)":"71001300","renounceRole(bytes32,address)":"36568abe","requireOracleVerification()":"39f08251","revokeRole(bytes32,address)":"d547741f","setAssetIndex(string,uint32)":"3a90f050","setAssetIndexes(string[],uint32[])":"2a1b3fd3","setRequireOracleVerification(bool)":"069a7f87","supportsInterface(bytes4)":"01ffc9a7","triggerFee()":"f6837157","triggers(uint256)":"a78dd42e","unpause()":"3f4ba83a","updateMaxPriceDeviation(uint256)":"24f1c5c1","updateTriggerFee(uint256)":"b71e83c4","updateTriggerPrice(uint256,uint256,bool)":"e2a2496c","userTriggers(address,uint256)":"a3498325","verifyPriceWithOracle(string,uint256)":"65672a7f","withdrawFees()":"476343ee"}},"storageLayout":{"storage":[{"astId":27,"contract":"contracts/TriggerContract.sol:TriggerContract","label":"_roles","offset":0,"slot":"0","type":"t_mapping(t_bytes32,t_struct(RoleData)22_storage)"},{"astId":1050,"contract":"contracts/TriggerContract.sol:TriggerContract","label":"_paused","offset":0,"slot":"1","type":"t_bool"},{"astId":1160,"contract":"contracts/TriggerContract.sol:TriggerContract","label":"_status","offset":0,"slot":"2","type":"t_uint256"},{"astId":2478,"contract":"contracts/TriggerContract.sol:TriggerContract","label":"triggerFee","offset":0,"slot":"3","type":"t_uint256"},{"astId":2487,"contract":"contracts/TriggerContract.sol:TriggerContract","label":"maxPriceDeviation","offset":0,"slot":"4","type":"t_uint256"},{"astId":2490,"contract":"contracts/TriggerContract.sol:TriggerContract","label":"requireOracleVerification","offset":0,"slot":"5","type":"t_bool"},{"astId":2536,"contract":"contracts/TriggerContract.sol:TriggerContract","label":"triggers","offset":0,"slot":"6","type":"t_mapping(t_uint256,t_struct(Trigger)2531_storage)"},{"astId":2541,"contract":"contracts/TriggerContract.sol:TriggerContract","label":"userTriggers","offset":0,"slot":"7","type":"t_mapping(t_address,t_array(t_uint256)dyn_storage)"},{"astId":2544,"contract":"contracts/TriggerContract.sol:TriggerContract","label":"nextTriggerId","offset":0,"slot":"8","type":"t_uint256"},{"astId":2546,"contract":"contracts/TriggerContract.sol:TriggerContract","label":"activeTriggerCount","offset":0,"slot":"9","type":"t_uint256"},{"astId":2550,"contract":"contracts/TriggerContract.sol:TriggerContract","label":"assetToSpotIndex","offset":0,"slot":"10","type":"t_mapping(t_string_memory_ptr,t_uint32)"}],"types":{"t_address":{"encoding":"inplace","label":"address","numberOfBytes":"20"},"t_array(t_uint256)dyn_storage":{"base":"t_uint256","encoding":"dynamic_array","label":"uint256[]","numberOfBytes":"32"},"t_bool":{"encoding":"inplace","label":"bool","numberOfBytes":"1"},"t_bytes32":{"encoding":"inplace","label":"bytes32","numberOfBytes":"32"},"t_enum(TriggerStatus)2496":{"encoding":"inplace","label":"enum TriggerContract.TriggerStatus","numberOfBytes":"1"},"t_mapping(t_address,t_array(t_uint256)dyn_storage)":{"encoding":"mapping","key":"t_address","label":"mapping(address => uint256[])","numberOfBytes":"32","value":"t_array(t_uint256)dyn_storage"},"t_mapping(t_address,t_bool)":{"encoding":"mapping","key":"t_address","label":"mapping(address => bool)","numberOfBytes":"32","value":"t_bool"},"t_mapping(t_bytes32,t_struct(RoleData)22_storage)":{"encoding":"mapping","key":"t_bytes32","label":"mapping(bytes32 => struct AccessControl.RoleData)","numberOfBytes":"32","value":"t_struct(RoleData)22_storage"},"t_mapping(t_string_memory_ptr,t_uint32)":{"encoding":"mapping","key":"t_string_memory_ptr","label":"mapping(string => uint32)","numberOfBytes":"32","value":"t_uint32"},"t_mapping(t_uint256,t_struct(Trigger)2531_storage)":{"encoding":"mapping","key":"t_uint256","label":"mapping(uint256 => struct TriggerContract.Trigger)","numberOfBytes":"32","value":"t_struct(Trigger)2531_storage"},"t_string_memory_ptr":{"encoding":"bytes","label":"string","numberOfBytes":"32"},"t_string_storage":{"encoding":"bytes","label":"string","numberOfBytes":"32"},"t_struct(RoleData)22_storage":{"encoding":"inplace","label":"struct AccessControl.RoleData","members":[{"astId":19,"contract":"contracts/TriggerContract.sol:TriggerContract","label":"hasRole","offset":0,"slot":"0","type":"t_mapping(t_address,t_bool)"},{"astId":21,"contract":"contracts/TriggerContract.sol:TriggerContract","label":"adminRole","offset":0,"slot":"1","type":"t_bytes32"}],"numberOfBytes":"64"},"t_struct(Trigger)2531_storage":{"encoding":"inplace","label":"struct TriggerContract.Trigger","members":[{"astId":2499,"contract":"contracts/TriggerContract.sol:TriggerContract","label":"id","offset":0,"slot":"0","type":"t_uint256"},{"astId":2501,"contract":"contracts/TriggerContract.sol:TriggerContract","label":"user","offset":0,"slot":"1","type":"t_address"},{"astId":2503,"contract":"contracts/TriggerContract.sol:TriggerContract","label":"watchAsset","offset":0,"slot":"2","type":"t_string_storage"},{"astId":2505,"contract":"contracts/TriggerContract.sol:TriggerContract","label":"targetPrice","offset":0,"slot":"3","type":"t_uint256"},{"astId":2507,"contract":"contracts/TriggerContract.sol:TriggerContract","label":"isAbove","offset":0,"slot":"4","type":"t_bool"},{"astId":2509,"contract":"contracts/TriggerContract.sol:TriggerContract","label":"tradeAsset","offset":0,"slot":"5","type":"t_string_storage"},{"astId":2511,"contract":"contracts/TriggerContract.sol:TriggerContract","label":"isBuy","offset":0,"slot":"6","type":"t_bool"},{"astId":2513,"contract":"contracts/TriggerContract.sol:TriggerContract","label":"amount","offset":0,"slot":"7","type":"t_uint256"},{"astId":2515,"contract":"contracts/TriggerContract.sol:TriggerContract","label":"maxSlippage","offset":0,"slot":"8","type":"t_uint256"},{"astId":2517,"contract":"contracts/TriggerContract.sol:TriggerContract","label":"createdAt","offset":0,"slot":"9","type":"t_uint256"},{"astId":2519,"contract":"contracts/TriggerContract.sol:TriggerContract","label":"expiresAt","offset":0,"slot":"10","type":"t_uint256"},{"astId":2522,"contract":"contracts/TriggerContract.sol:TriggerContract","label":"status","offset":0,"slot":"11","type":"t_enum(TriggerStatus)2496"},{"astId":2524,"contract":"contracts/TriggerContract.sol:TriggerContract","label":"feePaid","offset":0,"slot":"12","type":"t_uint256"},{"astId":2526,"contract":"contracts/TriggerContract.sol:TriggerContract","label":"executedAt","offset":0,"slot":"13","type":"t_uint256"},{"astId":2528,"contract":"contracts/TriggerContract.sol:TriggerContract","label":"executionPrice","offset":0,"slot":"14","type":"t_uint256"},{"astId":2530,"contract":"contracts/TriggerContract.sol:TriggerContract","label":"executionTxHash","offset":0,"slot":"15","type":"t_bytes32"}],"numberOfBytes":"512"},"t_uint256":{"encoding":"inplace","label":"uint256","numberOfBytes":"32"},"t_uint32":{"encoding":"inplace","label":"uint32","numberOfBytes":"4"}}}}}}