{"contracts/SwapContract.sol":{"SwapContract":{"abi":[{"inputs":[],"stateMutability":"nonpayable","type":"constructor"},{"inputs":[],"name":"AccessControlBadConfirmation","type":"error"},{"inputs":[{"internalType":"address","name":"account","type":"address"},{"internalType":"bytes32","name":"neededRole","type":"bytes32"}],"name":"AccessControlUnauthorizedAccount","type":"error"},{"inputs":[],"name":"EnforcedPause","type":"error"},{"inputs":[],"name":"ExpectedPause","type":"error"},{"inputs":[],"name":"ReentrancyGuardReentrantCall","type":"error"},{"inputs":[{"internalType":"address","name":"token","type":"address"}],"name":"SafeERC20FailedOperation","type":"error"},{"anonymous":false,"inputs":[{"indexed":false,"internalType":"uint256","name":"newFee","type":"uint256"}],"name":"FeeUpdated","type":"event"},{"anonymous":false,"inputs":[{"indexed":true,"internalType":"address","name":"user","type":"address"},{"indexed":false,"internalType":"uint256","name":"amount","type":"uint256"}],"name":"HypeSystemTransfer","type":"event"},{"anonymous":false,"inputs":[{"indexed":false,"internalType":"address","name":"account","type":"address"}],"name":"Paused","type":"event"},{"anonymous":false,"inputs":[{"indexed":true,"internalType":"bytes32","name":"role","type":"bytes32"},{"indexed":true,"internalType":"bytes32","name":"previousAdminRole","type":"bytes32"},{"indexed":true,"internalType":"bytes32","name":"newAdminRole","type":"bytes32"}],"name":"RoleAdminChanged","type":"event"},{"anonymous":false,"inputs":[{"indexed":true,"internalType":"bytes32","name":"role","type":"bytes32"},{"indexed":true,"internalType":"address","name":"account","type":"address"},{"indexed":true,"internalType":"address","name":"sender","type":"address"}],"name":"RoleGranted","type":"event"},{"anonymous":false,"inputs":[{"indexed":true,"internalType":"bytes32","name":"role","type":"bytes32"},{"indexed":true,"internalType":"address","name":"account","type":"address"},{"indexed":true,"internalType":"address","name":"sender","type":"address"}],"name":"RoleRevoked","type":"event"},{"anonymous":false,"inputs":[{"indexed":true,"internalType":"uint256","name":"swapId","type":"uint256"},{"indexed":true,"internalType":"address","name":"user","type":"address"},{"indexed":false,"internalType":"uint256","name":"outputAmount","type":"uint256"}],"name":"SwapCompleted","type":"event"},{"anonymous":false,"inputs":[{"indexed":true,"internalType":"uint256","name":"swapId","type":"uint256"},{"indexed":true,"internalType":"address","name":"user","type":"address"},{"indexed":false,"internalType":"string","name":"reason","type":"string"}],"name":"SwapFailed","type":"event"},{"anonymous":false,"inputs":[{"indexed":true,"internalType":"uint256","name":"swapId","type":"uint256"},{"indexed":true,"internalType":"address","name":"user","type":"address"},{"indexed":false,"internalType":"uint64","name":"fromToken","type":"uint64"},{"indexed":false,"internalType":"uint64","name":"toToken","type":"uint64"},{"indexed":false,"internalType":"uint256","name":"fromAmount","type":"uint256"},{"indexed":false,"internalType":"uint256","name":"minOutputAmount","type":"uint256"}],"name":"SwapInitiated","type":"event"},{"anonymous":false,"inputs":[{"indexed":true,"internalType":"uint256","name":"swapId","type":"uint256"},{"indexed":true,"internalType":"address","name":"user","type":"address"},{"indexed":false,"internalType":"uint256","name":"refundAmount","type":"uint256"}],"name":"SwapRefunded","type":"event"},{"anonymous":false,"inputs":[{"indexed":false,"internalType":"uint256","name":"newTimeout","type":"uint256"}],"name":"SwapTimeoutUpdated","type":"event"},{"anonymous":false,"inputs":[{"indexed":false,"internalType":"address","name":"account","type":"address"}],"name":"Unpaused","type":"event"},{"inputs":[],"name":"DEFAULT_ADMIN_ROLE","outputs":[{"internalType":"bytes32","name":"","type":"bytes32"}],"stateMutability":"view","type":"function"},{"inputs":[],"name":"EXECUTOR_ROLE","outputs":[{"internalType":"bytes32","name":"","type":"bytes32"}],"stateMutability":"view","type":"function"},{"inputs":[],"name":"MAX_SLIPPAGE","outputs":[{"internalType":"uint256","name":"","type":"uint256"}],"stateMutability":"view","type":"function"},{"inputs":[{"internalType":"uint256","name":"swapId","type":"uint256"},{"internalType":"uint256","name":"outputAmount","type":"uint256"}],"name":"completeSwap","outputs":[],"stateMutability":"nonpayable","type":"function"},{"inputs":[{"internalType":"address","name":"token","type":"address"},{"internalType":"uint256","name":"amount","type":"uint256"}],"name":"emergencyWithdraw","outputs":[],"stateMutability":"nonpayable","type":"function"},{"inputs":[{"internalType":"uint64","name":"fromToken","type":"uint64"},{"internalType":"uint64","name":"toToken","type":"uint64"},{"internalType":"uint256","name":"fromAmount","type":"uint256"},{"internalType":"uint256","name":"minOutputAmount","type":"uint256"},{"internalType":"uint256","name":"slippageBps","type":"uint256"},{"internalType":"address","name":"fromTokenAddress","type":"address"}],"name":"executeSwap","outputs":[{"internalType":"uint256","name":"swapId","type":"uint256"}],"stateMutability":"payable","type":"function"},{"inputs":[{"internalType":"uint32","name":"oracleIndex","type":"uint32"}],"name":"getOraclePrice","outputs":[{"internalType":"uint256","name":"","type":"uint256"}],"stateMutability":"view","type":"function"},{"inputs":[{"internalType":"bytes32","name":"role","type":"bytes32"}],"name":"getRoleAdmin","outputs":[{"internalType":"bytes32","name":"","type":"bytes32"}],"stateMutability":"view","type":"function"},{"inputs":[{"internalType":"address","name":"user","type":"address"},{"internalType":"uint64","name":"token","type":"uint64"}],"name":"getSpotBalance","outputs":[{"internalType":"uint256","name":"","type":"uint256"}],"stateMutability":"view","type":"function"},{"inputs":[{"internalType":"uint256","name":"swapId","type":"uint256"}],"name":"getSwap","outputs":[{"components":[{"internalType":"address","name":"user","type":"address"},{"internalType":"uint64","name":"fromToken","type":"uint64"},{"internalType":"uint64","name":"toToken","type":"uint64"},{"internalType":"uint256","name":"fromAmount","type":"uint256"},{"internalType":"uint256","name":"minOutputAmount","type":"uint256"},{"internalType":"uint256","name":"slippageBps","type":"uint256"},{"internalType":"uint256","name":"timestamp","type":"uint256"},{"internalType":"bool","name":"completed","type":"bool"},{"internalType":"enum SwapContract.SwapStatus","name":"status","type":"uint8"},{"internalType":"address","name":"fromTokenAddress","type":"address"}],"internalType":"struct SwapContract.SwapRequest","name":"","type":"tuple"}],"stateMutability":"view","type":"function"},{"inputs":[{"internalType":"uint64","name":"tokenIndex","type":"uint64"}],"name":"getTokenSystemAddress","outputs":[{"internalType":"address","name":"","type":"address"}],"stateMutability":"pure","type":"function"},{"inputs":[{"internalType":"address","name":"user","type":"address"}],"name":"getUserSwaps","outputs":[{"internalType":"uint256[]","name":"","type":"uint256[]"}],"stateMutability":"view","type":"function"},{"inputs":[{"internalType":"bytes32","name":"role","type":"bytes32"},{"internalType":"address","name":"account","type":"address"}],"name":"grantRole","outputs":[],"stateMutability":"nonpayable","type":"function"},{"inputs":[{"internalType":"bytes32","name":"role","type":"bytes32"},{"internalType":"address","name":"account","type":"address"}],"name":"hasRole","outputs":[{"internalType":"bool","name":"","type":"bool"}],"stateMutability":"view","type":"function"},{"inputs":[{"internalType":"uint256","name":"swapId","type":"uint256"}],"name":"isRefundable","outputs":[{"internalType":"bool","name":"eligible","type":"bool"},{"internalType":"string","name":"reason","type":"string"}],"stateMutability":"view","type":"function"},{"inputs":[{"internalType":"uint256","name":"swapId","type":"uint256"},{"internalType":"string","name":"reason","type":"string"}],"name":"markSwapFailed","outputs":[],"stateMutability":"nonpayable","type":"function"},{"inputs":[],"name":"nextSwapId","outputs":[{"internalType":"uint256","name":"","type":"uint256"}],"stateMutability":"view","type":"function"},{"inputs":[],"name":"pause","outputs":[],"stateMutability":"nonpayable","type":"function"},{"inputs":[],"name":"paused","outputs":[{"internalType":"bool","name":"","type":"bool"}],"stateMutability":"view","type":"function"},{"inputs":[{"internalType":"bytes32","name":"role","type":"bytes32"},{"internalType":"address","name":"callerConfirmation","type":"address"}],"name":"renounceRole","outputs":[],"stateMutability":"nonpayable","type":"function"},{"inputs":[{"internalType":"uint256","name":"swapId","type":"uint256"}],"name":"requestRefund","outputs":[],"stateMutability":"nonpayable","type":"function"},{"inputs":[{"internalType":"bytes32","name":"role","type":"bytes32"},{"internalType":"address","name":"account","type":"address"}],"name":"revokeRole","outputs":[],"stateMutability":"nonpayable","type":"function"},{"inputs":[],"name":"sendHypeToSystem","outputs":[],"stateMutability":"payable","type":"function"},{"inputs":[{"internalType":"bytes4","name":"interfaceId","type":"bytes4"}],"name":"supportsInterface","outputs":[{"internalType":"bool","name":"","type":"bool"}],"stateMutability":"view","type":"function"},{"inputs":[],"name":"swapFee","outputs":[{"internalType":"uint256","name":"","type":"uint256"}],"stateMutability":"view","type":"function"},{"inputs":[{"internalType":"uint256","name":"","type":"uint256"}],"name":"swapRequests","outputs":[{"internalType":"address","name":"user","type":"address"},{"internalType":"uint64","name":"fromToken","type":"uint64"},{"internalType":"uint64","name":"toToken","type":"uint64"},{"internalType":"uint256","name":"fromAmount","type":"uint256"},{"internalType":"uint256","name":"minOutputAmount","type":"uint256"},{"internalType":"uint256","name":"slippageBps","type":"uint256"},{"internalType":"uint256","name":"timestamp","type":"uint256"},{"internalType":"bool","name":"completed","type":"bool"},{"internalType":"enum SwapContract.SwapStatus","name":"status","type":"uint8"},{"internalType":"address","name":"fromTokenAddress","type":"address"}],"stateMutability":"view","type":"function"},{"inputs":[],"name":"swapTimeout","outputs":[{"internalType":"uint256","name":"","type":"uint256"}],"stateMutability":"view","type":"function"},{"inputs":[],"name":"unpause","outputs":[],"stateMutability":"nonpayable","type":"function"},{"inputs":[{"internalType":"uint256","name":"newFee","type":"uint256"}],"name":"updateSwapFee","outputs":[],"stateMutability":"nonpayable","type":"function"},{"inputs":[{"internalType":"uint256","name":"newTimeout","type":"uint256"}],"name":"updateSwapTimeout","outputs":[],"stateMutability":"nonpayable","type":"function"},{"inputs":[{"internalType":"address","name":"","type":"address"},{"internalType":"uint256","name":"","type":"uint256"}],"name":"userSwaps","outputs":[{"internalType":"uint256","name":"","type":"uint256"}],"stateMutability":"view","type":"function"},{"inputs":[],"name":"withdrawFees","outputs":[],"stateMutability":"nonpayable","type":"function"},{"stateMutability":"payable","type":"receive"}],"evm":{"bytecode":{"linkReferences":{},"object":"6080604052346200004e57600160025566038d7ea4c68000600355620151806004556001600755620000313362000053565b506200003d33620000d3565b506040516120279081620001768239f35b600080fd5b6001600160a01b031660008181527fad3228b676f7d3cd4284a5443f17f1962b36e491b30a40b2405849e597ba5fb5602052604081205490919060ff16620000cf57818052816020526040822081835260205260408220600160ff1982541617905533916000805160206200219d8339815191528180a4600190565b5090565b6001600160a01b031660008181527fdae2aa361dfd1ca020a396615627d436107c35eff9fe7738a3512819782d706960205260408120549091907fd8aa0f3194971a2a116679f7c2090f6939c8d4e01a2a8d7e41d55e5351469e639060ff166200017057808352826020526040832082845260205260408320600160ff198254161790556000805160206200219d833981519152339380a4600190565b50509056fe608080604052600436101561001d575b50361561001b57600080fd5b005b60003560e01c90816301ffc9a7146118c45750806307bd026514611889578063248a9ca31461185a5780632af78bd11461182e5780632f2ff15d146117ef57806336568abe146117a85780633812fa43146117745780633f4ba83a1461170a578063476343ee146116595780634a0d89ba146114cf57806354cf2aeb146114b15780635c975abb1461148e5780635d68fcb3146113a857806368eb51551461138a5780638456cb591461133157806387d2d3e6146112d957806391d148541461128c57806394de34f11461126e57806395ccea67146111d85780639c61d7a414611128578063a217fddf1461110c578063a4b2409e14610e95578063b477033514610de1578063bc55cc8a14610d10578063bf16f65a14610cc4578063cce6ef4414610c6c578063d0a9128914610b81578063d547741f14610b42578063d5d9b2d414610a65578063e3895bee146101e1578063eea69c65146101ac5763f97595181461018a573861000f565b346101a75760003660031901126101a75760206040516113888152f35b600080fd5b346101a75760203660031901126101a75760206101cf6101ca611959565b611d81565b6040516001600160a01b039091168152f35b60c03660031901126101a7576101f5611959565b6101fd611943565b9060a435906001600160a01b03821682036101a75761021a611c9f565b610222611cbd565b60443515610a20576001600160401b0383166001600160401b038216146109e257600354341061099d576113886084351161096457600754916000198314610763576001830160075560405161027781611b9a565b3381526001600160401b03831660208201526001600160401b03851660408201526044356060820152606435608082015260843560a08201524260c0820152600060e0820152600061010082015260018060a01b03821661012082015283600052600560205260406000209060018060a01b038151168254906001600160401b0360a01b602084015160a01b169163ffffffff60e01b1617178255600182016001600160401b036040830151166001600160401b0319825416179055606081015160028301556080810151600383015560a0810151600483015560c0810151600583015560e0810151151560068301549161010081015190600482101561094e5760069360ff61ff009261012062010000600160b01b0391015160101b1694169069ffffffffffffffffffff60b01b16179160081b16171791015533600052600660205260406000208054680100000000000000008110156106a0576103e29160018201815561197c565b81549060031b9085821b91600019901b19161790556001600160401b038216156000146108db57610417600354604435611c36565b341061089d575b61042782611d81565b906001600160401b03831661086e5750600080808093604435905af161044b611cde565b501561081f575b81600052600560205260406000206001600160401b03808516612710011161076357604051632af78bd160e01b815263ffffffff8516600482015290602082602481305afa918215610813576000926107df575b50811561079a57600401546001600160401b03831615610779576127100190816127101161076357612710916104db91611d1d565b045b6001600160401b03811161072d576001600160401b03604435116106f2576001600160401b0360443516156106b6576040516001600160401b03602082019263ffffffff82881661271001168452818516151560408401521660608201526001600160401b03604435166080820152600060a0820152600360c08201526fffffffffffffffffffffffffffffffff841660e082015260e081526101008101918183106001600160401b038411176106a057826105d76024600095948695604052610120810194600160f81b8652600160e81b6101218301526105c7825180926101248501906119aa565b8101036004810184520182611bd1565b5190827333333333333333333333333333333333333333335af16105f9611cde565b501561065b576001600160401b036020938160405193168352168382015260443560408201526064356060820152817f42cf7cf37879edb4cfdb8138d44d457eb9095ad17350c06bc7ace63c3cec281160803393a36001600255604051908152f35b60405162461bcd60e51b815260206004820152601d60248201527f436f7265577269746572206c696d6974206f72646572206661696c65640000006044820152606490fd5b634e487b7160e01b600052604160045260246000fd5b60405162461bcd60e51b815260206004820152601460248201527313dc99195c881cda5e99481d1bdbc81cdb585b1b60621b6044820152606490fd5b60405162461bcd60e51b81526020600482015260136024820152724f726465722073697a65206f766572666c6f7760681b6044820152606490fd5b60405162461bcd60e51b815260206004820152600e60248201526d5072696365206f766572666c6f7760901b6044820152606490fd5b634e487b7160e01b600052601160045260246000fd5b61271003906127108211610763576127109161079491611d1d565b046104dd565b60405162461bcd60e51b815260206004820152601760248201527f43616e6e6f7420676574206d61726b65742070726963650000000000000000006044820152606490fd5b9091506020813d60201161080b575b816107fb60209383611bd1565b810103126101a7575190856104a6565b3d91506107ee565b6040513d6000823e3d90fd5b60405162461bcd60e51b815260206004820152602160248201527f48595045207472616e7366657220746f204879706572436f7265206661696c656044820152601960fa1b6064820152608490fd5b610898916108866001600160a01b0383161515611bf2565b604435916001600160a01b0316611d30565b610452565b60405162461bcd60e51b8152602060048201526016602482015275125b9cdd59999a58da595b9d0812165411481cd95b9d60521b6044820152606490fd5b6108ef6001600160a01b0382161515611bf2565b6040516323b872dd60e01b60208201523360248201523060448201526044356064820152606481528060a08101106001600160401b0360a0830111176106a05760a08101604052610949906001600160a01b038316611c43565b61041e565b634e487b7160e01b600052602160045260246000fd5b60405162461bcd60e51b81526020600482015260116024820152700a6d8d2e0e0c2ceca40e8dede40d0d2ced607b1b6044820152606490fd5b60405162461bcd60e51b815260206004820152601860248201527f496e73756666696369656e7420666565207061796d656e7400000000000000006044820152606490fd5b60405162461bcd60e51b815260206004820152601660248201527521b0b73737ba1039bbb0b81039b0b6b2903a37b5b2b760511b6044820152606490fd5b60405162461bcd60e51b815260206004820152601d60248201527f416d6f756e74206d7573742062652067726561746572207468616e20300000006044820152606490fd5b346101a75760403660031901126101a757602435600435610a84611a25565b8060005260056020526040600020600681019081549060ff8260081c16600481101561094e57610ab49015611e74565b60038101548510610b065761ffff1990911661010117909155546040519283526001600160a01b0316917f2f8dc9ad837a0ff514f483e92704293c1fdaba45dbe9e245b3f249059fb31edf90602090a3005b60405162461bcd60e51b81526020600482015260146024820152734f75747075742062656c6f77206d696e696d756d60601b6044820152606490fd5b346101a75760403660031901126101a75761001b600435610b61611917565b90806000526000602052610b7c600160406000200154611a81565b611b25565b346101a75760403660031901126101a7576001600160401b036004356024358281116101a757366023820112156101a75780600401359283116101a75736602484830101116101a757610bd2611a25565b8160005260056020526040600020600681019182549060ff8260081c1692600484101561094e577f304743917b4363181811b65180ab4e4523952f008584427d3336ef0abf396f7794610300604094610c2d60249715611e74565b61ff00191617905560018060a01b03905416958083519485936020855282602086015201848401376000828201840152601f01601f19168101030190a3005b346101a75760203660031901126101a7576060610c8a600435611eb3565b91906040519283911515825260406020830152610cb681518092816040860152602086860191016119aa565b601f01601f19168101030190f35b346101a75760203660031901126101a7577f8c4d35e54a3f2ef1134138fd8ea3daee6a3c89e10d2665996babdf70261e2c766020600435610d036119cd565b80600355604051908152a1005b346101a75760203660031901126101a757600435610d2c6119cd565b610e108110610da85762093a808111610d70576020817f59e0e903d3594c661403d991b9718512bfa451f7fdb7a0aa57004c248701d54792600455604051908152a1005b60405162461bcd60e51b815260206004820152601060248201526f54696d656f757420746f6f206c6f6e6760801b6044820152606490fd5b60405162461bcd60e51b8152602060048201526011602482015270151a5b595bdd5d081d1bdbc81cda1bdc9d607a1b6044820152606490fd5b346101a7576020806003193601126101a7576001600160a01b03610e0361192d565b1660005260068152604060002060405190818382549182815201908192600052846000209060005b86828210610e81578686610e4182880383611bd1565b604051928392818401908285525180915260408401929160005b828110610e6a57505050500390f35b835185528695509381019392810192600101610e5b565b835485529093019260019283019201610e2b565b346101a7576020806003193601126101a757600435610eb2611cbd565b6000818152600583526040902080546001600160a01b039033828216036110d6576006830190815460ff8160081c16600481101561094e5760018114611098576002811461106057610f0b600587015460045490611c36565b4211908115611055575b50156110105761ff001916610200179182905560a01c6001600160401b0316610fc757505060008080806002850154335af1610f4f611cde565b5015610f8d5760027fe7d0ff20a54a73b060e0b891a464efd25dca86879d9ba85a9356c35bcb6fc2b9915b0154926040519384523393a36001600255005b60405162461bcd60e51b815260048101849052601260248201527112165411481c99599d5b990819985a5b195960721b6044820152606490fd5b9161100b6002927fe7d0ff20a54a73b060e0b891a464efd25dca86879d9ba85a9356c35bcb6fc2b99460101c16610fff811515611bf2565b83830154903390611d30565b610f7a565b60405162461bcd60e51b815260048101889052601c60248201527f53776170206e6f7420656c696769626c6520666f7220726566756e64000000006044820152606490fd5b600391501488610f15565b60405162461bcd60e51b815260048101899052601060248201526f105b1c9958591e481c99599d5b99195960821b6044820152606490fd5b60405162461bcd60e51b815260048101899052601660248201527514ddd85c08185b1c9958591e4818dbdb5c1b195d195960521b6044820152606490fd5b60405162461bcd60e51b815260048101869052600e60248201526d2737ba1039bbb0b81037bbb732b960911b6044820152606490fd5b346101a75760003660031901126101a757602060405160008152f35b346101a75760203660031901126101a7576004356000526005602052610140604060002080546001600160401b039182600182015416906002810154600382015460048301549160066005850154940154946040519760018060a01b03978881168a5260a01c16602089015260408801526060870152608086015260a085015260c084015260ff8116151560e08401526111cc610100840160ff8360081c1661196f565b60101c16610120820152f35b346101a75760403660031901126101a7576111f161192d565b602435906111fd6119cd565b6001600160a01b0316806112625750600080808093335af161121d611cde565b501561122557005b60405162461bcd60e51b8152602060048201526015602482015274115512081dda5d1a191c985dd85b0819985a5b1959605a1b6044820152606490fd5b9061001b913390611d30565b346101a75760003660031901126101a7576020600454604051908152f35b346101a75760403660031901126101a7576112a5611917565b600435600052600060205260406000209060018060a01b0316600052602052602060ff604060002054166040519015158152f35b346101a75760403660031901126101a7576112f261192d565b6001600160a01b03166000908152600660205260409020805460243591908210156101a7576020916113239161197c565b90546040519160031b1c8152f35b346101a75760003660031901126101a75761134a6119cd565b611352611c9f565b600160ff19815416176001557f62e78cea01bee320cd4e420270b5ea74000d11b0c9f74754ebdbfc544b05a2586020604051338152a1005b346101a75760003660031901126101a7576020600754604051908152f35b60003660031901126101a7573415611458576000808080347322222222222222222222222222222222222222225af16113df611cde565b5015611413576040513481527f4787a2f08ae1fd4bb59133094cd37280a15ffea9206311dd9b2c561028f2bc7b60203392a2005b60405162461bcd60e51b815260206004820152601b60248201527f485950452073797374656d207472616e73666572206661696c656400000000006044820152606490fd5b60405162461bcd60e51b815260206004820152600e60248201526d4d7573742073656e64204859504560901b6044820152606490fd5b346101a75760003660031901126101a757602060ff600154166040519015158152f35b346101a75760003660031901126101a7576020600354604051908152f35b346101a75760203660031901126101a75760006101206040516114f181611b9a565b8281528260208201528260408201528260608201528260808201528260a08201528260c08201528260e08201528261010082015201526004356000526005602052604060002060405161154381611b9a565b81549060018060a01b03821681526001600160401b03602082019260a01c1682526001600160401b036001840154166040820190815260028401546060830190815260038501546080840190815260048601549560a08501968752600660058201549160c0870192835201549660e086019260ff89161515845260ff8960081c1694600486101561094e576001600160401b03611643976101409b6101008b0198895260018060a01b039060101c166101208b0152816040519b60018060a01b038c51168d52511660208c0152511660408a01525160608901525160808801525160a08701525160c086015251151560e08501525161010084019061196f565b610120908101516001600160a01b031690820152f35b346101a75760003660031901126101a7576116726119cd565b4780156116cf57600080808093335af161168a611cde565b501561169257005b60405162461bcd60e51b8152602060048201526015602482015274119959481dda5d1a191c985dd85b0819985a5b1959605a1b6044820152606490fd5b60405162461bcd60e51b81526020600482015260136024820152724e6f206665657320746f20776974686472617760681b6044820152606490fd5b346101a75760003660031901126101a7576117236119cd565b60015460ff8116156117625760ff19166001557f5db9ee0a495bf2e6ff9c91a7834c1ba4fdd244a5e8aa4e537bd38aeae4b073aa6020604051338152a1005b604051638dfc202b60e01b8152600490fd5b346101a75760403660031901126101a75760206117a061179261192d565b61179a611943565b90611e23565b604051908152f35b346101a75760403660031901126101a7576117c1611917565b336001600160a01b038216036117dd5761001b90600435611b25565b60405163334bd91960e11b8152600490fd5b346101a75760403660031901126101a75761001b60043561180e611917565b90806000526000602052611829600160406000200154611a81565b611aa7565b346101a75760203660031901126101a75760043563ffffffff811681036101a7576117a0602091611dc3565b346101a75760203660031901126101a75760043560005260006020526020600160406000200154604051908152f35b346101a75760003660031901126101a75760206040517fd8aa0f3194971a2a116679f7c2090f6939c8d4e01a2a8d7e41d55e5351469e638152f35b346101a75760203660031901126101a7576004359063ffffffff60e01b82168092036101a757602091637965db0b60e01b8114908115611906575b5015158152f35b6301ffc9a760e01b149050836118ff565b602435906001600160a01b03821682036101a757565b600435906001600160a01b03821682036101a757565b602435906001600160401b03821682036101a757565b600435906001600160401b03821682036101a757565b90600482101561094e5752565b80548210156119945760005260206000200190600090565b634e487b7160e01b600052603260045260246000fd5b60005b8381106119bd5750506000910152565b81810151838201526020016119ad565b3360009081527fad3228b676f7d3cd4284a5443f17f1962b36e491b30a40b2405849e597ba5fb5602052604081205460ff1615611a075750565b6044906040519063e2517d3f60e01b82523360048301526024820152fd5b3360009081527fdae2aa361dfd1ca020a396615627d436107c35eff9fe7738a3512819782d706960205260409020547fd8aa0f3194971a2a116679f7c2090f6939c8d4e01a2a8d7e41d55e5351469e639060ff1615611a075750565b80600052600060205260406000203360005260205260ff6040600020541615611a075750565b9060009180835282602052604083209160018060a01b03169182845260205260ff60408420541615600014611b2057808352826020526040832082845260205260408320600160ff198254161790557f2f8788117e7eff1d82e926ec794901d17c78024a50270940304540a733656f0d339380a4600190565b505090565b9060009180835282602052604083209160018060a01b03169182845260205260ff604084205416600014611b205780835282602052604083208284526020526040832060ff1981541690557ff6391f5c32d9c69d2a47ea670b442974b53935d1edc7fd64eb21e047a839171b339380a4600190565b61014081019081106001600160401b038211176106a057604052565b604081019081106001600160401b038211176106a057604052565b90601f801991011681019081106001600160401b038211176106a057604052565b15611bf957565b60405162461bcd60e51b8152602060048201526015602482015274496e76616c696420746f6b656e206164647265737360581b6044820152606490fd5b9190820180921161076357565b906000602091828151910182855af115610813576000513d611c9657506001600160a01b0381163b155b611c745750565b604051635274afe760e01b81526001600160a01b039091166004820152602490fd5b60011415611c6d565b60ff60015416611cab57565b60405163d93c066560e01b8152600490fd5b6002805414611ccc5760028055565b604051633ee5aeb560e01b8152600490fd5b3d15611d18573d906001600160401b0382116106a05760405191611d0c601f8201601f191660200184611bd1565b82523d6000602084013e565b606090565b8181029291811591840414171561076357565b60405163a9059cbb60e01b60208201526001600160a01b03909216602483015260448083019390935291815260808101916001600160401b038311828410176106a057611d7f92604052611c43565b565b6001600160401b03168015611daa576001600160a01b03906001609d1b01818111610763571690565b5073222222222222222222222222222222222222222290565b6000809160405163ffffffff602082019216825260208152611de481611bb6565b51906108075afa611df3611cde565b90158015611e1a575b611e14576020818051810103126101a7576020015190565b50600090565b50805115611dfc565b604080516001600160a01b03909216602083019081526001600160401b039384168383015290825290916060830191908211838310176106a057600092839260405251906108015afa611df3611cde565b15611e7b57565b60405162461bcd60e51b815260206004820152601060248201526f53776170206e6f742070656e64696e6760801b6044820152606490fd5b90600091825260206005815260409283812060ff600682015460081c166004811015611fdd5760018114611fb25760028114611f8557600314611f5c5760050154600454611f0091611c36565b4211611f33577153776170207374696c6c2070656e64696e6760701b90935191611f2983611bb6565b6012835282015290565b506b14ddd85c08195e1c1a5c995960a21b6001935191611f5283611bb6565b600c835282015290565b50506a14ddd85c0819985a5b195960aa1b6001935191611f7b83611bb6565b600b835282015290565b50506f105b1c9958591e481c99599d5b99195960821b90935191611fa883611bb6565b6010835282015290565b50506d14ddd85c0818dbdb5c1b195d195960921b90935191611fd383611bb6565b600e835282015290565b634e487b7160e01b83526021600452602483fdfea2646970667358221220ffae0eccfa22954d4dbdcc6355e08f348f57fca886bdedaefbaadc78c1dd67ad64736f6c634300081400332f8788117e7eff1d82e926ec794901d17c78024a50270940304540a733656f0d","opcodes":"PUSH1 0x80 PUSH1 0x40 MSTORE CALLVALUE PUSH3 0x4E JUMPI PUSH1 0x1 PUSH1 0x2 SSTORE PUSH7 0x38D7EA4C68000 PUSH1 0x3 SSTORE PUSH3 0x15180 PUSH1 0x4 SSTORE PUSH1 0x1 PUSH1 0x7 SSTORE PUSH3 0x31 CALLER PUSH3 0x53 JUMP JUMPDEST POP PUSH3 0x3D CALLER PUSH3 0xD3 JUMP JUMPDEST POP PUSH1 0x40 MLOAD PUSH2 0x2027 SWAP1 DUP2 PUSH3 0x176 DUP3 CODECOPY RETURN JUMPDEST PUSH1 0x0 DUP1 REVERT JUMPDEST PUSH1 0x1 PUSH1 0x1 PUSH1 0xA0 SHL SUB AND PUSH1 0x0 DUP2 DUP2 MSTORE PUSH32 0xAD3228B676F7D3CD4284A5443F17F1962B36E491B30A40B2405849E597BA5FB5 PUSH1 0x20 MSTORE PUSH1 0x40 DUP2 KECCAK256 SLOAD SWAP1 SWAP2 SWAP1 PUSH1 0xFF AND PUSH3 0xCF JUMPI DUP2 DUP1 MSTORE DUP2 PUSH1 0x20 MSTORE PUSH1 0x40 DUP3 KECCAK256 DUP2 DUP4 MSTORE PUSH1 0x20 MSTORE PUSH1 0x40 DUP3 KECCAK256 PUSH1 0x1 PUSH1 0xFF NOT DUP3 SLOAD AND OR SWAP1 SSTORE CALLER SWAP2 PUSH1 0x0 DUP1 MLOAD PUSH1 0x20 PUSH3 0x219D DUP4 CODECOPY DUP2 MLOAD SWAP2 MSTORE DUP2 DUP1 LOG4 PUSH1 0x1 SWAP1 JUMP JUMPDEST POP SWAP1 JUMP JUMPDEST PUSH1 0x1 PUSH1 0x1 PUSH1 0xA0 SHL SUB AND PUSH1 0x0 DUP2 DUP2 MSTORE PUSH32 0xDAE2AA361DFD1CA020A396615627D436107C35EFF9FE7738A3512819782D7069 PUSH1 0x20 MSTORE PUSH1 0x40 DUP2 KECCAK256 SLOAD SWAP1 SWAP2 SWAP1 PUSH32 0xD8AA0F3194971A2A116679F7C2090F6939C8D4E01A2A8D7E41D55E5351469E63 SWAP1 PUSH1 0xFF AND PUSH3 0x170 JUMPI DUP1 DUP4 MSTORE DUP3 PUSH1 0x20 MSTORE PUSH1 0x40 DUP4 KECCAK256 DUP3 DUP5 MSTORE PUSH1 0x20 MSTORE PUSH1 0x40 DUP4 KECCAK256 PUSH1 0x1 PUSH1 0xFF NOT DUP3 SLOAD AND OR SWAP1 SSTORE PUSH1 0x0 DUP1 MLOAD PUSH1 0x20 PUSH3 0x219D DUP4 CODECOPY DUP2 MLOAD SWAP2 MSTORE CALLER SWAP4 DUP1 LOG4 PUSH1 0x1 SWAP1 JUMP JUMPDEST POP POP SWAP1 JUMP INVALID PUSH1 0x80 DUP1 PUSH1 0x40 MSTORE PUSH1 0x4 CALLDATASIZE LT ISZERO PUSH2 0x1D JUMPI JUMPDEST POP CALLDATASIZE ISZERO PUSH2 0x1B JUMPI PUSH1 0x0 DUP1 REVERT JUMPDEST STOP JUMPDEST PUSH1 0x0 CALLDATALOAD PUSH1 0xE0 SHR SWAP1 DUP2 PUSH4 0x1FFC9A7 EQ PUSH2 0x18C4 JUMPI POP DUP1 PUSH4 0x7BD0265 EQ PUSH2 0x1889 JUMPI DUP1 PUSH4 0x248A9CA3 EQ PUSH2 0x185A JUMPI DUP1 PUSH4 0x2AF78BD1 EQ PUSH2 0x182E JUMPI DUP1 PUSH4 0x2F2FF15D EQ PUSH2 0x17EF JUMPI DUP1 PUSH4 0x36568ABE EQ PUSH2 0x17A8 JUMPI DUP1 PUSH4 0x3812FA43 EQ PUSH2 0x1774 JUMPI DUP1 PUSH4 0x3F4BA83A EQ PUSH2 0x170A JUMPI DUP1 PUSH4 0x476343EE EQ PUSH2 0x1659 JUMPI DUP1 PUSH4 0x4A0D89BA EQ PUSH2 0x14CF JUMPI DUP1 PUSH4 0x54CF2AEB EQ PUSH2 0x14B1 JUMPI DUP1 PUSH4 0x5C975ABB EQ PUSH2 0x148E JUMPI DUP1 PUSH4 0x5D68FCB3 EQ PUSH2 0x13A8 JUMPI DUP1 PUSH4 0x68EB5155 EQ PUSH2 0x138A JUMPI DUP1 PUSH4 0x8456CB59 EQ PUSH2 0x1331 JUMPI DUP1 PUSH4 0x87D2D3E6 EQ PUSH2 0x12D9 JUMPI DUP1 PUSH4 0x91D14854 EQ PUSH2 0x128C JUMPI DUP1 PUSH4 0x94DE34F1 EQ PUSH2 0x126E JUMPI DUP1 PUSH4 0x95CCEA67 EQ PUSH2 0x11D8 JUMPI DUP1 PUSH4 0x9C61D7A4 EQ PUSH2 0x1128 JUMPI DUP1 PUSH4 0xA217FDDF EQ PUSH2 0x110C JUMPI DUP1 PUSH4 0xA4B2409E EQ PUSH2 0xE95 JUMPI DUP1 PUSH4 0xB4770335 EQ PUSH2 0xDE1 JUMPI DUP1 PUSH4 0xBC55CC8A EQ PUSH2 0xD10 JUMPI DUP1 PUSH4 0xBF16F65A EQ PUSH2 0xCC4 JUMPI DUP1 PUSH4 0xCCE6EF44 EQ PUSH2 0xC6C JUMPI DUP1 PUSH4 0xD0A91289 EQ PUSH2 0xB81 JUMPI DUP1 PUSH4 0xD547741F EQ PUSH2 0xB42 JUMPI DUP1 PUSH4 0xD5D9B2D4 EQ PUSH2 0xA65 JUMPI DUP1 PUSH4 0xE3895BEE EQ PUSH2 0x1E1 JUMPI DUP1 PUSH4 0xEEA69C65 EQ PUSH2 0x1AC JUMPI PUSH4 0xF9759518 EQ PUSH2 0x18A JUMPI CODESIZE PUSH2 0xF JUMP JUMPDEST CALLVALUE PUSH2 0x1A7 JUMPI PUSH1 0x0 CALLDATASIZE PUSH1 0x3 NOT ADD SLT PUSH2 0x1A7 JUMPI PUSH1 0x20 PUSH1 0x40 MLOAD PUSH2 0x1388 DUP2 MSTORE RETURN JUMPDEST PUSH1 0x0 DUP1 REVERT JUMPDEST CALLVALUE PUSH2 0x1A7 JUMPI PUSH1 0x20 CALLDATASIZE PUSH1 0x3 NOT ADD SLT PUSH2 0x1A7 JUMPI PUSH1 0x20 PUSH2 0x1CF PUSH2 0x1CA PUSH2 0x1959 JUMP JUMPDEST PUSH2 0x1D81 JUMP JUMPDEST PUSH1 0x40 MLOAD PUSH1 0x1 PUSH1 0x1 PUSH1 0xA0 SHL SUB SWAP1 SWAP2 AND DUP2 MSTORE RETURN JUMPDEST PUSH1 0xC0 CALLDATASIZE PUSH1 0x3 NOT ADD SLT PUSH2 0x1A7 JUMPI PUSH2 0x1F5 PUSH2 0x1959 JUMP JUMPDEST PUSH2 0x1FD PUSH2 0x1943 JUMP JUMPDEST SWAP1 PUSH1 0xA4 CALLDATALOAD SWAP1 PUSH1 0x1 PUSH1 0x1 PUSH1 0xA0 SHL SUB DUP3 AND DUP3 SUB PUSH2 0x1A7 JUMPI PUSH2 0x21A PUSH2 0x1C9F JUMP JUMPDEST PUSH2 0x222 PUSH2 0x1CBD JUMP JUMPDEST PUSH1 0x44 CALLDATALOAD ISZERO PUSH2 0xA20 JUMPI PUSH1 0x1 PUSH1 0x1 PUSH1 0x40 SHL SUB DUP4 AND PUSH1 0x1 PUSH1 0x1 PUSH1 0x40 SHL SUB DUP3 AND EQ PUSH2 0x9E2 JUMPI PUSH1 0x3 SLOAD CALLVALUE LT PUSH2 0x99D JUMPI PUSH2 0x1388 PUSH1 0x84 CALLDATALOAD GT PUSH2 0x964 JUMPI PUSH1 0x7 SLOAD SWAP2 PUSH1 0x0 NOT DUP4 EQ PUSH2 0x763 JUMPI PUSH1 0x1 DUP4 ADD PUSH1 0x7 SSTORE PUSH1 0x40 MLOAD PUSH2 0x277 DUP2 PUSH2 0x1B9A JUMP JUMPDEST CALLER DUP2 MSTORE PUSH1 0x1 PUSH1 0x1 PUSH1 0x40 SHL SUB DUP4 AND PUSH1 0x20 DUP3 ADD MSTORE PUSH1 0x1 PUSH1 0x1 PUSH1 0x40 SHL SUB DUP6 AND PUSH1 0x40 DUP3 ADD MSTORE PUSH1 0x44 CALLDATALOAD PUSH1 0x60 DUP3 ADD MSTORE PUSH1 0x64 CALLDATALOAD PUSH1 0x80 DUP3 ADD MSTORE PUSH1 0x84 CALLDATALOAD PUSH1 0xA0 DUP3 ADD MSTORE TIMESTAMP PUSH1 0xC0 DUP3 ADD MSTORE PUSH1 0x0 PUSH1 0xE0 DUP3 ADD MSTORE PUSH1 0x0 PUSH2 0x100 DUP3 ADD MSTORE PUSH1 0x1 DUP1 PUSH1 0xA0 SHL SUB DUP3 AND PUSH2 0x120 DUP3 ADD MSTORE DUP4 PUSH1 0x0 MSTORE PUSH1 0x5 PUSH1 0x20 MSTORE PUSH1 0x40 PUSH1 0x0 KECCAK256 SWAP1 PUSH1 0x1 DUP1 PUSH1 0xA0 SHL SUB DUP2 MLOAD AND DUP3 SLOAD SWAP1 PUSH1 0x1 PUSH1 0x1 PUSH1 0x40 SHL SUB PUSH1 0xA0 SHL PUSH1 0x20 DUP5 ADD MLOAD PUSH1 0xA0 SHL AND SWAP2 PUSH4 0xFFFFFFFF PUSH1 0xE0 SHL AND OR OR DUP3 SSTORE PUSH1 0x1 DUP3 ADD PUSH1 0x1 PUSH1 0x1 PUSH1 0x40 SHL SUB PUSH1 0x40 DUP4 ADD MLOAD AND PUSH1 0x1 PUSH1 0x1 PUSH1 0x40 SHL SUB NOT DUP3 SLOAD AND OR SWAP1 SSTORE PUSH1 0x60 DUP2 ADD MLOAD PUSH1 0x2 DUP4 ADD SSTORE PUSH1 0x80 DUP2 ADD MLOAD PUSH1 0x3 DUP4 ADD SSTORE PUSH1 0xA0 DUP2 ADD MLOAD PUSH1 0x4 DUP4 ADD SSTORE PUSH1 0xC0 DUP2 ADD MLOAD PUSH1 0x5 DUP4 ADD SSTORE PUSH1 0xE0 DUP2 ADD MLOAD ISZERO ISZERO PUSH1 0x6 DUP4 ADD SLOAD SWAP2 PUSH2 0x100 DUP2 ADD MLOAD SWAP1 PUSH1 0x4 DUP3 LT ISZERO PUSH2 0x94E JUMPI PUSH1 0x6 SWAP4 PUSH1 0xFF PUSH2 0xFF00 SWAP3 PUSH2 0x120 PUSH3 0x10000 PUSH1 0x1 PUSH1 0xB0 SHL SUB SWAP2 ADD MLOAD PUSH1 0x10 SHL AND SWAP5 AND SWAP1 PUSH10 0xFFFFFFFFFFFFFFFFFFFF PUSH1 0xB0 SHL AND OR SWAP2 PUSH1 0x8 SHL AND OR OR SWAP2 ADD SSTORE CALLER PUSH1 0x0 MSTORE PUSH1 0x6 PUSH1 0x20 MSTORE PUSH1 0x40 PUSH1 0x0 KECCAK256 DUP1 SLOAD PUSH9 0x10000000000000000 DUP2 LT ISZERO PUSH2 0x6A0 JUMPI PUSH2 0x3E2 SWAP2 PUSH1 0x1 DUP3 ADD DUP2 SSTORE PUSH2 0x197C JUMP JUMPDEST DUP2 SLOAD SWAP1 PUSH1 0x3 SHL SWAP1 DUP6 DUP3 SHL SWAP2 PUSH1 0x0 NOT SWAP1 SHL NOT AND OR SWAP1 SSTORE PUSH1 0x1 PUSH1 0x1 PUSH1 0x40 SHL SUB DUP3 AND ISZERO PUSH1 0x0 EQ PUSH2 0x8DB JUMPI PUSH2 0x417 PUSH1 0x3 SLOAD PUSH1 0x44 CALLDATALOAD PUSH2 0x1C36 JUMP JUMPDEST CALLVALUE LT PUSH2 0x89D JUMPI JUMPDEST PUSH2 0x427 DUP3 PUSH2 0x1D81 JUMP JUMPDEST SWAP1 PUSH1 0x1 PUSH1 0x1 PUSH1 0x40 SHL SUB DUP4 AND PUSH2 0x86E JUMPI POP PUSH1 0x0 DUP1 DUP1 DUP1 SWAP4 PUSH1 0x44 CALLDATALOAD SWAP1 GAS CALL PUSH2 0x44B PUSH2 0x1CDE JUMP JUMPDEST POP ISZERO PUSH2 0x81F JUMPI JUMPDEST DUP2 PUSH1 0x0 MSTORE PUSH1 0x5 PUSH1 0x20 MSTORE PUSH1 0x40 PUSH1 0x0 KECCAK256 PUSH1 0x1 PUSH1 0x1 PUSH1 0x40 SHL SUB DUP1 DUP6 AND PUSH2 0x2710 ADD GT PUSH2 0x763 JUMPI PUSH1 0x40 MLOAD PUSH4 0x2AF78BD1 PUSH1 0xE0 SHL DUP2 MSTORE PUSH4 0xFFFFFFFF DUP6 AND PUSH1 0x4 DUP3 ADD MSTORE SWAP1 PUSH1 0x20 DUP3 PUSH1 0x24 DUP2 ADDRESS GAS STATICCALL SWAP2 DUP3 ISZERO PUSH2 0x813 JUMPI PUSH1 0x0 SWAP3 PUSH2 0x7DF JUMPI JUMPDEST POP DUP2 ISZERO PUSH2 0x79A JUMPI PUSH1 0x4 ADD SLOAD PUSH1 0x1 PUSH1 0x1 PUSH1 0x40 SHL SUB DUP4 AND ISZERO PUSH2 0x779 JUMPI PUSH2 0x2710 ADD SWAP1 DUP2 PUSH2 0x2710 GT PUSH2 0x763 JUMPI PUSH2 0x2710 SWAP2 PUSH2 0x4DB SWAP2 PUSH2 0x1D1D JUMP JUMPDEST DIV JUMPDEST PUSH1 0x1 PUSH1 0x1 PUSH1 0x40 SHL SUB DUP2 GT PUSH2 0x72D JUMPI PUSH1 0x1 PUSH1 0x1 PUSH1 0x40 SHL SUB PUSH1 0x44 CALLDATALOAD GT PUSH2 0x6F2 JUMPI PUSH1 0x1 PUSH1 0x1 PUSH1 0x40 SHL SUB PUSH1 0x44 CALLDATALOAD AND ISZERO PUSH2 0x6B6 JUMPI PUSH1 0x40 MLOAD PUSH1 0x1 PUSH1 0x1 PUSH1 0x40 SHL SUB PUSH1 0x20 DUP3 ADD SWAP3 PUSH4 0xFFFFFFFF DUP3 DUP9 AND PUSH2 0x2710 ADD AND DUP5 MSTORE DUP2 DUP6 AND ISZERO ISZERO PUSH1 0x40 DUP5 ADD MSTORE AND PUSH1 0x60 DUP3 ADD MSTORE PUSH1 0x1 PUSH1 0x1 PUSH1 0x40 SHL SUB PUSH1 0x44 CALLDATALOAD AND PUSH1 0x80 DUP3 ADD MSTORE PUSH1 0x0 PUSH1 0xA0 DUP3 ADD MSTORE PUSH1 0x3 PUSH1 0xC0 DUP3 ADD MSTORE PUSH16 0xFFFFFFFFFFFFFFFFFFFFFFFFFFFFFFFF DUP5 AND PUSH1 0xE0 DUP3 ADD MSTORE PUSH1 0xE0 DUP2 MSTORE PUSH2 0x100 DUP2 ADD SWAP2 DUP2 DUP4 LT PUSH1 0x1 PUSH1 0x1 PUSH1 0x40 SHL SUB DUP5 GT OR PUSH2 0x6A0 JUMPI DUP3 PUSH2 0x5D7 PUSH1 0x24 PUSH1 0x0 SWAP6 SWAP5 DUP7 SWAP6 PUSH1 0x40 MSTORE PUSH2 0x120 DUP2 ADD SWAP5 PUSH1 0x1 PUSH1 0xF8 SHL DUP7 MSTORE PUSH1 0x1 PUSH1 0xE8 SHL PUSH2 0x121 DUP4 ADD MSTORE PUSH2 0x5C7 DUP3 MLOAD DUP1 SWAP3 PUSH2 0x124 DUP6 ADD SWAP1 PUSH2 0x19AA JUMP JUMPDEST DUP2 ADD SUB PUSH1 0x4 DUP2 ADD DUP5 MSTORE ADD DUP3 PUSH2 0x1BD1 JUMP JUMPDEST MLOAD SWAP1 DUP3 PUSH20 0x3333333333333333333333333333333333333333 GAS CALL PUSH2 0x5F9 PUSH2 0x1CDE JUMP JUMPDEST POP ISZERO PUSH2 0x65B JUMPI PUSH1 0x1 PUSH1 0x1 PUSH1 0x40 SHL SUB PUSH1 0x20 SWAP4 DUP2 PUSH1 0x40 MLOAD SWAP4 AND DUP4 MSTORE AND DUP4 DUP3 ADD MSTORE PUSH1 0x44 CALLDATALOAD PUSH1 0x40 DUP3 ADD MSTORE PUSH1 0x64 CALLDATALOAD PUSH1 0x60 DUP3 ADD MSTORE DUP2 PUSH32 0x42CF7CF37879EDB4CFDB8138D44D457EB9095AD17350C06BC7ACE63C3CEC2811 PUSH1 0x80 CALLER SWAP4 LOG3 PUSH1 0x1 PUSH1 0x2 SSTORE PUSH1 0x40 MLOAD SWAP1 DUP2 MSTORE RETURN JUMPDEST PUSH1 0x40 MLOAD PUSH3 0x461BCD PUSH1 0xE5 SHL DUP2 MSTORE PUSH1 0x20 PUSH1 0x4 DUP3 ADD MSTORE PUSH1 0x1D PUSH1 0x24 DUP3 ADD MSTORE PUSH32 0x436F7265577269746572206C696D6974206F72646572206661696C6564000000 PUSH1 0x44 DUP3 ADD MSTORE PUSH1 0x64 SWAP1 REVERT JUMPDEST PUSH4 0x4E487B71 PUSH1 0xE0 SHL PUSH1 0x0 MSTORE PUSH1 0x41 PUSH1 0x4 MSTORE PUSH1 0x24 PUSH1 0x0 REVERT JUMPDEST PUSH1 0x40 MLOAD PUSH3 0x461BCD PUSH1 0xE5 SHL DUP2 MSTORE PUSH1 0x20 PUSH1 0x4 DUP3 ADD MSTORE PUSH1 0x14 PUSH1 0x24 DUP3 ADD MSTORE PUSH20 0x13DC99195C881CDA5E99481D1BDBC81CDB585B1B PUSH1 0x62 SHL PUSH1 0x44 DUP3 ADD MSTORE PUSH1 0x64 SWAP1 REVERT JUMPDEST PUSH1 0x40 MLOAD PUSH3 0x461BCD PUSH1 0xE5 SHL DUP2 MSTORE PUSH1 0x20 PUSH1 0x4 DUP3 ADD MSTORE PUSH1 0x13 PUSH1 0x24 DUP3 ADD MSTORE PUSH19 0x4F726465722073697A65206F766572666C6F77 PUSH1 0x68 SHL PUSH1 0x44 DUP3 ADD MSTORE PUSH1 0x64 SWAP1 REVERT JUMPDEST PUSH1 0x40 MLOAD PUSH3 0x461BCD PUSH1 0xE5 SHL DUP2 MSTORE PUSH1 0x20 PUSH1 0x4 DUP3 ADD MSTORE PUSH1 0xE PUSH1 0x24 DUP3 ADD MSTORE PUSH14 0x5072696365206F766572666C6F77 PUSH1 0x90 SHL PUSH1 0x44 DUP3 ADD MSTORE PUSH1 0x64 SWAP1 REVERT JUMPDEST PUSH4 0x4E487B71 PUSH1 0xE0 SHL PUSH1 0x0 MSTORE PUSH1 0x11 PUSH1 0x4 MSTORE PUSH1 0x24 PUSH1 0x0 REVERT JUMPDEST PUSH2 0x2710 SUB SWAP1 PUSH2 0x2710 DUP3 GT PUSH2 0x763 JUMPI PUSH2 0x2710 SWAP2 PUSH2 0x794 SWAP2 PUSH2 0x1D1D JUMP JUMPDEST DIV PUSH2 0x4DD JUMP JUMPDEST PUSH1 0x40 MLOAD PUSH3 0x461BCD PUSH1 0xE5 SHL DUP2 MSTORE PUSH1 0x20 PUSH1 0x4 DUP3 ADD MSTORE PUSH1 0x17 PUSH1 0x24 DUP3 ADD MSTORE PUSH32 0x43616E6E6F7420676574206D61726B6574207072696365000000000000000000 PUSH1 0x44 DUP3 ADD MSTORE PUSH1 0x64 SWAP1 REVERT JUMPDEST SWAP1 SWAP2 POP PUSH1 0x20 DUP2 RETURNDATASIZE PUSH1 0x20 GT PUSH2 0x80B JUMPI JUMPDEST DUP2 PUSH2 0x7FB PUSH1 0x20 SWAP4 DUP4 PUSH2 0x1BD1 JUMP JUMPDEST DUP2 ADD SUB SLT PUSH2 0x1A7 JUMPI MLOAD SWAP1 DUP6 PUSH2 0x4A6 JUMP JUMPDEST RETURNDATASIZE SWAP2 POP PUSH2 0x7EE JUMP JUMPDEST PUSH1 0x40 MLOAD RETURNDATASIZE PUSH1 0x0 DUP3 RETURNDATACOPY RETURNDATASIZE SWAP1 REVERT JUMPDEST PUSH1 0x40 MLOAD PUSH3 0x461BCD PUSH1 0xE5 SHL DUP2 MSTORE PUSH1 0x20 PUSH1 0x4 DUP3 ADD MSTORE PUSH1 0x21 PUSH1 0x24 DUP3 ADD MSTORE PUSH32 0x48595045207472616E7366657220746F204879706572436F7265206661696C65 PUSH1 0x44 DUP3 ADD MSTORE PUSH1 0x19 PUSH1 0xFA SHL PUSH1 0x64 DUP3 ADD MSTORE PUSH1 0x84 SWAP1 REVERT JUMPDEST PUSH2 0x898 SWAP2 PUSH2 0x886 PUSH1 0x1 PUSH1 0x1 PUSH1 0xA0 SHL SUB DUP4 AND ISZERO ISZERO PUSH2 0x1BF2 JUMP JUMPDEST PUSH1 0x44 CALLDATALOAD SWAP2 PUSH1 0x1 PUSH1 0x1 PUSH1 0xA0 SHL SUB AND PUSH2 0x1D30 JUMP JUMPDEST PUSH2 0x452 JUMP JUMPDEST PUSH1 0x40 MLOAD PUSH3 0x461BCD PUSH1 0xE5 SHL DUP2 MSTORE PUSH1 0x20 PUSH1 0x4 DUP3 ADD MSTORE PUSH1 0x16 PUSH1 0x24 DUP3 ADD MSTORE PUSH22 0x125B9CDD59999A58DA595B9D0812165411481CD95B9D PUSH1 0x52 SHL PUSH1 0x44 DUP3 ADD MSTORE PUSH1 0x64 SWAP1 REVERT JUMPDEST PUSH2 0x8EF PUSH1 0x1 PUSH1 0x1 PUSH1 0xA0 SHL SUB DUP3 AND ISZERO ISZERO PUSH2 0x1BF2 JUMP JUMPDEST PUSH1 0x40 MLOAD PUSH4 0x23B872DD PUSH1 0xE0 SHL PUSH1 0x20 DUP3 ADD MSTORE CALLER PUSH1 0x24 DUP3 ADD MSTORE ADDRESS PUSH1 0x44 DUP3 ADD MSTORE PUSH1 0x44 CALLDATALOAD PUSH1 0x64 DUP3 ADD MSTORE PUSH1 0x64 DUP2 MSTORE DUP1 PUSH1 0xA0 DUP2 ADD LT PUSH1 0x1 PUSH1 0x1 PUSH1 0x40 SHL SUB PUSH1 0xA0 DUP4 ADD GT OR PUSH2 0x6A0 JUMPI PUSH1 0xA0 DUP2 ADD PUSH1 0x40 MSTORE PUSH2 0x949 SWAP1 PUSH1 0x1 PUSH1 0x1 PUSH1 0xA0 SHL SUB DUP4 AND PUSH2 0x1C43 JUMP JUMPDEST PUSH2 0x41E JUMP JUMPDEST PUSH4 0x4E487B71 PUSH1 0xE0 SHL PUSH1 0x0 MSTORE PUSH1 0x21 PUSH1 0x4 MSTORE PUSH1 0x24 PUSH1 0x0 REVERT JUMPDEST PUSH1 0x40 MLOAD PUSH3 0x461BCD PUSH1 0xE5 SHL DUP2 MSTORE PUSH1 0x20 PUSH1 0x4 DUP3 ADD MSTORE PUSH1 0x11 PUSH1 0x24 DUP3 ADD MSTORE PUSH17 0xA6D8D2E0E0C2CECA40E8DEDE40D0D2CED PUSH1 0x7B SHL PUSH1 0x44 DUP3 ADD MSTORE PUSH1 0x64 SWAP1 REVERT JUMPDEST PUSH1 0x40 MLOAD PUSH3 0x461BCD PUSH1 0xE5 SHL DUP2 MSTORE PUSH1 0x20 PUSH1 0x4 DUP3 ADD MSTORE PUSH1 0x18 PUSH1 0x24 DUP3 ADD MSTORE PUSH32 0x496E73756666696369656E7420666565207061796D656E740000000000000000 PUSH1 0x44 DUP3 ADD MSTORE PUSH1 0x64 SWAP1 REVERT JUMPDEST PUSH1 0x40 MLOAD PUSH3 0x461BCD PUSH1 0xE5 SHL DUP2 MSTORE PUSH1 0x20 PUSH1 0x4 DUP3 ADD MSTORE PUSH1 0x16 PUSH1 0x24 DUP3 ADD MSTORE PUSH22 0x21B0B73737BA1039BBB0B81039B0B6B2903A37B5B2B7 PUSH1 0x51 SHL PUSH1 0x44 DUP3 ADD MSTORE PUSH1 0x64 SWAP1 REVERT JUMPDEST PUSH1 0x40 MLOAD PUSH3 0x461BCD PUSH1 0xE5 SHL DUP2 MSTORE PUSH1 0x20 PUSH1 0x4 DUP3 ADD MSTORE PUSH1 0x1D PUSH1 0x24 DUP3 ADD MSTORE PUSH32 0x416D6F756E74206D7573742062652067726561746572207468616E2030000000 PUSH1 0x44 DUP3 ADD MSTORE PUSH1 0x64 SWAP1 REVERT JUMPDEST CALLVALUE PUSH2 0x1A7 JUMPI PUSH1 0x40 CALLDATASIZE PUSH1 0x3 NOT ADD SLT PUSH2 0x1A7 JUMPI PUSH1 0x24 CALLDATALOAD PUSH1 0x4 CALLDATALOAD PUSH2 0xA84 PUSH2 0x1A25 JUMP JUMPDEST DUP1 PUSH1 0x0 MSTORE PUSH1 0x5 PUSH1 0x20 MSTORE PUSH1 0x40 PUSH1 0x0 KECCAK256 PUSH1 0x6 DUP2 ADD SWAP1 DUP2 SLOAD SWAP1 PUSH1 0xFF DUP3 PUSH1 0x8 SHR AND PUSH1 0x4 DUP2 LT ISZERO PUSH2 0x94E JUMPI PUSH2 0xAB4 SWAP1 ISZERO PUSH2 0x1E74 JUMP JUMPDEST PUSH1 0x3 DUP2 ADD SLOAD DUP6 LT PUSH2 0xB06 JUMPI PUSH2 0xFFFF NOT SWAP1 SWAP2 AND PUSH2 0x101 OR SWAP1 SWAP2 SSTORE SLOAD PUSH1 0x40 MLOAD SWAP3 DUP4 MSTORE PUSH1 0x1 PUSH1 0x1 PUSH1 0xA0 SHL SUB AND SWAP2 PUSH32 0x2F8DC9AD837A0FF514F483E92704293C1FDABA45DBE9E245B3F249059FB31EDF SWAP1 PUSH1 0x20 SWAP1 LOG3 STOP JUMPDEST PUSH1 0x40 MLOAD PUSH3 0x461BCD PUSH1 0xE5 SHL DUP2 MSTORE PUSH1 0x20 PUSH1 0x4 DUP3 ADD MSTORE PUSH1 0x14 PUSH1 0x24 DUP3 ADD MSTORE PUSH20 0x4F75747075742062656C6F77206D696E696D756D PUSH1 0x60 SHL PUSH1 0x44 DUP3 ADD MSTORE PUSH1 0x64 SWAP1 REVERT JUMPDEST CALLVALUE PUSH2 0x1A7 JUMPI PUSH1 0x40 CALLDATASIZE PUSH1 0x3 NOT ADD SLT PUSH2 0x1A7 JUMPI PUSH2 0x1B PUSH1 0x4 CALLDATALOAD PUSH2 0xB61 PUSH2 0x1917 JUMP JUMPDEST SWAP1 DUP1 PUSH1 0x0 MSTORE PUSH1 0x0 PUSH1 0x20 MSTORE PUSH2 0xB7C PUSH1 0x1 PUSH1 0x40 PUSH1 0x0 KECCAK256 ADD SLOAD PUSH2 0x1A81 JUMP JUMPDEST PUSH2 0x1B25 JUMP JUMPDEST CALLVALUE PUSH2 0x1A7 JUMPI PUSH1 0x40 CALLDATASIZE PUSH1 0x3 NOT ADD SLT PUSH2 0x1A7 JUMPI PUSH1 0x1 PUSH1 0x1 PUSH1 0x40 SHL SUB PUSH1 0x4 CALLDATALOAD PUSH1 0x24 CALLDATALOAD DUP3 DUP2 GT PUSH2 0x1A7 JUMPI CALLDATASIZE PUSH1 0x23 DUP3 ADD SLT ISZERO PUSH2 0x1A7 JUMPI DUP1 PUSH1 0x4 ADD CALLDATALOAD SWAP3 DUP4 GT PUSH2 0x1A7 JUMPI CALLDATASIZE PUSH1 0x24 DUP5 DUP4 ADD ADD GT PUSH2 0x1A7 JUMPI PUSH2 0xBD2 PUSH2 0x1A25 JUMP JUMPDEST DUP2 PUSH1 0x0 MSTORE PUSH1 0x5 PUSH1 0x20 MSTORE PUSH1 0x40 PUSH1 0x0 KECCAK256 PUSH1 0x6 DUP2 ADD SWAP2 DUP3 SLOAD SWAP1 PUSH1 0xFF DUP3 PUSH1 0x8 SHR AND SWAP3 PUSH1 0x4 DUP5 LT ISZERO PUSH2 0x94E JUMPI PUSH32 0x304743917B4363181811B65180AB4E4523952F008584427D3336EF0ABF396F77 SWAP5 PUSH2 0x300 PUSH1 0x40 SWAP5 PUSH2 0xC2D PUSH1 0x24 SWAP8 ISZERO PUSH2 0x1E74 JUMP JUMPDEST PUSH2 0xFF00 NOT AND OR SWAP1 SSTORE PUSH1 0x1 DUP1 PUSH1 0xA0 SHL SUB SWAP1 SLOAD AND SWAP6 DUP1 DUP4 MLOAD SWAP5 DUP6 SWAP4 PUSH1 0x20 DUP6 MSTORE DUP3 PUSH1 0x20 DUP7 ADD MSTORE ADD DUP5 DUP5 ADD CALLDATACOPY PUSH1 0x0 DUP3 DUP3 ADD DUP5 ADD MSTORE PUSH1 0x1F ADD PUSH1 0x1F NOT AND DUP2 ADD SUB ADD SWAP1 LOG3 STOP JUMPDEST CALLVALUE PUSH2 0x1A7 JUMPI PUSH1 0x20 CALLDATASIZE PUSH1 0x3 NOT ADD SLT PUSH2 0x1A7 JUMPI PUSH1 0x60 PUSH2 0xC8A PUSH1 0x4 CALLDATALOAD PUSH2 0x1EB3 JUMP JUMPDEST SWAP2 SWAP1 PUSH1 0x40 MLOAD SWAP3 DUP4 SWAP2 ISZERO ISZERO DUP3 MSTORE PUSH1 0x40 PUSH1 0x20 DUP4 ADD MSTORE PUSH2 0xCB6 DUP2 MLOAD DUP1 SWAP3 DUP2 PUSH1 0x40 DUP7 ADD MSTORE PUSH1 0x20 DUP7 DUP7 ADD SWAP2 ADD PUSH2 0x19AA JUMP JUMPDEST PUSH1 0x1F ADD PUSH1 0x1F NOT AND DUP2 ADD SUB ADD SWAP1 RETURN JUMPDEST CALLVALUE PUSH2 0x1A7 JUMPI PUSH1 0x20 CALLDATASIZE PUSH1 0x3 NOT ADD SLT PUSH2 0x1A7 JUMPI PUSH32 0x8C4D35E54A3F2EF1134138FD8EA3DAEE6A3C89E10D2665996BABDF70261E2C76 PUSH1 0x20 PUSH1 0x4 CALLDATALOAD PUSH2 0xD03 PUSH2 0x19CD JUMP JUMPDEST DUP1 PUSH1 0x3 SSTORE PUSH1 0x40 MLOAD SWAP1 DUP2 MSTORE LOG1 STOP JUMPDEST CALLVALUE PUSH2 0x1A7 JUMPI PUSH1 0x20 CALLDATASIZE PUSH1 0x3 NOT ADD SLT PUSH2 0x1A7 JUMPI PUSH1 0x4 CALLDATALOAD PUSH2 0xD2C PUSH2 0x19CD JUMP JUMPDEST PUSH2 0xE10 DUP2 LT PUSH2 0xDA8 JUMPI PUSH3 0x93A80 DUP2 GT PUSH2 0xD70 JUMPI PUSH1 0x20 DUP2 PUSH32 0x59E0E903D3594C661403D991B9718512BFA451F7FDB7A0AA57004C248701D547 SWAP3 PUSH1 0x4 SSTORE PUSH1 0x40 MLOAD SWAP1 DUP2 MSTORE LOG1 STOP JUMPDEST PUSH1 0x40 MLOAD PUSH3 0x461BCD PUSH1 0xE5 SHL DUP2 MSTORE PUSH1 0x20 PUSH1 0x4 DUP3 ADD MSTORE PUSH1 0x10 PUSH1 0x24 DUP3 ADD MSTORE PUSH16 0x54696D656F757420746F6F206C6F6E67 PUSH1 0x80 SHL PUSH1 0x44 DUP3 ADD MSTORE PUSH1 0x64 SWAP1 REVERT JUMPDEST PUSH1 0x40 MLOAD PUSH3 0x461BCD PUSH1 0xE5 SHL DUP2 MSTORE PUSH1 0x20 PUSH1 0x4 DUP3 ADD MSTORE PUSH1 0x11 PUSH1 0x24 DUP3 ADD MSTORE PUSH17 0x151A5B595BDD5D081D1BDBC81CDA1BDC9D PUSH1 0x7A SHL PUSH1 0x44 DUP3 ADD MSTORE PUSH1 0x64 SWAP1 REVERT JUMPDEST CALLVALUE PUSH2 0x1A7 JUMPI PUSH1 0x20 DUP1 PUSH1 0x3 NOT CALLDATASIZE ADD SLT PUSH2 0x1A7 JUMPI PUSH1 0x1 PUSH1 0x1 PUSH1 0xA0 SHL SUB PUSH2 0xE03 PUSH2 0x192D JUMP JUMPDEST AND PUSH1 0x0 MSTORE PUSH1 0x6 DUP2 MSTORE PUSH1 0x40 PUSH1 0x0 KECCAK256 PUSH1 0x40 MLOAD SWAP1 DUP2 DUP4 DUP3 SLOAD SWAP2 DUP3 DUP2 MSTORE ADD SWAP1 DUP2 SWAP3 PUSH1 0x0 MSTORE DUP5 PUSH1 0x0 KECCAK256 SWAP1 PUSH1 0x0 JUMPDEST DUP7 DUP3 DUP3 LT PUSH2 0xE81 JUMPI DUP7 DUP7 PUSH2 0xE41 DUP3 DUP9 SUB DUP4 PUSH2 0x1BD1 JUMP JUMPDEST PUSH1 0x40 MLOAD SWAP3 DUP4 SWAP3 DUP2 DUP5 ADD SWAP1 DUP3 DUP6 MSTORE MLOAD DUP1 SWAP2 MSTORE PUSH1 0x40 DUP5 ADD SWAP3 SWAP2 PUSH1 0x0 JUMPDEST DUP3 DUP2 LT PUSH2 0xE6A JUMPI POP POP POP POP SUB SWAP1 RETURN JUMPDEST DUP4 MLOAD DUP6 MSTORE DUP7 SWAP6 POP SWAP4 DUP2 ADD SWAP4 SWAP3 DUP2 ADD SWAP3 PUSH1 0x1 ADD PUSH2 0xE5B JUMP JUMPDEST DUP4 SLOAD DUP6 MSTORE SWAP1 SWAP4 ADD SWAP3 PUSH1 0x1 SWAP3 DUP4 ADD SWAP3 ADD PUSH2 0xE2B JUMP JUMPDEST CALLVALUE PUSH2 0x1A7 JUMPI PUSH1 0x20 DUP1 PUSH1 0x3 NOT CALLDATASIZE ADD SLT PUSH2 0x1A7 JUMPI PUSH1 0x4 CALLDATALOAD PUSH2 0xEB2 PUSH2 0x1CBD JUMP JUMPDEST PUSH1 0x0 DUP2 DUP2 MSTORE PUSH1 0x5 DUP4 MSTORE PUSH1 0x40 SWAP1 KECCAK256 DUP1 SLOAD PUSH1 0x1 PUSH1 0x1 PUSH1 0xA0 SHL SUB SWAP1 CALLER DUP3 DUP3 AND SUB PUSH2 0x10D6 JUMPI PUSH1 0x6 DUP4 ADD SWAP1 DUP2 SLOAD PUSH1 0xFF DUP2 PUSH1 0x8 SHR AND PUSH1 0x4 DUP2 LT ISZERO PUSH2 0x94E JUMPI PUSH1 0x1 DUP2 EQ PUSH2 0x1098 JUMPI PUSH1 0x2 DUP2 EQ PUSH2 0x1060 JUMPI PUSH2 0xF0B PUSH1 0x5 DUP8 ADD SLOAD PUSH1 0x4 SLOAD SWAP1 PUSH2 0x1C36 JUMP JUMPDEST TIMESTAMP GT SWAP1 DUP2 ISZERO PUSH2 0x1055 JUMPI JUMPDEST POP ISZERO PUSH2 0x1010 JUMPI PUSH2 0xFF00 NOT AND PUSH2 0x200 OR SWAP2 DUP3 SWAP1 SSTORE PUSH1 0xA0 SHR PUSH1 0x1 PUSH1 0x1 PUSH1 0x40 SHL SUB AND PUSH2 0xFC7 JUMPI POP POP PUSH1 0x0 DUP1 DUP1 DUP1 PUSH1 0x2 DUP6 ADD SLOAD CALLER GAS CALL PUSH2 0xF4F PUSH2 0x1CDE JUMP JUMPDEST POP ISZERO PUSH2 0xF8D JUMPI PUSH1 0x2 PUSH32 0xE7D0FF20A54A73B060E0B891A464EFD25DCA86879D9BA85A9356C35BCB6FC2B9 SWAP2 JUMPDEST ADD SLOAD SWAP3 PUSH1 0x40 MLOAD SWAP4 DUP5 MSTORE CALLER SWAP4 LOG3 PUSH1 0x1 PUSH1 0x2 SSTORE STOP JUMPDEST PUSH1 0x40 MLOAD PUSH3 0x461BCD PUSH1 0xE5 SHL DUP2 MSTORE PUSH1 0x4 DUP2 ADD DUP5 SWAP1 MSTORE PUSH1 0x12 PUSH1 0x24 DUP3 ADD MSTORE PUSH18 0x12165411481C99599D5B990819985A5B1959 PUSH1 0x72 SHL PUSH1 0x44 DUP3 ADD MSTORE PUSH1 0x64 SWAP1 REVERT JUMPDEST SWAP2 PUSH2 0x100B PUSH1 0x2 SWAP3 PUSH32 0xE7D0FF20A54A73B060E0B891A464EFD25DCA86879D9BA85A9356C35BCB6FC2B9 SWAP5 PUSH1 0x10 SHR AND PUSH2 0xFFF DUP2 ISZERO ISZERO PUSH2 0x1BF2 JUMP JUMPDEST DUP4 DUP4 ADD SLOAD SWAP1 CALLER SWAP1 PUSH2 0x1D30 JUMP JUMPDEST PUSH2 0xF7A JUMP JUMPDEST PUSH1 0x40 MLOAD PUSH3 0x461BCD PUSH1 0xE5 SHL DUP2 MSTORE PUSH1 0x4 DUP2 ADD DUP9 SWAP1 MSTORE PUSH1 0x1C PUSH1 0x24 DUP3 ADD MSTORE PUSH32 0x53776170206E6F7420656C696769626C6520666F7220726566756E6400000000 PUSH1 0x44 DUP3 ADD MSTORE PUSH1 0x64 SWAP1 REVERT JUMPDEST PUSH1 0x3 SWAP2 POP EQ DUP9 PUSH2 0xF15 JUMP JUMPDEST PUSH1 0x40 MLOAD PUSH3 0x461BCD PUSH1 0xE5 SHL DUP2 MSTORE PUSH1 0x4 DUP2 ADD DUP10 SWAP1 MSTORE PUSH1 0x10 PUSH1 0x24 DUP3 ADD MSTORE PUSH16 0x105B1C9958591E481C99599D5B991959 PUSH1 0x82 SHL PUSH1 0x44 DUP3 ADD MSTORE PUSH1 0x64 SWAP1 REVERT JUMPDEST PUSH1 0x40 MLOAD PUSH3 0x461BCD PUSH1 0xE5 SHL DUP2 MSTORE PUSH1 0x4 DUP2 ADD DUP10 SWAP1 MSTORE PUSH1 0x16 PUSH1 0x24 DUP3 ADD MSTORE PUSH22 0x14DDD85C08185B1C9958591E4818DBDB5C1B195D1959 PUSH1 0x52 SHL PUSH1 0x44 DUP3 ADD MSTORE PUSH1 0x64 SWAP1 REVERT JUMPDEST PUSH1 0x40 MLOAD PUSH3 0x461BCD PUSH1 0xE5 SHL DUP2 MSTORE PUSH1 0x4 DUP2 ADD DUP7 SWAP1 MSTORE PUSH1 0xE PUSH1 0x24 DUP3 ADD MSTORE PUSH14 0x2737BA1039BBB0B81037BBB732B9 PUSH1 0x91 SHL PUSH1 0x44 DUP3 ADD MSTORE PUSH1 0x64 SWAP1 REVERT JUMPDEST CALLVALUE PUSH2 0x1A7 JUMPI PUSH1 0x0 CALLDATASIZE PUSH1 0x3 NOT ADD SLT PUSH2 0x1A7 JUMPI PUSH1 0x20 PUSH1 0x40 MLOAD PUSH1 0x0 DUP2 MSTORE RETURN JUMPDEST CALLVALUE PUSH2 0x1A7 JUMPI PUSH1 0x20 CALLDATASIZE PUSH1 0x3 NOT ADD SLT PUSH2 0x1A7 JUMPI PUSH1 0x4 CALLDATALOAD PUSH1 0x0 MSTORE PUSH1 0x5 PUSH1 0x20 MSTORE PUSH2 0x140 PUSH1 0x40 PUSH1 0x0 KECCAK256 DUP1 SLOAD PUSH1 0x1 PUSH1 0x1 PUSH1 0x40 SHL SUB SWAP2 DUP3 PUSH1 0x1 DUP3 ADD SLOAD AND SWAP1 PUSH1 0x2 DUP2 ADD SLOAD PUSH1 0x3 DUP3 ADD SLOAD PUSH1 0x4 DUP4 ADD SLOAD SWAP2 PUSH1 0x6 PUSH1 0x5 DUP6 ADD SLOAD SWAP5 ADD SLOAD SWAP5 PUSH1 0x40 MLOAD SWAP8 PUSH1 0x1 DUP1 PUSH1 0xA0 SHL SUB SWAP8 DUP9 DUP2 AND DUP11 MSTORE PUSH1 0xA0 SHR AND PUSH1 0x20 DUP10 ADD MSTORE PUSH1 0x40 DUP9 ADD MSTORE PUSH1 0x60 DUP8 ADD MSTORE PUSH1 0x80 DUP7 ADD MSTORE PUSH1 0xA0 DUP6 ADD MSTORE PUSH1 0xC0 DUP5 ADD MSTORE PUSH1 0xFF DUP2 AND ISZERO ISZERO PUSH1 0xE0 DUP5 ADD MSTORE PUSH2 0x11CC PUSH2 0x100 DUP5 ADD PUSH1 0xFF DUP4 PUSH1 0x8 SHR AND PUSH2 0x196F JUMP JUMPDEST PUSH1 0x10 SHR AND PUSH2 0x120 DUP3 ADD MSTORE RETURN JUMPDEST CALLVALUE PUSH2 0x1A7 JUMPI PUSH1 0x40 CALLDATASIZE PUSH1 0x3 NOT ADD SLT PUSH2 0x1A7 JUMPI PUSH2 0x11F1 PUSH2 0x192D JUMP JUMPDEST PUSH1 0x24 CALLDATALOAD SWAP1 PUSH2 0x11FD PUSH2 0x19CD JUMP JUMPDEST PUSH1 0x1 PUSH1 0x1 PUSH1 0xA0 SHL SUB AND DUP1 PUSH2 0x1262 JUMPI POP PUSH1 0x0 DUP1 DUP1 DUP1 SWAP4 CALLER GAS CALL PUSH2 0x121D PUSH2 0x1CDE JUMP JUMPDEST POP ISZERO PUSH2 0x1225 JUMPI STOP JUMPDEST PUSH1 0x40 MLOAD PUSH3 0x461BCD PUSH1 0xE5 SHL DUP2 MSTORE PUSH1 0x20 PUSH1 0x4 DUP3 ADD MSTORE PUSH1 0x15 PUSH1 0x24 DUP3 ADD MSTORE PUSH21 0x115512081DDA5D1A191C985DD85B0819985A5B1959 PUSH1 0x5A SHL PUSH1 0x44 DUP3 ADD MSTORE PUSH1 0x64 SWAP1 REVERT JUMPDEST SWAP1 PUSH2 0x1B SWAP2 CALLER SWAP1 PUSH2 0x1D30 JUMP JUMPDEST CALLVALUE PUSH2 0x1A7 JUMPI PUSH1 0x0 CALLDATASIZE PUSH1 0x3 NOT ADD SLT PUSH2 0x1A7 JUMPI PUSH1 0x20 PUSH1 0x4 SLOAD PUSH1 0x40 MLOAD SWAP1 DUP2 MSTORE RETURN JUMPDEST CALLVALUE PUSH2 0x1A7 JUMPI PUSH1 0x40 CALLDATASIZE PUSH1 0x3 NOT ADD SLT PUSH2 0x1A7 JUMPI PUSH2 0x12A5 PUSH2 0x1917 JUMP JUMPDEST PUSH1 0x4 CALLDATALOAD PUSH1 0x0 MSTORE PUSH1 0x0 PUSH1 0x20 MSTORE PUSH1 0x40 PUSH1 0x0 KECCAK256 SWAP1 PUSH1 0x1 DUP1 PUSH1 0xA0 SHL SUB AND PUSH1 0x0 MSTORE PUSH1 0x20 MSTORE PUSH1 0x20 PUSH1 0xFF PUSH1 0x40 PUSH1 0x0 KECCAK256 SLOAD AND PUSH1 0x40 MLOAD SWAP1 ISZERO ISZERO DUP2 MSTORE RETURN JUMPDEST CALLVALUE PUSH2 0x1A7 JUMPI PUSH1 0x40 CALLDATASIZE PUSH1 0x3 NOT ADD SLT PUSH2 0x1A7 JUMPI PUSH2 0x12F2 PUSH2 0x192D JUMP JUMPDEST PUSH1 0x1 PUSH1 0x1 PUSH1 0xA0 SHL SUB AND PUSH1 0x0 SWAP1 DUP2 MSTORE PUSH1 0x6 PUSH1 0x20 MSTORE PUSH1 0x40 SWAP1 KECCAK256 DUP1 SLOAD PUSH1 0x24 CALLDATALOAD SWAP2 SWAP1 DUP3 LT ISZERO PUSH2 0x1A7 JUMPI PUSH1 0x20 SWAP2 PUSH2 0x1323 SWAP2 PUSH2 0x197C JUMP JUMPDEST SWAP1 SLOAD PUSH1 0x40 MLOAD SWAP2 PUSH1 0x3 SHL SHR DUP2 MSTORE RETURN JUMPDEST CALLVALUE PUSH2 0x1A7 JUMPI PUSH1 0x0 CALLDATASIZE PUSH1 0x3 NOT ADD SLT PUSH2 0x1A7 JUMPI PUSH2 0x134A PUSH2 0x19CD JUMP JUMPDEST PUSH2 0x1352 PUSH2 0x1C9F JUMP JUMPDEST PUSH1 0x1 PUSH1 0xFF NOT DUP2 SLOAD AND OR PUSH1 0x1 SSTORE PUSH32 0x62E78CEA01BEE320CD4E420270B5EA74000D11B0C9F74754EBDBFC544B05A258 PUSH1 0x20 PUSH1 0x40 MLOAD CALLER DUP2 MSTORE LOG1 STOP JUMPDEST CALLVALUE PUSH2 0x1A7 JUMPI PUSH1 0x0 CALLDATASIZE PUSH1 0x3 NOT ADD SLT PUSH2 0x1A7 JUMPI PUSH1 0x20 PUSH1 0x7 SLOAD PUSH1 0x40 MLOAD SWAP1 DUP2 MSTORE RETURN JUMPDEST PUSH1 0x0 CALLDATASIZE PUSH1 0x3 NOT ADD SLT PUSH2 0x1A7 JUMPI CALLVALUE ISZERO PUSH2 0x1458 JUMPI PUSH1 0x0 DUP1 DUP1 DUP1 CALLVALUE PUSH20 0x2222222222222222222222222222222222222222 GAS CALL PUSH2 0x13DF PUSH2 0x1CDE JUMP JUMPDEST POP ISZERO PUSH2 0x1413 JUMPI PUSH1 0x40 MLOAD CALLVALUE DUP2 MSTORE PUSH32 0x4787A2F08AE1FD4BB59133094CD37280A15FFEA9206311DD9B2C561028F2BC7B PUSH1 0x20 CALLER SWAP3 LOG2 STOP JUMPDEST PUSH1 0x40 MLOAD PUSH3 0x461BCD PUSH1 0xE5 SHL DUP2 MSTORE PUSH1 0x20 PUSH1 0x4 DUP3 ADD MSTORE PUSH1 0x1B PUSH1 0x24 DUP3 ADD MSTORE PUSH32 0x485950452073797374656D207472616E73666572206661696C65640000000000 PUSH1 0x44 DUP3 ADD MSTORE PUSH1 0x64 SWAP1 REVERT JUMPDEST PUSH1 0x40 MLOAD PUSH3 0x461BCD PUSH1 0xE5 SHL DUP2 MSTORE PUSH1 0x20 PUSH1 0x4 DUP3 ADD MSTORE PUSH1 0xE PUSH1 0x24 DUP3 ADD MSTORE PUSH14 0x4D7573742073656E642048595045 PUSH1 0x90 SHL PUSH1 0x44 DUP3 ADD MSTORE PUSH1 0x64 SWAP1 REVERT JUMPDEST CALLVALUE PUSH2 0x1A7 JUMPI PUSH1 0x0 CALLDATASIZE PUSH1 0x3 NOT ADD SLT PUSH2 0x1A7 JUMPI PUSH1 0x20 PUSH1 0xFF PUSH1 0x1 SLOAD AND PUSH1 0x40 MLOAD SWAP1 ISZERO ISZERO DUP2 MSTORE RETURN JUMPDEST CALLVALUE PUSH2 0x1A7 JUMPI PUSH1 0x0 CALLDATASIZE PUSH1 0x3 NOT ADD SLT PUSH2 0x1A7 JUMPI PUSH1 0x20 PUSH1 0x3 SLOAD PUSH1 0x40 MLOAD SWAP1 DUP2 MSTORE RETURN JUMPDEST CALLVALUE PUSH2 0x1A7 JUMPI PUSH1 0x20 CALLDATASIZE PUSH1 0x3 NOT ADD SLT PUSH2 0x1A7 JUMPI PUSH1 0x0 PUSH2 0x120 PUSH1 0x40 MLOAD PUSH2 0x14F1 DUP2 PUSH2 0x1B9A JUMP JUMPDEST DUP3 DUP2 MSTORE DUP3 PUSH1 0x20 DUP3 ADD MSTORE DUP3 PUSH1 0x40 DUP3 ADD MSTORE DUP3 PUSH1 0x60 DUP3 ADD MSTORE DUP3 PUSH1 0x80 DUP3 ADD MSTORE DUP3 PUSH1 0xA0 DUP3 ADD MSTORE DUP3 PUSH1 0xC0 DUP3 ADD MSTORE DUP3 PUSH1 0xE0 DUP3 ADD MSTORE DUP3 PUSH2 0x100 DUP3 ADD MSTORE ADD MSTORE PUSH1 0x4 CALLDATALOAD PUSH1 0x0 MSTORE PUSH1 0x5 PUSH1 0x20 MSTORE PUSH1 0x40 PUSH1 0x0 KECCAK256 PUSH1 0x40 MLOAD PUSH2 0x1543 DUP2 PUSH2 0x1B9A JUMP JUMPDEST DUP2 SLOAD SWAP1 PUSH1 0x1 DUP1 PUSH1 0xA0 SHL SUB DUP3 AND DUP2 MSTORE PUSH1 0x1 PUSH1 0x1 PUSH1 0x40 SHL SUB PUSH1 0x20 DUP3 ADD SWAP3 PUSH1 0xA0 SHR AND DUP3 MSTORE PUSH1 0x1 PUSH1 0x1 PUSH1 0x40 SHL SUB PUSH1 0x1 DUP5 ADD SLOAD AND PUSH1 0x40 DUP3 ADD SWAP1 DUP2 MSTORE PUSH1 0x2 DUP5 ADD SLOAD PUSH1 0x60 DUP4 ADD SWAP1 DUP2 MSTORE PUSH1 0x3 DUP6 ADD SLOAD PUSH1 0x80 DUP5 ADD SWAP1 DUP2 MSTORE PUSH1 0x4 DUP7 ADD SLOAD SWAP6 PUSH1 0xA0 DUP6 ADD SWAP7 DUP8 MSTORE PUSH1 0x6 PUSH1 0x5 DUP3 ADD SLOAD SWAP2 PUSH1 0xC0 DUP8 ADD SWAP3 DUP4 MSTORE ADD SLOAD SWAP7 PUSH1 0xE0 DUP7 ADD SWAP3 PUSH1 0xFF DUP10 AND ISZERO ISZERO DUP5 MSTORE PUSH1 0xFF DUP10 PUSH1 0x8 SHR AND SWAP5 PUSH1 0x4 DUP7 LT ISZERO PUSH2 0x94E JUMPI PUSH1 0x1 PUSH1 0x1 PUSH1 0x40 SHL SUB PUSH2 0x1643 SWAP8 PUSH2 0x140 SWAP12 PUSH2 0x100 DUP12 ADD SWAP9 DUP10 MSTORE PUSH1 0x1 DUP1 PUSH1 0xA0 SHL SUB SWAP1 PUSH1 0x10 SHR AND PUSH2 0x120 DUP12 ADD MSTORE DUP2 PUSH1 0x40 MLOAD SWAP12 PUSH1 0x1 DUP1 PUSH1 0xA0 SHL SUB DUP13 MLOAD AND DUP14 MSTORE MLOAD AND PUSH1 0x20 DUP13 ADD MSTORE MLOAD AND PUSH1 0x40 DUP11 ADD MSTORE MLOAD PUSH1 0x60 DUP10 ADD MSTORE MLOAD PUSH1 0x80 DUP9 ADD MSTORE MLOAD PUSH1 0xA0 DUP8 ADD MSTORE MLOAD PUSH1 0xC0 DUP7 ADD MSTORE MLOAD ISZERO ISZERO PUSH1 0xE0 DUP6 ADD MSTORE MLOAD PUSH2 0x100 DUP5 ADD SWAP1 PUSH2 0x196F JUMP JUMPDEST PUSH2 0x120 SWAP1 DUP2 ADD MLOAD PUSH1 0x1 PUSH1 0x1 PUSH1 0xA0 SHL SUB AND SWAP1 DUP3 ADD MSTORE RETURN JUMPDEST CALLVALUE PUSH2 0x1A7 JUMPI PUSH1 0x0 CALLDATASIZE PUSH1 0x3 NOT ADD SLT PUSH2 0x1A7 JUMPI PUSH2 0x1672 PUSH2 0x19CD JUMP JUMPDEST SELFBALANCE DUP1 ISZERO PUSH2 0x16CF JUMPI PUSH1 0x0 DUP1 DUP1 DUP1 SWAP4 CALLER GAS CALL PUSH2 0x168A PUSH2 0x1CDE JUMP JUMPDEST POP ISZERO PUSH2 0x1692 JUMPI STOP JUMPDEST PUSH1 0x40 MLOAD PUSH3 0x461BCD PUSH1 0xE5 SHL DUP2 MSTORE PUSH1 0x20 PUSH1 0x4 DUP3 ADD MSTORE PUSH1 0x15 PUSH1 0x24 DUP3 ADD MSTORE PUSH21 0x119959481DDA5D1A191C985DD85B0819985A5B1959 PUSH1 0x5A SHL PUSH1 0x44 DUP3 ADD MSTORE PUSH1 0x64 SWAP1 REVERT JUMPDEST PUSH1 0x40 MLOAD PUSH3 0x461BCD PUSH1 0xE5 SHL DUP2 MSTORE PUSH1 0x20 PUSH1 0x4 DUP3 ADD MSTORE PUSH1 0x13 PUSH1 0x24 DUP3 ADD MSTORE PUSH19 0x4E6F206665657320746F207769746864726177 PUSH1 0x68 SHL PUSH1 0x44 DUP3 ADD MSTORE PUSH1 0x64 SWAP1 REVERT JUMPDEST CALLVALUE PUSH2 0x1A7 JUMPI PUSH1 0x0 CALLDATASIZE PUSH1 0x3 NOT ADD SLT PUSH2 0x1A7 JUMPI PUSH2 0x1723 PUSH2 0x19CD JUMP JUMPDEST PUSH1 0x1 SLOAD PUSH1 0xFF DUP2 AND ISZERO PUSH2 0x1762 JUMPI PUSH1 0xFF NOT AND PUSH1 0x1 SSTORE PUSH32 0x5DB9EE0A495BF2E6FF9C91A7834C1BA4FDD244A5E8AA4E537BD38AEAE4B073AA PUSH1 0x20 PUSH1 0x40 MLOAD CALLER DUP2 MSTORE LOG1 STOP JUMPDEST PUSH1 0x40 MLOAD PUSH4 0x8DFC202B PUSH1 0xE0 SHL DUP2 MSTORE PUSH1 0x4 SWAP1 REVERT JUMPDEST CALLVALUE PUSH2 0x1A7 JUMPI PUSH1 0x40 CALLDATASIZE PUSH1 0x3 NOT ADD SLT PUSH2 0x1A7 JUMPI PUSH1 0x20 PUSH2 0x17A0 PUSH2 0x1792 PUSH2 0x192D JUMP JUMPDEST PUSH2 0x179A PUSH2 0x1943 JUMP JUMPDEST SWAP1 PUSH2 0x1E23 JUMP JUMPDEST PUSH1 0x40 MLOAD SWAP1 DUP2 MSTORE RETURN JUMPDEST CALLVALUE PUSH2 0x1A7 JUMPI PUSH1 0x40 CALLDATASIZE PUSH1 0x3 NOT ADD SLT PUSH2 0x1A7 JUMPI PUSH2 0x17C1 PUSH2 0x1917 JUMP JUMPDEST CALLER PUSH1 0x1 PUSH1 0x1 PUSH1 0xA0 SHL SUB DUP3 AND SUB PUSH2 0x17DD JUMPI PUSH2 0x1B SWAP1 PUSH1 0x4 CALLDATALOAD PUSH2 0x1B25 JUMP JUMPDEST PUSH1 0x40 MLOAD PUSH4 0x334BD919 PUSH1 0xE1 SHL DUP2 MSTORE PUSH1 0x4 SWAP1 REVERT JUMPDEST CALLVALUE PUSH2 0x1A7 JUMPI PUSH1 0x40 CALLDATASIZE PUSH1 0x3 NOT ADD SLT PUSH2 0x1A7 JUMPI PUSH2 0x1B PUSH1 0x4 CALLDATALOAD PUSH2 0x180E PUSH2 0x1917 JUMP JUMPDEST SWAP1 DUP1 PUSH1 0x0 MSTORE PUSH1 0x0 PUSH1 0x20 MSTORE PUSH2 0x1829 PUSH1 0x1 PUSH1 0x40 PUSH1 0x0 KECCAK256 ADD SLOAD PUSH2 0x1A81 JUMP JUMPDEST PUSH2 0x1AA7 JUMP JUMPDEST CALLVALUE PUSH2 0x1A7 JUMPI PUSH1 0x20 CALLDATASIZE PUSH1 0x3 NOT ADD SLT PUSH2 0x1A7 JUMPI PUSH1 0x4 CALLDATALOAD PUSH4 0xFFFFFFFF DUP2 AND DUP2 SUB PUSH2 0x1A7 JUMPI PUSH2 0x17A0 PUSH1 0x20 SWAP2 PUSH2 0x1DC3 JUMP JUMPDEST CALLVALUE PUSH2 0x1A7 JUMPI PUSH1 0x20 CALLDATASIZE PUSH1 0x3 NOT ADD SLT PUSH2 0x1A7 JUMPI PUSH1 0x4 CALLDATALOAD PUSH1 0x0 MSTORE PUSH1 0x0 PUSH1 0x20 MSTORE PUSH1 0x20 PUSH1 0x1 PUSH1 0x40 PUSH1 0x0 KECCAK256 ADD SLOAD PUSH1 0x40 MLOAD SWAP1 DUP2 MSTORE RETURN JUMPDEST CALLVALUE PUSH2 0x1A7 JUMPI PUSH1 0x0 CALLDATASIZE PUSH1 0x3 NOT ADD SLT PUSH2 0x1A7 JUMPI PUSH1 0x20 PUSH1 0x40 MLOAD PUSH32 0xD8AA0F3194971A2A116679F7C2090F6939C8D4E01A2A8D7E41D55E5351469E63 DUP2 MSTORE RETURN JUMPDEST CALLVALUE PUSH2 0x1A7 JUMPI PUSH1 0x20 CALLDATASIZE PUSH1 0x3 NOT ADD SLT PUSH2 0x1A7 JUMPI PUSH1 0x4 CALLDATALOAD SWAP1 PUSH4 0xFFFFFFFF PUSH1 0xE0 SHL DUP3 AND DUP1 SWAP3 SUB PUSH2 0x1A7 JUMPI PUSH1 0x20 SWAP2 PUSH4 0x7965DB0B PUSH1 0xE0 SHL DUP2 EQ SWAP1 DUP2 ISZERO PUSH2 0x1906 JUMPI JUMPDEST POP ISZERO ISZERO DUP2 MSTORE RETURN JUMPDEST PUSH4 0x1FFC9A7 PUSH1 0xE0 SHL EQ SWAP1 POP DUP4 PUSH2 0x18FF JUMP JUMPDEST PUSH1 0x24 CALLDATALOAD SWAP1 PUSH1 0x1 PUSH1 0x1 PUSH1 0xA0 SHL SUB DUP3 AND DUP3 SUB PUSH2 0x1A7 JUMPI JUMP JUMPDEST PUSH1 0x4 CALLDATALOAD SWAP1 PUSH1 0x1 PUSH1 0x1 PUSH1 0xA0 SHL SUB DUP3 AND DUP3 SUB PUSH2 0x1A7 JUMPI JUMP JUMPDEST PUSH1 0x24 CALLDATALOAD SWAP1 PUSH1 0x1 PUSH1 0x1 PUSH1 0x40 SHL SUB DUP3 AND DUP3 SUB PUSH2 0x1A7 JUMPI JUMP JUMPDEST PUSH1 0x4 CALLDATALOAD SWAP1 PUSH1 0x1 PUSH1 0x1 PUSH1 0x40 SHL SUB DUP3 AND DUP3 SUB PUSH2 0x1A7 JUMPI JUMP JUMPDEST SWAP1 PUSH1 0x4 DUP3 LT ISZERO PUSH2 0x94E JUMPI MSTORE JUMP JUMPDEST DUP1 SLOAD DUP3 LT ISZERO PUSH2 0x1994 JUMPI PUSH1 0x0 MSTORE PUSH1 0x20 PUSH1 0x0 KECCAK256 ADD SWAP1 PUSH1 0x0 SWAP1 JUMP JUMPDEST PUSH4 0x4E487B71 PUSH1 0xE0 SHL PUSH1 0x0 MSTORE PUSH1 0x32 PUSH1 0x4 MSTORE PUSH1 0x24 PUSH1 0x0 REVERT JUMPDEST PUSH1 0x0 JUMPDEST DUP4 DUP2 LT PUSH2 0x19BD JUMPI POP POP PUSH1 0x0 SWAP2 ADD MSTORE JUMP JUMPDEST DUP2 DUP2 ADD MLOAD DUP4 DUP3 ADD MSTORE PUSH1 0x20 ADD PUSH2 0x19AD JUMP JUMPDEST CALLER PUSH1 0x0 SWAP1 DUP2 MSTORE PUSH32 0xAD3228B676F7D3CD4284A5443F17F1962B36E491B30A40B2405849E597BA5FB5 PUSH1 0x20 MSTORE PUSH1 0x40 DUP2 KECCAK256 SLOAD PUSH1 0xFF AND ISZERO PUSH2 0x1A07 JUMPI POP JUMP JUMPDEST PUSH1 0x44 SWAP1 PUSH1 0x40 MLOAD SWAP1 PUSH4 0xE2517D3F PUSH1 0xE0 SHL DUP3 MSTORE CALLER PUSH1 0x4 DUP4 ADD MSTORE PUSH1 0x24 DUP3 ADD MSTORE REVERT JUMPDEST CALLER PUSH1 0x0 SWAP1 DUP2 MSTORE PUSH32 0xDAE2AA361DFD1CA020A396615627D436107C35EFF9FE7738A3512819782D7069 PUSH1 0x20 MSTORE PUSH1 0x40 SWAP1 KECCAK256 SLOAD PUSH32 0xD8AA0F3194971A2A116679F7C2090F6939C8D4E01A2A8D7E41D55E5351469E63 SWAP1 PUSH1 0xFF AND ISZERO PUSH2 0x1A07 JUMPI POP JUMP JUMPDEST DUP1 PUSH1 0x0 MSTORE PUSH1 0x0 PUSH1 0x20 MSTORE PUSH1 0x40 PUSH1 0x0 KECCAK256 CALLER PUSH1 0x0 MSTORE PUSH1 0x20 MSTORE PUSH1 0xFF PUSH1 0x40 PUSH1 0x0 KECCAK256 SLOAD AND ISZERO PUSH2 0x1A07 JUMPI POP JUMP JUMPDEST SWAP1 PUSH1 0x0 SWAP2 DUP1 DUP4 MSTORE DUP3 PUSH1 0x20 MSTORE PUSH1 0x40 DUP4 KECCAK256 SWAP2 PUSH1 0x1 DUP1 PUSH1 0xA0 SHL SUB AND SWAP2 DUP3 DUP5 MSTORE PUSH1 0x20 MSTORE PUSH1 0xFF PUSH1 0x40 DUP5 KECCAK256 SLOAD AND ISZERO PUSH1 0x0 EQ PUSH2 0x1B20 JUMPI DUP1 DUP4 MSTORE DUP3 PUSH1 0x20 MSTORE PUSH1 0x40 DUP4 KECCAK256 DUP3 DUP5 MSTORE PUSH1 0x20 MSTORE PUSH1 0x40 DUP4 KECCAK256 PUSH1 0x1 PUSH1 0xFF NOT DUP3 SLOAD AND OR SWAP1 SSTORE PUSH32 0x2F8788117E7EFF1D82E926EC794901D17C78024A50270940304540A733656F0D CALLER SWAP4 DUP1 LOG4 PUSH1 0x1 SWAP1 JUMP JUMPDEST POP POP SWAP1 JUMP JUMPDEST SWAP1 PUSH1 0x0 SWAP2 DUP1 DUP4 MSTORE DUP3 PUSH1 0x20 MSTORE PUSH1 0x40 DUP4 KECCAK256 SWAP2 PUSH1 0x1 DUP1 PUSH1 0xA0 SHL SUB AND SWAP2 DUP3 DUP5 MSTORE PUSH1 0x20 MSTORE PUSH1 0xFF PUSH1 0x40 DUP5 KECCAK256 SLOAD AND PUSH1 0x0 EQ PUSH2 0x1B20 JUMPI DUP1 DUP4 MSTORE DUP3 PUSH1 0x20 MSTORE PUSH1 0x40 DUP4 KECCAK256 DUP3 DUP5 MSTORE PUSH1 0x20 MSTORE PUSH1 0x40 DUP4 KECCAK256 PUSH1 0xFF NOT DUP2 SLOAD AND SWAP1 SSTORE PUSH32 0xF6391F5C32D9C69D2A47EA670B442974B53935D1EDC7FD64EB21E047A839171B CALLER SWAP4 DUP1 LOG4 PUSH1 0x1 SWAP1 JUMP JUMPDEST PUSH2 0x140 DUP2 ADD SWAP1 DUP2 LT PUSH1 0x1 PUSH1 0x1 PUSH1 0x40 SHL SUB DUP3 GT OR PUSH2 0x6A0 JUMPI PUSH1 0x40 MSTORE JUMP JUMPDEST PUSH1 0x40 DUP2 ADD SWAP1 DUP2 LT PUSH1 0x1 PUSH1 0x1 PUSH1 0x40 SHL SUB DUP3 GT OR PUSH2 0x6A0 JUMPI PUSH1 0x40 MSTORE JUMP JUMPDEST SWAP1 PUSH1 0x1F DUP1 NOT SWAP2 ADD AND DUP2 ADD SWAP1 DUP2 LT PUSH1 0x1 PUSH1 0x1 PUSH1 0x40 SHL SUB DUP3 GT OR PUSH2 0x6A0 JUMPI PUSH1 0x40 MSTORE JUMP JUMPDEST ISZERO PUSH2 0x1BF9 JUMPI JUMP JUMPDEST PUSH1 0x40 MLOAD PUSH3 0x461BCD PUSH1 0xE5 SHL DUP2 MSTORE PUSH1 0x20 PUSH1 0x4 DUP3 ADD MSTORE PUSH1 0x15 PUSH1 0x24 DUP3 ADD MSTORE PUSH21 0x496E76616C696420746F6B656E2061646472657373 PUSH1 0x58 SHL PUSH1 0x44 DUP3 ADD MSTORE PUSH1 0x64 SWAP1 REVERT JUMPDEST SWAP2 SWAP1 DUP3 ADD DUP1 SWAP3 GT PUSH2 0x763 JUMPI JUMP JUMPDEST SWAP1 PUSH1 0x0 PUSH1 0x20 SWAP2 DUP3 DUP2 MLOAD SWAP2 ADD DUP3 DUP6 GAS CALL ISZERO PUSH2 0x813 JUMPI PUSH1 0x0 MLOAD RETURNDATASIZE PUSH2 0x1C96 JUMPI POP PUSH1 0x1 PUSH1 0x1 PUSH1 0xA0 SHL SUB DUP2 AND EXTCODESIZE ISZERO JUMPDEST PUSH2 0x1C74 JUMPI POP JUMP JUMPDEST PUSH1 0x40 MLOAD PUSH4 0x5274AFE7 PUSH1 0xE0 SHL DUP2 MSTORE PUSH1 0x1 PUSH1 0x1 PUSH1 0xA0 SHL SUB SWAP1 SWAP2 AND PUSH1 0x4 DUP3 ADD MSTORE PUSH1 0x24 SWAP1 REVERT JUMPDEST PUSH1 0x1 EQ ISZERO PUSH2 0x1C6D JUMP JUMPDEST PUSH1 0xFF PUSH1 0x1 SLOAD AND PUSH2 0x1CAB JUMPI JUMP JUMPDEST PUSH1 0x40 MLOAD PUSH4 0xD93C0665 PUSH1 0xE0 SHL DUP2 MSTORE PUSH1 0x4 SWAP1 REVERT JUMPDEST PUSH1 0x2 DUP1 SLOAD EQ PUSH2 0x1CCC JUMPI PUSH1 0x2 DUP1 SSTORE JUMP JUMPDEST PUSH1 0x40 MLOAD PUSH4 0x3EE5AEB5 PUSH1 0xE0 SHL DUP2 MSTORE PUSH1 0x4 SWAP1 REVERT JUMPDEST RETURNDATASIZE ISZERO PUSH2 0x1D18 JUMPI RETURNDATASIZE SWAP1 PUSH1 0x1 PUSH1 0x1 PUSH1 0x40 SHL SUB DUP3 GT PUSH2 0x6A0 JUMPI PUSH1 0x40 MLOAD SWAP2 PUSH2 0x1D0C PUSH1 0x1F DUP3 ADD PUSH1 0x1F NOT AND PUSH1 0x20 ADD DUP5 PUSH2 0x1BD1 JUMP JUMPDEST DUP3 MSTORE RETURNDATASIZE PUSH1 0x0 PUSH1 0x20 DUP5 ADD RETURNDATACOPY JUMP JUMPDEST PUSH1 0x60 SWAP1 JUMP JUMPDEST DUP2 DUP2 MUL SWAP3 SWAP2 DUP2 ISZERO SWAP2 DUP5 DIV EQ OR ISZERO PUSH2 0x763 JUMPI JUMP JUMPDEST PUSH1 0x40 MLOAD PUSH4 0xA9059CBB PUSH1 0xE0 SHL PUSH1 0x20 DUP3 ADD MSTORE PUSH1 0x1 PUSH1 0x1 PUSH1 0xA0 SHL SUB SWAP1 SWAP3 AND PUSH1 0x24 DUP4 ADD MSTORE PUSH1 0x44 DUP1 DUP4 ADD SWAP4 SWAP1 SWAP4 MSTORE SWAP2 DUP2 MSTORE PUSH1 0x80 DUP2 ADD SWAP2 PUSH1 0x1 PUSH1 0x1 PUSH1 0x40 SHL SUB DUP4 GT DUP3 DUP5 LT OR PUSH2 0x6A0 JUMPI PUSH2 0x1D7F SWAP3 PUSH1 0x40 MSTORE PUSH2 0x1C43 JUMP JUMPDEST JUMP JUMPDEST PUSH1 0x1 PUSH1 0x1 PUSH1 0x40 SHL SUB AND DUP1 ISZERO PUSH2 0x1DAA JUMPI PUSH1 0x1 PUSH1 0x1 PUSH1 0xA0 SHL SUB SWAP1 PUSH1 0x1 PUSH1 0x9D SHL ADD DUP2 DUP2 GT PUSH2 0x763 JUMPI AND SWAP1 JUMP JUMPDEST POP PUSH20 0x2222222222222222222222222222222222222222 SWAP1 JUMP JUMPDEST PUSH1 0x0 DUP1 SWAP2 PUSH1 0x40 MLOAD PUSH4 0xFFFFFFFF PUSH1 0x20 DUP3 ADD SWAP3 AND DUP3 MSTORE PUSH1 0x20 DUP2 MSTORE PUSH2 0x1DE4 DUP2 PUSH2 0x1BB6 JUMP JUMPDEST MLOAD SWAP1 PUSH2 0x807 GAS STATICCALL PUSH2 0x1DF3 PUSH2 0x1CDE JUMP JUMPDEST SWAP1 ISZERO DUP1 ISZERO PUSH2 0x1E1A JUMPI JUMPDEST PUSH2 0x1E14 JUMPI PUSH1 0x20 DUP2 DUP1 MLOAD DUP2 ADD SUB SLT PUSH2 0x1A7 JUMPI PUSH1 0x20 ADD MLOAD SWAP1 JUMP JUMPDEST POP PUSH1 0x0 SWAP1 JUMP JUMPDEST POP DUP1 MLOAD ISZERO PUSH2 0x1DFC JUMP JUMPDEST PUSH1 0x40 DUP1 MLOAD PUSH1 0x1 PUSH1 0x1 PUSH1 0xA0 SHL SUB SWAP1 SWAP3 AND PUSH1 0x20 DUP4 ADD SWAP1 DUP2 MSTORE PUSH1 0x1 PUSH1 0x1 PUSH1 0x40 SHL SUB SWAP4 DUP5 AND DUP4 DUP4 ADD MSTORE SWAP1 DUP3 MSTORE SWAP1 SWAP2 PUSH1 0x60 DUP4 ADD SWAP2 SWAP1 DUP3 GT DUP4 DUP4 LT OR PUSH2 0x6A0 JUMPI PUSH1 0x0 SWAP3 DUP4 SWAP3 PUSH1 0x40 MSTORE MLOAD SWAP1 PUSH2 0x801 GAS STATICCALL PUSH2 0x1DF3 PUSH2 0x1CDE JUMP JUMPDEST ISZERO PUSH2 0x1E7B JUMPI JUMP JUMPDEST PUSH1 0x40 MLOAD PUSH3 0x461BCD PUSH1 0xE5 SHL DUP2 MSTORE PUSH1 0x20 PUSH1 0x4 DUP3 ADD MSTORE PUSH1 0x10 PUSH1 0x24 DUP3 ADD MSTORE PUSH16 0x53776170206E6F742070656E64696E67 PUSH1 0x80 SHL PUSH1 0x44 DUP3 ADD MSTORE PUSH1 0x64 SWAP1 REVERT JUMPDEST SWAP1 PUSH1 0x0 SWAP2 DUP3 MSTORE PUSH1 0x20 PUSH1 0x5 DUP2 MSTORE PUSH1 0x40 SWAP3 DUP4 DUP2 KECCAK256 PUSH1 0xFF PUSH1 0x6 DUP3 ADD SLOAD PUSH1 0x8 SHR AND PUSH1 0x4 DUP2 LT ISZERO PUSH2 0x1FDD JUMPI PUSH1 0x1 DUP2 EQ PUSH2 0x1FB2 JUMPI PUSH1 0x2 DUP2 EQ PUSH2 0x1F85 JUMPI PUSH1 0x3 EQ PUSH2 0x1F5C JUMPI PUSH1 0x5 ADD SLOAD PUSH1 0x4 SLOAD PUSH2 0x1F00 SWAP2 PUSH2 0x1C36 JUMP JUMPDEST TIMESTAMP GT PUSH2 0x1F33 JUMPI PUSH18 0x53776170207374696C6C2070656E64696E67 PUSH1 0x70 SHL SWAP1 SWAP4 MLOAD SWAP2 PUSH2 0x1F29 DUP4 PUSH2 0x1BB6 JUMP JUMPDEST PUSH1 0x12 DUP4 MSTORE DUP3 ADD MSTORE SWAP1 JUMP JUMPDEST POP PUSH12 0x14DDD85C08195E1C1A5C9959 PUSH1 0xA2 SHL PUSH1 0x1 SWAP4 MLOAD SWAP2 PUSH2 0x1F52 DUP4 PUSH2 0x1BB6 JUMP JUMPDEST PUSH1 0xC DUP4 MSTORE DUP3 ADD MSTORE SWAP1 JUMP JUMPDEST POP POP PUSH11 0x14DDD85C0819985A5B1959 PUSH1 0xAA SHL PUSH1 0x1 SWAP4 MLOAD SWAP2 PUSH2 0x1F7B DUP4 PUSH2 0x1BB6 JUMP JUMPDEST PUSH1 0xB DUP4 MSTORE DUP3 ADD MSTORE SWAP1 JUMP JUMPDEST POP POP PUSH16 0x105B1C9958591E481C99599D5B991959 PUSH1 0x82 SHL SWAP1 SWAP4 MLOAD SWAP2 PUSH2 0x1FA8 DUP4 PUSH2 0x1BB6 JUMP JUMPDEST PUSH1 0x10 DUP4 MSTORE DUP3 ADD MSTORE SWAP1 JUMP JUMPDEST POP POP PUSH14 0x14DDD85C0818DBDB5C1B195D1959 PUSH1 0x92 SHL SWAP1 SWAP4 MLOAD SWAP2 PUSH2 0x1FD3 DUP4 PUSH2 0x1BB6 JUMP JUMPDEST PUSH1 0xE DUP4 MSTORE DUP3 ADD MSTORE SWAP1 JUMP JUMPDEST PUSH4 0x4E487B71 PUSH1 0xE0 SHL DUP4 MSTORE PUSH1 0x21 PUSH1 0x4 MSTORE PUSH1 0x24 DUP4 REVERT INVALID LOG2 PUSH5 0x6970667358 0x22 SLT KECCAK256 SELFDESTRUCT 0xAE 0xE 0xCC STATICCALL 0x22 SWAP6 0x4D 0x4D 0xBD 0xCC PUSH4 0x55E08F34 DUP16 JUMPI 0xFC 0xA8 DUP7 0xBD 0xED 0xAE 0xFB 0xAA 0xDC PUSH25 0xC1DD67AD64736F6C634300081400332F8788117E7EFF1D82E9 0x26 0xEC PUSH26 0x4901D17C78024A50270940304540A733656F0D00000000000000 "},"methodIdentifiers":{"DEFAULT_ADMIN_ROLE()":"a217fddf","EXECUTOR_ROLE()":"07bd0265","MAX_SLIPPAGE()":"f9759518","completeSwap(uint256,uint256)":"d5d9b2d4","emergencyWithdraw(address,uint256)":"95ccea67","executeSwap(uint64,uint64,uint256,uint256,uint256,address)":"e3895bee","getOraclePrice(uint32)":"2af78bd1","getRoleAdmin(bytes32)":"248a9ca3","getSpotBalance(address,uint64)":"3812fa43","getSwap(uint256)":"4a0d89ba","getTokenSystemAddress(uint64)":"eea69c65","getUserSwaps(address)":"b4770335","grantRole(bytes32,address)":"2f2ff15d","hasRole(bytes32,address)":"91d14854","isRefundable(uint256)":"cce6ef44","markSwapFailed(uint256,string)":"d0a91289","nextSwapId()":"68eb5155","pause()":"8456cb59","paused()":"5c975abb","renounceRole(bytes32,address)":"36568abe","requestRefund(uint256)":"a4b2409e","revokeRole(bytes32,address)":"d547741f","sendHypeToSystem()":"5d68fcb3","supportsInterface(bytes4)":"01ffc9a7","swapFee()":"54cf2aeb","swapRequests(uint256)":"9c61d7a4","swapTimeout()":"94de34f1","unpause()":"3f4ba83a","updateSwapFee(uint256)":"bf16f65a","updateSwapTimeout(uint256)":"bc55cc8a","userSwaps(address,uint256)":"87d2d3e6","withdrawFees()":"476343ee"}},"storageLayout":{"storage":[{"astId":27,"contract":"contracts/SwapContract.sol:SwapContract","label":"_roles","offset":0,"slot":"0","type":"t_mapping(t_bytes32,t_struct(RoleData)22_storage)"},{"astId":1050,"contract":"contracts/SwapContract.sol:SwapContract","label":"_paused","offset":0,"slot":"1","type":"t_bool"},{"astId":1160,"contract":"contracts/SwapContract.sol:SwapContract","label":"_status","offset":0,"slot":"2","type":"t_uint256"},{"astId":1292,"contract":"contracts/SwapContract.sol:SwapContract","label":"swapFee","offset":0,"slot":"3","type":"t_uint256"},{"astId":1298,"contract":"contracts/SwapContract.sol:SwapContract","label":"swapTimeout","offset":0,"slot":"4","type":"t_uint256"},{"astId":1330,"contract":"contracts/SwapContract.sol:SwapContract","label":"swapRequests","offset":0,"slot":"5","type":"t_mapping(t_uint256,t_struct(SwapRequest)1325_storage)"},{"astId":1335,"contract":"contracts/SwapContract.sol:SwapContract","label":"userSwaps","offset":0,"slot":"6","type":"t_mapping(t_address,t_array(t_uint256)dyn_storage)"},{"astId":1338,"contract":"contracts/SwapContract.sol:SwapContract","label":"nextSwapId","offset":0,"slot":"7","type":"t_uint256"}],"types":{"t_address":{"encoding":"inplace","label":"address","numberOfBytes":"20"},"t_array(t_uint256)dyn_storage":{"base":"t_uint256","encoding":"dynamic_array","label":"uint256[]","numberOfBytes":"32"},"t_bool":{"encoding":"inplace","label":"bool","numberOfBytes":"1"},"t_bytes32":{"encoding":"inplace","label":"bytes32","numberOfBytes":"32"},"t_enum(SwapStatus)1303":{"encoding":"inplace","label":"enum SwapContract.SwapStatus","numberOfBytes":"1"},"t_mapping(t_address,t_array(t_uint256)dyn_storage)":{"encoding":"mapping","key":"t_address","label":"mapping(address => uint256[])","numberOfBytes":"32","value":"t_array(t_uint256)dyn_storage"},"t_mapping(t_address,t_bool)":{"encoding":"mapping","key":"t_address","label":"mapping(address => bool)","numberOfBytes":"32","value":"t_bool"},"t_mapping(t_bytes32,t_struct(RoleData)22_storage)":{"encoding":"mapping","key":"t_bytes32","label":"mapping(bytes32 => struct AccessControl.RoleData)","numberOfBytes":"32","value":"t_struct(RoleData)22_storage"},"t_mapping(t_uint256,t_struct(SwapRequest)1325_storage)":{"encoding":"mapping","key":"t_uint256","label":"mapping(uint256 => struct SwapContract.SwapRequest)","numberOfBytes":"32","value":"t_struct(SwapRequest)1325_storage"},"t_struct(RoleData)22_storage":{"encoding":"inplace","label":"struct AccessControl.RoleData","members":[{"astId":19,"contract":"contracts/SwapContract.sol:SwapContract","label":"hasRole","offset":0,"slot":"0","type":"t_mapping(t_address,t_bool)"},{"astId":21,"contract":"contracts/SwapContract.sol:SwapContract","label":"adminRole","offset":0,"slot":"1","type":"t_bytes32"}],"numberOfBytes":"64"},"t_struct(SwapRequest)1325_storage":{"encoding":"inplace","label":"struct SwapContract.SwapRequest","members":[{"astId":1305,"contract":"contracts/SwapContract.sol:SwapContract","label":"user","offset":0,"slot":"0","type":"t_address"},{"astId":1307,"contract":"contracts/SwapContract.sol:SwapContract","label":"fromToken","offset":20,"slot":"0","type":"t_uint64"},{"astId":1309,"contract":"contracts/SwapContract.sol:SwapContract","label":"toToken","offset":0,"slot":"1","type":"t_uint64"},{"astId":1311,"contract":"contracts/SwapContract.sol:SwapContract","label":"fromAmount","offset":0,"slot":"2","type":"t_uint256"},{"astId":1313,"contract":"contracts/SwapContract.sol:SwapContract","label":"minOutputAmount","offset":0,"slot":"3","type":"t_uint256"},{"astId":1315,"contract":"contracts/SwapContract.sol:SwapContract","label":"slippageBps","offset":0,"slot":"4","type":"t_uint256"},{"astId":1317,"contract":"contracts/SwapContract.sol:SwapContract","label":"timestamp","offset":0,"slot":"5","type":"t_uint256"},{"astId":1319,"contract":"contracts/SwapContract.sol:SwapContract","label":"completed","offset":0,"slot":"6","type":"t_bool"},{"astId":1322,"contract":"contracts/SwapContract.sol:SwapContract","label":"status","offset":1,"slot":"6","type":"t_enum(SwapStatus)1303"},{"astId":1324,"contract":"contracts/SwapContract.sol:SwapContract","label":"fromTokenAddress","offset":2,"slot":"6","type":"t_address"}],"numberOfBytes":"224"},"t_uint256":{"encoding":"inplace","label":"uint256","numberOfBytes":"32"},"t_uint64":{"encoding":"inplace","label":"uint64","numberOfBytes":"8"}}}}}}