{"contracts/TriggerManager.sol":{"TriggerManager":{"abi":[{"inputs":[],"stateMutability":"nonpayable","type":"constructor"},{"inputs":[],"name":"AccessControlBadConfirmation","type":"error"},{"inputs":[{"internalType":"address","name":"account","type":"address"},{"internalType":"bytes32","name":"neededRole","type":"bytes32"}],"name":"AccessControlUnauthorizedAccount","type":"error"},{"inputs":[],"name":"CoreWriterCallFailed","type":"error"},{"inputs":[],"name":"EnforcedPause","type":"error"},{"inputs":[],"name":"ExpectedPause","type":"error"},{"inputs":[],"name":"InsufficientBalance","type":"error"},{"inputs":[],"name":"InsufficientDeposit","type":"error"},{"inputs":[],"name":"InvalidAssetIndex","type":"error"},{"inputs":[],"name":"InvalidSlippage","type":"error"},{"inputs":[],"name":"OracleCallFailed","type":"error"},{"inputs":[],"name":"ReentrancyGuardReentrantCall","type":"error"},{"inputs":[],"name":"TriggerAlreadyExecuted","type":"error"},{"inputs":[],"name":"TriggerConditionNotMet","type":"error"},{"inputs":[],"name":"TriggerNotFound","type":"error"},{"inputs":[],"name":"UnauthorizedUser","type":"error"},{"inputs":[],"name":"ZeroAmount","type":"error"},{"anonymous":false,"inputs":[{"indexed":false,"internalType":"address","name":"account","type":"address"}],"name":"Paused","type":"event"},{"anonymous":false,"inputs":[{"indexed":true,"internalType":"bytes32","name":"role","type":"bytes32"},{"indexed":true,"internalType":"bytes32","name":"previousAdminRole","type":"bytes32"},{"indexed":true,"internalType":"bytes32","name":"newAdminRole","type":"bytes32"}],"name":"RoleAdminChanged","type":"event"},{"anonymous":false,"inputs":[{"indexed":true,"internalType":"bytes32","name":"role","type":"bytes32"},{"indexed":true,"internalType":"address","name":"account","type":"address"},{"indexed":true,"internalType":"address","name":"sender","type":"address"}],"name":"RoleGranted","type":"event"},{"anonymous":false,"inputs":[{"indexed":true,"internalType":"bytes32","name":"role","type":"bytes32"},{"indexed":true,"internalType":"address","name":"account","type":"address"},{"indexed":true,"internalType":"address","name":"sender","type":"address"}],"name":"RoleRevoked","type":"event"},{"anonymous":false,"inputs":[{"indexed":true,"internalType":"address","name":"user","type":"address"},{"indexed":false,"internalType":"uint32","name":"oracleIndex","type":"uint32"},{"indexed":false,"internalType":"uint64","name":"fromToken","type":"uint64"},{"indexed":false,"internalType":"uint64","name":"targetToken","type":"uint64"},{"indexed":false,"internalType":"uint256","name":"inputAmount","type":"uint256"},{"indexed":false,"internalType":"uint256","name":"outputAmount","type":"uint256"},{"indexed":false,"internalType":"uint256","name":"executionPrice","type":"uint256"}],"name":"SwapExecuted","type":"event"},{"anonymous":false,"inputs":[{"indexed":true,"internalType":"uint256","name":"triggerId","type":"uint256"},{"indexed":true,"internalType":"address","name":"user","type":"address"}],"name":"TriggerCancelled","type":"event"},{"anonymous":false,"inputs":[{"indexed":true,"internalType":"uint256","name":"triggerId","type":"uint256"},{"indexed":true,"internalType":"address","name":"user","type":"address"},{"indexed":false,"internalType":"uint32","name":"oracleIndex","type":"uint32"},{"indexed":false,"internalType":"uint64","name":"fromToken","type":"uint64"},{"indexed":false,"internalType":"uint64","name":"targetToken","type":"uint64"},{"indexed":false,"internalType":"uint256","name":"fromAmount","type":"uint256"},{"indexed":false,"internalType":"uint256","name":"triggerPrice","type":"uint256"},{"indexed":false,"internalType":"bool","name":"isAbove","type":"bool"},{"indexed":false,"internalType":"uint256","name":"maxSlippage","type":"uint256"}],"name":"TriggerCreated","type":"event"},{"anonymous":false,"inputs":[{"indexed":true,"internalType":"uint256","name":"triggerId","type":"uint256"},{"indexed":true,"internalType":"address","name":"executor","type":"address"},{"indexed":false,"internalType":"uint256","name":"executionPrice","type":"uint256"},{"indexed":false,"internalType":"uint256","name":"outputAmount","type":"uint256"}],"name":"TriggerExecuted","type":"event"},{"anonymous":false,"inputs":[{"indexed":false,"internalType":"address","name":"account","type":"address"}],"name":"Unpaused","type":"event"},{"inputs":[],"name":"DEFAULT_ADMIN_ROLE","outputs":[{"internalType":"bytes32","name":"","type":"bytes32"}],"stateMutability":"view","type":"function"},{"inputs":[],"name":"EXECUTOR_ROLE","outputs":[{"internalType":"bytes32","name":"","type":"bytes32"}],"stateMutability":"view","type":"function"},{"inputs":[],"name":"MAX_SLIPPAGE","outputs":[{"internalType":"uint256","name":"","type":"uint256"}],"stateMutability":"view","type":"function"},{"inputs":[{"internalType":"uint256","name":"triggerId","type":"uint256"}],"name":"cancelTrigger","outputs":[],"stateMutability":"nonpayable","type":"function"},{"inputs":[{"internalType":"uint64","name":"rawPrice","type":"uint64"},{"internalType":"uint8","name":"assetDecimals","type":"uint8"}],"name":"convertOraclePrice","outputs":[{"internalType":"uint256","name":"","type":"uint256"}],"stateMutability":"pure","type":"function"},{"inputs":[{"internalType":"uint32","name":"oracleIndex","type":"uint32"},{"internalType":"uint64","name":"fromToken","type":"uint64"},{"internalType":"uint64","name":"targetToken","type":"uint64"},{"internalType":"uint256","name":"fromAmount","type":"uint256"},{"internalType":"uint256","name":"triggerPrice","type":"uint256"},{"internalType":"bool","name":"isAbove","type":"bool"},{"internalType":"uint256","name":"maxSlippage","type":"uint256"}],"name":"createTrigger","outputs":[],"stateMutability":"payable","type":"function"},{"inputs":[],"name":"emergencyWithdraw","outputs":[],"stateMutability":"nonpayable","type":"function"},{"inputs":[{"internalType":"uint32","name":"oracleIndex","type":"uint32"},{"internalType":"uint64","name":"fromToken","type":"uint64"},{"internalType":"uint64","name":"targetToken","type":"uint64"},{"internalType":"uint256","name":"fromAmount","type":"uint256"},{"internalType":"uint256","name":"maxSlippage","type":"uint256"}],"name":"executeSwap","outputs":[],"stateMutability":"payable","type":"function"},{"inputs":[{"internalType":"uint256","name":"triggerId","type":"uint256"}],"name":"executeTrigger","outputs":[],"stateMutability":"nonpayable","type":"function"},{"inputs":[],"name":"executionReward","outputs":[{"internalType":"uint256","name":"","type":"uint256"}],"stateMutability":"view","type":"function"},{"inputs":[{"internalType":"uint32","name":"oracleIndex","type":"uint32"}],"name":"getOraclePrice","outputs":[{"internalType":"uint64","name":"","type":"uint64"}],"stateMutability":"view","type":"function"},{"inputs":[{"internalType":"uint32","name":"oracleIndex","type":"uint32"},{"internalType":"uint64","name":"tokenId","type":"uint64"}],"name":"getPriceAndTokenName","outputs":[{"internalType":"uint256","name":"price","type":"uint256"},{"internalType":"string","name":"tokenName","type":"string"}],"stateMutability":"view","type":"function"},{"inputs":[{"internalType":"bytes32","name":"role","type":"bytes32"}],"name":"getRoleAdmin","outputs":[{"internalType":"bytes32","name":"","type":"bytes32"}],"stateMutability":"view","type":"function"},{"inputs":[{"internalType":"uint64","name":"tokenId","type":"uint64"}],"name":"getSystemAddress","outputs":[{"internalType":"address","name":"","type":"address"}],"stateMutability":"pure","type":"function"},{"inputs":[{"internalType":"uint64","name":"tokenId","type":"uint64"}],"name":"getTokenInfo","outputs":[{"internalType":"string","name":"name","type":"string"},{"internalType":"uint8","name":"szDecimals","type":"uint8"},{"internalType":"uint8","name":"weiDecimals","type":"uint8"}],"stateMutability":"view","type":"function"},{"inputs":[{"internalType":"uint256","name":"triggerId","type":"uint256"}],"name":"getTrigger","outputs":[{"components":[{"internalType":"uint256","name":"id","type":"uint256"},{"internalType":"address","name":"user","type":"address"},{"internalType":"uint32","name":"oracleIndex","type":"uint32"},{"internalType":"uint64","name":"fromToken","type":"uint64"},{"internalType":"uint64","name":"targetToken","type":"uint64"},{"internalType":"uint256","name":"fromAmount","type":"uint256"},{"internalType":"uint256","name":"triggerPrice","type":"uint256"},{"internalType":"bool","name":"isAbove","type":"bool"},{"internalType":"uint256","name":"maxSlippage","type":"uint256"},{"internalType":"uint256","name":"createdAt","type":"uint256"},{"internalType":"bool","name":"isExecuted","type":"bool"},{"internalType":"bool","name":"isCancelled","type":"bool"}],"internalType":"struct TriggerManager.Trigger","name":"","type":"tuple"}],"stateMutability":"view","type":"function"},{"inputs":[{"internalType":"address","name":"user","type":"address"},{"internalType":"uint64","name":"tokenId","type":"uint64"}],"name":"getUserSpotBalance","outputs":[{"internalType":"uint64","name":"total","type":"uint64"},{"internalType":"uint64","name":"hold","type":"uint64"}],"stateMutability":"view","type":"function"},{"inputs":[{"internalType":"address","name":"user","type":"address"}],"name":"getUserTriggers","outputs":[{"internalType":"uint256[]","name":"","type":"uint256[]"}],"stateMutability":"view","type":"function"},{"inputs":[{"internalType":"address","name":"executor","type":"address"}],"name":"grantExecutorRole","outputs":[],"stateMutability":"nonpayable","type":"function"},{"inputs":[{"internalType":"bytes32","name":"role","type":"bytes32"},{"internalType":"address","name":"account","type":"address"}],"name":"grantRole","outputs":[],"stateMutability":"nonpayable","type":"function"},{"inputs":[{"internalType":"bytes32","name":"role","type":"bytes32"},{"internalType":"address","name":"account","type":"address"}],"name":"hasRole","outputs":[{"internalType":"bool","name":"","type":"bool"}],"stateMutability":"view","type":"function"},{"inputs":[{"internalType":"uint256","name":"triggerId","type":"uint256"}],"name":"isTriggerReady","outputs":[{"internalType":"bool","name":"conditionMet","type":"bool"},{"internalType":"uint256","name":"currentPrice","type":"uint256"}],"stateMutability":"view","type":"function"},{"inputs":[],"name":"nextTriggerId","outputs":[{"internalType":"uint256","name":"","type":"uint256"}],"stateMutability":"view","type":"function"},{"inputs":[],"name":"pause","outputs":[],"stateMutability":"nonpayable","type":"function"},{"inputs":[],"name":"paused","outputs":[{"internalType":"bool","name":"","type":"bool"}],"stateMutability":"view","type":"function"},{"inputs":[{"internalType":"bytes32","name":"role","type":"bytes32"},{"internalType":"address","name":"callerConfirmation","type":"address"}],"name":"renounceRole","outputs":[],"stateMutability":"nonpayable","type":"function"},{"inputs":[{"internalType":"address","name":"executor","type":"address"}],"name":"revokeExecutorRole","outputs":[],"stateMutability":"nonpayable","type":"function"},{"inputs":[{"internalType":"bytes32","name":"role","type":"bytes32"},{"internalType":"address","name":"account","type":"address"}],"name":"revokeRole","outputs":[],"stateMutability":"nonpayable","type":"function"},{"inputs":[{"internalType":"uint256","name":"newReward","type":"uint256"}],"name":"setExecutionReward","outputs":[],"stateMutability":"nonpayable","type":"function"},{"inputs":[{"internalType":"bytes4","name":"interfaceId","type":"bytes4"}],"name":"supportsInterface","outputs":[{"internalType":"bool","name":"","type":"bool"}],"stateMutability":"view","type":"function"},{"inputs":[{"internalType":"uint256","name":"","type":"uint256"}],"name":"triggers","outputs":[{"internalType":"uint256","name":"id","type":"uint256"},{"internalType":"address","name":"user","type":"address"},{"internalType":"uint32","name":"oracleIndex","type":"uint32"},{"internalType":"uint64","name":"fromToken","type":"uint64"},{"internalType":"uint64","name":"targetToken","type":"uint64"},{"internalType":"uint256","name":"fromAmount","type":"uint256"},{"internalType":"uint256","name":"triggerPrice","type":"uint256"},{"internalType":"bool","name":"isAbove","type":"bool"},{"internalType":"uint256","name":"maxSlippage","type":"uint256"},{"internalType":"uint256","name":"createdAt","type":"uint256"},{"internalType":"bool","name":"isExecuted","type":"bool"},{"internalType":"bool","name":"isCancelled","type":"bool"}],"stateMutability":"view","type":"function"},{"inputs":[],"name":"unpause","outputs":[],"stateMutability":"nonpayable","type":"function"},{"inputs":[{"internalType":"address","name":"","type":"address"},{"internalType":"uint64","name":"","type":"uint64"}],"name":"userDeposits","outputs":[{"internalType":"uint256","name":"","type":"uint256"}],"stateMutability":"view","type":"function"},{"inputs":[{"internalType":"address","name":"","type":"address"},{"internalType":"uint256","name":"","type":"uint256"}],"name":"userTriggers","outputs":[{"internalType":"uint256","name":"","type":"uint256"}],"stateMutability":"view","type":"function"},{"stateMutability":"payable","type":"receive"}],"evm":{"bytecode":{"linkReferences":{},"object":"608060405234620000465760018055662386f26fc10000600355600160045562000029336200004b565b506200003533620000cb565b5060405161216690816200016e8239f35b600080fd5b6001600160a01b031660008181527fad3228b676f7d3cd4284a5443f17f1962b36e491b30a40b2405849e597ba5fb5602052604081205490919060ff16620000c757818052816020526040822081835260205260408220600160ff198254161790553391600080516020620022d48339815191528180a4600190565b5090565b6001600160a01b031660008181527fdae2aa361dfd1ca020a396615627d436107c35eff9fe7738a3512819782d706960205260408120549091907fd8aa0f3194971a2a116679f7c2090f6939c8d4e01a2a8d7e41d55e5351469e639060ff166200016857808352826020526040832082845260205260408320600160ff19825416179055600080516020620022d4833981519152339380a4600190565b50509056fe608080604052600436101561001d575b50361561001b57600080fd5b005b60003560e01c90816301ffc9a71461134f5750806307bd02651461132657806310f58844146111395780631c2c75461461111b5780632441f8c714610e0c578063248a9ca314610ddd5780632af78bd114610da85780632f2ff15d14610d6957806336568abe14610d225780633f4ba83a14610cb857806342227fa414610c9a57806349a396b914610c715780635c975abb14610c4e5780636ccf8c2714610adb57806371876a1614610a2757806380a4d414146109fe57806382b33021146109dd5780638456cb59146109835780638ae63a001461092d57806391d14854146108e05780639c50472b14610725578063a217fddf14610709578063a3498325146106b1578063a78dd42e146105ec578063adb817cc1461058e578063c548da7414610562578063d45ddd9c146103eb578063d547741f146103ac578063db2e21bc14610366578063e11f7c1d14610316578063eae5cc9b146102db578063ecf7ab06146102a6578063f97595181461028a5763fdb87ec7146101a0573861000f565b3461025d57604036600319011261025d576101b961140d565b6101c16113b5565b604080516001600160a01b03909316602084019081526001600160401b039283168483015290835290919060608201908382118383101761027457600092839260405251906108015afa610213611745565b90156102625760608180518101031261025d5760409161023560208301611775565b9161024d6060610246868401611775565b9201611775565b5081845193168352166020820152f35b600080fd5b604051638390524960e01b8152600490fd5b634e487b7160e01b600052604160045260246000fd5b3461025d57600036600319011261025d57602060405160328152f35b3461025d57602036600319011261025d5760206102c96102c46113e1565b611bc6565b6040516001600160a01b039091168152f35b3461025d57604036600319011261025d576102f46113e1565b6024359060ff8216820361025d5760209161030e916119e4565b604051908152f35b3461025d57602036600319011261025d5761035560ff61033c6103376113e1565b6117fd565b8360409492939451958695606087526060870190611474565b931660208501521660408301520390f35b3461025d57600036600319011261025d5761037f611499565b6000808080478181156103a3575b3390f11561039757005b6040513d6000823e3d90fd5b506108fc61038d565b3461025d57604036600319011261025d5761001b6004356103cb6113f7565b908060005260006020526103e66001604060002001546114d3565b611651565b3461025d57602036600319011261025d57600435610407611a6a565b6000818152600560205260409020600181018054909190336001600160a01b038216036105505760088201805460ff81168015610543575b6105315761ff00191661010017905560c01c6104de57600301600080808061046b855460035490611a3f565b8181156104d5575b3390f1156103975754903360005260076020526040600020905460c01c6000526020526104a66040600020918254611a8d565b905533907f71b273ecdaf2f86cf04941c16ff6f1eae913cbfbeef44422d9c1c39847854d13600080a360018055005b506108fc610473565b60405162461bcd60e51b815260206004820152602560248201527f4f6e6c79204859504520726566756e647320737570706f727465642063757272604482015264656e746c7960d81b6064820152608490fd5b604051637964cce760e01b8152600490fd5b5060ff8160081c1661043f565b6040516302a43f8b60e01b8152600490fd5b3461025d57602036600319011261025d576040610580600435611a9a565b825191151582526020820152f35b3461025d57604036600319011261025d576105a76113a2565b6105cc6105c46105be6105b86113b5565b93611789565b926117fd565b5090926119e4565b6105e86040519283928352604060208401526040830190611474565b0390f35b3461025d57602036600319011261025d576004356000526005602052610180604060002060ff81549160018101549060018060401b036002820154166003820154600483015485600585015416916006850154936008600787015496015496604051998a5260018060a01b03811660208b015263ffffffff8160a01c1660408b015260c01c60608a0152608089015260a088015260c0870152151560e0860152610100850152610120840152818116151561014084015260081c161515610160820152f35b3461025d57604036600319011261025d576106ca61140d565b6001600160a01b031660009081526006602052604090208054602435919082101561025d576020916106fb91611423565b90546040519160031b1c8152f35b3461025d57600036600319011261025d57602060405160008152f35b3461025d57602036600319011261025d576000610160604051610747816116b4565b8281528260208201528260408201528260608201528260808201528260a08201528260c08201528260e08201528261010082015282610120820152826101408201520152600435600052600560205261018060406000206101606040516107ad816116b4565b60ff6008845494858452600181015460018060a01b038116602086015263ffffffff8160a01c16604086015260c01c606085015260018060401b036002820154166080850152600381015460a0850152600481015460c085015282600582015416151560e0850152600681015461010085015260078101546101208501520154818116151561014084015260081c1615158282015260405192835260018060a01b03602082015116602084015263ffffffff604082015116604084015260018060401b03606082015116606084015260018060401b03608082015116608084015260a081015160a084015260c081015160c084015260e0810151151560e0840152610100810151610100840152610120810151610120840152610140810151151561014084015201511515610160820152f35b3461025d57604036600319011261025d576108f96113f7565b600435600052600060205260406000209060018060a01b0316600052602052602060ff604060002054166040519015158152f35b3461025d57604036600319011261025d5761094661140d565b61094e6113b5565b9060018060a01b0316600052600760205260406000209060018060401b03166000526020526020604060002054604051908152f35b3461025d57600036600319011261025d5761099c611499565b6109a4611a4c565b600160ff1960025416176002557f62e78cea01bee320cd4e420270b5ea74000d11b0c9f74754ebdbfc544b05a2586020604051338152a1005b3461025d57602036600319011261025d576109f6611499565b600435600355005b3461025d57602036600319011261025d5761001b610a1a61140d565b610a22611499565b6114f9565b3461025d5760208060031936011261025d576001600160a01b03610a4961140d565b1660005260068152604060002060405190818382549182815201908192600052846000209060005b86828210610ac7578686610a8782880383611707565b604051928392818401908285525180915260408401929160005b828110610ab057505050500390f35b835185528695509381019392810192600101610aa1565b835485529093019260019283019201610a71565b60a036600319011261025d57610aef6113a2565b610af76113b5565b610aff6113cb565b90606435610b0b611a6a565b610b13611a4c565b8015610c3c5761138860843511610c2a576001600160401b038281169283610bd057823403610bbe57610b6b8591610b4a88611789565b9085610b62610b58866117fd565b50948591506119e4565b98899233611c7b565b9363ffffffff6040519716875260208701521660408501526060840152608083015260a08201527fe57ac32e581d105967ce4a20a078203f996fc4eeb052744eb548653664a6532560c03392a260018055005b60405163070f6eed60e11b8152600490fd5b60405162461bcd60e51b815260206004820152602c60248201527f4f6e6c79204859504520737570706f7274656420617320696e70757420746f6b60448201526b656e2063757272656e746c7960a01b6064820152608490fd5b60405163334ee9a160e01b8152600490fd5b604051631f2a200560e01b8152600490fd5b3461025d57600036600319011261025d57602060ff600254166040519015158152f35b3461025d57602036600319011261025d5761001b610c8d61140d565b610c95611499565b6115dc565b3461025d57600036600319011261025d576020600454604051908152f35b3461025d57600036600319011261025d57610cd1611499565b60025460ff811615610d105760ff19166002557f5db9ee0a495bf2e6ff9c91a7834c1ba4fdd244a5e8aa4e537bd38aeae4b073aa6020604051338152a1005b604051638dfc202b60e01b8152600490fd5b3461025d57604036600319011261025d57610d3b6113f7565b336001600160a01b03821603610d575761001b90600435611651565b60405163334bd91960e11b8152600490fd5b3461025d57604036600319011261025d5761001b600435610d886113f7565b90806000526000602052610da36001604060002001546114d3565b611575565b3461025d57602036600319011261025d576020610dcb610dc66113a2565b611789565b6040516001600160401b039091168152f35b3461025d57602036600319011261025d5760043560005260006020526020600160406000200154604051908152f35b60e036600319011261025d57610e206113a2565b610e286113b5565b610e306113cb565b60a43590811515820361025d57610e45611a6a565b610e4d611a4c565b60643515610c3c5761138860c43511610c2a57600354803410610bbe57610e7385611789565b50610e7d846117fd565b505050610e89826117fd565b5050506001600160401b038416610bd057610ea690606435611a3f565b3403610bbe576004549260001984146111055760018401600455604051610ecc816116b4565b84815233602082015263ffffffff8616604082015260018060401b038216606082015260018060401b038316608082015260643560a082015260843560c082015283151560e082015260c4356101008201524261012082015260006101408201526000610160820152846000526005602052610160600860406000208351815560018060a01b0360208501511663ffffffff60a01b604086015160a01b169060018060c01b0319606087015160c01b1691171760018201556002810160018060401b0360808601511660018060401b031982541617905560a0840151600382015560c08401516004820155610fd660e08501511515600583019060ff801983541691151516179055565b61010084015160068201556101208401516007820155019161100b6101408201511515849060ff801983541691151516179055565b0151815461ff00191690151560081b61ff00161790553360009081526006602052604090208054600160401b8110156102745761104d91600182018155611423565b81549060031b9086821b91600019901b1916179055336000526007602052604060002060018060401b03821660005260205260406000206110916064358254611a3f565b90556040805163ffffffff9690961686526001600160401b03918216602087015291169084015260643560608401526084356080840152151560a083015260c43560c083015233917f99fb49fb3f202ce5328266268c527f68dd49432063e836819c56d6e50cebb9f39060e090a360018055005b634e487b7160e01b600052601160045260246000fd5b3461025d57600036600319011261025d576020600354604051908152f35b3461025d5760208060031936011261025d57600435611156611a6a565b61115e611a4c565b6000805160206121118339815191528060005260008352604060002033600052835260ff6040600020541615611308575060008181526005835260409020600181018054936001600160a01b038086169391929184156112f657600881019687549760ff891680156112e9575b610531576111e163ffffffff8360a01c16611789565b60028401549092906001600160401b03166112086111fe826117fd565b50958691506119e4565b9a60ff6005870154166000146112dc5760048601548c10155b156112ca57611246958c94600160039360ff1916179055019889549260c01c90611c7b565b9360008080806003548181156112c1575b3390f115610397575491549081166000526007835260406000209060c01c600052825261128a6040600020918254611a8d565b90556040519384528301527f97aeecd1ccc9a1d182697b34bbb36ee4d32463998821b003c5a22c36563a596860403393a360018055005b506108fc611257565b604051631cd6f91f60e21b8152600490fd5b60048601548c1115611221565b5060ff8960081c166111cb565b6040516364bec99f60e11b8152600490fd5b6044906040519063e2517d3f60e01b82523360048301526024820152fd5b3461025d57600036600319011261025d5760206040516000805160206121118339815191528152f35b3461025d57602036600319011261025d576004359063ffffffff60e01b821680920361025d57602091637965db0b60e01b8114908115611391575b5015158152f35b6301ffc9a760e01b1490508361138a565b6004359063ffffffff8216820361025d57565b602435906001600160401b038216820361025d57565b604435906001600160401b038216820361025d57565b600435906001600160401b038216820361025d57565b602435906001600160a01b038216820361025d57565b600435906001600160a01b038216820361025d57565b805482101561143b5760005260206000200190600090565b634e487b7160e01b600052603260045260246000fd5b60005b8381106114645750506000910152565b8181015183820152602001611454565b9060209161148d81518092818552858086019101611451565b601f01601f1916010190565b3360009081527fad3228b676f7d3cd4284a5443f17f1962b36e491b30a40b2405849e597ba5fb5602052604081205460ff16156113085750565b80600052600060205260406000203360005260205260ff60406000205416156113085750565b6001600160a01b031660008181526000805160206120d183398151915260205260408120549091906000805160206121118339815191529060ff1661157057808352826020526040832082845260205260408320600160ff198254161790556000805160206120b1833981519152339380a4600190565b505090565b9060009180835282602052604083209160018060a01b03169182845260205260ff6040842054161560001461157057808352826020526040832082845260205260408320600160ff198254161790556000805160206120b1833981519152339380a4600190565b6001600160a01b031660008181526000805160206120d183398151915260205260408120549091906000805160206121118339815191529060ff16156115705780835282602052604083208284526020526040832060ff1981541690556000805160206120f1833981519152339380a4600190565b9060009180835282602052604083209160018060a01b03169182845260205260ff6040842054166000146115705780835282602052604083208284526020526040832060ff1981541690556000805160206120f1833981519152339380a4600190565b61018081019081106001600160401b0382111761027457604052565b604081019081106001600160401b0382111761027457604052565b61010081019081106001600160401b0382111761027457604052565b601f909101601f19168101906001600160401b0382119082101761027457604052565b6001600160401b03811161027457601f01601f191660200190565b3d15611770573d906117568261172a565b916117646040519384611707565b82523d6000602084013e565b606090565b51906001600160401b038216820361025d57565b6000809160405163ffffffff6020820192168252602081526117aa816116d0565b51906108075afa6117b9611745565b90156102625760208180518101031261025d5760206117d89101611775565b90565b51906001600160a01b038216820361025d57565b519060ff8216820361025d57565b60409081519060209163ffffffff8382019216825282815261181e816116d0565b600080928192519061080c5afa91611834611745565b921561198f579082918251830181810190610100958691031261198b57838201516001600160401b03908181116119875785019682603f8901121561198757838801516118808161172a565b9861188d83519a8b611707565b818a528483838301011161198357906118ab9183878c019101611451565b8086015182811161196b57860183603f8201121561196b578481015192831161196f5781858460051b948251906118e483880183611707565b8152019382010193841161196b5701905b828210611954575050505061190c60608301611775565b50611919608083016117db565b5061192660a083016117db565b5061193360c083016117ef565b9261194060e084016117ef565b92015180820b036119515750909192565b80fd5b83809161196084611775565b8152019101906118f5565b8580fd5b634e487b7160e01b86526041600452602486fd5b8680fd5b8480fd5b8280fd5b8351638390524960e01b8152600490fd5b60ff16604d811161110557600a0a90565b8181029291811591840414171561110557565b81156119ce570490565b634e487b7160e01b600052601260045260246000fd5b9060ff1660128110611a1857601119019060ff821161110557611a096117d8926119a0565b906001600160401b03166119c4565b6012039060ff821161110557611a306117d8926119a0565b906001600160401b03166119b1565b9190820180921161110557565b60ff60025416611a5857565b60405163d93c066560e01b8152600490fd5b600260015414611a7b576002600155565b604051633ee5aeb560e01b8152600490fd5b9190820391821161110557565b60005260056020526040600020604051611ab3816116b4565b81548152600182015460018060a01b0381169182602082015263ffffffff8260a01c169182604083015260c01c606082015260018060401b0391826002860154169160808101928352600386015460a082015261016060048701549560c08301968752600860ff60058a0154169860e085019915158a526006810154610100860152600781015461012086015201549260ff8085161515948561014084015260081c161515928391015215918215611bbe575b508115611bb6575b50611ba957611b9492611b83611b8b92611789565b9251166117fd565b509190506119e4565b915115611ba2575181101591565b5181111591565b5050505050600090600090565b905038611b6e565b915038611b66565b6001600160401b031680611bed575073222222222222222222222222222222222222222290565b6001609d1b1790565b6001600160a01b0390911681526001600160401b0391821660208201529116604082015260600190565b600160f81b8152600360e91b60018201528151600492909190611c4b90839085840190602001611451565b010190565b600160f81b8152600160e81b60018201528151600492909190611c4b90839085840190602001611451565b6000611caa611cc7611caa611cb884959a9899979a604051928391898d60018060401b03169160208501611bf6565b03601f198101835282611707565b60405192839160208301611c20565b604051611cf181611caa60208201946317938e1360e01b8652602060248401526044830190611474565b5190827333333333333333333333333333333333333333335af1611d13611745565b5015611df8576000196001600160401b03821601611fd6575b5082916000196001600160401b03861601611e1a575b506000928392611caa9250611da391906001600160401b038716600103611e1257600180975b818060401b0316148514611e0a5750945b611cb8611d8582611bc6565b604051928391611caa916001600160401b038b169160208501611bf6565b604051611dcd81611caa60208201946317938e1360e01b8652602060248401526044830190611474565b5190827333333333333333333333333333333333333333335af1611def611745565b5015611df85790565b604051632c7f6f8360e01b8152600490fd5b905094611d79565b600187611d68565b909150600080611caa611e8760405163ffffffff891660208201526001604082015260018060401b038716606082015260018060401b03881660808201528360a0820152600360c08201528360e082015260e08152611e78816116eb565b60405192839160208301611c50565b604051611eb181611caa60208201946317938e1360e01b8652602060248401526044830190611474565b5190827333333333333333333333333333333333333333335af1611ed3611745565b5015611f0757611da3600093611efe8594611ef9611ef3611caa966119a0565b846119b1565b6119c4565b93509350611d42565b6040805160016001609d1b0160208201526001918101919091526001600160401b03808516606080840191909152825260808201919082118183101761027457600082611f72829382604052611f608160a08101611c20565b03609f1981018352607f190182611707565b604051611f9c81611caa60208201946317938e1360e01b8652602060248401526044830190611474565b5190827333333333333333333333333333333333333333335af1611fbe611745565b5015611df857604051632c7f6f8360e01b8152600490fd5b600080611caa61202c604051600160208201526001604082015260018060401b038716606082015260018060401b03891660808201528360a0820152600360c08201528360e082015260e08152611e78816116eb565b60405161205681611caa60208201946317938e1360e01b8652602060248401526044830190611474565b5190827333333333333333333333333333333333333333335af1612078611745565b50611d2c576000611caa611f7283611cb888611caa6120978798611bc6565b6040519485936001600160401b03169160208501611bf656fe2f8788117e7eff1d82e926ec794901d17c78024a50270940304540a733656f0ddae2aa361dfd1ca020a396615627d436107c35eff9fe7738a3512819782d7069f6391f5c32d9c69d2a47ea670b442974b53935d1edc7fd64eb21e047a839171bd8aa0f3194971a2a116679f7c2090f6939c8d4e01a2a8d7e41d55e5351469e63a2646970667358221220008f77a7110d556d2d2f9a21d0247e3ea0adfdb410b374624c5bda897457bcef64736f6c634300081400332f8788117e7eff1d82e926ec794901d17c78024a50270940304540a733656f0d","opcodes":"PUSH1 0x80 PUSH1 0x40 MSTORE CALLVALUE PUSH3 0x46 JUMPI PUSH1 0x1 DUP1 SSTORE PUSH7 0x2386F26FC10000 PUSH1 0x3 SSTORE PUSH1 0x1 PUSH1 0x4 SSTORE PUSH3 0x29 CALLER PUSH3 0x4B JUMP JUMPDEST POP PUSH3 0x35 CALLER PUSH3 0xCB JUMP JUMPDEST POP PUSH1 0x40 MLOAD PUSH2 0x2166 SWAP1 DUP2 PUSH3 0x16E DUP3 CODECOPY RETURN JUMPDEST PUSH1 0x0 DUP1 REVERT JUMPDEST PUSH1 0x1 PUSH1 0x1 PUSH1 0xA0 SHL SUB AND PUSH1 0x0 DUP2 DUP2 MSTORE PUSH32 0xAD3228B676F7D3CD4284A5443F17F1962B36E491B30A40B2405849E597BA5FB5 PUSH1 0x20 MSTORE PUSH1 0x40 DUP2 KECCAK256 SLOAD SWAP1 SWAP2 SWAP1 PUSH1 0xFF AND PUSH3 0xC7 JUMPI DUP2 DUP1 MSTORE DUP2 PUSH1 0x20 MSTORE PUSH1 0x40 DUP3 KECCAK256 DUP2 DUP4 MSTORE PUSH1 0x20 MSTORE PUSH1 0x40 DUP3 KECCAK256 PUSH1 0x1 PUSH1 0xFF NOT DUP3 SLOAD AND OR SWAP1 SSTORE CALLER SWAP2 PUSH1 0x0 DUP1 MLOAD PUSH1 0x20 PUSH3 0x22D4 DUP4 CODECOPY DUP2 MLOAD SWAP2 MSTORE DUP2 DUP1 LOG4 PUSH1 0x1 SWAP1 JUMP JUMPDEST POP SWAP1 JUMP JUMPDEST PUSH1 0x1 PUSH1 0x1 PUSH1 0xA0 SHL SUB AND PUSH1 0x0 DUP2 DUP2 MSTORE PUSH32 0xDAE2AA361DFD1CA020A396615627D436107C35EFF9FE7738A3512819782D7069 PUSH1 0x20 MSTORE PUSH1 0x40 DUP2 KECCAK256 SLOAD SWAP1 SWAP2 SWAP1 PUSH32 0xD8AA0F3194971A2A116679F7C2090F6939C8D4E01A2A8D7E41D55E5351469E63 SWAP1 PUSH1 0xFF AND PUSH3 0x168 JUMPI DUP1 DUP4 MSTORE DUP3 PUSH1 0x20 MSTORE PUSH1 0x40 DUP4 KECCAK256 DUP3 DUP5 MSTORE PUSH1 0x20 MSTORE PUSH1 0x40 DUP4 KECCAK256 PUSH1 0x1 PUSH1 0xFF NOT DUP3 SLOAD AND OR SWAP1 SSTORE PUSH1 0x0 DUP1 MLOAD PUSH1 0x20 PUSH3 0x22D4 DUP4 CODECOPY DUP2 MLOAD SWAP2 MSTORE CALLER SWAP4 DUP1 LOG4 PUSH1 0x1 SWAP1 JUMP JUMPDEST POP POP SWAP1 JUMP INVALID PUSH1 0x80 DUP1 PUSH1 0x40 MSTORE PUSH1 0x4 CALLDATASIZE LT ISZERO PUSH2 0x1D JUMPI JUMPDEST POP CALLDATASIZE ISZERO PUSH2 0x1B JUMPI PUSH1 0x0 DUP1 REVERT JUMPDEST STOP JUMPDEST PUSH1 0x0 CALLDATALOAD PUSH1 0xE0 SHR SWAP1 DUP2 PUSH4 0x1FFC9A7 EQ PUSH2 0x134F JUMPI POP DUP1 PUSH4 0x7BD0265 EQ PUSH2 0x1326 JUMPI DUP1 PUSH4 0x10F58844 EQ PUSH2 0x1139 JUMPI DUP1 PUSH4 0x1C2C7546 EQ PUSH2 0x111B JUMPI DUP1 PUSH4 0x2441F8C7 EQ PUSH2 0xE0C JUMPI DUP1 PUSH4 0x248A9CA3 EQ PUSH2 0xDDD JUMPI DUP1 PUSH4 0x2AF78BD1 EQ PUSH2 0xDA8 JUMPI DUP1 PUSH4 0x2F2FF15D EQ PUSH2 0xD69 JUMPI DUP1 PUSH4 0x36568ABE EQ PUSH2 0xD22 JUMPI DUP1 PUSH4 0x3F4BA83A EQ PUSH2 0xCB8 JUMPI DUP1 PUSH4 0x42227FA4 EQ PUSH2 0xC9A JUMPI DUP1 PUSH4 0x49A396B9 EQ PUSH2 0xC71 JUMPI DUP1 PUSH4 0x5C975ABB EQ PUSH2 0xC4E JUMPI DUP1 PUSH4 0x6CCF8C27 EQ PUSH2 0xADB JUMPI DUP1 PUSH4 0x71876A16 EQ PUSH2 0xA27 JUMPI DUP1 PUSH4 0x80A4D414 EQ PUSH2 0x9FE JUMPI DUP1 PUSH4 0x82B33021 EQ PUSH2 0x9DD JUMPI DUP1 PUSH4 0x8456CB59 EQ PUSH2 0x983 JUMPI DUP1 PUSH4 0x8AE63A00 EQ PUSH2 0x92D JUMPI DUP1 PUSH4 0x91D14854 EQ PUSH2 0x8E0 JUMPI DUP1 PUSH4 0x9C50472B EQ PUSH2 0x725 JUMPI DUP1 PUSH4 0xA217FDDF EQ PUSH2 0x709 JUMPI DUP1 PUSH4 0xA3498325 EQ PUSH2 0x6B1 JUMPI DUP1 PUSH4 0xA78DD42E EQ PUSH2 0x5EC JUMPI DUP1 PUSH4 0xADB817CC EQ PUSH2 0x58E JUMPI DUP1 PUSH4 0xC548DA74 EQ PUSH2 0x562 JUMPI DUP1 PUSH4 0xD45DDD9C EQ PUSH2 0x3EB JUMPI DUP1 PUSH4 0xD547741F EQ PUSH2 0x3AC JUMPI DUP1 PUSH4 0xDB2E21BC EQ PUSH2 0x366 JUMPI DUP1 PUSH4 0xE11F7C1D EQ PUSH2 0x316 JUMPI DUP1 PUSH4 0xEAE5CC9B EQ PUSH2 0x2DB JUMPI DUP1 PUSH4 0xECF7AB06 EQ PUSH2 0x2A6 JUMPI DUP1 PUSH4 0xF9759518 EQ PUSH2 0x28A JUMPI PUSH4 0xFDB87EC7 EQ PUSH2 0x1A0 JUMPI CODESIZE PUSH2 0xF JUMP JUMPDEST CALLVALUE PUSH2 0x25D JUMPI PUSH1 0x40 CALLDATASIZE PUSH1 0x3 NOT ADD SLT PUSH2 0x25D JUMPI PUSH2 0x1B9 PUSH2 0x140D JUMP JUMPDEST PUSH2 0x1C1 PUSH2 0x13B5 JUMP JUMPDEST PUSH1 0x40 DUP1 MLOAD PUSH1 0x1 PUSH1 0x1 PUSH1 0xA0 SHL SUB SWAP1 SWAP4 AND PUSH1 0x20 DUP5 ADD SWAP1 DUP2 MSTORE PUSH1 0x1 PUSH1 0x1 PUSH1 0x40 SHL SUB SWAP3 DUP4 AND DUP5 DUP4 ADD MSTORE SWAP1 DUP4 MSTORE SWAP1 SWAP2 SWAP1 PUSH1 0x60 DUP3 ADD SWAP1 DUP4 DUP3 GT DUP4 DUP4 LT OR PUSH2 0x274 JUMPI PUSH1 0x0 SWAP3 DUP4 SWAP3 PUSH1 0x40 MSTORE MLOAD SWAP1 PUSH2 0x801 GAS STATICCALL PUSH2 0x213 PUSH2 0x1745 JUMP JUMPDEST SWAP1 ISZERO PUSH2 0x262 JUMPI PUSH1 0x60 DUP2 DUP1 MLOAD DUP2 ADD SUB SLT PUSH2 0x25D JUMPI PUSH1 0x40 SWAP2 PUSH2 0x235 PUSH1 0x20 DUP4 ADD PUSH2 0x1775 JUMP JUMPDEST SWAP2 PUSH2 0x24D PUSH1 0x60 PUSH2 0x246 DUP7 DUP5 ADD PUSH2 0x1775 JUMP JUMPDEST SWAP3 ADD PUSH2 0x1775 JUMP JUMPDEST POP DUP2 DUP5 MLOAD SWAP4 AND DUP4 MSTORE AND PUSH1 0x20 DUP3 ADD MSTORE RETURN JUMPDEST PUSH1 0x0 DUP1 REVERT JUMPDEST PUSH1 0x40 MLOAD PUSH4 0x83905249 PUSH1 0xE0 SHL DUP2 MSTORE PUSH1 0x4 SWAP1 REVERT JUMPDEST PUSH4 0x4E487B71 PUSH1 0xE0 SHL PUSH1 0x0 MSTORE PUSH1 0x41 PUSH1 0x4 MSTORE PUSH1 0x24 PUSH1 0x0 REVERT JUMPDEST CALLVALUE PUSH2 0x25D JUMPI PUSH1 0x0 CALLDATASIZE PUSH1 0x3 NOT ADD SLT PUSH2 0x25D JUMPI PUSH1 0x20 PUSH1 0x40 MLOAD PUSH1 0x32 DUP2 MSTORE RETURN JUMPDEST CALLVALUE PUSH2 0x25D JUMPI PUSH1 0x20 CALLDATASIZE PUSH1 0x3 NOT ADD SLT PUSH2 0x25D JUMPI PUSH1 0x20 PUSH2 0x2C9 PUSH2 0x2C4 PUSH2 0x13E1 JUMP JUMPDEST PUSH2 0x1BC6 JUMP JUMPDEST PUSH1 0x40 MLOAD PUSH1 0x1 PUSH1 0x1 PUSH1 0xA0 SHL SUB SWAP1 SWAP2 AND DUP2 MSTORE RETURN JUMPDEST CALLVALUE PUSH2 0x25D JUMPI PUSH1 0x40 CALLDATASIZE PUSH1 0x3 NOT ADD SLT PUSH2 0x25D JUMPI PUSH2 0x2F4 PUSH2 0x13E1 JUMP JUMPDEST PUSH1 0x24 CALLDATALOAD SWAP1 PUSH1 0xFF DUP3 AND DUP3 SUB PUSH2 0x25D JUMPI PUSH1 0x20 SWAP2 PUSH2 0x30E SWAP2 PUSH2 0x19E4 JUMP JUMPDEST PUSH1 0x40 MLOAD SWAP1 DUP2 MSTORE RETURN JUMPDEST CALLVALUE PUSH2 0x25D JUMPI PUSH1 0x20 CALLDATASIZE PUSH1 0x3 NOT ADD SLT PUSH2 0x25D JUMPI PUSH2 0x355 PUSH1 0xFF PUSH2 0x33C PUSH2 0x337 PUSH2 0x13E1 JUMP JUMPDEST PUSH2 0x17FD JUMP JUMPDEST DUP4 PUSH1 0x40 SWAP5 SWAP3 SWAP4 SWAP5 MLOAD SWAP6 DUP7 SWAP6 PUSH1 0x60 DUP8 MSTORE PUSH1 0x60 DUP8 ADD SWAP1 PUSH2 0x1474 JUMP JUMPDEST SWAP4 AND PUSH1 0x20 DUP6 ADD MSTORE AND PUSH1 0x40 DUP4 ADD MSTORE SUB SWAP1 RETURN JUMPDEST CALLVALUE PUSH2 0x25D JUMPI PUSH1 0x0 CALLDATASIZE PUSH1 0x3 NOT ADD SLT PUSH2 0x25D JUMPI PUSH2 0x37F PUSH2 0x1499 JUMP JUMPDEST PUSH1 0x0 DUP1 DUP1 DUP1 SELFBALANCE DUP2 DUP2 ISZERO PUSH2 0x3A3 JUMPI JUMPDEST CALLER SWAP1 CALL ISZERO PUSH2 0x397 JUMPI STOP JUMPDEST PUSH1 0x40 MLOAD RETURNDATASIZE PUSH1 0x0 DUP3 RETURNDATACOPY RETURNDATASIZE SWAP1 REVERT JUMPDEST POP PUSH2 0x8FC PUSH2 0x38D JUMP JUMPDEST CALLVALUE PUSH2 0x25D JUMPI PUSH1 0x40 CALLDATASIZE PUSH1 0x3 NOT ADD SLT PUSH2 0x25D JUMPI PUSH2 0x1B PUSH1 0x4 CALLDATALOAD PUSH2 0x3CB PUSH2 0x13F7 JUMP JUMPDEST SWAP1 DUP1 PUSH1 0x0 MSTORE PUSH1 0x0 PUSH1 0x20 MSTORE PUSH2 0x3E6 PUSH1 0x1 PUSH1 0x40 PUSH1 0x0 KECCAK256 ADD SLOAD PUSH2 0x14D3 JUMP JUMPDEST PUSH2 0x1651 JUMP JUMPDEST CALLVALUE PUSH2 0x25D JUMPI PUSH1 0x20 CALLDATASIZE PUSH1 0x3 NOT ADD SLT PUSH2 0x25D JUMPI PUSH1 0x4 CALLDATALOAD PUSH2 0x407 PUSH2 0x1A6A JUMP JUMPDEST PUSH1 0x0 DUP2 DUP2 MSTORE PUSH1 0x5 PUSH1 0x20 MSTORE PUSH1 0x40 SWAP1 KECCAK256 PUSH1 0x1 DUP2 ADD DUP1 SLOAD SWAP1 SWAP2 SWAP1 CALLER PUSH1 0x1 PUSH1 0x1 PUSH1 0xA0 SHL SUB DUP3 AND SUB PUSH2 0x550 JUMPI PUSH1 0x8 DUP3 ADD DUP1 SLOAD PUSH1 0xFF DUP2 AND DUP1 ISZERO PUSH2 0x543 JUMPI JUMPDEST PUSH2 0x531 JUMPI PUSH2 0xFF00 NOT AND PUSH2 0x100 OR SWAP1 SSTORE PUSH1 0xC0 SHR PUSH2 0x4DE JUMPI PUSH1 0x3 ADD PUSH1 0x0 DUP1 DUP1 DUP1 PUSH2 0x46B DUP6 SLOAD PUSH1 0x3 SLOAD SWAP1 PUSH2 0x1A3F JUMP JUMPDEST DUP2 DUP2 ISZERO PUSH2 0x4D5 JUMPI JUMPDEST CALLER SWAP1 CALL ISZERO PUSH2 0x397 JUMPI SLOAD SWAP1 CALLER PUSH1 0x0 MSTORE PUSH1 0x7 PUSH1 0x20 MSTORE PUSH1 0x40 PUSH1 0x0 KECCAK256 SWAP1 SLOAD PUSH1 0xC0 SHR PUSH1 0x0 MSTORE PUSH1 0x20 MSTORE PUSH2 0x4A6 PUSH1 0x40 PUSH1 0x0 KECCAK256 SWAP2 DUP3 SLOAD PUSH2 0x1A8D JUMP JUMPDEST SWAP1 SSTORE CALLER SWAP1 PUSH32 0x71B273ECDAF2F86CF04941C16FF6F1EAE913CBFBEEF44422D9C1C39847854D13 PUSH1 0x0 DUP1 LOG3 PUSH1 0x1 DUP1 SSTORE STOP JUMPDEST POP PUSH2 0x8FC PUSH2 0x473 JUMP JUMPDEST PUSH1 0x40 MLOAD PUSH3 0x461BCD PUSH1 0xE5 SHL DUP2 MSTORE PUSH1 0x20 PUSH1 0x4 DUP3 ADD MSTORE PUSH1 0x25 PUSH1 0x24 DUP3 ADD MSTORE PUSH32 0x4F6E6C79204859504520726566756E647320737570706F727465642063757272 PUSH1 0x44 DUP3 ADD MSTORE PUSH5 0x656E746C79 PUSH1 0xD8 SHL PUSH1 0x64 DUP3 ADD MSTORE PUSH1 0x84 SWAP1 REVERT JUMPDEST PUSH1 0x40 MLOAD PUSH4 0x7964CCE7 PUSH1 0xE0 SHL DUP2 MSTORE PUSH1 0x4 SWAP1 REVERT JUMPDEST POP PUSH1 0xFF DUP2 PUSH1 0x8 SHR AND PUSH2 0x43F JUMP JUMPDEST PUSH1 0x40 MLOAD PUSH4 0x2A43F8B PUSH1 0xE0 SHL DUP2 MSTORE PUSH1 0x4 SWAP1 REVERT JUMPDEST CALLVALUE PUSH2 0x25D JUMPI PUSH1 0x20 CALLDATASIZE PUSH1 0x3 NOT ADD SLT PUSH2 0x25D JUMPI PUSH1 0x40 PUSH2 0x580 PUSH1 0x4 CALLDATALOAD PUSH2 0x1A9A JUMP JUMPDEST DUP3 MLOAD SWAP2 ISZERO ISZERO DUP3 MSTORE PUSH1 0x20 DUP3 ADD MSTORE RETURN JUMPDEST CALLVALUE PUSH2 0x25D JUMPI PUSH1 0x40 CALLDATASIZE PUSH1 0x3 NOT ADD SLT PUSH2 0x25D JUMPI PUSH2 0x5A7 PUSH2 0x13A2 JUMP JUMPDEST PUSH2 0x5CC PUSH2 0x5C4 PUSH2 0x5BE PUSH2 0x5B8 PUSH2 0x13B5 JUMP JUMPDEST SWAP4 PUSH2 0x1789 JUMP JUMPDEST SWAP3 PUSH2 0x17FD JUMP JUMPDEST POP SWAP1 SWAP3 PUSH2 0x19E4 JUMP JUMPDEST PUSH2 0x5E8 PUSH1 0x40 MLOAD SWAP3 DUP4 SWAP3 DUP4 MSTORE PUSH1 0x40 PUSH1 0x20 DUP5 ADD MSTORE PUSH1 0x40 DUP4 ADD SWAP1 PUSH2 0x1474 JUMP JUMPDEST SUB SWAP1 RETURN JUMPDEST CALLVALUE PUSH2 0x25D JUMPI PUSH1 0x20 CALLDATASIZE PUSH1 0x3 NOT ADD SLT PUSH2 0x25D JUMPI PUSH1 0x4 CALLDATALOAD PUSH1 0x0 MSTORE PUSH1 0x5 PUSH1 0x20 MSTORE PUSH2 0x180 PUSH1 0x40 PUSH1 0x0 KECCAK256 PUSH1 0xFF DUP2 SLOAD SWAP2 PUSH1 0x1 DUP2 ADD SLOAD SWAP1 PUSH1 0x1 DUP1 PUSH1 0x40 SHL SUB PUSH1 0x2 DUP3 ADD SLOAD AND PUSH1 0x3 DUP3 ADD SLOAD PUSH1 0x4 DUP4 ADD SLOAD DUP6 PUSH1 0x5 DUP6 ADD SLOAD AND SWAP2 PUSH1 0x6 DUP6 ADD SLOAD SWAP4 PUSH1 0x8 PUSH1 0x7 DUP8 ADD SLOAD SWAP7 ADD SLOAD SWAP7 PUSH1 0x40 MLOAD SWAP10 DUP11 MSTORE PUSH1 0x1 DUP1 PUSH1 0xA0 SHL SUB DUP2 AND PUSH1 0x20 DUP12 ADD MSTORE PUSH4 0xFFFFFFFF DUP2 PUSH1 0xA0 SHR AND PUSH1 0x40 DUP12 ADD MSTORE PUSH1 0xC0 SHR PUSH1 0x60 DUP11 ADD MSTORE PUSH1 0x80 DUP10 ADD MSTORE PUSH1 0xA0 DUP9 ADD MSTORE PUSH1 0xC0 DUP8 ADD MSTORE ISZERO ISZERO PUSH1 0xE0 DUP7 ADD MSTORE PUSH2 0x100 DUP6 ADD MSTORE PUSH2 0x120 DUP5 ADD MSTORE DUP2 DUP2 AND ISZERO ISZERO PUSH2 0x140 DUP5 ADD MSTORE PUSH1 0x8 SHR AND ISZERO ISZERO PUSH2 0x160 DUP3 ADD MSTORE RETURN JUMPDEST CALLVALUE PUSH2 0x25D JUMPI PUSH1 0x40 CALLDATASIZE PUSH1 0x3 NOT ADD SLT PUSH2 0x25D JUMPI PUSH2 0x6CA PUSH2 0x140D JUMP JUMPDEST PUSH1 0x1 PUSH1 0x1 PUSH1 0xA0 SHL SUB AND PUSH1 0x0 SWAP1 DUP2 MSTORE PUSH1 0x6 PUSH1 0x20 MSTORE PUSH1 0x40 SWAP1 KECCAK256 DUP1 SLOAD PUSH1 0x24 CALLDATALOAD SWAP2 SWAP1 DUP3 LT ISZERO PUSH2 0x25D JUMPI PUSH1 0x20 SWAP2 PUSH2 0x6FB SWAP2 PUSH2 0x1423 JUMP JUMPDEST SWAP1 SLOAD PUSH1 0x40 MLOAD SWAP2 PUSH1 0x3 SHL SHR DUP2 MSTORE RETURN JUMPDEST CALLVALUE PUSH2 0x25D JUMPI PUSH1 0x0 CALLDATASIZE PUSH1 0x3 NOT ADD SLT PUSH2 0x25D JUMPI PUSH1 0x20 PUSH1 0x40 MLOAD PUSH1 0x0 DUP2 MSTORE RETURN JUMPDEST CALLVALUE PUSH2 0x25D JUMPI PUSH1 0x20 CALLDATASIZE PUSH1 0x3 NOT ADD SLT PUSH2 0x25D JUMPI PUSH1 0x0 PUSH2 0x160 PUSH1 0x40 MLOAD PUSH2 0x747 DUP2 PUSH2 0x16B4 JUMP JUMPDEST DUP3 DUP2 MSTORE DUP3 PUSH1 0x20 DUP3 ADD MSTORE DUP3 PUSH1 0x40 DUP3 ADD MSTORE DUP3 PUSH1 0x60 DUP3 ADD MSTORE DUP3 PUSH1 0x80 DUP3 ADD MSTORE DUP3 PUSH1 0xA0 DUP3 ADD MSTORE DUP3 PUSH1 0xC0 DUP3 ADD MSTORE DUP3 PUSH1 0xE0 DUP3 ADD MSTORE DUP3 PUSH2 0x100 DUP3 ADD MSTORE DUP3 PUSH2 0x120 DUP3 ADD MSTORE DUP3 PUSH2 0x140 DUP3 ADD MSTORE ADD MSTORE PUSH1 0x4 CALLDATALOAD PUSH1 0x0 MSTORE PUSH1 0x5 PUSH1 0x20 MSTORE PUSH2 0x180 PUSH1 0x40 PUSH1 0x0 KECCAK256 PUSH2 0x160 PUSH1 0x40 MLOAD PUSH2 0x7AD DUP2 PUSH2 0x16B4 JUMP JUMPDEST PUSH1 0xFF PUSH1 0x8 DUP5 SLOAD SWAP5 DUP6 DUP5 MSTORE PUSH1 0x1 DUP2 ADD SLOAD PUSH1 0x1 DUP1 PUSH1 0xA0 SHL SUB DUP2 AND PUSH1 0x20 DUP7 ADD MSTORE PUSH4 0xFFFFFFFF DUP2 PUSH1 0xA0 SHR AND PUSH1 0x40 DUP7 ADD MSTORE PUSH1 0xC0 SHR PUSH1 0x60 DUP6 ADD MSTORE PUSH1 0x1 DUP1 PUSH1 0x40 SHL SUB PUSH1 0x2 DUP3 ADD SLOAD AND PUSH1 0x80 DUP6 ADD MSTORE PUSH1 0x3 DUP2 ADD SLOAD PUSH1 0xA0 DUP6 ADD MSTORE PUSH1 0x4 DUP2 ADD SLOAD PUSH1 0xC0 DUP6 ADD MSTORE DUP3 PUSH1 0x5 DUP3 ADD SLOAD AND ISZERO ISZERO PUSH1 0xE0 DUP6 ADD MSTORE PUSH1 0x6 DUP2 ADD SLOAD PUSH2 0x100 DUP6 ADD MSTORE PUSH1 0x7 DUP2 ADD SLOAD PUSH2 0x120 DUP6 ADD MSTORE ADD SLOAD DUP2 DUP2 AND ISZERO ISZERO PUSH2 0x140 DUP5 ADD MSTORE PUSH1 0x8 SHR AND ISZERO ISZERO DUP3 DUP3 ADD MSTORE PUSH1 0x40 MLOAD SWAP3 DUP4 MSTORE PUSH1 0x1 DUP1 PUSH1 0xA0 SHL SUB PUSH1 0x20 DUP3 ADD MLOAD AND PUSH1 0x20 DUP5 ADD MSTORE PUSH4 0xFFFFFFFF PUSH1 0x40 DUP3 ADD MLOAD AND PUSH1 0x40 DUP5 ADD MSTORE PUSH1 0x1 DUP1 PUSH1 0x40 SHL SUB PUSH1 0x60 DUP3 ADD MLOAD AND PUSH1 0x60 DUP5 ADD MSTORE PUSH1 0x1 DUP1 PUSH1 0x40 SHL SUB PUSH1 0x80 DUP3 ADD MLOAD AND PUSH1 0x80 DUP5 ADD MSTORE PUSH1 0xA0 DUP2 ADD MLOAD PUSH1 0xA0 DUP5 ADD MSTORE PUSH1 0xC0 DUP2 ADD MLOAD PUSH1 0xC0 DUP5 ADD MSTORE PUSH1 0xE0 DUP2 ADD MLOAD ISZERO ISZERO PUSH1 0xE0 DUP5 ADD MSTORE PUSH2 0x100 DUP2 ADD MLOAD PUSH2 0x100 DUP5 ADD MSTORE PUSH2 0x120 DUP2 ADD MLOAD PUSH2 0x120 DUP5 ADD MSTORE PUSH2 0x140 DUP2 ADD MLOAD ISZERO ISZERO PUSH2 0x140 DUP5 ADD MSTORE ADD MLOAD ISZERO ISZERO PUSH2 0x160 DUP3 ADD MSTORE RETURN JUMPDEST CALLVALUE PUSH2 0x25D JUMPI PUSH1 0x40 CALLDATASIZE PUSH1 0x3 NOT ADD SLT PUSH2 0x25D JUMPI PUSH2 0x8F9 PUSH2 0x13F7 JUMP JUMPDEST PUSH1 0x4 CALLDATALOAD PUSH1 0x0 MSTORE PUSH1 0x0 PUSH1 0x20 MSTORE PUSH1 0x40 PUSH1 0x0 KECCAK256 SWAP1 PUSH1 0x1 DUP1 PUSH1 0xA0 SHL SUB AND PUSH1 0x0 MSTORE PUSH1 0x20 MSTORE PUSH1 0x20 PUSH1 0xFF PUSH1 0x40 PUSH1 0x0 KECCAK256 SLOAD AND PUSH1 0x40 MLOAD SWAP1 ISZERO ISZERO DUP2 MSTORE RETURN JUMPDEST CALLVALUE PUSH2 0x25D JUMPI PUSH1 0x40 CALLDATASIZE PUSH1 0x3 NOT ADD SLT PUSH2 0x25D JUMPI PUSH2 0x946 PUSH2 0x140D JUMP JUMPDEST PUSH2 0x94E PUSH2 0x13B5 JUMP JUMPDEST SWAP1 PUSH1 0x1 DUP1 PUSH1 0xA0 SHL SUB AND PUSH1 0x0 MSTORE PUSH1 0x7 PUSH1 0x20 MSTORE PUSH1 0x40 PUSH1 0x0 KECCAK256 SWAP1 PUSH1 0x1 DUP1 PUSH1 0x40 SHL SUB AND PUSH1 0x0 MSTORE PUSH1 0x20 MSTORE PUSH1 0x20 PUSH1 0x40 PUSH1 0x0 KECCAK256 SLOAD PUSH1 0x40 MLOAD SWAP1 DUP2 MSTORE RETURN JUMPDEST CALLVALUE PUSH2 0x25D JUMPI PUSH1 0x0 CALLDATASIZE PUSH1 0x3 NOT ADD SLT PUSH2 0x25D JUMPI PUSH2 0x99C PUSH2 0x1499 JUMP JUMPDEST PUSH2 0x9A4 PUSH2 0x1A4C JUMP JUMPDEST PUSH1 0x1 PUSH1 0xFF NOT PUSH1 0x2 SLOAD AND OR PUSH1 0x2 SSTORE PUSH32 0x62E78CEA01BEE320CD4E420270B5EA74000D11B0C9F74754EBDBFC544B05A258 PUSH1 0x20 PUSH1 0x40 MLOAD CALLER DUP2 MSTORE LOG1 STOP JUMPDEST CALLVALUE PUSH2 0x25D JUMPI PUSH1 0x20 CALLDATASIZE PUSH1 0x3 NOT ADD SLT PUSH2 0x25D JUMPI PUSH2 0x9F6 PUSH2 0x1499 JUMP JUMPDEST PUSH1 0x4 CALLDATALOAD PUSH1 0x3 SSTORE STOP JUMPDEST CALLVALUE PUSH2 0x25D JUMPI PUSH1 0x20 CALLDATASIZE PUSH1 0x3 NOT ADD SLT PUSH2 0x25D JUMPI PUSH2 0x1B PUSH2 0xA1A PUSH2 0x140D JUMP JUMPDEST PUSH2 0xA22 PUSH2 0x1499 JUMP JUMPDEST PUSH2 0x14F9 JUMP JUMPDEST CALLVALUE PUSH2 0x25D JUMPI PUSH1 0x20 DUP1 PUSH1 0x3 NOT CALLDATASIZE ADD SLT PUSH2 0x25D JUMPI PUSH1 0x1 PUSH1 0x1 PUSH1 0xA0 SHL SUB PUSH2 0xA49 PUSH2 0x140D JUMP JUMPDEST AND PUSH1 0x0 MSTORE PUSH1 0x6 DUP2 MSTORE PUSH1 0x40 PUSH1 0x0 KECCAK256 PUSH1 0x40 MLOAD SWAP1 DUP2 DUP4 DUP3 SLOAD SWAP2 DUP3 DUP2 MSTORE ADD SWAP1 DUP2 SWAP3 PUSH1 0x0 MSTORE DUP5 PUSH1 0x0 KECCAK256 SWAP1 PUSH1 0x0 JUMPDEST DUP7 DUP3 DUP3 LT PUSH2 0xAC7 JUMPI DUP7 DUP7 PUSH2 0xA87 DUP3 DUP9 SUB DUP4 PUSH2 0x1707 JUMP JUMPDEST PUSH1 0x40 MLOAD SWAP3 DUP4 SWAP3 DUP2 DUP5 ADD SWAP1 DUP3 DUP6 MSTORE MLOAD DUP1 SWAP2 MSTORE PUSH1 0x40 DUP5 ADD SWAP3 SWAP2 PUSH1 0x0 JUMPDEST DUP3 DUP2 LT PUSH2 0xAB0 JUMPI POP POP POP POP SUB SWAP1 RETURN JUMPDEST DUP4 MLOAD DUP6 MSTORE DUP7 SWAP6 POP SWAP4 DUP2 ADD SWAP4 SWAP3 DUP2 ADD SWAP3 PUSH1 0x1 ADD PUSH2 0xAA1 JUMP JUMPDEST DUP4 SLOAD DUP6 MSTORE SWAP1 SWAP4 ADD SWAP3 PUSH1 0x1 SWAP3 DUP4 ADD SWAP3 ADD PUSH2 0xA71 JUMP JUMPDEST PUSH1 0xA0 CALLDATASIZE PUSH1 0x3 NOT ADD SLT PUSH2 0x25D JUMPI PUSH2 0xAEF PUSH2 0x13A2 JUMP JUMPDEST PUSH2 0xAF7 PUSH2 0x13B5 JUMP JUMPDEST PUSH2 0xAFF PUSH2 0x13CB JUMP JUMPDEST SWAP1 PUSH1 0x64 CALLDATALOAD PUSH2 0xB0B PUSH2 0x1A6A JUMP JUMPDEST PUSH2 0xB13 PUSH2 0x1A4C JUMP JUMPDEST DUP1 ISZERO PUSH2 0xC3C JUMPI PUSH2 0x1388 PUSH1 0x84 CALLDATALOAD GT PUSH2 0xC2A JUMPI PUSH1 0x1 PUSH1 0x1 PUSH1 0x40 SHL SUB DUP3 DUP2 AND SWAP3 DUP4 PUSH2 0xBD0 JUMPI DUP3 CALLVALUE SUB PUSH2 0xBBE JUMPI PUSH2 0xB6B DUP6 SWAP2 PUSH2 0xB4A DUP9 PUSH2 0x1789 JUMP JUMPDEST SWAP1 DUP6 PUSH2 0xB62 PUSH2 0xB58 DUP7 PUSH2 0x17FD JUMP JUMPDEST POP SWAP5 DUP6 SWAP2 POP PUSH2 0x19E4 JUMP JUMPDEST SWAP9 DUP10 SWAP3 CALLER PUSH2 0x1C7B JUMP JUMPDEST SWAP4 PUSH4 0xFFFFFFFF PUSH1 0x40 MLOAD SWAP8 AND DUP8 MSTORE PUSH1 0x20 DUP8 ADD MSTORE AND PUSH1 0x40 DUP6 ADD MSTORE PUSH1 0x60 DUP5 ADD MSTORE PUSH1 0x80 DUP4 ADD MSTORE PUSH1 0xA0 DUP3 ADD MSTORE PUSH32 0xE57AC32E581D105967CE4A20A078203F996FC4EEB052744EB548653664A65325 PUSH1 0xC0 CALLER SWAP3 LOG2 PUSH1 0x1 DUP1 SSTORE STOP JUMPDEST PUSH1 0x40 MLOAD PUSH4 0x70F6EED PUSH1 0xE1 SHL DUP2 MSTORE PUSH1 0x4 SWAP1 REVERT JUMPDEST PUSH1 0x40 MLOAD PUSH3 0x461BCD PUSH1 0xE5 SHL DUP2 MSTORE PUSH1 0x20 PUSH1 0x4 DUP3 ADD MSTORE PUSH1 0x2C PUSH1 0x24 DUP3 ADD MSTORE PUSH32 0x4F6E6C79204859504520737570706F7274656420617320696E70757420746F6B PUSH1 0x44 DUP3 ADD MSTORE PUSH12 0x656E2063757272656E746C79 PUSH1 0xA0 SHL PUSH1 0x64 DUP3 ADD MSTORE PUSH1 0x84 SWAP1 REVERT JUMPDEST PUSH1 0x40 MLOAD PUSH4 0x334EE9A1 PUSH1 0xE0 SHL DUP2 MSTORE PUSH1 0x4 SWAP1 REVERT JUMPDEST PUSH1 0x40 MLOAD PUSH4 0x1F2A2005 PUSH1 0xE0 SHL DUP2 MSTORE PUSH1 0x4 SWAP1 REVERT JUMPDEST CALLVALUE PUSH2 0x25D JUMPI PUSH1 0x0 CALLDATASIZE PUSH1 0x3 NOT ADD SLT PUSH2 0x25D JUMPI PUSH1 0x20 PUSH1 0xFF PUSH1 0x2 SLOAD AND PUSH1 0x40 MLOAD SWAP1 ISZERO ISZERO DUP2 MSTORE RETURN JUMPDEST CALLVALUE PUSH2 0x25D JUMPI PUSH1 0x20 CALLDATASIZE PUSH1 0x3 NOT ADD SLT PUSH2 0x25D JUMPI PUSH2 0x1B PUSH2 0xC8D PUSH2 0x140D JUMP JUMPDEST PUSH2 0xC95 PUSH2 0x1499 JUMP JUMPDEST PUSH2 0x15DC JUMP JUMPDEST CALLVALUE PUSH2 0x25D JUMPI PUSH1 0x0 CALLDATASIZE PUSH1 0x3 NOT ADD SLT PUSH2 0x25D JUMPI PUSH1 0x20 PUSH1 0x4 SLOAD PUSH1 0x40 MLOAD SWAP1 DUP2 MSTORE RETURN JUMPDEST CALLVALUE PUSH2 0x25D JUMPI PUSH1 0x0 CALLDATASIZE PUSH1 0x3 NOT ADD SLT PUSH2 0x25D JUMPI PUSH2 0xCD1 PUSH2 0x1499 JUMP JUMPDEST PUSH1 0x2 SLOAD PUSH1 0xFF DUP2 AND ISZERO PUSH2 0xD10 JUMPI PUSH1 0xFF NOT AND PUSH1 0x2 SSTORE PUSH32 0x5DB9EE0A495BF2E6FF9C91A7834C1BA4FDD244A5E8AA4E537BD38AEAE4B073AA PUSH1 0x20 PUSH1 0x40 MLOAD CALLER DUP2 MSTORE LOG1 STOP JUMPDEST PUSH1 0x40 MLOAD PUSH4 0x8DFC202B PUSH1 0xE0 SHL DUP2 MSTORE PUSH1 0x4 SWAP1 REVERT JUMPDEST CALLVALUE PUSH2 0x25D JUMPI PUSH1 0x40 CALLDATASIZE PUSH1 0x3 NOT ADD SLT PUSH2 0x25D JUMPI PUSH2 0xD3B PUSH2 0x13F7 JUMP JUMPDEST CALLER PUSH1 0x1 PUSH1 0x1 PUSH1 0xA0 SHL SUB DUP3 AND SUB PUSH2 0xD57 JUMPI PUSH2 0x1B SWAP1 PUSH1 0x4 CALLDATALOAD PUSH2 0x1651 JUMP JUMPDEST PUSH1 0x40 MLOAD PUSH4 0x334BD919 PUSH1 0xE1 SHL DUP2 MSTORE PUSH1 0x4 SWAP1 REVERT JUMPDEST CALLVALUE PUSH2 0x25D JUMPI PUSH1 0x40 CALLDATASIZE PUSH1 0x3 NOT ADD SLT PUSH2 0x25D JUMPI PUSH2 0x1B PUSH1 0x4 CALLDATALOAD PUSH2 0xD88 PUSH2 0x13F7 JUMP JUMPDEST SWAP1 DUP1 PUSH1 0x0 MSTORE PUSH1 0x0 PUSH1 0x20 MSTORE PUSH2 0xDA3 PUSH1 0x1 PUSH1 0x40 PUSH1 0x0 KECCAK256 ADD SLOAD PUSH2 0x14D3 JUMP JUMPDEST PUSH2 0x1575 JUMP JUMPDEST CALLVALUE PUSH2 0x25D JUMPI PUSH1 0x20 CALLDATASIZE PUSH1 0x3 NOT ADD SLT PUSH2 0x25D JUMPI PUSH1 0x20 PUSH2 0xDCB PUSH2 0xDC6 PUSH2 0x13A2 JUMP JUMPDEST PUSH2 0x1789 JUMP JUMPDEST PUSH1 0x40 MLOAD PUSH1 0x1 PUSH1 0x1 PUSH1 0x40 SHL SUB SWAP1 SWAP2 AND DUP2 MSTORE RETURN JUMPDEST CALLVALUE PUSH2 0x25D JUMPI PUSH1 0x20 CALLDATASIZE PUSH1 0x3 NOT ADD SLT PUSH2 0x25D JUMPI PUSH1 0x4 CALLDATALOAD PUSH1 0x0 MSTORE PUSH1 0x0 PUSH1 0x20 MSTORE PUSH1 0x20 PUSH1 0x1 PUSH1 0x40 PUSH1 0x0 KECCAK256 ADD SLOAD PUSH1 0x40 MLOAD SWAP1 DUP2 MSTORE RETURN JUMPDEST PUSH1 0xE0 CALLDATASIZE PUSH1 0x3 NOT ADD SLT PUSH2 0x25D JUMPI PUSH2 0xE20 PUSH2 0x13A2 JUMP JUMPDEST PUSH2 0xE28 PUSH2 0x13B5 JUMP JUMPDEST PUSH2 0xE30 PUSH2 0x13CB JUMP JUMPDEST PUSH1 0xA4 CALLDATALOAD SWAP1 DUP2 ISZERO ISZERO DUP3 SUB PUSH2 0x25D JUMPI PUSH2 0xE45 PUSH2 0x1A6A JUMP JUMPDEST PUSH2 0xE4D PUSH2 0x1A4C JUMP JUMPDEST PUSH1 0x64 CALLDATALOAD ISZERO PUSH2 0xC3C JUMPI PUSH2 0x1388 PUSH1 0xC4 CALLDATALOAD GT PUSH2 0xC2A JUMPI PUSH1 0x3 SLOAD DUP1 CALLVALUE LT PUSH2 0xBBE JUMPI PUSH2 0xE73 DUP6 PUSH2 0x1789 JUMP JUMPDEST POP PUSH2 0xE7D DUP5 PUSH2 0x17FD JUMP JUMPDEST POP POP POP PUSH2 0xE89 DUP3 PUSH2 0x17FD JUMP JUMPDEST POP POP POP PUSH1 0x1 PUSH1 0x1 PUSH1 0x40 SHL SUB DUP5 AND PUSH2 0xBD0 JUMPI PUSH2 0xEA6 SWAP1 PUSH1 0x64 CALLDATALOAD PUSH2 0x1A3F JUMP JUMPDEST CALLVALUE SUB PUSH2 0xBBE JUMPI PUSH1 0x4 SLOAD SWAP3 PUSH1 0x0 NOT DUP5 EQ PUSH2 0x1105 JUMPI PUSH1 0x1 DUP5 ADD PUSH1 0x4 SSTORE PUSH1 0x40 MLOAD PUSH2 0xECC DUP2 PUSH2 0x16B4 JUMP JUMPDEST DUP5 DUP2 MSTORE CALLER PUSH1 0x20 DUP3 ADD MSTORE PUSH4 0xFFFFFFFF DUP7 AND PUSH1 0x40 DUP3 ADD MSTORE PUSH1 0x1 DUP1 PUSH1 0x40 SHL SUB DUP3 AND PUSH1 0x60 DUP3 ADD MSTORE PUSH1 0x1 DUP1 PUSH1 0x40 SHL SUB DUP4 AND PUSH1 0x80 DUP3 ADD MSTORE PUSH1 0x64 CALLDATALOAD PUSH1 0xA0 DUP3 ADD MSTORE PUSH1 0x84 CALLDATALOAD PUSH1 0xC0 DUP3 ADD MSTORE DUP4 ISZERO ISZERO PUSH1 0xE0 DUP3 ADD MSTORE PUSH1 0xC4 CALLDATALOAD PUSH2 0x100 DUP3 ADD MSTORE TIMESTAMP PUSH2 0x120 DUP3 ADD MSTORE PUSH1 0x0 PUSH2 0x140 DUP3 ADD MSTORE PUSH1 0x0 PUSH2 0x160 DUP3 ADD MSTORE DUP5 PUSH1 0x0 MSTORE PUSH1 0x5 PUSH1 0x20 MSTORE PUSH2 0x160 PUSH1 0x8 PUSH1 0x40 PUSH1 0x0 KECCAK256 DUP4 MLOAD DUP2 SSTORE PUSH1 0x1 DUP1 PUSH1 0xA0 SHL SUB PUSH1 0x20 DUP6 ADD MLOAD AND PUSH4 0xFFFFFFFF PUSH1 0xA0 SHL PUSH1 0x40 DUP7 ADD MLOAD PUSH1 0xA0 SHL AND SWAP1 PUSH1 0x1 DUP1 PUSH1 0xC0 SHL SUB NOT PUSH1 0x60 DUP8 ADD MLOAD PUSH1 0xC0 SHL AND SWAP2 OR OR PUSH1 0x1 DUP3 ADD SSTORE PUSH1 0x2 DUP2 ADD PUSH1 0x1 DUP1 PUSH1 0x40 SHL SUB PUSH1 0x80 DUP7 ADD MLOAD AND PUSH1 0x1 DUP1 PUSH1 0x40 SHL SUB NOT DUP3 SLOAD AND OR SWAP1 SSTORE PUSH1 0xA0 DUP5 ADD MLOAD PUSH1 0x3 DUP3 ADD SSTORE PUSH1 0xC0 DUP5 ADD MLOAD PUSH1 0x4 DUP3 ADD SSTORE PUSH2 0xFD6 PUSH1 0xE0 DUP6 ADD MLOAD ISZERO ISZERO PUSH1 0x5 DUP4 ADD SWAP1 PUSH1 0xFF DUP1 NOT DUP4 SLOAD AND SWAP2 ISZERO ISZERO AND OR SWAP1 SSTORE JUMP JUMPDEST PUSH2 0x100 DUP5 ADD MLOAD PUSH1 0x6 DUP3 ADD SSTORE PUSH2 0x120 DUP5 ADD MLOAD PUSH1 0x7 DUP3 ADD SSTORE ADD SWAP2 PUSH2 0x100B PUSH2 0x140 DUP3 ADD MLOAD ISZERO ISZERO DUP5 SWAP1 PUSH1 0xFF DUP1 NOT DUP4 SLOAD AND SWAP2 ISZERO ISZERO AND OR SWAP1 SSTORE JUMP JUMPDEST ADD MLOAD DUP2 SLOAD PUSH2 0xFF00 NOT AND SWAP1 ISZERO ISZERO PUSH1 0x8 SHL PUSH2 0xFF00 AND OR SWAP1 SSTORE CALLER PUSH1 0x0 SWAP1 DUP2 MSTORE PUSH1 0x6 PUSH1 0x20 MSTORE PUSH1 0x40 SWAP1 KECCAK256 DUP1 SLOAD PUSH1 0x1 PUSH1 0x40 SHL DUP2 LT ISZERO PUSH2 0x274 JUMPI PUSH2 0x104D SWAP2 PUSH1 0x1 DUP3 ADD DUP2 SSTORE PUSH2 0x1423 JUMP JUMPDEST DUP2 SLOAD SWAP1 PUSH1 0x3 SHL SWAP1 DUP7 DUP3 SHL SWAP2 PUSH1 0x0 NOT SWAP1 SHL NOT AND OR SWAP1 SSTORE CALLER PUSH1 0x0 MSTORE PUSH1 0x7 PUSH1 0x20 MSTORE PUSH1 0x40 PUSH1 0x0 KECCAK256 PUSH1 0x1 DUP1 PUSH1 0x40 SHL SUB DUP3 AND PUSH1 0x0 MSTORE PUSH1 0x20 MSTORE PUSH1 0x40 PUSH1 0x0 KECCAK256 PUSH2 0x1091 PUSH1 0x64 CALLDATALOAD DUP3 SLOAD PUSH2 0x1A3F JUMP JUMPDEST SWAP1 SSTORE PUSH1 0x40 DUP1 MLOAD PUSH4 0xFFFFFFFF SWAP7 SWAP1 SWAP7 AND DUP7 MSTORE PUSH1 0x1 PUSH1 0x1 PUSH1 0x40 SHL SUB SWAP2 DUP3 AND PUSH1 0x20 DUP8 ADD MSTORE SWAP2 AND SWAP1 DUP5 ADD MSTORE PUSH1 0x64 CALLDATALOAD PUSH1 0x60 DUP5 ADD MSTORE PUSH1 0x84 CALLDATALOAD PUSH1 0x80 DUP5 ADD MSTORE ISZERO ISZERO PUSH1 0xA0 DUP4 ADD MSTORE PUSH1 0xC4 CALLDATALOAD PUSH1 0xC0 DUP4 ADD MSTORE CALLER SWAP2 PUSH32 0x99FB49FB3F202CE5328266268C527F68DD49432063E836819C56D6E50CEBB9F3 SWAP1 PUSH1 0xE0 SWAP1 LOG3 PUSH1 0x1 DUP1 SSTORE STOP JUMPDEST PUSH4 0x4E487B71 PUSH1 0xE0 SHL PUSH1 0x0 MSTORE PUSH1 0x11 PUSH1 0x4 MSTORE PUSH1 0x24 PUSH1 0x0 REVERT JUMPDEST CALLVALUE PUSH2 0x25D JUMPI PUSH1 0x0 CALLDATASIZE PUSH1 0x3 NOT ADD SLT PUSH2 0x25D JUMPI PUSH1 0x20 PUSH1 0x3 SLOAD PUSH1 0x40 MLOAD SWAP1 DUP2 MSTORE RETURN JUMPDEST CALLVALUE PUSH2 0x25D JUMPI PUSH1 0x20 DUP1 PUSH1 0x3 NOT CALLDATASIZE ADD SLT PUSH2 0x25D JUMPI PUSH1 0x4 CALLDATALOAD PUSH2 0x1156 PUSH2 0x1A6A JUMP JUMPDEST PUSH2 0x115E PUSH2 0x1A4C JUMP JUMPDEST PUSH1 0x0 DUP1 MLOAD PUSH1 0x20 PUSH2 0x2111 DUP4 CODECOPY DUP2 MLOAD SWAP2 MSTORE DUP1 PUSH1 0x0 MSTORE PUSH1 0x0 DUP4 MSTORE PUSH1 0x40 PUSH1 0x0 KECCAK256 CALLER PUSH1 0x0 MSTORE DUP4 MSTORE PUSH1 0xFF PUSH1 0x40 PUSH1 0x0 KECCAK256 SLOAD AND ISZERO PUSH2 0x1308 JUMPI POP PUSH1 0x0 DUP2 DUP2 MSTORE PUSH1 0x5 DUP4 MSTORE PUSH1 0x40 SWAP1 KECCAK256 PUSH1 0x1 DUP2 ADD DUP1 SLOAD SWAP4 PUSH1 0x1 PUSH1 0x1 PUSH1 0xA0 SHL SUB DUP1 DUP7 AND SWAP4 SWAP2 SWAP3 SWAP2 DUP5 ISZERO PUSH2 0x12F6 JUMPI PUSH1 0x8 DUP2 ADD SWAP7 DUP8 SLOAD SWAP8 PUSH1 0xFF DUP10 AND DUP1 ISZERO PUSH2 0x12E9 JUMPI JUMPDEST PUSH2 0x531 JUMPI PUSH2 0x11E1 PUSH4 0xFFFFFFFF DUP4 PUSH1 0xA0 SHR AND PUSH2 0x1789 JUMP JUMPDEST PUSH1 0x2 DUP5 ADD SLOAD SWAP1 SWAP3 SWAP1 PUSH1 0x1 PUSH1 0x1 PUSH1 0x40 SHL SUB AND PUSH2 0x1208 PUSH2 0x11FE DUP3 PUSH2 0x17FD JUMP JUMPDEST POP SWAP6 DUP7 SWAP2 POP PUSH2 0x19E4 JUMP JUMPDEST SWAP11 PUSH1 0xFF PUSH1 0x5 DUP8 ADD SLOAD AND PUSH1 0x0 EQ PUSH2 0x12DC JUMPI PUSH1 0x4 DUP7 ADD SLOAD DUP13 LT ISZERO JUMPDEST ISZERO PUSH2 0x12CA JUMPI PUSH2 0x1246 SWAP6 DUP13 SWAP5 PUSH1 0x1 PUSH1 0x3 SWAP4 PUSH1 0xFF NOT AND OR SWAP1 SSTORE ADD SWAP9 DUP10 SLOAD SWAP3 PUSH1 0xC0 SHR SWAP1 PUSH2 0x1C7B JUMP JUMPDEST SWAP4 PUSH1 0x0 DUP1 DUP1 DUP1 PUSH1 0x3 SLOAD DUP2 DUP2 ISZERO PUSH2 0x12C1 JUMPI JUMPDEST CALLER SWAP1 CALL ISZERO PUSH2 0x397 JUMPI SLOAD SWAP2 SLOAD SWAP1 DUP2 AND PUSH1 0x0 MSTORE PUSH1 0x7 DUP4 MSTORE PUSH1 0x40 PUSH1 0x0 KECCAK256 SWAP1 PUSH1 0xC0 SHR PUSH1 0x0 MSTORE DUP3 MSTORE PUSH2 0x128A PUSH1 0x40 PUSH1 0x0 KECCAK256 SWAP2 DUP3 SLOAD PUSH2 0x1A8D JUMP JUMPDEST SWAP1 SSTORE PUSH1 0x40 MLOAD SWAP4 DUP5 MSTORE DUP4 ADD MSTORE PUSH32 0x97AEECD1CCC9A1D182697B34BBB36EE4D32463998821B003C5A22C36563A5968 PUSH1 0x40 CALLER SWAP4 LOG3 PUSH1 0x1 DUP1 SSTORE STOP JUMPDEST POP PUSH2 0x8FC PUSH2 0x1257 JUMP JUMPDEST PUSH1 0x40 MLOAD PUSH4 0x1CD6F91F PUSH1 0xE2 SHL DUP2 MSTORE PUSH1 0x4 SWAP1 REVERT JUMPDEST PUSH1 0x4 DUP7 ADD SLOAD DUP13 GT ISZERO PUSH2 0x1221 JUMP JUMPDEST POP PUSH1 0xFF DUP10 PUSH1 0x8 SHR AND PUSH2 0x11CB JUMP JUMPDEST PUSH1 0x40 MLOAD PUSH4 0x64BEC99F PUSH1 0xE1 SHL DUP2 MSTORE PUSH1 0x4 SWAP1 REVERT JUMPDEST PUSH1 0x44 SWAP1 PUSH1 0x40 MLOAD SWAP1 PUSH4 0xE2517D3F PUSH1 0xE0 SHL DUP3 MSTORE CALLER PUSH1 0x4 DUP4 ADD MSTORE PUSH1 0x24 DUP3 ADD MSTORE REVERT JUMPDEST CALLVALUE PUSH2 0x25D JUMPI PUSH1 0x0 CALLDATASIZE PUSH1 0x3 NOT ADD SLT PUSH2 0x25D JUMPI PUSH1 0x20 PUSH1 0x40 MLOAD PUSH1 0x0 DUP1 MLOAD PUSH1 0x20 PUSH2 0x2111 DUP4 CODECOPY DUP2 MLOAD SWAP2 MSTORE DUP2 MSTORE RETURN JUMPDEST CALLVALUE PUSH2 0x25D JUMPI PUSH1 0x20 CALLDATASIZE PUSH1 0x3 NOT ADD SLT PUSH2 0x25D JUMPI PUSH1 0x4 CALLDATALOAD SWAP1 PUSH4 0xFFFFFFFF PUSH1 0xE0 SHL DUP3 AND DUP1 SWAP3 SUB PUSH2 0x25D JUMPI PUSH1 0x20 SWAP2 PUSH4 0x7965DB0B PUSH1 0xE0 SHL DUP2 EQ SWAP1 DUP2 ISZERO PUSH2 0x1391 JUMPI JUMPDEST POP ISZERO ISZERO DUP2 MSTORE RETURN JUMPDEST PUSH4 0x1FFC9A7 PUSH1 0xE0 SHL EQ SWAP1 POP DUP4 PUSH2 0x138A JUMP JUMPDEST PUSH1 0x4 CALLDATALOAD SWAP1 PUSH4 0xFFFFFFFF DUP3 AND DUP3 SUB PUSH2 0x25D JUMPI JUMP JUMPDEST PUSH1 0x24 CALLDATALOAD SWAP1 PUSH1 0x1 PUSH1 0x1 PUSH1 0x40 SHL SUB DUP3 AND DUP3 SUB PUSH2 0x25D JUMPI JUMP JUMPDEST PUSH1 0x44 CALLDATALOAD SWAP1 PUSH1 0x1 PUSH1 0x1 PUSH1 0x40 SHL SUB DUP3 AND DUP3 SUB PUSH2 0x25D JUMPI JUMP JUMPDEST PUSH1 0x4 CALLDATALOAD SWAP1 PUSH1 0x1 PUSH1 0x1 PUSH1 0x40 SHL SUB DUP3 AND DUP3 SUB PUSH2 0x25D JUMPI JUMP JUMPDEST PUSH1 0x24 CALLDATALOAD SWAP1 PUSH1 0x1 PUSH1 0x1 PUSH1 0xA0 SHL SUB DUP3 AND DUP3 SUB PUSH2 0x25D JUMPI JUMP JUMPDEST PUSH1 0x4 CALLDATALOAD SWAP1 PUSH1 0x1 PUSH1 0x1 PUSH1 0xA0 SHL SUB DUP3 AND DUP3 SUB PUSH2 0x25D JUMPI JUMP JUMPDEST DUP1 SLOAD DUP3 LT ISZERO PUSH2 0x143B JUMPI PUSH1 0x0 MSTORE PUSH1 0x20 PUSH1 0x0 KECCAK256 ADD SWAP1 PUSH1 0x0 SWAP1 JUMP JUMPDEST PUSH4 0x4E487B71 PUSH1 0xE0 SHL PUSH1 0x0 MSTORE PUSH1 0x32 PUSH1 0x4 MSTORE PUSH1 0x24 PUSH1 0x0 REVERT JUMPDEST PUSH1 0x0 JUMPDEST DUP4 DUP2 LT PUSH2 0x1464 JUMPI POP POP PUSH1 0x0 SWAP2 ADD MSTORE JUMP JUMPDEST DUP2 DUP2 ADD MLOAD DUP4 DUP3 ADD MSTORE PUSH1 0x20 ADD PUSH2 0x1454 JUMP JUMPDEST SWAP1 PUSH1 0x20 SWAP2 PUSH2 0x148D DUP2 MLOAD DUP1 SWAP3 DUP2 DUP6 MSTORE DUP6 DUP1 DUP7 ADD SWAP2 ADD PUSH2 0x1451 JUMP JUMPDEST PUSH1 0x1F ADD PUSH1 0x1F NOT AND ADD ADD SWAP1 JUMP JUMPDEST CALLER PUSH1 0x0 SWAP1 DUP2 MSTORE PUSH32 0xAD3228B676F7D3CD4284A5443F17F1962B36E491B30A40B2405849E597BA5FB5 PUSH1 0x20 MSTORE PUSH1 0x40 DUP2 KECCAK256 SLOAD PUSH1 0xFF AND ISZERO PUSH2 0x1308 JUMPI POP JUMP JUMPDEST DUP1 PUSH1 0x0 MSTORE PUSH1 0x0 PUSH1 0x20 MSTORE PUSH1 0x40 PUSH1 0x0 KECCAK256 CALLER PUSH1 0x0 MSTORE PUSH1 0x20 MSTORE PUSH1 0xFF PUSH1 0x40 PUSH1 0x0 KECCAK256 SLOAD AND ISZERO PUSH2 0x1308 JUMPI POP JUMP JUMPDEST PUSH1 0x1 PUSH1 0x1 PUSH1 0xA0 SHL SUB AND PUSH1 0x0 DUP2 DUP2 MSTORE PUSH1 0x0 DUP1 MLOAD PUSH1 0x20 PUSH2 0x20D1 DUP4 CODECOPY DUP2 MLOAD SWAP2 MSTORE PUSH1 0x20 MSTORE PUSH1 0x40 DUP2 KECCAK256 SLOAD SWAP1 SWAP2 SWAP1 PUSH1 0x0 DUP1 MLOAD PUSH1 0x20 PUSH2 0x2111 DUP4 CODECOPY DUP2 MLOAD SWAP2 MSTORE SWAP1 PUSH1 0xFF AND PUSH2 0x1570 JUMPI DUP1 DUP4 MSTORE DUP3 PUSH1 0x20 MSTORE PUSH1 0x40 DUP4 KECCAK256 DUP3 DUP5 MSTORE PUSH1 0x20 MSTORE PUSH1 0x40 DUP4 KECCAK256 PUSH1 0x1 PUSH1 0xFF NOT DUP3 SLOAD AND OR SWAP1 SSTORE PUSH1 0x0 DUP1 MLOAD PUSH1 0x20 PUSH2 0x20B1 DUP4 CODECOPY DUP2 MLOAD SWAP2 MSTORE CALLER SWAP4 DUP1 LOG4 PUSH1 0x1 SWAP1 JUMP JUMPDEST POP POP SWAP1 JUMP JUMPDEST SWAP1 PUSH1 0x0 SWAP2 DUP1 DUP4 MSTORE DUP3 PUSH1 0x20 MSTORE PUSH1 0x40 DUP4 KECCAK256 SWAP2 PUSH1 0x1 DUP1 PUSH1 0xA0 SHL SUB AND SWAP2 DUP3 DUP5 MSTORE PUSH1 0x20 MSTORE PUSH1 0xFF PUSH1 0x40 DUP5 KECCAK256 SLOAD AND ISZERO PUSH1 0x0 EQ PUSH2 0x1570 JUMPI DUP1 DUP4 MSTORE DUP3 PUSH1 0x20 MSTORE PUSH1 0x40 DUP4 KECCAK256 DUP3 DUP5 MSTORE PUSH1 0x20 MSTORE PUSH1 0x40 DUP4 KECCAK256 PUSH1 0x1 PUSH1 0xFF NOT DUP3 SLOAD AND OR SWAP1 SSTORE PUSH1 0x0 DUP1 MLOAD PUSH1 0x20 PUSH2 0x20B1 DUP4 CODECOPY DUP2 MLOAD SWAP2 MSTORE CALLER SWAP4 DUP1 LOG4 PUSH1 0x1 SWAP1 JUMP JUMPDEST PUSH1 0x1 PUSH1 0x1 PUSH1 0xA0 SHL SUB AND PUSH1 0x0 DUP2 DUP2 MSTORE PUSH1 0x0 DUP1 MLOAD PUSH1 0x20 PUSH2 0x20D1 DUP4 CODECOPY DUP2 MLOAD SWAP2 MSTORE PUSH1 0x20 MSTORE PUSH1 0x40 DUP2 KECCAK256 SLOAD SWAP1 SWAP2 SWAP1 PUSH1 0x0 DUP1 MLOAD PUSH1 0x20 PUSH2 0x2111 DUP4 CODECOPY DUP2 MLOAD SWAP2 MSTORE SWAP1 PUSH1 0xFF AND ISZERO PUSH2 0x1570 JUMPI DUP1 DUP4 MSTORE DUP3 PUSH1 0x20 MSTORE PUSH1 0x40 DUP4 KECCAK256 DUP3 DUP5 MSTORE PUSH1 0x20 MSTORE PUSH1 0x40 DUP4 KECCAK256 PUSH1 0xFF NOT DUP2 SLOAD AND SWAP1 SSTORE PUSH1 0x0 DUP1 MLOAD PUSH1 0x20 PUSH2 0x20F1 DUP4 CODECOPY DUP2 MLOAD SWAP2 MSTORE CALLER SWAP4 DUP1 LOG4 PUSH1 0x1 SWAP1 JUMP JUMPDEST SWAP1 PUSH1 0x0 SWAP2 DUP1 DUP4 MSTORE DUP3 PUSH1 0x20 MSTORE PUSH1 0x40 DUP4 KECCAK256 SWAP2 PUSH1 0x1 DUP1 PUSH1 0xA0 SHL SUB AND SWAP2 DUP3 DUP5 MSTORE PUSH1 0x20 MSTORE PUSH1 0xFF PUSH1 0x40 DUP5 KECCAK256 SLOAD AND PUSH1 0x0 EQ PUSH2 0x1570 JUMPI DUP1 DUP4 MSTORE DUP3 PUSH1 0x20 MSTORE PUSH1 0x40 DUP4 KECCAK256 DUP3 DUP5 MSTORE PUSH1 0x20 MSTORE PUSH1 0x40 DUP4 KECCAK256 PUSH1 0xFF NOT DUP2 SLOAD AND SWAP1 SSTORE PUSH1 0x0 DUP1 MLOAD PUSH1 0x20 PUSH2 0x20F1 DUP4 CODECOPY DUP2 MLOAD SWAP2 MSTORE CALLER SWAP4 DUP1 LOG4 PUSH1 0x1 SWAP1 JUMP JUMPDEST PUSH2 0x180 DUP2 ADD SWAP1 DUP2 LT PUSH1 0x1 PUSH1 0x1 PUSH1 0x40 SHL SUB DUP3 GT OR PUSH2 0x274 JUMPI PUSH1 0x40 MSTORE JUMP JUMPDEST PUSH1 0x40 DUP2 ADD SWAP1 DUP2 LT PUSH1 0x1 PUSH1 0x1 PUSH1 0x40 SHL SUB DUP3 GT OR PUSH2 0x274 JUMPI PUSH1 0x40 MSTORE JUMP JUMPDEST PUSH2 0x100 DUP2 ADD SWAP1 DUP2 LT PUSH1 0x1 PUSH1 0x1 PUSH1 0x40 SHL SUB DUP3 GT OR PUSH2 0x274 JUMPI PUSH1 0x40 MSTORE JUMP JUMPDEST PUSH1 0x1F SWAP1 SWAP2 ADD PUSH1 0x1F NOT AND DUP2 ADD SWAP1 PUSH1 0x1 PUSH1 0x1 PUSH1 0x40 SHL SUB DUP3 GT SWAP1 DUP3 LT OR PUSH2 0x274 JUMPI PUSH1 0x40 MSTORE JUMP JUMPDEST PUSH1 0x1 PUSH1 0x1 PUSH1 0x40 SHL SUB DUP2 GT PUSH2 0x274 JUMPI PUSH1 0x1F ADD PUSH1 0x1F NOT AND PUSH1 0x20 ADD SWAP1 JUMP JUMPDEST RETURNDATASIZE ISZERO PUSH2 0x1770 JUMPI RETURNDATASIZE SWAP1 PUSH2 0x1756 DUP3 PUSH2 0x172A JUMP JUMPDEST SWAP2 PUSH2 0x1764 PUSH1 0x40 MLOAD SWAP4 DUP5 PUSH2 0x1707 JUMP JUMPDEST DUP3 MSTORE RETURNDATASIZE PUSH1 0x0 PUSH1 0x20 DUP5 ADD RETURNDATACOPY JUMP JUMPDEST PUSH1 0x60 SWAP1 JUMP JUMPDEST MLOAD SWAP1 PUSH1 0x1 PUSH1 0x1 PUSH1 0x40 SHL SUB DUP3 AND DUP3 SUB PUSH2 0x25D JUMPI JUMP JUMPDEST PUSH1 0x0 DUP1 SWAP2 PUSH1 0x40 MLOAD PUSH4 0xFFFFFFFF PUSH1 0x20 DUP3 ADD SWAP3 AND DUP3 MSTORE PUSH1 0x20 DUP2 MSTORE PUSH2 0x17AA DUP2 PUSH2 0x16D0 JUMP JUMPDEST MLOAD SWAP1 PUSH2 0x807 GAS STATICCALL PUSH2 0x17B9 PUSH2 0x1745 JUMP JUMPDEST SWAP1 ISZERO PUSH2 0x262 JUMPI PUSH1 0x20 DUP2 DUP1 MLOAD DUP2 ADD SUB SLT PUSH2 0x25D JUMPI PUSH1 0x20 PUSH2 0x17D8 SWAP2 ADD PUSH2 0x1775 JUMP JUMPDEST SWAP1 JUMP JUMPDEST MLOAD SWAP1 PUSH1 0x1 PUSH1 0x1 PUSH1 0xA0 SHL SUB DUP3 AND DUP3 SUB PUSH2 0x25D JUMPI JUMP JUMPDEST MLOAD SWAP1 PUSH1 0xFF DUP3 AND DUP3 SUB PUSH2 0x25D JUMPI JUMP JUMPDEST PUSH1 0x40 SWAP1 DUP2 MLOAD SWAP1 PUSH1 0x20 SWAP2 PUSH4 0xFFFFFFFF DUP4 DUP3 ADD SWAP3 AND DUP3 MSTORE DUP3 DUP2 MSTORE PUSH2 0x181E DUP2 PUSH2 0x16D0 JUMP JUMPDEST PUSH1 0x0 DUP1 SWAP3 DUP2 SWAP3 MLOAD SWAP1 PUSH2 0x80C GAS STATICCALL SWAP2 PUSH2 0x1834 PUSH2 0x1745 JUMP JUMPDEST SWAP3 ISZERO PUSH2 0x198F JUMPI SWAP1 DUP3 SWAP2 DUP3 MLOAD DUP4 ADD DUP2 DUP2 ADD SWAP1 PUSH2 0x100 SWAP6 DUP7 SWAP2 SUB SLT PUSH2 0x198B JUMPI DUP4 DUP3 ADD MLOAD PUSH1 0x1 PUSH1 0x1 PUSH1 0x40 SHL SUB SWAP1 DUP2 DUP2 GT PUSH2 0x1987 JUMPI DUP6 ADD SWAP7 DUP3 PUSH1 0x3F DUP10 ADD SLT ISZERO PUSH2 0x1987 JUMPI DUP4 DUP9 ADD MLOAD PUSH2 0x1880 DUP2 PUSH2 0x172A JUMP JUMPDEST SWAP9 PUSH2 0x188D DUP4 MLOAD SWAP11 DUP12 PUSH2 0x1707 JUMP JUMPDEST DUP2 DUP11 MSTORE DUP5 DUP4 DUP4 DUP4 ADD ADD GT PUSH2 0x1983 JUMPI SWAP1 PUSH2 0x18AB SWAP2 DUP4 DUP8 DUP13 ADD SWAP2 ADD PUSH2 0x1451 JUMP JUMPDEST DUP1 DUP7 ADD MLOAD DUP3 DUP2 GT PUSH2 0x196B JUMPI DUP7 ADD DUP4 PUSH1 0x3F DUP3 ADD SLT ISZERO PUSH2 0x196B JUMPI DUP5 DUP2 ADD MLOAD SWAP3 DUP4 GT PUSH2 0x196F JUMPI DUP2 DUP6 DUP5 PUSH1 0x5 SHL SWAP5 DUP3 MLOAD SWAP1 PUSH2 0x18E4 DUP4 DUP9 ADD DUP4 PUSH2 0x1707 JUMP JUMPDEST DUP2 MSTORE ADD SWAP4 DUP3 ADD ADD SWAP4 DUP5 GT PUSH2 0x196B JUMPI ADD SWAP1 JUMPDEST DUP3 DUP3 LT PUSH2 0x1954 JUMPI POP POP POP POP PUSH2 0x190C PUSH1 0x60 DUP4 ADD PUSH2 0x1775 JUMP JUMPDEST POP PUSH2 0x1919 PUSH1 0x80 DUP4 ADD PUSH2 0x17DB JUMP JUMPDEST POP PUSH2 0x1926 PUSH1 0xA0 DUP4 ADD PUSH2 0x17DB JUMP JUMPDEST POP PUSH2 0x1933 PUSH1 0xC0 DUP4 ADD PUSH2 0x17EF JUMP JUMPDEST SWAP3 PUSH2 0x1940 PUSH1 0xE0 DUP5 ADD PUSH2 0x17EF JUMP JUMPDEST SWAP3 ADD MLOAD DUP1 DUP3 SIGNEXTEND SUB PUSH2 0x1951 JUMPI POP SWAP1 SWAP2 SWAP3 JUMP JUMPDEST DUP1 REVERT JUMPDEST DUP4 DUP1 SWAP2 PUSH2 0x1960 DUP5 PUSH2 0x1775 JUMP JUMPDEST DUP2 MSTORE ADD SWAP2 ADD SWAP1 PUSH2 0x18F5 JUMP JUMPDEST DUP6 DUP1 REVERT JUMPDEST PUSH4 0x4E487B71 PUSH1 0xE0 SHL DUP7 MSTORE PUSH1 0x41 PUSH1 0x4 MSTORE PUSH1 0x24 DUP7 REVERT JUMPDEST DUP7 DUP1 REVERT JUMPDEST DUP5 DUP1 REVERT JUMPDEST DUP3 DUP1 REVERT JUMPDEST DUP4 MLOAD PUSH4 0x83905249 PUSH1 0xE0 SHL DUP2 MSTORE PUSH1 0x4 SWAP1 REVERT JUMPDEST PUSH1 0xFF AND PUSH1 0x4D DUP2 GT PUSH2 0x1105 JUMPI PUSH1 0xA EXP SWAP1 JUMP JUMPDEST DUP2 DUP2 MUL SWAP3 SWAP2 DUP2 ISZERO SWAP2 DUP5 DIV EQ OR ISZERO PUSH2 0x1105 JUMPI JUMP JUMPDEST DUP2 ISZERO PUSH2 0x19CE JUMPI DIV SWAP1 JUMP JUMPDEST PUSH4 0x4E487B71 PUSH1 0xE0 SHL PUSH1 0x0 MSTORE PUSH1 0x12 PUSH1 0x4 MSTORE PUSH1 0x24 PUSH1 0x0 REVERT JUMPDEST SWAP1 PUSH1 0xFF AND PUSH1 0x12 DUP2 LT PUSH2 0x1A18 JUMPI PUSH1 0x11 NOT ADD SWAP1 PUSH1 0xFF DUP3 GT PUSH2 0x1105 JUMPI PUSH2 0x1A09 PUSH2 0x17D8 SWAP3 PUSH2 0x19A0 JUMP JUMPDEST SWAP1 PUSH1 0x1 PUSH1 0x1 PUSH1 0x40 SHL SUB AND PUSH2 0x19C4 JUMP JUMPDEST PUSH1 0x12 SUB SWAP1 PUSH1 0xFF DUP3 GT PUSH2 0x1105 JUMPI PUSH2 0x1A30 PUSH2 0x17D8 SWAP3 PUSH2 0x19A0 JUMP JUMPDEST SWAP1 PUSH1 0x1 PUSH1 0x1 PUSH1 0x40 SHL SUB AND PUSH2 0x19B1 JUMP JUMPDEST SWAP2 SWAP1 DUP3 ADD DUP1 SWAP3 GT PUSH2 0x1105 JUMPI JUMP JUMPDEST PUSH1 0xFF PUSH1 0x2 SLOAD AND PUSH2 0x1A58 JUMPI JUMP JUMPDEST PUSH1 0x40 MLOAD PUSH4 0xD93C0665 PUSH1 0xE0 SHL DUP2 MSTORE PUSH1 0x4 SWAP1 REVERT JUMPDEST PUSH1 0x2 PUSH1 0x1 SLOAD EQ PUSH2 0x1A7B JUMPI PUSH1 0x2 PUSH1 0x1 SSTORE JUMP JUMPDEST PUSH1 0x40 MLOAD PUSH4 0x3EE5AEB5 PUSH1 0xE0 SHL DUP2 MSTORE PUSH1 0x4 SWAP1 REVERT JUMPDEST SWAP2 SWAP1 DUP3 SUB SWAP2 DUP3 GT PUSH2 0x1105 JUMPI JUMP JUMPDEST PUSH1 0x0 MSTORE PUSH1 0x5 PUSH1 0x20 MSTORE PUSH1 0x40 PUSH1 0x0 KECCAK256 PUSH1 0x40 MLOAD PUSH2 0x1AB3 DUP2 PUSH2 0x16B4 JUMP JUMPDEST DUP2 SLOAD DUP2 MSTORE PUSH1 0x1 DUP3 ADD SLOAD PUSH1 0x1 DUP1 PUSH1 0xA0 SHL SUB DUP2 AND SWAP2 DUP3 PUSH1 0x20 DUP3 ADD MSTORE PUSH4 0xFFFFFFFF DUP3 PUSH1 0xA0 SHR AND SWAP2 DUP3 PUSH1 0x40 DUP4 ADD MSTORE PUSH1 0xC0 SHR PUSH1 0x60 DUP3 ADD MSTORE PUSH1 0x1 DUP1 PUSH1 0x40 SHL SUB SWAP2 DUP3 PUSH1 0x2 DUP7 ADD SLOAD AND SWAP2 PUSH1 0x80 DUP2 ADD SWAP3 DUP4 MSTORE PUSH1 0x3 DUP7 ADD SLOAD PUSH1 0xA0 DUP3 ADD MSTORE PUSH2 0x160 PUSH1 0x4 DUP8 ADD SLOAD SWAP6 PUSH1 0xC0 DUP4 ADD SWAP7 DUP8 MSTORE PUSH1 0x8 PUSH1 0xFF PUSH1 0x5 DUP11 ADD SLOAD AND SWAP9 PUSH1 0xE0 DUP6 ADD SWAP10 ISZERO ISZERO DUP11 MSTORE PUSH1 0x6 DUP2 ADD SLOAD PUSH2 0x100 DUP7 ADD MSTORE PUSH1 0x7 DUP2 ADD SLOAD PUSH2 0x120 DUP7 ADD MSTORE ADD SLOAD SWAP3 PUSH1 0xFF DUP1 DUP6 AND ISZERO ISZERO SWAP5 DUP6 PUSH2 0x140 DUP5 ADD MSTORE PUSH1 0x8 SHR AND ISZERO ISZERO SWAP3 DUP4 SWAP2 ADD MSTORE ISZERO SWAP2 DUP3 ISZERO PUSH2 0x1BBE JUMPI JUMPDEST POP DUP2 ISZERO PUSH2 0x1BB6 JUMPI JUMPDEST POP PUSH2 0x1BA9 JUMPI PUSH2 0x1B94 SWAP3 PUSH2 0x1B83 PUSH2 0x1B8B SWAP3 PUSH2 0x1789 JUMP JUMPDEST SWAP3 MLOAD AND PUSH2 0x17FD JUMP JUMPDEST POP SWAP2 SWAP1 POP PUSH2 0x19E4 JUMP JUMPDEST SWAP2 MLOAD ISZERO PUSH2 0x1BA2 JUMPI MLOAD DUP2 LT ISZERO SWAP2 JUMP JUMPDEST MLOAD DUP2 GT ISZERO SWAP2 JUMP JUMPDEST POP POP POP POP POP PUSH1 0x0 SWAP1 PUSH1 0x0 SWAP1 JUMP JUMPDEST SWAP1 POP CODESIZE PUSH2 0x1B6E JUMP JUMPDEST SWAP2 POP CODESIZE PUSH2 0x1B66 JUMP JUMPDEST PUSH1 0x1 PUSH1 0x1 PUSH1 0x40 SHL SUB AND DUP1 PUSH2 0x1BED JUMPI POP PUSH20 0x2222222222222222222222222222222222222222 SWAP1 JUMP JUMPDEST PUSH1 0x1 PUSH1 0x9D SHL OR SWAP1 JUMP JUMPDEST PUSH1 0x1 PUSH1 0x1 PUSH1 0xA0 SHL SUB SWAP1 SWAP2 AND DUP2 MSTORE PUSH1 0x1 PUSH1 0x1 PUSH1 0x40 SHL SUB SWAP2 DUP3 AND PUSH1 0x20 DUP3 ADD MSTORE SWAP2 AND PUSH1 0x40 DUP3 ADD MSTORE PUSH1 0x60 ADD SWAP1 JUMP JUMPDEST PUSH1 0x1 PUSH1 0xF8 SHL DUP2 MSTORE PUSH1 0x3 PUSH1 0xE9 SHL PUSH1 0x1 DUP3 ADD MSTORE DUP2 MLOAD PUSH1 0x4 SWAP3 SWAP1 SWAP2 SWAP1 PUSH2 0x1C4B SWAP1 DUP4 SWAP1 DUP6 DUP5 ADD SWAP1 PUSH1 0x20 ADD PUSH2 0x1451 JUMP JUMPDEST ADD ADD SWAP1 JUMP JUMPDEST PUSH1 0x1 PUSH1 0xF8 SHL DUP2 MSTORE PUSH1 0x1 PUSH1 0xE8 SHL PUSH1 0x1 DUP3 ADD MSTORE DUP2 MLOAD PUSH1 0x4 SWAP3 SWAP1 SWAP2 SWAP1 PUSH2 0x1C4B SWAP1 DUP4 SWAP1 DUP6 DUP5 ADD SWAP1 PUSH1 0x20 ADD PUSH2 0x1451 JUMP JUMPDEST PUSH1 0x0 PUSH2 0x1CAA PUSH2 0x1CC7 PUSH2 0x1CAA PUSH2 0x1CB8 DUP5 SWAP6 SWAP11 SWAP9 SWAP10 SWAP8 SWAP11 PUSH1 0x40 MLOAD SWAP3 DUP4 SWAP2 DUP10 DUP14 PUSH1 0x1 DUP1 PUSH1 0x40 SHL SUB AND SWAP2 PUSH1 0x20 DUP6 ADD PUSH2 0x1BF6 JUMP JUMPDEST SUB PUSH1 0x1F NOT DUP2 ADD DUP4 MSTORE DUP3 PUSH2 0x1707 JUMP JUMPDEST PUSH1 0x40 MLOAD SWAP3 DUP4 SWAP2 PUSH1 0x20 DUP4 ADD PUSH2 0x1C20 JUMP JUMPDEST PUSH1 0x40 MLOAD PUSH2 0x1CF1 DUP2 PUSH2 0x1CAA PUSH1 0x20 DUP3 ADD SWAP5 PUSH4 0x17938E13 PUSH1 0xE0 SHL DUP7 MSTORE PUSH1 0x20 PUSH1 0x24 DUP5 ADD MSTORE PUSH1 0x44 DUP4 ADD SWAP1 PUSH2 0x1474 JUMP JUMPDEST MLOAD SWAP1 DUP3 PUSH20 0x3333333333333333333333333333333333333333 GAS CALL PUSH2 0x1D13 PUSH2 0x1745 JUMP JUMPDEST POP ISZERO PUSH2 0x1DF8 JUMPI PUSH1 0x0 NOT PUSH1 0x1 PUSH1 0x1 PUSH1 0x40 SHL SUB DUP3 AND ADD PUSH2 0x1FD6 JUMPI JUMPDEST POP DUP3 SWAP2 PUSH1 0x0 NOT PUSH1 0x1 PUSH1 0x1 PUSH1 0x40 SHL SUB DUP7 AND ADD PUSH2 0x1E1A JUMPI JUMPDEST POP PUSH1 0x0 SWAP3 DUP4 SWAP3 PUSH2 0x1CAA SWAP3 POP PUSH2 0x1DA3 SWAP2 SWAP1 PUSH1 0x1 PUSH1 0x1 PUSH1 0x40 SHL SUB DUP8 AND PUSH1 0x1 SUB PUSH2 0x1E12 JUMPI PUSH1 0x1 DUP1 SWAP8 JUMPDEST DUP2 DUP1 PUSH1 0x40 SHL SUB AND EQ DUP6 EQ PUSH2 0x1E0A JUMPI POP SWAP5 JUMPDEST PUSH2 0x1CB8 PUSH2 0x1D85 DUP3 PUSH2 0x1BC6 JUMP JUMPDEST PUSH1 0x40 MLOAD SWAP3 DUP4 SWAP2 PUSH2 0x1CAA SWAP2 PUSH1 0x1 PUSH1 0x1 PUSH1 0x40 SHL SUB DUP12 AND SWAP2 PUSH1 0x20 DUP6 ADD PUSH2 0x1BF6 JUMP JUMPDEST PUSH1 0x40 MLOAD PUSH2 0x1DCD DUP2 PUSH2 0x1CAA PUSH1 0x20 DUP3 ADD SWAP5 PUSH4 0x17938E13 PUSH1 0xE0 SHL DUP7 MSTORE PUSH1 0x20 PUSH1 0x24 DUP5 ADD MSTORE PUSH1 0x44 DUP4 ADD SWAP1 PUSH2 0x1474 JUMP JUMPDEST MLOAD SWAP1 DUP3 PUSH20 0x3333333333333333333333333333333333333333 GAS CALL PUSH2 0x1DEF PUSH2 0x1745 JUMP JUMPDEST POP ISZERO PUSH2 0x1DF8 JUMPI SWAP1 JUMP JUMPDEST PUSH1 0x40 MLOAD PUSH4 0x2C7F6F83 PUSH1 0xE0 SHL DUP2 MSTORE PUSH1 0x4 SWAP1 REVERT JUMPDEST SWAP1 POP SWAP5 PUSH2 0x1D79 JUMP JUMPDEST PUSH1 0x1 DUP8 PUSH2 0x1D68 JUMP JUMPDEST SWAP1 SWAP2 POP PUSH1 0x0 DUP1 PUSH2 0x1CAA PUSH2 0x1E87 PUSH1 0x40 MLOAD PUSH4 0xFFFFFFFF DUP10 AND PUSH1 0x20 DUP3 ADD MSTORE PUSH1 0x1 PUSH1 0x40 DUP3 ADD MSTORE PUSH1 0x1 DUP1 PUSH1 0x40 SHL SUB DUP8 AND PUSH1 0x60 DUP3 ADD MSTORE PUSH1 0x1 DUP1 PUSH1 0x40 SHL SUB DUP9 AND PUSH1 0x80 DUP3 ADD MSTORE DUP4 PUSH1 0xA0 DUP3 ADD MSTORE PUSH1 0x3 PUSH1 0xC0 DUP3 ADD MSTORE DUP4 PUSH1 0xE0 DUP3 ADD MSTORE PUSH1 0xE0 DUP2 MSTORE PUSH2 0x1E78 DUP2 PUSH2 0x16EB JUMP JUMPDEST PUSH1 0x40 MLOAD SWAP3 DUP4 SWAP2 PUSH1 0x20 DUP4 ADD PUSH2 0x1C50 JUMP JUMPDEST PUSH1 0x40 MLOAD PUSH2 0x1EB1 DUP2 PUSH2 0x1CAA PUSH1 0x20 DUP3 ADD SWAP5 PUSH4 0x17938E13 PUSH1 0xE0 SHL DUP7 MSTORE PUSH1 0x20 PUSH1 0x24 DUP5 ADD MSTORE PUSH1 0x44 DUP4 ADD SWAP1 PUSH2 0x1474 JUMP JUMPDEST MLOAD SWAP1 DUP3 PUSH20 0x3333333333333333333333333333333333333333 GAS CALL PUSH2 0x1ED3 PUSH2 0x1745 JUMP JUMPDEST POP ISZERO PUSH2 0x1F07 JUMPI PUSH2 0x1DA3 PUSH1 0x0 SWAP4 PUSH2 0x1EFE DUP6 SWAP5 PUSH2 0x1EF9 PUSH2 0x1EF3 PUSH2 0x1CAA SWAP7 PUSH2 0x19A0 JUMP JUMPDEST DUP5 PUSH2 0x19B1 JUMP JUMPDEST PUSH2 0x19C4 JUMP JUMPDEST SWAP4 POP SWAP4 POP PUSH2 0x1D42 JUMP JUMPDEST PUSH1 0x40 DUP1 MLOAD PUSH1 0x1 PUSH1 0x1 PUSH1 0x9D SHL ADD PUSH1 0x20 DUP3 ADD MSTORE PUSH1 0x1 SWAP2 DUP2 ADD SWAP2 SWAP1 SWAP2 MSTORE PUSH1 0x1 PUSH1 0x1 PUSH1 0x40 SHL SUB DUP1 DUP6 AND PUSH1 0x60 DUP1 DUP5 ADD SWAP2 SWAP1 SWAP2 MSTORE DUP3 MSTORE PUSH1 0x80 DUP3 ADD SWAP2 SWAP1 DUP3 GT DUP2 DUP4 LT OR PUSH2 0x274 JUMPI PUSH1 0x0 DUP3 PUSH2 0x1F72 DUP3 SWAP4 DUP3 PUSH1 0x40 MSTORE PUSH2 0x1F60 DUP2 PUSH1 0xA0 DUP2 ADD PUSH2 0x1C20 JUMP JUMPDEST SUB PUSH1 0x9F NOT DUP2 ADD DUP4 MSTORE PUSH1 0x7F NOT ADD DUP3 PUSH2 0x1707 JUMP JUMPDEST PUSH1 0x40 MLOAD PUSH2 0x1F9C DUP2 PUSH2 0x1CAA PUSH1 0x20 DUP3 ADD SWAP5 PUSH4 0x17938E13 PUSH1 0xE0 SHL DUP7 MSTORE PUSH1 0x20 PUSH1 0x24 DUP5 ADD MSTORE PUSH1 0x44 DUP4 ADD SWAP1 PUSH2 0x1474 JUMP JUMPDEST MLOAD SWAP1 DUP3 PUSH20 0x3333333333333333333333333333333333333333 GAS CALL PUSH2 0x1FBE PUSH2 0x1745 JUMP JUMPDEST POP ISZERO PUSH2 0x1DF8 JUMPI PUSH1 0x40 MLOAD PUSH4 0x2C7F6F83 PUSH1 0xE0 SHL DUP2 MSTORE PUSH1 0x4 SWAP1 REVERT JUMPDEST PUSH1 0x0 DUP1 PUSH2 0x1CAA PUSH2 0x202C PUSH1 0x40 MLOAD PUSH1 0x1 PUSH1 0x20 DUP3 ADD MSTORE PUSH1 0x1 PUSH1 0x40 DUP3 ADD MSTORE PUSH1 0x1 DUP1 PUSH1 0x40 SHL SUB DUP8 AND PUSH1 0x60 DUP3 ADD MSTORE PUSH1 0x1 DUP1 PUSH1 0x40 SHL SUB DUP10 AND PUSH1 0x80 DUP3 ADD MSTORE DUP4 PUSH1 0xA0 DUP3 ADD MSTORE PUSH1 0x3 PUSH1 0xC0 DUP3 ADD MSTORE DUP4 PUSH1 0xE0 DUP3 ADD MSTORE PUSH1 0xE0 DUP2 MSTORE PUSH2 0x1E78 DUP2 PUSH2 0x16EB JUMP JUMPDEST PUSH1 0x40 MLOAD PUSH2 0x2056 DUP2 PUSH2 0x1CAA PUSH1 0x20 DUP3 ADD SWAP5 PUSH4 0x17938E13 PUSH1 0xE0 SHL DUP7 MSTORE PUSH1 0x20 PUSH1 0x24 DUP5 ADD MSTORE PUSH1 0x44 DUP4 ADD SWAP1 PUSH2 0x1474 JUMP JUMPDEST MLOAD SWAP1 DUP3 PUSH20 0x3333333333333333333333333333333333333333 GAS CALL PUSH2 0x2078 PUSH2 0x1745 JUMP JUMPDEST POP PUSH2 0x1D2C JUMPI PUSH1 0x0 PUSH2 0x1CAA PUSH2 0x1F72 DUP4 PUSH2 0x1CB8 DUP9 PUSH2 0x1CAA PUSH2 0x2097 DUP8 SWAP9 PUSH2 0x1BC6 JUMP JUMPDEST PUSH1 0x40 MLOAD SWAP5 DUP6 SWAP4 PUSH1 0x1 PUSH1 0x1 PUSH1 0x40 SHL SUB AND SWAP2 PUSH1 0x20 DUP6 ADD PUSH2 0x1BF6 JUMP INVALID 0x2F DUP8 DUP9 GT PUSH31 0x7EFF1D82E926EC794901D17C78024A50270940304540A733656F0DDAE2AA36 SAR REVERT SHR LOG0 KECCAK256 LOG3 SWAP7 PUSH2 0x5627 0xD4 CALLDATASIZE LT PUSH29 0x35EFF9FE7738A3512819782D7069F6391F5C32D9C69D2A47EA670B4429 PUSH21 0xB53935D1EDC7FD64EB21E047A839171BD8AA0F3194 SWAP8 BYTE 0x2A GT PUSH7 0x79F7C2090F6939 0xC8 0xD4 0xE0 BYTE 0x2A DUP14 PUSH31 0x41D55E5351469E63A2646970667358221220008F77A7110D556D2D2F9A21D0 0x24 PUSH31 0x3EA0ADFDB410B374624C5BDA897457BCEF64736F6C634300081400332F8788 GT PUSH31 0x7EFF1D82E926EC794901D17C78024A50270940304540A733656F0D00000000 "},"methodIdentifiers":{"DEFAULT_ADMIN_ROLE()":"a217fddf","EXECUTOR_ROLE()":"07bd0265","MAX_SLIPPAGE()":"f9759518","cancelTrigger(uint256)":"d45ddd9c","convertOraclePrice(uint64,uint8)":"eae5cc9b","createTrigger(uint32,uint64,uint64,uint256,uint256,bool,uint256)":"2441f8c7","emergencyWithdraw()":"db2e21bc","executeSwap(uint32,uint64,uint64,uint256,uint256)":"6ccf8c27","executeTrigger(uint256)":"10f58844","executionReward()":"1c2c7546","getOraclePrice(uint32)":"2af78bd1","getPriceAndTokenName(uint32,uint64)":"adb817cc","getRoleAdmin(bytes32)":"248a9ca3","getSystemAddress(uint64)":"ecf7ab06","getTokenInfo(uint64)":"e11f7c1d","getTrigger(uint256)":"9c50472b","getUserSpotBalance(address,uint64)":"fdb87ec7","getUserTriggers(address)":"71876a16","grantExecutorRole(address)":"80a4d414","grantRole(bytes32,address)":"2f2ff15d","hasRole(bytes32,address)":"91d14854","isTriggerReady(uint256)":"c548da74","nextTriggerId()":"42227fa4","pause()":"8456cb59","paused()":"5c975abb","renounceRole(bytes32,address)":"36568abe","revokeExecutorRole(address)":"49a396b9","revokeRole(bytes32,address)":"d547741f","setExecutionReward(uint256)":"82b33021","supportsInterface(bytes4)":"01ffc9a7","triggers(uint256)":"a78dd42e","unpause()":"3f4ba83a","userDeposits(address,uint64)":"8ae63a00","userTriggers(address,uint256)":"a3498325"}},"storageLayout":{"storage":[{"astId":26,"contract":"contracts/TriggerManager.sol:TriggerManager","label":"_roles","offset":0,"slot":"0","type":"t_mapping(t_bytes32,t_struct(RoleData)21_storage)"},{"astId":1431,"contract":"contracts/TriggerManager.sol:TriggerManager","label":"_status","offset":0,"slot":"1","type":"t_uint256"},{"astId":1321,"contract":"contracts/TriggerManager.sol:TriggerManager","label":"_paused","offset":0,"slot":"2","type":"t_bool"},{"astId":2122,"contract":"contracts/TriggerManager.sol:TriggerManager","label":"executionReward","offset":0,"slot":"3","type":"t_uint256"},{"astId":2125,"contract":"contracts/TriggerManager.sol:TriggerManager","label":"nextTriggerId","offset":0,"slot":"4","type":"t_uint256"},{"astId":2164,"contract":"contracts/TriggerManager.sol:TriggerManager","label":"triggers","offset":0,"slot":"5","type":"t_mapping(t_uint256,t_struct(Trigger)2159_storage)"},{"astId":2169,"contract":"contracts/TriggerManager.sol:TriggerManager","label":"userTriggers","offset":0,"slot":"6","type":"t_mapping(t_address,t_array(t_uint256)dyn_storage)"},{"astId":2175,"contract":"contracts/TriggerManager.sol:TriggerManager","label":"userDeposits","offset":0,"slot":"7","type":"t_mapping(t_address,t_mapping(t_uint64,t_uint256))"}],"types":{"t_address":{"encoding":"inplace","label":"address","numberOfBytes":"20"},"t_array(t_uint256)dyn_storage":{"base":"t_uint256","encoding":"dynamic_array","label":"uint256[]","numberOfBytes":"32"},"t_bool":{"encoding":"inplace","label":"bool","numberOfBytes":"1"},"t_bytes32":{"encoding":"inplace","label":"bytes32","numberOfBytes":"32"},"t_mapping(t_address,t_array(t_uint256)dyn_storage)":{"encoding":"mapping","key":"t_address","label":"mapping(address => uint256[])","numberOfBytes":"32","value":"t_array(t_uint256)dyn_storage"},"t_mapping(t_address,t_bool)":{"encoding":"mapping","key":"t_address","label":"mapping(address => bool)","numberOfBytes":"32","value":"t_bool"},"t_mapping(t_address,t_mapping(t_uint64,t_uint256))":{"encoding":"mapping","key":"t_address","label":"mapping(address => mapping(uint64 => uint256))","numberOfBytes":"32","value":"t_mapping(t_uint64,t_uint256)"},"t_mapping(t_bytes32,t_struct(RoleData)21_storage)":{"encoding":"mapping","key":"t_bytes32","label":"mapping(bytes32 => struct AccessControl.RoleData)","numberOfBytes":"32","value":"t_struct(RoleData)21_storage"},"t_mapping(t_uint256,t_struct(Trigger)2159_storage)":{"encoding":"mapping","key":"t_uint256","label":"mapping(uint256 => struct TriggerManager.Trigger)","numberOfBytes":"32","value":"t_struct(Trigger)2159_storage"},"t_mapping(t_uint64,t_uint256)":{"encoding":"mapping","key":"t_uint64","label":"mapping(uint64 => uint256)","numberOfBytes":"32","value":"t_uint256"},"t_struct(RoleData)21_storage":{"encoding":"inplace","label":"struct AccessControl.RoleData","members":[{"astId":18,"contract":"contracts/TriggerManager.sol:TriggerManager","label":"hasRole","offset":0,"slot":"0","type":"t_mapping(t_address,t_bool)"},{"astId":20,"contract":"contracts/TriggerManager.sol:TriggerManager","label":"adminRole","offset":0,"slot":"1","type":"t_bytes32"}],"numberOfBytes":"64"},"t_struct(Trigger)2159_storage":{"encoding":"inplace","label":"struct TriggerManager.Trigger","members":[{"astId":2136,"contract":"contracts/TriggerManager.sol:TriggerManager","label":"id","offset":0,"slot":"0","type":"t_uint256"},{"astId":2138,"contract":"contracts/TriggerManager.sol:TriggerManager","label":"user","offset":0,"slot":"1","type":"t_address"},{"astId":2140,"contract":"contracts/TriggerManager.sol:TriggerManager","label":"oracleIndex","offset":20,"slot":"1","type":"t_uint32"},{"astId":2142,"contract":"contracts/TriggerManager.sol:TriggerManager","label":"fromToken","offset":24,"slot":"1","type":"t_uint64"},{"astId":2144,"contract":"contracts/TriggerManager.sol:TriggerManager","label":"targetToken","offset":0,"slot":"2","type":"t_uint64"},{"astId":2146,"contract":"contracts/TriggerManager.sol:TriggerManager","label":"fromAmount","offset":0,"slot":"3","type":"t_uint256"},{"astId":2148,"contract":"contracts/TriggerManager.sol:TriggerManager","label":"triggerPrice","offset":0,"slot":"4","type":"t_uint256"},{"astId":2150,"contract":"contracts/TriggerManager.sol:TriggerManager","label":"isAbove","offset":0,"slot":"5","type":"t_bool"},{"astId":2152,"contract":"contracts/TriggerManager.sol:TriggerManager","label":"maxSlippage","offset":0,"slot":"6","type":"t_uint256"},{"astId":2154,"contract":"contracts/TriggerManager.sol:TriggerManager","label":"createdAt","offset":0,"slot":"7","type":"t_uint256"},{"astId":2156,"contract":"contracts/TriggerManager.sol:TriggerManager","label":"isExecuted","offset":0,"slot":"8","type":"t_bool"},{"astId":2158,"contract":"contracts/TriggerManager.sol:TriggerManager","label":"isCancelled","offset":1,"slot":"8","type":"t_bool"}],"numberOfBytes":"288"},"t_uint256":{"encoding":"inplace","label":"uint256","numberOfBytes":"32"},"t_uint32":{"encoding":"inplace","label":"uint32","numberOfBytes":"4"},"t_uint64":{"encoding":"inplace","label":"uint64","numberOfBytes":"8"}}}}}}