{"contracts/L1Read.sol":{"L1Read":{"abi":[{"inputs":[{"internalType":"address","name":"user","type":"address"}],"name":"delegations","outputs":[{"components":[{"internalType":"address","name":"validator","type":"address"},{"internalType":"uint64","name":"amount","type":"uint64"},{"internalType":"uint64","name":"lockedUntilTimestamp","type":"uint64"}],"internalType":"struct L1Read.Delegation[]","name":"","type":"tuple[]"}],"stateMutability":"view","type":"function"},{"inputs":[{"internalType":"address","name":"user","type":"address"}],"name":"delegatorSummary","outputs":[{"components":[{"internalType":"uint64","name":"delegated","type":"uint64"},{"internalType":"uint64","name":"undelegated","type":"uint64"},{"internalType":"uint64","name":"totalPendingWithdrawal","type":"uint64"},{"internalType":"uint64","name":"nPendingWithdrawals","type":"uint64"}],"internalType":"struct L1Read.DelegatorSummary","name":"","type":"tuple"}],"stateMutability":"view","type":"function"},{"inputs":[],"name":"l1BlockNumber","outputs":[{"internalType":"uint64","name":"","type":"uint64"}],"stateMutability":"view","type":"function"},{"inputs":[{"internalType":"uint32","name":"index","type":"uint32"}],"name":"markPx","outputs":[{"internalType":"uint64","name":"","type":"uint64"}],"stateMutability":"view","type":"function"},{"inputs":[{"internalType":"uint32","name":"index","type":"uint32"}],"name":"oraclePx","outputs":[{"internalType":"uint64","name":"","type":"uint64"}],"stateMutability":"view","type":"function"},{"inputs":[{"internalType":"uint32","name":"perp","type":"uint32"}],"name":"perpAssetInfo","outputs":[{"components":[{"internalType":"string","name":"coin","type":"string"},{"internalType":"uint32","name":"marginTableId","type":"uint32"},{"internalType":"uint8","name":"szDecimals","type":"uint8"},{"internalType":"uint8","name":"maxLeverage","type":"uint8"},{"internalType":"bool","name":"onlyIsolated","type":"bool"}],"internalType":"struct L1Read.PerpAssetInfo","name":"","type":"tuple"}],"stateMutability":"view","type":"function"},{"inputs":[{"internalType":"address","name":"user","type":"address"},{"internalType":"uint16","name":"perp","type":"uint16"}],"name":"position","outputs":[{"components":[{"internalType":"int64","name":"szi","type":"int64"},{"internalType":"uint64","name":"entryNtl","type":"uint64"},{"internalType":"int64","name":"isolatedRawUsd","type":"int64"},{"internalType":"uint32","name":"leverage","type":"uint32"},{"internalType":"bool","name":"isIsolated","type":"bool"}],"internalType":"struct L1Read.Position","name":"","type":"tuple"}],"stateMutability":"view","type":"function"},{"inputs":[{"internalType":"address","name":"user","type":"address"},{"internalType":"uint64","name":"token","type":"uint64"}],"name":"spotBalance","outputs":[{"components":[{"internalType":"uint64","name":"total","type":"uint64"},{"internalType":"uint64","name":"hold","type":"uint64"},{"internalType":"uint64","name":"entryNtl","type":"uint64"}],"internalType":"struct L1Read.SpotBalance","name":"","type":"tuple"}],"stateMutability":"view","type":"function"},{"inputs":[{"internalType":"uint32","name":"spot","type":"uint32"}],"name":"spotInfo","outputs":[{"components":[{"internalType":"string","name":"name","type":"string"},{"internalType":"uint64[2]","name":"tokens","type":"uint64[2]"}],"internalType":"struct L1Read.SpotInfo","name":"","type":"tuple"}],"stateMutability":"view","type":"function"},{"inputs":[{"internalType":"uint32","name":"index","type":"uint32"}],"name":"spotPx","outputs":[{"internalType":"uint64","name":"","type":"uint64"}],"stateMutability":"view","type":"function"},{"inputs":[{"internalType":"uint32","name":"token","type":"uint32"}],"name":"tokenInfo","outputs":[{"components":[{"internalType":"string","name":"name","type":"string"},{"internalType":"uint64[]","name":"spots","type":"uint64[]"},{"internalType":"uint64","name":"deployerTradingFeeShare","type":"uint64"},{"internalType":"address","name":"deployer","type":"address"},{"internalType":"address","name":"evmContract","type":"address"},{"internalType":"uint8","name":"szDecimals","type":"uint8"},{"internalType":"uint8","name":"weiDecimals","type":"uint8"},{"internalType":"int8","name":"evmExtraWeiDecimals","type":"int8"}],"internalType":"struct L1Read.TokenInfo","name":"","type":"tuple"}],"stateMutability":"view","type":"function"},{"inputs":[{"internalType":"address","name":"user","type":"address"},{"internalType":"address","name":"vault","type":"address"}],"name":"userVaultEquity","outputs":[{"components":[{"internalType":"uint64","name":"equity","type":"uint64"},{"internalType":"uint64","name":"lockedUntilTimestamp","type":"uint64"}],"internalType":"struct L1Read.UserVaultEquity","name":"","type":"tuple"}],"stateMutability":"view","type":"function"},{"inputs":[{"internalType":"address","name":"user","type":"address"}],"name":"withdrawable","outputs":[{"components":[{"internalType":"uint64","name":"withdrawable","type":"uint64"}],"internalType":"struct L1Read.Withdrawable","name":"","type":"tuple"}],"stateMutability":"view","type":"function"}],"evm":{"bytecode":{"linkReferences":{},"object":"60808060405234610016576113f0908161001c8239f35b600080fdfe60806040908082526004908136101561001757600080fd5b600090813560e01c908163298c9005146110ca5750806337f980a514610f8e5780634162cd3214610de157806368fb110914610b2c57806389cf7c89146109b35780639070275914610904578063a69610d1146107cc578063b6dff0b51461060f578063bffe348614610430578063c0f0f5ef14610381578063c8eec8c6146102bd578063ce513b6f146101d45763ee1b5af1146100b457600080fd5b3461017f578260031936011261017f576100cc611172565b6024356001600160a01b038181169392918490036101d057829182918751956100f487611258565b8387528360208098015288519187830193168352888201528781526101188161123d565b51906108025afa926101286112cc565b93156101825750838380518101031261017f575082519161014883611258565b81610162856101588385016112fc565b93848752016112fc565b930192835283516001600160401b03918216815292511690820152f35b80fd5b845162461bcd60e51b8152908101839052602260248201527f5661756c7445717569747920707265636f6d70696c652063616c6c206661696c604482015261195960f21b6064820152608490fd5b8280fd5b5091346101d0576020928360031936011261017f5780806101f3611172565b8185516101ff81611273565b5284516001600160a01b039091168782019081528782529061022081611258565b51906108035afa926102306112cc565b931561026e5750838380518101031261017f575061025a8382519361025485611273565b016112fc565b91829052516001600160401b039091168152f35b825162461bcd60e51b8152908101859052602360248201527f576974686472617761626c6520707265636f6d70696c652063616c6c206661696044820152621b195960ea1b6064820152608490fd5b509190346101d0576020928360031936011261017f57813563ffffffff811680910361037d5781809185518781019182528781526102fa81611258565b51906108065afa9161030a6112cc565b921561033a5750838280518101031261017f57508261032991016112fc565b90516001600160401b039091168152f35b835162461bcd60e51b8152908101859052601d60248201527f4d61726b507820707265636f6d70696c652063616c6c206661696c65640000006044820152606490fd5b5080fd5b509190346101d0576020928360031936011261017f57813563ffffffff811680910361037d5781809185518781019182528781526103be81611258565b51906108075afa916103ce6112cc565b92156103ed5750838280518101031261017f57508261032991016112fc565b835162461bcd60e51b8152908101859052601f60248201527f4f7261636c65507820707265636f6d70696c652063616c6c206661696c6564006044820152606490fd5b50823461037d576020806003193601126101d05761044c611172565b92808084518481019060018060a01b03809816825285815261046d81611258565b51906108045afa9461047d6112cc565b95156105c1575084518501928284019083878603126101d057868401516001600160401b03978882116105bd57019682603f890112156105b95784880151926104c584611381565b966104d28451988961128e565b84885286880190819a8560608098028201019384116105b5579480949a96959b9998979b01915b838310610554575050505080519684880195858952518096528188019698935b8685106105265788880389f35b8951805182168952808701518316898801528301518216888401529885019896830196600190940193610519565b858884849e9a9b9c9e9d9798999d0301126105b55788879187516105778161123d565b61058086611398565b815261058d8387016112fc565b8382015261059c8987016112fc565b898201528152019201919a9897969a99959493996104f9565b8780fd5b8380fd5b8480fd5b835162461bcd60e51b8152908101839052602260248201527f44656c65676174696f6e7320707265636f6d70696c652063616c6c206661696c604482015261195960f21b6064820152608490fd5b509190346101d057602090816003193601126105b95783813563ffffffff811680910361037d578190855161064381611258565b606081528587519161065483611258565b883684370152855185810191825285815261066e81611258565b519061080b5afa9061067e6112cc565b91156107895750805181019180830193818385031261078557828201516001600160401b0393908481116105b5576060910180950312610785578051946106c486611258565b828501518481116105b55781846106dd92880101611310565b865280605f86011215610781578151946106f686611258565b85906080810192831161077d579280989301905b828210610760575050508185019384526107348651958387525160608488015260808701906111b0565b9351909585015b600287106107495785850386f35b82806001928685511681520192019601959061073b565b84809161076f849b969b6112fc565b81520191019097929761070a565b8880fd5b8680fd5b8580fd5b835162461bcd60e51b8152908101839052601f60248201527f53706f74496e666f20707265636f6d70696c652063616c6c206661696c6564006044820152606490fd5b5091346101d057806003193601126101d0576107e6611172565b6001600160401b039060243582811691869183900361037d57819085519361080d8561123d565b8285528287602096828882015201528651908582019260018060a01b031683528782015286815261083d8161123d565b51906108015afa9361084d6112cc565b94156108b857506060848051810103126105bd57606094508251906108718261123d565b8261087d8287016112fc565b958684528561089e896108918385016112fc565b93868801948552016112fc565b940193845281865197168752511690850152511690820152f35b60849184519162461bcd60e51b8352820152602260248201527f53706f7442616c616e636520707265636f6d70696c652063616c6c206661696c604482015261195960f21b6064820152fd5b509190346101d0576020928360031936011261017f57813563ffffffff811680910361037d57818091855187810191825287815261094181611258565b51906108085afa916109516112cc565b92156109705750838280518101031261017f57508261032991016112fc565b835162461bcd60e51b8152908101859052601d60248201527f53706f74507820707265636f6d70696c652063616c6c206661696c65640000006044820152606490fd5b50823461037d578060031936011261037d576109cd611172565b916024359261ffff841680940361037d578180918451956109ed87611206565b828752826080602098828a820152828982015282606082015201528551908782019260018060a01b0316835286820152858152610a298161123d565b51906108005afa93610a396112cc565b9415610ae9575060a08480518101031261017f575063ffffffff60a093825192610a6284611206565b610a6d8583016113ac565b94858552610a7c8284016112fc565b90808601918252610a8f606085016113ac565b918387019283526080610ab58a610aa7838901611355565b9760608b0198895201611374565b970196875283519760070b885260018060401b03905116908701525160070b90850152511660608301525115156080820152f35b825162461bcd60e51b8152908101849052601f60248201527f506f736974696f6e20707265636f6d70696c652063616c6c206661696c6564006044820152606490fd5b5091346101d0576020928360031936011261017f5782359063ffffffff821680920361017f578080845193610b6085611221565b8160e0606096878152878b820152828982015282888201528260808201528260a08201528260c082015201528551888101918252888152610ba081611258565b519061080c5afa93610bb06112cc565b9415610da05750835184018581019086868203126101d057858701516001600160401b03968782116105bd570193849161010095869103126105b957855196610bf888611221565b8883015181811161078557848a610c1192860101611310565b8852868301518181116107855783019380603f860112156107855789850151610c3981611381565b95610c468a51978861128e565b818752898c88019260051b8201019283116105b5578901905b828210610d89575050509188939188999389948501938452610c828284016112fc565b898601908152610c9460808501611398565b9483870195865289610ca860a08701611398565b956080890196875260a0610cbe60c08301611366565b990198895260c0610cd160e08301611366565b9e019d8e52015197888a0b8903610d8557908d60e0610d089e9f01998a528c519d8e91848352518d858401526101208301906111b0565b91519c601f198284030191015281808d5192838152019c01918a5b828110610d6f57505050509260ff95928b9c959287955116908c015260018060a01b038092511660808c0152511660a08a0152511660c0880152511660e086015251900b908301520390f35b835186168e529c81019c92810192600101610d23565b8980fd5b8b8091610d95846112fc565b815201910190610c5f565b606490868086519262461bcd60e51b845283015260248201527f546f6b656e496e666f20707265636f6d70696c652063616c6c206661696c65646044820152fd5b50823461037d576020806003193601126101d057833563ffffffff908181168091036105bd578480918160808751610e1881611206565b606081528288820152828982015282606082015201528551858101918252858152610e4281611258565b519061080a5afa94610e526112cc565b9515610f3f5750845185019482818703126105bd57808301516001600160401b039182821161078157019560a08782031261078557845195610e9387611206565b8488015192831161017f575060ff92610eb760a09893868087950191860101611310565b8752610ec4868401611355565b95858801968752610ed760608501611366565b91818901928352610f1e610eff8b610ef160808901611366565b9760608d0198895201611374565b9760808b0198895283519b8c9b828d5251918c015260c08b01906111b0565b97511690880152511660608601525116608084015251151560a08301520390f35b835162461bcd60e51b81529081018390526024808201527f506572704173736574496e666f20707265636f6d70696c652063616c6c2066616044820152631a5b195960e21b6064820152608490fd5b509190346101d057602091826003193601126105b9578380610fae611172565b8160608551610fbc816111d5565b82815282898201528287820152015283518681019160018060a01b03168252868152610fe781611258565b51906108055afa91610ff76112cc565b921561107857506080828051810103126105b9576080935080519061101b826111d5565b6110268484016112fc565b8083526110348285016112fc565b93858401948552606061104c886108918385016112fc565b940193845282519560018060401b03809681809516895251169087015251169084015251166060820152f35b83608492519162461bcd60e51b8352820152602860248201527f44656c656761746f727953756d6d61727920707265636f6d70696c652063616c6044820152671b0819985a5b195960c21b6064820152fd5b849291503461037d578160031936011261037d578181818093526110ed81611273565b6020815191016108095afa926111016112cc565b9315611123575060208380518101031261017f575061032960208093016112fc565b608490602084519162461bcd60e51b83528201526024808201527f4c31426c6f636b4e756d62657220707265636f6d70696c652063616c6c2066616044820152631a5b195960e21b6064820152fd5b600435906001600160a01b038216820361118857565b600080fd5b60005b8381106111a05750506000910152565b8181015183820152602001611190565b906020916111c98151809281855285808601910161118d565b601f01601f1916010190565b608081019081106001600160401b038211176111f057604052565b634e487b7160e01b600052604160045260246000fd5b60a081019081106001600160401b038211176111f057604052565b61010081019081106001600160401b038211176111f057604052565b606081019081106001600160401b038211176111f057604052565b604081019081106001600160401b038211176111f057604052565b602081019081106001600160401b038211176111f057604052565b601f909101601f19168101906001600160401b038211908210176111f057604052565b6001600160401b0381116111f057601f01601f191660200190565b3d156112f7573d906112dd826112b1565b916112eb604051938461128e565b82523d6000602084013e565b606090565b51906001600160401b038216820361118857565b81601f82011215611188578051611326816112b1565b92611334604051948561128e565b8184526020828401011161118857611352916020808501910161118d565b90565b519063ffffffff8216820361118857565b519060ff8216820361118857565b5190811515820361118857565b6001600160401b0381116111f05760051b60200190565b51906001600160a01b038216820361118857565b51908160070b82036111885756fea2646970667358221220bb02173d3f78446fde2776b05af8831b6f4cb8c8d3a604dfac5db323cfd26e2a64736f6c63430008140033","opcodes":"PUSH1 0x80 DUP1 PUSH1 0x40 MSTORE CALLVALUE PUSH2 0x16 JUMPI PUSH2 0x13F0 SWAP1 DUP2 PUSH2 0x1C DUP3 CODECOPY RETURN JUMPDEST PUSH1 0x0 DUP1 REVERT INVALID PUSH1 0x80 PUSH1 0x40 SWAP1 DUP1 DUP3 MSTORE PUSH1 0x4 SWAP1 DUP2 CALLDATASIZE LT ISZERO PUSH2 0x17 JUMPI PUSH1 0x0 DUP1 REVERT JUMPDEST PUSH1 0x0 SWAP1 DUP2 CALLDATALOAD PUSH1 0xE0 SHR SWAP1 DUP2 PUSH4 0x298C9005 EQ PUSH2 0x10CA JUMPI POP DUP1 PUSH4 0x37F980A5 EQ PUSH2 0xF8E JUMPI DUP1 PUSH4 0x4162CD32 EQ PUSH2 0xDE1 JUMPI DUP1 PUSH4 0x68FB1109 EQ PUSH2 0xB2C JUMPI DUP1 PUSH4 0x89CF7C89 EQ PUSH2 0x9B3 JUMPI DUP1 PUSH4 0x90702759 EQ PUSH2 0x904 JUMPI DUP1 PUSH4 0xA69610D1 EQ PUSH2 0x7CC JUMPI DUP1 PUSH4 0xB6DFF0B5 EQ PUSH2 0x60F JUMPI DUP1 PUSH4 0xBFFE3486 EQ PUSH2 0x430 JUMPI DUP1 PUSH4 0xC0F0F5EF EQ PUSH2 0x381 JUMPI DUP1 PUSH4 0xC8EEC8C6 EQ PUSH2 0x2BD JUMPI DUP1 PUSH4 0xCE513B6F EQ PUSH2 0x1D4 JUMPI PUSH4 0xEE1B5AF1 EQ PUSH2 0xB4 JUMPI PUSH1 0x0 DUP1 REVERT JUMPDEST CALLVALUE PUSH2 0x17F JUMPI DUP3 PUSH1 0x3 NOT CALLDATASIZE ADD SLT PUSH2 0x17F JUMPI PUSH2 0xCC PUSH2 0x1172 JUMP JUMPDEST PUSH1 0x24 CALLDATALOAD PUSH1 0x1 PUSH1 0x1 PUSH1 0xA0 SHL SUB DUP2 DUP2 AND SWAP4 SWAP3 SWAP2 DUP5 SWAP1 SUB PUSH2 0x1D0 JUMPI DUP3 SWAP2 DUP3 SWAP2 DUP8 MLOAD SWAP6 PUSH2 0xF4 DUP8 PUSH2 0x1258 JUMP JUMPDEST DUP4 DUP8 MSTORE DUP4 PUSH1 0x20 DUP1 SWAP9 ADD MSTORE DUP9 MLOAD SWAP2 DUP8 DUP4 ADD SWAP4 AND DUP4 MSTORE DUP9 DUP3 ADD MSTORE DUP8 DUP2 MSTORE PUSH2 0x118 DUP2 PUSH2 0x123D JUMP JUMPDEST MLOAD SWAP1 PUSH2 0x802 GAS STATICCALL SWAP3 PUSH2 0x128 PUSH2 0x12CC JUMP JUMPDEST SWAP4 ISZERO PUSH2 0x182 JUMPI POP DUP4 DUP4 DUP1 MLOAD DUP2 ADD SUB SLT PUSH2 0x17F JUMPI POP DUP3 MLOAD SWAP2 PUSH2 0x148 DUP4 PUSH2 0x1258 JUMP JUMPDEST DUP2 PUSH2 0x162 DUP6 PUSH2 0x158 DUP4 DUP6 ADD PUSH2 0x12FC JUMP JUMPDEST SWAP4 DUP5 DUP8 MSTORE ADD PUSH2 0x12FC JUMP JUMPDEST SWAP4 ADD SWAP3 DUP4 MSTORE DUP4 MLOAD PUSH1 0x1 PUSH1 0x1 PUSH1 0x40 SHL SUB SWAP2 DUP3 AND DUP2 MSTORE SWAP3 MLOAD AND SWAP1 DUP3 ADD MSTORE RETURN JUMPDEST DUP1 REVERT JUMPDEST DUP5 MLOAD PUSH3 0x461BCD PUSH1 0xE5 SHL DUP2 MSTORE SWAP1 DUP2 ADD DUP4 SWAP1 MSTORE PUSH1 0x22 PUSH1 0x24 DUP3 ADD MSTORE PUSH32 0x5661756C7445717569747920707265636F6D70696C652063616C6C206661696C PUSH1 0x44 DUP3 ADD MSTORE PUSH2 0x1959 PUSH1 0xF2 SHL PUSH1 0x64 DUP3 ADD MSTORE PUSH1 0x84 SWAP1 REVERT JUMPDEST DUP3 DUP1 REVERT JUMPDEST POP SWAP2 CALLVALUE PUSH2 0x1D0 JUMPI PUSH1 0x20 SWAP3 DUP4 PUSH1 0x3 NOT CALLDATASIZE ADD SLT PUSH2 0x17F JUMPI DUP1 DUP1 PUSH2 0x1F3 PUSH2 0x1172 JUMP JUMPDEST DUP2 DUP6 MLOAD PUSH2 0x1FF DUP2 PUSH2 0x1273 JUMP JUMPDEST MSTORE DUP5 MLOAD PUSH1 0x1 PUSH1 0x1 PUSH1 0xA0 SHL SUB SWAP1 SWAP2 AND DUP8 DUP3 ADD SWAP1 DUP2 MSTORE DUP8 DUP3 MSTORE SWAP1 PUSH2 0x220 DUP2 PUSH2 0x1258 JUMP JUMPDEST MLOAD SWAP1 PUSH2 0x803 GAS STATICCALL SWAP3 PUSH2 0x230 PUSH2 0x12CC JUMP JUMPDEST SWAP4 ISZERO PUSH2 0x26E JUMPI POP DUP4 DUP4 DUP1 MLOAD DUP2 ADD SUB SLT PUSH2 0x17F JUMPI POP PUSH2 0x25A DUP4 DUP3 MLOAD SWAP4 PUSH2 0x254 DUP6 PUSH2 0x1273 JUMP JUMPDEST ADD PUSH2 0x12FC JUMP JUMPDEST SWAP2 DUP3 SWAP1 MSTORE MLOAD PUSH1 0x1 PUSH1 0x1 PUSH1 0x40 SHL SUB SWAP1 SWAP2 AND DUP2 MSTORE RETURN JUMPDEST DUP3 MLOAD PUSH3 0x461BCD PUSH1 0xE5 SHL DUP2 MSTORE SWAP1 DUP2 ADD DUP6 SWAP1 MSTORE PUSH1 0x23 PUSH1 0x24 DUP3 ADD MSTORE PUSH32 0x576974686472617761626C6520707265636F6D70696C652063616C6C20666169 PUSH1 0x44 DUP3 ADD MSTORE PUSH3 0x1B1959 PUSH1 0xEA SHL PUSH1 0x64 DUP3 ADD MSTORE PUSH1 0x84 SWAP1 REVERT JUMPDEST POP SWAP2 SWAP1 CALLVALUE PUSH2 0x1D0 JUMPI PUSH1 0x20 SWAP3 DUP4 PUSH1 0x3 NOT CALLDATASIZE ADD SLT PUSH2 0x17F JUMPI DUP2 CALLDATALOAD PUSH4 0xFFFFFFFF DUP2 AND DUP1 SWAP2 SUB PUSH2 0x37D JUMPI DUP2 DUP1 SWAP2 DUP6 MLOAD DUP8 DUP2 ADD SWAP2 DUP3 MSTORE DUP8 DUP2 MSTORE PUSH2 0x2FA DUP2 PUSH2 0x1258 JUMP JUMPDEST MLOAD SWAP1 PUSH2 0x806 GAS STATICCALL SWAP2 PUSH2 0x30A PUSH2 0x12CC JUMP JUMPDEST SWAP3 ISZERO PUSH2 0x33A JUMPI POP DUP4 DUP3 DUP1 MLOAD DUP2 ADD SUB SLT PUSH2 0x17F JUMPI POP DUP3 PUSH2 0x329 SWAP2 ADD PUSH2 0x12FC JUMP JUMPDEST SWAP1 MLOAD PUSH1 0x1 PUSH1 0x1 PUSH1 0x40 SHL SUB SWAP1 SWAP2 AND DUP2 MSTORE RETURN JUMPDEST DUP4 MLOAD PUSH3 0x461BCD PUSH1 0xE5 SHL DUP2 MSTORE SWAP1 DUP2 ADD DUP6 SWAP1 MSTORE PUSH1 0x1D PUSH1 0x24 DUP3 ADD MSTORE PUSH32 0x4D61726B507820707265636F6D70696C652063616C6C206661696C6564000000 PUSH1 0x44 DUP3 ADD MSTORE PUSH1 0x64 SWAP1 REVERT JUMPDEST POP DUP1 REVERT JUMPDEST POP SWAP2 SWAP1 CALLVALUE PUSH2 0x1D0 JUMPI PUSH1 0x20 SWAP3 DUP4 PUSH1 0x3 NOT CALLDATASIZE ADD SLT PUSH2 0x17F JUMPI DUP2 CALLDATALOAD PUSH4 0xFFFFFFFF DUP2 AND DUP1 SWAP2 SUB PUSH2 0x37D JUMPI DUP2 DUP1 SWAP2 DUP6 MLOAD DUP8 DUP2 ADD SWAP2 DUP3 MSTORE DUP8 DUP2 MSTORE PUSH2 0x3BE DUP2 PUSH2 0x1258 JUMP JUMPDEST MLOAD SWAP1 PUSH2 0x807 GAS STATICCALL SWAP2 PUSH2 0x3CE PUSH2 0x12CC JUMP JUMPDEST SWAP3 ISZERO PUSH2 0x3ED JUMPI POP DUP4 DUP3 DUP1 MLOAD DUP2 ADD SUB SLT PUSH2 0x17F JUMPI POP DUP3 PUSH2 0x329 SWAP2 ADD PUSH2 0x12FC JUMP JUMPDEST DUP4 MLOAD PUSH3 0x461BCD PUSH1 0xE5 SHL DUP2 MSTORE SWAP1 DUP2 ADD DUP6 SWAP1 MSTORE PUSH1 0x1F PUSH1 0x24 DUP3 ADD MSTORE PUSH32 0x4F7261636C65507820707265636F6D70696C652063616C6C206661696C656400 PUSH1 0x44 DUP3 ADD MSTORE PUSH1 0x64 SWAP1 REVERT JUMPDEST POP DUP3 CALLVALUE PUSH2 0x37D JUMPI PUSH1 0x20 DUP1 PUSH1 0x3 NOT CALLDATASIZE ADD SLT PUSH2 0x1D0 JUMPI PUSH2 0x44C PUSH2 0x1172 JUMP JUMPDEST SWAP3 DUP1 DUP1 DUP5 MLOAD DUP5 DUP2 ADD SWAP1 PUSH1 0x1 DUP1 PUSH1 0xA0 SHL SUB DUP1 SWAP9 AND DUP3 MSTORE DUP6 DUP2 MSTORE PUSH2 0x46D DUP2 PUSH2 0x1258 JUMP JUMPDEST MLOAD SWAP1 PUSH2 0x804 GAS STATICCALL SWAP5 PUSH2 0x47D PUSH2 0x12CC JUMP JUMPDEST SWAP6 ISZERO PUSH2 0x5C1 JUMPI POP DUP5 MLOAD DUP6 ADD SWAP3 DUP3 DUP5 ADD SWAP1 DUP4 DUP8 DUP7 SUB SLT PUSH2 0x1D0 JUMPI DUP7 DUP5 ADD MLOAD PUSH1 0x1 PUSH1 0x1 PUSH1 0x40 SHL SUB SWAP8 DUP9 DUP3 GT PUSH2 0x5BD JUMPI ADD SWAP7 DUP3 PUSH1 0x3F DUP10 ADD SLT ISZERO PUSH2 0x5B9 JUMPI DUP5 DUP9 ADD MLOAD SWAP3 PUSH2 0x4C5 DUP5 PUSH2 0x1381 JUMP JUMPDEST SWAP7 PUSH2 0x4D2 DUP5 MLOAD SWAP9 DUP10 PUSH2 0x128E JUMP JUMPDEST DUP5 DUP9 MSTORE DUP7 DUP9 ADD SWAP1 DUP2 SWAP11 DUP6 PUSH1 0x60 DUP1 SWAP9 MUL DUP3 ADD ADD SWAP4 DUP5 GT PUSH2 0x5B5 JUMPI SWAP5 DUP1 SWAP5 SWAP11 SWAP7 SWAP6 SWAP12 SWAP10 SWAP9 SWAP8 SWAP12 ADD SWAP2 JUMPDEST DUP4 DUP4 LT PUSH2 0x554 JUMPI POP POP POP POP DUP1 MLOAD SWAP7 DUP5 DUP9 ADD SWAP6 DUP6 DUP10 MSTORE MLOAD DUP1 SWAP7 MSTORE DUP2 DUP9 ADD SWAP7 SWAP9 SWAP4 JUMPDEST DUP7 DUP6 LT PUSH2 0x526 JUMPI DUP9 DUP9 SUB DUP10 RETURN JUMPDEST DUP10 MLOAD DUP1 MLOAD DUP3 AND DUP10 MSTORE DUP1 DUP8 ADD MLOAD DUP4 AND DUP10 DUP9 ADD MSTORE DUP4 ADD MLOAD DUP3 AND DUP9 DUP5 ADD MSTORE SWAP9 DUP6 ADD SWAP9 SWAP7 DUP4 ADD SWAP7 PUSH1 0x1 SWAP1 SWAP5 ADD SWAP4 PUSH2 0x519 JUMP JUMPDEST DUP6 DUP9 DUP5 DUP5 SWAP15 SWAP11 SWAP12 SWAP13 SWAP15 SWAP14 SWAP8 SWAP9 SWAP10 SWAP14 SUB ADD SLT PUSH2 0x5B5 JUMPI DUP9 DUP8 SWAP2 DUP8 MLOAD PUSH2 0x577 DUP2 PUSH2 0x123D JUMP JUMPDEST PUSH2 0x580 DUP7 PUSH2 0x1398 JUMP JUMPDEST DUP2 MSTORE PUSH2 0x58D DUP4 DUP8 ADD PUSH2 0x12FC JUMP JUMPDEST DUP4 DUP3 ADD MSTORE PUSH2 0x59C DUP10 DUP8 ADD PUSH2 0x12FC JUMP JUMPDEST DUP10 DUP3 ADD MSTORE DUP2 MSTORE ADD SWAP3 ADD SWAP2 SWAP11 SWAP9 SWAP8 SWAP7 SWAP11 SWAP10 SWAP6 SWAP5 SWAP4 SWAP10 PUSH2 0x4F9 JUMP JUMPDEST DUP8 DUP1 REVERT JUMPDEST DUP4 DUP1 REVERT JUMPDEST DUP5 DUP1 REVERT JUMPDEST DUP4 MLOAD PUSH3 0x461BCD PUSH1 0xE5 SHL DUP2 MSTORE SWAP1 DUP2 ADD DUP4 SWAP1 MSTORE PUSH1 0x22 PUSH1 0x24 DUP3 ADD MSTORE PUSH32 0x44656C65676174696F6E7320707265636F6D70696C652063616C6C206661696C PUSH1 0x44 DUP3 ADD MSTORE PUSH2 0x1959 PUSH1 0xF2 SHL PUSH1 0x64 DUP3 ADD MSTORE PUSH1 0x84 SWAP1 REVERT JUMPDEST POP SWAP2 SWAP1 CALLVALUE PUSH2 0x1D0 JUMPI PUSH1 0x20 SWAP1 DUP2 PUSH1 0x3 NOT CALLDATASIZE ADD SLT PUSH2 0x5B9 JUMPI DUP4 DUP2 CALLDATALOAD PUSH4 0xFFFFFFFF DUP2 AND DUP1 SWAP2 SUB PUSH2 0x37D JUMPI DUP2 SWAP1 DUP6 MLOAD PUSH2 0x643 DUP2 PUSH2 0x1258 JUMP JUMPDEST PUSH1 0x60 DUP2 MSTORE DUP6 DUP8 MLOAD SWAP2 PUSH2 0x654 DUP4 PUSH2 0x1258 JUMP JUMPDEST DUP9 CALLDATASIZE DUP5 CALLDATACOPY ADD MSTORE DUP6 MLOAD DUP6 DUP2 ADD SWAP2 DUP3 MSTORE DUP6 DUP2 MSTORE PUSH2 0x66E DUP2 PUSH2 0x1258 JUMP JUMPDEST MLOAD SWAP1 PUSH2 0x80B GAS STATICCALL SWAP1 PUSH2 0x67E PUSH2 0x12CC JUMP JUMPDEST SWAP2 ISZERO PUSH2 0x789 JUMPI POP DUP1 MLOAD DUP2 ADD SWAP2 DUP1 DUP4 ADD SWAP4 DUP2 DUP4 DUP6 SUB SLT PUSH2 0x785 JUMPI DUP3 DUP3 ADD MLOAD PUSH1 0x1 PUSH1 0x1 PUSH1 0x40 SHL SUB SWAP4 SWAP1 DUP5 DUP2 GT PUSH2 0x5B5 JUMPI PUSH1 0x60 SWAP2 ADD DUP1 SWAP6 SUB SLT PUSH2 0x785 JUMPI DUP1 MLOAD SWAP5 PUSH2 0x6C4 DUP7 PUSH2 0x1258 JUMP JUMPDEST DUP3 DUP6 ADD MLOAD DUP5 DUP2 GT PUSH2 0x5B5 JUMPI DUP2 DUP5 PUSH2 0x6DD SWAP3 DUP9 ADD ADD PUSH2 0x1310 JUMP JUMPDEST DUP7 MSTORE DUP1 PUSH1 0x5F DUP7 ADD SLT ISZERO PUSH2 0x781 JUMPI DUP2 MLOAD SWAP5 PUSH2 0x6F6 DUP7 PUSH2 0x1258 JUMP JUMPDEST DUP6 SWAP1 PUSH1 0x80 DUP2 ADD SWAP3 DUP4 GT PUSH2 0x77D JUMPI SWAP3 DUP1 SWAP9 SWAP4 ADD SWAP1 JUMPDEST DUP3 DUP3 LT PUSH2 0x760 JUMPI POP POP POP DUP2 DUP6 ADD SWAP4 DUP5 MSTORE PUSH2 0x734 DUP7 MLOAD SWAP6 DUP4 DUP8 MSTORE MLOAD PUSH1 0x60 DUP5 DUP9 ADD MSTORE PUSH1 0x80 DUP8 ADD SWAP1 PUSH2 0x11B0 JUMP JUMPDEST SWAP4 MLOAD SWAP1 SWAP6 DUP6 ADD JUMPDEST PUSH1 0x2 DUP8 LT PUSH2 0x749 JUMPI DUP6 DUP6 SUB DUP7 RETURN JUMPDEST DUP3 DUP1 PUSH1 0x1 SWAP3 DUP7 DUP6 MLOAD AND DUP2 MSTORE ADD SWAP3 ADD SWAP7 ADD SWAP6 SWAP1 PUSH2 0x73B JUMP JUMPDEST DUP5 DUP1 SWAP2 PUSH2 0x76F DUP5 SWAP12 SWAP7 SWAP12 PUSH2 0x12FC JUMP JUMPDEST DUP2 MSTORE ADD SWAP2 ADD SWAP1 SWAP8 SWAP3 SWAP8 PUSH2 0x70A JUMP JUMPDEST DUP9 DUP1 REVERT JUMPDEST DUP7 DUP1 REVERT JUMPDEST DUP6 DUP1 REVERT JUMPDEST DUP4 MLOAD PUSH3 0x461BCD PUSH1 0xE5 SHL DUP2 MSTORE SWAP1 DUP2 ADD DUP4 SWAP1 MSTORE PUSH1 0x1F PUSH1 0x24 DUP3 ADD MSTORE PUSH32 0x53706F74496E666F20707265636F6D70696C652063616C6C206661696C656400 PUSH1 0x44 DUP3 ADD MSTORE PUSH1 0x64 SWAP1 REVERT JUMPDEST POP SWAP2 CALLVALUE PUSH2 0x1D0 JUMPI DUP1 PUSH1 0x3 NOT CALLDATASIZE ADD SLT PUSH2 0x1D0 JUMPI PUSH2 0x7E6 PUSH2 0x1172 JUMP JUMPDEST PUSH1 0x1 PUSH1 0x1 PUSH1 0x40 SHL SUB SWAP1 PUSH1 0x24 CALLDATALOAD DUP3 DUP2 AND SWAP2 DUP7 SWAP2 DUP4 SWAP1 SUB PUSH2 0x37D JUMPI DUP2 SWAP1 DUP6 MLOAD SWAP4 PUSH2 0x80D DUP6 PUSH2 0x123D JUMP JUMPDEST DUP3 DUP6 MSTORE DUP3 DUP8 PUSH1 0x20 SWAP7 DUP3 DUP9 DUP3 ADD MSTORE ADD MSTORE DUP7 MLOAD SWAP1 DUP6 DUP3 ADD SWAP3 PUSH1 0x1 DUP1 PUSH1 0xA0 SHL SUB AND DUP4 MSTORE DUP8 DUP3 ADD MSTORE DUP7 DUP2 MSTORE PUSH2 0x83D DUP2 PUSH2 0x123D JUMP JUMPDEST MLOAD SWAP1 PUSH2 0x801 GAS STATICCALL SWAP4 PUSH2 0x84D PUSH2 0x12CC JUMP JUMPDEST SWAP5 ISZERO PUSH2 0x8B8 JUMPI POP PUSH1 0x60 DUP5 DUP1 MLOAD DUP2 ADD SUB SLT PUSH2 0x5BD JUMPI PUSH1 0x60 SWAP5 POP DUP3 MLOAD SWAP1 PUSH2 0x871 DUP3 PUSH2 0x123D JUMP JUMPDEST DUP3 PUSH2 0x87D DUP3 DUP8 ADD PUSH2 0x12FC JUMP JUMPDEST SWAP6 DUP7 DUP5 MSTORE DUP6 PUSH2 0x89E DUP10 PUSH2 0x891 DUP4 DUP6 ADD PUSH2 0x12FC JUMP JUMPDEST SWAP4 DUP7 DUP9 ADD SWAP5 DUP6 MSTORE ADD PUSH2 0x12FC JUMP JUMPDEST SWAP5 ADD SWAP4 DUP5 MSTORE DUP2 DUP7 MLOAD SWAP8 AND DUP8 MSTORE MLOAD AND SWAP1 DUP6 ADD MSTORE MLOAD AND SWAP1 DUP3 ADD MSTORE RETURN JUMPDEST PUSH1 0x84 SWAP2 DUP5 MLOAD SWAP2 PUSH3 0x461BCD PUSH1 0xE5 SHL DUP4 MSTORE DUP3 ADD MSTORE PUSH1 0x22 PUSH1 0x24 DUP3 ADD MSTORE PUSH32 0x53706F7442616C616E636520707265636F6D70696C652063616C6C206661696C PUSH1 0x44 DUP3 ADD MSTORE PUSH2 0x1959 PUSH1 0xF2 SHL PUSH1 0x64 DUP3 ADD MSTORE REVERT JUMPDEST POP SWAP2 SWAP1 CALLVALUE PUSH2 0x1D0 JUMPI PUSH1 0x20 SWAP3 DUP4 PUSH1 0x3 NOT CALLDATASIZE ADD SLT PUSH2 0x17F JUMPI DUP2 CALLDATALOAD PUSH4 0xFFFFFFFF DUP2 AND DUP1 SWAP2 SUB PUSH2 0x37D JUMPI DUP2 DUP1 SWAP2 DUP6 MLOAD DUP8 DUP2 ADD SWAP2 DUP3 MSTORE DUP8 DUP2 MSTORE PUSH2 0x941 DUP2 PUSH2 0x1258 JUMP JUMPDEST MLOAD SWAP1 PUSH2 0x808 GAS STATICCALL SWAP2 PUSH2 0x951 PUSH2 0x12CC JUMP JUMPDEST SWAP3 ISZERO PUSH2 0x970 JUMPI POP DUP4 DUP3 DUP1 MLOAD DUP2 ADD SUB SLT PUSH2 0x17F JUMPI POP DUP3 PUSH2 0x329 SWAP2 ADD PUSH2 0x12FC JUMP JUMPDEST DUP4 MLOAD PUSH3 0x461BCD PUSH1 0xE5 SHL DUP2 MSTORE SWAP1 DUP2 ADD DUP6 SWAP1 MSTORE PUSH1 0x1D PUSH1 0x24 DUP3 ADD MSTORE PUSH32 0x53706F74507820707265636F6D70696C652063616C6C206661696C6564000000 PUSH1 0x44 DUP3 ADD MSTORE PUSH1 0x64 SWAP1 REVERT JUMPDEST POP DUP3 CALLVALUE PUSH2 0x37D JUMPI DUP1 PUSH1 0x3 NOT CALLDATASIZE ADD SLT PUSH2 0x37D JUMPI PUSH2 0x9CD PUSH2 0x1172 JUMP JUMPDEST SWAP2 PUSH1 0x24 CALLDATALOAD SWAP3 PUSH2 0xFFFF DUP5 AND DUP1 SWAP5 SUB PUSH2 0x37D JUMPI DUP2 DUP1 SWAP2 DUP5 MLOAD SWAP6 PUSH2 0x9ED DUP8 PUSH2 0x1206 JUMP JUMPDEST DUP3 DUP8 MSTORE DUP3 PUSH1 0x80 PUSH1 0x20 SWAP9 DUP3 DUP11 DUP3 ADD MSTORE DUP3 DUP10 DUP3 ADD MSTORE DUP3 PUSH1 0x60 DUP3 ADD MSTORE ADD MSTORE DUP6 MLOAD SWAP1 DUP8 DUP3 ADD SWAP3 PUSH1 0x1 DUP1 PUSH1 0xA0 SHL SUB AND DUP4 MSTORE DUP7 DUP3 ADD MSTORE DUP6 DUP2 MSTORE PUSH2 0xA29 DUP2 PUSH2 0x123D JUMP JUMPDEST MLOAD SWAP1 PUSH2 0x800 GAS STATICCALL SWAP4 PUSH2 0xA39 PUSH2 0x12CC JUMP JUMPDEST SWAP5 ISZERO PUSH2 0xAE9 JUMPI POP PUSH1 0xA0 DUP5 DUP1 MLOAD DUP2 ADD SUB SLT PUSH2 0x17F JUMPI POP PUSH4 0xFFFFFFFF PUSH1 0xA0 SWAP4 DUP3 MLOAD SWAP3 PUSH2 0xA62 DUP5 PUSH2 0x1206 JUMP JUMPDEST PUSH2 0xA6D DUP6 DUP4 ADD PUSH2 0x13AC JUMP JUMPDEST SWAP5 DUP6 DUP6 MSTORE PUSH2 0xA7C DUP3 DUP5 ADD PUSH2 0x12FC JUMP JUMPDEST SWAP1 DUP1 DUP7 ADD SWAP2 DUP3 MSTORE PUSH2 0xA8F PUSH1 0x60 DUP6 ADD PUSH2 0x13AC JUMP JUMPDEST SWAP2 DUP4 DUP8 ADD SWAP3 DUP4 MSTORE PUSH1 0x80 PUSH2 0xAB5 DUP11 PUSH2 0xAA7 DUP4 DUP10 ADD PUSH2 0x1355 JUMP JUMPDEST SWAP8 PUSH1 0x60 DUP12 ADD SWAP9 DUP10 MSTORE ADD PUSH2 0x1374 JUMP JUMPDEST SWAP8 ADD SWAP7 DUP8 MSTORE DUP4 MLOAD SWAP8 PUSH1 0x7 SIGNEXTEND DUP9 MSTORE PUSH1 0x1 DUP1 PUSH1 0x40 SHL SUB SWAP1 MLOAD AND SWAP1 DUP8 ADD MSTORE MLOAD PUSH1 0x7 SIGNEXTEND SWAP1 DUP6 ADD MSTORE MLOAD AND PUSH1 0x60 DUP4 ADD MSTORE MLOAD ISZERO ISZERO PUSH1 0x80 DUP3 ADD MSTORE RETURN JUMPDEST DUP3 MLOAD PUSH3 0x461BCD PUSH1 0xE5 SHL DUP2 MSTORE SWAP1 DUP2 ADD DUP5 SWAP1 MSTORE PUSH1 0x1F PUSH1 0x24 DUP3 ADD MSTORE PUSH32 0x506F736974696F6E20707265636F6D70696C652063616C6C206661696C656400 PUSH1 0x44 DUP3 ADD MSTORE PUSH1 0x64 SWAP1 REVERT JUMPDEST POP SWAP2 CALLVALUE PUSH2 0x1D0 JUMPI PUSH1 0x20 SWAP3 DUP4 PUSH1 0x3 NOT CALLDATASIZE ADD SLT PUSH2 0x17F JUMPI DUP3 CALLDATALOAD SWAP1 PUSH4 0xFFFFFFFF DUP3 AND DUP1 SWAP3 SUB PUSH2 0x17F JUMPI DUP1 DUP1 DUP5 MLOAD SWAP4 PUSH2 0xB60 DUP6 PUSH2 0x1221 JUMP JUMPDEST DUP2 PUSH1 0xE0 PUSH1 0x60 SWAP7 DUP8 DUP2 MSTORE DUP8 DUP12 DUP3 ADD MSTORE DUP3 DUP10 DUP3 ADD MSTORE DUP3 DUP9 DUP3 ADD MSTORE DUP3 PUSH1 0x80 DUP3 ADD MSTORE DUP3 PUSH1 0xA0 DUP3 ADD MSTORE DUP3 PUSH1 0xC0 DUP3 ADD MSTORE ADD MSTORE DUP6 MLOAD DUP9 DUP2 ADD SWAP2 DUP3 MSTORE DUP9 DUP2 MSTORE PUSH2 0xBA0 DUP2 PUSH2 0x1258 JUMP JUMPDEST MLOAD SWAP1 PUSH2 0x80C GAS STATICCALL SWAP4 PUSH2 0xBB0 PUSH2 0x12CC JUMP JUMPDEST SWAP5 ISZERO PUSH2 0xDA0 JUMPI POP DUP4 MLOAD DUP5 ADD DUP6 DUP2 ADD SWAP1 DUP7 DUP7 DUP3 SUB SLT PUSH2 0x1D0 JUMPI DUP6 DUP8 ADD MLOAD PUSH1 0x1 PUSH1 0x1 PUSH1 0x40 SHL SUB SWAP7 DUP8 DUP3 GT PUSH2 0x5BD JUMPI ADD SWAP4 DUP5 SWAP2 PUSH2 0x100 SWAP6 DUP7 SWAP2 SUB SLT PUSH2 0x5B9 JUMPI DUP6 MLOAD SWAP7 PUSH2 0xBF8 DUP9 PUSH2 0x1221 JUMP JUMPDEST DUP9 DUP4 ADD MLOAD DUP2 DUP2 GT PUSH2 0x785 JUMPI DUP5 DUP11 PUSH2 0xC11 SWAP3 DUP7 ADD ADD PUSH2 0x1310 JUMP JUMPDEST DUP9 MSTORE DUP7 DUP4 ADD MLOAD DUP2 DUP2 GT PUSH2 0x785 JUMPI DUP4 ADD SWAP4 DUP1 PUSH1 0x3F DUP7 ADD SLT ISZERO PUSH2 0x785 JUMPI DUP10 DUP6 ADD MLOAD PUSH2 0xC39 DUP2 PUSH2 0x1381 JUMP JUMPDEST SWAP6 PUSH2 0xC46 DUP11 MLOAD SWAP8 DUP9 PUSH2 0x128E JUMP JUMPDEST DUP2 DUP8 MSTORE DUP10 DUP13 DUP9 ADD SWAP3 PUSH1 0x5 SHL DUP3 ADD ADD SWAP3 DUP4 GT PUSH2 0x5B5 JUMPI DUP10 ADD SWAP1 JUMPDEST DUP3 DUP3 LT PUSH2 0xD89 JUMPI POP POP POP SWAP2 DUP9 SWAP4 SWAP2 DUP9 SWAP10 SWAP4 DUP10 SWAP5 DUP6 ADD SWAP4 DUP5 MSTORE PUSH2 0xC82 DUP3 DUP5 ADD PUSH2 0x12FC JUMP JUMPDEST DUP10 DUP7 ADD SWAP1 DUP2 MSTORE PUSH2 0xC94 PUSH1 0x80 DUP6 ADD PUSH2 0x1398 JUMP JUMPDEST SWAP5 DUP4 DUP8 ADD SWAP6 DUP7 MSTORE DUP10 PUSH2 0xCA8 PUSH1 0xA0 DUP8 ADD PUSH2 0x1398 JUMP JUMPDEST SWAP6 PUSH1 0x80 DUP10 ADD SWAP7 DUP8 MSTORE PUSH1 0xA0 PUSH2 0xCBE PUSH1 0xC0 DUP4 ADD PUSH2 0x1366 JUMP JUMPDEST SWAP10 ADD SWAP9 DUP10 MSTORE PUSH1 0xC0 PUSH2 0xCD1 PUSH1 0xE0 DUP4 ADD PUSH2 0x1366 JUMP JUMPDEST SWAP15 ADD SWAP14 DUP15 MSTORE ADD MLOAD SWAP8 DUP9 DUP11 SIGNEXTEND DUP10 SUB PUSH2 0xD85 JUMPI SWAP1 DUP14 PUSH1 0xE0 PUSH2 0xD08 SWAP15 SWAP16 ADD SWAP10 DUP11 MSTORE DUP13 MLOAD SWAP14 DUP15 SWAP2 DUP5 DUP4 MSTORE MLOAD DUP14 DUP6 DUP5 ADD MSTORE PUSH2 0x120 DUP4 ADD SWAP1 PUSH2 0x11B0 JUMP JUMPDEST SWAP2 MLOAD SWAP13 PUSH1 0x1F NOT DUP3 DUP5 SUB ADD SWAP2 ADD MSTORE DUP2 DUP1 DUP14 MLOAD SWAP3 DUP4 DUP2 MSTORE ADD SWAP13 ADD SWAP2 DUP11 JUMPDEST DUP3 DUP2 LT PUSH2 0xD6F JUMPI POP POP POP POP SWAP3 PUSH1 0xFF SWAP6 SWAP3 DUP12 SWAP13 SWAP6 SWAP3 DUP8 SWAP6 MLOAD AND SWAP1 DUP13 ADD MSTORE PUSH1 0x1 DUP1 PUSH1 0xA0 SHL SUB DUP1 SWAP3 MLOAD AND PUSH1 0x80 DUP13 ADD MSTORE MLOAD AND PUSH1 0xA0 DUP11 ADD MSTORE MLOAD AND PUSH1 0xC0 DUP9 ADD MSTORE MLOAD AND PUSH1 0xE0 DUP7 ADD MSTORE MLOAD SWAP1 SIGNEXTEND SWAP1 DUP4 ADD MSTORE SUB SWAP1 RETURN JUMPDEST DUP4 MLOAD DUP7 AND DUP15 MSTORE SWAP13 DUP2 ADD SWAP13 SWAP3 DUP2 ADD SWAP3 PUSH1 0x1 ADD PUSH2 0xD23 JUMP JUMPDEST DUP10 DUP1 REVERT JUMPDEST DUP12 DUP1 SWAP2 PUSH2 0xD95 DUP5 PUSH2 0x12FC JUMP JUMPDEST DUP2 MSTORE ADD SWAP2 ADD SWAP1 PUSH2 0xC5F JUMP JUMPDEST PUSH1 0x64 SWAP1 DUP7 DUP1 DUP7 MLOAD SWAP3 PUSH3 0x461BCD PUSH1 0xE5 SHL DUP5 MSTORE DUP4 ADD MSTORE PUSH1 0x24 DUP3 ADD MSTORE PUSH32 0x546F6B656E496E666F20707265636F6D70696C652063616C6C206661696C6564 PUSH1 0x44 DUP3 ADD MSTORE REVERT JUMPDEST POP DUP3 CALLVALUE PUSH2 0x37D JUMPI PUSH1 0x20 DUP1 PUSH1 0x3 NOT CALLDATASIZE ADD SLT PUSH2 0x1D0 JUMPI DUP4 CALLDATALOAD PUSH4 0xFFFFFFFF SWAP1 DUP2 DUP2 AND DUP1 SWAP2 SUB PUSH2 0x5BD JUMPI DUP5 DUP1 SWAP2 DUP2 PUSH1 0x80 DUP8 MLOAD PUSH2 0xE18 DUP2 PUSH2 0x1206 JUMP JUMPDEST PUSH1 0x60 DUP2 MSTORE DUP3 DUP9 DUP3 ADD MSTORE DUP3 DUP10 DUP3 ADD MSTORE DUP3 PUSH1 0x60 DUP3 ADD MSTORE ADD MSTORE DUP6 MLOAD DUP6 DUP2 ADD SWAP2 DUP3 MSTORE DUP6 DUP2 MSTORE PUSH2 0xE42 DUP2 PUSH2 0x1258 JUMP JUMPDEST MLOAD SWAP1 PUSH2 0x80A GAS STATICCALL SWAP5 PUSH2 0xE52 PUSH2 0x12CC JUMP JUMPDEST SWAP6 ISZERO PUSH2 0xF3F JUMPI POP DUP5 MLOAD DUP6 ADD SWAP5 DUP3 DUP2 DUP8 SUB SLT PUSH2 0x5BD JUMPI DUP1 DUP4 ADD MLOAD PUSH1 0x1 PUSH1 0x1 PUSH1 0x40 SHL SUB SWAP2 DUP3 DUP3 GT PUSH2 0x781 JUMPI ADD SWAP6 PUSH1 0xA0 DUP8 DUP3 SUB SLT PUSH2 0x785 JUMPI DUP5 MLOAD SWAP6 PUSH2 0xE93 DUP8 PUSH2 0x1206 JUMP JUMPDEST DUP5 DUP9 ADD MLOAD SWAP3 DUP4 GT PUSH2 0x17F JUMPI POP PUSH1 0xFF SWAP3 PUSH2 0xEB7 PUSH1 0xA0 SWAP9 SWAP4 DUP7 DUP1 DUP8 SWAP6 ADD SWAP2 DUP7 ADD ADD PUSH2 0x1310 JUMP JUMPDEST DUP8 MSTORE PUSH2 0xEC4 DUP7 DUP5 ADD PUSH2 0x1355 JUMP JUMPDEST SWAP6 DUP6 DUP9 ADD SWAP7 DUP8 MSTORE PUSH2 0xED7 PUSH1 0x60 DUP6 ADD PUSH2 0x1366 JUMP JUMPDEST SWAP2 DUP2 DUP10 ADD SWAP3 DUP4 MSTORE PUSH2 0xF1E PUSH2 0xEFF DUP12 PUSH2 0xEF1 PUSH1 0x80 DUP10 ADD PUSH2 0x1366 JUMP JUMPDEST SWAP8 PUSH1 0x60 DUP14 ADD SWAP9 DUP10 MSTORE ADD PUSH2 0x1374 JUMP JUMPDEST SWAP8 PUSH1 0x80 DUP12 ADD SWAP9 DUP10 MSTORE DUP4 MLOAD SWAP12 DUP13 SWAP12 DUP3 DUP14 MSTORE MLOAD SWAP2 DUP13 ADD MSTORE PUSH1 0xC0 DUP12 ADD SWAP1 PUSH2 0x11B0 JUMP JUMPDEST SWAP8 MLOAD AND SWAP1 DUP9 ADD MSTORE MLOAD AND PUSH1 0x60 DUP7 ADD MSTORE MLOAD AND PUSH1 0x80 DUP5 ADD MSTORE MLOAD ISZERO ISZERO PUSH1 0xA0 DUP4 ADD MSTORE SUB SWAP1 RETURN JUMPDEST DUP4 MLOAD PUSH3 0x461BCD PUSH1 0xE5 SHL DUP2 MSTORE SWAP1 DUP2 ADD DUP4 SWAP1 MSTORE PUSH1 0x24 DUP1 DUP3 ADD MSTORE PUSH32 0x506572704173736574496E666F20707265636F6D70696C652063616C6C206661 PUSH1 0x44 DUP3 ADD MSTORE PUSH4 0x1A5B1959 PUSH1 0xE2 SHL PUSH1 0x64 DUP3 ADD MSTORE PUSH1 0x84 SWAP1 REVERT JUMPDEST POP SWAP2 SWAP1 CALLVALUE PUSH2 0x1D0 JUMPI PUSH1 0x20 SWAP2 DUP3 PUSH1 0x3 NOT CALLDATASIZE ADD SLT PUSH2 0x5B9 JUMPI DUP4 DUP1 PUSH2 0xFAE PUSH2 0x1172 JUMP JUMPDEST DUP2 PUSH1 0x60 DUP6 MLOAD PUSH2 0xFBC DUP2 PUSH2 0x11D5 JUMP JUMPDEST DUP3 DUP2 MSTORE DUP3 DUP10 DUP3 ADD MSTORE DUP3 DUP8 DUP3 ADD MSTORE ADD MSTORE DUP4 MLOAD DUP7 DUP2 ADD SWAP2 PUSH1 0x1 DUP1 PUSH1 0xA0 SHL SUB AND DUP3 MSTORE DUP7 DUP2 MSTORE PUSH2 0xFE7 DUP2 PUSH2 0x1258 JUMP JUMPDEST MLOAD SWAP1 PUSH2 0x805 GAS STATICCALL SWAP2 PUSH2 0xFF7 PUSH2 0x12CC JUMP JUMPDEST SWAP3 ISZERO PUSH2 0x1078 JUMPI POP PUSH1 0x80 DUP3 DUP1 MLOAD DUP2 ADD SUB SLT PUSH2 0x5B9 JUMPI PUSH1 0x80 SWAP4 POP DUP1 MLOAD SWAP1 PUSH2 0x101B DUP3 PUSH2 0x11D5 JUMP JUMPDEST PUSH2 0x1026 DUP5 DUP5 ADD PUSH2 0x12FC JUMP JUMPDEST DUP1 DUP4 MSTORE PUSH2 0x1034 DUP3 DUP6 ADD PUSH2 0x12FC JUMP JUMPDEST SWAP4 DUP6 DUP5 ADD SWAP5 DUP6 MSTORE PUSH1 0x60 PUSH2 0x104C DUP9 PUSH2 0x891 DUP4 DUP6 ADD PUSH2 0x12FC JUMP JUMPDEST SWAP5 ADD SWAP4 DUP5 MSTORE DUP3 MLOAD SWAP6 PUSH1 0x1 DUP1 PUSH1 0x40 SHL SUB DUP1 SWAP7 DUP2 DUP1 SWAP6 AND DUP10 MSTORE MLOAD AND SWAP1 DUP8 ADD MSTORE MLOAD AND SWAP1 DUP5 ADD MSTORE MLOAD AND PUSH1 0x60 DUP3 ADD MSTORE RETURN JUMPDEST DUP4 PUSH1 0x84 SWAP3 MLOAD SWAP2 PUSH3 0x461BCD PUSH1 0xE5 SHL DUP4 MSTORE DUP3 ADD MSTORE PUSH1 0x28 PUSH1 0x24 DUP3 ADD MSTORE PUSH32 0x44656C656761746F727953756D6D61727920707265636F6D70696C652063616C PUSH1 0x44 DUP3 ADD MSTORE PUSH8 0x1B0819985A5B1959 PUSH1 0xC2 SHL PUSH1 0x64 DUP3 ADD MSTORE REVERT JUMPDEST DUP5 SWAP3 SWAP2 POP CALLVALUE PUSH2 0x37D JUMPI DUP2 PUSH1 0x3 NOT CALLDATASIZE ADD SLT PUSH2 0x37D JUMPI DUP2 DUP2 DUP2 DUP1 SWAP4 MSTORE PUSH2 0x10ED DUP2 PUSH2 0x1273 JUMP JUMPDEST PUSH1 0x20 DUP2 MLOAD SWAP2 ADD PUSH2 0x809 GAS STATICCALL SWAP3 PUSH2 0x1101 PUSH2 0x12CC JUMP JUMPDEST SWAP4 ISZERO PUSH2 0x1123 JUMPI POP PUSH1 0x20 DUP4 DUP1 MLOAD DUP2 ADD SUB SLT PUSH2 0x17F JUMPI POP PUSH2 0x329 PUSH1 0x20 DUP1 SWAP4 ADD PUSH2 0x12FC JUMP JUMPDEST PUSH1 0x84 SWAP1 PUSH1 0x20 DUP5 MLOAD SWAP2 PUSH3 0x461BCD PUSH1 0xE5 SHL DUP4 MSTORE DUP3 ADD MSTORE PUSH1 0x24 DUP1 DUP3 ADD MSTORE PUSH32 0x4C31426C6F636B4E756D62657220707265636F6D70696C652063616C6C206661 PUSH1 0x44 DUP3 ADD MSTORE PUSH4 0x1A5B1959 PUSH1 0xE2 SHL PUSH1 0x64 DUP3 ADD MSTORE REVERT JUMPDEST PUSH1 0x4 CALLDATALOAD SWAP1 PUSH1 0x1 PUSH1 0x1 PUSH1 0xA0 SHL SUB DUP3 AND DUP3 SUB PUSH2 0x1188 JUMPI JUMP JUMPDEST PUSH1 0x0 DUP1 REVERT JUMPDEST PUSH1 0x0 JUMPDEST DUP4 DUP2 LT PUSH2 0x11A0 JUMPI POP POP PUSH1 0x0 SWAP2 ADD MSTORE JUMP JUMPDEST DUP2 DUP2 ADD MLOAD DUP4 DUP3 ADD MSTORE PUSH1 0x20 ADD PUSH2 0x1190 JUMP JUMPDEST SWAP1 PUSH1 0x20 SWAP2 PUSH2 0x11C9 DUP2 MLOAD DUP1 SWAP3 DUP2 DUP6 MSTORE DUP6 DUP1 DUP7 ADD SWAP2 ADD PUSH2 0x118D JUMP JUMPDEST PUSH1 0x1F ADD PUSH1 0x1F NOT AND ADD ADD SWAP1 JUMP JUMPDEST PUSH1 0x80 DUP2 ADD SWAP1 DUP2 LT PUSH1 0x1 PUSH1 0x1 PUSH1 0x40 SHL SUB DUP3 GT OR PUSH2 0x11F0 JUMPI PUSH1 0x40 MSTORE JUMP JUMPDEST PUSH4 0x4E487B71 PUSH1 0xE0 SHL PUSH1 0x0 MSTORE PUSH1 0x41 PUSH1 0x4 MSTORE PUSH1 0x24 PUSH1 0x0 REVERT JUMPDEST PUSH1 0xA0 DUP2 ADD SWAP1 DUP2 LT PUSH1 0x1 PUSH1 0x1 PUSH1 0x40 SHL SUB DUP3 GT OR PUSH2 0x11F0 JUMPI PUSH1 0x40 MSTORE JUMP JUMPDEST PUSH2 0x100 DUP2 ADD SWAP1 DUP2 LT PUSH1 0x1 PUSH1 0x1 PUSH1 0x40 SHL SUB DUP3 GT OR PUSH2 0x11F0 JUMPI PUSH1 0x40 MSTORE JUMP JUMPDEST PUSH1 0x60 DUP2 ADD SWAP1 DUP2 LT PUSH1 0x1 PUSH1 0x1 PUSH1 0x40 SHL SUB DUP3 GT OR PUSH2 0x11F0 JUMPI PUSH1 0x40 MSTORE JUMP JUMPDEST PUSH1 0x40 DUP2 ADD SWAP1 DUP2 LT PUSH1 0x1 PUSH1 0x1 PUSH1 0x40 SHL SUB DUP3 GT OR PUSH2 0x11F0 JUMPI PUSH1 0x40 MSTORE JUMP JUMPDEST PUSH1 0x20 DUP2 ADD SWAP1 DUP2 LT PUSH1 0x1 PUSH1 0x1 PUSH1 0x40 SHL SUB DUP3 GT OR PUSH2 0x11F0 JUMPI PUSH1 0x40 MSTORE JUMP JUMPDEST PUSH1 0x1F SWAP1 SWAP2 ADD PUSH1 0x1F NOT AND DUP2 ADD SWAP1 PUSH1 0x1 PUSH1 0x1 PUSH1 0x40 SHL SUB DUP3 GT SWAP1 DUP3 LT OR PUSH2 0x11F0 JUMPI PUSH1 0x40 MSTORE JUMP JUMPDEST PUSH1 0x1 PUSH1 0x1 PUSH1 0x40 SHL SUB DUP2 GT PUSH2 0x11F0 JUMPI PUSH1 0x1F ADD PUSH1 0x1F NOT AND PUSH1 0x20 ADD SWAP1 JUMP JUMPDEST RETURNDATASIZE ISZERO PUSH2 0x12F7 JUMPI RETURNDATASIZE SWAP1 PUSH2 0x12DD DUP3 PUSH2 0x12B1 JUMP JUMPDEST SWAP2 PUSH2 0x12EB PUSH1 0x40 MLOAD SWAP4 DUP5 PUSH2 0x128E JUMP JUMPDEST DUP3 MSTORE RETURNDATASIZE PUSH1 0x0 PUSH1 0x20 DUP5 ADD RETURNDATACOPY JUMP JUMPDEST PUSH1 0x60 SWAP1 JUMP JUMPDEST MLOAD SWAP1 PUSH1 0x1 PUSH1 0x1 PUSH1 0x40 SHL SUB DUP3 AND DUP3 SUB PUSH2 0x1188 JUMPI JUMP JUMPDEST DUP2 PUSH1 0x1F DUP3 ADD SLT ISZERO PUSH2 0x1188 JUMPI DUP1 MLOAD PUSH2 0x1326 DUP2 PUSH2 0x12B1 JUMP JUMPDEST SWAP3 PUSH2 0x1334 PUSH1 0x40 MLOAD SWAP5 DUP6 PUSH2 0x128E JUMP JUMPDEST DUP2 DUP5 MSTORE PUSH1 0x20 DUP3 DUP5 ADD ADD GT PUSH2 0x1188 JUMPI PUSH2 0x1352 SWAP2 PUSH1 0x20 DUP1 DUP6 ADD SWAP2 ADD PUSH2 0x118D JUMP JUMPDEST SWAP1 JUMP JUMPDEST MLOAD SWAP1 PUSH4 0xFFFFFFFF DUP3 AND DUP3 SUB PUSH2 0x1188 JUMPI JUMP JUMPDEST MLOAD SWAP1 PUSH1 0xFF DUP3 AND DUP3 SUB PUSH2 0x1188 JUMPI JUMP JUMPDEST MLOAD SWAP1 DUP2 ISZERO ISZERO DUP3 SUB PUSH2 0x1188 JUMPI JUMP JUMPDEST PUSH1 0x1 PUSH1 0x1 PUSH1 0x40 SHL SUB DUP2 GT PUSH2 0x11F0 JUMPI PUSH1 0x5 SHL PUSH1 0x20 ADD SWAP1 JUMP JUMPDEST MLOAD SWAP1 PUSH1 0x1 PUSH1 0x1 PUSH1 0xA0 SHL SUB DUP3 AND DUP3 SUB PUSH2 0x1188 JUMPI JUMP JUMPDEST MLOAD SWAP1 DUP2 PUSH1 0x7 SIGNEXTEND DUP3 SUB PUSH2 0x1188 JUMPI JUMP INVALID LOG2 PUSH5 0x6970667358 0x22 SLT KECCAK256 0xBB MUL OR RETURNDATASIZE EXTCODEHASH PUSH25 0x446FDE2776B05AF8831B6F4CB8C8D3A604DFAC5DB323CFD26E 0x2A PUSH5 0x736F6C6343 STOP ADDMOD EQ STOP CALLER "},"methodIdentifiers":{"delegations(address)":"bffe3486","delegatorSummary(address)":"37f980a5","l1BlockNumber()":"298c9005","markPx(uint32)":"c8eec8c6","oraclePx(uint32)":"c0f0f5ef","perpAssetInfo(uint32)":"4162cd32","position(address,uint16)":"89cf7c89","spotBalance(address,uint64)":"a69610d1","spotInfo(uint32)":"b6dff0b5","spotPx(uint32)":"90702759","tokenInfo(uint32)":"68fb1109","userVaultEquity(address,address)":"ee1b5af1","withdrawable(address)":"ce513b6f"}},"storageLayout":{"storage":[],"types":null}}}}