{"contracts/TriggerContract.sol":{"TriggerContract":{"abi":[{"inputs":[],"stateMutability":"nonpayable","type":"constructor"},{"inputs":[],"name":"AccessControlBadConfirmation","type":"error"},{"inputs":[{"internalType":"address","name":"account","type":"address"},{"internalType":"bytes32","name":"neededRole","type":"bytes32"}],"name":"AccessControlUnauthorizedAccount","type":"error"},{"inputs":[],"name":"EnforcedPause","type":"error"},{"inputs":[],"name":"ExpectedPause","type":"error"},{"inputs":[],"name":"ReentrancyGuardReentrantCall","type":"error"},{"anonymous":false,"inputs":[{"indexed":false,"internalType":"string","name":"asset","type":"string"},{"indexed":false,"internalType":"uint32","name":"spotIndex","type":"uint32"}],"name":"AssetIndexSet","type":"event"},{"anonymous":false,"inputs":[{"indexed":false,"internalType":"uint256","name":"newFee","type":"uint256"}],"name":"FeeUpdated","type":"event"},{"anonymous":false,"inputs":[{"indexed":false,"internalType":"address","name":"account","type":"address"}],"name":"Paused","type":"event"},{"anonymous":false,"inputs":[{"indexed":false,"internalType":"uint256","name":"newMaxDeviation","type":"uint256"}],"name":"PriceDeviationUpdated","type":"event"},{"anonymous":false,"inputs":[{"indexed":true,"internalType":"bytes32","name":"role","type":"bytes32"},{"indexed":true,"internalType":"bytes32","name":"previousAdminRole","type":"bytes32"},{"indexed":true,"internalType":"bytes32","name":"newAdminRole","type":"bytes32"}],"name":"RoleAdminChanged","type":"event"},{"anonymous":false,"inputs":[{"indexed":true,"internalType":"bytes32","name":"role","type":"bytes32"},{"indexed":true,"internalType":"address","name":"account","type":"address"},{"indexed":true,"internalType":"address","name":"sender","type":"address"}],"name":"RoleGranted","type":"event"},{"anonymous":false,"inputs":[{"indexed":true,"internalType":"bytes32","name":"role","type":"bytes32"},{"indexed":true,"internalType":"address","name":"account","type":"address"},{"indexed":true,"internalType":"address","name":"sender","type":"address"}],"name":"RoleRevoked","type":"event"},{"anonymous":false,"inputs":[{"indexed":true,"internalType":"uint256","name":"triggerId","type":"uint256"},{"indexed":true,"internalType":"address","name":"user","type":"address"}],"name":"TriggerCancelled","type":"event"},{"anonymous":false,"inputs":[{"indexed":true,"internalType":"uint256","name":"triggerId","type":"uint256"},{"indexed":true,"internalType":"address","name":"user","type":"address"},{"indexed":false,"internalType":"string","name":"watchAsset","type":"string"},{"indexed":false,"internalType":"uint256","name":"targetPrice","type":"uint256"},{"indexed":false,"internalType":"bool","name":"isAbove","type":"bool"},{"indexed":false,"internalType":"string","name":"tradeAsset","type":"string"},{"indexed":false,"internalType":"bool","name":"isBuy","type":"bool"},{"indexed":false,"internalType":"uint256","name":"amount","type":"uint256"}],"name":"TriggerCreated","type":"event"},{"anonymous":false,"inputs":[{"indexed":true,"internalType":"uint256","name":"triggerId","type":"uint256"},{"indexed":true,"internalType":"address","name":"executor","type":"address"},{"indexed":false,"internalType":"uint256","name":"executionPrice","type":"uint256"},{"indexed":false,"internalType":"bytes32","name":"executionTxHash","type":"bytes32"}],"name":"TriggerExecuted","type":"event"},{"anonymous":false,"inputs":[{"indexed":true,"internalType":"uint256","name":"triggerId","type":"uint256"}],"name":"TriggerExpired","type":"event"},{"anonymous":false,"inputs":[{"indexed":true,"internalType":"uint256","name":"triggerId","type":"uint256"},{"indexed":false,"internalType":"string","name":"reason","type":"string"}],"name":"TriggerFailed","type":"event"},{"anonymous":false,"inputs":[{"indexed":false,"internalType":"address","name":"account","type":"address"}],"name":"Unpaused","type":"event"},{"inputs":[],"name":"DEFAULT_ADMIN_ROLE","outputs":[{"internalType":"bytes32","name":"","type":"bytes32"}],"stateMutability":"view","type":"function"},{"inputs":[],"name":"EXECUTOR_ROLE","outputs":[{"internalType":"bytes32","name":"","type":"bytes32"}],"stateMutability":"view","type":"function"},{"inputs":[],"name":"MAX_TRIGGER_DURATION","outputs":[{"internalType":"uint256","name":"","type":"uint256"}],"stateMutability":"view","type":"function"},{"inputs":[],"name":"MIN_TRIGGER_DURATION","outputs":[{"internalType":"uint256","name":"","type":"uint256"}],"stateMutability":"view","type":"function"},{"inputs":[],"name":"activeTriggerCount","outputs":[{"internalType":"uint256","name":"","type":"uint256"}],"stateMutability":"view","type":"function"},{"inputs":[{"internalType":"string","name":"","type":"string"}],"name":"assetToSpotIndex","outputs":[{"internalType":"uint32","name":"","type":"uint32"}],"stateMutability":"view","type":"function"},{"inputs":[{"internalType":"uint256","name":"triggerId","type":"uint256"}],"name":"cancelTrigger","outputs":[],"stateMutability":"nonpayable","type":"function"},{"inputs":[{"internalType":"uint256","name":"triggerId","type":"uint256"},{"internalType":"uint256","name":"currentPrice","type":"uint256"}],"name":"checkTrigger","outputs":[{"internalType":"bool","name":"shouldExecute","type":"bool"},{"internalType":"string","name":"reason","type":"string"}],"stateMutability":"view","type":"function"},{"inputs":[{"internalType":"string","name":"watchAsset","type":"string"},{"internalType":"uint256","name":"targetPrice","type":"uint256"},{"internalType":"bool","name":"isAbove","type":"bool"},{"internalType":"string","name":"tradeAsset","type":"string"},{"internalType":"bool","name":"isBuy","type":"bool"},{"internalType":"uint256","name":"amount","type":"uint256"},{"internalType":"uint256","name":"maxSlippage","type":"uint256"},{"internalType":"uint256","name":"durationHours","type":"uint256"}],"name":"createTrigger","outputs":[{"internalType":"uint256","name":"triggerId","type":"uint256"}],"stateMutability":"payable","type":"function"},{"inputs":[],"name":"getActiveTriggerCount","outputs":[{"internalType":"uint256","name":"","type":"uint256"}],"stateMutability":"view","type":"function"},{"inputs":[{"internalType":"string","name":"asset","type":"string"}],"name":"getOraclePrice","outputs":[{"internalType":"uint64","name":"price","type":"uint64"},{"internalType":"bool","name":"valid","type":"bool"}],"stateMutability":"view","type":"function"},{"inputs":[{"internalType":"bytes32","name":"role","type":"bytes32"}],"name":"getRoleAdmin","outputs":[{"internalType":"bytes32","name":"","type":"bytes32"}],"stateMutability":"view","type":"function"},{"inputs":[{"internalType":"uint256","name":"triggerId","type":"uint256"}],"name":"getTrigger","outputs":[{"components":[{"internalType":"uint256","name":"id","type":"uint256"},{"internalType":"address","name":"user","type":"address"},{"internalType":"string","name":"watchAsset","type":"string"},{"internalType":"uint256","name":"targetPrice","type":"uint256"},{"internalType":"bool","name":"isAbove","type":"bool"},{"internalType":"string","name":"tradeAsset","type":"string"},{"internalType":"bool","name":"isBuy","type":"bool"},{"internalType":"uint256","name":"amount","type":"uint256"},{"internalType":"uint256","name":"maxSlippage","type":"uint256"},{"internalType":"uint256","name":"createdAt","type":"uint256"},{"internalType":"uint256","name":"expiresAt","type":"uint256"},{"internalType":"enum TriggerContract.TriggerStatus","name":"status","type":"uint8"},{"internalType":"uint256","name":"feePaid","type":"uint256"},{"internalType":"uint256","name":"executedAt","type":"uint256"},{"internalType":"uint256","name":"executionPrice","type":"uint256"},{"internalType":"bytes32","name":"executionTxHash","type":"bytes32"}],"internalType":"struct TriggerContract.Trigger","name":"","type":"tuple"}],"stateMutability":"view","type":"function"},{"inputs":[{"internalType":"address","name":"user","type":"address"}],"name":"getUserActiveTriggers","outputs":[{"components":[{"internalType":"uint256","name":"id","type":"uint256"},{"internalType":"address","name":"user","type":"address"},{"internalType":"string","name":"watchAsset","type":"string"},{"internalType":"uint256","name":"targetPrice","type":"uint256"},{"internalType":"bool","name":"isAbove","type":"bool"},{"internalType":"string","name":"tradeAsset","type":"string"},{"internalType":"bool","name":"isBuy","type":"bool"},{"internalType":"uint256","name":"amount","type":"uint256"},{"internalType":"uint256","name":"maxSlippage","type":"uint256"},{"internalType":"uint256","name":"createdAt","type":"uint256"},{"internalType":"uint256","name":"expiresAt","type":"uint256"},{"internalType":"enum TriggerContract.TriggerStatus","name":"status","type":"uint8"},{"internalType":"uint256","name":"feePaid","type":"uint256"},{"internalType":"uint256","name":"executedAt","type":"uint256"},{"internalType":"uint256","name":"executionPrice","type":"uint256"},{"internalType":"bytes32","name":"executionTxHash","type":"bytes32"}],"internalType":"struct TriggerContract.Trigger[]","name":"","type":"tuple[]"}],"stateMutability":"view","type":"function"},{"inputs":[{"internalType":"address","name":"user","type":"address"}],"name":"getUserTriggers","outputs":[{"internalType":"uint256[]","name":"","type":"uint256[]"}],"stateMutability":"view","type":"function"},{"inputs":[{"internalType":"bytes32","name":"role","type":"bytes32"},{"internalType":"address","name":"account","type":"address"}],"name":"grantRole","outputs":[],"stateMutability":"nonpayable","type":"function"},{"inputs":[{"internalType":"bytes32","name":"role","type":"bytes32"},{"internalType":"address","name":"account","type":"address"}],"name":"hasRole","outputs":[{"internalType":"bool","name":"","type":"bool"}],"stateMutability":"view","type":"function"},{"inputs":[{"internalType":"uint256","name":"triggerId","type":"uint256"},{"internalType":"uint256","name":"executionPrice","type":"uint256"},{"internalType":"bytes32","name":"executionTxHash","type":"bytes32"}],"name":"markExecuted","outputs":[],"stateMutability":"nonpayable","type":"function"},{"inputs":[{"internalType":"uint256[]","name":"triggerIds","type":"uint256[]"}],"name":"markExpired","outputs":[],"stateMutability":"nonpayable","type":"function"},{"inputs":[{"internalType":"uint256","name":"triggerId","type":"uint256"},{"internalType":"string","name":"reason","type":"string"}],"name":"markFailed","outputs":[],"stateMutability":"nonpayable","type":"function"},{"inputs":[],"name":"maxPriceDeviation","outputs":[{"internalType":"uint256","name":"","type":"uint256"}],"stateMutability":"view","type":"function"},{"inputs":[],"name":"nextTriggerId","outputs":[{"internalType":"uint256","name":"","type":"uint256"}],"stateMutability":"view","type":"function"},{"inputs":[],"name":"pause","outputs":[],"stateMutability":"nonpayable","type":"function"},{"inputs":[],"name":"paused","outputs":[{"internalType":"bool","name":"","type":"bool"}],"stateMutability":"view","type":"function"},{"inputs":[{"internalType":"bytes32","name":"role","type":"bytes32"},{"internalType":"address","name":"callerConfirmation","type":"address"}],"name":"renounceRole","outputs":[],"stateMutability":"nonpayable","type":"function"},{"inputs":[{"internalType":"bytes32","name":"role","type":"bytes32"},{"internalType":"address","name":"account","type":"address"}],"name":"revokeRole","outputs":[],"stateMutability":"nonpayable","type":"function"},{"inputs":[{"internalType":"string","name":"asset","type":"string"},{"internalType":"uint32","name":"spotIndex","type":"uint32"}],"name":"setAssetIndex","outputs":[],"stateMutability":"nonpayable","type":"function"},{"inputs":[{"internalType":"string[]","name":"assets","type":"string[]"},{"internalType":"uint32[]","name":"spotIndexes","type":"uint32[]"}],"name":"setAssetIndexes","outputs":[],"stateMutability":"nonpayable","type":"function"},{"inputs":[{"internalType":"bytes4","name":"interfaceId","type":"bytes4"}],"name":"supportsInterface","outputs":[{"internalType":"bool","name":"","type":"bool"}],"stateMutability":"view","type":"function"},{"inputs":[],"name":"triggerFee","outputs":[{"internalType":"uint256","name":"","type":"uint256"}],"stateMutability":"view","type":"function"},{"inputs":[{"internalType":"uint256","name":"","type":"uint256"}],"name":"triggers","outputs":[{"internalType":"uint256","name":"id","type":"uint256"},{"internalType":"address","name":"user","type":"address"},{"internalType":"string","name":"watchAsset","type":"string"},{"internalType":"uint256","name":"targetPrice","type":"uint256"},{"internalType":"bool","name":"isAbove","type":"bool"},{"internalType":"string","name":"tradeAsset","type":"string"},{"internalType":"bool","name":"isBuy","type":"bool"},{"internalType":"uint256","name":"amount","type":"uint256"},{"internalType":"uint256","name":"maxSlippage","type":"uint256"},{"internalType":"uint256","name":"createdAt","type":"uint256"},{"internalType":"uint256","name":"expiresAt","type":"uint256"},{"internalType":"enum TriggerContract.TriggerStatus","name":"status","type":"uint8"},{"internalType":"uint256","name":"feePaid","type":"uint256"},{"internalType":"uint256","name":"executedAt","type":"uint256"},{"internalType":"uint256","name":"executionPrice","type":"uint256"},{"internalType":"bytes32","name":"executionTxHash","type":"bytes32"}],"stateMutability":"view","type":"function"},{"inputs":[],"name":"unpause","outputs":[],"stateMutability":"nonpayable","type":"function"},{"inputs":[{"internalType":"uint256","name":"newMaxDeviation","type":"uint256"}],"name":"updateMaxPriceDeviation","outputs":[],"stateMutability":"nonpayable","type":"function"},{"inputs":[{"internalType":"uint256","name":"newFee","type":"uint256"}],"name":"updateTriggerFee","outputs":[],"stateMutability":"nonpayable","type":"function"},{"inputs":[{"internalType":"uint256","name":"oldTriggerId","type":"uint256"},{"internalType":"uint256","name":"newTargetPrice","type":"uint256"},{"internalType":"bool","name":"newIsAbove","type":"bool"}],"name":"updateTriggerPrice","outputs":[{"internalType":"uint256","name":"newTriggerId","type":"uint256"}],"stateMutability":"payable","type":"function"},{"inputs":[{"internalType":"address","name":"","type":"address"},{"internalType":"uint256","name":"","type":"uint256"}],"name":"userTriggers","outputs":[{"internalType":"uint256","name":"","type":"uint256"}],"stateMutability":"view","type":"function"},{"inputs":[{"internalType":"string","name":"asset","type":"string"},{"internalType":"uint256","name":"executionPrice","type":"uint256"}],"name":"verifyPriceWithOracle","outputs":[{"internalType":"bool","name":"valid","type":"bool"}],"stateMutability":"view","type":"function"},{"inputs":[],"name":"withdrawFees","outputs":[],"stateMutability":"nonpayable","type":"function"},{"stateMutability":"payable","type":"receive"}],"evm":{"bytecode":{"linkReferences":{},"object":"6080604052346200004c57600160025566038d7ea4c6800060035560c860045560016007556200002f3362000051565b506200003b33620000d1565b50604051612bd99081620001748239f35b600080fd5b6001600160a01b031660008181527fad3228b676f7d3cd4284a5443f17f1962b36e491b30a40b2405849e597ba5fb5602052604081205490919060ff16620000cd57818052816020526040822081835260205260408220600160ff19825416179055339160008051602062002d4d8339815191528180a4600190565b5090565b6001600160a01b031660008181527fdae2aa361dfd1ca020a396615627d436107c35eff9fe7738a3512819782d706960205260408120549091907fd8aa0f3194971a2a116679f7c2090f6939c8d4e01a2a8d7e41d55e5351469e639060ff166200016e57808352826020526040832082845260205260408320600160ff1982541617905560008051602062002d4d833981519152339380a4600190565b50509056fe60a080604052600436101561001d575b50361561001b57600080fd5b005b60003560e01c90816301ffc9a714611ec35750806307bd026514611e8857806313ae981b14611e6b5780631816168414611e09578063248a9ca314611dda57806324f1c5c114611d4a5780632a1b3fd314611c025780632f2ff15d14611bc357806336568abe14611b7c5780633940fda414611abf5780633a90f05014611a1c5780633f4ba83a146119b257806342227fa414611994578063476343ee146118e75780634e712fb81461188b5780634efc9c85146118a95780635a487ef61461188b5780635c975abb146118685780635f3309291461119857806365672a7f14611150578063681475e81461106757806371876a1614610fb35780638456cb5914610f5a57806386b9d16e14610e3957806391d1485414610dec578063975b866214610dce5780639c50472b14610d81578063a217fddf14610d65578063a349832514610d0d578063a78dd42e14610bc3578063aefed8ff146109b9578063b71e83c41461096d578063d45ddd9c14610866578063d547741f14610827578063e2a2496c14610259578063f5a908f01461020d578063f6837157146101ef5763ffd581b6146101cc573861000f565b346101ea5760003660031901126101ea57602060405162278d008152f35b600080fd5b346101ea5760003660031901126101ea576020600354604051908152f35b346101ea5760203660031901126101ea576004356001600160401b038082116101ea576102486102436040933690600401611fc0565b612600565b909183519216825215156020820152f35b60603660031901126101ea576004356102706120af565b6102786125c1565b6102806125df565b8160005260056020526040600020916102a660018060a01b0360018501541633146127c9565b600b83019182549360ff85166005811015610645576102c5901561277b565b6102d2602435151561247a565b6102de60028201612207565b61034d6102ed60058401612207565b9660ff600685015416956007850154976002600c60088801549701549360ff191617905561031c6008546127bc565b60085533907f71b273ecdaf2f86cf04941c16ff6f1eae913cbfbeef44422d9c1c39847854d13600080a33490612541565b9461035c6003548710156124e6565b6007549561036987612532565b6007556201518042014211610811576040519361038585611f16565b878552336020860152836040860152602435606086015285151560808601528860a086015286151560c08601528260e086015261010085015242610120850152620151804201610140850152600061016085015261018084015260006101a084015260006101c084015260006101e0840152856000526005602052604060002093835185556001850160018060a01b036020860151166bffffffffffffffffffffffff60a01b82541617905560408401518051906001600160401b03821161072b57819061045660028901546121cd565b601f81116107be575b50602090601f831160011461074c57600092610741575b50508160011b916000199060031b1c19161760028601555b606084015160038601556104b760808501511515600487019060ff801983541691151516179055565b60a08401518051906001600160401b03821161072b5781906104dc60058901546121cd565b601f81116106d8575b50602090601f83116001146106665760009261065b575b50508160011b916000199060031b1c19161760058601555b61053360c08501511515600687019060ff801983541691151516179055565b60e0840151600786015561010084015160088601556101208401516009860155610140840151600a8601556101608401519060058210156106455760209886600f6101e07fea8640de2f174f1fa43c2fa556863133caabcfbbb2e37626b2a0239f4f84b006986105aa61062597600b8f9d0161254e565b610180810151600c8501556101a0810151600d8501556101c0810151600e85015501519101553360005260068a526105e6876040600020612566565b6105f1600854612532565b6008556106096040519560c0875260c087019061208a565b916024358b87015215156040860152848203606086015261208a565b941515608083015260a08201528033940390a36001600255604051908152f35b634e487b7160e01b600052602160045260246000fd5b015190508a806104fc565b9250600588016000526020600020906000935b601f19841685106106bd576001945083601f198116106106a4575b505050811b016005860155610514565b015160001960f88460031b161c191690558a8080610694565b81810151835560209485019460019093019290910190610679565b909150600588016000526020600020601f840160051c810160208510610724575b90849392915b601f830160051c820181106107155750506104e5565b600081558594506001016106ff565b50806106f9565b634e487b7160e01b600052604160045260246000fd5b015190508a80610476565b9250600288016000526020600020906000935b601f19841685106107a3576001945083601f1981161061078a575b505050811b01600286015561048e565b015160001960f88460031b161c191690558a808061077a565b8181015183556020948501946001909301929091019061075f565b909150600288016000526020600020601f840160051c81016020851061080a575b90849392915b601f830160051c820181106107fb57505061045f565b600081558594506001016107e5565b50806107df565b634e487b7160e01b600052601160045260246000fd5b346101ea5760403660031901126101ea5761001b600435610846612031565b90806000526000602052610861600160406000200154612361565b612405565b346101ea5760203660031901126101ea576004356108826125df565b80600052600560205260406000206108a760018060a01b0360018301541633146127c9565b600b810180549160ff83166005811015610645576002916108ca600c921561277b565b01549260ff19161790556108df6008546127bc565b60085580610917575b5033907f71b273ecdaf2f86cf04941c16ff6f1eae913cbfbeef44422d9c1c39847854d13600080a36001600255005b600080808093335af1610928612809565b501561093457816108e8565b60405162461bcd60e51b8152602060048201526011602482015270119959481c99599d5b990819985a5b1959607a1b6044820152606490fd5b346101ea5760203660031901126101ea577f8c4d35e54a3f2ef1134138fd8ea3daee6a3c89e10d2665996babdf70261e2c7660206004356109ac6122ad565b80600355604051908152a1005b346101ea576020806003193601126101ea576001600160a01b036109db612047565b16600052600681526040600020604051808284829454938481520190600052846000209260005b86828210610bad5784610a1781860382611f4d565b6000805b8251811015610a7457610a2e8184612b01565b51600052600580855260ff600b6040600020015416908110156106455715610a5f575b610a5a90612532565b610a1b565b90610a6c610a5a91612532565b919050610a51565b5082610a7f82612b15565b91610a8d6040519384611f4d565b808352610a9c601f1991612b15565b018160005b828110610b97575050506000805b8451811015610b3957610ac28186612b01565b5160005260059081845260ff600b6040600020015416918083101561064557610af19215610af6575b50612532565b610aaf565b610b008288612b01565b516000528452610b32604060002093610b21610b1b82612532565b95612a1f565b610b2b8289612b01565b5286612b01565b5086610aeb565b604080518481528551818601819052600092600582901b830181019188880191889085015b828710610b6b5785850386f35b909192938280610b87600193603f198a820301865288516120cb565b9601920196019592919092610b5e565b610b9f6129a7565b828287010152018290610aa1565b8554845260019586019587955093019201610a02565b346101ea5760203660031901126101ea576004356000908152600560205260409020805460018201546001600160a01b031691610c0260028201612207565b92600382015493600483015460ff1660058401610c1e90612207565b95600685015460ff16966007860154600887015490600988015492600a89015494600b8a015460ff1696600c8b015498600d8c01549a600e8d01549c600f01549d604051806080525260805160200152610200806080516040015260805101610c869161208a565b91608051606001521515608051608001526080518082039060a00152610cab9161208a565b99151560805160c0015260805160e0015260805161010001526080516101200152608051610140015260805161016001610ce4916120be565b60805161018001526080516101a001526080516101c001526080516101e0015260805180910390f35b346101ea5760403660031901126101ea57610d26612047565b6001600160a01b03166000908152600660205260409020805460243591908210156101ea57602091610d579161219f565b90546040519160031b1c8152f35b346101ea5760003660031901126101ea57602060405160008152f35b346101ea5760203660031901126101ea57610d9a6129a7565b506004356000526005602052610dca610db66040600020612a1f565b6040519182916020835260208301906120cb565b0390f35b346101ea5760003660031901126101ea576020600454604051908152f35b346101ea5760403660031901126101ea57610e05612031565b600435600052600060205260406000209060018060a01b0316600052602052602060ff604060002054166040519015158152f35b346101ea5760603660031901126101ea57602435600435604435610e5b612305565b8160005260056020526040600020600b81019081549060ff8216600581101561064557610e88901561277b565b610e9d86610e9860058401612207565b6126d6565b15610eff5783926001600f9360ff191617905542600d82015585600e8201550155610ec96008546127bc565b60085560405192835260208301527ff88d635c6c9dd6ccf33792822b70c3b41dc8cf753aa4ef23ef86461731d31a7560403393a3005b60405162461bcd60e51b815260206004820152602d60248201527f457865637574696f6e20707269636520646576696174657320746f6f206d756360448201526c682066726f6d206f7261636c6560981b6064820152608490fd5b346101ea5760003660031901126101ea57610f736122ad565b610f7b6125c1565b600160ff19815416176001557f62e78cea01bee320cd4e420270b5ea74000d11b0c9f74754ebdbfc544b05a2586020604051338152a1005b346101ea576020806003193601126101ea576001600160a01b03610fd5612047565b1660005260068152604060002060405190818382549182815201908192600052846000209060005b8682821061105357868661101382880383611f4d565b604051928392818401908285525180915260408401929160005b82811061103c57505050500390f35b83518552869550938101939281019260010161102d565b835485529093019260019283019201610ffd565b346101ea576020806003193601126101ea576004356001600160401b0381116101ea57611098903690600401612001565b919060005b8381106110a657005b6110b1818584612997565b356000526005908184526040600020600b81019081549060ff821694851015610645576110ed94159081611142575b506110f2575b5050612532565b61109d565b60ff1916600317905560088054611108906127bc565b9055611115818685612997565b357f74bc747684c4bbf3e0b059e4c600406a6de5ae015fd108b0e5b0b98e71802fe5600080a285806110e6565b600a915001544211886110e0565b346101ea5760403660031901126101ea576004356001600160401b0381116101ea5761118e6111856020923690600401611fc0565b602435906126d6565b6040519015158152f35b6101003660031901126101ea576004356001600160401b0381116101ea576111c490369060040161205d565b906111cd6120af565b60649182356001600160401b0381116101ea576111ee90369060040161205d565b90946084359384151585036101ea576112056125c1565b61120d6125df565b811561182d5782156117f257611226602435151561247a565b60a435156117b95761138860c4351161177d5760e4359560018710611746576102d08711611710575061125d6003543410156124e6565b6007549561126a87612532565b600755610e1081818102048114821517156108115761128a910242612541565b906040519161129883611f16565b8783523360208401526112ac368588611f89565b6040840152602435606084015281151560808401526112cc36868b611f89565b60a084015286151560c084015260a43560e084015260c4356101008401524261012084015261014083015260006101608301523461018083015260006101a083015260006101c083015260006101e0830152866000526005602052604060002093825185556001850160018060a01b036020850151166bffffffffffffffffffffffff60a01b82541617905560408301518051906001600160401b03821161072b57819061137d60028901546121cd565b601f81116116bd575b50602090601f831160011461164b57600092611640575b50508160011b916000199060031b1c19161760028601555b606083015160038601556113de60808401511515600487019060ff801983541691151516179055565b60a08301518051906001600160401b03821161072b57819061140360058901546121cd565b601f81116115ed575b50602090601f831160011461157b57600092611570575b50508160011b916000199060031b1c19161760058601555b61145a60c08401511515600687019060ff801983541691151516179055565b60e0830151600786015561010083015160088601556101208301516009860155610140830151600a8601556101608301519860058a101561064557611531899787600f6101e061154d9860209f6114d590600b7fea8640de2f174f1fa43c2fa556863133caabcfbbb2e37626b2a0239f4f84b0069e0161254e565b610180810151600c8501556101a0810151600d8501556101c0810151600e85015501519101553360005260068c52611511896040600020612566565b61151c600854612532565b6008556040519660c0885260c08801916125a0565b926024358b8701521515604086015284830360608601526125a0565b931515608082015260a43560a08201528033940390a36001600255604051908152f35b015190508b80611423565b9250600588016000526020600020906000935b601f19841685106115d2576001945083601f198116106115b9575b505050811b01600586015561143b565b015160001960f88460031b161c191690558b80806115a9565b8181015183556020948501946001909301929091019061158e565b909150600588016000526020600020601f840160051c810160208510611639575b90849392915b601f830160051c8201811061162a57505061140c565b60008155859450600101611614565b508061160e565b015190508b8061139d565b9250600288016000526020600020906000935b601f19841685106116a2576001945083601f19811610611689575b505050811b0160028601556113b5565b015160001960f88460031b161c191690558b8080611679565b8181015183556020948501946001909301929091019061165e565b909150600288016000526020600020601f840160051c810160208510611709575b90849392915b601f830160051c820181106116fa575050611386565b600081558594506001016116e4565b50806116de565b60405162461bcd60e51b81526020600482015260116024820152704475726174696f6e20746f6f206c6f6e6760781b6044820152fd5b60405162461bcd60e51b8152602060048201526012602482015271111d5c985d1a5bdb881d1bdbc81cda1bdc9d60721b6044820152fd5b60405162461bcd60e51b815260206004820152601560248201527409ac2f040e6d8d2e0e0c2ceca40e8dede40d0d2ced605b1b60448201528690fd5b60405162461bcd60e51b81526020600482015260126024820152710416d6f756e74206d757374206265203e20360741b60448201528690fd5b60405162461bcd60e51b8152602060048201526014602482015273151c98591948185cdcd95d081c995c5d5a5c995960621b60448201528690fd5b60405162461bcd60e51b815260206004820152601460248201527315d85d18da08185cdcd95d081c995c5d5a5c995960621b60448201528690fd5b346101ea5760003660031901126101ea57602060ff600154166040519015158152f35b346101ea5760003660031901126101ea576020600854604051908152f35b346101ea5760403660031901126101ea576118c8602435600435612839565b90610dca6040519283921515835260406020840152604083019061208a565b346101ea5760003660031901126101ea576119006122ad565b47801561195957600080808093335af1611918612809565b501561192057005b60405162461bcd60e51b815260206004820152601160248201527015da5d1a191c985dd85b0819985a5b1959607a1b6044820152606490fd5b60405162461bcd60e51b81526020600482015260136024820152724e6f206665657320746f20776974686472617760681b6044820152606490fd5b346101ea5760003660031901126101ea576020600754604051908152f35b346101ea5760003660031901126101ea576119cb6122ad565b60015460ff811615611a0a5760ff19166001557f5db9ee0a495bf2e6ff9c91a7834c1ba4fdd244a5e8aa4e537bd38aeae4b073aa6020604051338152a1005b604051638dfc202b60e01b8152600490fd5b346101ea5760403660031901126101ea576004356001600160401b0381116101ea57611a4c90369060040161205d565b6024359163ffffffff83168084036101ea577f4ce9f3693e41dabdc77c9be517202f5a1009a7fbeca72cfb83f61b86a77d24b593611aba91611a8c6122ad565b6040518585823760208187810160098152030190209063ffffffff1982541617905560405193849384612b2c565b0390a1005b346101ea5760403660031901126101ea576004356024356001600160401b0381116101ea57611af290369060040161205d565b90611afb612305565b826000526005602052600b6040600020019182549260ff84166005811015610645577f1322c62b2b0266a20579a26b0ddfcf33e8b042d86ceb5fae7b05362ea44afa0394611b4b6004921561277b565b60ff1916179055611b5d6008546127bc565b600855611b776040519283926020845260208401916125a0565b0390a2005b346101ea5760403660031901126101ea57611b95612031565b336001600160a01b03821603611bb15761001b90600435612405565b60405163334bd91960e11b8152600490fd5b346101ea5760403660031901126101ea5761001b600435611be2612031565b90806000526000602052611bfd600160406000200154612361565b612387565b346101ea5760403660031901126101ea576001600160401b036004358181116101ea57611c33903690600401612001565b916024359081116101ea57611c4c903690600401612001565b611c579291926122ad565b808403611d0d5760005b848110611c6a57005b80611c81611c7c611d08938588612997565b612b51565b63ffffffff6020611c93848a89612b62565b919082604051938492833781016009815203019020911663ffffffff198254161790557f4ce9f3693e41dabdc77c9be517202f5a1009a7fbeca72cfb83f61b86a77d24b5611ce2828887612b62565b90611d00611cf4611c7c86898c612997565b60405193849384612b2c565b0390a1612532565b611c61565b60405162461bcd60e51b8152602060048201526015602482015274082e4e4c2f240d8cadccee8d040dad2e6dac2e8c6d605b1b6044820152606490fd5b346101ea5760203660031901126101ea57600435611d666122ad565b6103e88111611da0576020817f0ab56de9fe168ce12a9a1f47b688d739db6607607c1d71dad52ddd8bedcf5e2592600455604051908152a1005b60405162461bcd60e51b8152602060048201526012602482015271088caecd2c2e8d2dedc40e8dede40d0d2ced60731b6044820152606490fd5b346101ea5760203660031901126101ea5760043560005260006020526020600160406000200154604051908152f35b346101ea5760203660031901126101ea576004356001600160401b0381116101ea5763ffffffff611e576020611e4481943690600401611fc0565b8160405193828580945193849201611fde565b810160098152030190205416604051908152f35b346101ea5760003660031901126101ea576020604051610e108152f35b346101ea5760003660031901126101ea5760206040517fd8aa0f3194971a2a116679f7c2090f6939c8d4e01a2a8d7e41d55e5351469e638152f35b346101ea5760203660031901126101ea576004359063ffffffff60e01b82168092036101ea57602091637965db0b60e01b8114908115611f05575b5015158152f35b6301ffc9a760e01b14905083611efe565b61020081019081106001600160401b0382111761072b57604052565b604081019081106001600160401b0382111761072b57604052565b90601f801991011681019081106001600160401b0382111761072b57604052565b6001600160401b03811161072b57601f01601f191660200190565b929192611f9582611f6e565b91611fa36040519384611f4d565b8294818452818301116101ea578281602093846000960137010152565b9080601f830112156101ea57816020611fdb93359101611f89565b90565b60005b838110611ff15750506000910152565b8181015183820152602001611fe1565b9181601f840112156101ea578235916001600160401b0383116101ea576020808501948460051b0101116101ea57565b602435906001600160a01b03821682036101ea57565b600435906001600160a01b03821682036101ea57565b9181601f840112156101ea578235916001600160401b0383116101ea57602083818601950101116101ea57565b906020916120a381518092818552858086019101611fde565b601f01601f1916010190565b6044359081151582036101ea57565b9060058210156106455752565b908151815260018060a01b0360208301511660208201526121266120fe604084015161020080604086015284019061208a565b6060840151606084015260808401511515608084015260a084015183820360a085015261208a565b9160c0810151151560c083015260e081015160e083015261010080820151908301526101208082015190830152610140808201519083015261217161016080830151908401906120be565b61018080820151908301526101a080820151908301526101c080820151908301526101e08091015191015290565b80548210156121b75760005260206000200190600090565b634e487b7160e01b600052603260045260246000fd5b90600182811c921680156121fd575b60208310146121e757565b634e487b7160e01b600052602260045260246000fd5b91607f16916121dc565b906040519182600082549261221b846121cd565b90818452600194858116908160001461228a5750600114612247575b505061224592500383611f4d565b565b9093915060005260209081600020936000915b81831061227257505061224593508201013880612237565b8554888401850152948501948794509183019161225a565b91505061224594506020925060ff191682840152151560051b8201013880612237565b3360009081527fad3228b676f7d3cd4284a5443f17f1962b36e491b30a40b2405849e597ba5fb5602052604081205460ff16156122e75750565b6044906040519063e2517d3f60e01b82523360048301526024820152fd5b3360009081527fdae2aa361dfd1ca020a396615627d436107c35eff9fe7738a3512819782d706960205260409020547fd8aa0f3194971a2a116679f7c2090f6939c8d4e01a2a8d7e41d55e5351469e639060ff16156122e75750565b80600052600060205260406000203360005260205260ff60406000205416156122e75750565b9060009180835282602052604083209160018060a01b03169182845260205260ff6040842054161560001461240057808352826020526040832082845260205260408320600160ff198254161790557f2f8788117e7eff1d82e926ec794901d17c78024a50270940304540a733656f0d339380a4600190565b505090565b9060009180835282602052604083209160018060a01b03169182845260205260ff6040842054166000146124005780835282602052604083208284526020526040832060ff1981541690557ff6391f5c32d9c69d2a47ea670b442974b53935d1edc7fd64eb21e047a839171b339380a4600190565b1561248157565b60405162461bcd60e51b815260206004820152601860248201527f546172676574207072696365206d757374206265203e203000000000000000006044820152606490fd5b81156124d0570490565b634e487b7160e01b600052601260045260246000fd5b156124ed57565b60405162461bcd60e51b815260206004820152601860248201527f496e73756666696369656e7420747269676765722066656500000000000000006044820152606490fd5b60001981146108115760010190565b9190820180921161081157565b9060058110156106455760ff80198354169116179055565b80546801000000000000000081101561072b576125889160018201815561219f565b819291549060031b91821b91600019901b1916179055565b908060209392818452848401376000828201840152601f01601f1916010190565b60ff600154166125cd57565b60405163d93c066560e01b8152600490fd5b60028054146125ee5760028055565b604051633ee5aeb560e01b8152600490fd5b63ffffffff604051828180945161261d8160209788809601611fde565b8101600981520301902054169081156126bf57604051916332c935bb60e21b8352600483015280826024816108075afa916000918361267b575b5050901560001461266b5750600090600090565b906001600160401b038216151590565b81813d83116126b8575b61268f8183611f4d565b810103126126b45751906001600160401b03821682036126b157503880612657565b80fd5b5080fd5b503d612685565b5050600090600090565b9190820391821161081157565b6126df90612600565b15612774576001600160401b03606491160490600082821160001461272f575081612709916126c9565b906127109182810292818404149015171561081157612727916124c6565b600454101590565b92919061273c90826126c9565b612710908181029181830414901517156127605761275b9293506124c6565b612727565b634e487b7160e01b84526011600452602484fd5b5050600190565b1561278257565b60405162461bcd60e51b815260206004820152601260248201527154726967676572206e6f742061637469766560701b6044820152606490fd5b8015610811576000190190565b156127d057565b60405162461bcd60e51b81526020600482015260116024820152702737ba103a3934b3b3b2b91037bbb732b960791b6044820152606490fd5b3d15612834573d9061281a82611f6e565b916128286040519384611f4d565b82523d6000602084013e565b606090565b91909160009081526020906005825260409384822060ff600b8201541660058110156129835761295457600a81015442116129285781156128fe578060ff60046003930154166000146128f557015411155b156128bd57506f526561647920746f206578656375746560801b60019351916128b383611f32565b6010835282015290565b7f507269636520636f6e646974696f6e206e6f74206d6574000000000000000000909351916128eb83611f32565b6017835282015290565b0154101561288b565b50506c496e76616c696420707269636560981b9093519161291e83611f32565b600d835282015290565b50506e151c9a59d9d95c88195e1c1a5c9959608a1b9093519161294a83611f32565b600f835282015290565b50507154726967676572206e6f742061637469766560701b9093519161297983611f32565b6012835282015290565b634e487b7160e01b84526021600452602484fd5b91908110156121b75760051b0190565b604051906129b482611f16565b816101e060009182815282602082015260606040820152826060820152826080820152606060a08201528260c08201528260e08201528261010082015282610120820152826101408201528261016082015282610180820152826101a0820152826101c08201520152565b90604051612a2c81611f16565b8254815260018301546001600160a01b03166020820152918290612a5260028201612207565b60408301526003810154606083015260ff60048201541615156080830152612a7c60058201612207565b60a083015260ff600682015416151560c0830152600781015460e083015260088101546101008301526009810154610120830152600a81015461014083015260ff600b820154166005811015610645576101e091600f91610160850152600c810154610180850152600d8101546101a0850152600e8101546101c08501520154910152565b80518210156121b75760209160051b010190565b6001600160401b03811161072b5760051b60200190565b91612b4a60209263ffffffff929695966040865260408601916125a0565b9416910152565b3563ffffffff811681036101ea5790565b91908110156121b75760051b81013590601e19813603018212156101ea5701908135916001600160401b0383116101ea5760200182360381136101ea57919056fea2646970667358221220ef867960a8d09fa5ce523d53b9c3357620cf8637ae70d2b73ddf1afddbef13e464736f6c634300081400332f8788117e7eff1d82e926ec794901d17c78024a50270940304540a733656f0d","opcodes":"PUSH1 0x80 PUSH1 0x40 MSTORE CALLVALUE PUSH3 0x4C JUMPI PUSH1 0x1 PUSH1 0x2 SSTORE PUSH7 0x38D7EA4C68000 PUSH1 0x3 SSTORE PUSH1 0xC8 PUSH1 0x4 SSTORE PUSH1 0x1 PUSH1 0x7 SSTORE PUSH3 0x2F CALLER PUSH3 0x51 JUMP JUMPDEST POP PUSH3 0x3B CALLER PUSH3 0xD1 JUMP JUMPDEST POP PUSH1 0x40 MLOAD PUSH2 0x2BD9 SWAP1 DUP2 PUSH3 0x174 DUP3 CODECOPY RETURN JUMPDEST PUSH1 0x0 DUP1 REVERT JUMPDEST PUSH1 0x1 PUSH1 0x1 PUSH1 0xA0 SHL SUB AND PUSH1 0x0 DUP2 DUP2 MSTORE PUSH32 0xAD3228B676F7D3CD4284A5443F17F1962B36E491B30A40B2405849E597BA5FB5 PUSH1 0x20 MSTORE PUSH1 0x40 DUP2 KECCAK256 SLOAD SWAP1 SWAP2 SWAP1 PUSH1 0xFF AND PUSH3 0xCD JUMPI DUP2 DUP1 MSTORE DUP2 PUSH1 0x20 MSTORE PUSH1 0x40 DUP3 KECCAK256 DUP2 DUP4 MSTORE PUSH1 0x20 MSTORE PUSH1 0x40 DUP3 KECCAK256 PUSH1 0x1 PUSH1 0xFF NOT DUP3 SLOAD AND OR SWAP1 SSTORE CALLER SWAP2 PUSH1 0x0 DUP1 MLOAD PUSH1 0x20 PUSH3 0x2D4D DUP4 CODECOPY DUP2 MLOAD SWAP2 MSTORE DUP2 DUP1 LOG4 PUSH1 0x1 SWAP1 JUMP JUMPDEST POP SWAP1 JUMP JUMPDEST PUSH1 0x1 PUSH1 0x1 PUSH1 0xA0 SHL SUB AND PUSH1 0x0 DUP2 DUP2 MSTORE PUSH32 0xDAE2AA361DFD1CA020A396615627D436107C35EFF9FE7738A3512819782D7069 PUSH1 0x20 MSTORE PUSH1 0x40 DUP2 KECCAK256 SLOAD SWAP1 SWAP2 SWAP1 PUSH32 0xD8AA0F3194971A2A116679F7C2090F6939C8D4E01A2A8D7E41D55E5351469E63 SWAP1 PUSH1 0xFF AND PUSH3 0x16E JUMPI DUP1 DUP4 MSTORE DUP3 PUSH1 0x20 MSTORE PUSH1 0x40 DUP4 KECCAK256 DUP3 DUP5 MSTORE PUSH1 0x20 MSTORE PUSH1 0x40 DUP4 KECCAK256 PUSH1 0x1 PUSH1 0xFF NOT DUP3 SLOAD AND OR SWAP1 SSTORE PUSH1 0x0 DUP1 MLOAD PUSH1 0x20 PUSH3 0x2D4D DUP4 CODECOPY DUP2 MLOAD SWAP2 MSTORE CALLER SWAP4 DUP1 LOG4 PUSH1 0x1 SWAP1 JUMP JUMPDEST POP POP SWAP1 JUMP INVALID PUSH1 0xA0 DUP1 PUSH1 0x40 MSTORE PUSH1 0x4 CALLDATASIZE LT ISZERO PUSH2 0x1D JUMPI JUMPDEST POP CALLDATASIZE ISZERO PUSH2 0x1B JUMPI PUSH1 0x0 DUP1 REVERT JUMPDEST STOP JUMPDEST PUSH1 0x0 CALLDATALOAD PUSH1 0xE0 SHR SWAP1 DUP2 PUSH4 0x1FFC9A7 EQ PUSH2 0x1EC3 JUMPI POP DUP1 PUSH4 0x7BD0265 EQ PUSH2 0x1E88 JUMPI DUP1 PUSH4 0x13AE981B EQ PUSH2 0x1E6B JUMPI DUP1 PUSH4 0x18161684 EQ PUSH2 0x1E09 JUMPI DUP1 PUSH4 0x248A9CA3 EQ PUSH2 0x1DDA JUMPI DUP1 PUSH4 0x24F1C5C1 EQ PUSH2 0x1D4A JUMPI DUP1 PUSH4 0x2A1B3FD3 EQ PUSH2 0x1C02 JUMPI DUP1 PUSH4 0x2F2FF15D EQ PUSH2 0x1BC3 JUMPI DUP1 PUSH4 0x36568ABE EQ PUSH2 0x1B7C JUMPI DUP1 PUSH4 0x3940FDA4 EQ PUSH2 0x1ABF JUMPI DUP1 PUSH4 0x3A90F050 EQ PUSH2 0x1A1C JUMPI DUP1 PUSH4 0x3F4BA83A EQ PUSH2 0x19B2 JUMPI DUP1 PUSH4 0x42227FA4 EQ PUSH2 0x1994 JUMPI DUP1 PUSH4 0x476343EE EQ PUSH2 0x18E7 JUMPI DUP1 PUSH4 0x4E712FB8 EQ PUSH2 0x188B JUMPI DUP1 PUSH4 0x4EFC9C85 EQ PUSH2 0x18A9 JUMPI DUP1 PUSH4 0x5A487EF6 EQ PUSH2 0x188B JUMPI DUP1 PUSH4 0x5C975ABB EQ PUSH2 0x1868 JUMPI DUP1 PUSH4 0x5F330929 EQ PUSH2 0x1198 JUMPI DUP1 PUSH4 0x65672A7F EQ PUSH2 0x1150 JUMPI DUP1 PUSH4 0x681475E8 EQ PUSH2 0x1067 JUMPI DUP1 PUSH4 0x71876A16 EQ PUSH2 0xFB3 JUMPI DUP1 PUSH4 0x8456CB59 EQ PUSH2 0xF5A JUMPI DUP1 PUSH4 0x86B9D16E EQ PUSH2 0xE39 JUMPI DUP1 PUSH4 0x91D14854 EQ PUSH2 0xDEC JUMPI DUP1 PUSH4 0x975B8662 EQ PUSH2 0xDCE JUMPI DUP1 PUSH4 0x9C50472B EQ PUSH2 0xD81 JUMPI DUP1 PUSH4 0xA217FDDF EQ PUSH2 0xD65 JUMPI DUP1 PUSH4 0xA3498325 EQ PUSH2 0xD0D JUMPI DUP1 PUSH4 0xA78DD42E EQ PUSH2 0xBC3 JUMPI DUP1 PUSH4 0xAEFED8FF EQ PUSH2 0x9B9 JUMPI DUP1 PUSH4 0xB71E83C4 EQ PUSH2 0x96D JUMPI DUP1 PUSH4 0xD45DDD9C EQ PUSH2 0x866 JUMPI DUP1 PUSH4 0xD547741F EQ PUSH2 0x827 JUMPI DUP1 PUSH4 0xE2A2496C EQ PUSH2 0x259 JUMPI DUP1 PUSH4 0xF5A908F0 EQ PUSH2 0x20D JUMPI DUP1 PUSH4 0xF6837157 EQ PUSH2 0x1EF JUMPI PUSH4 0xFFD581B6 EQ PUSH2 0x1CC JUMPI CODESIZE PUSH2 0xF JUMP JUMPDEST CALLVALUE PUSH2 0x1EA JUMPI PUSH1 0x0 CALLDATASIZE PUSH1 0x3 NOT ADD SLT PUSH2 0x1EA JUMPI PUSH1 0x20 PUSH1 0x40 MLOAD PUSH3 0x278D00 DUP2 MSTORE RETURN JUMPDEST PUSH1 0x0 DUP1 REVERT JUMPDEST CALLVALUE PUSH2 0x1EA JUMPI PUSH1 0x0 CALLDATASIZE PUSH1 0x3 NOT ADD SLT PUSH2 0x1EA JUMPI PUSH1 0x20 PUSH1 0x3 SLOAD PUSH1 0x40 MLOAD SWAP1 DUP2 MSTORE RETURN JUMPDEST CALLVALUE PUSH2 0x1EA JUMPI PUSH1 0x20 CALLDATASIZE PUSH1 0x3 NOT ADD SLT PUSH2 0x1EA JUMPI PUSH1 0x4 CALLDATALOAD PUSH1 0x1 PUSH1 0x1 PUSH1 0x40 SHL SUB DUP1 DUP3 GT PUSH2 0x1EA JUMPI PUSH2 0x248 PUSH2 0x243 PUSH1 0x40 SWAP4 CALLDATASIZE SWAP1 PUSH1 0x4 ADD PUSH2 0x1FC0 JUMP JUMPDEST PUSH2 0x2600 JUMP JUMPDEST SWAP1 SWAP2 DUP4 MLOAD SWAP3 AND DUP3 MSTORE ISZERO ISZERO PUSH1 0x20 DUP3 ADD MSTORE RETURN JUMPDEST PUSH1 0x60 CALLDATASIZE PUSH1 0x3 NOT ADD SLT PUSH2 0x1EA JUMPI PUSH1 0x4 CALLDATALOAD PUSH2 0x270 PUSH2 0x20AF JUMP JUMPDEST PUSH2 0x278 PUSH2 0x25C1 JUMP JUMPDEST PUSH2 0x280 PUSH2 0x25DF JUMP JUMPDEST DUP2 PUSH1 0x0 MSTORE PUSH1 0x5 PUSH1 0x20 MSTORE PUSH1 0x40 PUSH1 0x0 KECCAK256 SWAP2 PUSH2 0x2A6 PUSH1 0x1 DUP1 PUSH1 0xA0 SHL SUB PUSH1 0x1 DUP6 ADD SLOAD AND CALLER EQ PUSH2 0x27C9 JUMP JUMPDEST PUSH1 0xB DUP4 ADD SWAP2 DUP3 SLOAD SWAP4 PUSH1 0xFF DUP6 AND PUSH1 0x5 DUP2 LT ISZERO PUSH2 0x645 JUMPI PUSH2 0x2C5 SWAP1 ISZERO PUSH2 0x277B JUMP JUMPDEST PUSH2 0x2D2 PUSH1 0x24 CALLDATALOAD ISZERO ISZERO PUSH2 0x247A JUMP JUMPDEST PUSH2 0x2DE PUSH1 0x2 DUP3 ADD PUSH2 0x2207 JUMP JUMPDEST PUSH2 0x34D PUSH2 0x2ED PUSH1 0x5 DUP5 ADD PUSH2 0x2207 JUMP JUMPDEST SWAP7 PUSH1 0xFF PUSH1 0x6 DUP6 ADD SLOAD AND SWAP6 PUSH1 0x7 DUP6 ADD SLOAD SWAP8 PUSH1 0x2 PUSH1 0xC PUSH1 0x8 DUP9 ADD SLOAD SWAP8 ADD SLOAD SWAP4 PUSH1 0xFF NOT AND OR SWAP1 SSTORE PUSH2 0x31C PUSH1 0x8 SLOAD PUSH2 0x27BC JUMP JUMPDEST PUSH1 0x8 SSTORE CALLER SWAP1 PUSH32 0x71B273ECDAF2F86CF04941C16FF6F1EAE913CBFBEEF44422D9C1C39847854D13 PUSH1 0x0 DUP1 LOG3 CALLVALUE SWAP1 PUSH2 0x2541 JUMP JUMPDEST SWAP5 PUSH2 0x35C PUSH1 0x3 SLOAD DUP8 LT ISZERO PUSH2 0x24E6 JUMP JUMPDEST PUSH1 0x7 SLOAD SWAP6 PUSH2 0x369 DUP8 PUSH2 0x2532 JUMP JUMPDEST PUSH1 0x7 SSTORE PUSH3 0x15180 TIMESTAMP ADD TIMESTAMP GT PUSH2 0x811 JUMPI PUSH1 0x40 MLOAD SWAP4 PUSH2 0x385 DUP6 PUSH2 0x1F16 JUMP JUMPDEST DUP8 DUP6 MSTORE CALLER PUSH1 0x20 DUP7 ADD MSTORE DUP4 PUSH1 0x40 DUP7 ADD MSTORE PUSH1 0x24 CALLDATALOAD PUSH1 0x60 DUP7 ADD MSTORE DUP6 ISZERO ISZERO PUSH1 0x80 DUP7 ADD MSTORE DUP9 PUSH1 0xA0 DUP7 ADD MSTORE DUP7 ISZERO ISZERO PUSH1 0xC0 DUP7 ADD MSTORE DUP3 PUSH1 0xE0 DUP7 ADD MSTORE PUSH2 0x100 DUP6 ADD MSTORE TIMESTAMP PUSH2 0x120 DUP6 ADD MSTORE PUSH3 0x15180 TIMESTAMP ADD PUSH2 0x140 DUP6 ADD MSTORE PUSH1 0x0 PUSH2 0x160 DUP6 ADD MSTORE PUSH2 0x180 DUP5 ADD MSTORE PUSH1 0x0 PUSH2 0x1A0 DUP5 ADD MSTORE PUSH1 0x0 PUSH2 0x1C0 DUP5 ADD MSTORE PUSH1 0x0 PUSH2 0x1E0 DUP5 ADD MSTORE DUP6 PUSH1 0x0 MSTORE PUSH1 0x5 PUSH1 0x20 MSTORE PUSH1 0x40 PUSH1 0x0 KECCAK256 SWAP4 DUP4 MLOAD DUP6 SSTORE PUSH1 0x1 DUP6 ADD PUSH1 0x1 DUP1 PUSH1 0xA0 SHL SUB PUSH1 0x20 DUP7 ADD MLOAD AND PUSH12 0xFFFFFFFFFFFFFFFFFFFFFFFF PUSH1 0xA0 SHL DUP3 SLOAD AND OR SWAP1 SSTORE PUSH1 0x40 DUP5 ADD MLOAD DUP1 MLOAD SWAP1 PUSH1 0x1 PUSH1 0x1 PUSH1 0x40 SHL SUB DUP3 GT PUSH2 0x72B JUMPI DUP2 SWAP1 PUSH2 0x456 PUSH1 0x2 DUP10 ADD SLOAD PUSH2 0x21CD JUMP JUMPDEST PUSH1 0x1F DUP2 GT PUSH2 0x7BE JUMPI JUMPDEST POP PUSH1 0x20 SWAP1 PUSH1 0x1F DUP4 GT PUSH1 0x1 EQ PUSH2 0x74C JUMPI PUSH1 0x0 SWAP3 PUSH2 0x741 JUMPI JUMPDEST POP POP DUP2 PUSH1 0x1 SHL SWAP2 PUSH1 0x0 NOT SWAP1 PUSH1 0x3 SHL SHR NOT AND OR PUSH1 0x2 DUP7 ADD SSTORE JUMPDEST PUSH1 0x60 DUP5 ADD MLOAD PUSH1 0x3 DUP7 ADD SSTORE PUSH2 0x4B7 PUSH1 0x80 DUP6 ADD MLOAD ISZERO ISZERO PUSH1 0x4 DUP8 ADD SWAP1 PUSH1 0xFF DUP1 NOT DUP4 SLOAD AND SWAP2 ISZERO ISZERO AND OR SWAP1 SSTORE JUMP JUMPDEST PUSH1 0xA0 DUP5 ADD MLOAD DUP1 MLOAD SWAP1 PUSH1 0x1 PUSH1 0x1 PUSH1 0x40 SHL SUB DUP3 GT PUSH2 0x72B JUMPI DUP2 SWAP1 PUSH2 0x4DC PUSH1 0x5 DUP10 ADD SLOAD PUSH2 0x21CD JUMP JUMPDEST PUSH1 0x1F DUP2 GT PUSH2 0x6D8 JUMPI JUMPDEST POP PUSH1 0x20 SWAP1 PUSH1 0x1F DUP4 GT PUSH1 0x1 EQ PUSH2 0x666 JUMPI PUSH1 0x0 SWAP3 PUSH2 0x65B JUMPI JUMPDEST POP POP DUP2 PUSH1 0x1 SHL SWAP2 PUSH1 0x0 NOT SWAP1 PUSH1 0x3 SHL SHR NOT AND OR PUSH1 0x5 DUP7 ADD SSTORE JUMPDEST PUSH2 0x533 PUSH1 0xC0 DUP6 ADD MLOAD ISZERO ISZERO PUSH1 0x6 DUP8 ADD SWAP1 PUSH1 0xFF DUP1 NOT DUP4 SLOAD AND SWAP2 ISZERO ISZERO AND OR SWAP1 SSTORE JUMP JUMPDEST PUSH1 0xE0 DUP5 ADD MLOAD PUSH1 0x7 DUP7 ADD SSTORE PUSH2 0x100 DUP5 ADD MLOAD PUSH1 0x8 DUP7 ADD SSTORE PUSH2 0x120 DUP5 ADD MLOAD PUSH1 0x9 DUP7 ADD SSTORE PUSH2 0x140 DUP5 ADD MLOAD PUSH1 0xA DUP7 ADD SSTORE PUSH2 0x160 DUP5 ADD MLOAD SWAP1 PUSH1 0x5 DUP3 LT ISZERO PUSH2 0x645 JUMPI PUSH1 0x20 SWAP9 DUP7 PUSH1 0xF PUSH2 0x1E0 PUSH32 0xEA8640DE2F174F1FA43C2FA556863133CAABCFBBB2E37626B2A0239F4F84B006 SWAP9 PUSH2 0x5AA PUSH2 0x625 SWAP8 PUSH1 0xB DUP16 SWAP14 ADD PUSH2 0x254E JUMP JUMPDEST PUSH2 0x180 DUP2 ADD MLOAD PUSH1 0xC DUP6 ADD SSTORE PUSH2 0x1A0 DUP2 ADD MLOAD PUSH1 0xD DUP6 ADD SSTORE PUSH2 0x1C0 DUP2 ADD MLOAD PUSH1 0xE DUP6 ADD SSTORE ADD MLOAD SWAP2 ADD SSTORE CALLER PUSH1 0x0 MSTORE PUSH1 0x6 DUP11 MSTORE PUSH2 0x5E6 DUP8 PUSH1 0x40 PUSH1 0x0 KECCAK256 PUSH2 0x2566 JUMP JUMPDEST PUSH2 0x5F1 PUSH1 0x8 SLOAD PUSH2 0x2532 JUMP JUMPDEST PUSH1 0x8 SSTORE PUSH2 0x609 PUSH1 0x40 MLOAD SWAP6 PUSH1 0xC0 DUP8 MSTORE PUSH1 0xC0 DUP8 ADD SWAP1 PUSH2 0x208A JUMP JUMPDEST SWAP2 PUSH1 0x24 CALLDATALOAD DUP12 DUP8 ADD MSTORE ISZERO ISZERO PUSH1 0x40 DUP7 ADD MSTORE DUP5 DUP3 SUB PUSH1 0x60 DUP7 ADD MSTORE PUSH2 0x208A JUMP JUMPDEST SWAP5 ISZERO ISZERO PUSH1 0x80 DUP4 ADD MSTORE PUSH1 0xA0 DUP3 ADD MSTORE DUP1 CALLER SWAP5 SUB SWAP1 LOG3 PUSH1 0x1 PUSH1 0x2 SSTORE PUSH1 0x40 MLOAD SWAP1 DUP2 MSTORE RETURN JUMPDEST PUSH4 0x4E487B71 PUSH1 0xE0 SHL PUSH1 0x0 MSTORE PUSH1 0x21 PUSH1 0x4 MSTORE PUSH1 0x24 PUSH1 0x0 REVERT JUMPDEST ADD MLOAD SWAP1 POP DUP11 DUP1 PUSH2 0x4FC JUMP JUMPDEST SWAP3 POP PUSH1 0x5 DUP9 ADD PUSH1 0x0 MSTORE PUSH1 0x20 PUSH1 0x0 KECCAK256 SWAP1 PUSH1 0x0 SWAP4 JUMPDEST PUSH1 0x1F NOT DUP5 AND DUP6 LT PUSH2 0x6BD JUMPI PUSH1 0x1 SWAP5 POP DUP4 PUSH1 0x1F NOT DUP2 AND LT PUSH2 0x6A4 JUMPI JUMPDEST POP POP POP DUP2 SHL ADD PUSH1 0x5 DUP7 ADD SSTORE PUSH2 0x514 JUMP JUMPDEST ADD MLOAD PUSH1 0x0 NOT PUSH1 0xF8 DUP5 PUSH1 0x3 SHL AND SHR NOT AND SWAP1 SSTORE DUP11 DUP1 DUP1 PUSH2 0x694 JUMP JUMPDEST DUP2 DUP2 ADD MLOAD DUP4 SSTORE PUSH1 0x20 SWAP5 DUP6 ADD SWAP5 PUSH1 0x1 SWAP1 SWAP4 ADD SWAP3 SWAP1 SWAP2 ADD SWAP1 PUSH2 0x679 JUMP JUMPDEST SWAP1 SWAP2 POP PUSH1 0x5 DUP9 ADD PUSH1 0x0 MSTORE PUSH1 0x20 PUSH1 0x0 KECCAK256 PUSH1 0x1F DUP5 ADD PUSH1 0x5 SHR DUP2 ADD PUSH1 0x20 DUP6 LT PUSH2 0x724 JUMPI JUMPDEST SWAP1 DUP5 SWAP4 SWAP3 SWAP2 JUMPDEST PUSH1 0x1F DUP4 ADD PUSH1 0x5 SHR DUP3 ADD DUP2 LT PUSH2 0x715 JUMPI POP POP PUSH2 0x4E5 JUMP JUMPDEST PUSH1 0x0 DUP2 SSTORE DUP6 SWAP5 POP PUSH1 0x1 ADD PUSH2 0x6FF JUMP JUMPDEST POP DUP1 PUSH2 0x6F9 JUMP JUMPDEST PUSH4 0x4E487B71 PUSH1 0xE0 SHL PUSH1 0x0 MSTORE PUSH1 0x41 PUSH1 0x4 MSTORE PUSH1 0x24 PUSH1 0x0 REVERT JUMPDEST ADD MLOAD SWAP1 POP DUP11 DUP1 PUSH2 0x476 JUMP JUMPDEST SWAP3 POP PUSH1 0x2 DUP9 ADD PUSH1 0x0 MSTORE PUSH1 0x20 PUSH1 0x0 KECCAK256 SWAP1 PUSH1 0x0 SWAP4 JUMPDEST PUSH1 0x1F NOT DUP5 AND DUP6 LT PUSH2 0x7A3 JUMPI PUSH1 0x1 SWAP5 POP DUP4 PUSH1 0x1F NOT DUP2 AND LT PUSH2 0x78A JUMPI JUMPDEST POP POP POP DUP2 SHL ADD PUSH1 0x2 DUP7 ADD SSTORE PUSH2 0x48E JUMP JUMPDEST ADD MLOAD PUSH1 0x0 NOT PUSH1 0xF8 DUP5 PUSH1 0x3 SHL AND SHR NOT AND SWAP1 SSTORE DUP11 DUP1 DUP1 PUSH2 0x77A JUMP JUMPDEST DUP2 DUP2 ADD MLOAD DUP4 SSTORE PUSH1 0x20 SWAP5 DUP6 ADD SWAP5 PUSH1 0x1 SWAP1 SWAP4 ADD SWAP3 SWAP1 SWAP2 ADD SWAP1 PUSH2 0x75F JUMP JUMPDEST SWAP1 SWAP2 POP PUSH1 0x2 DUP9 ADD PUSH1 0x0 MSTORE PUSH1 0x20 PUSH1 0x0 KECCAK256 PUSH1 0x1F DUP5 ADD PUSH1 0x5 SHR DUP2 ADD PUSH1 0x20 DUP6 LT PUSH2 0x80A JUMPI JUMPDEST SWAP1 DUP5 SWAP4 SWAP3 SWAP2 JUMPDEST PUSH1 0x1F DUP4 ADD PUSH1 0x5 SHR DUP3 ADD DUP2 LT PUSH2 0x7FB JUMPI POP POP PUSH2 0x45F JUMP JUMPDEST PUSH1 0x0 DUP2 SSTORE DUP6 SWAP5 POP PUSH1 0x1 ADD PUSH2 0x7E5 JUMP JUMPDEST POP DUP1 PUSH2 0x7DF JUMP JUMPDEST PUSH4 0x4E487B71 PUSH1 0xE0 SHL PUSH1 0x0 MSTORE PUSH1 0x11 PUSH1 0x4 MSTORE PUSH1 0x24 PUSH1 0x0 REVERT JUMPDEST CALLVALUE PUSH2 0x1EA JUMPI PUSH1 0x40 CALLDATASIZE PUSH1 0x3 NOT ADD SLT PUSH2 0x1EA JUMPI PUSH2 0x1B PUSH1 0x4 CALLDATALOAD PUSH2 0x846 PUSH2 0x2031 JUMP JUMPDEST SWAP1 DUP1 PUSH1 0x0 MSTORE PUSH1 0x0 PUSH1 0x20 MSTORE PUSH2 0x861 PUSH1 0x1 PUSH1 0x40 PUSH1 0x0 KECCAK256 ADD SLOAD PUSH2 0x2361 JUMP JUMPDEST PUSH2 0x2405 JUMP JUMPDEST CALLVALUE PUSH2 0x1EA JUMPI PUSH1 0x20 CALLDATASIZE PUSH1 0x3 NOT ADD SLT PUSH2 0x1EA JUMPI PUSH1 0x4 CALLDATALOAD PUSH2 0x882 PUSH2 0x25DF JUMP JUMPDEST DUP1 PUSH1 0x0 MSTORE PUSH1 0x5 PUSH1 0x20 MSTORE PUSH1 0x40 PUSH1 0x0 KECCAK256 PUSH2 0x8A7 PUSH1 0x1 DUP1 PUSH1 0xA0 SHL SUB PUSH1 0x1 DUP4 ADD SLOAD AND CALLER EQ PUSH2 0x27C9 JUMP JUMPDEST PUSH1 0xB DUP2 ADD DUP1 SLOAD SWAP2 PUSH1 0xFF DUP4 AND PUSH1 0x5 DUP2 LT ISZERO PUSH2 0x645 JUMPI PUSH1 0x2 SWAP2 PUSH2 0x8CA PUSH1 0xC SWAP3 ISZERO PUSH2 0x277B JUMP JUMPDEST ADD SLOAD SWAP3 PUSH1 0xFF NOT AND OR SWAP1 SSTORE PUSH2 0x8DF PUSH1 0x8 SLOAD PUSH2 0x27BC JUMP JUMPDEST PUSH1 0x8 SSTORE DUP1 PUSH2 0x917 JUMPI JUMPDEST POP CALLER SWAP1 PUSH32 0x71B273ECDAF2F86CF04941C16FF6F1EAE913CBFBEEF44422D9C1C39847854D13 PUSH1 0x0 DUP1 LOG3 PUSH1 0x1 PUSH1 0x2 SSTORE STOP JUMPDEST PUSH1 0x0 DUP1 DUP1 DUP1 SWAP4 CALLER GAS CALL PUSH2 0x928 PUSH2 0x2809 JUMP JUMPDEST POP ISZERO PUSH2 0x934 JUMPI DUP2 PUSH2 0x8E8 JUMP JUMPDEST PUSH1 0x40 MLOAD PUSH3 0x461BCD PUSH1 0xE5 SHL DUP2 MSTORE PUSH1 0x20 PUSH1 0x4 DUP3 ADD MSTORE PUSH1 0x11 PUSH1 0x24 DUP3 ADD MSTORE PUSH17 0x119959481C99599D5B990819985A5B1959 PUSH1 0x7A SHL PUSH1 0x44 DUP3 ADD MSTORE PUSH1 0x64 SWAP1 REVERT JUMPDEST CALLVALUE PUSH2 0x1EA JUMPI PUSH1 0x20 CALLDATASIZE PUSH1 0x3 NOT ADD SLT PUSH2 0x1EA JUMPI PUSH32 0x8C4D35E54A3F2EF1134138FD8EA3DAEE6A3C89E10D2665996BABDF70261E2C76 PUSH1 0x20 PUSH1 0x4 CALLDATALOAD PUSH2 0x9AC PUSH2 0x22AD JUMP JUMPDEST DUP1 PUSH1 0x3 SSTORE PUSH1 0x40 MLOAD SWAP1 DUP2 MSTORE LOG1 STOP JUMPDEST CALLVALUE PUSH2 0x1EA JUMPI PUSH1 0x20 DUP1 PUSH1 0x3 NOT CALLDATASIZE ADD SLT PUSH2 0x1EA JUMPI PUSH1 0x1 PUSH1 0x1 PUSH1 0xA0 SHL SUB PUSH2 0x9DB PUSH2 0x2047 JUMP JUMPDEST AND PUSH1 0x0 MSTORE PUSH1 0x6 DUP2 MSTORE PUSH1 0x40 PUSH1 0x0 KECCAK256 PUSH1 0x40 MLOAD DUP1 DUP3 DUP5 DUP3 SWAP5 SLOAD SWAP4 DUP5 DUP2 MSTORE ADD SWAP1 PUSH1 0x0 MSTORE DUP5 PUSH1 0x0 KECCAK256 SWAP3 PUSH1 0x0 JUMPDEST DUP7 DUP3 DUP3 LT PUSH2 0xBAD JUMPI DUP5 PUSH2 0xA17 DUP2 DUP7 SUB DUP3 PUSH2 0x1F4D JUMP JUMPDEST PUSH1 0x0 DUP1 JUMPDEST DUP3 MLOAD DUP2 LT ISZERO PUSH2 0xA74 JUMPI PUSH2 0xA2E DUP2 DUP5 PUSH2 0x2B01 JUMP JUMPDEST MLOAD PUSH1 0x0 MSTORE PUSH1 0x5 DUP1 DUP6 MSTORE PUSH1 0xFF PUSH1 0xB PUSH1 0x40 PUSH1 0x0 KECCAK256 ADD SLOAD AND SWAP1 DUP2 LT ISZERO PUSH2 0x645 JUMPI ISZERO PUSH2 0xA5F JUMPI JUMPDEST PUSH2 0xA5A SWAP1 PUSH2 0x2532 JUMP JUMPDEST PUSH2 0xA1B JUMP JUMPDEST SWAP1 PUSH2 0xA6C PUSH2 0xA5A SWAP2 PUSH2 0x2532 JUMP JUMPDEST SWAP2 SWAP1 POP PUSH2 0xA51 JUMP JUMPDEST POP DUP3 PUSH2 0xA7F DUP3 PUSH2 0x2B15 JUMP JUMPDEST SWAP2 PUSH2 0xA8D PUSH1 0x40 MLOAD SWAP4 DUP5 PUSH2 0x1F4D JUMP JUMPDEST DUP1 DUP4 MSTORE PUSH2 0xA9C PUSH1 0x1F NOT SWAP2 PUSH2 0x2B15 JUMP JUMPDEST ADD DUP2 PUSH1 0x0 JUMPDEST DUP3 DUP2 LT PUSH2 0xB97 JUMPI POP POP POP PUSH1 0x0 DUP1 JUMPDEST DUP5 MLOAD DUP2 LT ISZERO PUSH2 0xB39 JUMPI PUSH2 0xAC2 DUP2 DUP7 PUSH2 0x2B01 JUMP JUMPDEST MLOAD PUSH1 0x0 MSTORE PUSH1 0x5 SWAP1 DUP2 DUP5 MSTORE PUSH1 0xFF PUSH1 0xB PUSH1 0x40 PUSH1 0x0 KECCAK256 ADD SLOAD AND SWAP2 DUP1 DUP4 LT ISZERO PUSH2 0x645 JUMPI PUSH2 0xAF1 SWAP3 ISZERO PUSH2 0xAF6 JUMPI JUMPDEST POP PUSH2 0x2532 JUMP JUMPDEST PUSH2 0xAAF JUMP JUMPDEST PUSH2 0xB00 DUP3 DUP9 PUSH2 0x2B01 JUMP JUMPDEST MLOAD PUSH1 0x0 MSTORE DUP5 MSTORE PUSH2 0xB32 PUSH1 0x40 PUSH1 0x0 KECCAK256 SWAP4 PUSH2 0xB21 PUSH2 0xB1B DUP3 PUSH2 0x2532 JUMP JUMPDEST SWAP6 PUSH2 0x2A1F JUMP JUMPDEST PUSH2 0xB2B DUP3 DUP10 PUSH2 0x2B01 JUMP JUMPDEST MSTORE DUP7 PUSH2 0x2B01 JUMP JUMPDEST POP DUP7 PUSH2 0xAEB JUMP JUMPDEST PUSH1 0x40 DUP1 MLOAD DUP5 DUP2 MSTORE DUP6 MLOAD DUP2 DUP7 ADD DUP2 SWAP1 MSTORE PUSH1 0x0 SWAP3 PUSH1 0x5 DUP3 SWAP1 SHL DUP4 ADD DUP2 ADD SWAP2 DUP9 DUP9 ADD SWAP2 DUP9 SWAP1 DUP6 ADD JUMPDEST DUP3 DUP8 LT PUSH2 0xB6B JUMPI DUP6 DUP6 SUB DUP7 RETURN JUMPDEST SWAP1 SWAP2 SWAP3 SWAP4 DUP3 DUP1 PUSH2 0xB87 PUSH1 0x1 SWAP4 PUSH1 0x3F NOT DUP11 DUP3 SUB ADD DUP7 MSTORE DUP9 MLOAD PUSH2 0x20CB JUMP JUMPDEST SWAP7 ADD SWAP3 ADD SWAP7 ADD SWAP6 SWAP3 SWAP2 SWAP1 SWAP3 PUSH2 0xB5E JUMP JUMPDEST PUSH2 0xB9F PUSH2 0x29A7 JUMP JUMPDEST DUP3 DUP3 DUP8 ADD ADD MSTORE ADD DUP3 SWAP1 PUSH2 0xAA1 JUMP JUMPDEST DUP6 SLOAD DUP5 MSTORE PUSH1 0x1 SWAP6 DUP7 ADD SWAP6 DUP8 SWAP6 POP SWAP4 ADD SWAP3 ADD PUSH2 0xA02 JUMP JUMPDEST CALLVALUE PUSH2 0x1EA JUMPI PUSH1 0x20 CALLDATASIZE PUSH1 0x3 NOT ADD SLT PUSH2 0x1EA JUMPI PUSH1 0x4 CALLDATALOAD PUSH1 0x0 SWAP1 DUP2 MSTORE PUSH1 0x5 PUSH1 0x20 MSTORE PUSH1 0x40 SWAP1 KECCAK256 DUP1 SLOAD PUSH1 0x1 DUP3 ADD SLOAD PUSH1 0x1 PUSH1 0x1 PUSH1 0xA0 SHL SUB AND SWAP2 PUSH2 0xC02 PUSH1 0x2 DUP3 ADD PUSH2 0x2207 JUMP JUMPDEST SWAP3 PUSH1 0x3 DUP3 ADD SLOAD SWAP4 PUSH1 0x4 DUP4 ADD SLOAD PUSH1 0xFF AND PUSH1 0x5 DUP5 ADD PUSH2 0xC1E SWAP1 PUSH2 0x2207 JUMP JUMPDEST SWAP6 PUSH1 0x6 DUP6 ADD SLOAD PUSH1 0xFF AND SWAP7 PUSH1 0x7 DUP7 ADD SLOAD PUSH1 0x8 DUP8 ADD SLOAD SWAP1 PUSH1 0x9 DUP9 ADD SLOAD SWAP3 PUSH1 0xA DUP10 ADD SLOAD SWAP5 PUSH1 0xB DUP11 ADD SLOAD PUSH1 0xFF AND SWAP7 PUSH1 0xC DUP12 ADD SLOAD SWAP9 PUSH1 0xD DUP13 ADD SLOAD SWAP11 PUSH1 0xE DUP14 ADD SLOAD SWAP13 PUSH1 0xF ADD SLOAD SWAP14 PUSH1 0x40 MLOAD DUP1 PUSH1 0x80 MSTORE MSTORE PUSH1 0x80 MLOAD PUSH1 0x20 ADD MSTORE PUSH2 0x200 DUP1 PUSH1 0x80 MLOAD PUSH1 0x40 ADD MSTORE PUSH1 0x80 MLOAD ADD PUSH2 0xC86 SWAP2 PUSH2 0x208A JUMP JUMPDEST SWAP2 PUSH1 0x80 MLOAD PUSH1 0x60 ADD MSTORE ISZERO ISZERO PUSH1 0x80 MLOAD PUSH1 0x80 ADD MSTORE PUSH1 0x80 MLOAD DUP1 DUP3 SUB SWAP1 PUSH1 0xA0 ADD MSTORE PUSH2 0xCAB SWAP2 PUSH2 0x208A JUMP JUMPDEST SWAP10 ISZERO ISZERO PUSH1 0x80 MLOAD PUSH1 0xC0 ADD MSTORE PUSH1 0x80 MLOAD PUSH1 0xE0 ADD MSTORE PUSH1 0x80 MLOAD PUSH2 0x100 ADD MSTORE PUSH1 0x80 MLOAD PUSH2 0x120 ADD MSTORE PUSH1 0x80 MLOAD PUSH2 0x140 ADD MSTORE PUSH1 0x80 MLOAD PUSH2 0x160 ADD PUSH2 0xCE4 SWAP2 PUSH2 0x20BE JUMP JUMPDEST PUSH1 0x80 MLOAD PUSH2 0x180 ADD MSTORE PUSH1 0x80 MLOAD PUSH2 0x1A0 ADD MSTORE PUSH1 0x80 MLOAD PUSH2 0x1C0 ADD MSTORE PUSH1 0x80 MLOAD PUSH2 0x1E0 ADD MSTORE PUSH1 0x80 MLOAD DUP1 SWAP2 SUB SWAP1 RETURN JUMPDEST CALLVALUE PUSH2 0x1EA JUMPI PUSH1 0x40 CALLDATASIZE PUSH1 0x3 NOT ADD SLT PUSH2 0x1EA JUMPI PUSH2 0xD26 PUSH2 0x2047 JUMP JUMPDEST PUSH1 0x1 PUSH1 0x1 PUSH1 0xA0 SHL SUB AND PUSH1 0x0 SWAP1 DUP2 MSTORE PUSH1 0x6 PUSH1 0x20 MSTORE PUSH1 0x40 SWAP1 KECCAK256 DUP1 SLOAD PUSH1 0x24 CALLDATALOAD SWAP2 SWAP1 DUP3 LT ISZERO PUSH2 0x1EA JUMPI PUSH1 0x20 SWAP2 PUSH2 0xD57 SWAP2 PUSH2 0x219F JUMP JUMPDEST SWAP1 SLOAD PUSH1 0x40 MLOAD SWAP2 PUSH1 0x3 SHL SHR DUP2 MSTORE RETURN JUMPDEST CALLVALUE PUSH2 0x1EA JUMPI PUSH1 0x0 CALLDATASIZE PUSH1 0x3 NOT ADD SLT PUSH2 0x1EA JUMPI PUSH1 0x20 PUSH1 0x40 MLOAD PUSH1 0x0 DUP2 MSTORE RETURN JUMPDEST CALLVALUE PUSH2 0x1EA JUMPI PUSH1 0x20 CALLDATASIZE PUSH1 0x3 NOT ADD SLT PUSH2 0x1EA JUMPI PUSH2 0xD9A PUSH2 0x29A7 JUMP JUMPDEST POP PUSH1 0x4 CALLDATALOAD PUSH1 0x0 MSTORE PUSH1 0x5 PUSH1 0x20 MSTORE PUSH2 0xDCA PUSH2 0xDB6 PUSH1 0x40 PUSH1 0x0 KECCAK256 PUSH2 0x2A1F JUMP JUMPDEST PUSH1 0x40 MLOAD SWAP2 DUP3 SWAP2 PUSH1 0x20 DUP4 MSTORE PUSH1 0x20 DUP4 ADD SWAP1 PUSH2 0x20CB JUMP JUMPDEST SUB SWAP1 RETURN JUMPDEST CALLVALUE PUSH2 0x1EA JUMPI PUSH1 0x0 CALLDATASIZE PUSH1 0x3 NOT ADD SLT PUSH2 0x1EA JUMPI PUSH1 0x20 PUSH1 0x4 SLOAD PUSH1 0x40 MLOAD SWAP1 DUP2 MSTORE RETURN JUMPDEST CALLVALUE PUSH2 0x1EA JUMPI PUSH1 0x40 CALLDATASIZE PUSH1 0x3 NOT ADD SLT PUSH2 0x1EA JUMPI PUSH2 0xE05 PUSH2 0x2031 JUMP JUMPDEST PUSH1 0x4 CALLDATALOAD PUSH1 0x0 MSTORE PUSH1 0x0 PUSH1 0x20 MSTORE PUSH1 0x40 PUSH1 0x0 KECCAK256 SWAP1 PUSH1 0x1 DUP1 PUSH1 0xA0 SHL SUB AND PUSH1 0x0 MSTORE PUSH1 0x20 MSTORE PUSH1 0x20 PUSH1 0xFF PUSH1 0x40 PUSH1 0x0 KECCAK256 SLOAD AND PUSH1 0x40 MLOAD SWAP1 ISZERO ISZERO DUP2 MSTORE RETURN JUMPDEST CALLVALUE PUSH2 0x1EA JUMPI PUSH1 0x60 CALLDATASIZE PUSH1 0x3 NOT ADD SLT PUSH2 0x1EA JUMPI PUSH1 0x24 CALLDATALOAD PUSH1 0x4 CALLDATALOAD PUSH1 0x44 CALLDATALOAD PUSH2 0xE5B PUSH2 0x2305 JUMP JUMPDEST DUP2 PUSH1 0x0 MSTORE PUSH1 0x5 PUSH1 0x20 MSTORE PUSH1 0x40 PUSH1 0x0 KECCAK256 PUSH1 0xB DUP2 ADD SWAP1 DUP2 SLOAD SWAP1 PUSH1 0xFF DUP3 AND PUSH1 0x5 DUP2 LT ISZERO PUSH2 0x645 JUMPI PUSH2 0xE88 SWAP1 ISZERO PUSH2 0x277B JUMP JUMPDEST PUSH2 0xE9D DUP7 PUSH2 0xE98 PUSH1 0x5 DUP5 ADD PUSH2 0x2207 JUMP JUMPDEST PUSH2 0x26D6 JUMP JUMPDEST ISZERO PUSH2 0xEFF JUMPI DUP4 SWAP3 PUSH1 0x1 PUSH1 0xF SWAP4 PUSH1 0xFF NOT AND OR SWAP1 SSTORE TIMESTAMP PUSH1 0xD DUP3 ADD SSTORE DUP6 PUSH1 0xE DUP3 ADD SSTORE ADD SSTORE PUSH2 0xEC9 PUSH1 0x8 SLOAD PUSH2 0x27BC JUMP JUMPDEST PUSH1 0x8 SSTORE PUSH1 0x40 MLOAD SWAP3 DUP4 MSTORE PUSH1 0x20 DUP4 ADD MSTORE PUSH32 0xF88D635C6C9DD6CCF33792822B70C3B41DC8CF753AA4EF23EF86461731D31A75 PUSH1 0x40 CALLER SWAP4 LOG3 STOP JUMPDEST PUSH1 0x40 MLOAD PUSH3 0x461BCD PUSH1 0xE5 SHL DUP2 MSTORE PUSH1 0x20 PUSH1 0x4 DUP3 ADD MSTORE PUSH1 0x2D PUSH1 0x24 DUP3 ADD MSTORE PUSH32 0x457865637574696F6E20707269636520646576696174657320746F6F206D7563 PUSH1 0x44 DUP3 ADD MSTORE PUSH13 0x682066726F6D206F7261636C65 PUSH1 0x98 SHL PUSH1 0x64 DUP3 ADD MSTORE PUSH1 0x84 SWAP1 REVERT JUMPDEST CALLVALUE PUSH2 0x1EA JUMPI PUSH1 0x0 CALLDATASIZE PUSH1 0x3 NOT ADD SLT PUSH2 0x1EA JUMPI PUSH2 0xF73 PUSH2 0x22AD JUMP JUMPDEST PUSH2 0xF7B PUSH2 0x25C1 JUMP JUMPDEST PUSH1 0x1 PUSH1 0xFF NOT DUP2 SLOAD AND OR PUSH1 0x1 SSTORE PUSH32 0x62E78CEA01BEE320CD4E420270B5EA74000D11B0C9F74754EBDBFC544B05A258 PUSH1 0x20 PUSH1 0x40 MLOAD CALLER DUP2 MSTORE LOG1 STOP JUMPDEST CALLVALUE PUSH2 0x1EA JUMPI PUSH1 0x20 DUP1 PUSH1 0x3 NOT CALLDATASIZE ADD SLT PUSH2 0x1EA JUMPI PUSH1 0x1 PUSH1 0x1 PUSH1 0xA0 SHL SUB PUSH2 0xFD5 PUSH2 0x2047 JUMP JUMPDEST AND PUSH1 0x0 MSTORE PUSH1 0x6 DUP2 MSTORE PUSH1 0x40 PUSH1 0x0 KECCAK256 PUSH1 0x40 MLOAD SWAP1 DUP2 DUP4 DUP3 SLOAD SWAP2 DUP3 DUP2 MSTORE ADD SWAP1 DUP2 SWAP3 PUSH1 0x0 MSTORE DUP5 PUSH1 0x0 KECCAK256 SWAP1 PUSH1 0x0 JUMPDEST DUP7 DUP3 DUP3 LT PUSH2 0x1053 JUMPI DUP7 DUP7 PUSH2 0x1013 DUP3 DUP9 SUB DUP4 PUSH2 0x1F4D JUMP JUMPDEST PUSH1 0x40 MLOAD SWAP3 DUP4 SWAP3 DUP2 DUP5 ADD SWAP1 DUP3 DUP6 MSTORE MLOAD DUP1 SWAP2 MSTORE PUSH1 0x40 DUP5 ADD SWAP3 SWAP2 PUSH1 0x0 JUMPDEST DUP3 DUP2 LT PUSH2 0x103C JUMPI POP POP POP POP SUB SWAP1 RETURN JUMPDEST DUP4 MLOAD DUP6 MSTORE DUP7 SWAP6 POP SWAP4 DUP2 ADD SWAP4 SWAP3 DUP2 ADD SWAP3 PUSH1 0x1 ADD PUSH2 0x102D JUMP JUMPDEST DUP4 SLOAD DUP6 MSTORE SWAP1 SWAP4 ADD SWAP3 PUSH1 0x1 SWAP3 DUP4 ADD SWAP3 ADD PUSH2 0xFFD JUMP JUMPDEST CALLVALUE PUSH2 0x1EA JUMPI PUSH1 0x20 DUP1 PUSH1 0x3 NOT CALLDATASIZE ADD SLT PUSH2 0x1EA JUMPI PUSH1 0x4 CALLDATALOAD PUSH1 0x1 PUSH1 0x1 PUSH1 0x40 SHL SUB DUP2 GT PUSH2 0x1EA JUMPI PUSH2 0x1098 SWAP1 CALLDATASIZE SWAP1 PUSH1 0x4 ADD PUSH2 0x2001 JUMP JUMPDEST SWAP2 SWAP1 PUSH1 0x0 JUMPDEST DUP4 DUP2 LT PUSH2 0x10A6 JUMPI STOP JUMPDEST PUSH2 0x10B1 DUP2 DUP6 DUP5 PUSH2 0x2997 JUMP JUMPDEST CALLDATALOAD PUSH1 0x0 MSTORE PUSH1 0x5 SWAP1 DUP2 DUP5 MSTORE PUSH1 0x40 PUSH1 0x0 KECCAK256 PUSH1 0xB DUP2 ADD SWAP1 DUP2 SLOAD SWAP1 PUSH1 0xFF DUP3 AND SWAP5 DUP6 LT ISZERO PUSH2 0x645 JUMPI PUSH2 0x10ED SWAP5 ISZERO SWAP1 DUP2 PUSH2 0x1142 JUMPI JUMPDEST POP PUSH2 0x10F2 JUMPI JUMPDEST POP POP PUSH2 0x2532 JUMP JUMPDEST PUSH2 0x109D JUMP JUMPDEST PUSH1 0xFF NOT AND PUSH1 0x3 OR SWAP1 SSTORE PUSH1 0x8 DUP1 SLOAD PUSH2 0x1108 SWAP1 PUSH2 0x27BC JUMP JUMPDEST SWAP1 SSTORE PUSH2 0x1115 DUP2 DUP7 DUP6 PUSH2 0x2997 JUMP JUMPDEST CALLDATALOAD PUSH32 0x74BC747684C4BBF3E0B059E4C600406A6DE5AE015FD108B0E5B0B98E71802FE5 PUSH1 0x0 DUP1 LOG2 DUP6 DUP1 PUSH2 0x10E6 JUMP JUMPDEST PUSH1 0xA SWAP2 POP ADD SLOAD TIMESTAMP GT DUP9 PUSH2 0x10E0 JUMP JUMPDEST CALLVALUE PUSH2 0x1EA JUMPI PUSH1 0x40 CALLDATASIZE PUSH1 0x3 NOT ADD SLT PUSH2 0x1EA JUMPI PUSH1 0x4 CALLDATALOAD PUSH1 0x1 PUSH1 0x1 PUSH1 0x40 SHL SUB DUP2 GT PUSH2 0x1EA JUMPI PUSH2 0x118E PUSH2 0x1185 PUSH1 0x20 SWAP3 CALLDATASIZE SWAP1 PUSH1 0x4 ADD PUSH2 0x1FC0 JUMP JUMPDEST PUSH1 0x24 CALLDATALOAD SWAP1 PUSH2 0x26D6 JUMP JUMPDEST PUSH1 0x40 MLOAD SWAP1 ISZERO ISZERO DUP2 MSTORE RETURN JUMPDEST PUSH2 0x100 CALLDATASIZE PUSH1 0x3 NOT ADD SLT PUSH2 0x1EA JUMPI PUSH1 0x4 CALLDATALOAD PUSH1 0x1 PUSH1 0x1 PUSH1 0x40 SHL SUB DUP2 GT PUSH2 0x1EA JUMPI PUSH2 0x11C4 SWAP1 CALLDATASIZE SWAP1 PUSH1 0x4 ADD PUSH2 0x205D JUMP JUMPDEST SWAP1 PUSH2 0x11CD PUSH2 0x20AF JUMP JUMPDEST PUSH1 0x64 SWAP2 DUP3 CALLDATALOAD PUSH1 0x1 PUSH1 0x1 PUSH1 0x40 SHL SUB DUP2 GT PUSH2 0x1EA JUMPI PUSH2 0x11EE SWAP1 CALLDATASIZE SWAP1 PUSH1 0x4 ADD PUSH2 0x205D JUMP JUMPDEST SWAP1 SWAP5 PUSH1 0x84 CALLDATALOAD SWAP4 DUP5 ISZERO ISZERO DUP6 SUB PUSH2 0x1EA JUMPI PUSH2 0x1205 PUSH2 0x25C1 JUMP JUMPDEST PUSH2 0x120D PUSH2 0x25DF JUMP JUMPDEST DUP2 ISZERO PUSH2 0x182D JUMPI DUP3 ISZERO PUSH2 0x17F2 JUMPI PUSH2 0x1226 PUSH1 0x24 CALLDATALOAD ISZERO ISZERO PUSH2 0x247A JUMP JUMPDEST PUSH1 0xA4 CALLDATALOAD ISZERO PUSH2 0x17B9 JUMPI PUSH2 0x1388 PUSH1 0xC4 CALLDATALOAD GT PUSH2 0x177D JUMPI PUSH1 0xE4 CALLDATALOAD SWAP6 PUSH1 0x1 DUP8 LT PUSH2 0x1746 JUMPI PUSH2 0x2D0 DUP8 GT PUSH2 0x1710 JUMPI POP PUSH2 0x125D PUSH1 0x3 SLOAD CALLVALUE LT ISZERO PUSH2 0x24E6 JUMP JUMPDEST PUSH1 0x7 SLOAD SWAP6 PUSH2 0x126A DUP8 PUSH2 0x2532 JUMP JUMPDEST PUSH1 0x7 SSTORE PUSH2 0xE10 DUP2 DUP2 DUP2 MUL DIV DUP2 EQ DUP3 ISZERO OR ISZERO PUSH2 0x811 JUMPI PUSH2 0x128A SWAP2 MUL TIMESTAMP PUSH2 0x2541 JUMP JUMPDEST SWAP1 PUSH1 0x40 MLOAD SWAP2 PUSH2 0x1298 DUP4 PUSH2 0x1F16 JUMP JUMPDEST DUP8 DUP4 MSTORE CALLER PUSH1 0x20 DUP5 ADD MSTORE PUSH2 0x12AC CALLDATASIZE DUP6 DUP9 PUSH2 0x1F89 JUMP JUMPDEST PUSH1 0x40 DUP5 ADD MSTORE PUSH1 0x24 CALLDATALOAD PUSH1 0x60 DUP5 ADD MSTORE DUP2 ISZERO ISZERO PUSH1 0x80 DUP5 ADD MSTORE PUSH2 0x12CC CALLDATASIZE DUP7 DUP12 PUSH2 0x1F89 JUMP JUMPDEST PUSH1 0xA0 DUP5 ADD MSTORE DUP7 ISZERO ISZERO PUSH1 0xC0 DUP5 ADD MSTORE PUSH1 0xA4 CALLDATALOAD PUSH1 0xE0 DUP5 ADD MSTORE PUSH1 0xC4 CALLDATALOAD PUSH2 0x100 DUP5 ADD MSTORE TIMESTAMP PUSH2 0x120 DUP5 ADD MSTORE PUSH2 0x140 DUP4 ADD MSTORE PUSH1 0x0 PUSH2 0x160 DUP4 ADD MSTORE CALLVALUE PUSH2 0x180 DUP4 ADD MSTORE PUSH1 0x0 PUSH2 0x1A0 DUP4 ADD MSTORE PUSH1 0x0 PUSH2 0x1C0 DUP4 ADD MSTORE PUSH1 0x0 PUSH2 0x1E0 DUP4 ADD MSTORE DUP7 PUSH1 0x0 MSTORE PUSH1 0x5 PUSH1 0x20 MSTORE PUSH1 0x40 PUSH1 0x0 KECCAK256 SWAP4 DUP3 MLOAD DUP6 SSTORE PUSH1 0x1 DUP6 ADD PUSH1 0x1 DUP1 PUSH1 0xA0 SHL SUB PUSH1 0x20 DUP6 ADD MLOAD AND PUSH12 0xFFFFFFFFFFFFFFFFFFFFFFFF PUSH1 0xA0 SHL DUP3 SLOAD AND OR SWAP1 SSTORE PUSH1 0x40 DUP4 ADD MLOAD DUP1 MLOAD SWAP1 PUSH1 0x1 PUSH1 0x1 PUSH1 0x40 SHL SUB DUP3 GT PUSH2 0x72B JUMPI DUP2 SWAP1 PUSH2 0x137D PUSH1 0x2 DUP10 ADD SLOAD PUSH2 0x21CD JUMP JUMPDEST PUSH1 0x1F DUP2 GT PUSH2 0x16BD JUMPI JUMPDEST POP PUSH1 0x20 SWAP1 PUSH1 0x1F DUP4 GT PUSH1 0x1 EQ PUSH2 0x164B JUMPI PUSH1 0x0 SWAP3 PUSH2 0x1640 JUMPI JUMPDEST POP POP DUP2 PUSH1 0x1 SHL SWAP2 PUSH1 0x0 NOT SWAP1 PUSH1 0x3 SHL SHR NOT AND OR PUSH1 0x2 DUP7 ADD SSTORE JUMPDEST PUSH1 0x60 DUP4 ADD MLOAD PUSH1 0x3 DUP7 ADD SSTORE PUSH2 0x13DE PUSH1 0x80 DUP5 ADD MLOAD ISZERO ISZERO PUSH1 0x4 DUP8 ADD SWAP1 PUSH1 0xFF DUP1 NOT DUP4 SLOAD AND SWAP2 ISZERO ISZERO AND OR SWAP1 SSTORE JUMP JUMPDEST PUSH1 0xA0 DUP4 ADD MLOAD DUP1 MLOAD SWAP1 PUSH1 0x1 PUSH1 0x1 PUSH1 0x40 SHL SUB DUP3 GT PUSH2 0x72B JUMPI DUP2 SWAP1 PUSH2 0x1403 PUSH1 0x5 DUP10 ADD SLOAD PUSH2 0x21CD JUMP JUMPDEST PUSH1 0x1F DUP2 GT PUSH2 0x15ED JUMPI JUMPDEST POP PUSH1 0x20 SWAP1 PUSH1 0x1F DUP4 GT PUSH1 0x1 EQ PUSH2 0x157B JUMPI PUSH1 0x0 SWAP3 PUSH2 0x1570 JUMPI JUMPDEST POP POP DUP2 PUSH1 0x1 SHL SWAP2 PUSH1 0x0 NOT SWAP1 PUSH1 0x3 SHL SHR NOT AND OR PUSH1 0x5 DUP7 ADD SSTORE JUMPDEST PUSH2 0x145A PUSH1 0xC0 DUP5 ADD MLOAD ISZERO ISZERO PUSH1 0x6 DUP8 ADD SWAP1 PUSH1 0xFF DUP1 NOT DUP4 SLOAD AND SWAP2 ISZERO ISZERO AND OR SWAP1 SSTORE JUMP JUMPDEST PUSH1 0xE0 DUP4 ADD MLOAD PUSH1 0x7 DUP7 ADD SSTORE PUSH2 0x100 DUP4 ADD MLOAD PUSH1 0x8 DUP7 ADD SSTORE PUSH2 0x120 DUP4 ADD MLOAD PUSH1 0x9 DUP7 ADD SSTORE PUSH2 0x140 DUP4 ADD MLOAD PUSH1 0xA DUP7 ADD SSTORE PUSH2 0x160 DUP4 ADD MLOAD SWAP9 PUSH1 0x5 DUP11 LT ISZERO PUSH2 0x645 JUMPI PUSH2 0x1531 DUP10 SWAP8 DUP8 PUSH1 0xF PUSH2 0x1E0 PUSH2 0x154D SWAP9 PUSH1 0x20 SWAP16 PUSH2 0x14D5 SWAP1 PUSH1 0xB PUSH32 0xEA8640DE2F174F1FA43C2FA556863133CAABCFBBB2E37626B2A0239F4F84B006 SWAP15 ADD PUSH2 0x254E JUMP JUMPDEST PUSH2 0x180 DUP2 ADD MLOAD PUSH1 0xC DUP6 ADD SSTORE PUSH2 0x1A0 DUP2 ADD MLOAD PUSH1 0xD DUP6 ADD SSTORE PUSH2 0x1C0 DUP2 ADD MLOAD PUSH1 0xE DUP6 ADD SSTORE ADD MLOAD SWAP2 ADD SSTORE CALLER PUSH1 0x0 MSTORE PUSH1 0x6 DUP13 MSTORE PUSH2 0x1511 DUP10 PUSH1 0x40 PUSH1 0x0 KECCAK256 PUSH2 0x2566 JUMP JUMPDEST PUSH2 0x151C PUSH1 0x8 SLOAD PUSH2 0x2532 JUMP JUMPDEST PUSH1 0x8 SSTORE PUSH1 0x40 MLOAD SWAP7 PUSH1 0xC0 DUP9 MSTORE PUSH1 0xC0 DUP9 ADD SWAP2 PUSH2 0x25A0 JUMP JUMPDEST SWAP3 PUSH1 0x24 CALLDATALOAD DUP12 DUP8 ADD MSTORE ISZERO ISZERO PUSH1 0x40 DUP7 ADD MSTORE DUP5 DUP4 SUB PUSH1 0x60 DUP7 ADD MSTORE PUSH2 0x25A0 JUMP JUMPDEST SWAP4 ISZERO ISZERO PUSH1 0x80 DUP3 ADD MSTORE PUSH1 0xA4 CALLDATALOAD PUSH1 0xA0 DUP3 ADD MSTORE DUP1 CALLER SWAP5 SUB SWAP1 LOG3 PUSH1 0x1 PUSH1 0x2 SSTORE PUSH1 0x40 MLOAD SWAP1 DUP2 MSTORE RETURN JUMPDEST ADD MLOAD SWAP1 POP DUP12 DUP1 PUSH2 0x1423 JUMP JUMPDEST SWAP3 POP PUSH1 0x5 DUP9 ADD PUSH1 0x0 MSTORE PUSH1 0x20 PUSH1 0x0 KECCAK256 SWAP1 PUSH1 0x0 SWAP4 JUMPDEST PUSH1 0x1F NOT DUP5 AND DUP6 LT PUSH2 0x15D2 JUMPI PUSH1 0x1 SWAP5 POP DUP4 PUSH1 0x1F NOT DUP2 AND LT PUSH2 0x15B9 JUMPI JUMPDEST POP POP POP DUP2 SHL ADD PUSH1 0x5 DUP7 ADD SSTORE PUSH2 0x143B JUMP JUMPDEST ADD MLOAD PUSH1 0x0 NOT PUSH1 0xF8 DUP5 PUSH1 0x3 SHL AND SHR NOT AND SWAP1 SSTORE DUP12 DUP1 DUP1 PUSH2 0x15A9 JUMP JUMPDEST DUP2 DUP2 ADD MLOAD DUP4 SSTORE PUSH1 0x20 SWAP5 DUP6 ADD SWAP5 PUSH1 0x1 SWAP1 SWAP4 ADD SWAP3 SWAP1 SWAP2 ADD SWAP1 PUSH2 0x158E JUMP JUMPDEST SWAP1 SWAP2 POP PUSH1 0x5 DUP9 ADD PUSH1 0x0 MSTORE PUSH1 0x20 PUSH1 0x0 KECCAK256 PUSH1 0x1F DUP5 ADD PUSH1 0x5 SHR DUP2 ADD PUSH1 0x20 DUP6 LT PUSH2 0x1639 JUMPI JUMPDEST SWAP1 DUP5 SWAP4 SWAP3 SWAP2 JUMPDEST PUSH1 0x1F DUP4 ADD PUSH1 0x5 SHR DUP3 ADD DUP2 LT PUSH2 0x162A JUMPI POP POP PUSH2 0x140C JUMP JUMPDEST PUSH1 0x0 DUP2 SSTORE DUP6 SWAP5 POP PUSH1 0x1 ADD PUSH2 0x1614 JUMP JUMPDEST POP DUP1 PUSH2 0x160E JUMP JUMPDEST ADD MLOAD SWAP1 POP DUP12 DUP1 PUSH2 0x139D JUMP JUMPDEST SWAP3 POP PUSH1 0x2 DUP9 ADD PUSH1 0x0 MSTORE PUSH1 0x20 PUSH1 0x0 KECCAK256 SWAP1 PUSH1 0x0 SWAP4 JUMPDEST PUSH1 0x1F NOT DUP5 AND DUP6 LT PUSH2 0x16A2 JUMPI PUSH1 0x1 SWAP5 POP DUP4 PUSH1 0x1F NOT DUP2 AND LT PUSH2 0x1689 JUMPI JUMPDEST POP POP POP DUP2 SHL ADD PUSH1 0x2 DUP7 ADD SSTORE PUSH2 0x13B5 JUMP JUMPDEST ADD MLOAD PUSH1 0x0 NOT PUSH1 0xF8 DUP5 PUSH1 0x3 SHL AND SHR NOT AND SWAP1 SSTORE DUP12 DUP1 DUP1 PUSH2 0x1679 JUMP JUMPDEST DUP2 DUP2 ADD MLOAD DUP4 SSTORE PUSH1 0x20 SWAP5 DUP6 ADD SWAP5 PUSH1 0x1 SWAP1 SWAP4 ADD SWAP3 SWAP1 SWAP2 ADD SWAP1 PUSH2 0x165E JUMP JUMPDEST SWAP1 SWAP2 POP PUSH1 0x2 DUP9 ADD PUSH1 0x0 MSTORE PUSH1 0x20 PUSH1 0x0 KECCAK256 PUSH1 0x1F DUP5 ADD PUSH1 0x5 SHR DUP2 ADD PUSH1 0x20 DUP6 LT PUSH2 0x1709 JUMPI JUMPDEST SWAP1 DUP5 SWAP4 SWAP3 SWAP2 JUMPDEST PUSH1 0x1F DUP4 ADD PUSH1 0x5 SHR DUP3 ADD DUP2 LT PUSH2 0x16FA JUMPI POP POP PUSH2 0x1386 JUMP JUMPDEST PUSH1 0x0 DUP2 SSTORE DUP6 SWAP5 POP PUSH1 0x1 ADD PUSH2 0x16E4 JUMP JUMPDEST POP DUP1 PUSH2 0x16DE JUMP JUMPDEST PUSH1 0x40 MLOAD PUSH3 0x461BCD PUSH1 0xE5 SHL DUP2 MSTORE PUSH1 0x20 PUSH1 0x4 DUP3 ADD MSTORE PUSH1 0x11 PUSH1 0x24 DUP3 ADD MSTORE PUSH17 0x4475726174696F6E20746F6F206C6F6E67 PUSH1 0x78 SHL PUSH1 0x44 DUP3 ADD MSTORE REVERT JUMPDEST PUSH1 0x40 MLOAD PUSH3 0x461BCD PUSH1 0xE5 SHL DUP2 MSTORE PUSH1 0x20 PUSH1 0x4 DUP3 ADD MSTORE PUSH1 0x12 PUSH1 0x24 DUP3 ADD MSTORE PUSH18 0x111D5C985D1A5BDB881D1BDBC81CDA1BDC9D PUSH1 0x72 SHL PUSH1 0x44 DUP3 ADD MSTORE REVERT JUMPDEST PUSH1 0x40 MLOAD PUSH3 0x461BCD PUSH1 0xE5 SHL DUP2 MSTORE PUSH1 0x20 PUSH1 0x4 DUP3 ADD MSTORE PUSH1 0x15 PUSH1 0x24 DUP3 ADD MSTORE PUSH21 0x9AC2F040E6D8D2E0E0C2CECA40E8DEDE40D0D2CED PUSH1 0x5B SHL PUSH1 0x44 DUP3 ADD MSTORE DUP7 SWAP1 REVERT JUMPDEST PUSH1 0x40 MLOAD PUSH3 0x461BCD PUSH1 0xE5 SHL DUP2 MSTORE PUSH1 0x20 PUSH1 0x4 DUP3 ADD MSTORE PUSH1 0x12 PUSH1 0x24 DUP3 ADD MSTORE PUSH18 0x416D6F756E74206D757374206265203E203 PUSH1 0x74 SHL PUSH1 0x44 DUP3 ADD MSTORE DUP7 SWAP1 REVERT JUMPDEST PUSH1 0x40 MLOAD PUSH3 0x461BCD PUSH1 0xE5 SHL DUP2 MSTORE PUSH1 0x20 PUSH1 0x4 DUP3 ADD MSTORE PUSH1 0x14 PUSH1 0x24 DUP3 ADD MSTORE PUSH20 0x151C98591948185CDCD95D081C995C5D5A5C9959 PUSH1 0x62 SHL PUSH1 0x44 DUP3 ADD MSTORE DUP7 SWAP1 REVERT JUMPDEST PUSH1 0x40 MLOAD PUSH3 0x461BCD PUSH1 0xE5 SHL DUP2 MSTORE PUSH1 0x20 PUSH1 0x4 DUP3 ADD MSTORE PUSH1 0x14 PUSH1 0x24 DUP3 ADD MSTORE PUSH20 0x15D85D18DA08185CDCD95D081C995C5D5A5C9959 PUSH1 0x62 SHL PUSH1 0x44 DUP3 ADD MSTORE DUP7 SWAP1 REVERT JUMPDEST CALLVALUE PUSH2 0x1EA JUMPI PUSH1 0x0 CALLDATASIZE PUSH1 0x3 NOT ADD SLT PUSH2 0x1EA JUMPI PUSH1 0x20 PUSH1 0xFF PUSH1 0x1 SLOAD AND PUSH1 0x40 MLOAD SWAP1 ISZERO ISZERO DUP2 MSTORE RETURN JUMPDEST CALLVALUE PUSH2 0x1EA JUMPI PUSH1 0x0 CALLDATASIZE PUSH1 0x3 NOT ADD SLT PUSH2 0x1EA JUMPI PUSH1 0x20 PUSH1 0x8 SLOAD PUSH1 0x40 MLOAD SWAP1 DUP2 MSTORE RETURN JUMPDEST CALLVALUE PUSH2 0x1EA JUMPI PUSH1 0x40 CALLDATASIZE PUSH1 0x3 NOT ADD SLT PUSH2 0x1EA JUMPI PUSH2 0x18C8 PUSH1 0x24 CALLDATALOAD PUSH1 0x4 CALLDATALOAD PUSH2 0x2839 JUMP JUMPDEST SWAP1 PUSH2 0xDCA PUSH1 0x40 MLOAD SWAP3 DUP4 SWAP3 ISZERO ISZERO DUP4 MSTORE PUSH1 0x40 PUSH1 0x20 DUP5 ADD MSTORE PUSH1 0x40 DUP4 ADD SWAP1 PUSH2 0x208A JUMP JUMPDEST CALLVALUE PUSH2 0x1EA JUMPI PUSH1 0x0 CALLDATASIZE PUSH1 0x3 NOT ADD SLT PUSH2 0x1EA JUMPI PUSH2 0x1900 PUSH2 0x22AD JUMP JUMPDEST SELFBALANCE DUP1 ISZERO PUSH2 0x1959 JUMPI PUSH1 0x0 DUP1 DUP1 DUP1 SWAP4 CALLER GAS CALL PUSH2 0x1918 PUSH2 0x2809 JUMP JUMPDEST POP ISZERO PUSH2 0x1920 JUMPI STOP JUMPDEST PUSH1 0x40 MLOAD PUSH3 0x461BCD PUSH1 0xE5 SHL DUP2 MSTORE PUSH1 0x20 PUSH1 0x4 DUP3 ADD MSTORE PUSH1 0x11 PUSH1 0x24 DUP3 ADD MSTORE PUSH17 0x15DA5D1A191C985DD85B0819985A5B1959 PUSH1 0x7A SHL PUSH1 0x44 DUP3 ADD MSTORE PUSH1 0x64 SWAP1 REVERT JUMPDEST PUSH1 0x40 MLOAD PUSH3 0x461BCD PUSH1 0xE5 SHL DUP2 MSTORE PUSH1 0x20 PUSH1 0x4 DUP3 ADD MSTORE PUSH1 0x13 PUSH1 0x24 DUP3 ADD MSTORE PUSH19 0x4E6F206665657320746F207769746864726177 PUSH1 0x68 SHL PUSH1 0x44 DUP3 ADD MSTORE PUSH1 0x64 SWAP1 REVERT JUMPDEST CALLVALUE PUSH2 0x1EA JUMPI PUSH1 0x0 CALLDATASIZE PUSH1 0x3 NOT ADD SLT PUSH2 0x1EA JUMPI PUSH1 0x20 PUSH1 0x7 SLOAD PUSH1 0x40 MLOAD SWAP1 DUP2 MSTORE RETURN JUMPDEST CALLVALUE PUSH2 0x1EA JUMPI PUSH1 0x0 CALLDATASIZE PUSH1 0x3 NOT ADD SLT PUSH2 0x1EA JUMPI PUSH2 0x19CB PUSH2 0x22AD JUMP JUMPDEST PUSH1 0x1 SLOAD PUSH1 0xFF DUP2 AND ISZERO PUSH2 0x1A0A JUMPI PUSH1 0xFF NOT AND PUSH1 0x1 SSTORE PUSH32 0x5DB9EE0A495BF2E6FF9C91A7834C1BA4FDD244A5E8AA4E537BD38AEAE4B073AA PUSH1 0x20 PUSH1 0x40 MLOAD CALLER DUP2 MSTORE LOG1 STOP JUMPDEST PUSH1 0x40 MLOAD PUSH4 0x8DFC202B PUSH1 0xE0 SHL DUP2 MSTORE PUSH1 0x4 SWAP1 REVERT JUMPDEST CALLVALUE PUSH2 0x1EA JUMPI PUSH1 0x40 CALLDATASIZE PUSH1 0x3 NOT ADD SLT PUSH2 0x1EA JUMPI PUSH1 0x4 CALLDATALOAD PUSH1 0x1 PUSH1 0x1 PUSH1 0x40 SHL SUB DUP2 GT PUSH2 0x1EA JUMPI PUSH2 0x1A4C SWAP1 CALLDATASIZE SWAP1 PUSH1 0x4 ADD PUSH2 0x205D JUMP JUMPDEST PUSH1 0x24 CALLDATALOAD SWAP2 PUSH4 0xFFFFFFFF DUP4 AND DUP1 DUP5 SUB PUSH2 0x1EA JUMPI PUSH32 0x4CE9F3693E41DABDC77C9BE517202F5A1009A7FBECA72CFB83F61B86A77D24B5 SWAP4 PUSH2 0x1ABA SWAP2 PUSH2 0x1A8C PUSH2 0x22AD JUMP JUMPDEST PUSH1 0x40 MLOAD DUP6 DUP6 DUP3 CALLDATACOPY PUSH1 0x20 DUP2 DUP8 DUP2 ADD PUSH1 0x9 DUP2 MSTORE SUB ADD SWAP1 KECCAK256 SWAP1 PUSH4 0xFFFFFFFF NOT DUP3 SLOAD AND OR SWAP1 SSTORE PUSH1 0x40 MLOAD SWAP4 DUP5 SWAP4 DUP5 PUSH2 0x2B2C JUMP JUMPDEST SUB SWAP1 LOG1 STOP JUMPDEST CALLVALUE PUSH2 0x1EA JUMPI PUSH1 0x40 CALLDATASIZE PUSH1 0x3 NOT ADD SLT PUSH2 0x1EA JUMPI PUSH1 0x4 CALLDATALOAD PUSH1 0x24 CALLDATALOAD PUSH1 0x1 PUSH1 0x1 PUSH1 0x40 SHL SUB DUP2 GT PUSH2 0x1EA JUMPI PUSH2 0x1AF2 SWAP1 CALLDATASIZE SWAP1 PUSH1 0x4 ADD PUSH2 0x205D JUMP JUMPDEST SWAP1 PUSH2 0x1AFB PUSH2 0x2305 JUMP JUMPDEST DUP3 PUSH1 0x0 MSTORE PUSH1 0x5 PUSH1 0x20 MSTORE PUSH1 0xB PUSH1 0x40 PUSH1 0x0 KECCAK256 ADD SWAP2 DUP3 SLOAD SWAP3 PUSH1 0xFF DUP5 AND PUSH1 0x5 DUP2 LT ISZERO PUSH2 0x645 JUMPI PUSH32 0x1322C62B2B0266A20579A26B0DDFCF33E8B042D86CEB5FAE7B05362EA44AFA03 SWAP5 PUSH2 0x1B4B PUSH1 0x4 SWAP3 ISZERO PUSH2 0x277B JUMP JUMPDEST PUSH1 0xFF NOT AND OR SWAP1 SSTORE PUSH2 0x1B5D PUSH1 0x8 SLOAD PUSH2 0x27BC JUMP JUMPDEST PUSH1 0x8 SSTORE PUSH2 0x1B77 PUSH1 0x40 MLOAD SWAP3 DUP4 SWAP3 PUSH1 0x20 DUP5 MSTORE PUSH1 0x20 DUP5 ADD SWAP2 PUSH2 0x25A0 JUMP JUMPDEST SUB SWAP1 LOG2 STOP JUMPDEST CALLVALUE PUSH2 0x1EA JUMPI PUSH1 0x40 CALLDATASIZE PUSH1 0x3 NOT ADD SLT PUSH2 0x1EA JUMPI PUSH2 0x1B95 PUSH2 0x2031 JUMP JUMPDEST CALLER PUSH1 0x1 PUSH1 0x1 PUSH1 0xA0 SHL SUB DUP3 AND SUB PUSH2 0x1BB1 JUMPI PUSH2 0x1B SWAP1 PUSH1 0x4 CALLDATALOAD PUSH2 0x2405 JUMP JUMPDEST PUSH1 0x40 MLOAD PUSH4 0x334BD919 PUSH1 0xE1 SHL DUP2 MSTORE PUSH1 0x4 SWAP1 REVERT JUMPDEST CALLVALUE PUSH2 0x1EA JUMPI PUSH1 0x40 CALLDATASIZE PUSH1 0x3 NOT ADD SLT PUSH2 0x1EA JUMPI PUSH2 0x1B PUSH1 0x4 CALLDATALOAD PUSH2 0x1BE2 PUSH2 0x2031 JUMP JUMPDEST SWAP1 DUP1 PUSH1 0x0 MSTORE PUSH1 0x0 PUSH1 0x20 MSTORE PUSH2 0x1BFD PUSH1 0x1 PUSH1 0x40 PUSH1 0x0 KECCAK256 ADD SLOAD PUSH2 0x2361 JUMP JUMPDEST PUSH2 0x2387 JUMP JUMPDEST CALLVALUE PUSH2 0x1EA JUMPI PUSH1 0x40 CALLDATASIZE PUSH1 0x3 NOT ADD SLT PUSH2 0x1EA JUMPI PUSH1 0x1 PUSH1 0x1 PUSH1 0x40 SHL SUB PUSH1 0x4 CALLDATALOAD DUP2 DUP2 GT PUSH2 0x1EA JUMPI PUSH2 0x1C33 SWAP1 CALLDATASIZE SWAP1 PUSH1 0x4 ADD PUSH2 0x2001 JUMP JUMPDEST SWAP2 PUSH1 0x24 CALLDATALOAD SWAP1 DUP2 GT PUSH2 0x1EA JUMPI PUSH2 0x1C4C SWAP1 CALLDATASIZE SWAP1 PUSH1 0x4 ADD PUSH2 0x2001 JUMP JUMPDEST PUSH2 0x1C57 SWAP3 SWAP2 SWAP3 PUSH2 0x22AD JUMP JUMPDEST DUP1 DUP5 SUB PUSH2 0x1D0D JUMPI PUSH1 0x0 JUMPDEST DUP5 DUP2 LT PUSH2 0x1C6A JUMPI STOP JUMPDEST DUP1 PUSH2 0x1C81 PUSH2 0x1C7C PUSH2 0x1D08 SWAP4 DUP6 DUP9 PUSH2 0x2997 JUMP JUMPDEST PUSH2 0x2B51 JUMP JUMPDEST PUSH4 0xFFFFFFFF PUSH1 0x20 PUSH2 0x1C93 DUP5 DUP11 DUP10 PUSH2 0x2B62 JUMP JUMPDEST SWAP2 SWAP1 DUP3 PUSH1 0x40 MLOAD SWAP4 DUP5 SWAP3 DUP4 CALLDATACOPY DUP2 ADD PUSH1 0x9 DUP2 MSTORE SUB ADD SWAP1 KECCAK256 SWAP2 AND PUSH4 0xFFFFFFFF NOT DUP3 SLOAD AND OR SWAP1 SSTORE PUSH32 0x4CE9F3693E41DABDC77C9BE517202F5A1009A7FBECA72CFB83F61B86A77D24B5 PUSH2 0x1CE2 DUP3 DUP9 DUP8 PUSH2 0x2B62 JUMP JUMPDEST SWAP1 PUSH2 0x1D00 PUSH2 0x1CF4 PUSH2 0x1C7C DUP7 DUP10 DUP13 PUSH2 0x2997 JUMP JUMPDEST PUSH1 0x40 MLOAD SWAP4 DUP5 SWAP4 DUP5 PUSH2 0x2B2C JUMP JUMPDEST SUB SWAP1 LOG1 PUSH2 0x2532 JUMP JUMPDEST PUSH2 0x1C61 JUMP JUMPDEST PUSH1 0x40 MLOAD PUSH3 0x461BCD PUSH1 0xE5 SHL DUP2 MSTORE PUSH1 0x20 PUSH1 0x4 DUP3 ADD MSTORE PUSH1 0x15 PUSH1 0x24 DUP3 ADD MSTORE PUSH21 0x82E4E4C2F240D8CADCCEE8D040DAD2E6DAC2E8C6D PUSH1 0x5B SHL PUSH1 0x44 DUP3 ADD MSTORE PUSH1 0x64 SWAP1 REVERT JUMPDEST CALLVALUE PUSH2 0x1EA JUMPI PUSH1 0x20 CALLDATASIZE PUSH1 0x3 NOT ADD SLT PUSH2 0x1EA JUMPI PUSH1 0x4 CALLDATALOAD PUSH2 0x1D66 PUSH2 0x22AD JUMP JUMPDEST PUSH2 0x3E8 DUP2 GT PUSH2 0x1DA0 JUMPI PUSH1 0x20 DUP2 PUSH32 0xAB56DE9FE168CE12A9A1F47B688D739DB6607607C1D71DAD52DDD8BEDCF5E25 SWAP3 PUSH1 0x4 SSTORE PUSH1 0x40 MLOAD SWAP1 DUP2 MSTORE LOG1 STOP JUMPDEST PUSH1 0x40 MLOAD PUSH3 0x461BCD PUSH1 0xE5 SHL DUP2 MSTORE PUSH1 0x20 PUSH1 0x4 DUP3 ADD MSTORE PUSH1 0x12 PUSH1 0x24 DUP3 ADD MSTORE PUSH18 0x88CAECD2C2E8D2DEDC40E8DEDE40D0D2CED PUSH1 0x73 SHL PUSH1 0x44 DUP3 ADD MSTORE PUSH1 0x64 SWAP1 REVERT JUMPDEST CALLVALUE PUSH2 0x1EA JUMPI PUSH1 0x20 CALLDATASIZE PUSH1 0x3 NOT ADD SLT PUSH2 0x1EA JUMPI PUSH1 0x4 CALLDATALOAD PUSH1 0x0 MSTORE PUSH1 0x0 PUSH1 0x20 MSTORE PUSH1 0x20 PUSH1 0x1 PUSH1 0x40 PUSH1 0x0 KECCAK256 ADD SLOAD PUSH1 0x40 MLOAD SWAP1 DUP2 MSTORE RETURN JUMPDEST CALLVALUE PUSH2 0x1EA JUMPI PUSH1 0x20 CALLDATASIZE PUSH1 0x3 NOT ADD SLT PUSH2 0x1EA JUMPI PUSH1 0x4 CALLDATALOAD PUSH1 0x1 PUSH1 0x1 PUSH1 0x40 SHL SUB DUP2 GT PUSH2 0x1EA JUMPI PUSH4 0xFFFFFFFF PUSH2 0x1E57 PUSH1 0x20 PUSH2 0x1E44 DUP2 SWAP5 CALLDATASIZE SWAP1 PUSH1 0x4 ADD PUSH2 0x1FC0 JUMP JUMPDEST DUP2 PUSH1 0x40 MLOAD SWAP4 DUP3 DUP6 DUP1 SWAP5 MLOAD SWAP4 DUP5 SWAP3 ADD PUSH2 0x1FDE JUMP JUMPDEST DUP2 ADD PUSH1 0x9 DUP2 MSTORE SUB ADD SWAP1 KECCAK256 SLOAD AND PUSH1 0x40 MLOAD SWAP1 DUP2 MSTORE RETURN JUMPDEST CALLVALUE PUSH2 0x1EA JUMPI PUSH1 0x0 CALLDATASIZE PUSH1 0x3 NOT ADD SLT PUSH2 0x1EA JUMPI PUSH1 0x20 PUSH1 0x40 MLOAD PUSH2 0xE10 DUP2 MSTORE RETURN JUMPDEST CALLVALUE PUSH2 0x1EA JUMPI PUSH1 0x0 CALLDATASIZE PUSH1 0x3 NOT ADD SLT PUSH2 0x1EA JUMPI PUSH1 0x20 PUSH1 0x40 MLOAD PUSH32 0xD8AA0F3194971A2A116679F7C2090F6939C8D4E01A2A8D7E41D55E5351469E63 DUP2 MSTORE RETURN JUMPDEST CALLVALUE PUSH2 0x1EA JUMPI PUSH1 0x20 CALLDATASIZE PUSH1 0x3 NOT ADD SLT PUSH2 0x1EA JUMPI PUSH1 0x4 CALLDATALOAD SWAP1 PUSH4 0xFFFFFFFF PUSH1 0xE0 SHL DUP3 AND DUP1 SWAP3 SUB PUSH2 0x1EA JUMPI PUSH1 0x20 SWAP2 PUSH4 0x7965DB0B PUSH1 0xE0 SHL DUP2 EQ SWAP1 DUP2 ISZERO PUSH2 0x1F05 JUMPI JUMPDEST POP ISZERO ISZERO DUP2 MSTORE RETURN JUMPDEST PUSH4 0x1FFC9A7 PUSH1 0xE0 SHL EQ SWAP1 POP DUP4 PUSH2 0x1EFE JUMP JUMPDEST PUSH2 0x200 DUP2 ADD SWAP1 DUP2 LT PUSH1 0x1 PUSH1 0x1 PUSH1 0x40 SHL SUB DUP3 GT OR PUSH2 0x72B JUMPI PUSH1 0x40 MSTORE JUMP JUMPDEST PUSH1 0x40 DUP2 ADD SWAP1 DUP2 LT PUSH1 0x1 PUSH1 0x1 PUSH1 0x40 SHL SUB DUP3 GT OR PUSH2 0x72B JUMPI PUSH1 0x40 MSTORE JUMP JUMPDEST SWAP1 PUSH1 0x1F DUP1 NOT SWAP2 ADD AND DUP2 ADD SWAP1 DUP2 LT PUSH1 0x1 PUSH1 0x1 PUSH1 0x40 SHL SUB DUP3 GT OR PUSH2 0x72B JUMPI PUSH1 0x40 MSTORE JUMP JUMPDEST PUSH1 0x1 PUSH1 0x1 PUSH1 0x40 SHL SUB DUP2 GT PUSH2 0x72B JUMPI PUSH1 0x1F ADD PUSH1 0x1F NOT AND PUSH1 0x20 ADD SWAP1 JUMP JUMPDEST SWAP3 SWAP2 SWAP3 PUSH2 0x1F95 DUP3 PUSH2 0x1F6E JUMP JUMPDEST SWAP2 PUSH2 0x1FA3 PUSH1 0x40 MLOAD SWAP4 DUP5 PUSH2 0x1F4D JUMP JUMPDEST DUP3 SWAP5 DUP2 DUP5 MSTORE DUP2 DUP4 ADD GT PUSH2 0x1EA JUMPI DUP3 DUP2 PUSH1 0x20 SWAP4 DUP5 PUSH1 0x0 SWAP7 ADD CALLDATACOPY ADD ADD MSTORE JUMP JUMPDEST SWAP1 DUP1 PUSH1 0x1F DUP4 ADD SLT ISZERO PUSH2 0x1EA JUMPI DUP2 PUSH1 0x20 PUSH2 0x1FDB SWAP4 CALLDATALOAD SWAP2 ADD PUSH2 0x1F89 JUMP JUMPDEST SWAP1 JUMP JUMPDEST PUSH1 0x0 JUMPDEST DUP4 DUP2 LT PUSH2 0x1FF1 JUMPI POP POP PUSH1 0x0 SWAP2 ADD MSTORE JUMP JUMPDEST DUP2 DUP2 ADD MLOAD DUP4 DUP3 ADD MSTORE PUSH1 0x20 ADD PUSH2 0x1FE1 JUMP JUMPDEST SWAP2 DUP2 PUSH1 0x1F DUP5 ADD SLT ISZERO PUSH2 0x1EA JUMPI DUP3 CALLDATALOAD SWAP2 PUSH1 0x1 PUSH1 0x1 PUSH1 0x40 SHL SUB DUP4 GT PUSH2 0x1EA JUMPI PUSH1 0x20 DUP1 DUP6 ADD SWAP5 DUP5 PUSH1 0x5 SHL ADD ADD GT PUSH2 0x1EA JUMPI JUMP JUMPDEST PUSH1 0x24 CALLDATALOAD SWAP1 PUSH1 0x1 PUSH1 0x1 PUSH1 0xA0 SHL SUB DUP3 AND DUP3 SUB PUSH2 0x1EA JUMPI JUMP JUMPDEST PUSH1 0x4 CALLDATALOAD SWAP1 PUSH1 0x1 PUSH1 0x1 PUSH1 0xA0 SHL SUB DUP3 AND DUP3 SUB PUSH2 0x1EA JUMPI JUMP JUMPDEST SWAP2 DUP2 PUSH1 0x1F DUP5 ADD SLT ISZERO PUSH2 0x1EA JUMPI DUP3 CALLDATALOAD SWAP2 PUSH1 0x1 PUSH1 0x1 PUSH1 0x40 SHL SUB DUP4 GT PUSH2 0x1EA JUMPI PUSH1 0x20 DUP4 DUP2 DUP7 ADD SWAP6 ADD ADD GT PUSH2 0x1EA JUMPI JUMP JUMPDEST SWAP1 PUSH1 0x20 SWAP2 PUSH2 0x20A3 DUP2 MLOAD DUP1 SWAP3 DUP2 DUP6 MSTORE DUP6 DUP1 DUP7 ADD SWAP2 ADD PUSH2 0x1FDE JUMP JUMPDEST PUSH1 0x1F ADD PUSH1 0x1F NOT AND ADD ADD SWAP1 JUMP JUMPDEST PUSH1 0x44 CALLDATALOAD SWAP1 DUP2 ISZERO ISZERO DUP3 SUB PUSH2 0x1EA JUMPI JUMP JUMPDEST SWAP1 PUSH1 0x5 DUP3 LT ISZERO PUSH2 0x645 JUMPI MSTORE JUMP JUMPDEST SWAP1 DUP2 MLOAD DUP2 MSTORE PUSH1 0x1 DUP1 PUSH1 0xA0 SHL SUB PUSH1 0x20 DUP4 ADD MLOAD AND PUSH1 0x20 DUP3 ADD MSTORE PUSH2 0x2126 PUSH2 0x20FE PUSH1 0x40 DUP5 ADD MLOAD PUSH2 0x200 DUP1 PUSH1 0x40 DUP7 ADD MSTORE DUP5 ADD SWAP1 PUSH2 0x208A JUMP JUMPDEST PUSH1 0x60 DUP5 ADD MLOAD PUSH1 0x60 DUP5 ADD MSTORE PUSH1 0x80 DUP5 ADD MLOAD ISZERO ISZERO PUSH1 0x80 DUP5 ADD MSTORE PUSH1 0xA0 DUP5 ADD MLOAD DUP4 DUP3 SUB PUSH1 0xA0 DUP6 ADD MSTORE PUSH2 0x208A JUMP JUMPDEST SWAP2 PUSH1 0xC0 DUP2 ADD MLOAD ISZERO ISZERO PUSH1 0xC0 DUP4 ADD MSTORE PUSH1 0xE0 DUP2 ADD MLOAD PUSH1 0xE0 DUP4 ADD MSTORE PUSH2 0x100 DUP1 DUP3 ADD MLOAD SWAP1 DUP4 ADD MSTORE PUSH2 0x120 DUP1 DUP3 ADD MLOAD SWAP1 DUP4 ADD MSTORE PUSH2 0x140 DUP1 DUP3 ADD MLOAD SWAP1 DUP4 ADD MSTORE PUSH2 0x2171 PUSH2 0x160 DUP1 DUP4 ADD MLOAD SWAP1 DUP5 ADD SWAP1 PUSH2 0x20BE JUMP JUMPDEST PUSH2 0x180 DUP1 DUP3 ADD MLOAD SWAP1 DUP4 ADD MSTORE PUSH2 0x1A0 DUP1 DUP3 ADD MLOAD SWAP1 DUP4 ADD MSTORE PUSH2 0x1C0 DUP1 DUP3 ADD MLOAD SWAP1 DUP4 ADD MSTORE PUSH2 0x1E0 DUP1 SWAP2 ADD MLOAD SWAP2 ADD MSTORE SWAP1 JUMP JUMPDEST DUP1 SLOAD DUP3 LT ISZERO PUSH2 0x21B7 JUMPI PUSH1 0x0 MSTORE PUSH1 0x20 PUSH1 0x0 KECCAK256 ADD SWAP1 PUSH1 0x0 SWAP1 JUMP JUMPDEST PUSH4 0x4E487B71 PUSH1 0xE0 SHL PUSH1 0x0 MSTORE PUSH1 0x32 PUSH1 0x4 MSTORE PUSH1 0x24 PUSH1 0x0 REVERT JUMPDEST SWAP1 PUSH1 0x1 DUP3 DUP2 SHR SWAP3 AND DUP1 ISZERO PUSH2 0x21FD JUMPI JUMPDEST PUSH1 0x20 DUP4 LT EQ PUSH2 0x21E7 JUMPI JUMP JUMPDEST PUSH4 0x4E487B71 PUSH1 0xE0 SHL PUSH1 0x0 MSTORE PUSH1 0x22 PUSH1 0x4 MSTORE PUSH1 0x24 PUSH1 0x0 REVERT JUMPDEST SWAP2 PUSH1 0x7F AND SWAP2 PUSH2 0x21DC JUMP JUMPDEST SWAP1 PUSH1 0x40 MLOAD SWAP2 DUP3 PUSH1 0x0 DUP3 SLOAD SWAP3 PUSH2 0x221B DUP5 PUSH2 0x21CD JUMP JUMPDEST SWAP1 DUP2 DUP5 MSTORE PUSH1 0x1 SWAP5 DUP6 DUP2 AND SWAP1 DUP2 PUSH1 0x0 EQ PUSH2 0x228A JUMPI POP PUSH1 0x1 EQ PUSH2 0x2247 JUMPI JUMPDEST POP POP PUSH2 0x2245 SWAP3 POP SUB DUP4 PUSH2 0x1F4D JUMP JUMPDEST JUMP JUMPDEST SWAP1 SWAP4 SWAP2 POP PUSH1 0x0 MSTORE PUSH1 0x20 SWAP1 DUP2 PUSH1 0x0 KECCAK256 SWAP4 PUSH1 0x0 SWAP2 JUMPDEST DUP2 DUP4 LT PUSH2 0x2272 JUMPI POP POP PUSH2 0x2245 SWAP4 POP DUP3 ADD ADD CODESIZE DUP1 PUSH2 0x2237 JUMP JUMPDEST DUP6 SLOAD DUP9 DUP5 ADD DUP6 ADD MSTORE SWAP5 DUP6 ADD SWAP5 DUP8 SWAP5 POP SWAP2 DUP4 ADD SWAP2 PUSH2 0x225A JUMP JUMPDEST SWAP2 POP POP PUSH2 0x2245 SWAP5 POP PUSH1 0x20 SWAP3 POP PUSH1 0xFF NOT AND DUP3 DUP5 ADD MSTORE ISZERO ISZERO PUSH1 0x5 SHL DUP3 ADD ADD CODESIZE DUP1 PUSH2 0x2237 JUMP JUMPDEST CALLER PUSH1 0x0 SWAP1 DUP2 MSTORE PUSH32 0xAD3228B676F7D3CD4284A5443F17F1962B36E491B30A40B2405849E597BA5FB5 PUSH1 0x20 MSTORE PUSH1 0x40 DUP2 KECCAK256 SLOAD PUSH1 0xFF AND ISZERO PUSH2 0x22E7 JUMPI POP JUMP JUMPDEST PUSH1 0x44 SWAP1 PUSH1 0x40 MLOAD SWAP1 PUSH4 0xE2517D3F PUSH1 0xE0 SHL DUP3 MSTORE CALLER PUSH1 0x4 DUP4 ADD MSTORE PUSH1 0x24 DUP3 ADD MSTORE REVERT JUMPDEST CALLER PUSH1 0x0 SWAP1 DUP2 MSTORE PUSH32 0xDAE2AA361DFD1CA020A396615627D436107C35EFF9FE7738A3512819782D7069 PUSH1 0x20 MSTORE PUSH1 0x40 SWAP1 KECCAK256 SLOAD PUSH32 0xD8AA0F3194971A2A116679F7C2090F6939C8D4E01A2A8D7E41D55E5351469E63 SWAP1 PUSH1 0xFF AND ISZERO PUSH2 0x22E7 JUMPI POP JUMP JUMPDEST DUP1 PUSH1 0x0 MSTORE PUSH1 0x0 PUSH1 0x20 MSTORE PUSH1 0x40 PUSH1 0x0 KECCAK256 CALLER PUSH1 0x0 MSTORE PUSH1 0x20 MSTORE PUSH1 0xFF PUSH1 0x40 PUSH1 0x0 KECCAK256 SLOAD AND ISZERO PUSH2 0x22E7 JUMPI POP JUMP JUMPDEST SWAP1 PUSH1 0x0 SWAP2 DUP1 DUP4 MSTORE DUP3 PUSH1 0x20 MSTORE PUSH1 0x40 DUP4 KECCAK256 SWAP2 PUSH1 0x1 DUP1 PUSH1 0xA0 SHL SUB AND SWAP2 DUP3 DUP5 MSTORE PUSH1 0x20 MSTORE PUSH1 0xFF PUSH1 0x40 DUP5 KECCAK256 SLOAD AND ISZERO PUSH1 0x0 EQ PUSH2 0x2400 JUMPI DUP1 DUP4 MSTORE DUP3 PUSH1 0x20 MSTORE PUSH1 0x40 DUP4 KECCAK256 DUP3 DUP5 MSTORE PUSH1 0x20 MSTORE PUSH1 0x40 DUP4 KECCAK256 PUSH1 0x1 PUSH1 0xFF NOT DUP3 SLOAD AND OR SWAP1 SSTORE PUSH32 0x2F8788117E7EFF1D82E926EC794901D17C78024A50270940304540A733656F0D CALLER SWAP4 DUP1 LOG4 PUSH1 0x1 SWAP1 JUMP JUMPDEST POP POP SWAP1 JUMP JUMPDEST SWAP1 PUSH1 0x0 SWAP2 DUP1 DUP4 MSTORE DUP3 PUSH1 0x20 MSTORE PUSH1 0x40 DUP4 KECCAK256 SWAP2 PUSH1 0x1 DUP1 PUSH1 0xA0 SHL SUB AND SWAP2 DUP3 DUP5 MSTORE PUSH1 0x20 MSTORE PUSH1 0xFF PUSH1 0x40 DUP5 KECCAK256 SLOAD AND PUSH1 0x0 EQ PUSH2 0x2400 JUMPI DUP1 DUP4 MSTORE DUP3 PUSH1 0x20 MSTORE PUSH1 0x40 DUP4 KECCAK256 DUP3 DUP5 MSTORE PUSH1 0x20 MSTORE PUSH1 0x40 DUP4 KECCAK256 PUSH1 0xFF NOT DUP2 SLOAD AND SWAP1 SSTORE PUSH32 0xF6391F5C32D9C69D2A47EA670B442974B53935D1EDC7FD64EB21E047A839171B CALLER SWAP4 DUP1 LOG4 PUSH1 0x1 SWAP1 JUMP JUMPDEST ISZERO PUSH2 0x2481 JUMPI JUMP JUMPDEST PUSH1 0x40 MLOAD PUSH3 0x461BCD PUSH1 0xE5 SHL DUP2 MSTORE PUSH1 0x20 PUSH1 0x4 DUP3 ADD MSTORE PUSH1 0x18 PUSH1 0x24 DUP3 ADD MSTORE PUSH32 0x546172676574207072696365206D757374206265203E20300000000000000000 PUSH1 0x44 DUP3 ADD MSTORE PUSH1 0x64 SWAP1 REVERT JUMPDEST DUP2 ISZERO PUSH2 0x24D0 JUMPI DIV SWAP1 JUMP JUMPDEST PUSH4 0x4E487B71 PUSH1 0xE0 SHL PUSH1 0x0 MSTORE PUSH1 0x12 PUSH1 0x4 MSTORE PUSH1 0x24 PUSH1 0x0 REVERT JUMPDEST ISZERO PUSH2 0x24ED JUMPI JUMP JUMPDEST PUSH1 0x40 MLOAD PUSH3 0x461BCD PUSH1 0xE5 SHL DUP2 MSTORE PUSH1 0x20 PUSH1 0x4 DUP3 ADD MSTORE PUSH1 0x18 PUSH1 0x24 DUP3 ADD MSTORE PUSH32 0x496E73756666696369656E742074726967676572206665650000000000000000 PUSH1 0x44 DUP3 ADD MSTORE PUSH1 0x64 SWAP1 REVERT JUMPDEST PUSH1 0x0 NOT DUP2 EQ PUSH2 0x811 JUMPI PUSH1 0x1 ADD SWAP1 JUMP JUMPDEST SWAP2 SWAP1 DUP3 ADD DUP1 SWAP3 GT PUSH2 0x811 JUMPI JUMP JUMPDEST SWAP1 PUSH1 0x5 DUP2 LT ISZERO PUSH2 0x645 JUMPI PUSH1 0xFF DUP1 NOT DUP4 SLOAD AND SWAP2 AND OR SWAP1 SSTORE JUMP JUMPDEST DUP1 SLOAD PUSH9 0x10000000000000000 DUP2 LT ISZERO PUSH2 0x72B JUMPI PUSH2 0x2588 SWAP2 PUSH1 0x1 DUP3 ADD DUP2 SSTORE PUSH2 0x219F JUMP JUMPDEST DUP2 SWAP3 SWAP2 SLOAD SWAP1 PUSH1 0x3 SHL SWAP2 DUP3 SHL SWAP2 PUSH1 0x0 NOT SWAP1 SHL NOT AND OR SWAP1 SSTORE JUMP JUMPDEST SWAP1 DUP1 PUSH1 0x20 SWAP4 SWAP3 DUP2 DUP5 MSTORE DUP5 DUP5 ADD CALLDATACOPY PUSH1 0x0 DUP3 DUP3 ADD DUP5 ADD MSTORE PUSH1 0x1F ADD PUSH1 0x1F NOT AND ADD ADD SWAP1 JUMP JUMPDEST PUSH1 0xFF PUSH1 0x1 SLOAD AND PUSH2 0x25CD JUMPI JUMP JUMPDEST PUSH1 0x40 MLOAD PUSH4 0xD93C0665 PUSH1 0xE0 SHL DUP2 MSTORE PUSH1 0x4 SWAP1 REVERT JUMPDEST PUSH1 0x2 DUP1 SLOAD EQ PUSH2 0x25EE JUMPI PUSH1 0x2 DUP1 SSTORE JUMP JUMPDEST PUSH1 0x40 MLOAD PUSH4 0x3EE5AEB5 PUSH1 0xE0 SHL DUP2 MSTORE PUSH1 0x4 SWAP1 REVERT JUMPDEST PUSH4 0xFFFFFFFF PUSH1 0x40 MLOAD DUP3 DUP2 DUP1 SWAP5 MLOAD PUSH2 0x261D DUP2 PUSH1 0x20 SWAP8 DUP9 DUP1 SWAP7 ADD PUSH2 0x1FDE JUMP JUMPDEST DUP2 ADD PUSH1 0x9 DUP2 MSTORE SUB ADD SWAP1 KECCAK256 SLOAD AND SWAP1 DUP2 ISZERO PUSH2 0x26BF JUMPI PUSH1 0x40 MLOAD SWAP2 PUSH4 0x32C935BB PUSH1 0xE2 SHL DUP4 MSTORE PUSH1 0x4 DUP4 ADD MSTORE DUP1 DUP3 PUSH1 0x24 DUP2 PUSH2 0x807 GAS STATICCALL SWAP2 PUSH1 0x0 SWAP2 DUP4 PUSH2 0x267B JUMPI JUMPDEST POP POP SWAP1 ISZERO PUSH1 0x0 EQ PUSH2 0x266B JUMPI POP PUSH1 0x0 SWAP1 PUSH1 0x0 SWAP1 JUMP JUMPDEST SWAP1 PUSH1 0x1 PUSH1 0x1 PUSH1 0x40 SHL SUB DUP3 AND ISZERO ISZERO SWAP1 JUMP JUMPDEST DUP2 DUP2 RETURNDATASIZE DUP4 GT PUSH2 0x26B8 JUMPI JUMPDEST PUSH2 0x268F DUP2 DUP4 PUSH2 0x1F4D JUMP JUMPDEST DUP2 ADD SUB SLT PUSH2 0x26B4 JUMPI MLOAD SWAP1 PUSH1 0x1 PUSH1 0x1 PUSH1 0x40 SHL SUB DUP3 AND DUP3 SUB PUSH2 0x26B1 JUMPI POP CODESIZE DUP1 PUSH2 0x2657 JUMP JUMPDEST DUP1 REVERT JUMPDEST POP DUP1 REVERT JUMPDEST POP RETURNDATASIZE PUSH2 0x2685 JUMP JUMPDEST POP POP PUSH1 0x0 SWAP1 PUSH1 0x0 SWAP1 JUMP JUMPDEST SWAP2 SWAP1 DUP3 SUB SWAP2 DUP3 GT PUSH2 0x811 JUMPI JUMP JUMPDEST PUSH2 0x26DF SWAP1 PUSH2 0x2600 JUMP JUMPDEST ISZERO PUSH2 0x2774 JUMPI PUSH1 0x1 PUSH1 0x1 PUSH1 0x40 SHL SUB PUSH1 0x64 SWAP2 AND DIV SWAP1 PUSH1 0x0 DUP3 DUP3 GT PUSH1 0x0 EQ PUSH2 0x272F JUMPI POP DUP2 PUSH2 0x2709 SWAP2 PUSH2 0x26C9 JUMP JUMPDEST SWAP1 PUSH2 0x2710 SWAP2 DUP3 DUP2 MUL SWAP3 DUP2 DUP5 DIV EQ SWAP1 ISZERO OR ISZERO PUSH2 0x811 JUMPI PUSH2 0x2727 SWAP2 PUSH2 0x24C6 JUMP JUMPDEST PUSH1 0x4 SLOAD LT ISZERO SWAP1 JUMP JUMPDEST SWAP3 SWAP2 SWAP1 PUSH2 0x273C SWAP1 DUP3 PUSH2 0x26C9 JUMP JUMPDEST PUSH2 0x2710 SWAP1 DUP2 DUP2 MUL SWAP2 DUP2 DUP4 DIV EQ SWAP1 ISZERO OR ISZERO PUSH2 0x2760 JUMPI PUSH2 0x275B SWAP3 SWAP4 POP PUSH2 0x24C6 JUMP JUMPDEST PUSH2 0x2727 JUMP JUMPDEST PUSH4 0x4E487B71 PUSH1 0xE0 SHL DUP5 MSTORE PUSH1 0x11 PUSH1 0x4 MSTORE PUSH1 0x24 DUP5 REVERT JUMPDEST POP POP PUSH1 0x1 SWAP1 JUMP JUMPDEST ISZERO PUSH2 0x2782 JUMPI JUMP JUMPDEST PUSH1 0x40 MLOAD PUSH3 0x461BCD PUSH1 0xE5 SHL DUP2 MSTORE PUSH1 0x20 PUSH1 0x4 DUP3 ADD MSTORE PUSH1 0x12 PUSH1 0x24 DUP3 ADD MSTORE PUSH18 0x54726967676572206E6F7420616374697665 PUSH1 0x70 SHL PUSH1 0x44 DUP3 ADD MSTORE PUSH1 0x64 SWAP1 REVERT JUMPDEST DUP1 ISZERO PUSH2 0x811 JUMPI PUSH1 0x0 NOT ADD SWAP1 JUMP JUMPDEST ISZERO PUSH2 0x27D0 JUMPI JUMP JUMPDEST PUSH1 0x40 MLOAD PUSH3 0x461BCD PUSH1 0xE5 SHL DUP2 MSTORE PUSH1 0x20 PUSH1 0x4 DUP3 ADD MSTORE PUSH1 0x11 PUSH1 0x24 DUP3 ADD MSTORE PUSH17 0x2737BA103A3934B3B3B2B91037BBB732B9 PUSH1 0x79 SHL PUSH1 0x44 DUP3 ADD MSTORE PUSH1 0x64 SWAP1 REVERT JUMPDEST RETURNDATASIZE ISZERO PUSH2 0x2834 JUMPI RETURNDATASIZE SWAP1 PUSH2 0x281A DUP3 PUSH2 0x1F6E JUMP JUMPDEST SWAP2 PUSH2 0x2828 PUSH1 0x40 MLOAD SWAP4 DUP5 PUSH2 0x1F4D JUMP JUMPDEST DUP3 MSTORE RETURNDATASIZE PUSH1 0x0 PUSH1 0x20 DUP5 ADD RETURNDATACOPY JUMP JUMPDEST PUSH1 0x60 SWAP1 JUMP JUMPDEST SWAP2 SWAP1 SWAP2 PUSH1 0x0 SWAP1 DUP2 MSTORE PUSH1 0x20 SWAP1 PUSH1 0x5 DUP3 MSTORE PUSH1 0x40 SWAP4 DUP5 DUP3 KECCAK256 PUSH1 0xFF PUSH1 0xB DUP3 ADD SLOAD AND PUSH1 0x5 DUP2 LT ISZERO PUSH2 0x2983 JUMPI PUSH2 0x2954 JUMPI PUSH1 0xA DUP2 ADD SLOAD TIMESTAMP GT PUSH2 0x2928 JUMPI DUP2 ISZERO PUSH2 0x28FE JUMPI DUP1 PUSH1 0xFF PUSH1 0x4 PUSH1 0x3 SWAP4 ADD SLOAD AND PUSH1 0x0 EQ PUSH2 0x28F5 JUMPI ADD SLOAD GT ISZERO JUMPDEST ISZERO PUSH2 0x28BD JUMPI POP PUSH16 0x526561647920746F2065786563757465 PUSH1 0x80 SHL PUSH1 0x1 SWAP4 MLOAD SWAP2 PUSH2 0x28B3 DUP4 PUSH2 0x1F32 JUMP JUMPDEST PUSH1 0x10 DUP4 MSTORE DUP3 ADD MSTORE SWAP1 JUMP JUMPDEST PUSH32 0x507269636520636F6E646974696F6E206E6F74206D6574000000000000000000 SWAP1 SWAP4 MLOAD SWAP2 PUSH2 0x28EB DUP4 PUSH2 0x1F32 JUMP JUMPDEST PUSH1 0x17 DUP4 MSTORE DUP3 ADD MSTORE SWAP1 JUMP JUMPDEST ADD SLOAD LT ISZERO PUSH2 0x288B JUMP JUMPDEST POP POP PUSH13 0x496E76616C6964207072696365 PUSH1 0x98 SHL SWAP1 SWAP4 MLOAD SWAP2 PUSH2 0x291E DUP4 PUSH2 0x1F32 JUMP JUMPDEST PUSH1 0xD DUP4 MSTORE DUP3 ADD MSTORE SWAP1 JUMP JUMPDEST POP POP PUSH15 0x151C9A59D9D95C88195E1C1A5C9959 PUSH1 0x8A SHL SWAP1 SWAP4 MLOAD SWAP2 PUSH2 0x294A DUP4 PUSH2 0x1F32 JUMP JUMPDEST PUSH1 0xF DUP4 MSTORE DUP3 ADD MSTORE SWAP1 JUMP JUMPDEST POP POP PUSH18 0x54726967676572206E6F7420616374697665 PUSH1 0x70 SHL SWAP1 SWAP4 MLOAD SWAP2 PUSH2 0x2979 DUP4 PUSH2 0x1F32 JUMP JUMPDEST PUSH1 0x12 DUP4 MSTORE DUP3 ADD MSTORE SWAP1 JUMP JUMPDEST PUSH4 0x4E487B71 PUSH1 0xE0 SHL DUP5 MSTORE PUSH1 0x21 PUSH1 0x4 MSTORE PUSH1 0x24 DUP5 REVERT JUMPDEST SWAP2 SWAP1 DUP2 LT ISZERO PUSH2 0x21B7 JUMPI PUSH1 0x5 SHL ADD SWAP1 JUMP JUMPDEST PUSH1 0x40 MLOAD SWAP1 PUSH2 0x29B4 DUP3 PUSH2 0x1F16 JUMP JUMPDEST DUP2 PUSH2 0x1E0 PUSH1 0x0 SWAP2 DUP3 DUP2 MSTORE DUP3 PUSH1 0x20 DUP3 ADD MSTORE PUSH1 0x60 PUSH1 0x40 DUP3 ADD MSTORE DUP3 PUSH1 0x60 DUP3 ADD MSTORE DUP3 PUSH1 0x80 DUP3 ADD MSTORE PUSH1 0x60 PUSH1 0xA0 DUP3 ADD MSTORE DUP3 PUSH1 0xC0 DUP3 ADD MSTORE DUP3 PUSH1 0xE0 DUP3 ADD MSTORE DUP3 PUSH2 0x100 DUP3 ADD MSTORE DUP3 PUSH2 0x120 DUP3 ADD MSTORE DUP3 PUSH2 0x140 DUP3 ADD MSTORE DUP3 PUSH2 0x160 DUP3 ADD MSTORE DUP3 PUSH2 0x180 DUP3 ADD MSTORE DUP3 PUSH2 0x1A0 DUP3 ADD MSTORE DUP3 PUSH2 0x1C0 DUP3 ADD MSTORE ADD MSTORE JUMP JUMPDEST SWAP1 PUSH1 0x40 MLOAD PUSH2 0x2A2C DUP2 PUSH2 0x1F16 JUMP JUMPDEST DUP3 SLOAD DUP2 MSTORE PUSH1 0x1 DUP4 ADD SLOAD PUSH1 0x1 PUSH1 0x1 PUSH1 0xA0 SHL SUB AND PUSH1 0x20 DUP3 ADD MSTORE SWAP2 DUP3 SWAP1 PUSH2 0x2A52 PUSH1 0x2 DUP3 ADD PUSH2 0x2207 JUMP JUMPDEST PUSH1 0x40 DUP4 ADD MSTORE PUSH1 0x3 DUP2 ADD SLOAD PUSH1 0x60 DUP4 ADD MSTORE PUSH1 0xFF PUSH1 0x4 DUP3 ADD SLOAD AND ISZERO ISZERO PUSH1 0x80 DUP4 ADD MSTORE PUSH2 0x2A7C PUSH1 0x5 DUP3 ADD PUSH2 0x2207 JUMP JUMPDEST PUSH1 0xA0 DUP4 ADD MSTORE PUSH1 0xFF PUSH1 0x6 DUP3 ADD SLOAD AND ISZERO ISZERO PUSH1 0xC0 DUP4 ADD MSTORE PUSH1 0x7 DUP2 ADD SLOAD PUSH1 0xE0 DUP4 ADD MSTORE PUSH1 0x8 DUP2 ADD SLOAD PUSH2 0x100 DUP4 ADD MSTORE PUSH1 0x9 DUP2 ADD SLOAD PUSH2 0x120 DUP4 ADD MSTORE PUSH1 0xA DUP2 ADD SLOAD PUSH2 0x140 DUP4 ADD MSTORE PUSH1 0xFF PUSH1 0xB DUP3 ADD SLOAD AND PUSH1 0x5 DUP2 LT ISZERO PUSH2 0x645 JUMPI PUSH2 0x1E0 SWAP2 PUSH1 0xF SWAP2 PUSH2 0x160 DUP6 ADD MSTORE PUSH1 0xC DUP2 ADD SLOAD PUSH2 0x180 DUP6 ADD MSTORE PUSH1 0xD DUP2 ADD SLOAD PUSH2 0x1A0 DUP6 ADD MSTORE PUSH1 0xE DUP2 ADD SLOAD PUSH2 0x1C0 DUP6 ADD MSTORE ADD SLOAD SWAP2 ADD MSTORE JUMP JUMPDEST DUP1 MLOAD DUP3 LT ISZERO PUSH2 0x21B7 JUMPI PUSH1 0x20 SWAP2 PUSH1 0x5 SHL ADD ADD SWAP1 JUMP JUMPDEST PUSH1 0x1 PUSH1 0x1 PUSH1 0x40 SHL SUB DUP2 GT PUSH2 0x72B JUMPI PUSH1 0x5 SHL PUSH1 0x20 ADD SWAP1 JUMP JUMPDEST SWAP2 PUSH2 0x2B4A PUSH1 0x20 SWAP3 PUSH4 0xFFFFFFFF SWAP3 SWAP7 SWAP6 SWAP7 PUSH1 0x40 DUP7 MSTORE PUSH1 0x40 DUP7 ADD SWAP2 PUSH2 0x25A0 JUMP JUMPDEST SWAP5 AND SWAP2 ADD MSTORE JUMP JUMPDEST CALLDATALOAD PUSH4 0xFFFFFFFF DUP2 AND DUP2 SUB PUSH2 0x1EA JUMPI SWAP1 JUMP JUMPDEST SWAP2 SWAP1 DUP2 LT ISZERO PUSH2 0x21B7 JUMPI PUSH1 0x5 SHL DUP2 ADD CALLDATALOAD SWAP1 PUSH1 0x1E NOT DUP2 CALLDATASIZE SUB ADD DUP3 SLT ISZERO PUSH2 0x1EA JUMPI ADD SWAP1 DUP2 CALLDATALOAD SWAP2 PUSH1 0x1 PUSH1 0x1 PUSH1 0x40 SHL SUB DUP4 GT PUSH2 0x1EA JUMPI PUSH1 0x20 ADD DUP3 CALLDATASIZE SUB DUP2 SGT PUSH2 0x1EA JUMPI SWAP2 SWAP1 JUMP INVALID LOG2 PUSH5 0x6970667358 0x22 SLT KECCAK256 0xEF DUP7 PUSH26 0x60A8D09FA5CE523D53B9C3357620CF8637AE70D2B73DDF1AFDDB 0xEF SGT 0xE4 PUSH5 0x736F6C6343 STOP ADDMOD EQ STOP CALLER 0x2F DUP8 DUP9 GT PUSH31 0x7EFF1D82E926EC794901D17C78024A50270940304540A733656F0D00000000 "},"methodIdentifiers":{"DEFAULT_ADMIN_ROLE()":"a217fddf","EXECUTOR_ROLE()":"07bd0265","MAX_TRIGGER_DURATION()":"ffd581b6","MIN_TRIGGER_DURATION()":"13ae981b","activeTriggerCount()":"4e712fb8","assetToSpotIndex(string)":"18161684","cancelTrigger(uint256)":"d45ddd9c","checkTrigger(uint256,uint256)":"4efc9c85","createTrigger(string,uint256,bool,string,bool,uint256,uint256,uint256)":"5f330929","getActiveTriggerCount()":"5a487ef6","getOraclePrice(string)":"f5a908f0","getRoleAdmin(bytes32)":"248a9ca3","getTrigger(uint256)":"9c50472b","getUserActiveTriggers(address)":"aefed8ff","getUserTriggers(address)":"71876a16","grantRole(bytes32,address)":"2f2ff15d","hasRole(bytes32,address)":"91d14854","markExecuted(uint256,uint256,bytes32)":"86b9d16e","markExpired(uint256[])":"681475e8","markFailed(uint256,string)":"3940fda4","maxPriceDeviation()":"975b8662","nextTriggerId()":"42227fa4","pause()":"8456cb59","paused()":"5c975abb","renounceRole(bytes32,address)":"36568abe","revokeRole(bytes32,address)":"d547741f","setAssetIndex(string,uint32)":"3a90f050","setAssetIndexes(string[],uint32[])":"2a1b3fd3","supportsInterface(bytes4)":"01ffc9a7","triggerFee()":"f6837157","triggers(uint256)":"a78dd42e","unpause()":"3f4ba83a","updateMaxPriceDeviation(uint256)":"24f1c5c1","updateTriggerFee(uint256)":"b71e83c4","updateTriggerPrice(uint256,uint256,bool)":"e2a2496c","userTriggers(address,uint256)":"a3498325","verifyPriceWithOracle(string,uint256)":"65672a7f","withdrawFees()":"476343ee"}},"storageLayout":{"storage":[{"astId":27,"contract":"contracts/TriggerContract.sol:TriggerContract","label":"_roles","offset":0,"slot":"0","type":"t_mapping(t_bytes32,t_struct(RoleData)22_storage)"},{"astId":418,"contract":"contracts/TriggerContract.sol:TriggerContract","label":"_paused","offset":0,"slot":"1","type":"t_bool"},{"astId":528,"contract":"contracts/TriggerContract.sol:TriggerContract","label":"_status","offset":0,"slot":"2","type":"t_uint256"},{"astId":664,"contract":"contracts/TriggerContract.sol:TriggerContract","label":"triggerFee","offset":0,"slot":"3","type":"t_uint256"},{"astId":673,"contract":"contracts/TriggerContract.sol:TriggerContract","label":"maxPriceDeviation","offset":0,"slot":"4","type":"t_uint256"},{"astId":719,"contract":"contracts/TriggerContract.sol:TriggerContract","label":"triggers","offset":0,"slot":"5","type":"t_mapping(t_uint256,t_struct(Trigger)714_storage)"},{"astId":724,"contract":"contracts/TriggerContract.sol:TriggerContract","label":"userTriggers","offset":0,"slot":"6","type":"t_mapping(t_address,t_array(t_uint256)dyn_storage)"},{"astId":727,"contract":"contracts/TriggerContract.sol:TriggerContract","label":"nextTriggerId","offset":0,"slot":"7","type":"t_uint256"},{"astId":729,"contract":"contracts/TriggerContract.sol:TriggerContract","label":"activeTriggerCount","offset":0,"slot":"8","type":"t_uint256"},{"astId":733,"contract":"contracts/TriggerContract.sol:TriggerContract","label":"assetToSpotIndex","offset":0,"slot":"9","type":"t_mapping(t_string_memory_ptr,t_uint32)"}],"types":{"t_address":{"encoding":"inplace","label":"address","numberOfBytes":"20"},"t_array(t_uint256)dyn_storage":{"base":"t_uint256","encoding":"dynamic_array","label":"uint256[]","numberOfBytes":"32"},"t_bool":{"encoding":"inplace","label":"bool","numberOfBytes":"1"},"t_bytes32":{"encoding":"inplace","label":"bytes32","numberOfBytes":"32"},"t_enum(TriggerStatus)679":{"encoding":"inplace","label":"enum TriggerContract.TriggerStatus","numberOfBytes":"1"},"t_mapping(t_address,t_array(t_uint256)dyn_storage)":{"encoding":"mapping","key":"t_address","label":"mapping(address => uint256[])","numberOfBytes":"32","value":"t_array(t_uint256)dyn_storage"},"t_mapping(t_address,t_bool)":{"encoding":"mapping","key":"t_address","label":"mapping(address => bool)","numberOfBytes":"32","value":"t_bool"},"t_mapping(t_bytes32,t_struct(RoleData)22_storage)":{"encoding":"mapping","key":"t_bytes32","label":"mapping(bytes32 => struct AccessControl.RoleData)","numberOfBytes":"32","value":"t_struct(RoleData)22_storage"},"t_mapping(t_string_memory_ptr,t_uint32)":{"encoding":"mapping","key":"t_string_memory_ptr","label":"mapping(string => uint32)","numberOfBytes":"32","value":"t_uint32"},"t_mapping(t_uint256,t_struct(Trigger)714_storage)":{"encoding":"mapping","key":"t_uint256","label":"mapping(uint256 => struct TriggerContract.Trigger)","numberOfBytes":"32","value":"t_struct(Trigger)714_storage"},"t_string_memory_ptr":{"encoding":"bytes","label":"string","numberOfBytes":"32"},"t_string_storage":{"encoding":"bytes","label":"string","numberOfBytes":"32"},"t_struct(RoleData)22_storage":{"encoding":"inplace","label":"struct AccessControl.RoleData","members":[{"astId":19,"contract":"contracts/TriggerContract.sol:TriggerContract","label":"hasRole","offset":0,"slot":"0","type":"t_mapping(t_address,t_bool)"},{"astId":21,"contract":"contracts/TriggerContract.sol:TriggerContract","label":"adminRole","offset":0,"slot":"1","type":"t_bytes32"}],"numberOfBytes":"64"},"t_struct(Trigger)714_storage":{"encoding":"inplace","label":"struct TriggerContract.Trigger","members":[{"astId":682,"contract":"contracts/TriggerContract.sol:TriggerContract","label":"id","offset":0,"slot":"0","type":"t_uint256"},{"astId":684,"contract":"contracts/TriggerContract.sol:TriggerContract","label":"user","offset":0,"slot":"1","type":"t_address"},{"astId":686,"contract":"contracts/TriggerContract.sol:TriggerContract","label":"watchAsset","offset":0,"slot":"2","type":"t_string_storage"},{"astId":688,"contract":"contracts/TriggerContract.sol:TriggerContract","label":"targetPrice","offset":0,"slot":"3","type":"t_uint256"},{"astId":690,"contract":"contracts/TriggerContract.sol:TriggerContract","label":"isAbove","offset":0,"slot":"4","type":"t_bool"},{"astId":692,"contract":"contracts/TriggerContract.sol:TriggerContract","label":"tradeAsset","offset":0,"slot":"5","type":"t_string_storage"},{"astId":694,"contract":"contracts/TriggerContract.sol:TriggerContract","label":"isBuy","offset":0,"slot":"6","type":"t_bool"},{"astId":696,"contract":"contracts/TriggerContract.sol:TriggerContract","label":"amount","offset":0,"slot":"7","type":"t_uint256"},{"astId":698,"contract":"contracts/TriggerContract.sol:TriggerContract","label":"maxSlippage","offset":0,"slot":"8","type":"t_uint256"},{"astId":700,"contract":"contracts/TriggerContract.sol:TriggerContract","label":"createdAt","offset":0,"slot":"9","type":"t_uint256"},{"astId":702,"contract":"contracts/TriggerContract.sol:TriggerContract","label":"expiresAt","offset":0,"slot":"10","type":"t_uint256"},{"astId":705,"contract":"contracts/TriggerContract.sol:TriggerContract","label":"status","offset":0,"slot":"11","type":"t_enum(TriggerStatus)679"},{"astId":707,"contract":"contracts/TriggerContract.sol:TriggerContract","label":"feePaid","offset":0,"slot":"12","type":"t_uint256"},{"astId":709,"contract":"contracts/TriggerContract.sol:TriggerContract","label":"executedAt","offset":0,"slot":"13","type":"t_uint256"},{"astId":711,"contract":"contracts/TriggerContract.sol:TriggerContract","label":"executionPrice","offset":0,"slot":"14","type":"t_uint256"},{"astId":713,"contract":"contracts/TriggerContract.sol:TriggerContract","label":"executionTxHash","offset":0,"slot":"15","type":"t_bytes32"}],"numberOfBytes":"512"},"t_uint256":{"encoding":"inplace","label":"uint256","numberOfBytes":"32"},"t_uint32":{"encoding":"inplace","label":"uint32","numberOfBytes":"4"}}}}}}