{"contracts/TriggerManager.sol":{"TriggerManager":{"abi":[{"inputs":[],"stateMutability":"nonpayable","type":"constructor"},{"inputs":[],"name":"AccessControlBadConfirmation","type":"error"},{"inputs":[{"internalType":"address","name":"account","type":"address"},{"internalType":"bytes32","name":"neededRole","type":"bytes32"}],"name":"AccessControlUnauthorizedAccount","type":"error"},{"inputs":[{"internalType":"uint256","name":"amount","type":"uint256"},{"internalType":"uint256","name":"maximum","type":"uint256"}],"name":"AmountTooLarge","type":"error"},{"inputs":[{"internalType":"uint256","name":"amount","type":"uint256"},{"internalType":"uint256","name":"minimum","type":"uint256"}],"name":"AmountTooSmall","type":"error"},{"inputs":[{"internalType":"uint32","name":"assetIndex","type":"uint32"}],"name":"AssetNotSupported","type":"error"},{"inputs":[],"name":"EnforcedPause","type":"error"},{"inputs":[{"internalType":"string","name":"reason","type":"string"}],"name":"ExecutionFailed","type":"error"},{"inputs":[],"name":"ExpectedPause","type":"error"},{"inputs":[],"name":"InvalidExecutor","type":"error"},{"inputs":[],"name":"InvalidInitialization","type":"error"},{"inputs":[],"name":"InvalidTriggerParameters","type":"error"},{"inputs":[],"name":"NotInitializing","type":"error"},{"inputs":[],"name":"PriceOracleError","type":"error"},{"inputs":[],"name":"ReentrancyGuardReentrantCall","type":"error"},{"inputs":[{"internalType":"uint256","name":"provided","type":"uint256"},{"internalType":"uint256","name":"required","type":"uint256"}],"name":"RewardTooSmall","type":"error"},{"inputs":[{"internalType":"address","name":"token","type":"address"}],"name":"SafeERC20FailedOperation","type":"error"},{"inputs":[{"internalType":"uint256","name":"requested","type":"uint256"},{"internalType":"uint256","name":"maximum","type":"uint256"}],"name":"SlippageTooHigh","type":"error"},{"inputs":[],"name":"TriggerNotActive","type":"error"},{"inputs":[],"name":"UnauthorizedAccess","type":"error"},{"anonymous":false,"inputs":[{"indexed":true,"internalType":"uint32","name":"assetIndex","type":"uint32"},{"indexed":false,"internalType":"string","name":"symbol","type":"string"},{"indexed":false,"internalType":"address","name":"tokenContract","type":"address"},{"indexed":false,"internalType":"address","name":"systemAddress","type":"address"}],"name":"AssetAdded","type":"event"},{"anonymous":false,"inputs":[{"indexed":false,"internalType":"uint64","name":"version","type":"uint64"}],"name":"Initialized","type":"event"},{"anonymous":false,"inputs":[{"indexed":false,"internalType":"address","name":"account","type":"address"}],"name":"Paused","type":"event"},{"anonymous":false,"inputs":[{"indexed":true,"internalType":"bytes32","name":"role","type":"bytes32"},{"indexed":true,"internalType":"bytes32","name":"previousAdminRole","type":"bytes32"},{"indexed":true,"internalType":"bytes32","name":"newAdminRole","type":"bytes32"}],"name":"RoleAdminChanged","type":"event"},{"anonymous":false,"inputs":[{"indexed":true,"internalType":"bytes32","name":"role","type":"bytes32"},{"indexed":true,"internalType":"address","name":"account","type":"address"},{"indexed":true,"internalType":"address","name":"sender","type":"address"}],"name":"RoleGranted","type":"event"},{"anonymous":false,"inputs":[{"indexed":true,"internalType":"bytes32","name":"role","type":"bytes32"},{"indexed":true,"internalType":"address","name":"account","type":"address"},{"indexed":true,"internalType":"address","name":"sender","type":"address"}],"name":"RoleRevoked","type":"event"},{"anonymous":false,"inputs":[{"indexed":true,"internalType":"uint256","name":"triggerId","type":"uint256"},{"indexed":true,"internalType":"address","name":"user","type":"address"},{"indexed":false,"internalType":"uint256","name":"refundAmount","type":"uint256"}],"name":"TriggerCancelled","type":"event"},{"anonymous":false,"inputs":[{"indexed":true,"internalType":"uint256","name":"triggerId","type":"uint256"},{"indexed":true,"internalType":"address","name":"user","type":"address"},{"indexed":false,"internalType":"uint32","name":"baseAssetIndex","type":"uint32"},{"indexed":false,"internalType":"uint32","name":"targetFromAssetIndex","type":"uint32"},{"indexed":false,"internalType":"uint32","name":"targetToAssetIndex","type":"uint32"},{"indexed":false,"internalType":"enum TriggerTypes.ComparisonOperator","name":"operator","type":"uint8"},{"indexed":false,"internalType":"uint256","name":"triggerPrice","type":"uint256"},{"indexed":false,"internalType":"enum TriggerTypes.ActionType","name":"action","type":"uint8"},{"indexed":false,"internalType":"uint256","name":"amount","type":"uint256"}],"name":"TriggerCreated","type":"event"},{"anonymous":false,"inputs":[{"indexed":true,"internalType":"uint256","name":"triggerId","type":"uint256"},{"indexed":true,"internalType":"address","name":"executor","type":"address"},{"indexed":false,"internalType":"uint256","name":"executionPrice","type":"uint256"},{"indexed":false,"internalType":"uint256","name":"amountIn","type":"uint256"},{"indexed":false,"internalType":"uint256","name":"amountOut","type":"uint256"},{"indexed":false,"internalType":"uint256","name":"executorReward","type":"uint256"}],"name":"TriggerExecuted","type":"event"},{"anonymous":false,"inputs":[{"indexed":true,"internalType":"uint256","name":"triggerId","type":"uint256"},{"indexed":true,"internalType":"address","name":"user","type":"address"}],"name":"TriggerExpired","type":"event"},{"anonymous":false,"inputs":[{"indexed":true,"internalType":"uint256","name":"triggerId","type":"uint256"},{"indexed":true,"internalType":"address","name":"executor","type":"address"},{"indexed":false,"internalType":"string","name":"reason","type":"string"}],"name":"TriggerFailed","type":"event"},{"anonymous":false,"inputs":[{"indexed":false,"internalType":"address","name":"account","type":"address"}],"name":"Unpaused","type":"event"},{"inputs":[],"name":"ASSET_MANAGER_ROLE","outputs":[{"internalType":"bytes32","name":"","type":"bytes32"}],"stateMutability":"view","type":"function"},{"inputs":[],"name":"DEFAULT_ADMIN_ROLE","outputs":[{"internalType":"bytes32","name":"","type":"bytes32"}],"stateMutability":"view","type":"function"},{"inputs":[],"name":"EXECUTOR_ROLE","outputs":[{"internalType":"bytes32","name":"","type":"bytes32"}],"stateMutability":"view","type":"function"},{"inputs":[],"name":"PAUSER_ROLE","outputs":[{"internalType":"bytes32","name":"","type":"bytes32"}],"stateMutability":"view","type":"function"},{"inputs":[{"internalType":"uint32","name":"assetIndex","type":"uint32"},{"internalType":"string","name":"symbol","type":"string"},{"internalType":"address","name":"tokenContract","type":"address"},{"internalType":"address","name":"systemAddress","type":"address"},{"internalType":"uint8","name":"decimals","type":"uint8"},{"internalType":"uint256","name":"minTradeAmount","type":"uint256"},{"internalType":"uint256","name":"maxTradeAmount","type":"uint256"}],"name":"addAsset","outputs":[],"stateMutability":"nonpayable","type":"function"},{"inputs":[{"internalType":"uint256","name":"triggerId","type":"uint256"}],"name":"cancelTrigger","outputs":[],"stateMutability":"nonpayable","type":"function"},{"inputs":[{"internalType":"uint256","name":"triggerId","type":"uint256"}],"name":"checkTriggerCondition","outputs":[{"internalType":"bool","name":"conditionMet","type":"bool"},{"internalType":"uint256","name":"currentPrice","type":"uint256"}],"stateMutability":"view","type":"function"},{"inputs":[],"name":"config","outputs":[{"internalType":"uint256","name":"minExecutionReward","type":"uint256"},{"internalType":"uint256","name":"maxSlippageBps","type":"uint256"},{"internalType":"uint256","name":"maxTriggerDuration","type":"uint256"},{"internalType":"uint256","name":"priceValidityPeriod","type":"uint256"},{"internalType":"uint256","name":"executionDelay","type":"uint256"},{"internalType":"bool","name":"paused","type":"bool"}],"stateMutability":"view","type":"function"},{"inputs":[{"internalType":"uint256","name":"triggerId","type":"uint256"},{"internalType":"uint256","name":"amountOut","type":"uint256"},{"internalType":"bool","name":"successful","type":"bool"},{"internalType":"string","name":"errorMessage","type":"string"}],"name":"confirmExecution","outputs":[],"stateMutability":"nonpayable","type":"function"},{"inputs":[{"internalType":"uint32","name":"baseAssetIndex","type":"uint32"},{"internalType":"uint32","name":"targetFromAssetIndex","type":"uint32"},{"internalType":"uint32","name":"targetToAssetIndex","type":"uint32"},{"internalType":"enum TriggerTypes.ComparisonOperator","name":"operator","type":"uint8"},{"internalType":"uint256","name":"triggerPrice","type":"uint256"},{"internalType":"enum TriggerTypes.ActionType","name":"action","type":"uint8"},{"internalType":"uint256","name":"amount","type":"uint256"},{"internalType":"uint256","name":"slippageTolerance","type":"uint256"},{"internalType":"uint256","name":"expiration","type":"uint256"}],"name":"createTrigger","outputs":[],"stateMutability":"payable","type":"function"},{"inputs":[{"internalType":"address","name":"user","type":"address"}],"name":"delegations","outputs":[{"components":[{"internalType":"address","name":"validator","type":"address"},{"internalType":"uint64","name":"amount","type":"uint64"},{"internalType":"uint64","name":"lockedUntilTimestamp","type":"uint64"}],"internalType":"struct L1Read.Delegation[]","name":"","type":"tuple[]"}],"stateMutability":"view","type":"function"},{"inputs":[{"internalType":"address","name":"user","type":"address"}],"name":"delegatorSummary","outputs":[{"components":[{"internalType":"uint64","name":"delegated","type":"uint64"},{"internalType":"uint64","name":"undelegated","type":"uint64"},{"internalType":"uint64","name":"totalPendingWithdrawal","type":"uint64"},{"internalType":"uint64","name":"nPendingWithdrawals","type":"uint64"}],"internalType":"struct L1Read.DelegatorSummary","name":"","type":"tuple"}],"stateMutability":"view","type":"function"},{"inputs":[],"name":"emergencyWithdraw","outputs":[],"stateMutability":"nonpayable","type":"function"},{"inputs":[{"internalType":"uint256","name":"triggerId","type":"uint256"}],"name":"executeTrigger","outputs":[],"stateMutability":"nonpayable","type":"function"},{"inputs":[{"internalType":"uint256","name":"","type":"uint256"}],"name":"executionResults","outputs":[{"internalType":"uint256","name":"triggerId","type":"uint256"},{"internalType":"uint256","name":"executionPrice","type":"uint256"},{"internalType":"uint256","name":"amountIn","type":"uint256"},{"internalType":"uint256","name":"amountOut","type":"uint256"},{"internalType":"uint256","name":"slippageUsed","type":"uint256"},{"internalType":"uint256","name":"executorReward","type":"uint256"},{"internalType":"address","name":"executor","type":"address"},{"internalType":"uint256","name":"executedAt","type":"uint256"},{"internalType":"bool","name":"successful","type":"bool"},{"internalType":"string","name":"errorMessage","type":"string"}],"stateMutability":"view","type":"function"},{"inputs":[{"internalType":"uint32","name":"assetIndex","type":"uint32"}],"name":"getCurrentPrice","outputs":[{"internalType":"uint256","name":"","type":"uint256"}],"stateMutability":"view","type":"function"},{"inputs":[{"internalType":"uint256","name":"triggerId","type":"uint256"}],"name":"getExecutionResult","outputs":[{"components":[{"internalType":"uint256","name":"triggerId","type":"uint256"},{"internalType":"uint256","name":"executionPrice","type":"uint256"},{"internalType":"uint256","name":"amountIn","type":"uint256"},{"internalType":"uint256","name":"amountOut","type":"uint256"},{"internalType":"uint256","name":"slippageUsed","type":"uint256"},{"internalType":"uint256","name":"executorReward","type":"uint256"},{"internalType":"address","name":"executor","type":"address"},{"internalType":"uint256","name":"executedAt","type":"uint256"},{"internalType":"bool","name":"successful","type":"bool"},{"internalType":"string","name":"errorMessage","type":"string"}],"internalType":"struct TriggerTypes.ExecutionResult","name":"","type":"tuple"}],"stateMutability":"view","type":"function"},{"inputs":[{"internalType":"bytes32","name":"role","type":"bytes32"}],"name":"getRoleAdmin","outputs":[{"internalType":"bytes32","name":"","type":"bytes32"}],"stateMutability":"view","type":"function"},{"inputs":[{"internalType":"uint256","name":"triggerId","type":"uint256"}],"name":"getTrigger","outputs":[{"components":[{"internalType":"uint256","name":"id","type":"uint256"},{"internalType":"address","name":"user","type":"address"},{"internalType":"uint32","name":"baseAssetIndex","type":"uint32"},{"internalType":"uint32","name":"targetFromAssetIndex","type":"uint32"},{"internalType":"uint32","name":"targetToAssetIndex","type":"uint32"},{"internalType":"enum TriggerTypes.ComparisonOperator","name":"operator","type":"uint8"},{"internalType":"uint256","name":"triggerPrice","type":"uint256"},{"internalType":"enum TriggerTypes.ActionType","name":"action","type":"uint8"},{"internalType":"uint256","name":"amount","type":"uint256"},{"internalType":"uint256","name":"slippageTolerance","type":"uint256"},{"internalType":"uint256","name":"expiration","type":"uint256"},{"internalType":"uint256","name":"executionReward","type":"uint256"},{"internalType":"enum TriggerTypes.TriggerStatus","name":"status","type":"uint8"},{"internalType":"uint256","name":"createdAt","type":"uint256"},{"internalType":"uint256","name":"executedAt","type":"uint256"},{"internalType":"address","name":"executor","type":"address"}],"internalType":"struct TriggerTypes.Trigger","name":"","type":"tuple"}],"stateMutability":"view","type":"function"},{"inputs":[{"internalType":"address","name":"user","type":"address"}],"name":"getUserTriggers","outputs":[{"internalType":"uint256[]","name":"","type":"uint256[]"}],"stateMutability":"view","type":"function"},{"inputs":[{"internalType":"address","name":"executor","type":"address"}],"name":"grantExecutorRole","outputs":[],"stateMutability":"nonpayable","type":"function"},{"inputs":[{"internalType":"bytes32","name":"role","type":"bytes32"},{"internalType":"address","name":"account","type":"address"}],"name":"grantRole","outputs":[],"stateMutability":"nonpayable","type":"function"},{"inputs":[{"internalType":"bytes32","name":"role","type":"bytes32"},{"internalType":"address","name":"account","type":"address"}],"name":"hasRole","outputs":[{"internalType":"bool","name":"","type":"bool"}],"stateMutability":"view","type":"function"},{"inputs":[{"internalType":"address","name":"admin","type":"address"},{"internalType":"uint256","name":"_minExecutionReward","type":"uint256"},{"internalType":"uint256","name":"_maxSlippageBps","type":"uint256"},{"internalType":"uint256","name":"_maxTriggerDuration","type":"uint256"}],"name":"initialize","outputs":[],"stateMutability":"nonpayable","type":"function"},{"inputs":[],"name":"l1BlockNumber","outputs":[{"internalType":"uint64","name":"","type":"uint64"}],"stateMutability":"view","type":"function"},{"inputs":[{"internalType":"uint32","name":"","type":"uint32"}],"name":"latestPrices","outputs":[{"internalType":"uint256","name":"price","type":"uint256"},{"internalType":"uint256","name":"timestamp","type":"uint256"},{"internalType":"uint32","name":"assetIndex","type":"uint32"},{"internalType":"uint8","name":"confidence","type":"uint8"},{"internalType":"string","name":"source","type":"string"}],"stateMutability":"view","type":"function"},{"inputs":[{"internalType":"uint32","name":"index","type":"uint32"}],"name":"markPx","outputs":[{"internalType":"uint64","name":"","type":"uint64"}],"stateMutability":"view","type":"function"},{"inputs":[],"name":"nextTriggerId","outputs":[{"internalType":"uint256","name":"","type":"uint256"}],"stateMutability":"view","type":"function"},{"inputs":[{"internalType":"uint32","name":"index","type":"uint32"}],"name":"oraclePx","outputs":[{"internalType":"uint64","name":"","type":"uint64"}],"stateMutability":"view","type":"function"},{"inputs":[],"name":"pause","outputs":[],"stateMutability":"nonpayable","type":"function"},{"inputs":[],"name":"paused","outputs":[{"internalType":"bool","name":"","type":"bool"}],"stateMutability":"view","type":"function"},{"inputs":[{"internalType":"uint32","name":"perp","type":"uint32"}],"name":"perpAssetInfo","outputs":[{"components":[{"internalType":"string","name":"coin","type":"string"},{"internalType":"uint32","name":"marginTableId","type":"uint32"},{"internalType":"uint8","name":"szDecimals","type":"uint8"},{"internalType":"uint8","name":"maxLeverage","type":"uint8"},{"internalType":"bool","name":"onlyIsolated","type":"bool"}],"internalType":"struct L1Read.PerpAssetInfo","name":"","type":"tuple"}],"stateMutability":"view","type":"function"},{"inputs":[{"internalType":"address","name":"user","type":"address"},{"internalType":"uint16","name":"perp","type":"uint16"}],"name":"position","outputs":[{"components":[{"internalType":"int64","name":"szi","type":"int64"},{"internalType":"uint64","name":"entryNtl","type":"uint64"},{"internalType":"int64","name":"isolatedRawUsd","type":"int64"},{"internalType":"uint32","name":"leverage","type":"uint32"},{"internalType":"bool","name":"isIsolated","type":"bool"}],"internalType":"struct L1Read.Position","name":"","type":"tuple"}],"stateMutability":"view","type":"function"},{"inputs":[{"internalType":"bytes32","name":"role","type":"bytes32"},{"internalType":"address","name":"callerConfirmation","type":"address"}],"name":"renounceRole","outputs":[],"stateMutability":"nonpayable","type":"function"},{"inputs":[{"internalType":"address","name":"executor","type":"address"}],"name":"revokeExecutorRole","outputs":[],"stateMutability":"nonpayable","type":"function"},{"inputs":[{"internalType":"bytes32","name":"role","type":"bytes32"},{"internalType":"address","name":"account","type":"address"}],"name":"revokeRole","outputs":[],"stateMutability":"nonpayable","type":"function"},{"inputs":[{"internalType":"address","name":"user","type":"address"},{"internalType":"uint64","name":"token","type":"uint64"}],"name":"spotBalance","outputs":[{"components":[{"internalType":"uint64","name":"total","type":"uint64"},{"internalType":"uint64","name":"hold","type":"uint64"},{"internalType":"uint64","name":"entryNtl","type":"uint64"}],"internalType":"struct L1Read.SpotBalance","name":"","type":"tuple"}],"stateMutability":"view","type":"function"},{"inputs":[{"internalType":"uint32","name":"spot","type":"uint32"}],"name":"spotInfo","outputs":[{"components":[{"internalType":"string","name":"name","type":"string"},{"internalType":"uint64[2]","name":"tokens","type":"uint64[2]"}],"internalType":"struct L1Read.SpotInfo","name":"","type":"tuple"}],"stateMutability":"view","type":"function"},{"inputs":[{"internalType":"uint32","name":"index","type":"uint32"}],"name":"spotPx","outputs":[{"internalType":"uint64","name":"","type":"uint64"}],"stateMutability":"view","type":"function"},{"inputs":[{"internalType":"uint32","name":"","type":"uint32"}],"name":"supportedAssets","outputs":[{"internalType":"uint32","name":"index","type":"uint32"},{"internalType":"string","name":"symbol","type":"string"},{"internalType":"address","name":"tokenContract","type":"address"},{"internalType":"address","name":"systemAddress","type":"address"},{"internalType":"uint8","name":"decimals","type":"uint8"},{"internalType":"bool","name":"isActive","type":"bool"},{"internalType":"uint256","name":"minTradeAmount","type":"uint256"},{"internalType":"uint256","name":"maxTradeAmount","type":"uint256"}],"stateMutability":"view","type":"function"},{"inputs":[{"internalType":"bytes4","name":"interfaceId","type":"bytes4"}],"name":"supportsInterface","outputs":[{"internalType":"bool","name":"","type":"bool"}],"stateMutability":"view","type":"function"},{"inputs":[{"internalType":"uint32","name":"token","type":"uint32"}],"name":"tokenInfo","outputs":[{"components":[{"internalType":"string","name":"name","type":"string"},{"internalType":"uint64[]","name":"spots","type":"uint64[]"},{"internalType":"uint64","name":"deployerTradingFeeShare","type":"uint64"},{"internalType":"address","name":"deployer","type":"address"},{"internalType":"address","name":"evmContract","type":"address"},{"internalType":"uint8","name":"szDecimals","type":"uint8"},{"internalType":"uint8","name":"weiDecimals","type":"uint8"},{"internalType":"int8","name":"evmExtraWeiDecimals","type":"int8"}],"internalType":"struct L1Read.TokenInfo","name":"","type":"tuple"}],"stateMutability":"view","type":"function"},{"inputs":[],"name":"totalActiveTriggers","outputs":[{"internalType":"uint256","name":"","type":"uint256"}],"stateMutability":"view","type":"function"},{"inputs":[{"internalType":"uint256","name":"","type":"uint256"}],"name":"triggers","outputs":[{"internalType":"uint256","name":"id","type":"uint256"},{"internalType":"address","name":"user","type":"address"},{"internalType":"uint32","name":"baseAssetIndex","type":"uint32"},{"internalType":"uint32","name":"targetFromAssetIndex","type":"uint32"},{"internalType":"uint32","name":"targetToAssetIndex","type":"uint32"},{"internalType":"enum TriggerTypes.ComparisonOperator","name":"operator","type":"uint8"},{"internalType":"uint256","name":"triggerPrice","type":"uint256"},{"internalType":"enum TriggerTypes.ActionType","name":"action","type":"uint8"},{"internalType":"uint256","name":"amount","type":"uint256"},{"internalType":"uint256","name":"slippageTolerance","type":"uint256"},{"internalType":"uint256","name":"expiration","type":"uint256"},{"internalType":"uint256","name":"executionReward","type":"uint256"},{"internalType":"enum TriggerTypes.TriggerStatus","name":"status","type":"uint8"},{"internalType":"uint256","name":"createdAt","type":"uint256"},{"internalType":"uint256","name":"executedAt","type":"uint256"},{"internalType":"address","name":"executor","type":"address"}],"stateMutability":"view","type":"function"},{"inputs":[],"name":"unpause","outputs":[],"stateMutability":"nonpayable","type":"function"},{"inputs":[{"components":[{"internalType":"uint256","name":"minExecutionReward","type":"uint256"},{"internalType":"uint256","name":"maxSlippageBps","type":"uint256"},{"internalType":"uint256","name":"maxTriggerDuration","type":"uint256"},{"internalType":"uint256","name":"priceValidityPeriod","type":"uint256"},{"internalType":"uint256","name":"executionDelay","type":"uint256"},{"internalType":"bool","name":"paused","type":"bool"}],"internalType":"struct TriggerTypes.TriggerConfig","name":"newConfig","type":"tuple"}],"name":"updateConfig","outputs":[],"stateMutability":"nonpayable","type":"function"},{"inputs":[{"internalType":"address","name":"","type":"address"},{"internalType":"uint256","name":"","type":"uint256"}],"name":"userTriggers","outputs":[{"internalType":"uint256","name":"","type":"uint256"}],"stateMutability":"view","type":"function"},{"inputs":[{"internalType":"address","name":"user","type":"address"},{"internalType":"address","name":"vault","type":"address"}],"name":"userVaultEquity","outputs":[{"components":[{"internalType":"uint64","name":"equity","type":"uint64"},{"internalType":"uint64","name":"lockedUntilTimestamp","type":"uint64"}],"internalType":"struct L1Read.UserVaultEquity","name":"","type":"tuple"}],"stateMutability":"view","type":"function"},{"inputs":[{"internalType":"address","name":"user","type":"address"}],"name":"withdrawable","outputs":[{"components":[{"internalType":"uint64","name":"withdrawable","type":"uint64"}],"internalType":"struct L1Read.Withdrawable","name":"","type":"tuple"}],"stateMutability":"view","type":"function"},{"stateMutability":"payable","type":"receive"}],"evm":{"bytecode":{"linkReferences":{},"object":"60808060405234620000bd577ff0c57e16840df040f15088dc2f81fe391c3923bec73e23a9662efc9c229c6a009081549060ff8260401c16620000ae57506001600160401b036002600160401b03198282160162000068575b6040516149fc9081620000c38239f35b6001600160401b031990911681179091556040519081527fc7f505b2f371ae2175ee4913f4499e1f2633a7b5936321eed1cdaeb6115181d290602090a138808062000058565b63f92ee8a960e01b8152600490fd5b600080fdfe608080604052600436101561001d575b50361561001b57600080fd5b005b60003560e01c90816301ffc9a7146130415750806307bd02651461301857806310f5884414612fd0578063248a9ca314612f94578063298c900514612eed5780632f2ff15d14612ea15780632f7b741114612e2057806336568abe14612dd957806337f980a514612c8a5780633ea0fb3e14612c5f5780633f4ba83a14612be8578063400dfc1414612a735780634162cd3214612949578063420b7dae1461289a57806342227fa41461287c57806349a396b9146128535780634ec81af11461266b578063567c39bc146125bf5780635c975abb1461258f57806368fb1109146122af57806371876a161461220157806379502c55146121b457806380a4d4141461218b5780638285e31414611bb25780638456cb5914611b4b57806389cf7c89146119ca578063907027591461192157806391d14854146118c75780639c50472b14611664578063a217fddf14611648578063a3498325146115f0578063a4b32de8146115b5578063a69610d114611474578063a78dd42e14611363578063b6dff0b5146111b5578063b95c443814610e2c578063bffe348614610c54578063c0f0f5ef14610bab578063c8ccca2314610b2b578063c8eec8c614610a71578063ce513b6f14610988578063d168b1f31461095c578063d45ddd9c14610812578063d547741f146107c6578063d9586c55146107a8578063db2e21bc14610731578063e63ab1e9146106f6578063ee1b5af1146105dc5763fdb3042b14610245573861000f565b346105b95760e03660031901126105b95761025e6130c0565b6024356001600160401b0381116105b95761027d90369060040161334c565b60443591906001600160a01b03831683036105b957606435936001600160a01b03851685036105b9576084359460ff86168096036105b9573360009081527f5bc841a6d925a620866922bada36d16da3dcc9d52290519ea1126e5ca237213960205260409020547fb1fadd3142ab2ad7f1337ea4d97112bcc8337fc11ce5b20cb04ad038adf998199060ff16156105be57506040519561031c876131a7565b63ffffffff8316875261032e846138ac565b61033b6040519182613230565b84815236858701116105b95784866020830137600060208683010152602088015260018060a01b038616604088015260018060a01b03821660608801526080870152600160a087015260a43560c087015260c43560e087015263ffffffff82166000526002602052604060002063ffffffff87511663ffffffff1982541617815560208701519687516001600160401b0381116105a3576103ec816103e3600186015461311b565b60018601613b98565b6020601f82116001146105055763ffffffff959493928260059360e0937f21450ad48cee45e4fcdf7ef7379ac76733f7fc271b70cf11c63812c866cdc65c9c9d6000926104fa575b50508160011b916000199060031b1c19161760018501555b6002840160018060a01b036040830151166001600160601b0360a01b8254161790556003840160018060a01b0360608301511681549060ff60a01b608085015160a01b169060ff60a81b60a0860151151560a81b169269ffffffffffffffffffff60b01b16171717905560c0810151600485015501519101556104dc6040519586956060875260608701916142c1565b6001600160a01b0397881660208601529616604084015216930390a2005b015190503880610434565b6001840160005260206000209960005b601f198416811061058b5750926001837f21450ad48cee45e4fcdf7ef7379ac76733f7fc271b70cf11c63812c866cdc65c9b9c60e09463ffffffff9a999897600597601f19811610610572575b505050811b01600185015561044c565b015160001960f88460031b161c19169055388080610562565b828201518c556001909b019a60209283019201610515565b634e487b7160e01b600052604160045260246000fd5b600080fd5b6044906040519063e2517d3f60e01b82523360048301526024820152fd5b346105b95760403660031901126105b9576105f56130aa565b600080610600613094565b6040519361060d856131fa565b82855282602080960152604051908582019260018060a01b0380921684521660408201526040815261063e816131df565b51906108025afa61064d6138c7565b90156106a6576040818051810103126105b95760409182519161066f836131fa565b816106898561067f8385016138f7565b93848752016138f7565b93019283528351926001600160401b038092168452511690820152f35b60405162461bcd60e51b815260048101839052602260248201527f5661756c7445717569747920707265636f6d70696c652063616c6c206661696c604482015261195960f21b6064820152608490fd5b346105b95760003660031901126105b95760206040517f65d7a28e3265b37a6474929f336521b332c1681b933f6cb9f3376673440d862a8152f35b346105b95760003660031901126105b95761074a6133c3565b600080808047335af161075b6138c7565b501561076357005b60405162461bcd60e51b815260206004820152601b60248201527f456d657267656e6379207769746864726177616c206661696c656400000000006044820152606490fd5b346105b95760003660031901126105b9576020600654604051908152f35b346105b95760403660031901126105b95761001b6004356107e5613094565b908060005260008051602061494783398151915260205261080d600160406000200154613459565b613829565b346105b95760203660031901126105b95760043561082e613af3565b8060005260006020526040600020906001820160018060a01b038082541633141580610923575b61091157600984019081549060ff821660058110156108fb576108e9577f14cadffc490573e62ee8aee2779226125d2ace0523ea2d904058b5d597f140019360209360026108ce9460ff19161790556108af600654613b8b565b6006556108bb866145d5565b5416946008600582015491015490613a88565b604051908152a360016000805160206149a783398151915255005b604051630bac08cf60e41b8152600490fd5b634e487b7160e01b600052602160045260246000fd5b604051631a27eac360e11b8152600490fd5b503360009081527fb7db2dd08fcb62d0c9e08c51941cae53c267786a0b75803fb7960902fc8ef97d602052604090205460ff1615610855565b346105b95760203660031901126105b957604061097a600435614769565b825191151582526020820152f35b346105b9576020806003193601126105b9576000806109a56130aa565b816040516109b281613215565b526040516001600160a01b03909116848201908152848252906109d4816131fa565b51906108035afa6109e36138c7565b9015610a205781818051810103126105b957610a0c8260405192610a0684613215565b016138f7565b8091526001600160401b0360405191168152f35b60405162461bcd60e51b815260048101839052602360248201527f576974686472617761626c6520707265636f6d70696c652063616c6c206661696044820152621b195960ea1b6064820152608490fd5b346105b9576020806003193601126105b957600080610a8e6130c0565b60405163ffffffff85820192168252848152610aa9816131fa565b51906108065afa610ab86138c7565b9015610ae65781818051810103126105b95781610ad591016138f7565b6001600160401b0360405191168152f35b60405162461bcd60e51b815260048101839052601d60248201527f4d61726b507820707265636f6d70696c652063616c6c206661696c65640000006044820152606490fd5b346105b95760203660031901126105b95763ffffffff80610b4a6130c0565b166000526004602052604060002090610ba782549160ff600185015494610b78600360028301549201613251565b92604051968796875260208701528116604086015260201c16606084015260a0608084015260a08301906130f6565b0390f35b346105b9576020806003193601126105b957600080610bc86130c0565b60405163ffffffff85820192168252848152610be3816131fa565b51906108075afa610bf26138c7565b9015610c0f5781818051810103126105b95781610ad591016138f7565b60405162461bcd60e51b815260048101839052601f60248201527f4f7261636c65507820707265636f6d70696c652063616c6c206661696c6564006044820152606490fd5b346105b9576020806003193601126105b957610c6e6130aa565b906000806040518381019060018060a01b038096168252848152610c91816131fa565b51906108045afa90610ca16138c7565b9115610ddd5781518201908082019381848403126105b957818401516001600160401b03948582116105b957019480603f870112156105b9578286015190610ce882613a0e565b94610cf66040519687613230565b828652848601908198604060608096028201019384116105b9576040909997969594989901915b838310610d7f57505050506040519482860193838752518094526040860194966000925b858410610d4e5787870388f35b8851805182168852808601518316888701526040908101518316908801529784019795820195600190930192610d41565b888684849c9b9798999a9c0301126105b957868591604051610da0816131df565b610da986613a25565b8152610db68387016138f7565b83820152610dc6604087016138f7565b604082015281520192019198969594939798610d1d565b6084906040519062461bcd60e51b82526004820152602260248201527f44656c65676174696f6e7320707265636f6d70696c652063616c6c206661696c604482015261195960f21b6064820152fd5b346105b95760803660031901126105b9576044351515604435036105b9576001600160401b036064358181116105b957610e6a90369060040161334c565b90610e73613379565b6004356000526000602052604060002091600360205260406000209360018060a01b03600c8501541633036111a35760ff60098501541660058110156108fb576001036108e9576024356003860155610edd604435600887019060ff801983541691151516179055565b81116105a357610efd81610ef4600987015461311b565b60098701613b98565b806000601f82116001146111355760009161112a575b508160011b906000198360031b1c19161760098501555b6044358061111f575b156110bf5750506005810154918260243510611070575b50600191500180548060e01c8060005260026020526096604060002091604051610f73816131a7565b63ffffffff8454168152610f8960018501613251565b602082015260e0600560018060a01b036002870154169586604085015260ff600382015460018060a01b0381166060870152818160a01c16608087015260a81c16151560a0850152600481015460c085015201549101521460001461105857505054600090819081908190602435906001600160a01b03165af161100b6138c7565b501561101357005b60405162461bcd60e51b815260206004820152601c60248201527f48595045207472616e7366657220746f2075736572206661696c6564000000006044820152606490fd5b61001b9250602435916001600160a01b031690614288565b6024358303928084116110a95761271080850294850414602435821417156110a9576110a06004916001956142ff565b91015582610f4a565b634e487b7160e01b600052601160045260246000fd5b919092506009600460ff198284015416179101556110de6004356145d5565b7fa9361b5742dda6b7308c708adb972d021848b94798ad169e3552349bd6a41fec604051602081528061111a33956004359560208401916142c1565b0390a3005b506024351515610f33565b905082013585610f13565b90506009850160005260206000209060005b601f198416811061118b575082601f19811610611171575b5050600181811b016009850155610f2a565b830135600019600384901b60f8161c19169055848061115f565b90916020600181928588013581550193019101611147565b60405163710c949760e01b8152600490fd5b346105b9576020806003193601126105b9576000806111d26130c0565b6040516111de816131fa565b6060815284604051916111f0836131fa565b6040368437015260405163ffffffff85820192168252848152611212816131fa565b519061080b5afa6112216138c7565b901561131e57805181018281019183818303126105b95783810151906001600160401b03918281116105b95760609101809303126105b95760405192611266846131fa565b848301518281116105b957818661127f9286010161390b565b845280605f840112156105b95760405192611299846131fa565b83608082019283116105b9576040879201905b838210611307575050905083019182526112d7604051938585525160608686015260808501906130f6565b915160009490604085015b600287106112f05785850386f35b8280600192868551168152019201960195906112e2565b828091611313846138f7565b8152019101906112ac565b60405162461bcd60e51b815260048101839052601f60248201527f53706f74496e666f20707265636f6d70696c652063616c6c206661696c6564006044820152606490fd5b346105b95760203660031901126105b95760043560005260006020526040600020805490600181015490600281015460ff166003820154600483015460ff1660058401546006850154600786015491600887015493600988015460ff1695600a89015497600b8a015499600160a01b6001900390600c0154169a6040519c8d528c600160a01b60019003821690602001528c63ffffffff808360a01c1660408301528260c01c16906060015260e01c60808d015260a08c01611424916132f7565b60c08b015260e08a0161143691613304565b610100890152610120880152610140870152610160860152610180850161145c91613311565b6101a08401526101c08301526101e082015261020090f35b346105b95760403660031901126105b95761148d6130aa565b602435906001600160401b03908183168093036105b95760008091604051946114b5866131df565b82865282604060209782898201520152604051908682019260018060a01b031683526040820152604081526114e9816131df565b51906108015afa906114f96138c7565b9115611565576060828051810103126105b95760405160609361151b826131df565b826115278286016138f7565b9485845260406115498861153c8385016138f7565b93868801948552016138f7565b9401938452816040519616865251169084015251166040820152f35b60405162461bcd60e51b815260048101849052602260248201527f53706f7442616c616e636520707265636f6d70696c652063616c6c206661696c604482015261195960f21b6064820152608490fd5b346105b95760003660031901126105b95760206040517fb1fadd3142ab2ad7f1337ea4d97112bcc8337fc11ce5b20cb04ad038adf998198152f35b346105b95760403660031901126105b9576116096130aa565b6001600160a01b03166000908152600160205260409020805460243591908210156105b95760209161163a9161331e565b90546040519160031b1c8152f35b346105b95760003660031901126105b957602060405160008152f35b346105b95760203660031901126105b95760006101e0604051611686816131c3565b8281528260208201528260408201528260608201528260808201528260a08201528260c08201528260e08201528261010082015282610120820152826101408201528261016082015282610180820152826101a0820152826101c082015201526004356000526000602052610200604060002060405190611706826131c3565b80548252600181015460018060a01b038116602084015263ffffffff8160a01c16604084015263ffffffff8160c01c16606084015260e01c608083015261175760ff60028301541660a08401613aa4565b600381015460c083015261177560ff60048301541660e08401613ab0565b60058101546101008301526006810154610120830152600781015461014083015260088101546101608301526117b660ff6009830154166101808401613abc565b600a8101546101a0830152600b8101546101c0830152600c60018060a01b03910154166101e0820152604051908051825260018060a01b03602082015116602083015263ffffffff604082015116604083015263ffffffff606082015116606083015263ffffffff608082015116608083015261183b60a082015160a08401906132f7565b60c081015160c083015261185760e082015160e0840190613304565b61010081015161010083015261012081015161012083015261014081015161014083015261016081015161016083015261189b610180820151610180840190613311565b6101a081810151908301526101c080820151908301526101e0908101516001600160a01b031690820152f35b346105b95760403660031901126105b9576118e0613094565b60043560005260008051602061494783398151915260205260406000209060018060a01b0316600052602052602060ff604060002054166040519015158152f35b346105b9576020806003193601126105b95760008061193e6130c0565b60405163ffffffff85820192168252848152611959816131fa565b51906108085afa6119686138c7565b90156119855781818051810103126105b95781610ad591016138f7565b60405162461bcd60e51b815260048101839052601d60248201527f53706f74507820707265636f6d70696c652063616c6c206661696c65640000006044820152606490fd5b346105b95760403660031901126105b9576119e36130aa565b6024359061ffff82168092036105b9576000809160405193611a048561318c565b82855282608060209682888201528260408201528260608201520152604051908582019260018060a01b03168352604082015260408152611a44816131df565b51906108005afa90611a546138c7565b9115611b075760a0828051810103126105b95760a09163ffffffff60405191611a7c8361318c565b611a87848201613a39565b93848452611a97604083016138f7565b908085019182526001600160401b03611ab260608501613a39565b92604087019384526080611ad98a611acb838901613950565b9760608b019889520161396f565b97019687526040519760070b88525116908601525160070b6040850152511660608301525115156080820152f35b6064906040519062461bcd60e51b82526004820152601f60248201527f506f736974696f6e20707265636f6d70696c652063616c6c206661696c6564006044820152fd5b346105b95760003660031901126105b957611b646133fd565b611b6c613ac8565b600080516020614967833981519152600160ff198254161790557f62e78cea01bee320cd4e420270b5ea74000d11b0c9f74754ebdbfc544b05a2586020604051338152a1005b6101203660031901126105b957611bc76130c0565b60243563ffffffff811681036105b9576044359063ffffffff821682036105b957600460643510156105b957600260a43510156105b957611c06613af3565b611c0e613ac8565b608435158015612181575b61210d576008548060e43511612161575060075480341061214357506101043515158080612136575b61210d578061211f575b61210d5763ffffffff8316600052600260205260ff60036040600020015460a81c16156120ef5763ffffffff8116600052600260205260ff60036040600020015460a81c16156120d05763ffffffff8216600052600260205260ff60036040600020015460a81c16156120b25763ffffffff81166000526002602052604060002060405190611cda826131a7565b63ffffffff8154168252611cf060018201613251565b602083015260018060a01b03600282015416604083015260ff600382015460018060a01b0381166060850152818160a01c16608085015260a81c16151560a083015260056004820154918260c0850152015460e08301528060c43510612093575060e08101518060c435116120735750609663ffffffff831603612023575b5060055491611d7d83613a95565b600555604051611d8c816131c3565b83815233602082015263ffffffff8516604082015263ffffffff8316606082015263ffffffff82166080820152611dc860643560a08301613aa4565b60843560c0820152611ddf60a43560e08301613ab0565b60c43561010082015260e43561012082015261010435610140820152346101608201526000610180820152426101a082015260006101c082015260006101e082015283600052600060205260406000208151815560018060a01b0360208301511663ffffffff60a01b604084015160a01b1663ffffffff60c01b606085015160c01b169063ffffffff60e01b608086015160e01b1692171717600182015560a082015160048110156108fb57600282019060ff8019835416911617905560c082015160038201556004810160e083015160028110156108fb5760ff8019835416911617905561010082015160058201556101208201516006820155610140820151600782015561016082015160088201556101808201519060058210156108fb57600c91600982019060ff801983541691161790556101a0830151600a8201556101c0830151600b82015501906101e060018060a01b03910151166001600160601b0360a01b825416179055336000526001602052604060002091825490680100000000000000008210156105a357611f848263ffffffff956001879501815561331e565b81549060031b9087821b91600019901b1916179055611fa4600654613a95565b6006558160405196168652166020850152166040830152611fca606083016064356132f7565b6084356080830152611fe160a0830160a435613304565b60c43560c08301527f51148c3ed165fa5aa2433a939bcb17080564a5be82039fb458d07e372e458c6560e03393a360016000805160206149a783398151915255005b60409081015190516323b872dd60e01b602082015233602482015230604482015260c435606480830191909152815261206d916001600160a01b03166120688261318c565b613b23565b83611d6f565b60449060405190637f16270360e01b825260c43560048301526024820152fd5b60449060405190625a5b2760e31b825260c43560048301526024820152fd5b6040516354efd23160e11b815263ffffffff83166004820152602490fd5b6040516354efd23160e11b815263ffffffff9091166004820152602490fd5b6040516354efd23160e11b815263ffffffff84166004820152602490fd5b604051638904d97b60e01b8152600490fd5b5061212c60095442613a88565b6101043511611c4c565b5042610104351115611c42565b604490604051906317eebadb60e31b82523460048301526024820152fd5b60449060405190633b5d56ed60e11b825260e43560048301526024820152fd5b5060c43515611c19565b346105b95760203660031901126105b95761001b6121a76130aa565b6121af6133c3565b613674565b346105b95760003660031901126105b95760c0600754600854600954600a54600b549160ff600c5416936040519586526020860152604085015260608401526080830152151560a0820152f35b346105b9576020806003193601126105b9576001600160a01b036122236130aa565b1660005260019081815260406000209160405191828185549182815201908195600052826000209060005b81811061229c5750505083612264910384613230565b60405192818401908285525180915260408401949160005b8281106122895785870386f35b835187529581019592810192840161227c565b825484529284019291850191850161224e565b346105b95760203660031901126105b9576000806122cb6130c0565b8160e06040516122da816131a7565b60608152606060208201528260408201528260608201528260808201528260a08201528260c0820152015260405163ffffffff602082019216825260208152612322816131fa565b519061080c5afa6123316138c7565b901561254b578051810160208101916020818303126105b95760208101516001600160401b0381116105b9576101009101809203126105b95760405191612377836131a7565b60208201516001600160401b0381116105b9578160206123999285010161390b565b835260408201516001600160401b0381116105b95782019080603f830112156105b95760208201516123ca81613a0e565b926123d86040519485613230565b8184526040602085019260051b8201019283116105b957604001905b82821061253357505050602083015261240f606082016138f7565b604083015261242060808201613a25565b606083015261243160a08201613a25565b608083015261244260c08201613961565b60a083015261010061245660e08301613961565b9160c0840192835201518060000b81036105b95760e0830152604051906020825261248f835161010060208501526101208401906130f6565b602084810151848303601f190160408601528051808452928201939291019060005b818110612514575050508360ff60e0926001600160401b0360408798015116606087015260018060a01b0380606085015116608088015260808401511660a08701528160a08401511660c0870152511682850152015160000b6101008301520390f35b82516001600160401b03168552602094850194909201916001016124b1565b60208091612540846138f7565b8152019101906123f4565b606460405162461bcd60e51b815260206004820152602060248201527f546f6b656e496e666f20707265636f6d70696c652063616c6c206661696c65646044820152fd5b346105b95760003660031901126105b957602060ff60008051602061496783398151915254166040519015158152f35b346105b95760203660031901126105b95763ffffffff806125de6130c0565b1660005260026020526040600020908154166125fc60018301613251565b9160018060a01b03806002830154169160ff6003820154600560048401549301549361263a60405198899889526101008060208b01528901906130f6565b95604088015281166060870152818160a01c16608087015260a81c16151560a085015260c084015260e08301520390f35b346105b95760803660031901126105b9576126846130aa565b60243590604435906064357ff0c57e16840df040f15088dc2f81fe391c3923bec73e23a9662efc9c229c6a009384549360ff8560401c1615946001600160401b03948582168015908161284b575b6001149081612841575b159081612838575b506128265767ffffffffffffffff19821660011788556127509187612807575b5061270d613a47565b612715613a47565b61271d613a47565b60016000805160206149a783398151915255612737613a47565b6127408161348c565b5061274a8161351a565b506135ca565b506107d090818111156127ff5750905b6040519360c08501908111858210176105a357604052808452816020850152826040850152600060a061012c95866060820152601e60808201520152600755600855600955600a55601e600b5560ff19600c5416600c5560016005556127c257005b68ff00000000000000001981541690557fc7f505b2f371ae2175ee4913f4499e1f2633a7b5936321eed1cdaeb6115181d2602060405160018152a1005b905090612760565b68ffffffffffffffffff19166801000000000000000117885588612704565b60405163f92ee8a960e01b8152600490fd5b905015896126e4565b303b1591506126dc565b8891506126d2565b346105b95760203660031901126105b95761001b61286f6130aa565b6128776133c3565b613781565b346105b95760003660031901126105b9576020600554604051908152f35b346105b95760203660031901126105b957600435600052600360205260406000208054610ba760018301549260028101549060038101546004820154600583015460018060a01b0360068501541691600785015493612903600960ff6008890154169701613251565b966040519a8b9a8b5260208b015260408a01526060890152608088015260a087015260c086015260e08501521515610100840152610140806101208501528301906130f6565b346105b9576020806003193601126105b9576129636130c0565b600060806040516129738161318c565b60608152828582015282604082015282606082015201526000806040518481019063ffffffff80951682528581526129aa816131fa565b519061080a5afa6129b96138c7565b9015612a22578083806129d19351830101910161397c565b9160806040519384938385526129f2825160a08688015260c08701906130f6565b9382015116604085015260ff604082015116606085015260ff606082015116828501520151151560a08301520390f35b60405162461bcd60e51b8152600481018490526024808201527f506572704173736574496e666f20707265636f6d70696c652063616c6c2066616044820152631a5b195960e21b6064820152608490fd5b346105b95760203660031901126105b9576060610120604051612a9581613170565b60008152600060208201526000604082015260008382015260006080820152600060a0820152600060c0820152600060e08201526000610100820152015260043560005260036020526101206040600020612b61600960405192612af884613170565b8054845260018101546020850152600281015460408501526003810154606085015260048101546080850152600581015460a085015260068101546001600160a01b031660c0850152600781015460e0850152600881015460ff16151561010085015201613251565b82820152610ba76040519283926020845280516020850152602081015160408501526040810151606085015260608101516080850152608081015160a085015260a081015160c085015260018060a01b0360c08201511660e085015260e08101516101008501526101008101511515828501520151610140808401526101608301906130f6565b346105b95760003660031901126105b957612c016133fd565b600080516020614967833981519152805460ff811615612c4d5760ff191690557f5db9ee0a495bf2e6ff9c91a7834c1ba4fdd244a5e8aa4e537bd38aeae4b073aa6020604051338152a1005b604051638dfc202b60e01b8152600490fd5b346105b95760203660031901126105b9576020612c82612c7d6130c0565b61431f565b604051908152f35b346105b9576020806003193601126105b957600080612ca76130aa565b816060604051612cb681613155565b828152828782015282604082015201526040518481019160018060a01b03168252848152612ce3816131fa565b51906108055afa90612cf36138c7565b9115612d84576080828051810103126105b957608091604051612d1581613155565b612d208383016138f7565b808252612d2f604084016138f7565b928483019384526060612d5587612d478385016138f7565b9360408701948552016138f7565b9301928352604051946001600160401b0380958180951688525116908601525116604084015251166060820152f35b6084906040519062461bcd60e51b82526004820152602860248201527f44656c656761746f727953756d6d61727920707265636f6d70696c652063616c6044820152671b0819985a5b195960c21b6064820152fd5b346105b95760403660031901126105b957612df2613094565b336001600160a01b03821603612e0e5761001b90600435613829565b60405163334bd91960e11b8152600490fd5b346105b95760c03660031901126105b957612e396133c3565b6024356107d0808211612e825750600435600755600855604435600955606435600a55608435600b5560a4358015158091036105b95760ff8019600c5416911617600c55600080f35b604051633b5d56ed60e11b815260048101929092526024820152604490fd5b346105b95760403660031901126105b95761001b600435612ec0613094565b9080600052600080516020614947833981519152602052612ee8600160406000200154613459565b61370c565b346105b95760003660031901126105b957600080604051818152612f1081613215565b6020815191016108095afa612f236138c7565b9015612f43576020818051810103126105b957610ad560208092016138f7565b60405162461bcd60e51b8152602060048201526024808201527f4c31426c6f636b4e756d62657220707265636f6d70696c652063616c6c2066616044820152631a5b195960e21b6064820152608490fd5b346105b95760203660031901126105b9576004356000526000805160206149478339815191526020526020600160406000200154604051908152f35b346105b95760203660031901126105b957612fe9613af3565b612ff1613ac8565b612ff9613379565b613004600435613bec565b60016000805160206149a783398151915255005b346105b95760003660031901126105b95760206040516000805160206149878339815191528152f35b346105b95760203660031901126105b9576004359063ffffffff60e01b82168092036105b957602091637965db0b60e01b8114908115613083575b5015158152f35b6301ffc9a760e01b1490508361307c565b602435906001600160a01b03821682036105b957565b600435906001600160a01b03821682036105b957565b6004359063ffffffff821682036105b957565b60005b8381106130e65750506000910152565b81810151838201526020016130d6565b9060209161310f815180928185528580860191016130d3565b601f01601f1916010190565b90600182811c9216801561314b575b602083101461313557565b634e487b7160e01b600052602260045260246000fd5b91607f169161312a565b608081019081106001600160401b038211176105a357604052565b61014081019081106001600160401b038211176105a357604052565b60a081019081106001600160401b038211176105a357604052565b61010081019081106001600160401b038211176105a357604052565b61020081019081106001600160401b038211176105a357604052565b606081019081106001600160401b038211176105a357604052565b604081019081106001600160401b038211176105a357604052565b602081019081106001600160401b038211176105a357604052565b90601f801991011681019081106001600160401b038211176105a357604052565b90604051918260008254926132658461311b565b9081845260019485811690816000146132d45750600114613291575b505061328f92500383613230565b565b9093915060005260209081600020936000915b8183106132bc57505061328f93508201013880613281565b855488840185015294850194879450918301916132a4565b91505061328f94506020925060ff191682840152151560051b8201013880613281565b9060048210156108fb5752565b9060028210156108fb5752565b9060058210156108fb5752565b80548210156133365760005260206000200190600090565b634e487b7160e01b600052603260045260246000fd5b9181601f840112156105b9578235916001600160401b0383116105b957602083818601950101116105b957565b3360009081527f52fce5e8a5d0d9e8d1ea29f4525e512e9c27bf92cae50374d497f918ab48f38260205260409020546000805160206149878339815191529060ff16156105be5750565b3360009081527fb7db2dd08fcb62d0c9e08c51941cae53c267786a0b75803fb7960902fc8ef97d602052604081205460ff16156105be5750565b3360009081527f75442b0a96088b5456bc4ed01394c96a4feec0f883c9494257d76b96ab1c9b6b60205260409020547f65d7a28e3265b37a6474929f336521b332c1681b933f6cb9f3376673440d862a9060ff16156105be5750565b8060005260008051602061494783398151915260205260406000203360005260205260ff60406000205416156105be5750565b6001600160a01b031660008181527fb7db2dd08fcb62d0c9e08c51941cae53c267786a0b75803fb7960902fc8ef97d60205260408120549091906000805160206149478339815191529060ff16613515578280526020526040822081835260205260408220600160ff1982541617905533916000805160206149278339815191528180a4600190565b505090565b6001600160a01b031660008181527f75442b0a96088b5456bc4ed01394c96a4feec0f883c9494257d76b96ab1c9b6b60205260408120549091907f65d7a28e3265b37a6474929f336521b332c1681b933f6cb9f3376673440d862a906000805160206149478339815191529060ff166135c4578184526020526040832082845260205260408320600160ff19825416179055600080516020614927833981519152339380a4600190565b50505090565b6001600160a01b031660008181527f5bc841a6d925a620866922bada36d16da3dcc9d52290519ea1126e5ca237213960205260408120549091907fb1fadd3142ab2ad7f1337ea4d97112bcc8337fc11ce5b20cb04ad038adf99819906000805160206149478339815191529060ff166135c4578184526020526040832082845260205260408320600160ff19825416179055600080516020614927833981519152339380a4600190565b6001600160a01b031660008181527f52fce5e8a5d0d9e8d1ea29f4525e512e9c27bf92cae50374d497f918ab48f3826020526040812054909190600080516020614987833981519152906000805160206149478339815191529060ff166135c4578184526020526040832082845260205260408320600160ff19825416179055600080516020614927833981519152339380a4600190565b9060009180835260008051602061494783398151915280602052604084209260018060a01b03169283855260205260ff604085205416156000146135c4578184526020526040832082845260205260408320600160ff19825416179055600080516020614927833981519152339380a4600190565b6001600160a01b031660008181527f52fce5e8a5d0d9e8d1ea29f4525e512e9c27bf92cae50374d497f918ab48f3826020526040812054909190600080516020614987833981519152906000805160206149478339815191529060ff16156135c457818452602052604083208284526020526040832060ff1981541690557ff6391f5c32d9c69d2a47ea670b442974b53935d1edc7fd64eb21e047a839171b339380a4600190565b9060009180835260008051602061494783398151915280602052604084209260018060a01b03169283855260205260ff6040852054166000146135c457818452602052604083208284526020526040832060ff1981541690557ff6391f5c32d9c69d2a47ea670b442974b53935d1edc7fd64eb21e047a839171b339380a4600190565b6001600160401b0381116105a357601f01601f191660200190565b3d156138f2573d906138d8826138ac565b916138e66040519384613230565b82523d6000602084013e565b606090565b51906001600160401b03821682036105b957565b81601f820112156105b9578051613921816138ac565b9261392f6040519485613230565b818452602082840101116105b95761394d91602080850191016130d3565b90565b519063ffffffff821682036105b957565b519060ff821682036105b957565b519081151582036105b957565b6020818303126105b95780516001600160401b03918282116105b957019160a0838203126105b957604051926139b18461318c565b80519283116105b9576139cb608092613a0694830161390b565b84526139d960208201613950565b60208501526139ea60408201613961565b60408501526139fb60608201613961565b60608501520161396f565b608082015290565b6001600160401b0381116105a35760051b60200190565b51906001600160a01b03821682036105b957565b51908160070b82036105b957565b60ff7ff0c57e16840df040f15088dc2f81fe391c3923bec73e23a9662efc9c229c6a005460401c1615613a7657565b604051631afcd79f60e31b8152600490fd5b919082018092116110a957565b60001981146110a95760010190565b60048210156108fb5752565b60028210156108fb5752565b60058210156108fb5752565b60ff6000805160206149678339815191525416613ae157565b60405163d93c066560e01b8152600490fd5b6000805160206149a78339815191526002815414613b115760029055565b604051633ee5aeb560e01b8152600490fd5b906000602091828151910182855af115613b7f576000513d613b7657506001600160a01b0381163b155b613b545750565b604051635274afe760e01b81526001600160a01b039091166004820152602490fd5b60011415613b4d565b6040513d6000823e3d90fd5b80156110a9576000190190565b90601f8111613ba657505050565b600091825260208220906020601f850160051c83019410613be2575b601f0160051c01915b828110613bd757505050565b818155600101613bcb565b9092508290613bc2565b90816000526000602052604060002091600983015460ff811660058110156108fb576108e9576007840154801515908161427e575b50614221575063ffffffff600184015460a01c1692613c3f8461431f565b9360405190613c4d8261318c565b85825242602083015280604083015260646060830152604051613c6f816131fa565b60098152686879706572636f726560b81b602082015260808301526000526004602052608060406000209180518355602081015160018401556002830163ffffffff60408301511681549064ff00000000606085015160201b169164ffffffffff19161717905501518051906001600160401b0382116105a357613d0382613cfa600386015461311b565b60038601613b98565b602090601f83116001146141b25760039291600091836141a7575b50508160011b9160001990841b1c1916179101555b613d4a600382015460ff6002840154169086614592565b1561416157613d60600a820154600b5490613a88565b421061411b5760098101805460ff1916600117905542600b820155600c810180546001600160a01b03191633179055600654613d9b90613b8b565b60065563ffffffff600182015460c01c1680600052600260205260406000209060405191613dc8836131a7565b63ffffffff8154168352613dde60018201613251565b6020840152609660018060a01b036002830154169283604086015260038301549460e0600560018060a01b0388169560ff6060850199888b52818160a01c16608087015260a81c16151560a0850152600481015460c0850152015491015214600014614106575050516005820154600091829182918291906001600160a01b03165af1613e696138c7565b50156140ca575b600881019060008080808554335af1613e876138c7565b5015614085576005015490549060405185815281602082015260006040820152826060820152837f136cd8a6d030e2a28f70392ca19118087e3a4ec0415f1d9b5490cac8ff40bc8b60803393a360405194613ee186613170565b83865260208601526040850152600060608501526000608085015260a08401523360c08401524260e08401526000610100840152604051613f2181613215565b60008152610120840152600052600360205261012060096040600020845181556020850151600182015560408501516002820155606085015160038201556080850151600482015560a085015160058201556006810160018060a01b0360c0870151166001600160601b0360a01b82541617905560e08501516007820155613fbf6101008601511515600883019060ff801983541691151516179055565b019201519182516001600160401b0381116105a357613fe881613fe2845461311b565b84613b98565b6020601f82116001146140225781929394600092614017575b50508160011b916000199060031b1c1916179055565b015190503880614001565b601f198216908360005260206000209160005b81811061406d57509583600195969710614054575b505050811b019055565b015160001960f88460031b161c1916905538808061404a565b9192602060018192868b015181550194019201614035565b60405162461bcd60e51b815260206004820152601e60248201527f4578656375746f7220726577617264207061796d656e74206661696c656400006044820152606490fd5b60405162461bcd60e51b815260206004820152601460248201527312165411481d1c985b9cd9995c8819985a5b195960621b6044820152606490fd5b6141169250600584015491614288565b613e70565b60405163f00364b160e01b815260206004820152601760248201527f457865637574696f6e2064656c6179206e6f74206d65740000000000000000006044820152606490fd5b60405163f00364b160e01b815260206004820152601960248201527f5472696767657220636f6e646974696f6e206e6f74206d6574000000000000006044820152606490fd5b015190503880613d1e565b906003840160005260206000209160005b601f19851681106142095750918391600193600395601f198116106141f1575b505050811b01910155613d33565b015160001983861b60f8161c191690553880806141e3565b919260206001819286850151815501940192016141c3565b60ff191660031760098401556006549192909161423d90613b8b565b600655614249826145d5565b600101546001600160a01b0316907ffea3846eaf7bc8be13a1daa73071e876b209d7ce474aae722775c3213f493438600080a3565b9050421138613c21565b60405163a9059cbb60e01b60208201526001600160a01b03909216602483015260448083019390935291815261328f9161206882613155565b908060209392818452848401376000828201840152601f01601f1916010190565b90670de0b6b3a7640000918281029281840414901517156110a957565b8115614309570490565b634e487b7160e01b600052601260045260246000fd5b60405163c0f0f5ef60e01b815263ffffffff82166004820181905291906020908181602481305afa60009181614483575b50614468575b50604051636477646360e11b8152600481018490528181602481305afa60009181614431575b50614416575b5060405192639070275960e01b845260048401528083602481305afa9283916000946143da575b50506143c2575b6040516380b781ff60e01b8152600490fd5b6001600160401b038216156143b05761394d916144ba565b8181959293953d831161440f575b6143f28183613230565b8101031261440c5750614404906138f7565b9138806143a9565b80fd5b503d6143e8565b6001600160401b0381161561438257905061394d92506144ba565b90918382813d8311614461575b6144488183613230565b8101031261440c575061445a906138f7565b903861437c565b503d61443e565b6001600160401b0381161561435657905061394d92506144ba565b90918382813d83116144b3575b61449a8183613230565b8101031261440c57506144ac906138f7565b9038614350565b503d614490565b6040516320b1669960e11b815263ffffffff9092166004830152906000908181602481305afa82918161456e575b506145075750506145036001600160401b03600a92166142e2565b0490565b604060ff9101511660060360ff811161455a5760ff1690604d82116145465750906145416001600160401b0361394d93600a0a92166142e2565b6142ff565b634e487b7160e01b81526011600452602490fd5b634e487b7160e01b82526011600452602482fd5b61458b9192503d8085833e6145838183613230565b81019061397c565b90386144e8565b909160048110156108fb57806145a757501190565b600181036145b457501090565b600281036145c25750101590565b6003146145d0575050600090565b111590565b600090815280602052604090818120600181018281548563ffffffff808360c01c16609681146000146146d15750508354600586015484935083925082916001600160a01b03165af16146266138c7565b501561469857828092600882935b54910154906001600160a01b03165af161464c6138c7565b50156146555750565b5162461bcd60e51b815260206004820152601e60248201527f457865637574696f6e2072657761726420726566756e64206661696c656400006044820152606490fd5b835162461bcd60e51b815260206004820152601260248201527112165411481c99599d5b990819985a5b195960721b6044820152606490fd5b8496936008938697936147649388526002602052818820908251906146f5826131a7565b825416815261470660018301613251565b602082015260e0600560018060a01b039384600282015416809685015260ff60038201548681166060870152818160a01c16608087015260a81c16151560a0850152600481015460c085015201549101526005870154921690614288565b614634565b90600091825260208281526040832090604051614785816131c3565b82548152600183015460018060a01b039384821684840152604083019063ffffffff92838160a01c168352838160c01c16606086015260e01c608085015260ff600282015416936147da60a082019586613aa4565b6101e060038301549760c083019889526147fe60ff60048601541660e08501613ab0565b6005840154610100840152600684015461012084015260078401546101408401526008840154610160840152600c60ff6009860154169461484461018086019687613abc565b600a8101546101a0860152600b8101546101c0860152015416910152516005811015614912576149095751604051631f507d9f60e11b815291166004820152918083602481305afa92839187946148d5575b50506148a3575050508190565b81925190519160048310156148c1576148be93949550614592565b91565b634e487b7160e01b86526021600452602486fd5b9080929450813d8311614902575b6148ed8183613230565b810103126148fe5751913880614896565b8580fd5b503d6148e3565b50505050508190565b634e487b7160e01b88526021600452602488fdfe2f8788117e7eff1d82e926ec794901d17c78024a50270940304540a733656f0d02dd7bc7dec4dceedda775e58dd541e08a116c6c53815c0bd028192f7b626800cd5ed15c6e187e77e9aee88184c21f4f2182ab5827cb3b7e07fbedcd63f03300d8aa0f3194971a2a116679f7c2090f6939c8d4e01a2a8d7e41d55e5351469e639b779b17422d0df92223018b32b4d1fa46e071723d6817e2486d003becc55f00a2646970667358221220906e10ea6b1d98d911a9a662681c99ad18ed6cc4f803b9088a1dc0ac43a3936464736f6c63430008140033","opcodes":"PUSH1 0x80 DUP1 PUSH1 0x40 MSTORE CALLVALUE PUSH3 0xBD JUMPI PUSH32 0xF0C57E16840DF040F15088DC2F81FE391C3923BEC73E23A9662EFC9C229C6A00 SWAP1 DUP2 SLOAD SWAP1 PUSH1 0xFF DUP3 PUSH1 0x40 SHR AND PUSH3 0xAE JUMPI POP PUSH1 0x1 PUSH1 0x1 PUSH1 0x40 SHL SUB PUSH1 0x2 PUSH1 0x1 PUSH1 0x40 SHL SUB NOT DUP3 DUP3 AND ADD PUSH3 0x68 JUMPI JUMPDEST PUSH1 0x40 MLOAD PUSH2 0x49FC SWAP1 DUP2 PUSH3 0xC3 DUP3 CODECOPY RETURN JUMPDEST PUSH1 0x1 PUSH1 0x1 PUSH1 0x40 SHL SUB NOT SWAP1 SWAP2 AND DUP2 OR SWAP1 SWAP2 SSTORE PUSH1 0x40 MLOAD SWAP1 DUP2 MSTORE PUSH32 0xC7F505B2F371AE2175EE4913F4499E1F2633A7B5936321EED1CDAEB6115181D2 SWAP1 PUSH1 0x20 SWAP1 LOG1 CODESIZE DUP1 DUP1 PUSH3 0x58 JUMP JUMPDEST PUSH4 0xF92EE8A9 PUSH1 0xE0 SHL DUP2 MSTORE PUSH1 0x4 SWAP1 REVERT JUMPDEST PUSH1 0x0 DUP1 REVERT INVALID PUSH1 0x80 DUP1 PUSH1 0x40 MSTORE PUSH1 0x4 CALLDATASIZE LT ISZERO PUSH2 0x1D JUMPI JUMPDEST POP CALLDATASIZE ISZERO PUSH2 0x1B JUMPI PUSH1 0x0 DUP1 REVERT JUMPDEST STOP JUMPDEST PUSH1 0x0 CALLDATALOAD PUSH1 0xE0 SHR SWAP1 DUP2 PUSH4 0x1FFC9A7 EQ PUSH2 0x3041 JUMPI POP DUP1 PUSH4 0x7BD0265 EQ PUSH2 0x3018 JUMPI DUP1 PUSH4 0x10F58844 EQ PUSH2 0x2FD0 JUMPI DUP1 PUSH4 0x248A9CA3 EQ PUSH2 0x2F94 JUMPI DUP1 PUSH4 0x298C9005 EQ PUSH2 0x2EED JUMPI DUP1 PUSH4 0x2F2FF15D EQ PUSH2 0x2EA1 JUMPI DUP1 PUSH4 0x2F7B7411 EQ PUSH2 0x2E20 JUMPI DUP1 PUSH4 0x36568ABE EQ PUSH2 0x2DD9 JUMPI DUP1 PUSH4 0x37F980A5 EQ PUSH2 0x2C8A JUMPI DUP1 PUSH4 0x3EA0FB3E EQ PUSH2 0x2C5F JUMPI DUP1 PUSH4 0x3F4BA83A EQ PUSH2 0x2BE8 JUMPI DUP1 PUSH4 0x400DFC14 EQ PUSH2 0x2A73 JUMPI DUP1 PUSH4 0x4162CD32 EQ PUSH2 0x2949 JUMPI DUP1 PUSH4 0x420B7DAE EQ PUSH2 0x289A JUMPI DUP1 PUSH4 0x42227FA4 EQ PUSH2 0x287C JUMPI DUP1 PUSH4 0x49A396B9 EQ PUSH2 0x2853 JUMPI DUP1 PUSH4 0x4EC81AF1 EQ PUSH2 0x266B JUMPI DUP1 PUSH4 0x567C39BC EQ PUSH2 0x25BF JUMPI DUP1 PUSH4 0x5C975ABB EQ PUSH2 0x258F JUMPI DUP1 PUSH4 0x68FB1109 EQ PUSH2 0x22AF JUMPI DUP1 PUSH4 0x71876A16 EQ PUSH2 0x2201 JUMPI DUP1 PUSH4 0x79502C55 EQ PUSH2 0x21B4 JUMPI DUP1 PUSH4 0x80A4D414 EQ PUSH2 0x218B JUMPI DUP1 PUSH4 0x8285E314 EQ PUSH2 0x1BB2 JUMPI DUP1 PUSH4 0x8456CB59 EQ PUSH2 0x1B4B JUMPI DUP1 PUSH4 0x89CF7C89 EQ PUSH2 0x19CA JUMPI DUP1 PUSH4 0x90702759 EQ PUSH2 0x1921 JUMPI DUP1 PUSH4 0x91D14854 EQ PUSH2 0x18C7 JUMPI DUP1 PUSH4 0x9C50472B EQ PUSH2 0x1664 JUMPI DUP1 PUSH4 0xA217FDDF EQ PUSH2 0x1648 JUMPI DUP1 PUSH4 0xA3498325 EQ PUSH2 0x15F0 JUMPI DUP1 PUSH4 0xA4B32DE8 EQ PUSH2 0x15B5 JUMPI DUP1 PUSH4 0xA69610D1 EQ PUSH2 0x1474 JUMPI DUP1 PUSH4 0xA78DD42E EQ PUSH2 0x1363 JUMPI DUP1 PUSH4 0xB6DFF0B5 EQ PUSH2 0x11B5 JUMPI DUP1 PUSH4 0xB95C4438 EQ PUSH2 0xE2C JUMPI DUP1 PUSH4 0xBFFE3486 EQ PUSH2 0xC54 JUMPI DUP1 PUSH4 0xC0F0F5EF EQ PUSH2 0xBAB JUMPI DUP1 PUSH4 0xC8CCCA23 EQ PUSH2 0xB2B JUMPI DUP1 PUSH4 0xC8EEC8C6 EQ PUSH2 0xA71 JUMPI DUP1 PUSH4 0xCE513B6F EQ PUSH2 0x988 JUMPI DUP1 PUSH4 0xD168B1F3 EQ PUSH2 0x95C JUMPI DUP1 PUSH4 0xD45DDD9C EQ PUSH2 0x812 JUMPI DUP1 PUSH4 0xD547741F EQ PUSH2 0x7C6 JUMPI DUP1 PUSH4 0xD9586C55 EQ PUSH2 0x7A8 JUMPI DUP1 PUSH4 0xDB2E21BC EQ PUSH2 0x731 JUMPI DUP1 PUSH4 0xE63AB1E9 EQ PUSH2 0x6F6 JUMPI DUP1 PUSH4 0xEE1B5AF1 EQ PUSH2 0x5DC JUMPI PUSH4 0xFDB3042B EQ PUSH2 0x245 JUMPI CODESIZE PUSH2 0xF JUMP JUMPDEST CALLVALUE PUSH2 0x5B9 JUMPI PUSH1 0xE0 CALLDATASIZE PUSH1 0x3 NOT ADD SLT PUSH2 0x5B9 JUMPI PUSH2 0x25E PUSH2 0x30C0 JUMP JUMPDEST PUSH1 0x24 CALLDATALOAD PUSH1 0x1 PUSH1 0x1 PUSH1 0x40 SHL SUB DUP2 GT PUSH2 0x5B9 JUMPI PUSH2 0x27D SWAP1 CALLDATASIZE SWAP1 PUSH1 0x4 ADD PUSH2 0x334C JUMP JUMPDEST PUSH1 0x44 CALLDATALOAD SWAP2 SWAP1 PUSH1 0x1 PUSH1 0x1 PUSH1 0xA0 SHL SUB DUP4 AND DUP4 SUB PUSH2 0x5B9 JUMPI PUSH1 0x64 CALLDATALOAD SWAP4 PUSH1 0x1 PUSH1 0x1 PUSH1 0xA0 SHL SUB DUP6 AND DUP6 SUB PUSH2 0x5B9 JUMPI PUSH1 0x84 CALLDATALOAD SWAP5 PUSH1 0xFF DUP7 AND DUP1 SWAP7 SUB PUSH2 0x5B9 JUMPI CALLER PUSH1 0x0 SWAP1 DUP2 MSTORE PUSH32 0x5BC841A6D925A620866922BADA36D16DA3DCC9D52290519EA1126E5CA2372139 PUSH1 0x20 MSTORE PUSH1 0x40 SWAP1 KECCAK256 SLOAD PUSH32 0xB1FADD3142AB2AD7F1337EA4D97112BCC8337FC11CE5B20CB04AD038ADF99819 SWAP1 PUSH1 0xFF AND ISZERO PUSH2 0x5BE JUMPI POP PUSH1 0x40 MLOAD SWAP6 PUSH2 0x31C DUP8 PUSH2 0x31A7 JUMP JUMPDEST PUSH4 0xFFFFFFFF DUP4 AND DUP8 MSTORE PUSH2 0x32E DUP5 PUSH2 0x38AC JUMP JUMPDEST PUSH2 0x33B PUSH1 0x40 MLOAD SWAP2 DUP3 PUSH2 0x3230 JUMP JUMPDEST DUP5 DUP2 MSTORE CALLDATASIZE DUP6 DUP8 ADD GT PUSH2 0x5B9 JUMPI DUP5 DUP7 PUSH1 0x20 DUP4 ADD CALLDATACOPY PUSH1 0x0 PUSH1 0x20 DUP7 DUP4 ADD ADD MSTORE PUSH1 0x20 DUP9 ADD MSTORE PUSH1 0x1 DUP1 PUSH1 0xA0 SHL SUB DUP7 AND PUSH1 0x40 DUP9 ADD MSTORE PUSH1 0x1 DUP1 PUSH1 0xA0 SHL SUB DUP3 AND PUSH1 0x60 DUP9 ADD MSTORE PUSH1 0x80 DUP8 ADD MSTORE PUSH1 0x1 PUSH1 0xA0 DUP8 ADD MSTORE PUSH1 0xA4 CALLDATALOAD PUSH1 0xC0 DUP8 ADD MSTORE PUSH1 0xC4 CALLDATALOAD PUSH1 0xE0 DUP8 ADD MSTORE PUSH4 0xFFFFFFFF DUP3 AND PUSH1 0x0 MSTORE PUSH1 0x2 PUSH1 0x20 MSTORE PUSH1 0x40 PUSH1 0x0 KECCAK256 PUSH4 0xFFFFFFFF DUP8 MLOAD AND PUSH4 0xFFFFFFFF NOT DUP3 SLOAD AND OR DUP2 SSTORE PUSH1 0x20 DUP8 ADD MLOAD SWAP7 DUP8 MLOAD PUSH1 0x1 PUSH1 0x1 PUSH1 0x40 SHL SUB DUP2 GT PUSH2 0x5A3 JUMPI PUSH2 0x3EC DUP2 PUSH2 0x3E3 PUSH1 0x1 DUP7 ADD SLOAD PUSH2 0x311B JUMP JUMPDEST PUSH1 0x1 DUP7 ADD PUSH2 0x3B98 JUMP JUMPDEST PUSH1 0x20 PUSH1 0x1F DUP3 GT PUSH1 0x1 EQ PUSH2 0x505 JUMPI PUSH4 0xFFFFFFFF SWAP6 SWAP5 SWAP4 SWAP3 DUP3 PUSH1 0x5 SWAP4 PUSH1 0xE0 SWAP4 PUSH32 0x21450AD48CEE45E4FCDF7EF7379AC76733F7FC271B70CF11C63812C866CDC65C SWAP13 SWAP14 PUSH1 0x0 SWAP3 PUSH2 0x4FA JUMPI JUMPDEST POP POP DUP2 PUSH1 0x1 SHL SWAP2 PUSH1 0x0 NOT SWAP1 PUSH1 0x3 SHL SHR NOT AND OR PUSH1 0x1 DUP6 ADD SSTORE JUMPDEST PUSH1 0x2 DUP5 ADD PUSH1 0x1 DUP1 PUSH1 0xA0 SHL SUB PUSH1 0x40 DUP4 ADD MLOAD AND PUSH1 0x1 PUSH1 0x1 PUSH1 0x60 SHL SUB PUSH1 0xA0 SHL DUP3 SLOAD AND OR SWAP1 SSTORE PUSH1 0x3 DUP5 ADD PUSH1 0x1 DUP1 PUSH1 0xA0 SHL SUB PUSH1 0x60 DUP4 ADD MLOAD AND DUP2 SLOAD SWAP1 PUSH1 0xFF PUSH1 0xA0 SHL PUSH1 0x80 DUP6 ADD MLOAD PUSH1 0xA0 SHL AND SWAP1 PUSH1 0xFF PUSH1 0xA8 SHL PUSH1 0xA0 DUP7 ADD MLOAD ISZERO ISZERO PUSH1 0xA8 SHL AND SWAP3 PUSH10 0xFFFFFFFFFFFFFFFFFFFF PUSH1 0xB0 SHL AND OR OR OR SWAP1 SSTORE PUSH1 0xC0 DUP2 ADD MLOAD PUSH1 0x4 DUP6 ADD SSTORE ADD MLOAD SWAP2 ADD SSTORE PUSH2 0x4DC PUSH1 0x40 MLOAD SWAP6 DUP7 SWAP6 PUSH1 0x60 DUP8 MSTORE PUSH1 0x60 DUP8 ADD SWAP2 PUSH2 0x42C1 JUMP JUMPDEST PUSH1 0x1 PUSH1 0x1 PUSH1 0xA0 SHL SUB SWAP8 DUP9 AND PUSH1 0x20 DUP7 ADD MSTORE SWAP7 AND PUSH1 0x40 DUP5 ADD MSTORE AND SWAP4 SUB SWAP1 LOG2 STOP JUMPDEST ADD MLOAD SWAP1 POP CODESIZE DUP1 PUSH2 0x434 JUMP JUMPDEST PUSH1 0x1 DUP5 ADD PUSH1 0x0 MSTORE PUSH1 0x20 PUSH1 0x0 KECCAK256 SWAP10 PUSH1 0x0 JUMPDEST PUSH1 0x1F NOT DUP5 AND DUP2 LT PUSH2 0x58B JUMPI POP SWAP3 PUSH1 0x1 DUP4 PUSH32 0x21450AD48CEE45E4FCDF7EF7379AC76733F7FC271B70CF11C63812C866CDC65C SWAP12 SWAP13 PUSH1 0xE0 SWAP5 PUSH4 0xFFFFFFFF SWAP11 SWAP10 SWAP9 SWAP8 PUSH1 0x5 SWAP8 PUSH1 0x1F NOT DUP2 AND LT PUSH2 0x572 JUMPI JUMPDEST POP POP POP DUP2 SHL ADD PUSH1 0x1 DUP6 ADD SSTORE PUSH2 0x44C JUMP JUMPDEST ADD MLOAD PUSH1 0x0 NOT PUSH1 0xF8 DUP5 PUSH1 0x3 SHL AND SHR NOT AND SWAP1 SSTORE CODESIZE DUP1 DUP1 PUSH2 0x562 JUMP JUMPDEST DUP3 DUP3 ADD MLOAD DUP13 SSTORE PUSH1 0x1 SWAP1 SWAP12 ADD SWAP11 PUSH1 0x20 SWAP3 DUP4 ADD SWAP3 ADD PUSH2 0x515 JUMP JUMPDEST PUSH4 0x4E487B71 PUSH1 0xE0 SHL PUSH1 0x0 MSTORE PUSH1 0x41 PUSH1 0x4 MSTORE PUSH1 0x24 PUSH1 0x0 REVERT JUMPDEST PUSH1 0x0 DUP1 REVERT JUMPDEST PUSH1 0x44 SWAP1 PUSH1 0x40 MLOAD SWAP1 PUSH4 0xE2517D3F PUSH1 0xE0 SHL DUP3 MSTORE CALLER PUSH1 0x4 DUP4 ADD MSTORE PUSH1 0x24 DUP3 ADD MSTORE REVERT JUMPDEST CALLVALUE PUSH2 0x5B9 JUMPI PUSH1 0x40 CALLDATASIZE PUSH1 0x3 NOT ADD SLT PUSH2 0x5B9 JUMPI PUSH2 0x5F5 PUSH2 0x30AA JUMP JUMPDEST PUSH1 0x0 DUP1 PUSH2 0x600 PUSH2 0x3094 JUMP JUMPDEST PUSH1 0x40 MLOAD SWAP4 PUSH2 0x60D DUP6 PUSH2 0x31FA JUMP JUMPDEST DUP3 DUP6 MSTORE DUP3 PUSH1 0x20 DUP1 SWAP7 ADD MSTORE PUSH1 0x40 MLOAD SWAP1 DUP6 DUP3 ADD SWAP3 PUSH1 0x1 DUP1 PUSH1 0xA0 SHL SUB DUP1 SWAP3 AND DUP5 MSTORE AND PUSH1 0x40 DUP3 ADD MSTORE PUSH1 0x40 DUP2 MSTORE PUSH2 0x63E DUP2 PUSH2 0x31DF JUMP JUMPDEST MLOAD SWAP1 PUSH2 0x802 GAS STATICCALL PUSH2 0x64D PUSH2 0x38C7 JUMP JUMPDEST SWAP1 ISZERO PUSH2 0x6A6 JUMPI PUSH1 0x40 DUP2 DUP1 MLOAD DUP2 ADD SUB SLT PUSH2 0x5B9 JUMPI PUSH1 0x40 SWAP2 DUP3 MLOAD SWAP2 PUSH2 0x66F DUP4 PUSH2 0x31FA JUMP JUMPDEST DUP2 PUSH2 0x689 DUP6 PUSH2 0x67F DUP4 DUP6 ADD PUSH2 0x38F7 JUMP JUMPDEST SWAP4 DUP5 DUP8 MSTORE ADD PUSH2 0x38F7 JUMP JUMPDEST SWAP4 ADD SWAP3 DUP4 MSTORE DUP4 MLOAD SWAP3 PUSH1 0x1 PUSH1 0x1 PUSH1 0x40 SHL SUB DUP1 SWAP3 AND DUP5 MSTORE MLOAD AND SWAP1 DUP3 ADD MSTORE RETURN JUMPDEST PUSH1 0x40 MLOAD PUSH3 0x461BCD PUSH1 0xE5 SHL DUP2 MSTORE PUSH1 0x4 DUP2 ADD DUP4 SWAP1 MSTORE PUSH1 0x22 PUSH1 0x24 DUP3 ADD MSTORE PUSH32 0x5661756C7445717569747920707265636F6D70696C652063616C6C206661696C PUSH1 0x44 DUP3 ADD MSTORE PUSH2 0x1959 PUSH1 0xF2 SHL PUSH1 0x64 DUP3 ADD MSTORE PUSH1 0x84 SWAP1 REVERT JUMPDEST CALLVALUE PUSH2 0x5B9 JUMPI PUSH1 0x0 CALLDATASIZE PUSH1 0x3 NOT ADD SLT PUSH2 0x5B9 JUMPI PUSH1 0x20 PUSH1 0x40 MLOAD PUSH32 0x65D7A28E3265B37A6474929F336521B332C1681B933F6CB9F3376673440D862A DUP2 MSTORE RETURN JUMPDEST CALLVALUE PUSH2 0x5B9 JUMPI PUSH1 0x0 CALLDATASIZE PUSH1 0x3 NOT ADD SLT PUSH2 0x5B9 JUMPI PUSH2 0x74A PUSH2 0x33C3 JUMP JUMPDEST PUSH1 0x0 DUP1 DUP1 DUP1 SELFBALANCE CALLER GAS CALL PUSH2 0x75B PUSH2 0x38C7 JUMP JUMPDEST POP ISZERO PUSH2 0x763 JUMPI STOP JUMPDEST PUSH1 0x40 MLOAD PUSH3 0x461BCD PUSH1 0xE5 SHL DUP2 MSTORE PUSH1 0x20 PUSH1 0x4 DUP3 ADD MSTORE PUSH1 0x1B PUSH1 0x24 DUP3 ADD MSTORE PUSH32 0x456D657267656E6379207769746864726177616C206661696C65640000000000 PUSH1 0x44 DUP3 ADD MSTORE PUSH1 0x64 SWAP1 REVERT JUMPDEST CALLVALUE PUSH2 0x5B9 JUMPI PUSH1 0x0 CALLDATASIZE PUSH1 0x3 NOT ADD SLT PUSH2 0x5B9 JUMPI PUSH1 0x20 PUSH1 0x6 SLOAD PUSH1 0x40 MLOAD SWAP1 DUP2 MSTORE RETURN JUMPDEST CALLVALUE PUSH2 0x5B9 JUMPI PUSH1 0x40 CALLDATASIZE PUSH1 0x3 NOT ADD SLT PUSH2 0x5B9 JUMPI PUSH2 0x1B PUSH1 0x4 CALLDATALOAD PUSH2 0x7E5 PUSH2 0x3094 JUMP JUMPDEST SWAP1 DUP1 PUSH1 0x0 MSTORE PUSH1 0x0 DUP1 MLOAD PUSH1 0x20 PUSH2 0x4947 DUP4 CODECOPY DUP2 MLOAD SWAP2 MSTORE PUSH1 0x20 MSTORE PUSH2 0x80D PUSH1 0x1 PUSH1 0x40 PUSH1 0x0 KECCAK256 ADD SLOAD PUSH2 0x3459 JUMP JUMPDEST PUSH2 0x3829 JUMP JUMPDEST CALLVALUE PUSH2 0x5B9 JUMPI PUSH1 0x20 CALLDATASIZE PUSH1 0x3 NOT ADD SLT PUSH2 0x5B9 JUMPI PUSH1 0x4 CALLDATALOAD PUSH2 0x82E PUSH2 0x3AF3 JUMP JUMPDEST DUP1 PUSH1 0x0 MSTORE PUSH1 0x0 PUSH1 0x20 MSTORE PUSH1 0x40 PUSH1 0x0 KECCAK256 SWAP1 PUSH1 0x1 DUP3 ADD PUSH1 0x1 DUP1 PUSH1 0xA0 SHL SUB DUP1 DUP3 SLOAD AND CALLER EQ ISZERO DUP1 PUSH2 0x923 JUMPI JUMPDEST PUSH2 0x911 JUMPI PUSH1 0x9 DUP5 ADD SWAP1 DUP2 SLOAD SWAP1 PUSH1 0xFF DUP3 AND PUSH1 0x5 DUP2 LT ISZERO PUSH2 0x8FB JUMPI PUSH2 0x8E9 JUMPI PUSH32 0x14CADFFC490573E62EE8AEE2779226125D2ACE0523EA2D904058B5D597F14001 SWAP4 PUSH1 0x20 SWAP4 PUSH1 0x2 PUSH2 0x8CE SWAP5 PUSH1 0xFF NOT AND OR SWAP1 SSTORE PUSH2 0x8AF PUSH1 0x6 SLOAD PUSH2 0x3B8B JUMP JUMPDEST PUSH1 0x6 SSTORE PUSH2 0x8BB DUP7 PUSH2 0x45D5 JUMP JUMPDEST SLOAD AND SWAP5 PUSH1 0x8 PUSH1 0x5 DUP3 ADD SLOAD SWAP2 ADD SLOAD SWAP1 PUSH2 0x3A88 JUMP JUMPDEST PUSH1 0x40 MLOAD SWAP1 DUP2 MSTORE LOG3 PUSH1 0x1 PUSH1 0x0 DUP1 MLOAD PUSH1 0x20 PUSH2 0x49A7 DUP4 CODECOPY DUP2 MLOAD SWAP2 MSTORE SSTORE STOP JUMPDEST PUSH1 0x40 MLOAD PUSH4 0xBAC08CF PUSH1 0xE4 SHL DUP2 MSTORE PUSH1 0x4 SWAP1 REVERT JUMPDEST PUSH4 0x4E487B71 PUSH1 0xE0 SHL PUSH1 0x0 MSTORE PUSH1 0x21 PUSH1 0x4 MSTORE PUSH1 0x24 PUSH1 0x0 REVERT JUMPDEST PUSH1 0x40 MLOAD PUSH4 0x1A27EAC3 PUSH1 0xE1 SHL DUP2 MSTORE PUSH1 0x4 SWAP1 REVERT JUMPDEST POP CALLER PUSH1 0x0 SWAP1 DUP2 MSTORE PUSH32 0xB7DB2DD08FCB62D0C9E08C51941CAE53C267786A0B75803FB7960902FC8EF97D PUSH1 0x20 MSTORE PUSH1 0x40 SWAP1 KECCAK256 SLOAD PUSH1 0xFF AND ISZERO PUSH2 0x855 JUMP JUMPDEST CALLVALUE PUSH2 0x5B9 JUMPI PUSH1 0x20 CALLDATASIZE PUSH1 0x3 NOT ADD SLT PUSH2 0x5B9 JUMPI PUSH1 0x40 PUSH2 0x97A PUSH1 0x4 CALLDATALOAD PUSH2 0x4769 JUMP JUMPDEST DUP3 MLOAD SWAP2 ISZERO ISZERO DUP3 MSTORE PUSH1 0x20 DUP3 ADD MSTORE RETURN JUMPDEST CALLVALUE PUSH2 0x5B9 JUMPI PUSH1 0x20 DUP1 PUSH1 0x3 NOT CALLDATASIZE ADD SLT PUSH2 0x5B9 JUMPI PUSH1 0x0 DUP1 PUSH2 0x9A5 PUSH2 0x30AA JUMP JUMPDEST DUP2 PUSH1 0x40 MLOAD PUSH2 0x9B2 DUP2 PUSH2 0x3215 JUMP JUMPDEST MSTORE PUSH1 0x40 MLOAD PUSH1 0x1 PUSH1 0x1 PUSH1 0xA0 SHL SUB SWAP1 SWAP2 AND DUP5 DUP3 ADD SWAP1 DUP2 MSTORE DUP5 DUP3 MSTORE SWAP1 PUSH2 0x9D4 DUP2 PUSH2 0x31FA JUMP JUMPDEST MLOAD SWAP1 PUSH2 0x803 GAS STATICCALL PUSH2 0x9E3 PUSH2 0x38C7 JUMP JUMPDEST SWAP1 ISZERO PUSH2 0xA20 JUMPI DUP2 DUP2 DUP1 MLOAD DUP2 ADD SUB SLT PUSH2 0x5B9 JUMPI PUSH2 0xA0C DUP3 PUSH1 0x40 MLOAD SWAP3 PUSH2 0xA06 DUP5 PUSH2 0x3215 JUMP JUMPDEST ADD PUSH2 0x38F7 JUMP JUMPDEST DUP1 SWAP2 MSTORE PUSH1 0x1 PUSH1 0x1 PUSH1 0x40 SHL SUB PUSH1 0x40 MLOAD SWAP2 AND DUP2 MSTORE RETURN JUMPDEST PUSH1 0x40 MLOAD PUSH3 0x461BCD PUSH1 0xE5 SHL DUP2 MSTORE PUSH1 0x4 DUP2 ADD DUP4 SWAP1 MSTORE PUSH1 0x23 PUSH1 0x24 DUP3 ADD MSTORE PUSH32 0x576974686472617761626C6520707265636F6D70696C652063616C6C20666169 PUSH1 0x44 DUP3 ADD MSTORE PUSH3 0x1B1959 PUSH1 0xEA SHL PUSH1 0x64 DUP3 ADD MSTORE PUSH1 0x84 SWAP1 REVERT JUMPDEST CALLVALUE PUSH2 0x5B9 JUMPI PUSH1 0x20 DUP1 PUSH1 0x3 NOT CALLDATASIZE ADD SLT PUSH2 0x5B9 JUMPI PUSH1 0x0 DUP1 PUSH2 0xA8E PUSH2 0x30C0 JUMP JUMPDEST PUSH1 0x40 MLOAD PUSH4 0xFFFFFFFF DUP6 DUP3 ADD SWAP3 AND DUP3 MSTORE DUP5 DUP2 MSTORE PUSH2 0xAA9 DUP2 PUSH2 0x31FA JUMP JUMPDEST MLOAD SWAP1 PUSH2 0x806 GAS STATICCALL PUSH2 0xAB8 PUSH2 0x38C7 JUMP JUMPDEST SWAP1 ISZERO PUSH2 0xAE6 JUMPI DUP2 DUP2 DUP1 MLOAD DUP2 ADD SUB SLT PUSH2 0x5B9 JUMPI DUP2 PUSH2 0xAD5 SWAP2 ADD PUSH2 0x38F7 JUMP JUMPDEST PUSH1 0x1 PUSH1 0x1 PUSH1 0x40 SHL SUB PUSH1 0x40 MLOAD SWAP2 AND DUP2 MSTORE RETURN JUMPDEST PUSH1 0x40 MLOAD PUSH3 0x461BCD PUSH1 0xE5 SHL DUP2 MSTORE PUSH1 0x4 DUP2 ADD DUP4 SWAP1 MSTORE PUSH1 0x1D PUSH1 0x24 DUP3 ADD MSTORE PUSH32 0x4D61726B507820707265636F6D70696C652063616C6C206661696C6564000000 PUSH1 0x44 DUP3 ADD MSTORE PUSH1 0x64 SWAP1 REVERT JUMPDEST CALLVALUE PUSH2 0x5B9 JUMPI PUSH1 0x20 CALLDATASIZE PUSH1 0x3 NOT ADD SLT PUSH2 0x5B9 JUMPI PUSH4 0xFFFFFFFF DUP1 PUSH2 0xB4A PUSH2 0x30C0 JUMP JUMPDEST AND PUSH1 0x0 MSTORE PUSH1 0x4 PUSH1 0x20 MSTORE PUSH1 0x40 PUSH1 0x0 KECCAK256 SWAP1 PUSH2 0xBA7 DUP3 SLOAD SWAP2 PUSH1 0xFF PUSH1 0x1 DUP6 ADD SLOAD SWAP5 PUSH2 0xB78 PUSH1 0x3 PUSH1 0x2 DUP4 ADD SLOAD SWAP3 ADD PUSH2 0x3251 JUMP JUMPDEST SWAP3 PUSH1 0x40 MLOAD SWAP7 DUP8 SWAP7 DUP8 MSTORE PUSH1 0x20 DUP8 ADD MSTORE DUP2 AND PUSH1 0x40 DUP7 ADD MSTORE PUSH1 0x20 SHR AND PUSH1 0x60 DUP5 ADD MSTORE PUSH1 0xA0 PUSH1 0x80 DUP5 ADD MSTORE PUSH1 0xA0 DUP4 ADD SWAP1 PUSH2 0x30F6 JUMP JUMPDEST SUB SWAP1 RETURN JUMPDEST CALLVALUE PUSH2 0x5B9 JUMPI PUSH1 0x20 DUP1 PUSH1 0x3 NOT CALLDATASIZE ADD SLT PUSH2 0x5B9 JUMPI PUSH1 0x0 DUP1 PUSH2 0xBC8 PUSH2 0x30C0 JUMP JUMPDEST PUSH1 0x40 MLOAD PUSH4 0xFFFFFFFF DUP6 DUP3 ADD SWAP3 AND DUP3 MSTORE DUP5 DUP2 MSTORE PUSH2 0xBE3 DUP2 PUSH2 0x31FA JUMP JUMPDEST MLOAD SWAP1 PUSH2 0x807 GAS STATICCALL PUSH2 0xBF2 PUSH2 0x38C7 JUMP JUMPDEST SWAP1 ISZERO PUSH2 0xC0F JUMPI DUP2 DUP2 DUP1 MLOAD DUP2 ADD SUB SLT PUSH2 0x5B9 JUMPI DUP2 PUSH2 0xAD5 SWAP2 ADD PUSH2 0x38F7 JUMP JUMPDEST PUSH1 0x40 MLOAD PUSH3 0x461BCD PUSH1 0xE5 SHL DUP2 MSTORE PUSH1 0x4 DUP2 ADD DUP4 SWAP1 MSTORE PUSH1 0x1F PUSH1 0x24 DUP3 ADD MSTORE PUSH32 0x4F7261636C65507820707265636F6D70696C652063616C6C206661696C656400 PUSH1 0x44 DUP3 ADD MSTORE PUSH1 0x64 SWAP1 REVERT JUMPDEST CALLVALUE PUSH2 0x5B9 JUMPI PUSH1 0x20 DUP1 PUSH1 0x3 NOT CALLDATASIZE ADD SLT PUSH2 0x5B9 JUMPI PUSH2 0xC6E PUSH2 0x30AA JUMP JUMPDEST SWAP1 PUSH1 0x0 DUP1 PUSH1 0x40 MLOAD DUP4 DUP2 ADD SWAP1 PUSH1 0x1 DUP1 PUSH1 0xA0 SHL SUB DUP1 SWAP7 AND DUP3 MSTORE DUP5 DUP2 MSTORE PUSH2 0xC91 DUP2 PUSH2 0x31FA JUMP JUMPDEST MLOAD SWAP1 PUSH2 0x804 GAS STATICCALL SWAP1 PUSH2 0xCA1 PUSH2 0x38C7 JUMP JUMPDEST SWAP2 ISZERO PUSH2 0xDDD JUMPI DUP2 MLOAD DUP3 ADD SWAP1 DUP1 DUP3 ADD SWAP4 DUP2 DUP5 DUP5 SUB SLT PUSH2 0x5B9 JUMPI DUP2 DUP5 ADD MLOAD PUSH1 0x1 PUSH1 0x1 PUSH1 0x40 SHL SUB SWAP5 DUP6 DUP3 GT PUSH2 0x5B9 JUMPI ADD SWAP5 DUP1 PUSH1 0x3F DUP8 ADD SLT ISZERO PUSH2 0x5B9 JUMPI DUP3 DUP7 ADD MLOAD SWAP1 PUSH2 0xCE8 DUP3 PUSH2 0x3A0E JUMP JUMPDEST SWAP5 PUSH2 0xCF6 PUSH1 0x40 MLOAD SWAP7 DUP8 PUSH2 0x3230 JUMP JUMPDEST DUP3 DUP7 MSTORE DUP5 DUP7 ADD SWAP1 DUP2 SWAP9 PUSH1 0x40 PUSH1 0x60 DUP1 SWAP7 MUL DUP3 ADD ADD SWAP4 DUP5 GT PUSH2 0x5B9 JUMPI PUSH1 0x40 SWAP1 SWAP10 SWAP8 SWAP7 SWAP6 SWAP5 SWAP9 SWAP10 ADD SWAP2 JUMPDEST DUP4 DUP4 LT PUSH2 0xD7F JUMPI POP POP POP POP PUSH1 0x40 MLOAD SWAP5 DUP3 DUP7 ADD SWAP4 DUP4 DUP8 MSTORE MLOAD DUP1 SWAP5 MSTORE PUSH1 0x40 DUP7 ADD SWAP5 SWAP7 PUSH1 0x0 SWAP3 JUMPDEST DUP6 DUP5 LT PUSH2 0xD4E JUMPI DUP8 DUP8 SUB DUP9 RETURN JUMPDEST DUP9 MLOAD DUP1 MLOAD DUP3 AND DUP9 MSTORE DUP1 DUP7 ADD MLOAD DUP4 AND DUP9 DUP8 ADD MSTORE PUSH1 0x40 SWAP1 DUP2 ADD MLOAD DUP4 AND SWAP1 DUP9 ADD MSTORE SWAP8 DUP5 ADD SWAP8 SWAP6 DUP3 ADD SWAP6 PUSH1 0x1 SWAP1 SWAP4 ADD SWAP3 PUSH2 0xD41 JUMP JUMPDEST DUP9 DUP7 DUP5 DUP5 SWAP13 SWAP12 SWAP8 SWAP9 SWAP10 SWAP11 SWAP13 SUB ADD SLT PUSH2 0x5B9 JUMPI DUP7 DUP6 SWAP2 PUSH1 0x40 MLOAD PUSH2 0xDA0 DUP2 PUSH2 0x31DF JUMP JUMPDEST PUSH2 0xDA9 DUP7 PUSH2 0x3A25 JUMP JUMPDEST DUP2 MSTORE PUSH2 0xDB6 DUP4 DUP8 ADD PUSH2 0x38F7 JUMP JUMPDEST DUP4 DUP3 ADD MSTORE PUSH2 0xDC6 PUSH1 0x40 DUP8 ADD PUSH2 0x38F7 JUMP JUMPDEST PUSH1 0x40 DUP3 ADD MSTORE DUP2 MSTORE ADD SWAP3 ADD SWAP2 SWAP9 SWAP7 SWAP6 SWAP5 SWAP4 SWAP8 SWAP9 PUSH2 0xD1D JUMP JUMPDEST PUSH1 0x84 SWAP1 PUSH1 0x40 MLOAD SWAP1 PUSH3 0x461BCD PUSH1 0xE5 SHL DUP3 MSTORE PUSH1 0x4 DUP3 ADD MSTORE PUSH1 0x22 PUSH1 0x24 DUP3 ADD MSTORE PUSH32 0x44656C65676174696F6E7320707265636F6D70696C652063616C6C206661696C PUSH1 0x44 DUP3 ADD MSTORE PUSH2 0x1959 PUSH1 0xF2 SHL PUSH1 0x64 DUP3 ADD MSTORE REVERT JUMPDEST CALLVALUE PUSH2 0x5B9 JUMPI PUSH1 0x80 CALLDATASIZE PUSH1 0x3 NOT ADD SLT PUSH2 0x5B9 JUMPI PUSH1 0x44 CALLDATALOAD ISZERO ISZERO PUSH1 0x44 CALLDATALOAD SUB PUSH2 0x5B9 JUMPI PUSH1 0x1 PUSH1 0x1 PUSH1 0x40 SHL SUB PUSH1 0x64 CALLDATALOAD DUP2 DUP2 GT PUSH2 0x5B9 JUMPI PUSH2 0xE6A SWAP1 CALLDATASIZE SWAP1 PUSH1 0x4 ADD PUSH2 0x334C JUMP JUMPDEST SWAP1 PUSH2 0xE73 PUSH2 0x3379 JUMP JUMPDEST PUSH1 0x4 CALLDATALOAD PUSH1 0x0 MSTORE PUSH1 0x0 PUSH1 0x20 MSTORE PUSH1 0x40 PUSH1 0x0 KECCAK256 SWAP2 PUSH1 0x3 PUSH1 0x20 MSTORE PUSH1 0x40 PUSH1 0x0 KECCAK256 SWAP4 PUSH1 0x1 DUP1 PUSH1 0xA0 SHL SUB PUSH1 0xC DUP6 ADD SLOAD AND CALLER SUB PUSH2 0x11A3 JUMPI PUSH1 0xFF PUSH1 0x9 DUP6 ADD SLOAD AND PUSH1 0x5 DUP2 LT ISZERO PUSH2 0x8FB JUMPI PUSH1 0x1 SUB PUSH2 0x8E9 JUMPI PUSH1 0x24 CALLDATALOAD PUSH1 0x3 DUP7 ADD SSTORE PUSH2 0xEDD PUSH1 0x44 CALLDATALOAD PUSH1 0x8 DUP8 ADD SWAP1 PUSH1 0xFF DUP1 NOT DUP4 SLOAD AND SWAP2 ISZERO ISZERO AND OR SWAP1 SSTORE JUMP JUMPDEST DUP2 GT PUSH2 0x5A3 JUMPI PUSH2 0xEFD DUP2 PUSH2 0xEF4 PUSH1 0x9 DUP8 ADD SLOAD PUSH2 0x311B JUMP JUMPDEST PUSH1 0x9 DUP8 ADD PUSH2 0x3B98 JUMP JUMPDEST DUP1 PUSH1 0x0 PUSH1 0x1F DUP3 GT PUSH1 0x1 EQ PUSH2 0x1135 JUMPI PUSH1 0x0 SWAP2 PUSH2 0x112A JUMPI JUMPDEST POP DUP2 PUSH1 0x1 SHL SWAP1 PUSH1 0x0 NOT DUP4 PUSH1 0x3 SHL SHR NOT AND OR PUSH1 0x9 DUP6 ADD SSTORE JUMPDEST PUSH1 0x44 CALLDATALOAD DUP1 PUSH2 0x111F JUMPI JUMPDEST ISZERO PUSH2 0x10BF JUMPI POP POP PUSH1 0x5 DUP2 ADD SLOAD SWAP2 DUP3 PUSH1 0x24 CALLDATALOAD LT PUSH2 0x1070 JUMPI JUMPDEST POP PUSH1 0x1 SWAP2 POP ADD DUP1 SLOAD DUP1 PUSH1 0xE0 SHR DUP1 PUSH1 0x0 MSTORE PUSH1 0x2 PUSH1 0x20 MSTORE PUSH1 0x96 PUSH1 0x40 PUSH1 0x0 KECCAK256 SWAP2 PUSH1 0x40 MLOAD PUSH2 0xF73 DUP2 PUSH2 0x31A7 JUMP JUMPDEST PUSH4 0xFFFFFFFF DUP5 SLOAD AND DUP2 MSTORE PUSH2 0xF89 PUSH1 0x1 DUP6 ADD PUSH2 0x3251 JUMP JUMPDEST PUSH1 0x20 DUP3 ADD MSTORE PUSH1 0xE0 PUSH1 0x5 PUSH1 0x1 DUP1 PUSH1 0xA0 SHL SUB PUSH1 0x2 DUP8 ADD SLOAD AND SWAP6 DUP7 PUSH1 0x40 DUP6 ADD MSTORE PUSH1 0xFF PUSH1 0x3 DUP3 ADD SLOAD PUSH1 0x1 DUP1 PUSH1 0xA0 SHL SUB DUP2 AND PUSH1 0x60 DUP8 ADD MSTORE DUP2 DUP2 PUSH1 0xA0 SHR AND PUSH1 0x80 DUP8 ADD MSTORE PUSH1 0xA8 SHR AND ISZERO ISZERO PUSH1 0xA0 DUP6 ADD MSTORE PUSH1 0x4 DUP2 ADD SLOAD PUSH1 0xC0 DUP6 ADD MSTORE ADD SLOAD SWAP2 ADD MSTORE EQ PUSH1 0x0 EQ PUSH2 0x1058 JUMPI POP POP SLOAD PUSH1 0x0 SWAP1 DUP2 SWAP1 DUP2 SWAP1 DUP2 SWAP1 PUSH1 0x24 CALLDATALOAD SWAP1 PUSH1 0x1 PUSH1 0x1 PUSH1 0xA0 SHL SUB AND GAS CALL PUSH2 0x100B PUSH2 0x38C7 JUMP JUMPDEST POP ISZERO PUSH2 0x1013 JUMPI STOP JUMPDEST PUSH1 0x40 MLOAD PUSH3 0x461BCD PUSH1 0xE5 SHL DUP2 MSTORE PUSH1 0x20 PUSH1 0x4 DUP3 ADD MSTORE PUSH1 0x1C PUSH1 0x24 DUP3 ADD MSTORE PUSH32 0x48595045207472616E7366657220746F2075736572206661696C656400000000 PUSH1 0x44 DUP3 ADD MSTORE PUSH1 0x64 SWAP1 REVERT JUMPDEST PUSH2 0x1B SWAP3 POP PUSH1 0x24 CALLDATALOAD SWAP2 PUSH1 0x1 PUSH1 0x1 PUSH1 0xA0 SHL SUB AND SWAP1 PUSH2 0x4288 JUMP JUMPDEST PUSH1 0x24 CALLDATALOAD DUP4 SUB SWAP3 DUP1 DUP5 GT PUSH2 0x10A9 JUMPI PUSH2 0x2710 DUP1 DUP6 MUL SWAP5 DUP6 DIV EQ PUSH1 0x24 CALLDATALOAD DUP3 EQ OR ISZERO PUSH2 0x10A9 JUMPI PUSH2 0x10A0 PUSH1 0x4 SWAP2 PUSH1 0x1 SWAP6 PUSH2 0x42FF JUMP JUMPDEST SWAP2 ADD SSTORE DUP3 PUSH2 0xF4A JUMP JUMPDEST PUSH4 0x4E487B71 PUSH1 0xE0 SHL PUSH1 0x0 MSTORE PUSH1 0x11 PUSH1 0x4 MSTORE PUSH1 0x24 PUSH1 0x0 REVERT JUMPDEST SWAP2 SWAP1 SWAP3 POP PUSH1 0x9 PUSH1 0x4 PUSH1 0xFF NOT DUP3 DUP5 ADD SLOAD AND OR SWAP2 ADD SSTORE PUSH2 0x10DE PUSH1 0x4 CALLDATALOAD PUSH2 0x45D5 JUMP JUMPDEST PUSH32 0xA9361B5742DDA6B7308C708ADB972D021848B94798AD169E3552349BD6A41FEC PUSH1 0x40 MLOAD PUSH1 0x20 DUP2 MSTORE DUP1 PUSH2 0x111A CALLER SWAP6 PUSH1 0x4 CALLDATALOAD SWAP6 PUSH1 0x20 DUP5 ADD SWAP2 PUSH2 0x42C1 JUMP JUMPDEST SUB SWAP1 LOG3 STOP JUMPDEST POP PUSH1 0x24 CALLDATALOAD ISZERO ISZERO PUSH2 0xF33 JUMP JUMPDEST SWAP1 POP DUP3 ADD CALLDATALOAD DUP6 PUSH2 0xF13 JUMP JUMPDEST SWAP1 POP PUSH1 0x9 DUP6 ADD PUSH1 0x0 MSTORE PUSH1 0x20 PUSH1 0x0 KECCAK256 SWAP1 PUSH1 0x0 JUMPDEST PUSH1 0x1F NOT DUP5 AND DUP2 LT PUSH2 0x118B JUMPI POP DUP3 PUSH1 0x1F NOT DUP2 AND LT PUSH2 0x1171 JUMPI JUMPDEST POP POP PUSH1 0x1 DUP2 DUP2 SHL ADD PUSH1 0x9 DUP6 ADD SSTORE PUSH2 0xF2A JUMP JUMPDEST DUP4 ADD CALLDATALOAD PUSH1 0x0 NOT PUSH1 0x3 DUP5 SWAP1 SHL PUSH1 0xF8 AND SHR NOT AND SWAP1 SSTORE DUP5 DUP1 PUSH2 0x115F JUMP JUMPDEST SWAP1 SWAP2 PUSH1 0x20 PUSH1 0x1 DUP2 SWAP3 DUP6 DUP9 ADD CALLDATALOAD DUP2 SSTORE ADD SWAP4 ADD SWAP2 ADD PUSH2 0x1147 JUMP JUMPDEST PUSH1 0x40 MLOAD PUSH4 0x710C9497 PUSH1 0xE0 SHL DUP2 MSTORE PUSH1 0x4 SWAP1 REVERT JUMPDEST CALLVALUE PUSH2 0x5B9 JUMPI PUSH1 0x20 DUP1 PUSH1 0x3 NOT CALLDATASIZE ADD SLT PUSH2 0x5B9 JUMPI PUSH1 0x0 DUP1 PUSH2 0x11D2 PUSH2 0x30C0 JUMP JUMPDEST PUSH1 0x40 MLOAD PUSH2 0x11DE DUP2 PUSH2 0x31FA JUMP JUMPDEST PUSH1 0x60 DUP2 MSTORE DUP5 PUSH1 0x40 MLOAD SWAP2 PUSH2 0x11F0 DUP4 PUSH2 0x31FA JUMP JUMPDEST PUSH1 0x40 CALLDATASIZE DUP5 CALLDATACOPY ADD MSTORE PUSH1 0x40 MLOAD PUSH4 0xFFFFFFFF DUP6 DUP3 ADD SWAP3 AND DUP3 MSTORE DUP5 DUP2 MSTORE PUSH2 0x1212 DUP2 PUSH2 0x31FA JUMP JUMPDEST MLOAD SWAP1 PUSH2 0x80B GAS STATICCALL PUSH2 0x1221 PUSH2 0x38C7 JUMP JUMPDEST SWAP1 ISZERO PUSH2 0x131E JUMPI DUP1 MLOAD DUP2 ADD DUP3 DUP2 ADD SWAP2 DUP4 DUP2 DUP4 SUB SLT PUSH2 0x5B9 JUMPI DUP4 DUP2 ADD MLOAD SWAP1 PUSH1 0x1 PUSH1 0x1 PUSH1 0x40 SHL SUB SWAP2 DUP3 DUP2 GT PUSH2 0x5B9 JUMPI PUSH1 0x60 SWAP2 ADD DUP1 SWAP4 SUB SLT PUSH2 0x5B9 JUMPI PUSH1 0x40 MLOAD SWAP3 PUSH2 0x1266 DUP5 PUSH2 0x31FA JUMP JUMPDEST DUP5 DUP4 ADD MLOAD DUP3 DUP2 GT PUSH2 0x5B9 JUMPI DUP2 DUP7 PUSH2 0x127F SWAP3 DUP7 ADD ADD PUSH2 0x390B JUMP JUMPDEST DUP5 MSTORE DUP1 PUSH1 0x5F DUP5 ADD SLT ISZERO PUSH2 0x5B9 JUMPI PUSH1 0x40 MLOAD SWAP3 PUSH2 0x1299 DUP5 PUSH2 0x31FA JUMP JUMPDEST DUP4 PUSH1 0x80 DUP3 ADD SWAP3 DUP4 GT PUSH2 0x5B9 JUMPI PUSH1 0x40 DUP8 SWAP3 ADD SWAP1 JUMPDEST DUP4 DUP3 LT PUSH2 0x1307 JUMPI POP POP SWAP1 POP DUP4 ADD SWAP2 DUP3 MSTORE PUSH2 0x12D7 PUSH1 0x40 MLOAD SWAP4 DUP6 DUP6 MSTORE MLOAD PUSH1 0x60 DUP7 DUP7 ADD MSTORE PUSH1 0x80 DUP6 ADD SWAP1 PUSH2 0x30F6 JUMP JUMPDEST SWAP2 MLOAD PUSH1 0x0 SWAP5 SWAP1 PUSH1 0x40 DUP6 ADD JUMPDEST PUSH1 0x2 DUP8 LT PUSH2 0x12F0 JUMPI DUP6 DUP6 SUB DUP7 RETURN JUMPDEST DUP3 DUP1 PUSH1 0x1 SWAP3 DUP7 DUP6 MLOAD AND DUP2 MSTORE ADD SWAP3 ADD SWAP7 ADD SWAP6 SWAP1 PUSH2 0x12E2 JUMP JUMPDEST DUP3 DUP1 SWAP2 PUSH2 0x1313 DUP5 PUSH2 0x38F7 JUMP JUMPDEST DUP2 MSTORE ADD SWAP2 ADD SWAP1 PUSH2 0x12AC JUMP JUMPDEST PUSH1 0x40 MLOAD PUSH3 0x461BCD PUSH1 0xE5 SHL DUP2 MSTORE PUSH1 0x4 DUP2 ADD DUP4 SWAP1 MSTORE PUSH1 0x1F PUSH1 0x24 DUP3 ADD MSTORE PUSH32 0x53706F74496E666F20707265636F6D70696C652063616C6C206661696C656400 PUSH1 0x44 DUP3 ADD MSTORE PUSH1 0x64 SWAP1 REVERT JUMPDEST CALLVALUE PUSH2 0x5B9 JUMPI PUSH1 0x20 CALLDATASIZE PUSH1 0x3 NOT ADD SLT PUSH2 0x5B9 JUMPI PUSH1 0x4 CALLDATALOAD PUSH1 0x0 MSTORE PUSH1 0x0 PUSH1 0x20 MSTORE PUSH1 0x40 PUSH1 0x0 KECCAK256 DUP1 SLOAD SWAP1 PUSH1 0x1 DUP2 ADD SLOAD SWAP1 PUSH1 0x2 DUP2 ADD SLOAD PUSH1 0xFF AND PUSH1 0x3 DUP3 ADD SLOAD PUSH1 0x4 DUP4 ADD SLOAD PUSH1 0xFF AND PUSH1 0x5 DUP5 ADD SLOAD PUSH1 0x6 DUP6 ADD SLOAD PUSH1 0x7 DUP7 ADD SLOAD SWAP2 PUSH1 0x8 DUP8 ADD SLOAD SWAP4 PUSH1 0x9 DUP9 ADD SLOAD PUSH1 0xFF AND SWAP6 PUSH1 0xA DUP10 ADD SLOAD SWAP8 PUSH1 0xB DUP11 ADD SLOAD SWAP10 PUSH1 0x1 PUSH1 0xA0 SHL PUSH1 0x1 SWAP1 SUB SWAP1 PUSH1 0xC ADD SLOAD AND SWAP11 PUSH1 0x40 MLOAD SWAP13 DUP14 MSTORE DUP13 PUSH1 0x1 PUSH1 0xA0 SHL PUSH1 0x1 SWAP1 SUB DUP3 AND SWAP1 PUSH1 0x20 ADD MSTORE DUP13 PUSH4 0xFFFFFFFF DUP1 DUP4 PUSH1 0xA0 SHR AND PUSH1 0x40 DUP4 ADD MSTORE DUP3 PUSH1 0xC0 SHR AND SWAP1 PUSH1 0x60 ADD MSTORE PUSH1 0xE0 SHR PUSH1 0x80 DUP14 ADD MSTORE PUSH1 0xA0 DUP13 ADD PUSH2 0x1424 SWAP2 PUSH2 0x32F7 JUMP JUMPDEST PUSH1 0xC0 DUP12 ADD MSTORE PUSH1 0xE0 DUP11 ADD PUSH2 0x1436 SWAP2 PUSH2 0x3304 JUMP JUMPDEST PUSH2 0x100 DUP10 ADD MSTORE PUSH2 0x120 DUP9 ADD MSTORE PUSH2 0x140 DUP8 ADD MSTORE PUSH2 0x160 DUP7 ADD MSTORE PUSH2 0x180 DUP6 ADD PUSH2 0x145C SWAP2 PUSH2 0x3311 JUMP JUMPDEST PUSH2 0x1A0 DUP5 ADD MSTORE PUSH2 0x1C0 DUP4 ADD MSTORE PUSH2 0x1E0 DUP3 ADD MSTORE PUSH2 0x200 SWAP1 RETURN JUMPDEST CALLVALUE PUSH2 0x5B9 JUMPI PUSH1 0x40 CALLDATASIZE PUSH1 0x3 NOT ADD SLT PUSH2 0x5B9 JUMPI PUSH2 0x148D PUSH2 0x30AA JUMP JUMPDEST PUSH1 0x24 CALLDATALOAD SWAP1 PUSH1 0x1 PUSH1 0x1 PUSH1 0x40 SHL SUB SWAP1 DUP2 DUP4 AND DUP1 SWAP4 SUB PUSH2 0x5B9 JUMPI PUSH1 0x0 DUP1 SWAP2 PUSH1 0x40 MLOAD SWAP5 PUSH2 0x14B5 DUP7 PUSH2 0x31DF JUMP JUMPDEST DUP3 DUP7 MSTORE DUP3 PUSH1 0x40 PUSH1 0x20 SWAP8 DUP3 DUP10 DUP3 ADD MSTORE ADD MSTORE PUSH1 0x40 MLOAD SWAP1 DUP7 DUP3 ADD SWAP3 PUSH1 0x1 DUP1 PUSH1 0xA0 SHL SUB AND DUP4 MSTORE PUSH1 0x40 DUP3 ADD MSTORE PUSH1 0x40 DUP2 MSTORE PUSH2 0x14E9 DUP2 PUSH2 0x31DF JUMP JUMPDEST MLOAD SWAP1 PUSH2 0x801 GAS STATICCALL SWAP1 PUSH2 0x14F9 PUSH2 0x38C7 JUMP JUMPDEST SWAP2 ISZERO PUSH2 0x1565 JUMPI PUSH1 0x60 DUP3 DUP1 MLOAD DUP2 ADD SUB SLT PUSH2 0x5B9 JUMPI PUSH1 0x40 MLOAD PUSH1 0x60 SWAP4 PUSH2 0x151B DUP3 PUSH2 0x31DF JUMP JUMPDEST DUP3 PUSH2 0x1527 DUP3 DUP7 ADD PUSH2 0x38F7 JUMP JUMPDEST SWAP5 DUP6 DUP5 MSTORE PUSH1 0x40 PUSH2 0x1549 DUP9 PUSH2 0x153C DUP4 DUP6 ADD PUSH2 0x38F7 JUMP JUMPDEST SWAP4 DUP7 DUP9 ADD SWAP5 DUP6 MSTORE ADD PUSH2 0x38F7 JUMP JUMPDEST SWAP5 ADD SWAP4 DUP5 MSTORE DUP2 PUSH1 0x40 MLOAD SWAP7 AND DUP7 MSTORE MLOAD AND SWAP1 DUP5 ADD MSTORE MLOAD AND PUSH1 0x40 DUP3 ADD MSTORE RETURN JUMPDEST PUSH1 0x40 MLOAD PUSH3 0x461BCD PUSH1 0xE5 SHL DUP2 MSTORE PUSH1 0x4 DUP2 ADD DUP5 SWAP1 MSTORE PUSH1 0x22 PUSH1 0x24 DUP3 ADD MSTORE PUSH32 0x53706F7442616C616E636520707265636F6D70696C652063616C6C206661696C PUSH1 0x44 DUP3 ADD MSTORE PUSH2 0x1959 PUSH1 0xF2 SHL PUSH1 0x64 DUP3 ADD MSTORE PUSH1 0x84 SWAP1 REVERT JUMPDEST CALLVALUE PUSH2 0x5B9 JUMPI PUSH1 0x0 CALLDATASIZE PUSH1 0x3 NOT ADD SLT PUSH2 0x5B9 JUMPI PUSH1 0x20 PUSH1 0x40 MLOAD PUSH32 0xB1FADD3142AB2AD7F1337EA4D97112BCC8337FC11CE5B20CB04AD038ADF99819 DUP2 MSTORE RETURN JUMPDEST CALLVALUE PUSH2 0x5B9 JUMPI PUSH1 0x40 CALLDATASIZE PUSH1 0x3 NOT ADD SLT PUSH2 0x5B9 JUMPI PUSH2 0x1609 PUSH2 0x30AA JUMP JUMPDEST PUSH1 0x1 PUSH1 0x1 PUSH1 0xA0 SHL SUB AND PUSH1 0x0 SWAP1 DUP2 MSTORE PUSH1 0x1 PUSH1 0x20 MSTORE PUSH1 0x40 SWAP1 KECCAK256 DUP1 SLOAD PUSH1 0x24 CALLDATALOAD SWAP2 SWAP1 DUP3 LT ISZERO PUSH2 0x5B9 JUMPI PUSH1 0x20 SWAP2 PUSH2 0x163A SWAP2 PUSH2 0x331E JUMP JUMPDEST SWAP1 SLOAD PUSH1 0x40 MLOAD SWAP2 PUSH1 0x3 SHL SHR DUP2 MSTORE RETURN JUMPDEST CALLVALUE PUSH2 0x5B9 JUMPI PUSH1 0x0 CALLDATASIZE PUSH1 0x3 NOT ADD SLT PUSH2 0x5B9 JUMPI PUSH1 0x20 PUSH1 0x40 MLOAD PUSH1 0x0 DUP2 MSTORE RETURN JUMPDEST CALLVALUE PUSH2 0x5B9 JUMPI PUSH1 0x20 CALLDATASIZE PUSH1 0x3 NOT ADD SLT PUSH2 0x5B9 JUMPI PUSH1 0x0 PUSH2 0x1E0 PUSH1 0x40 MLOAD PUSH2 0x1686 DUP2 PUSH2 0x31C3 JUMP JUMPDEST DUP3 DUP2 MSTORE DUP3 PUSH1 0x20 DUP3 ADD MSTORE DUP3 PUSH1 0x40 DUP3 ADD MSTORE DUP3 PUSH1 0x60 DUP3 ADD MSTORE DUP3 PUSH1 0x80 DUP3 ADD MSTORE DUP3 PUSH1 0xA0 DUP3 ADD MSTORE DUP3 PUSH1 0xC0 DUP3 ADD MSTORE DUP3 PUSH1 0xE0 DUP3 ADD MSTORE DUP3 PUSH2 0x100 DUP3 ADD MSTORE DUP3 PUSH2 0x120 DUP3 ADD MSTORE DUP3 PUSH2 0x140 DUP3 ADD MSTORE DUP3 PUSH2 0x160 DUP3 ADD MSTORE DUP3 PUSH2 0x180 DUP3 ADD MSTORE DUP3 PUSH2 0x1A0 DUP3 ADD MSTORE DUP3 PUSH2 0x1C0 DUP3 ADD MSTORE ADD MSTORE PUSH1 0x4 CALLDATALOAD PUSH1 0x0 MSTORE PUSH1 0x0 PUSH1 0x20 MSTORE PUSH2 0x200 PUSH1 0x40 PUSH1 0x0 KECCAK256 PUSH1 0x40 MLOAD SWAP1 PUSH2 0x1706 DUP3 PUSH2 0x31C3 JUMP JUMPDEST DUP1 SLOAD DUP3 MSTORE PUSH1 0x1 DUP2 ADD SLOAD PUSH1 0x1 DUP1 PUSH1 0xA0 SHL SUB DUP2 AND PUSH1 0x20 DUP5 ADD MSTORE PUSH4 0xFFFFFFFF DUP2 PUSH1 0xA0 SHR AND PUSH1 0x40 DUP5 ADD MSTORE PUSH4 0xFFFFFFFF DUP2 PUSH1 0xC0 SHR AND PUSH1 0x60 DUP5 ADD MSTORE PUSH1 0xE0 SHR PUSH1 0x80 DUP4 ADD MSTORE PUSH2 0x1757 PUSH1 0xFF PUSH1 0x2 DUP4 ADD SLOAD AND PUSH1 0xA0 DUP5 ADD PUSH2 0x3AA4 JUMP JUMPDEST PUSH1 0x3 DUP2 ADD SLOAD PUSH1 0xC0 DUP4 ADD MSTORE PUSH2 0x1775 PUSH1 0xFF PUSH1 0x4 DUP4 ADD SLOAD AND PUSH1 0xE0 DUP5 ADD PUSH2 0x3AB0 JUMP JUMPDEST PUSH1 0x5 DUP2 ADD SLOAD PUSH2 0x100 DUP4 ADD MSTORE PUSH1 0x6 DUP2 ADD SLOAD PUSH2 0x120 DUP4 ADD MSTORE PUSH1 0x7 DUP2 ADD SLOAD PUSH2 0x140 DUP4 ADD MSTORE PUSH1 0x8 DUP2 ADD SLOAD PUSH2 0x160 DUP4 ADD MSTORE PUSH2 0x17B6 PUSH1 0xFF PUSH1 0x9 DUP4 ADD SLOAD AND PUSH2 0x180 DUP5 ADD PUSH2 0x3ABC JUMP JUMPDEST PUSH1 0xA DUP2 ADD SLOAD PUSH2 0x1A0 DUP4 ADD MSTORE PUSH1 0xB DUP2 ADD SLOAD PUSH2 0x1C0 DUP4 ADD MSTORE PUSH1 0xC PUSH1 0x1 DUP1 PUSH1 0xA0 SHL SUB SWAP2 ADD SLOAD AND PUSH2 0x1E0 DUP3 ADD MSTORE PUSH1 0x40 MLOAD SWAP1 DUP1 MLOAD DUP3 MSTORE PUSH1 0x1 DUP1 PUSH1 0xA0 SHL SUB PUSH1 0x20 DUP3 ADD MLOAD AND PUSH1 0x20 DUP4 ADD MSTORE PUSH4 0xFFFFFFFF PUSH1 0x40 DUP3 ADD MLOAD AND PUSH1 0x40 DUP4 ADD MSTORE PUSH4 0xFFFFFFFF PUSH1 0x60 DUP3 ADD MLOAD AND PUSH1 0x60 DUP4 ADD MSTORE PUSH4 0xFFFFFFFF PUSH1 0x80 DUP3 ADD MLOAD AND PUSH1 0x80 DUP4 ADD MSTORE PUSH2 0x183B PUSH1 0xA0 DUP3 ADD MLOAD PUSH1 0xA0 DUP5 ADD SWAP1 PUSH2 0x32F7 JUMP JUMPDEST PUSH1 0xC0 DUP2 ADD MLOAD PUSH1 0xC0 DUP4 ADD MSTORE PUSH2 0x1857 PUSH1 0xE0 DUP3 ADD MLOAD PUSH1 0xE0 DUP5 ADD SWAP1 PUSH2 0x3304 JUMP JUMPDEST PUSH2 0x100 DUP2 ADD MLOAD PUSH2 0x100 DUP4 ADD MSTORE PUSH2 0x120 DUP2 ADD MLOAD PUSH2 0x120 DUP4 ADD MSTORE PUSH2 0x140 DUP2 ADD MLOAD PUSH2 0x140 DUP4 ADD MSTORE PUSH2 0x160 DUP2 ADD MLOAD PUSH2 0x160 DUP4 ADD MSTORE PUSH2 0x189B PUSH2 0x180 DUP3 ADD MLOAD PUSH2 0x180 DUP5 ADD SWAP1 PUSH2 0x3311 JUMP JUMPDEST PUSH2 0x1A0 DUP2 DUP2 ADD MLOAD SWAP1 DUP4 ADD MSTORE PUSH2 0x1C0 DUP1 DUP3 ADD MLOAD SWAP1 DUP4 ADD MSTORE PUSH2 0x1E0 SWAP1 DUP2 ADD MLOAD PUSH1 0x1 PUSH1 0x1 PUSH1 0xA0 SHL SUB AND SWAP1 DUP3 ADD MSTORE RETURN JUMPDEST CALLVALUE PUSH2 0x5B9 JUMPI PUSH1 0x40 CALLDATASIZE PUSH1 0x3 NOT ADD SLT PUSH2 0x5B9 JUMPI PUSH2 0x18E0 PUSH2 0x3094 JUMP JUMPDEST PUSH1 0x4 CALLDATALOAD PUSH1 0x0 MSTORE PUSH1 0x0 DUP1 MLOAD PUSH1 0x20 PUSH2 0x4947 DUP4 CODECOPY DUP2 MLOAD SWAP2 MSTORE PUSH1 0x20 MSTORE PUSH1 0x40 PUSH1 0x0 KECCAK256 SWAP1 PUSH1 0x1 DUP1 PUSH1 0xA0 SHL SUB AND PUSH1 0x0 MSTORE PUSH1 0x20 MSTORE PUSH1 0x20 PUSH1 0xFF PUSH1 0x40 PUSH1 0x0 KECCAK256 SLOAD AND PUSH1 0x40 MLOAD SWAP1 ISZERO ISZERO DUP2 MSTORE RETURN JUMPDEST CALLVALUE PUSH2 0x5B9 JUMPI PUSH1 0x20 DUP1 PUSH1 0x3 NOT CALLDATASIZE ADD SLT PUSH2 0x5B9 JUMPI PUSH1 0x0 DUP1 PUSH2 0x193E PUSH2 0x30C0 JUMP JUMPDEST PUSH1 0x40 MLOAD PUSH4 0xFFFFFFFF DUP6 DUP3 ADD SWAP3 AND DUP3 MSTORE DUP5 DUP2 MSTORE PUSH2 0x1959 DUP2 PUSH2 0x31FA JUMP JUMPDEST MLOAD SWAP1 PUSH2 0x808 GAS STATICCALL PUSH2 0x1968 PUSH2 0x38C7 JUMP JUMPDEST SWAP1 ISZERO PUSH2 0x1985 JUMPI DUP2 DUP2 DUP1 MLOAD DUP2 ADD SUB SLT PUSH2 0x5B9 JUMPI DUP2 PUSH2 0xAD5 SWAP2 ADD PUSH2 0x38F7 JUMP JUMPDEST PUSH1 0x40 MLOAD PUSH3 0x461BCD PUSH1 0xE5 SHL DUP2 MSTORE PUSH1 0x4 DUP2 ADD DUP4 SWAP1 MSTORE PUSH1 0x1D PUSH1 0x24 DUP3 ADD MSTORE PUSH32 0x53706F74507820707265636F6D70696C652063616C6C206661696C6564000000 PUSH1 0x44 DUP3 ADD MSTORE PUSH1 0x64 SWAP1 REVERT JUMPDEST CALLVALUE PUSH2 0x5B9 JUMPI PUSH1 0x40 CALLDATASIZE PUSH1 0x3 NOT ADD SLT PUSH2 0x5B9 JUMPI PUSH2 0x19E3 PUSH2 0x30AA JUMP JUMPDEST PUSH1 0x24 CALLDATALOAD SWAP1 PUSH2 0xFFFF DUP3 AND DUP1 SWAP3 SUB PUSH2 0x5B9 JUMPI PUSH1 0x0 DUP1 SWAP2 PUSH1 0x40 MLOAD SWAP4 PUSH2 0x1A04 DUP6 PUSH2 0x318C JUMP JUMPDEST DUP3 DUP6 MSTORE DUP3 PUSH1 0x80 PUSH1 0x20 SWAP7 DUP3 DUP9 DUP3 ADD MSTORE DUP3 PUSH1 0x40 DUP3 ADD MSTORE DUP3 PUSH1 0x60 DUP3 ADD MSTORE ADD MSTORE PUSH1 0x40 MLOAD SWAP1 DUP6 DUP3 ADD SWAP3 PUSH1 0x1 DUP1 PUSH1 0xA0 SHL SUB AND DUP4 MSTORE PUSH1 0x40 DUP3 ADD MSTORE PUSH1 0x40 DUP2 MSTORE PUSH2 0x1A44 DUP2 PUSH2 0x31DF JUMP JUMPDEST MLOAD SWAP1 PUSH2 0x800 GAS STATICCALL SWAP1 PUSH2 0x1A54 PUSH2 0x38C7 JUMP JUMPDEST SWAP2 ISZERO PUSH2 0x1B07 JUMPI PUSH1 0xA0 DUP3 DUP1 MLOAD DUP2 ADD SUB SLT PUSH2 0x5B9 JUMPI PUSH1 0xA0 SWAP2 PUSH4 0xFFFFFFFF PUSH1 0x40 MLOAD SWAP2 PUSH2 0x1A7C DUP4 PUSH2 0x318C JUMP JUMPDEST PUSH2 0x1A87 DUP5 DUP3 ADD PUSH2 0x3A39 JUMP JUMPDEST SWAP4 DUP5 DUP5 MSTORE PUSH2 0x1A97 PUSH1 0x40 DUP4 ADD PUSH2 0x38F7 JUMP JUMPDEST SWAP1 DUP1 DUP6 ADD SWAP2 DUP3 MSTORE PUSH1 0x1 PUSH1 0x1 PUSH1 0x40 SHL SUB PUSH2 0x1AB2 PUSH1 0x60 DUP6 ADD PUSH2 0x3A39 JUMP JUMPDEST SWAP3 PUSH1 0x40 DUP8 ADD SWAP4 DUP5 MSTORE PUSH1 0x80 PUSH2 0x1AD9 DUP11 PUSH2 0x1ACB DUP4 DUP10 ADD PUSH2 0x3950 JUMP JUMPDEST SWAP8 PUSH1 0x60 DUP12 ADD SWAP9 DUP10 MSTORE ADD PUSH2 0x396F JUMP JUMPDEST SWAP8 ADD SWAP7 DUP8 MSTORE PUSH1 0x40 MLOAD SWAP8 PUSH1 0x7 SIGNEXTEND DUP9 MSTORE MLOAD AND SWAP1 DUP7 ADD MSTORE MLOAD PUSH1 0x7 SIGNEXTEND PUSH1 0x40 DUP6 ADD MSTORE MLOAD AND PUSH1 0x60 DUP4 ADD MSTORE MLOAD ISZERO ISZERO PUSH1 0x80 DUP3 ADD MSTORE RETURN JUMPDEST PUSH1 0x64 SWAP1 PUSH1 0x40 MLOAD SWAP1 PUSH3 0x461BCD PUSH1 0xE5 SHL DUP3 MSTORE PUSH1 0x4 DUP3 ADD MSTORE PUSH1 0x1F PUSH1 0x24 DUP3 ADD MSTORE PUSH32 0x506F736974696F6E20707265636F6D70696C652063616C6C206661696C656400 PUSH1 0x44 DUP3 ADD MSTORE REVERT JUMPDEST CALLVALUE PUSH2 0x5B9 JUMPI PUSH1 0x0 CALLDATASIZE PUSH1 0x3 NOT ADD SLT PUSH2 0x5B9 JUMPI PUSH2 0x1B64 PUSH2 0x33FD JUMP JUMPDEST PUSH2 0x1B6C PUSH2 0x3AC8 JUMP JUMPDEST PUSH1 0x0 DUP1 MLOAD PUSH1 0x20 PUSH2 0x4967 DUP4 CODECOPY DUP2 MLOAD SWAP2 MSTORE PUSH1 0x1 PUSH1 0xFF NOT DUP3 SLOAD AND OR SWAP1 SSTORE PUSH32 0x62E78CEA01BEE320CD4E420270B5EA74000D11B0C9F74754EBDBFC544B05A258 PUSH1 0x20 PUSH1 0x40 MLOAD CALLER DUP2 MSTORE LOG1 STOP JUMPDEST PUSH2 0x120 CALLDATASIZE PUSH1 0x3 NOT ADD SLT PUSH2 0x5B9 JUMPI PUSH2 0x1BC7 PUSH2 0x30C0 JUMP JUMPDEST PUSH1 0x24 CALLDATALOAD PUSH4 0xFFFFFFFF DUP2 AND DUP2 SUB PUSH2 0x5B9 JUMPI PUSH1 0x44 CALLDATALOAD SWAP1 PUSH4 0xFFFFFFFF DUP3 AND DUP3 SUB PUSH2 0x5B9 JUMPI PUSH1 0x4 PUSH1 0x64 CALLDATALOAD LT ISZERO PUSH2 0x5B9 JUMPI PUSH1 0x2 PUSH1 0xA4 CALLDATALOAD LT ISZERO PUSH2 0x5B9 JUMPI PUSH2 0x1C06 PUSH2 0x3AF3 JUMP JUMPDEST PUSH2 0x1C0E PUSH2 0x3AC8 JUMP JUMPDEST PUSH1 0x84 CALLDATALOAD ISZERO DUP1 ISZERO PUSH2 0x2181 JUMPI JUMPDEST PUSH2 0x210D JUMPI PUSH1 0x8 SLOAD DUP1 PUSH1 0xE4 CALLDATALOAD GT PUSH2 0x2161 JUMPI POP PUSH1 0x7 SLOAD DUP1 CALLVALUE LT PUSH2 0x2143 JUMPI POP PUSH2 0x104 CALLDATALOAD ISZERO ISZERO DUP1 DUP1 PUSH2 0x2136 JUMPI JUMPDEST PUSH2 0x210D JUMPI DUP1 PUSH2 0x211F JUMPI JUMPDEST PUSH2 0x210D JUMPI PUSH4 0xFFFFFFFF DUP4 AND PUSH1 0x0 MSTORE PUSH1 0x2 PUSH1 0x20 MSTORE PUSH1 0xFF PUSH1 0x3 PUSH1 0x40 PUSH1 0x0 KECCAK256 ADD SLOAD PUSH1 0xA8 SHR AND ISZERO PUSH2 0x20EF JUMPI PUSH4 0xFFFFFFFF DUP2 AND PUSH1 0x0 MSTORE PUSH1 0x2 PUSH1 0x20 MSTORE PUSH1 0xFF PUSH1 0x3 PUSH1 0x40 PUSH1 0x0 KECCAK256 ADD SLOAD PUSH1 0xA8 SHR AND ISZERO PUSH2 0x20D0 JUMPI PUSH4 0xFFFFFFFF DUP3 AND PUSH1 0x0 MSTORE PUSH1 0x2 PUSH1 0x20 MSTORE PUSH1 0xFF PUSH1 0x3 PUSH1 0x40 PUSH1 0x0 KECCAK256 ADD SLOAD PUSH1 0xA8 SHR AND ISZERO PUSH2 0x20B2 JUMPI PUSH4 0xFFFFFFFF DUP2 AND PUSH1 0x0 MSTORE PUSH1 0x2 PUSH1 0x20 MSTORE PUSH1 0x40 PUSH1 0x0 KECCAK256 PUSH1 0x40 MLOAD SWAP1 PUSH2 0x1CDA DUP3 PUSH2 0x31A7 JUMP JUMPDEST PUSH4 0xFFFFFFFF DUP2 SLOAD AND DUP3 MSTORE PUSH2 0x1CF0 PUSH1 0x1 DUP3 ADD PUSH2 0x3251 JUMP JUMPDEST PUSH1 0x20 DUP4 ADD MSTORE PUSH1 0x1 DUP1 PUSH1 0xA0 SHL SUB PUSH1 0x2 DUP3 ADD SLOAD AND PUSH1 0x40 DUP4 ADD MSTORE PUSH1 0xFF PUSH1 0x3 DUP3 ADD SLOAD PUSH1 0x1 DUP1 PUSH1 0xA0 SHL SUB DUP2 AND PUSH1 0x60 DUP6 ADD MSTORE DUP2 DUP2 PUSH1 0xA0 SHR AND PUSH1 0x80 DUP6 ADD MSTORE PUSH1 0xA8 SHR AND ISZERO ISZERO PUSH1 0xA0 DUP4 ADD MSTORE PUSH1 0x5 PUSH1 0x4 DUP3 ADD SLOAD SWAP2 DUP3 PUSH1 0xC0 DUP6 ADD MSTORE ADD SLOAD PUSH1 0xE0 DUP4 ADD MSTORE DUP1 PUSH1 0xC4 CALLDATALOAD LT PUSH2 0x2093 JUMPI POP PUSH1 0xE0 DUP2 ADD MLOAD DUP1 PUSH1 0xC4 CALLDATALOAD GT PUSH2 0x2073 JUMPI POP PUSH1 0x96 PUSH4 0xFFFFFFFF DUP4 AND SUB PUSH2 0x2023 JUMPI JUMPDEST POP PUSH1 0x5 SLOAD SWAP2 PUSH2 0x1D7D DUP4 PUSH2 0x3A95 JUMP JUMPDEST PUSH1 0x5 SSTORE PUSH1 0x40 MLOAD PUSH2 0x1D8C DUP2 PUSH2 0x31C3 JUMP JUMPDEST DUP4 DUP2 MSTORE CALLER PUSH1 0x20 DUP3 ADD MSTORE PUSH4 0xFFFFFFFF DUP6 AND PUSH1 0x40 DUP3 ADD MSTORE PUSH4 0xFFFFFFFF DUP4 AND PUSH1 0x60 DUP3 ADD MSTORE PUSH4 0xFFFFFFFF DUP3 AND PUSH1 0x80 DUP3 ADD MSTORE PUSH2 0x1DC8 PUSH1 0x64 CALLDATALOAD PUSH1 0xA0 DUP4 ADD PUSH2 0x3AA4 JUMP JUMPDEST PUSH1 0x84 CALLDATALOAD PUSH1 0xC0 DUP3 ADD MSTORE PUSH2 0x1DDF PUSH1 0xA4 CALLDATALOAD PUSH1 0xE0 DUP4 ADD PUSH2 0x3AB0 JUMP JUMPDEST PUSH1 0xC4 CALLDATALOAD PUSH2 0x100 DUP3 ADD MSTORE PUSH1 0xE4 CALLDATALOAD PUSH2 0x120 DUP3 ADD MSTORE PUSH2 0x104 CALLDATALOAD PUSH2 0x140 DUP3 ADD MSTORE CALLVALUE PUSH2 0x160 DUP3 ADD MSTORE PUSH1 0x0 PUSH2 0x180 DUP3 ADD MSTORE TIMESTAMP PUSH2 0x1A0 DUP3 ADD MSTORE PUSH1 0x0 PUSH2 0x1C0 DUP3 ADD MSTORE PUSH1 0x0 PUSH2 0x1E0 DUP3 ADD MSTORE DUP4 PUSH1 0x0 MSTORE PUSH1 0x0 PUSH1 0x20 MSTORE PUSH1 0x40 PUSH1 0x0 KECCAK256 DUP2 MLOAD DUP2 SSTORE PUSH1 0x1 DUP1 PUSH1 0xA0 SHL SUB PUSH1 0x20 DUP4 ADD MLOAD AND PUSH4 0xFFFFFFFF PUSH1 0xA0 SHL PUSH1 0x40 DUP5 ADD MLOAD PUSH1 0xA0 SHL AND PUSH4 0xFFFFFFFF PUSH1 0xC0 SHL PUSH1 0x60 DUP6 ADD MLOAD PUSH1 0xC0 SHL AND SWAP1 PUSH4 0xFFFFFFFF PUSH1 0xE0 SHL PUSH1 0x80 DUP7 ADD MLOAD PUSH1 0xE0 SHL AND SWAP3 OR OR OR PUSH1 0x1 DUP3 ADD SSTORE PUSH1 0xA0 DUP3 ADD MLOAD PUSH1 0x4 DUP2 LT ISZERO PUSH2 0x8FB JUMPI PUSH1 0x2 DUP3 ADD SWAP1 PUSH1 0xFF DUP1 NOT DUP4 SLOAD AND SWAP2 AND OR SWAP1 SSTORE PUSH1 0xC0 DUP3 ADD MLOAD PUSH1 0x3 DUP3 ADD SSTORE PUSH1 0x4 DUP2 ADD PUSH1 0xE0 DUP4 ADD MLOAD PUSH1 0x2 DUP2 LT ISZERO PUSH2 0x8FB JUMPI PUSH1 0xFF DUP1 NOT DUP4 SLOAD AND SWAP2 AND OR SWAP1 SSTORE PUSH2 0x100 DUP3 ADD MLOAD PUSH1 0x5 DUP3 ADD SSTORE PUSH2 0x120 DUP3 ADD MLOAD PUSH1 0x6 DUP3 ADD SSTORE PUSH2 0x140 DUP3 ADD MLOAD PUSH1 0x7 DUP3 ADD SSTORE PUSH2 0x160 DUP3 ADD MLOAD PUSH1 0x8 DUP3 ADD SSTORE PUSH2 0x180 DUP3 ADD MLOAD SWAP1 PUSH1 0x5 DUP3 LT ISZERO PUSH2 0x8FB JUMPI PUSH1 0xC SWAP2 PUSH1 0x9 DUP3 ADD SWAP1 PUSH1 0xFF DUP1 NOT DUP4 SLOAD AND SWAP2 AND OR SWAP1 SSTORE PUSH2 0x1A0 DUP4 ADD MLOAD PUSH1 0xA DUP3 ADD SSTORE PUSH2 0x1C0 DUP4 ADD MLOAD PUSH1 0xB DUP3 ADD SSTORE ADD SWAP1 PUSH2 0x1E0 PUSH1 0x1 DUP1 PUSH1 0xA0 SHL SUB SWAP2 ADD MLOAD AND PUSH1 0x1 PUSH1 0x1 PUSH1 0x60 SHL SUB PUSH1 0xA0 SHL DUP3 SLOAD AND OR SWAP1 SSTORE CALLER PUSH1 0x0 MSTORE PUSH1 0x1 PUSH1 0x20 MSTORE PUSH1 0x40 PUSH1 0x0 KECCAK256 SWAP2 DUP3 SLOAD SWAP1 PUSH9 0x10000000000000000 DUP3 LT ISZERO PUSH2 0x5A3 JUMPI PUSH2 0x1F84 DUP3 PUSH4 0xFFFFFFFF SWAP6 PUSH1 0x1 DUP8 SWAP6 ADD DUP2 SSTORE PUSH2 0x331E JUMP JUMPDEST DUP2 SLOAD SWAP1 PUSH1 0x3 SHL SWAP1 DUP8 DUP3 SHL SWAP2 PUSH1 0x0 NOT SWAP1 SHL NOT AND OR SWAP1 SSTORE PUSH2 0x1FA4 PUSH1 0x6 SLOAD PUSH2 0x3A95 JUMP JUMPDEST PUSH1 0x6 SSTORE DUP2 PUSH1 0x40 MLOAD SWAP7 AND DUP7 MSTORE AND PUSH1 0x20 DUP6 ADD MSTORE AND PUSH1 0x40 DUP4 ADD MSTORE PUSH2 0x1FCA PUSH1 0x60 DUP4 ADD PUSH1 0x64 CALLDATALOAD PUSH2 0x32F7 JUMP JUMPDEST PUSH1 0x84 CALLDATALOAD PUSH1 0x80 DUP4 ADD MSTORE PUSH2 0x1FE1 PUSH1 0xA0 DUP4 ADD PUSH1 0xA4 CALLDATALOAD PUSH2 0x3304 JUMP JUMPDEST PUSH1 0xC4 CALLDATALOAD PUSH1 0xC0 DUP4 ADD MSTORE PUSH32 0x51148C3ED165FA5AA2433A939BCB17080564A5BE82039FB458D07E372E458C65 PUSH1 0xE0 CALLER SWAP4 LOG3 PUSH1 0x1 PUSH1 0x0 DUP1 MLOAD PUSH1 0x20 PUSH2 0x49A7 DUP4 CODECOPY DUP2 MLOAD SWAP2 MSTORE SSTORE STOP JUMPDEST PUSH1 0x40 SWAP1 DUP2 ADD MLOAD SWAP1 MLOAD PUSH4 0x23B872DD PUSH1 0xE0 SHL PUSH1 0x20 DUP3 ADD MSTORE CALLER PUSH1 0x24 DUP3 ADD MSTORE ADDRESS PUSH1 0x44 DUP3 ADD MSTORE PUSH1 0xC4 CALLDATALOAD PUSH1 0x64 DUP1 DUP4 ADD SWAP2 SWAP1 SWAP2 MSTORE DUP2 MSTORE PUSH2 0x206D SWAP2 PUSH1 0x1 PUSH1 0x1 PUSH1 0xA0 SHL SUB AND PUSH2 0x2068 DUP3 PUSH2 0x318C JUMP JUMPDEST PUSH2 0x3B23 JUMP JUMPDEST DUP4 PUSH2 0x1D6F JUMP JUMPDEST PUSH1 0x44 SWAP1 PUSH1 0x40 MLOAD SWAP1 PUSH4 0x7F162703 PUSH1 0xE0 SHL DUP3 MSTORE PUSH1 0xC4 CALLDATALOAD PUSH1 0x4 DUP4 ADD MSTORE PUSH1 0x24 DUP3 ADD MSTORE REVERT JUMPDEST PUSH1 0x44 SWAP1 PUSH1 0x40 MLOAD SWAP1 PUSH3 0x5A5B27 PUSH1 0xE3 SHL DUP3 MSTORE PUSH1 0xC4 CALLDATALOAD PUSH1 0x4 DUP4 ADD MSTORE PUSH1 0x24 DUP3 ADD MSTORE REVERT JUMPDEST PUSH1 0x40 MLOAD PUSH4 0x54EFD231 PUSH1 0xE1 SHL DUP2 MSTORE PUSH4 0xFFFFFFFF DUP4 AND PUSH1 0x4 DUP3 ADD MSTORE PUSH1 0x24 SWAP1 REVERT JUMPDEST PUSH1 0x40 MLOAD PUSH4 0x54EFD231 PUSH1 0xE1 SHL DUP2 MSTORE PUSH4 0xFFFFFFFF SWAP1 SWAP2 AND PUSH1 0x4 DUP3 ADD MSTORE PUSH1 0x24 SWAP1 REVERT JUMPDEST PUSH1 0x40 MLOAD PUSH4 0x54EFD231 PUSH1 0xE1 SHL DUP2 MSTORE PUSH4 0xFFFFFFFF DUP5 AND PUSH1 0x4 DUP3 ADD MSTORE PUSH1 0x24 SWAP1 REVERT JUMPDEST PUSH1 0x40 MLOAD PUSH4 0x8904D97B PUSH1 0xE0 SHL DUP2 MSTORE PUSH1 0x4 SWAP1 REVERT JUMPDEST POP PUSH2 0x212C PUSH1 0x9 SLOAD TIMESTAMP PUSH2 0x3A88 JUMP JUMPDEST PUSH2 0x104 CALLDATALOAD GT PUSH2 0x1C4C JUMP JUMPDEST POP TIMESTAMP PUSH2 0x104 CALLDATALOAD GT ISZERO PUSH2 0x1C42 JUMP JUMPDEST PUSH1 0x44 SWAP1 PUSH1 0x40 MLOAD SWAP1 PUSH4 0x17EEBADB PUSH1 0xE3 SHL DUP3 MSTORE CALLVALUE PUSH1 0x4 DUP4 ADD MSTORE PUSH1 0x24 DUP3 ADD MSTORE REVERT JUMPDEST PUSH1 0x44 SWAP1 PUSH1 0x40 MLOAD SWAP1 PUSH4 0x3B5D56ED PUSH1 0xE1 SHL DUP3 MSTORE PUSH1 0xE4 CALLDATALOAD PUSH1 0x4 DUP4 ADD MSTORE PUSH1 0x24 DUP3 ADD MSTORE REVERT JUMPDEST POP PUSH1 0xC4 CALLDATALOAD ISZERO PUSH2 0x1C19 JUMP JUMPDEST CALLVALUE PUSH2 0x5B9 JUMPI PUSH1 0x20 CALLDATASIZE PUSH1 0x3 NOT ADD SLT PUSH2 0x5B9 JUMPI PUSH2 0x1B PUSH2 0x21A7 PUSH2 0x30AA JUMP JUMPDEST PUSH2 0x21AF PUSH2 0x33C3 JUMP JUMPDEST PUSH2 0x3674 JUMP JUMPDEST CALLVALUE PUSH2 0x5B9 JUMPI PUSH1 0x0 CALLDATASIZE PUSH1 0x3 NOT ADD SLT PUSH2 0x5B9 JUMPI PUSH1 0xC0 PUSH1 0x7 SLOAD PUSH1 0x8 SLOAD PUSH1 0x9 SLOAD PUSH1 0xA SLOAD PUSH1 0xB SLOAD SWAP2 PUSH1 0xFF PUSH1 0xC SLOAD AND SWAP4 PUSH1 0x40 MLOAD SWAP6 DUP7 MSTORE PUSH1 0x20 DUP7 ADD MSTORE PUSH1 0x40 DUP6 ADD MSTORE PUSH1 0x60 DUP5 ADD MSTORE PUSH1 0x80 DUP4 ADD MSTORE ISZERO ISZERO PUSH1 0xA0 DUP3 ADD MSTORE RETURN JUMPDEST CALLVALUE PUSH2 0x5B9 JUMPI PUSH1 0x20 DUP1 PUSH1 0x3 NOT CALLDATASIZE ADD SLT PUSH2 0x5B9 JUMPI PUSH1 0x1 PUSH1 0x1 PUSH1 0xA0 SHL SUB PUSH2 0x2223 PUSH2 0x30AA JUMP JUMPDEST AND PUSH1 0x0 MSTORE PUSH1 0x1 SWAP1 DUP2 DUP2 MSTORE PUSH1 0x40 PUSH1 0x0 KECCAK256 SWAP2 PUSH1 0x40 MLOAD SWAP2 DUP3 DUP2 DUP6 SLOAD SWAP2 DUP3 DUP2 MSTORE ADD SWAP1 DUP2 SWAP6 PUSH1 0x0 MSTORE DUP3 PUSH1 0x0 KECCAK256 SWAP1 PUSH1 0x0 JUMPDEST DUP2 DUP2 LT PUSH2 0x229C JUMPI POP POP POP DUP4 PUSH2 0x2264 SWAP2 SUB DUP5 PUSH2 0x3230 JUMP JUMPDEST PUSH1 0x40 MLOAD SWAP3 DUP2 DUP5 ADD SWAP1 DUP3 DUP6 MSTORE MLOAD DUP1 SWAP2 MSTORE PUSH1 0x40 DUP5 ADD SWAP5 SWAP2 PUSH1 0x0 JUMPDEST DUP3 DUP2 LT PUSH2 0x2289 JUMPI DUP6 DUP8 SUB DUP7 RETURN JUMPDEST DUP4 MLOAD DUP8 MSTORE SWAP6 DUP2 ADD SWAP6 SWAP3 DUP2 ADD SWAP3 DUP5 ADD PUSH2 0x227C JUMP JUMPDEST DUP3 SLOAD DUP5 MSTORE SWAP3 DUP5 ADD SWAP3 SWAP2 DUP6 ADD SWAP2 DUP6 ADD PUSH2 0x224E JUMP JUMPDEST CALLVALUE PUSH2 0x5B9 JUMPI PUSH1 0x20 CALLDATASIZE PUSH1 0x3 NOT ADD SLT PUSH2 0x5B9 JUMPI PUSH1 0x0 DUP1 PUSH2 0x22CB PUSH2 0x30C0 JUMP JUMPDEST DUP2 PUSH1 0xE0 PUSH1 0x40 MLOAD PUSH2 0x22DA DUP2 PUSH2 0x31A7 JUMP JUMPDEST PUSH1 0x60 DUP2 MSTORE PUSH1 0x60 PUSH1 0x20 DUP3 ADD MSTORE DUP3 PUSH1 0x40 DUP3 ADD MSTORE DUP3 PUSH1 0x60 DUP3 ADD MSTORE DUP3 PUSH1 0x80 DUP3 ADD MSTORE DUP3 PUSH1 0xA0 DUP3 ADD MSTORE DUP3 PUSH1 0xC0 DUP3 ADD MSTORE ADD MSTORE PUSH1 0x40 MLOAD PUSH4 0xFFFFFFFF PUSH1 0x20 DUP3 ADD SWAP3 AND DUP3 MSTORE PUSH1 0x20 DUP2 MSTORE PUSH2 0x2322 DUP2 PUSH2 0x31FA JUMP JUMPDEST MLOAD SWAP1 PUSH2 0x80C GAS STATICCALL PUSH2 0x2331 PUSH2 0x38C7 JUMP JUMPDEST SWAP1 ISZERO PUSH2 0x254B JUMPI DUP1 MLOAD DUP2 ADD PUSH1 0x20 DUP2 ADD SWAP2 PUSH1 0x20 DUP2 DUP4 SUB SLT PUSH2 0x5B9 JUMPI PUSH1 0x20 DUP2 ADD MLOAD PUSH1 0x1 PUSH1 0x1 PUSH1 0x40 SHL SUB DUP2 GT PUSH2 0x5B9 JUMPI PUSH2 0x100 SWAP2 ADD DUP1 SWAP3 SUB SLT PUSH2 0x5B9 JUMPI PUSH1 0x40 MLOAD SWAP2 PUSH2 0x2377 DUP4 PUSH2 0x31A7 JUMP JUMPDEST PUSH1 0x20 DUP3 ADD MLOAD PUSH1 0x1 PUSH1 0x1 PUSH1 0x40 SHL SUB DUP2 GT PUSH2 0x5B9 JUMPI DUP2 PUSH1 0x20 PUSH2 0x2399 SWAP3 DUP6 ADD ADD PUSH2 0x390B JUMP JUMPDEST DUP4 MSTORE PUSH1 0x40 DUP3 ADD MLOAD PUSH1 0x1 PUSH1 0x1 PUSH1 0x40 SHL SUB DUP2 GT PUSH2 0x5B9 JUMPI DUP3 ADD SWAP1 DUP1 PUSH1 0x3F DUP4 ADD SLT ISZERO PUSH2 0x5B9 JUMPI PUSH1 0x20 DUP3 ADD MLOAD PUSH2 0x23CA DUP2 PUSH2 0x3A0E JUMP JUMPDEST SWAP3 PUSH2 0x23D8 PUSH1 0x40 MLOAD SWAP5 DUP6 PUSH2 0x3230 JUMP JUMPDEST DUP2 DUP5 MSTORE PUSH1 0x40 PUSH1 0x20 DUP6 ADD SWAP3 PUSH1 0x5 SHL DUP3 ADD ADD SWAP3 DUP4 GT PUSH2 0x5B9 JUMPI PUSH1 0x40 ADD SWAP1 JUMPDEST DUP3 DUP3 LT PUSH2 0x2533 JUMPI POP POP POP PUSH1 0x20 DUP4 ADD MSTORE PUSH2 0x240F PUSH1 0x60 DUP3 ADD PUSH2 0x38F7 JUMP JUMPDEST PUSH1 0x40 DUP4 ADD MSTORE PUSH2 0x2420 PUSH1 0x80 DUP3 ADD PUSH2 0x3A25 JUMP JUMPDEST PUSH1 0x60 DUP4 ADD MSTORE PUSH2 0x2431 PUSH1 0xA0 DUP3 ADD PUSH2 0x3A25 JUMP JUMPDEST PUSH1 0x80 DUP4 ADD MSTORE PUSH2 0x2442 PUSH1 0xC0 DUP3 ADD PUSH2 0x3961 JUMP JUMPDEST PUSH1 0xA0 DUP4 ADD MSTORE PUSH2 0x100 PUSH2 0x2456 PUSH1 0xE0 DUP4 ADD PUSH2 0x3961 JUMP JUMPDEST SWAP2 PUSH1 0xC0 DUP5 ADD SWAP3 DUP4 MSTORE ADD MLOAD DUP1 PUSH1 0x0 SIGNEXTEND DUP2 SUB PUSH2 0x5B9 JUMPI PUSH1 0xE0 DUP4 ADD MSTORE PUSH1 0x40 MLOAD SWAP1 PUSH1 0x20 DUP3 MSTORE PUSH2 0x248F DUP4 MLOAD PUSH2 0x100 PUSH1 0x20 DUP6 ADD MSTORE PUSH2 0x120 DUP5 ADD SWAP1 PUSH2 0x30F6 JUMP JUMPDEST PUSH1 0x20 DUP5 DUP2 ADD MLOAD DUP5 DUP4 SUB PUSH1 0x1F NOT ADD PUSH1 0x40 DUP7 ADD MSTORE DUP1 MLOAD DUP1 DUP5 MSTORE SWAP3 DUP3 ADD SWAP4 SWAP3 SWAP2 ADD SWAP1 PUSH1 0x0 JUMPDEST DUP2 DUP2 LT PUSH2 0x2514 JUMPI POP POP POP DUP4 PUSH1 0xFF PUSH1 0xE0 SWAP3 PUSH1 0x1 PUSH1 0x1 PUSH1 0x40 SHL SUB PUSH1 0x40 DUP8 SWAP9 ADD MLOAD AND PUSH1 0x60 DUP8 ADD MSTORE PUSH1 0x1 DUP1 PUSH1 0xA0 SHL SUB DUP1 PUSH1 0x60 DUP6 ADD MLOAD AND PUSH1 0x80 DUP9 ADD MSTORE PUSH1 0x80 DUP5 ADD MLOAD AND PUSH1 0xA0 DUP8 ADD MSTORE DUP2 PUSH1 0xA0 DUP5 ADD MLOAD AND PUSH1 0xC0 DUP8 ADD MSTORE MLOAD AND DUP3 DUP6 ADD MSTORE ADD MLOAD PUSH1 0x0 SIGNEXTEND PUSH2 0x100 DUP4 ADD MSTORE SUB SWAP1 RETURN JUMPDEST DUP3 MLOAD PUSH1 0x1 PUSH1 0x1 PUSH1 0x40 SHL SUB AND DUP6 MSTORE PUSH1 0x20 SWAP5 DUP6 ADD SWAP5 SWAP1 SWAP3 ADD SWAP2 PUSH1 0x1 ADD PUSH2 0x24B1 JUMP JUMPDEST PUSH1 0x20 DUP1 SWAP2 PUSH2 0x2540 DUP5 PUSH2 0x38F7 JUMP JUMPDEST DUP2 MSTORE ADD SWAP2 ADD SWAP1 PUSH2 0x23F4 JUMP JUMPDEST PUSH1 0x64 PUSH1 0x40 MLOAD PUSH3 0x461BCD PUSH1 0xE5 SHL DUP2 MSTORE PUSH1 0x20 PUSH1 0x4 DUP3 ADD MSTORE PUSH1 0x20 PUSH1 0x24 DUP3 ADD MSTORE PUSH32 0x546F6B656E496E666F20707265636F6D70696C652063616C6C206661696C6564 PUSH1 0x44 DUP3 ADD MSTORE REVERT JUMPDEST CALLVALUE PUSH2 0x5B9 JUMPI PUSH1 0x0 CALLDATASIZE PUSH1 0x3 NOT ADD SLT PUSH2 0x5B9 JUMPI PUSH1 0x20 PUSH1 0xFF PUSH1 0x0 DUP1 MLOAD PUSH1 0x20 PUSH2 0x4967 DUP4 CODECOPY DUP2 MLOAD SWAP2 MSTORE SLOAD AND PUSH1 0x40 MLOAD SWAP1 ISZERO ISZERO DUP2 MSTORE RETURN JUMPDEST CALLVALUE PUSH2 0x5B9 JUMPI PUSH1 0x20 CALLDATASIZE PUSH1 0x3 NOT ADD SLT PUSH2 0x5B9 JUMPI PUSH4 0xFFFFFFFF DUP1 PUSH2 0x25DE PUSH2 0x30C0 JUMP JUMPDEST AND PUSH1 0x0 MSTORE PUSH1 0x2 PUSH1 0x20 MSTORE PUSH1 0x40 PUSH1 0x0 KECCAK256 SWAP1 DUP2 SLOAD AND PUSH2 0x25FC PUSH1 0x1 DUP4 ADD PUSH2 0x3251 JUMP JUMPDEST SWAP2 PUSH1 0x1 DUP1 PUSH1 0xA0 SHL SUB DUP1 PUSH1 0x2 DUP4 ADD SLOAD AND SWAP2 PUSH1 0xFF PUSH1 0x3 DUP3 ADD SLOAD PUSH1 0x5 PUSH1 0x4 DUP5 ADD SLOAD SWAP4 ADD SLOAD SWAP4 PUSH2 0x263A PUSH1 0x40 MLOAD SWAP9 DUP10 SWAP9 DUP10 MSTORE PUSH2 0x100 DUP1 PUSH1 0x20 DUP12 ADD MSTORE DUP10 ADD SWAP1 PUSH2 0x30F6 JUMP JUMPDEST SWAP6 PUSH1 0x40 DUP9 ADD MSTORE DUP2 AND PUSH1 0x60 DUP8 ADD MSTORE DUP2 DUP2 PUSH1 0xA0 SHR AND PUSH1 0x80 DUP8 ADD MSTORE PUSH1 0xA8 SHR AND ISZERO ISZERO PUSH1 0xA0 DUP6 ADD MSTORE PUSH1 0xC0 DUP5 ADD MSTORE PUSH1 0xE0 DUP4 ADD MSTORE SUB SWAP1 RETURN JUMPDEST CALLVALUE PUSH2 0x5B9 JUMPI PUSH1 0x80 CALLDATASIZE PUSH1 0x3 NOT ADD SLT PUSH2 0x5B9 JUMPI PUSH2 0x2684 PUSH2 0x30AA JUMP JUMPDEST PUSH1 0x24 CALLDATALOAD SWAP1 PUSH1 0x44 CALLDATALOAD SWAP1 PUSH1 0x64 CALLDATALOAD PUSH32 0xF0C57E16840DF040F15088DC2F81FE391C3923BEC73E23A9662EFC9C229C6A00 SWAP4 DUP5 SLOAD SWAP4 PUSH1 0xFF DUP6 PUSH1 0x40 SHR AND ISZERO SWAP5 PUSH1 0x1 PUSH1 0x1 PUSH1 0x40 SHL SUB SWAP5 DUP6 DUP3 AND DUP1 ISZERO SWAP1 DUP2 PUSH2 0x284B JUMPI JUMPDEST PUSH1 0x1 EQ SWAP1 DUP2 PUSH2 0x2841 JUMPI JUMPDEST ISZERO SWAP1 DUP2 PUSH2 0x2838 JUMPI JUMPDEST POP PUSH2 0x2826 JUMPI PUSH8 0xFFFFFFFFFFFFFFFF NOT DUP3 AND PUSH1 0x1 OR DUP9 SSTORE PUSH2 0x2750 SWAP2 DUP8 PUSH2 0x2807 JUMPI JUMPDEST POP PUSH2 0x270D PUSH2 0x3A47 JUMP JUMPDEST PUSH2 0x2715 PUSH2 0x3A47 JUMP JUMPDEST PUSH2 0x271D PUSH2 0x3A47 JUMP JUMPDEST PUSH1 0x1 PUSH1 0x0 DUP1 MLOAD PUSH1 0x20 PUSH2 0x49A7 DUP4 CODECOPY DUP2 MLOAD SWAP2 MSTORE SSTORE PUSH2 0x2737 PUSH2 0x3A47 JUMP JUMPDEST PUSH2 0x2740 DUP2 PUSH2 0x348C JUMP JUMPDEST POP PUSH2 0x274A DUP2 PUSH2 0x351A JUMP JUMPDEST POP PUSH2 0x35CA JUMP JUMPDEST POP PUSH2 0x7D0 SWAP1 DUP2 DUP2 GT ISZERO PUSH2 0x27FF JUMPI POP SWAP1 JUMPDEST PUSH1 0x40 MLOAD SWAP4 PUSH1 0xC0 DUP6 ADD SWAP1 DUP2 GT DUP6 DUP3 LT OR PUSH2 0x5A3 JUMPI PUSH1 0x40 MSTORE DUP1 DUP5 MSTORE DUP2 PUSH1 0x20 DUP6 ADD MSTORE DUP3 PUSH1 0x40 DUP6 ADD MSTORE PUSH1 0x0 PUSH1 0xA0 PUSH2 0x12C SWAP6 DUP7 PUSH1 0x60 DUP3 ADD MSTORE PUSH1 0x1E PUSH1 0x80 DUP3 ADD MSTORE ADD MSTORE PUSH1 0x7 SSTORE PUSH1 0x8 SSTORE PUSH1 0x9 SSTORE PUSH1 0xA SSTORE PUSH1 0x1E PUSH1 0xB SSTORE PUSH1 0xFF NOT PUSH1 0xC SLOAD AND PUSH1 0xC SSTORE PUSH1 0x1 PUSH1 0x5 SSTORE PUSH2 0x27C2 JUMPI STOP JUMPDEST PUSH9 0xFF0000000000000000 NOT DUP2 SLOAD AND SWAP1 SSTORE PUSH32 0xC7F505B2F371AE2175EE4913F4499E1F2633A7B5936321EED1CDAEB6115181D2 PUSH1 0x20 PUSH1 0x40 MLOAD PUSH1 0x1 DUP2 MSTORE LOG1 STOP JUMPDEST SWAP1 POP SWAP1 PUSH2 0x2760 JUMP JUMPDEST PUSH9 0xFFFFFFFFFFFFFFFFFF NOT AND PUSH9 0x10000000000000001 OR DUP9 SSTORE DUP9 PUSH2 0x2704 JUMP JUMPDEST PUSH1 0x40 MLOAD PUSH4 0xF92EE8A9 PUSH1 0xE0 SHL DUP2 MSTORE PUSH1 0x4 SWAP1 REVERT JUMPDEST SWAP1 POP ISZERO DUP10 PUSH2 0x26E4 JUMP JUMPDEST ADDRESS EXTCODESIZE ISZERO SWAP2 POP PUSH2 0x26DC JUMP JUMPDEST DUP9 SWAP2 POP PUSH2 0x26D2 JUMP JUMPDEST CALLVALUE PUSH2 0x5B9 JUMPI PUSH1 0x20 CALLDATASIZE PUSH1 0x3 NOT ADD SLT PUSH2 0x5B9 JUMPI PUSH2 0x1B PUSH2 0x286F PUSH2 0x30AA JUMP JUMPDEST PUSH2 0x2877 PUSH2 0x33C3 JUMP JUMPDEST PUSH2 0x3781 JUMP JUMPDEST CALLVALUE PUSH2 0x5B9 JUMPI PUSH1 0x0 CALLDATASIZE PUSH1 0x3 NOT ADD SLT PUSH2 0x5B9 JUMPI PUSH1 0x20 PUSH1 0x5 SLOAD PUSH1 0x40 MLOAD SWAP1 DUP2 MSTORE RETURN JUMPDEST CALLVALUE PUSH2 0x5B9 JUMPI PUSH1 0x20 CALLDATASIZE PUSH1 0x3 NOT ADD SLT PUSH2 0x5B9 JUMPI PUSH1 0x4 CALLDATALOAD PUSH1 0x0 MSTORE PUSH1 0x3 PUSH1 0x20 MSTORE PUSH1 0x40 PUSH1 0x0 KECCAK256 DUP1 SLOAD PUSH2 0xBA7 PUSH1 0x1 DUP4 ADD SLOAD SWAP3 PUSH1 0x2 DUP2 ADD SLOAD SWAP1 PUSH1 0x3 DUP2 ADD SLOAD PUSH1 0x4 DUP3 ADD SLOAD PUSH1 0x5 DUP4 ADD SLOAD PUSH1 0x1 DUP1 PUSH1 0xA0 SHL SUB PUSH1 0x6 DUP6 ADD SLOAD AND SWAP2 PUSH1 0x7 DUP6 ADD SLOAD SWAP4 PUSH2 0x2903 PUSH1 0x9 PUSH1 0xFF PUSH1 0x8 DUP10 ADD SLOAD AND SWAP8 ADD PUSH2 0x3251 JUMP JUMPDEST SWAP7 PUSH1 0x40 MLOAD SWAP11 DUP12 SWAP11 DUP12 MSTORE PUSH1 0x20 DUP12 ADD MSTORE PUSH1 0x40 DUP11 ADD MSTORE PUSH1 0x60 DUP10 ADD MSTORE PUSH1 0x80 DUP9 ADD MSTORE PUSH1 0xA0 DUP8 ADD MSTORE PUSH1 0xC0 DUP7 ADD MSTORE PUSH1 0xE0 DUP6 ADD MSTORE ISZERO ISZERO PUSH2 0x100 DUP5 ADD MSTORE PUSH2 0x140 DUP1 PUSH2 0x120 DUP6 ADD MSTORE DUP4 ADD SWAP1 PUSH2 0x30F6 JUMP JUMPDEST CALLVALUE PUSH2 0x5B9 JUMPI PUSH1 0x20 DUP1 PUSH1 0x3 NOT CALLDATASIZE ADD SLT PUSH2 0x5B9 JUMPI PUSH2 0x2963 PUSH2 0x30C0 JUMP JUMPDEST PUSH1 0x0 PUSH1 0x80 PUSH1 0x40 MLOAD PUSH2 0x2973 DUP2 PUSH2 0x318C JUMP JUMPDEST PUSH1 0x60 DUP2 MSTORE DUP3 DUP6 DUP3 ADD MSTORE DUP3 PUSH1 0x40 DUP3 ADD MSTORE DUP3 PUSH1 0x60 DUP3 ADD MSTORE ADD MSTORE PUSH1 0x0 DUP1 PUSH1 0x40 MLOAD DUP5 DUP2 ADD SWAP1 PUSH4 0xFFFFFFFF DUP1 SWAP6 AND DUP3 MSTORE DUP6 DUP2 MSTORE PUSH2 0x29AA DUP2 PUSH2 0x31FA JUMP JUMPDEST MLOAD SWAP1 PUSH2 0x80A GAS STATICCALL PUSH2 0x29B9 PUSH2 0x38C7 JUMP JUMPDEST SWAP1 ISZERO PUSH2 0x2A22 JUMPI DUP1 DUP4 DUP1 PUSH2 0x29D1 SWAP4 MLOAD DUP4 ADD ADD SWAP2 ADD PUSH2 0x397C JUMP JUMPDEST SWAP2 PUSH1 0x80 PUSH1 0x40 MLOAD SWAP4 DUP5 SWAP4 DUP4 DUP6 MSTORE PUSH2 0x29F2 DUP3 MLOAD PUSH1 0xA0 DUP7 DUP9 ADD MSTORE PUSH1 0xC0 DUP8 ADD SWAP1 PUSH2 0x30F6 JUMP JUMPDEST SWAP4 DUP3 ADD MLOAD AND PUSH1 0x40 DUP6 ADD MSTORE PUSH1 0xFF PUSH1 0x40 DUP3 ADD MLOAD AND PUSH1 0x60 DUP6 ADD MSTORE PUSH1 0xFF PUSH1 0x60 DUP3 ADD MLOAD AND DUP3 DUP6 ADD MSTORE ADD MLOAD ISZERO ISZERO PUSH1 0xA0 DUP4 ADD MSTORE SUB SWAP1 RETURN JUMPDEST PUSH1 0x40 MLOAD PUSH3 0x461BCD PUSH1 0xE5 SHL DUP2 MSTORE PUSH1 0x4 DUP2 ADD DUP5 SWAP1 MSTORE PUSH1 0x24 DUP1 DUP3 ADD MSTORE PUSH32 0x506572704173736574496E666F20707265636F6D70696C652063616C6C206661 PUSH1 0x44 DUP3 ADD MSTORE PUSH4 0x1A5B1959 PUSH1 0xE2 SHL PUSH1 0x64 DUP3 ADD MSTORE PUSH1 0x84 SWAP1 REVERT JUMPDEST CALLVALUE PUSH2 0x5B9 JUMPI PUSH1 0x20 CALLDATASIZE PUSH1 0x3 NOT ADD SLT PUSH2 0x5B9 JUMPI PUSH1 0x60 PUSH2 0x120 PUSH1 0x40 MLOAD PUSH2 0x2A95 DUP2 PUSH2 0x3170 JUMP JUMPDEST PUSH1 0x0 DUP2 MSTORE PUSH1 0x0 PUSH1 0x20 DUP3 ADD MSTORE PUSH1 0x0 PUSH1 0x40 DUP3 ADD MSTORE PUSH1 0x0 DUP4 DUP3 ADD MSTORE PUSH1 0x0 PUSH1 0x80 DUP3 ADD MSTORE PUSH1 0x0 PUSH1 0xA0 DUP3 ADD MSTORE PUSH1 0x0 PUSH1 0xC0 DUP3 ADD MSTORE PUSH1 0x0 PUSH1 0xE0 DUP3 ADD MSTORE PUSH1 0x0 PUSH2 0x100 DUP3 ADD MSTORE ADD MSTORE PUSH1 0x4 CALLDATALOAD PUSH1 0x0 MSTORE PUSH1 0x3 PUSH1 0x20 MSTORE PUSH2 0x120 PUSH1 0x40 PUSH1 0x0 KECCAK256 PUSH2 0x2B61 PUSH1 0x9 PUSH1 0x40 MLOAD SWAP3 PUSH2 0x2AF8 DUP5 PUSH2 0x3170 JUMP JUMPDEST DUP1 SLOAD DUP5 MSTORE PUSH1 0x1 DUP2 ADD SLOAD PUSH1 0x20 DUP6 ADD MSTORE PUSH1 0x2 DUP2 ADD SLOAD PUSH1 0x40 DUP6 ADD MSTORE PUSH1 0x3 DUP2 ADD SLOAD PUSH1 0x60 DUP6 ADD MSTORE PUSH1 0x4 DUP2 ADD SLOAD PUSH1 0x80 DUP6 ADD MSTORE PUSH1 0x5 DUP2 ADD SLOAD PUSH1 0xA0 DUP6 ADD MSTORE PUSH1 0x6 DUP2 ADD SLOAD PUSH1 0x1 PUSH1 0x1 PUSH1 0xA0 SHL SUB AND PUSH1 0xC0 DUP6 ADD MSTORE PUSH1 0x7 DUP2 ADD SLOAD PUSH1 0xE0 DUP6 ADD MSTORE PUSH1 0x8 DUP2 ADD SLOAD PUSH1 0xFF AND ISZERO ISZERO PUSH2 0x100 DUP6 ADD MSTORE ADD PUSH2 0x3251 JUMP JUMPDEST DUP3 DUP3 ADD MSTORE PUSH2 0xBA7 PUSH1 0x40 MLOAD SWAP3 DUP4 SWAP3 PUSH1 0x20 DUP5 MSTORE DUP1 MLOAD PUSH1 0x20 DUP6 ADD MSTORE PUSH1 0x20 DUP2 ADD MLOAD PUSH1 0x40 DUP6 ADD MSTORE PUSH1 0x40 DUP2 ADD MLOAD PUSH1 0x60 DUP6 ADD MSTORE PUSH1 0x60 DUP2 ADD MLOAD PUSH1 0x80 DUP6 ADD MSTORE PUSH1 0x80 DUP2 ADD MLOAD PUSH1 0xA0 DUP6 ADD MSTORE PUSH1 0xA0 DUP2 ADD MLOAD PUSH1 0xC0 DUP6 ADD MSTORE PUSH1 0x1 DUP1 PUSH1 0xA0 SHL SUB PUSH1 0xC0 DUP3 ADD MLOAD AND PUSH1 0xE0 DUP6 ADD MSTORE PUSH1 0xE0 DUP2 ADD MLOAD PUSH2 0x100 DUP6 ADD MSTORE PUSH2 0x100 DUP2 ADD MLOAD ISZERO ISZERO DUP3 DUP6 ADD MSTORE ADD MLOAD PUSH2 0x140 DUP1 DUP5 ADD MSTORE PUSH2 0x160 DUP4 ADD SWAP1 PUSH2 0x30F6 JUMP JUMPDEST CALLVALUE PUSH2 0x5B9 JUMPI PUSH1 0x0 CALLDATASIZE PUSH1 0x3 NOT ADD SLT PUSH2 0x5B9 JUMPI PUSH2 0x2C01 PUSH2 0x33FD JUMP JUMPDEST PUSH1 0x0 DUP1 MLOAD PUSH1 0x20 PUSH2 0x4967 DUP4 CODECOPY DUP2 MLOAD SWAP2 MSTORE DUP1 SLOAD PUSH1 0xFF DUP2 AND ISZERO PUSH2 0x2C4D JUMPI PUSH1 0xFF NOT AND SWAP1 SSTORE PUSH32 0x5DB9EE0A495BF2E6FF9C91A7834C1BA4FDD244A5E8AA4E537BD38AEAE4B073AA PUSH1 0x20 PUSH1 0x40 MLOAD CALLER DUP2 MSTORE LOG1 STOP JUMPDEST PUSH1 0x40 MLOAD PUSH4 0x8DFC202B PUSH1 0xE0 SHL DUP2 MSTORE PUSH1 0x4 SWAP1 REVERT JUMPDEST CALLVALUE PUSH2 0x5B9 JUMPI PUSH1 0x20 CALLDATASIZE PUSH1 0x3 NOT ADD SLT PUSH2 0x5B9 JUMPI PUSH1 0x20 PUSH2 0x2C82 PUSH2 0x2C7D PUSH2 0x30C0 JUMP JUMPDEST PUSH2 0x431F JUMP JUMPDEST PUSH1 0x40 MLOAD SWAP1 DUP2 MSTORE RETURN JUMPDEST CALLVALUE PUSH2 0x5B9 JUMPI PUSH1 0x20 DUP1 PUSH1 0x3 NOT CALLDATASIZE ADD SLT PUSH2 0x5B9 JUMPI PUSH1 0x0 DUP1 PUSH2 0x2CA7 PUSH2 0x30AA JUMP JUMPDEST DUP2 PUSH1 0x60 PUSH1 0x40 MLOAD PUSH2 0x2CB6 DUP2 PUSH2 0x3155 JUMP JUMPDEST DUP3 DUP2 MSTORE DUP3 DUP8 DUP3 ADD MSTORE DUP3 PUSH1 0x40 DUP3 ADD MSTORE ADD MSTORE PUSH1 0x40 MLOAD DUP5 DUP2 ADD SWAP2 PUSH1 0x1 DUP1 PUSH1 0xA0 SHL SUB AND DUP3 MSTORE DUP5 DUP2 MSTORE PUSH2 0x2CE3 DUP2 PUSH2 0x31FA JUMP JUMPDEST MLOAD SWAP1 PUSH2 0x805 GAS STATICCALL SWAP1 PUSH2 0x2CF3 PUSH2 0x38C7 JUMP JUMPDEST SWAP2 ISZERO PUSH2 0x2D84 JUMPI PUSH1 0x80 DUP3 DUP1 MLOAD DUP2 ADD SUB SLT PUSH2 0x5B9 JUMPI PUSH1 0x80 SWAP2 PUSH1 0x40 MLOAD PUSH2 0x2D15 DUP2 PUSH2 0x3155 JUMP JUMPDEST PUSH2 0x2D20 DUP4 DUP4 ADD PUSH2 0x38F7 JUMP JUMPDEST DUP1 DUP3 MSTORE PUSH2 0x2D2F PUSH1 0x40 DUP5 ADD PUSH2 0x38F7 JUMP JUMPDEST SWAP3 DUP5 DUP4 ADD SWAP4 DUP5 MSTORE PUSH1 0x60 PUSH2 0x2D55 DUP8 PUSH2 0x2D47 DUP4 DUP6 ADD PUSH2 0x38F7 JUMP JUMPDEST SWAP4 PUSH1 0x40 DUP8 ADD SWAP5 DUP6 MSTORE ADD PUSH2 0x38F7 JUMP JUMPDEST SWAP4 ADD SWAP3 DUP4 MSTORE PUSH1 0x40 MLOAD SWAP5 PUSH1 0x1 PUSH1 0x1 PUSH1 0x40 SHL SUB DUP1 SWAP6 DUP2 DUP1 SWAP6 AND DUP9 MSTORE MLOAD AND SWAP1 DUP7 ADD MSTORE MLOAD AND PUSH1 0x40 DUP5 ADD MSTORE MLOAD AND PUSH1 0x60 DUP3 ADD MSTORE RETURN JUMPDEST PUSH1 0x84 SWAP1 PUSH1 0x40 MLOAD SWAP1 PUSH3 0x461BCD PUSH1 0xE5 SHL DUP3 MSTORE PUSH1 0x4 DUP3 ADD MSTORE PUSH1 0x28 PUSH1 0x24 DUP3 ADD MSTORE PUSH32 0x44656C656761746F727953756D6D61727920707265636F6D70696C652063616C PUSH1 0x44 DUP3 ADD MSTORE PUSH8 0x1B0819985A5B1959 PUSH1 0xC2 SHL PUSH1 0x64 DUP3 ADD MSTORE REVERT JUMPDEST CALLVALUE PUSH2 0x5B9 JUMPI PUSH1 0x40 CALLDATASIZE PUSH1 0x3 NOT ADD SLT PUSH2 0x5B9 JUMPI PUSH2 0x2DF2 PUSH2 0x3094 JUMP JUMPDEST CALLER PUSH1 0x1 PUSH1 0x1 PUSH1 0xA0 SHL SUB DUP3 AND SUB PUSH2 0x2E0E JUMPI PUSH2 0x1B SWAP1 PUSH1 0x4 CALLDATALOAD PUSH2 0x3829 JUMP JUMPDEST PUSH1 0x40 MLOAD PUSH4 0x334BD919 PUSH1 0xE1 SHL DUP2 MSTORE PUSH1 0x4 SWAP1 REVERT JUMPDEST CALLVALUE PUSH2 0x5B9 JUMPI PUSH1 0xC0 CALLDATASIZE PUSH1 0x3 NOT ADD SLT PUSH2 0x5B9 JUMPI PUSH2 0x2E39 PUSH2 0x33C3 JUMP JUMPDEST PUSH1 0x24 CALLDATALOAD PUSH2 0x7D0 DUP1 DUP3 GT PUSH2 0x2E82 JUMPI POP PUSH1 0x4 CALLDATALOAD PUSH1 0x7 SSTORE PUSH1 0x8 SSTORE PUSH1 0x44 CALLDATALOAD PUSH1 0x9 SSTORE PUSH1 0x64 CALLDATALOAD PUSH1 0xA SSTORE PUSH1 0x84 CALLDATALOAD PUSH1 0xB SSTORE PUSH1 0xA4 CALLDATALOAD DUP1 ISZERO ISZERO DUP1 SWAP2 SUB PUSH2 0x5B9 JUMPI PUSH1 0xFF DUP1 NOT PUSH1 0xC SLOAD AND SWAP2 AND OR PUSH1 0xC SSTORE PUSH1 0x0 DUP1 RETURN JUMPDEST PUSH1 0x40 MLOAD PUSH4 0x3B5D56ED PUSH1 0xE1 SHL DUP2 MSTORE PUSH1 0x4 DUP2 ADD SWAP3 SWAP1 SWAP3 MSTORE PUSH1 0x24 DUP3 ADD MSTORE PUSH1 0x44 SWAP1 REVERT JUMPDEST CALLVALUE PUSH2 0x5B9 JUMPI PUSH1 0x40 CALLDATASIZE PUSH1 0x3 NOT ADD SLT PUSH2 0x5B9 JUMPI PUSH2 0x1B PUSH1 0x4 CALLDATALOAD PUSH2 0x2EC0 PUSH2 0x3094 JUMP JUMPDEST SWAP1 DUP1 PUSH1 0x0 MSTORE PUSH1 0x0 DUP1 MLOAD PUSH1 0x20 PUSH2 0x4947 DUP4 CODECOPY DUP2 MLOAD SWAP2 MSTORE PUSH1 0x20 MSTORE PUSH2 0x2EE8 PUSH1 0x1 PUSH1 0x40 PUSH1 0x0 KECCAK256 ADD SLOAD PUSH2 0x3459 JUMP JUMPDEST PUSH2 0x370C JUMP JUMPDEST CALLVALUE PUSH2 0x5B9 JUMPI PUSH1 0x0 CALLDATASIZE PUSH1 0x3 NOT ADD SLT PUSH2 0x5B9 JUMPI PUSH1 0x0 DUP1 PUSH1 0x40 MLOAD DUP2 DUP2 MSTORE PUSH2 0x2F10 DUP2 PUSH2 0x3215 JUMP JUMPDEST PUSH1 0x20 DUP2 MLOAD SWAP2 ADD PUSH2 0x809 GAS STATICCALL PUSH2 0x2F23 PUSH2 0x38C7 JUMP JUMPDEST SWAP1 ISZERO PUSH2 0x2F43 JUMPI PUSH1 0x20 DUP2 DUP1 MLOAD DUP2 ADD SUB SLT PUSH2 0x5B9 JUMPI PUSH2 0xAD5 PUSH1 0x20 DUP1 SWAP3 ADD PUSH2 0x38F7 JUMP JUMPDEST PUSH1 0x40 MLOAD PUSH3 0x461BCD PUSH1 0xE5 SHL DUP2 MSTORE PUSH1 0x20 PUSH1 0x4 DUP3 ADD MSTORE PUSH1 0x24 DUP1 DUP3 ADD MSTORE PUSH32 0x4C31426C6F636B4E756D62657220707265636F6D70696C652063616C6C206661 PUSH1 0x44 DUP3 ADD MSTORE PUSH4 0x1A5B1959 PUSH1 0xE2 SHL PUSH1 0x64 DUP3 ADD MSTORE PUSH1 0x84 SWAP1 REVERT JUMPDEST CALLVALUE PUSH2 0x5B9 JUMPI PUSH1 0x20 CALLDATASIZE PUSH1 0x3 NOT ADD SLT PUSH2 0x5B9 JUMPI PUSH1 0x4 CALLDATALOAD PUSH1 0x0 MSTORE PUSH1 0x0 DUP1 MLOAD PUSH1 0x20 PUSH2 0x4947 DUP4 CODECOPY DUP2 MLOAD SWAP2 MSTORE PUSH1 0x20 MSTORE PUSH1 0x20 PUSH1 0x1 PUSH1 0x40 PUSH1 0x0 KECCAK256 ADD SLOAD PUSH1 0x40 MLOAD SWAP1 DUP2 MSTORE RETURN JUMPDEST CALLVALUE PUSH2 0x5B9 JUMPI PUSH1 0x20 CALLDATASIZE PUSH1 0x3 NOT ADD SLT PUSH2 0x5B9 JUMPI PUSH2 0x2FE9 PUSH2 0x3AF3 JUMP JUMPDEST PUSH2 0x2FF1 PUSH2 0x3AC8 JUMP JUMPDEST PUSH2 0x2FF9 PUSH2 0x3379 JUMP JUMPDEST PUSH2 0x3004 PUSH1 0x4 CALLDATALOAD PUSH2 0x3BEC JUMP JUMPDEST PUSH1 0x1 PUSH1 0x0 DUP1 MLOAD PUSH1 0x20 PUSH2 0x49A7 DUP4 CODECOPY DUP2 MLOAD SWAP2 MSTORE SSTORE STOP JUMPDEST CALLVALUE PUSH2 0x5B9 JUMPI PUSH1 0x0 CALLDATASIZE PUSH1 0x3 NOT ADD SLT PUSH2 0x5B9 JUMPI PUSH1 0x20 PUSH1 0x40 MLOAD PUSH1 0x0 DUP1 MLOAD PUSH1 0x20 PUSH2 0x4987 DUP4 CODECOPY DUP2 MLOAD SWAP2 MSTORE DUP2 MSTORE RETURN JUMPDEST CALLVALUE PUSH2 0x5B9 JUMPI PUSH1 0x20 CALLDATASIZE PUSH1 0x3 NOT ADD SLT PUSH2 0x5B9 JUMPI PUSH1 0x4 CALLDATALOAD SWAP1 PUSH4 0xFFFFFFFF PUSH1 0xE0 SHL DUP3 AND DUP1 SWAP3 SUB PUSH2 0x5B9 JUMPI PUSH1 0x20 SWAP2 PUSH4 0x7965DB0B PUSH1 0xE0 SHL DUP2 EQ SWAP1 DUP2 ISZERO PUSH2 0x3083 JUMPI JUMPDEST POP ISZERO ISZERO DUP2 MSTORE RETURN JUMPDEST PUSH4 0x1FFC9A7 PUSH1 0xE0 SHL EQ SWAP1 POP DUP4 PUSH2 0x307C JUMP JUMPDEST PUSH1 0x24 CALLDATALOAD SWAP1 PUSH1 0x1 PUSH1 0x1 PUSH1 0xA0 SHL SUB DUP3 AND DUP3 SUB PUSH2 0x5B9 JUMPI JUMP JUMPDEST PUSH1 0x4 CALLDATALOAD SWAP1 PUSH1 0x1 PUSH1 0x1 PUSH1 0xA0 SHL SUB DUP3 AND DUP3 SUB PUSH2 0x5B9 JUMPI JUMP JUMPDEST PUSH1 0x4 CALLDATALOAD SWAP1 PUSH4 0xFFFFFFFF DUP3 AND DUP3 SUB PUSH2 0x5B9 JUMPI JUMP JUMPDEST PUSH1 0x0 JUMPDEST DUP4 DUP2 LT PUSH2 0x30E6 JUMPI POP POP PUSH1 0x0 SWAP2 ADD MSTORE JUMP JUMPDEST DUP2 DUP2 ADD MLOAD DUP4 DUP3 ADD MSTORE PUSH1 0x20 ADD PUSH2 0x30D6 JUMP JUMPDEST SWAP1 PUSH1 0x20 SWAP2 PUSH2 0x310F DUP2 MLOAD DUP1 SWAP3 DUP2 DUP6 MSTORE DUP6 DUP1 DUP7 ADD SWAP2 ADD PUSH2 0x30D3 JUMP JUMPDEST PUSH1 0x1F ADD PUSH1 0x1F NOT AND ADD ADD SWAP1 JUMP JUMPDEST SWAP1 PUSH1 0x1 DUP3 DUP2 SHR SWAP3 AND DUP1 ISZERO PUSH2 0x314B JUMPI JUMPDEST PUSH1 0x20 DUP4 LT EQ PUSH2 0x3135 JUMPI JUMP JUMPDEST PUSH4 0x4E487B71 PUSH1 0xE0 SHL PUSH1 0x0 MSTORE PUSH1 0x22 PUSH1 0x4 MSTORE PUSH1 0x24 PUSH1 0x0 REVERT JUMPDEST SWAP2 PUSH1 0x7F AND SWAP2 PUSH2 0x312A JUMP JUMPDEST PUSH1 0x80 DUP2 ADD SWAP1 DUP2 LT PUSH1 0x1 PUSH1 0x1 PUSH1 0x40 SHL SUB DUP3 GT OR PUSH2 0x5A3 JUMPI PUSH1 0x40 MSTORE JUMP JUMPDEST PUSH2 0x140 DUP2 ADD SWAP1 DUP2 LT PUSH1 0x1 PUSH1 0x1 PUSH1 0x40 SHL SUB DUP3 GT OR PUSH2 0x5A3 JUMPI PUSH1 0x40 MSTORE JUMP JUMPDEST PUSH1 0xA0 DUP2 ADD SWAP1 DUP2 LT PUSH1 0x1 PUSH1 0x1 PUSH1 0x40 SHL SUB DUP3 GT OR PUSH2 0x5A3 JUMPI PUSH1 0x40 MSTORE JUMP JUMPDEST PUSH2 0x100 DUP2 ADD SWAP1 DUP2 LT PUSH1 0x1 PUSH1 0x1 PUSH1 0x40 SHL SUB DUP3 GT OR PUSH2 0x5A3 JUMPI PUSH1 0x40 MSTORE JUMP JUMPDEST PUSH2 0x200 DUP2 ADD SWAP1 DUP2 LT PUSH1 0x1 PUSH1 0x1 PUSH1 0x40 SHL SUB DUP3 GT OR PUSH2 0x5A3 JUMPI PUSH1 0x40 MSTORE JUMP JUMPDEST PUSH1 0x60 DUP2 ADD SWAP1 DUP2 LT PUSH1 0x1 PUSH1 0x1 PUSH1 0x40 SHL SUB DUP3 GT OR PUSH2 0x5A3 JUMPI PUSH1 0x40 MSTORE JUMP JUMPDEST PUSH1 0x40 DUP2 ADD SWAP1 DUP2 LT PUSH1 0x1 PUSH1 0x1 PUSH1 0x40 SHL SUB DUP3 GT OR PUSH2 0x5A3 JUMPI PUSH1 0x40 MSTORE JUMP JUMPDEST PUSH1 0x20 DUP2 ADD SWAP1 DUP2 LT PUSH1 0x1 PUSH1 0x1 PUSH1 0x40 SHL SUB DUP3 GT OR PUSH2 0x5A3 JUMPI PUSH1 0x40 MSTORE JUMP JUMPDEST SWAP1 PUSH1 0x1F DUP1 NOT SWAP2 ADD AND DUP2 ADD SWAP1 DUP2 LT PUSH1 0x1 PUSH1 0x1 PUSH1 0x40 SHL SUB DUP3 GT OR PUSH2 0x5A3 JUMPI PUSH1 0x40 MSTORE JUMP JUMPDEST SWAP1 PUSH1 0x40 MLOAD SWAP2 DUP3 PUSH1 0x0 DUP3 SLOAD SWAP3 PUSH2 0x3265 DUP5 PUSH2 0x311B JUMP JUMPDEST SWAP1 DUP2 DUP5 MSTORE PUSH1 0x1 SWAP5 DUP6 DUP2 AND SWAP1 DUP2 PUSH1 0x0 EQ PUSH2 0x32D4 JUMPI POP PUSH1 0x1 EQ PUSH2 0x3291 JUMPI JUMPDEST POP POP PUSH2 0x328F SWAP3 POP SUB DUP4 PUSH2 0x3230 JUMP JUMPDEST JUMP JUMPDEST SWAP1 SWAP4 SWAP2 POP PUSH1 0x0 MSTORE PUSH1 0x20 SWAP1 DUP2 PUSH1 0x0 KECCAK256 SWAP4 PUSH1 0x0 SWAP2 JUMPDEST DUP2 DUP4 LT PUSH2 0x32BC JUMPI POP POP PUSH2 0x328F SWAP4 POP DUP3 ADD ADD CODESIZE DUP1 PUSH2 0x3281 JUMP JUMPDEST DUP6 SLOAD DUP9 DUP5 ADD DUP6 ADD MSTORE SWAP5 DUP6 ADD SWAP5 DUP8 SWAP5 POP SWAP2 DUP4 ADD SWAP2 PUSH2 0x32A4 JUMP JUMPDEST SWAP2 POP POP PUSH2 0x328F SWAP5 POP PUSH1 0x20 SWAP3 POP PUSH1 0xFF NOT AND DUP3 DUP5 ADD MSTORE ISZERO ISZERO PUSH1 0x5 SHL DUP3 ADD ADD CODESIZE DUP1 PUSH2 0x3281 JUMP JUMPDEST SWAP1 PUSH1 0x4 DUP3 LT ISZERO PUSH2 0x8FB JUMPI MSTORE JUMP JUMPDEST SWAP1 PUSH1 0x2 DUP3 LT ISZERO PUSH2 0x8FB JUMPI MSTORE JUMP JUMPDEST SWAP1 PUSH1 0x5 DUP3 LT ISZERO PUSH2 0x8FB JUMPI MSTORE JUMP JUMPDEST DUP1 SLOAD DUP3 LT ISZERO PUSH2 0x3336 JUMPI PUSH1 0x0 MSTORE PUSH1 0x20 PUSH1 0x0 KECCAK256 ADD SWAP1 PUSH1 0x0 SWAP1 JUMP JUMPDEST PUSH4 0x4E487B71 PUSH1 0xE0 SHL PUSH1 0x0 MSTORE PUSH1 0x32 PUSH1 0x4 MSTORE PUSH1 0x24 PUSH1 0x0 REVERT JUMPDEST SWAP2 DUP2 PUSH1 0x1F DUP5 ADD SLT ISZERO PUSH2 0x5B9 JUMPI DUP3 CALLDATALOAD SWAP2 PUSH1 0x1 PUSH1 0x1 PUSH1 0x40 SHL SUB DUP4 GT PUSH2 0x5B9 JUMPI PUSH1 0x20 DUP4 DUP2 DUP7 ADD SWAP6 ADD ADD GT PUSH2 0x5B9 JUMPI JUMP JUMPDEST CALLER PUSH1 0x0 SWAP1 DUP2 MSTORE PUSH32 0x52FCE5E8A5D0D9E8D1EA29F4525E512E9C27BF92CAE50374D497F918AB48F382 PUSH1 0x20 MSTORE PUSH1 0x40 SWAP1 KECCAK256 SLOAD PUSH1 0x0 DUP1 MLOAD PUSH1 0x20 PUSH2 0x4987 DUP4 CODECOPY DUP2 MLOAD SWAP2 MSTORE SWAP1 PUSH1 0xFF AND ISZERO PUSH2 0x5BE JUMPI POP JUMP JUMPDEST CALLER PUSH1 0x0 SWAP1 DUP2 MSTORE PUSH32 0xB7DB2DD08FCB62D0C9E08C51941CAE53C267786A0B75803FB7960902FC8EF97D PUSH1 0x20 MSTORE PUSH1 0x40 DUP2 KECCAK256 SLOAD PUSH1 0xFF AND ISZERO PUSH2 0x5BE JUMPI POP JUMP JUMPDEST CALLER PUSH1 0x0 SWAP1 DUP2 MSTORE PUSH32 0x75442B0A96088B5456BC4ED01394C96A4FEEC0F883C9494257D76B96AB1C9B6B PUSH1 0x20 MSTORE PUSH1 0x40 SWAP1 KECCAK256 SLOAD PUSH32 0x65D7A28E3265B37A6474929F336521B332C1681B933F6CB9F3376673440D862A SWAP1 PUSH1 0xFF AND ISZERO PUSH2 0x5BE JUMPI POP JUMP JUMPDEST DUP1 PUSH1 0x0 MSTORE PUSH1 0x0 DUP1 MLOAD PUSH1 0x20 PUSH2 0x4947 DUP4 CODECOPY DUP2 MLOAD SWAP2 MSTORE PUSH1 0x20 MSTORE PUSH1 0x40 PUSH1 0x0 KECCAK256 CALLER PUSH1 0x0 MSTORE PUSH1 0x20 MSTORE PUSH1 0xFF PUSH1 0x40 PUSH1 0x0 KECCAK256 SLOAD AND ISZERO PUSH2 0x5BE JUMPI POP JUMP JUMPDEST PUSH1 0x1 PUSH1 0x1 PUSH1 0xA0 SHL SUB AND PUSH1 0x0 DUP2 DUP2 MSTORE PUSH32 0xB7DB2DD08FCB62D0C9E08C51941CAE53C267786A0B75803FB7960902FC8EF97D PUSH1 0x20 MSTORE PUSH1 0x40 DUP2 KECCAK256 SLOAD SWAP1 SWAP2 SWAP1 PUSH1 0x0 DUP1 MLOAD PUSH1 0x20 PUSH2 0x4947 DUP4 CODECOPY DUP2 MLOAD SWAP2 MSTORE SWAP1 PUSH1 0xFF AND PUSH2 0x3515 JUMPI DUP3 DUP1 MSTORE PUSH1 0x20 MSTORE PUSH1 0x40 DUP3 KECCAK256 DUP2 DUP4 MSTORE PUSH1 0x20 MSTORE PUSH1 0x40 DUP3 KECCAK256 PUSH1 0x1 PUSH1 0xFF NOT DUP3 SLOAD AND OR SWAP1 SSTORE CALLER SWAP2 PUSH1 0x0 DUP1 MLOAD PUSH1 0x20 PUSH2 0x4927 DUP4 CODECOPY DUP2 MLOAD SWAP2 MSTORE DUP2 DUP1 LOG4 PUSH1 0x1 SWAP1 JUMP JUMPDEST POP POP SWAP1 JUMP JUMPDEST PUSH1 0x1 PUSH1 0x1 PUSH1 0xA0 SHL SUB AND PUSH1 0x0 DUP2 DUP2 MSTORE PUSH32 0x75442B0A96088B5456BC4ED01394C96A4FEEC0F883C9494257D76B96AB1C9B6B PUSH1 0x20 MSTORE PUSH1 0x40 DUP2 KECCAK256 SLOAD SWAP1 SWAP2 SWAP1 PUSH32 0x65D7A28E3265B37A6474929F336521B332C1681B933F6CB9F3376673440D862A SWAP1 PUSH1 0x0 DUP1 MLOAD PUSH1 0x20 PUSH2 0x4947 DUP4 CODECOPY DUP2 MLOAD SWAP2 MSTORE SWAP1 PUSH1 0xFF AND PUSH2 0x35C4 JUMPI DUP2 DUP5 MSTORE PUSH1 0x20 MSTORE PUSH1 0x40 DUP4 KECCAK256 DUP3 DUP5 MSTORE PUSH1 0x20 MSTORE PUSH1 0x40 DUP4 KECCAK256 PUSH1 0x1 PUSH1 0xFF NOT DUP3 SLOAD AND OR SWAP1 SSTORE PUSH1 0x0 DUP1 MLOAD PUSH1 0x20 PUSH2 0x4927 DUP4 CODECOPY DUP2 MLOAD SWAP2 MSTORE CALLER SWAP4 DUP1 LOG4 PUSH1 0x1 SWAP1 JUMP JUMPDEST POP POP POP SWAP1 JUMP JUMPDEST PUSH1 0x1 PUSH1 0x1 PUSH1 0xA0 SHL SUB AND PUSH1 0x0 DUP2 DUP2 MSTORE PUSH32 0x5BC841A6D925A620866922BADA36D16DA3DCC9D52290519EA1126E5CA2372139 PUSH1 0x20 MSTORE PUSH1 0x40 DUP2 KECCAK256 SLOAD SWAP1 SWAP2 SWAP1 PUSH32 0xB1FADD3142AB2AD7F1337EA4D97112BCC8337FC11CE5B20CB04AD038ADF99819 SWAP1 PUSH1 0x0 DUP1 MLOAD PUSH1 0x20 PUSH2 0x4947 DUP4 CODECOPY DUP2 MLOAD SWAP2 MSTORE SWAP1 PUSH1 0xFF AND PUSH2 0x35C4 JUMPI DUP2 DUP5 MSTORE PUSH1 0x20 MSTORE PUSH1 0x40 DUP4 KECCAK256 DUP3 DUP5 MSTORE PUSH1 0x20 MSTORE PUSH1 0x40 DUP4 KECCAK256 PUSH1 0x1 PUSH1 0xFF NOT DUP3 SLOAD AND OR SWAP1 SSTORE PUSH1 0x0 DUP1 MLOAD PUSH1 0x20 PUSH2 0x4927 DUP4 CODECOPY DUP2 MLOAD SWAP2 MSTORE CALLER SWAP4 DUP1 LOG4 PUSH1 0x1 SWAP1 JUMP JUMPDEST PUSH1 0x1 PUSH1 0x1 PUSH1 0xA0 SHL SUB AND PUSH1 0x0 DUP2 DUP2 MSTORE PUSH32 0x52FCE5E8A5D0D9E8D1EA29F4525E512E9C27BF92CAE50374D497F918AB48F382 PUSH1 0x20 MSTORE PUSH1 0x40 DUP2 KECCAK256 SLOAD SWAP1 SWAP2 SWAP1 PUSH1 0x0 DUP1 MLOAD PUSH1 0x20 PUSH2 0x4987 DUP4 CODECOPY DUP2 MLOAD SWAP2 MSTORE SWAP1 PUSH1 0x0 DUP1 MLOAD PUSH1 0x20 PUSH2 0x4947 DUP4 CODECOPY DUP2 MLOAD SWAP2 MSTORE SWAP1 PUSH1 0xFF AND PUSH2 0x35C4 JUMPI DUP2 DUP5 MSTORE PUSH1 0x20 MSTORE PUSH1 0x40 DUP4 KECCAK256 DUP3 DUP5 MSTORE PUSH1 0x20 MSTORE PUSH1 0x40 DUP4 KECCAK256 PUSH1 0x1 PUSH1 0xFF NOT DUP3 SLOAD AND OR SWAP1 SSTORE PUSH1 0x0 DUP1 MLOAD PUSH1 0x20 PUSH2 0x4927 DUP4 CODECOPY DUP2 MLOAD SWAP2 MSTORE CALLER SWAP4 DUP1 LOG4 PUSH1 0x1 SWAP1 JUMP JUMPDEST SWAP1 PUSH1 0x0 SWAP2 DUP1 DUP4 MSTORE PUSH1 0x0 DUP1 MLOAD PUSH1 0x20 PUSH2 0x4947 DUP4 CODECOPY DUP2 MLOAD SWAP2 MSTORE DUP1 PUSH1 0x20 MSTORE PUSH1 0x40 DUP5 KECCAK256 SWAP3 PUSH1 0x1 DUP1 PUSH1 0xA0 SHL SUB AND SWAP3 DUP4 DUP6 MSTORE PUSH1 0x20 MSTORE PUSH1 0xFF PUSH1 0x40 DUP6 KECCAK256 SLOAD AND ISZERO PUSH1 0x0 EQ PUSH2 0x35C4 JUMPI DUP2 DUP5 MSTORE PUSH1 0x20 MSTORE PUSH1 0x40 DUP4 KECCAK256 DUP3 DUP5 MSTORE PUSH1 0x20 MSTORE PUSH1 0x40 DUP4 KECCAK256 PUSH1 0x1 PUSH1 0xFF NOT DUP3 SLOAD AND OR SWAP1 SSTORE PUSH1 0x0 DUP1 MLOAD PUSH1 0x20 PUSH2 0x4927 DUP4 CODECOPY DUP2 MLOAD SWAP2 MSTORE CALLER SWAP4 DUP1 LOG4 PUSH1 0x1 SWAP1 JUMP JUMPDEST PUSH1 0x1 PUSH1 0x1 PUSH1 0xA0 SHL SUB AND PUSH1 0x0 DUP2 DUP2 MSTORE PUSH32 0x52FCE5E8A5D0D9E8D1EA29F4525E512E9C27BF92CAE50374D497F918AB48F382 PUSH1 0x20 MSTORE PUSH1 0x40 DUP2 KECCAK256 SLOAD SWAP1 SWAP2 SWAP1 PUSH1 0x0 DUP1 MLOAD PUSH1 0x20 PUSH2 0x4987 DUP4 CODECOPY DUP2 MLOAD SWAP2 MSTORE SWAP1 PUSH1 0x0 DUP1 MLOAD PUSH1 0x20 PUSH2 0x4947 DUP4 CODECOPY DUP2 MLOAD SWAP2 MSTORE SWAP1 PUSH1 0xFF AND ISZERO PUSH2 0x35C4 JUMPI DUP2 DUP5 MSTORE PUSH1 0x20 MSTORE PUSH1 0x40 DUP4 KECCAK256 DUP3 DUP5 MSTORE PUSH1 0x20 MSTORE PUSH1 0x40 DUP4 KECCAK256 PUSH1 0xFF NOT DUP2 SLOAD AND SWAP1 SSTORE PUSH32 0xF6391F5C32D9C69D2A47EA670B442974B53935D1EDC7FD64EB21E047A839171B CALLER SWAP4 DUP1 LOG4 PUSH1 0x1 SWAP1 JUMP JUMPDEST SWAP1 PUSH1 0x0 SWAP2 DUP1 DUP4 MSTORE PUSH1 0x0 DUP1 MLOAD PUSH1 0x20 PUSH2 0x4947 DUP4 CODECOPY DUP2 MLOAD SWAP2 MSTORE DUP1 PUSH1 0x20 MSTORE PUSH1 0x40 DUP5 KECCAK256 SWAP3 PUSH1 0x1 DUP1 PUSH1 0xA0 SHL SUB AND SWAP3 DUP4 DUP6 MSTORE PUSH1 0x20 MSTORE PUSH1 0xFF PUSH1 0x40 DUP6 KECCAK256 SLOAD AND PUSH1 0x0 EQ PUSH2 0x35C4 JUMPI DUP2 DUP5 MSTORE PUSH1 0x20 MSTORE PUSH1 0x40 DUP4 KECCAK256 DUP3 DUP5 MSTORE PUSH1 0x20 MSTORE PUSH1 0x40 DUP4 KECCAK256 PUSH1 0xFF NOT DUP2 SLOAD AND SWAP1 SSTORE PUSH32 0xF6391F5C32D9C69D2A47EA670B442974B53935D1EDC7FD64EB21E047A839171B CALLER SWAP4 DUP1 LOG4 PUSH1 0x1 SWAP1 JUMP JUMPDEST PUSH1 0x1 PUSH1 0x1 PUSH1 0x40 SHL SUB DUP2 GT PUSH2 0x5A3 JUMPI PUSH1 0x1F ADD PUSH1 0x1F NOT AND PUSH1 0x20 ADD SWAP1 JUMP JUMPDEST RETURNDATASIZE ISZERO PUSH2 0x38F2 JUMPI RETURNDATASIZE SWAP1 PUSH2 0x38D8 DUP3 PUSH2 0x38AC JUMP JUMPDEST SWAP2 PUSH2 0x38E6 PUSH1 0x40 MLOAD SWAP4 DUP5 PUSH2 0x3230 JUMP JUMPDEST DUP3 MSTORE RETURNDATASIZE PUSH1 0x0 PUSH1 0x20 DUP5 ADD RETURNDATACOPY JUMP JUMPDEST PUSH1 0x60 SWAP1 JUMP JUMPDEST MLOAD SWAP1 PUSH1 0x1 PUSH1 0x1 PUSH1 0x40 SHL SUB DUP3 AND DUP3 SUB PUSH2 0x5B9 JUMPI JUMP JUMPDEST DUP2 PUSH1 0x1F DUP3 ADD SLT ISZERO PUSH2 0x5B9 JUMPI DUP1 MLOAD PUSH2 0x3921 DUP2 PUSH2 0x38AC JUMP JUMPDEST SWAP3 PUSH2 0x392F PUSH1 0x40 MLOAD SWAP5 DUP6 PUSH2 0x3230 JUMP JUMPDEST DUP2 DUP5 MSTORE PUSH1 0x20 DUP3 DUP5 ADD ADD GT PUSH2 0x5B9 JUMPI PUSH2 0x394D SWAP2 PUSH1 0x20 DUP1 DUP6 ADD SWAP2 ADD PUSH2 0x30D3 JUMP JUMPDEST SWAP1 JUMP JUMPDEST MLOAD SWAP1 PUSH4 0xFFFFFFFF DUP3 AND DUP3 SUB PUSH2 0x5B9 JUMPI JUMP JUMPDEST MLOAD SWAP1 PUSH1 0xFF DUP3 AND DUP3 SUB PUSH2 0x5B9 JUMPI JUMP JUMPDEST MLOAD SWAP1 DUP2 ISZERO ISZERO DUP3 SUB PUSH2 0x5B9 JUMPI JUMP JUMPDEST PUSH1 0x20 DUP2 DUP4 SUB SLT PUSH2 0x5B9 JUMPI DUP1 MLOAD PUSH1 0x1 PUSH1 0x1 PUSH1 0x40 SHL SUB SWAP2 DUP3 DUP3 GT PUSH2 0x5B9 JUMPI ADD SWAP2 PUSH1 0xA0 DUP4 DUP3 SUB SLT PUSH2 0x5B9 JUMPI PUSH1 0x40 MLOAD SWAP3 PUSH2 0x39B1 DUP5 PUSH2 0x318C JUMP JUMPDEST DUP1 MLOAD SWAP3 DUP4 GT PUSH2 0x5B9 JUMPI PUSH2 0x39CB PUSH1 0x80 SWAP3 PUSH2 0x3A06 SWAP5 DUP4 ADD PUSH2 0x390B JUMP JUMPDEST DUP5 MSTORE PUSH2 0x39D9 PUSH1 0x20 DUP3 ADD PUSH2 0x3950 JUMP JUMPDEST PUSH1 0x20 DUP6 ADD MSTORE PUSH2 0x39EA PUSH1 0x40 DUP3 ADD PUSH2 0x3961 JUMP JUMPDEST PUSH1 0x40 DUP6 ADD MSTORE PUSH2 0x39FB PUSH1 0x60 DUP3 ADD PUSH2 0x3961 JUMP JUMPDEST PUSH1 0x60 DUP6 ADD MSTORE ADD PUSH2 0x396F JUMP JUMPDEST PUSH1 0x80 DUP3 ADD MSTORE SWAP1 JUMP JUMPDEST PUSH1 0x1 PUSH1 0x1 PUSH1 0x40 SHL SUB DUP2 GT PUSH2 0x5A3 JUMPI PUSH1 0x5 SHL PUSH1 0x20 ADD SWAP1 JUMP JUMPDEST MLOAD SWAP1 PUSH1 0x1 PUSH1 0x1 PUSH1 0xA0 SHL SUB DUP3 AND DUP3 SUB PUSH2 0x5B9 JUMPI JUMP JUMPDEST MLOAD SWAP1 DUP2 PUSH1 0x7 SIGNEXTEND DUP3 SUB PUSH2 0x5B9 JUMPI JUMP JUMPDEST PUSH1 0xFF PUSH32 0xF0C57E16840DF040F15088DC2F81FE391C3923BEC73E23A9662EFC9C229C6A00 SLOAD PUSH1 0x40 SHR AND ISZERO PUSH2 0x3A76 JUMPI JUMP JUMPDEST PUSH1 0x40 MLOAD PUSH4 0x1AFCD79F PUSH1 0xE3 SHL DUP2 MSTORE PUSH1 0x4 SWAP1 REVERT JUMPDEST SWAP2 SWAP1 DUP3 ADD DUP1 SWAP3 GT PUSH2 0x10A9 JUMPI JUMP JUMPDEST PUSH1 0x0 NOT DUP2 EQ PUSH2 0x10A9 JUMPI PUSH1 0x1 ADD SWAP1 JUMP JUMPDEST PUSH1 0x4 DUP3 LT ISZERO PUSH2 0x8FB JUMPI MSTORE JUMP JUMPDEST PUSH1 0x2 DUP3 LT ISZERO PUSH2 0x8FB JUMPI MSTORE JUMP JUMPDEST PUSH1 0x5 DUP3 LT ISZERO PUSH2 0x8FB JUMPI MSTORE JUMP JUMPDEST PUSH1 0xFF PUSH1 0x0 DUP1 MLOAD PUSH1 0x20 PUSH2 0x4967 DUP4 CODECOPY DUP2 MLOAD SWAP2 MSTORE SLOAD AND PUSH2 0x3AE1 JUMPI JUMP JUMPDEST PUSH1 0x40 MLOAD PUSH4 0xD93C0665 PUSH1 0xE0 SHL DUP2 MSTORE PUSH1 0x4 SWAP1 REVERT JUMPDEST PUSH1 0x0 DUP1 MLOAD PUSH1 0x20 PUSH2 0x49A7 DUP4 CODECOPY DUP2 MLOAD SWAP2 MSTORE PUSH1 0x2 DUP2 SLOAD EQ PUSH2 0x3B11 JUMPI PUSH1 0x2 SWAP1 SSTORE JUMP JUMPDEST PUSH1 0x40 MLOAD PUSH4 0x3EE5AEB5 PUSH1 0xE0 SHL DUP2 MSTORE PUSH1 0x4 SWAP1 REVERT JUMPDEST SWAP1 PUSH1 0x0 PUSH1 0x20 SWAP2 DUP3 DUP2 MLOAD SWAP2 ADD DUP3 DUP6 GAS CALL ISZERO PUSH2 0x3B7F JUMPI PUSH1 0x0 MLOAD RETURNDATASIZE PUSH2 0x3B76 JUMPI POP PUSH1 0x1 PUSH1 0x1 PUSH1 0xA0 SHL SUB DUP2 AND EXTCODESIZE ISZERO JUMPDEST PUSH2 0x3B54 JUMPI POP JUMP JUMPDEST PUSH1 0x40 MLOAD PUSH4 0x5274AFE7 PUSH1 0xE0 SHL DUP2 MSTORE PUSH1 0x1 PUSH1 0x1 PUSH1 0xA0 SHL SUB SWAP1 SWAP2 AND PUSH1 0x4 DUP3 ADD MSTORE PUSH1 0x24 SWAP1 REVERT JUMPDEST PUSH1 0x1 EQ ISZERO PUSH2 0x3B4D JUMP JUMPDEST PUSH1 0x40 MLOAD RETURNDATASIZE PUSH1 0x0 DUP3 RETURNDATACOPY RETURNDATASIZE SWAP1 REVERT JUMPDEST DUP1 ISZERO PUSH2 0x10A9 JUMPI PUSH1 0x0 NOT ADD SWAP1 JUMP JUMPDEST SWAP1 PUSH1 0x1F DUP2 GT PUSH2 0x3BA6 JUMPI POP POP POP JUMP JUMPDEST PUSH1 0x0 SWAP2 DUP3 MSTORE PUSH1 0x20 DUP3 KECCAK256 SWAP1 PUSH1 0x20 PUSH1 0x1F DUP6 ADD PUSH1 0x5 SHR DUP4 ADD SWAP5 LT PUSH2 0x3BE2 JUMPI JUMPDEST PUSH1 0x1F ADD PUSH1 0x5 SHR ADD SWAP2 JUMPDEST DUP3 DUP2 LT PUSH2 0x3BD7 JUMPI POP POP POP JUMP JUMPDEST DUP2 DUP2 SSTORE PUSH1 0x1 ADD PUSH2 0x3BCB JUMP JUMPDEST SWAP1 SWAP3 POP DUP3 SWAP1 PUSH2 0x3BC2 JUMP JUMPDEST SWAP1 DUP2 PUSH1 0x0 MSTORE PUSH1 0x0 PUSH1 0x20 MSTORE PUSH1 0x40 PUSH1 0x0 KECCAK256 SWAP2 PUSH1 0x9 DUP4 ADD SLOAD PUSH1 0xFF DUP2 AND PUSH1 0x5 DUP2 LT ISZERO PUSH2 0x8FB JUMPI PUSH2 0x8E9 JUMPI PUSH1 0x7 DUP5 ADD SLOAD DUP1 ISZERO ISZERO SWAP1 DUP2 PUSH2 0x427E JUMPI JUMPDEST POP PUSH2 0x4221 JUMPI POP PUSH4 0xFFFFFFFF PUSH1 0x1 DUP5 ADD SLOAD PUSH1 0xA0 SHR AND SWAP3 PUSH2 0x3C3F DUP5 PUSH2 0x431F JUMP JUMPDEST SWAP4 PUSH1 0x40 MLOAD SWAP1 PUSH2 0x3C4D DUP3 PUSH2 0x318C JUMP JUMPDEST DUP6 DUP3 MSTORE TIMESTAMP PUSH1 0x20 DUP4 ADD MSTORE DUP1 PUSH1 0x40 DUP4 ADD MSTORE PUSH1 0x64 PUSH1 0x60 DUP4 ADD MSTORE PUSH1 0x40 MLOAD PUSH2 0x3C6F DUP2 PUSH2 0x31FA JUMP JUMPDEST PUSH1 0x9 DUP2 MSTORE PUSH9 0x6879706572636F7265 PUSH1 0xB8 SHL PUSH1 0x20 DUP3 ADD MSTORE PUSH1 0x80 DUP4 ADD MSTORE PUSH1 0x0 MSTORE PUSH1 0x4 PUSH1 0x20 MSTORE PUSH1 0x80 PUSH1 0x40 PUSH1 0x0 KECCAK256 SWAP2 DUP1 MLOAD DUP4 SSTORE PUSH1 0x20 DUP2 ADD MLOAD PUSH1 0x1 DUP5 ADD SSTORE PUSH1 0x2 DUP4 ADD PUSH4 0xFFFFFFFF PUSH1 0x40 DUP4 ADD MLOAD AND DUP2 SLOAD SWAP1 PUSH5 0xFF00000000 PUSH1 0x60 DUP6 ADD MLOAD PUSH1 0x20 SHL AND SWAP2 PUSH5 0xFFFFFFFFFF NOT AND OR OR SWAP1 SSTORE ADD MLOAD DUP1 MLOAD SWAP1 PUSH1 0x1 PUSH1 0x1 PUSH1 0x40 SHL SUB DUP3 GT PUSH2 0x5A3 JUMPI PUSH2 0x3D03 DUP3 PUSH2 0x3CFA PUSH1 0x3 DUP7 ADD SLOAD PUSH2 0x311B JUMP JUMPDEST PUSH1 0x3 DUP7 ADD PUSH2 0x3B98 JUMP JUMPDEST PUSH1 0x20 SWAP1 PUSH1 0x1F DUP4 GT PUSH1 0x1 EQ PUSH2 0x41B2 JUMPI PUSH1 0x3 SWAP3 SWAP2 PUSH1 0x0 SWAP2 DUP4 PUSH2 0x41A7 JUMPI JUMPDEST POP POP DUP2 PUSH1 0x1 SHL SWAP2 PUSH1 0x0 NOT SWAP1 DUP5 SHL SHR NOT AND OR SWAP2 ADD SSTORE JUMPDEST PUSH2 0x3D4A PUSH1 0x3 DUP3 ADD SLOAD PUSH1 0xFF PUSH1 0x2 DUP5 ADD SLOAD AND SWAP1 DUP7 PUSH2 0x4592 JUMP JUMPDEST ISZERO PUSH2 0x4161 JUMPI PUSH2 0x3D60 PUSH1 0xA DUP3 ADD SLOAD PUSH1 0xB SLOAD SWAP1 PUSH2 0x3A88 JUMP JUMPDEST TIMESTAMP LT PUSH2 0x411B JUMPI PUSH1 0x9 DUP2 ADD DUP1 SLOAD PUSH1 0xFF NOT AND PUSH1 0x1 OR SWAP1 SSTORE TIMESTAMP PUSH1 0xB DUP3 ADD SSTORE PUSH1 0xC DUP2 ADD DUP1 SLOAD PUSH1 0x1 PUSH1 0x1 PUSH1 0xA0 SHL SUB NOT AND CALLER OR SWAP1 SSTORE PUSH1 0x6 SLOAD PUSH2 0x3D9B SWAP1 PUSH2 0x3B8B JUMP JUMPDEST PUSH1 0x6 SSTORE PUSH4 0xFFFFFFFF PUSH1 0x1 DUP3 ADD SLOAD PUSH1 0xC0 SHR AND DUP1 PUSH1 0x0 MSTORE PUSH1 0x2 PUSH1 0x20 MSTORE PUSH1 0x40 PUSH1 0x0 KECCAK256 SWAP1 PUSH1 0x40 MLOAD SWAP2 PUSH2 0x3DC8 DUP4 PUSH2 0x31A7 JUMP JUMPDEST PUSH4 0xFFFFFFFF DUP2 SLOAD AND DUP4 MSTORE PUSH2 0x3DDE PUSH1 0x1 DUP3 ADD PUSH2 0x3251 JUMP JUMPDEST PUSH1 0x20 DUP5 ADD MSTORE PUSH1 0x96 PUSH1 0x1 DUP1 PUSH1 0xA0 SHL SUB PUSH1 0x2 DUP4 ADD SLOAD AND SWAP3 DUP4 PUSH1 0x40 DUP7 ADD MSTORE PUSH1 0x3 DUP4 ADD SLOAD SWAP5 PUSH1 0xE0 PUSH1 0x5 PUSH1 0x1 DUP1 PUSH1 0xA0 SHL SUB DUP9 AND SWAP6 PUSH1 0xFF PUSH1 0x60 DUP6 ADD SWAP10 DUP9 DUP12 MSTORE DUP2 DUP2 PUSH1 0xA0 SHR AND PUSH1 0x80 DUP8 ADD MSTORE PUSH1 0xA8 SHR AND ISZERO ISZERO PUSH1 0xA0 DUP6 ADD MSTORE PUSH1 0x4 DUP2 ADD SLOAD PUSH1 0xC0 DUP6 ADD MSTORE ADD SLOAD SWAP2 ADD MSTORE EQ PUSH1 0x0 EQ PUSH2 0x4106 JUMPI POP POP MLOAD PUSH1 0x5 DUP3 ADD SLOAD PUSH1 0x0 SWAP2 DUP3 SWAP2 DUP3 SWAP2 DUP3 SWAP2 SWAP1 PUSH1 0x1 PUSH1 0x1 PUSH1 0xA0 SHL SUB AND GAS CALL PUSH2 0x3E69 PUSH2 0x38C7 JUMP JUMPDEST POP ISZERO PUSH2 0x40CA JUMPI JUMPDEST PUSH1 0x8 DUP2 ADD SWAP1 PUSH1 0x0 DUP1 DUP1 DUP1 DUP6 SLOAD CALLER GAS CALL PUSH2 0x3E87 PUSH2 0x38C7 JUMP JUMPDEST POP ISZERO PUSH2 0x4085 JUMPI PUSH1 0x5 ADD SLOAD SWAP1 SLOAD SWAP1 PUSH1 0x40 MLOAD DUP6 DUP2 MSTORE DUP2 PUSH1 0x20 DUP3 ADD MSTORE PUSH1 0x0 PUSH1 0x40 DUP3 ADD MSTORE DUP3 PUSH1 0x60 DUP3 ADD MSTORE DUP4 PUSH32 0x136CD8A6D030E2A28F70392CA19118087E3A4EC0415F1D9B5490CAC8FF40BC8B PUSH1 0x80 CALLER SWAP4 LOG3 PUSH1 0x40 MLOAD SWAP5 PUSH2 0x3EE1 DUP7 PUSH2 0x3170 JUMP JUMPDEST DUP4 DUP7 MSTORE PUSH1 0x20 DUP7 ADD MSTORE PUSH1 0x40 DUP6 ADD MSTORE PUSH1 0x0 PUSH1 0x60 DUP6 ADD MSTORE PUSH1 0x0 PUSH1 0x80 DUP6 ADD MSTORE PUSH1 0xA0 DUP5 ADD MSTORE CALLER PUSH1 0xC0 DUP5 ADD MSTORE TIMESTAMP PUSH1 0xE0 DUP5 ADD MSTORE PUSH1 0x0 PUSH2 0x100 DUP5 ADD MSTORE PUSH1 0x40 MLOAD PUSH2 0x3F21 DUP2 PUSH2 0x3215 JUMP JUMPDEST PUSH1 0x0 DUP2 MSTORE PUSH2 0x120 DUP5 ADD MSTORE PUSH1 0x0 MSTORE PUSH1 0x3 PUSH1 0x20 MSTORE PUSH2 0x120 PUSH1 0x9 PUSH1 0x40 PUSH1 0x0 KECCAK256 DUP5 MLOAD DUP2 SSTORE PUSH1 0x20 DUP6 ADD MLOAD PUSH1 0x1 DUP3 ADD SSTORE PUSH1 0x40 DUP6 ADD MLOAD PUSH1 0x2 DUP3 ADD SSTORE PUSH1 0x60 DUP6 ADD MLOAD PUSH1 0x3 DUP3 ADD SSTORE PUSH1 0x80 DUP6 ADD MLOAD PUSH1 0x4 DUP3 ADD SSTORE PUSH1 0xA0 DUP6 ADD MLOAD PUSH1 0x5 DUP3 ADD SSTORE PUSH1 0x6 DUP2 ADD PUSH1 0x1 DUP1 PUSH1 0xA0 SHL SUB PUSH1 0xC0 DUP8 ADD MLOAD AND PUSH1 0x1 PUSH1 0x1 PUSH1 0x60 SHL SUB PUSH1 0xA0 SHL DUP3 SLOAD AND OR SWAP1 SSTORE PUSH1 0xE0 DUP6 ADD MLOAD PUSH1 0x7 DUP3 ADD SSTORE PUSH2 0x3FBF PUSH2 0x100 DUP7 ADD MLOAD ISZERO ISZERO PUSH1 0x8 DUP4 ADD SWAP1 PUSH1 0xFF DUP1 NOT DUP4 SLOAD AND SWAP2 ISZERO ISZERO AND OR SWAP1 SSTORE JUMP JUMPDEST ADD SWAP3 ADD MLOAD SWAP2 DUP3 MLOAD PUSH1 0x1 PUSH1 0x1 PUSH1 0x40 SHL SUB DUP2 GT PUSH2 0x5A3 JUMPI PUSH2 0x3FE8 DUP2 PUSH2 0x3FE2 DUP5 SLOAD PUSH2 0x311B JUMP JUMPDEST DUP5 PUSH2 0x3B98 JUMP JUMPDEST PUSH1 0x20 PUSH1 0x1F DUP3 GT PUSH1 0x1 EQ PUSH2 0x4022 JUMPI DUP2 SWAP3 SWAP4 SWAP5 PUSH1 0x0 SWAP3 PUSH2 0x4017 JUMPI JUMPDEST POP POP DUP2 PUSH1 0x1 SHL SWAP2 PUSH1 0x0 NOT SWAP1 PUSH1 0x3 SHL SHR NOT AND OR SWAP1 SSTORE JUMP JUMPDEST ADD MLOAD SWAP1 POP CODESIZE DUP1 PUSH2 0x4001 JUMP JUMPDEST PUSH1 0x1F NOT DUP3 AND SWAP1 DUP4 PUSH1 0x0 MSTORE PUSH1 0x20 PUSH1 0x0 KECCAK256 SWAP2 PUSH1 0x0 JUMPDEST DUP2 DUP2 LT PUSH2 0x406D JUMPI POP SWAP6 DUP4 PUSH1 0x1 SWAP6 SWAP7 SWAP8 LT PUSH2 0x4054 JUMPI JUMPDEST POP POP POP DUP2 SHL ADD SWAP1 SSTORE JUMP JUMPDEST ADD MLOAD PUSH1 0x0 NOT PUSH1 0xF8 DUP5 PUSH1 0x3 SHL AND SHR NOT AND SWAP1 SSTORE CODESIZE DUP1 DUP1 PUSH2 0x404A JUMP JUMPDEST SWAP2 SWAP3 PUSH1 0x20 PUSH1 0x1 DUP2 SWAP3 DUP7 DUP12 ADD MLOAD DUP2 SSTORE ADD SWAP5 ADD SWAP3 ADD PUSH2 0x4035 JUMP JUMPDEST PUSH1 0x40 MLOAD PUSH3 0x461BCD PUSH1 0xE5 SHL DUP2 MSTORE PUSH1 0x20 PUSH1 0x4 DUP3 ADD MSTORE PUSH1 0x1E PUSH1 0x24 DUP3 ADD MSTORE PUSH32 0x4578656375746F7220726577617264207061796D656E74206661696C65640000 PUSH1 0x44 DUP3 ADD MSTORE PUSH1 0x64 SWAP1 REVERT JUMPDEST PUSH1 0x40 MLOAD PUSH3 0x461BCD PUSH1 0xE5 SHL DUP2 MSTORE PUSH1 0x20 PUSH1 0x4 DUP3 ADD MSTORE PUSH1 0x14 PUSH1 0x24 DUP3 ADD MSTORE PUSH20 0x12165411481D1C985B9CD9995C8819985A5B1959 PUSH1 0x62 SHL PUSH1 0x44 DUP3 ADD MSTORE PUSH1 0x64 SWAP1 REVERT JUMPDEST PUSH2 0x4116 SWAP3 POP PUSH1 0x5 DUP5 ADD SLOAD SWAP2 PUSH2 0x4288 JUMP JUMPDEST PUSH2 0x3E70 JUMP JUMPDEST PUSH1 0x40 MLOAD PUSH4 0xF00364B1 PUSH1 0xE0 SHL DUP2 MSTORE PUSH1 0x20 PUSH1 0x4 DUP3 ADD MSTORE PUSH1 0x17 PUSH1 0x24 DUP3 ADD MSTORE PUSH32 0x457865637574696F6E2064656C6179206E6F74206D6574000000000000000000 PUSH1 0x44 DUP3 ADD MSTORE PUSH1 0x64 SWAP1 REVERT JUMPDEST PUSH1 0x40 MLOAD PUSH4 0xF00364B1 PUSH1 0xE0 SHL DUP2 MSTORE PUSH1 0x20 PUSH1 0x4 DUP3 ADD MSTORE PUSH1 0x19 PUSH1 0x24 DUP3 ADD MSTORE PUSH32 0x5472696767657220636F6E646974696F6E206E6F74206D657400000000000000 PUSH1 0x44 DUP3 ADD MSTORE PUSH1 0x64 SWAP1 REVERT JUMPDEST ADD MLOAD SWAP1 POP CODESIZE DUP1 PUSH2 0x3D1E JUMP JUMPDEST SWAP1 PUSH1 0x3 DUP5 ADD PUSH1 0x0 MSTORE PUSH1 0x20 PUSH1 0x0 KECCAK256 SWAP2 PUSH1 0x0 JUMPDEST PUSH1 0x1F NOT DUP6 AND DUP2 LT PUSH2 0x4209 JUMPI POP SWAP2 DUP4 SWAP2 PUSH1 0x1 SWAP4 PUSH1 0x3 SWAP6 PUSH1 0x1F NOT DUP2 AND LT PUSH2 0x41F1 JUMPI JUMPDEST POP POP POP DUP2 SHL ADD SWAP2 ADD SSTORE PUSH2 0x3D33 JUMP JUMPDEST ADD MLOAD PUSH1 0x0 NOT DUP4 DUP7 SHL PUSH1 0xF8 AND SHR NOT AND SWAP1 SSTORE CODESIZE DUP1 DUP1 PUSH2 0x41E3 JUMP JUMPDEST SWAP2 SWAP3 PUSH1 0x20 PUSH1 0x1 DUP2 SWAP3 DUP7 DUP6 ADD MLOAD DUP2 SSTORE ADD SWAP5 ADD SWAP3 ADD PUSH2 0x41C3 JUMP JUMPDEST PUSH1 0xFF NOT AND PUSH1 0x3 OR PUSH1 0x9 DUP5 ADD SSTORE PUSH1 0x6 SLOAD SWAP2 SWAP3 SWAP1 SWAP2 PUSH2 0x423D SWAP1 PUSH2 0x3B8B JUMP JUMPDEST PUSH1 0x6 SSTORE PUSH2 0x4249 DUP3 PUSH2 0x45D5 JUMP JUMPDEST PUSH1 0x1 ADD SLOAD PUSH1 0x1 PUSH1 0x1 PUSH1 0xA0 SHL SUB AND SWAP1 PUSH32 0xFEA3846EAF7BC8BE13A1DAA73071E876B209D7CE474AAE722775C3213F493438 PUSH1 0x0 DUP1 LOG3 JUMP JUMPDEST SWAP1 POP TIMESTAMP GT CODESIZE PUSH2 0x3C21 JUMP JUMPDEST PUSH1 0x40 MLOAD PUSH4 0xA9059CBB PUSH1 0xE0 SHL PUSH1 0x20 DUP3 ADD MSTORE PUSH1 0x1 PUSH1 0x1 PUSH1 0xA0 SHL SUB SWAP1 SWAP3 AND PUSH1 0x24 DUP4 ADD MSTORE PUSH1 0x44 DUP1 DUP4 ADD SWAP4 SWAP1 SWAP4 MSTORE SWAP2 DUP2 MSTORE PUSH2 0x328F SWAP2 PUSH2 0x2068 DUP3 PUSH2 0x3155 JUMP JUMPDEST SWAP1 DUP1 PUSH1 0x20 SWAP4 SWAP3 DUP2 DUP5 MSTORE DUP5 DUP5 ADD CALLDATACOPY PUSH1 0x0 DUP3 DUP3 ADD DUP5 ADD MSTORE PUSH1 0x1F ADD PUSH1 0x1F NOT AND ADD ADD SWAP1 JUMP JUMPDEST SWAP1 PUSH8 0xDE0B6B3A7640000 SWAP2 DUP3 DUP2 MUL SWAP3 DUP2 DUP5 DIV EQ SWAP1 ISZERO OR ISZERO PUSH2 0x10A9 JUMPI JUMP JUMPDEST DUP2 ISZERO PUSH2 0x4309 JUMPI DIV SWAP1 JUMP JUMPDEST PUSH4 0x4E487B71 PUSH1 0xE0 SHL PUSH1 0x0 MSTORE PUSH1 0x12 PUSH1 0x4 MSTORE PUSH1 0x24 PUSH1 0x0 REVERT JUMPDEST PUSH1 0x40 MLOAD PUSH4 0xC0F0F5EF PUSH1 0xE0 SHL DUP2 MSTORE PUSH4 0xFFFFFFFF DUP3 AND PUSH1 0x4 DUP3 ADD DUP2 SWAP1 MSTORE SWAP2 SWAP1 PUSH1 0x20 SWAP1 DUP2 DUP2 PUSH1 0x24 DUP2 ADDRESS GAS STATICCALL PUSH1 0x0 SWAP2 DUP2 PUSH2 0x4483 JUMPI JUMPDEST POP PUSH2 0x4468 JUMPI JUMPDEST POP PUSH1 0x40 MLOAD PUSH4 0x64776463 PUSH1 0xE1 SHL DUP2 MSTORE PUSH1 0x4 DUP2 ADD DUP5 SWAP1 MSTORE DUP2 DUP2 PUSH1 0x24 DUP2 ADDRESS GAS STATICCALL PUSH1 0x0 SWAP2 DUP2 PUSH2 0x4431 JUMPI JUMPDEST POP PUSH2 0x4416 JUMPI JUMPDEST POP PUSH1 0x40 MLOAD SWAP3 PUSH4 0x90702759 PUSH1 0xE0 SHL DUP5 MSTORE PUSH1 0x4 DUP5 ADD MSTORE DUP1 DUP4 PUSH1 0x24 DUP2 ADDRESS GAS STATICCALL SWAP3 DUP4 SWAP2 PUSH1 0x0 SWAP5 PUSH2 0x43DA JUMPI JUMPDEST POP POP PUSH2 0x43C2 JUMPI JUMPDEST PUSH1 0x40 MLOAD PUSH4 0x80B781FF PUSH1 0xE0 SHL DUP2 MSTORE PUSH1 0x4 SWAP1 REVERT JUMPDEST PUSH1 0x1 PUSH1 0x1 PUSH1 0x40 SHL SUB DUP3 AND ISZERO PUSH2 0x43B0 JUMPI PUSH2 0x394D SWAP2 PUSH2 0x44BA JUMP JUMPDEST DUP2 DUP2 SWAP6 SWAP3 SWAP4 SWAP6 RETURNDATASIZE DUP4 GT PUSH2 0x440F JUMPI JUMPDEST PUSH2 0x43F2 DUP2 DUP4 PUSH2 0x3230 JUMP JUMPDEST DUP2 ADD SUB SLT PUSH2 0x440C JUMPI POP PUSH2 0x4404 SWAP1 PUSH2 0x38F7 JUMP JUMPDEST SWAP2 CODESIZE DUP1 PUSH2 0x43A9 JUMP JUMPDEST DUP1 REVERT JUMPDEST POP RETURNDATASIZE PUSH2 0x43E8 JUMP JUMPDEST PUSH1 0x1 PUSH1 0x1 PUSH1 0x40 SHL SUB DUP2 AND ISZERO PUSH2 0x4382 JUMPI SWAP1 POP PUSH2 0x394D SWAP3 POP PUSH2 0x44BA JUMP JUMPDEST SWAP1 SWAP2 DUP4 DUP3 DUP2 RETURNDATASIZE DUP4 GT PUSH2 0x4461 JUMPI JUMPDEST PUSH2 0x4448 DUP2 DUP4 PUSH2 0x3230 JUMP JUMPDEST DUP2 ADD SUB SLT PUSH2 0x440C JUMPI POP PUSH2 0x445A SWAP1 PUSH2 0x38F7 JUMP JUMPDEST SWAP1 CODESIZE PUSH2 0x437C JUMP JUMPDEST POP RETURNDATASIZE PUSH2 0x443E JUMP JUMPDEST PUSH1 0x1 PUSH1 0x1 PUSH1 0x40 SHL SUB DUP2 AND ISZERO PUSH2 0x4356 JUMPI SWAP1 POP PUSH2 0x394D SWAP3 POP PUSH2 0x44BA JUMP JUMPDEST SWAP1 SWAP2 DUP4 DUP3 DUP2 RETURNDATASIZE DUP4 GT PUSH2 0x44B3 JUMPI JUMPDEST PUSH2 0x449A DUP2 DUP4 PUSH2 0x3230 JUMP JUMPDEST DUP2 ADD SUB SLT PUSH2 0x440C JUMPI POP PUSH2 0x44AC SWAP1 PUSH2 0x38F7 JUMP JUMPDEST SWAP1 CODESIZE PUSH2 0x4350 JUMP JUMPDEST POP RETURNDATASIZE PUSH2 0x4490 JUMP JUMPDEST PUSH1 0x40 MLOAD PUSH4 0x20B16699 PUSH1 0xE1 SHL DUP2 MSTORE PUSH4 0xFFFFFFFF SWAP1 SWAP3 AND PUSH1 0x4 DUP4 ADD MSTORE SWAP1 PUSH1 0x0 SWAP1 DUP2 DUP2 PUSH1 0x24 DUP2 ADDRESS GAS STATICCALL DUP3 SWAP2 DUP2 PUSH2 0x456E JUMPI JUMPDEST POP PUSH2 0x4507 JUMPI POP POP PUSH2 0x4503 PUSH1 0x1 PUSH1 0x1 PUSH1 0x40 SHL SUB PUSH1 0xA SWAP3 AND PUSH2 0x42E2 JUMP JUMPDEST DIV SWAP1 JUMP JUMPDEST PUSH1 0x40 PUSH1 0xFF SWAP2 ADD MLOAD AND PUSH1 0x6 SUB PUSH1 0xFF DUP2 GT PUSH2 0x455A JUMPI PUSH1 0xFF AND SWAP1 PUSH1 0x4D DUP3 GT PUSH2 0x4546 JUMPI POP SWAP1 PUSH2 0x4541 PUSH1 0x1 PUSH1 0x1 PUSH1 0x40 SHL SUB PUSH2 0x394D SWAP4 PUSH1 0xA EXP SWAP3 AND PUSH2 0x42E2 JUMP JUMPDEST PUSH2 0x42FF JUMP JUMPDEST PUSH4 0x4E487B71 PUSH1 0xE0 SHL DUP2 MSTORE PUSH1 0x11 PUSH1 0x4 MSTORE PUSH1 0x24 SWAP1 REVERT JUMPDEST PUSH4 0x4E487B71 PUSH1 0xE0 SHL DUP3 MSTORE PUSH1 0x11 PUSH1 0x4 MSTORE PUSH1 0x24 DUP3 REVERT JUMPDEST PUSH2 0x458B SWAP2 SWAP3 POP RETURNDATASIZE DUP1 DUP6 DUP4 RETURNDATACOPY PUSH2 0x4583 DUP2 DUP4 PUSH2 0x3230 JUMP JUMPDEST DUP2 ADD SWAP1 PUSH2 0x397C JUMP JUMPDEST SWAP1 CODESIZE PUSH2 0x44E8 JUMP JUMPDEST SWAP1 SWAP2 PUSH1 0x4 DUP2 LT ISZERO PUSH2 0x8FB JUMPI DUP1 PUSH2 0x45A7 JUMPI POP GT SWAP1 JUMP JUMPDEST PUSH1 0x1 DUP2 SUB PUSH2 0x45B4 JUMPI POP LT SWAP1 JUMP JUMPDEST PUSH1 0x2 DUP2 SUB PUSH2 0x45C2 JUMPI POP LT ISZERO SWAP1 JUMP JUMPDEST PUSH1 0x3 EQ PUSH2 0x45D0 JUMPI POP POP PUSH1 0x0 SWAP1 JUMP JUMPDEST GT ISZERO SWAP1 JUMP JUMPDEST PUSH1 0x0 SWAP1 DUP2 MSTORE DUP1 PUSH1 0x20 MSTORE PUSH1 0x40 SWAP1 DUP2 DUP2 KECCAK256 PUSH1 0x1 DUP2 ADD DUP3 DUP2 SLOAD DUP6 PUSH4 0xFFFFFFFF DUP1 DUP4 PUSH1 0xC0 SHR AND PUSH1 0x96 DUP2 EQ PUSH1 0x0 EQ PUSH2 0x46D1 JUMPI POP POP DUP4 SLOAD PUSH1 0x5 DUP7 ADD SLOAD DUP5 SWAP4 POP DUP4 SWAP3 POP DUP3 SWAP2 PUSH1 0x1 PUSH1 0x1 PUSH1 0xA0 SHL SUB AND GAS CALL PUSH2 0x4626 PUSH2 0x38C7 JUMP JUMPDEST POP ISZERO PUSH2 0x4698 JUMPI DUP3 DUP1 SWAP3 PUSH1 0x8 DUP3 SWAP4 JUMPDEST SLOAD SWAP2 ADD SLOAD SWAP1 PUSH1 0x1 PUSH1 0x1 PUSH1 0xA0 SHL SUB AND GAS CALL PUSH2 0x464C PUSH2 0x38C7 JUMP JUMPDEST POP ISZERO PUSH2 0x4655 JUMPI POP JUMP JUMPDEST MLOAD PUSH3 0x461BCD PUSH1 0xE5 SHL DUP2 MSTORE PUSH1 0x20 PUSH1 0x4 DUP3 ADD MSTORE PUSH1 0x1E PUSH1 0x24 DUP3 ADD MSTORE PUSH32 0x457865637574696F6E2072657761726420726566756E64206661696C65640000 PUSH1 0x44 DUP3 ADD MSTORE PUSH1 0x64 SWAP1 REVERT JUMPDEST DUP4 MLOAD PUSH3 0x461BCD PUSH1 0xE5 SHL DUP2 MSTORE PUSH1 0x20 PUSH1 0x4 DUP3 ADD MSTORE PUSH1 0x12 PUSH1 0x24 DUP3 ADD MSTORE PUSH18 0x12165411481C99599D5B990819985A5B1959 PUSH1 0x72 SHL PUSH1 0x44 DUP3 ADD MSTORE PUSH1 0x64 SWAP1 REVERT JUMPDEST DUP5 SWAP7 SWAP4 PUSH1 0x8 SWAP4 DUP7 SWAP8 SWAP4 PUSH2 0x4764 SWAP4 DUP9 MSTORE PUSH1 0x2 PUSH1 0x20 MSTORE DUP2 DUP9 KECCAK256 SWAP1 DUP3 MLOAD SWAP1 PUSH2 0x46F5 DUP3 PUSH2 0x31A7 JUMP JUMPDEST DUP3 SLOAD AND DUP2 MSTORE PUSH2 0x4706 PUSH1 0x1 DUP4 ADD PUSH2 0x3251 JUMP JUMPDEST PUSH1 0x20 DUP3 ADD MSTORE PUSH1 0xE0 PUSH1 0x5 PUSH1 0x1 DUP1 PUSH1 0xA0 SHL SUB SWAP4 DUP5 PUSH1 0x2 DUP3 ADD SLOAD AND DUP1 SWAP7 DUP6 ADD MSTORE PUSH1 0xFF PUSH1 0x3 DUP3 ADD SLOAD DUP7 DUP2 AND PUSH1 0x60 DUP8 ADD MSTORE DUP2 DUP2 PUSH1 0xA0 SHR AND PUSH1 0x80 DUP8 ADD MSTORE PUSH1 0xA8 SHR AND ISZERO ISZERO PUSH1 0xA0 DUP6 ADD MSTORE PUSH1 0x4 DUP2 ADD SLOAD PUSH1 0xC0 DUP6 ADD MSTORE ADD SLOAD SWAP2 ADD MSTORE PUSH1 0x5 DUP8 ADD SLOAD SWAP3 AND SWAP1 PUSH2 0x4288 JUMP JUMPDEST PUSH2 0x4634 JUMP JUMPDEST SWAP1 PUSH1 0x0 SWAP2 DUP3 MSTORE PUSH1 0x20 DUP3 DUP2 MSTORE PUSH1 0x40 DUP4 KECCAK256 SWAP1 PUSH1 0x40 MLOAD PUSH2 0x4785 DUP2 PUSH2 0x31C3 JUMP JUMPDEST DUP3 SLOAD DUP2 MSTORE PUSH1 0x1 DUP4 ADD SLOAD PUSH1 0x1 DUP1 PUSH1 0xA0 SHL SUB SWAP4 DUP5 DUP3 AND DUP5 DUP5 ADD MSTORE PUSH1 0x40 DUP4 ADD SWAP1 PUSH4 0xFFFFFFFF SWAP3 DUP4 DUP2 PUSH1 0xA0 SHR AND DUP4 MSTORE DUP4 DUP2 PUSH1 0xC0 SHR AND PUSH1 0x60 DUP7 ADD MSTORE PUSH1 0xE0 SHR PUSH1 0x80 DUP6 ADD MSTORE PUSH1 0xFF PUSH1 0x2 DUP3 ADD SLOAD AND SWAP4 PUSH2 0x47DA PUSH1 0xA0 DUP3 ADD SWAP6 DUP7 PUSH2 0x3AA4 JUMP JUMPDEST PUSH2 0x1E0 PUSH1 0x3 DUP4 ADD SLOAD SWAP8 PUSH1 0xC0 DUP4 ADD SWAP9 DUP10 MSTORE PUSH2 0x47FE PUSH1 0xFF PUSH1 0x4 DUP7 ADD SLOAD AND PUSH1 0xE0 DUP6 ADD PUSH2 0x3AB0 JUMP JUMPDEST PUSH1 0x5 DUP5 ADD SLOAD PUSH2 0x100 DUP5 ADD MSTORE PUSH1 0x6 DUP5 ADD SLOAD PUSH2 0x120 DUP5 ADD MSTORE PUSH1 0x7 DUP5 ADD SLOAD PUSH2 0x140 DUP5 ADD MSTORE PUSH1 0x8 DUP5 ADD SLOAD PUSH2 0x160 DUP5 ADD MSTORE PUSH1 0xC PUSH1 0xFF PUSH1 0x9 DUP7 ADD SLOAD AND SWAP5 PUSH2 0x4844 PUSH2 0x180 DUP7 ADD SWAP7 DUP8 PUSH2 0x3ABC JUMP JUMPDEST PUSH1 0xA DUP2 ADD SLOAD PUSH2 0x1A0 DUP7 ADD MSTORE PUSH1 0xB DUP2 ADD SLOAD PUSH2 0x1C0 DUP7 ADD MSTORE ADD SLOAD AND SWAP2 ADD MSTORE MLOAD PUSH1 0x5 DUP2 LT ISZERO PUSH2 0x4912 JUMPI PUSH2 0x4909 JUMPI MLOAD PUSH1 0x40 MLOAD PUSH4 0x1F507D9F PUSH1 0xE1 SHL DUP2 MSTORE SWAP2 AND PUSH1 0x4 DUP3 ADD MSTORE SWAP2 DUP1 DUP4 PUSH1 0x24 DUP2 ADDRESS GAS STATICCALL SWAP3 DUP4 SWAP2 DUP8 SWAP5 PUSH2 0x48D5 JUMPI JUMPDEST POP POP PUSH2 0x48A3 JUMPI POP POP POP DUP2 SWAP1 JUMP JUMPDEST DUP2 SWAP3 MLOAD SWAP1 MLOAD SWAP2 PUSH1 0x4 DUP4 LT ISZERO PUSH2 0x48C1 JUMPI PUSH2 0x48BE SWAP4 SWAP5 SWAP6 POP PUSH2 0x4592 JUMP JUMPDEST SWAP2 JUMP JUMPDEST PUSH4 0x4E487B71 PUSH1 0xE0 SHL DUP7 MSTORE PUSH1 0x21 PUSH1 0x4 MSTORE PUSH1 0x24 DUP7 REVERT JUMPDEST SWAP1 DUP1 SWAP3 SWAP5 POP DUP2 RETURNDATASIZE DUP4 GT PUSH2 0x4902 JUMPI JUMPDEST PUSH2 0x48ED DUP2 DUP4 PUSH2 0x3230 JUMP JUMPDEST DUP2 ADD SUB SLT PUSH2 0x48FE JUMPI MLOAD SWAP2 CODESIZE DUP1 PUSH2 0x4896 JUMP JUMPDEST DUP6 DUP1 REVERT JUMPDEST POP RETURNDATASIZE PUSH2 0x48E3 JUMP JUMPDEST POP POP POP POP POP DUP2 SWAP1 JUMP JUMPDEST PUSH4 0x4E487B71 PUSH1 0xE0 SHL DUP9 MSTORE PUSH1 0x21 PUSH1 0x4 MSTORE PUSH1 0x24 DUP9 REVERT INVALID 0x2F DUP8 DUP9 GT PUSH31 0x7EFF1D82E926EC794901D17C78024A50270940304540A733656F0D02DD7BC7 0xDE 0xC4 0xDC 0xEE 0xDD 0xA7 PUSH22 0xE58DD541E08A116C6C53815C0BD028192F7B626800CD 0x5E 0xD1 0x5C PUSH15 0x187E77E9AEE88184C21F4F2182AB58 0x27 0xCB EXTCODESIZE PUSH31 0x7FBEDCD63F03300D8AA0F3194971A2A116679F7C2090F6939C8D4E01A2A8D PUSH31 0x41D55E5351469E639B779B17422D0DF92223018B32B4D1FA46E071723D6817 0xE2 BASEFEE PUSH14 0x3BECC55F00A264697066735822 SLT KECCAK256 SWAP1 PUSH15 0x10EA6B1D98D911A9A662681C99AD18 0xED PUSH13 0xC4F803B9088A1DC0AC43A39364 PUSH5 0x736F6C6343 STOP ADDMOD EQ STOP CALLER "},"methodIdentifiers":{"ASSET_MANAGER_ROLE()":"a4b32de8","DEFAULT_ADMIN_ROLE()":"a217fddf","EXECUTOR_ROLE()":"07bd0265","PAUSER_ROLE()":"e63ab1e9","addAsset(uint32,string,address,address,uint8,uint256,uint256)":"fdb3042b","cancelTrigger(uint256)":"d45ddd9c","checkTriggerCondition(uint256)":"d168b1f3","config()":"79502c55","confirmExecution(uint256,uint256,bool,string)":"b95c4438","createTrigger(uint32,uint32,uint32,uint8,uint256,uint8,uint256,uint256,uint256)":"8285e314","delegations(address)":"bffe3486","delegatorSummary(address)":"37f980a5","emergencyWithdraw()":"db2e21bc","executeTrigger(uint256)":"10f58844","executionResults(uint256)":"420b7dae","getCurrentPrice(uint32)":"3ea0fb3e","getExecutionResult(uint256)":"400dfc14","getRoleAdmin(bytes32)":"248a9ca3","getTrigger(uint256)":"9c50472b","getUserTriggers(address)":"71876a16","grantExecutorRole(address)":"80a4d414","grantRole(bytes32,address)":"2f2ff15d","hasRole(bytes32,address)":"91d14854","initialize(address,uint256,uint256,uint256)":"4ec81af1","l1BlockNumber()":"298c9005","latestPrices(uint32)":"c8ccca23","markPx(uint32)":"c8eec8c6","nextTriggerId()":"42227fa4","oraclePx(uint32)":"c0f0f5ef","pause()":"8456cb59","paused()":"5c975abb","perpAssetInfo(uint32)":"4162cd32","position(address,uint16)":"89cf7c89","renounceRole(bytes32,address)":"36568abe","revokeExecutorRole(address)":"49a396b9","revokeRole(bytes32,address)":"d547741f","spotBalance(address,uint64)":"a69610d1","spotInfo(uint32)":"b6dff0b5","spotPx(uint32)":"90702759","supportedAssets(uint32)":"567c39bc","supportsInterface(bytes4)":"01ffc9a7","tokenInfo(uint32)":"68fb1109","totalActiveTriggers()":"d9586c55","triggers(uint256)":"a78dd42e","unpause()":"3f4ba83a","updateConfig((uint256,uint256,uint256,uint256,uint256,bool))":"2f7b7411","userTriggers(address,uint256)":"a3498325","userVaultEquity(address,address)":"ee1b5af1","withdrawable(address)":"ce513b6f"}},"storageLayout":{"storage":[{"astId":4088,"contract":"contracts/TriggerManager.sol:TriggerManager","label":"triggers","offset":0,"slot":"0","type":"t_mapping(t_uint256,t_struct(Trigger)5559_storage)"},{"astId":4093,"contract":"contracts/TriggerManager.sol:TriggerManager","label":"userTriggers","offset":0,"slot":"1","type":"t_mapping(t_address,t_array(t_uint256)dyn_storage)"},{"astId":4098,"contract":"contracts/TriggerManager.sol:TriggerManager","label":"supportedAssets","offset":0,"slot":"2","type":"t_mapping(t_uint32,t_struct(AssetInfo)5599_storage)"},{"astId":4103,"contract":"contracts/TriggerManager.sol:TriggerManager","label":"executionResults","offset":0,"slot":"3","type":"t_mapping(t_uint256,t_struct(ExecutionResult)5581_storage)"},{"astId":4108,"contract":"contracts/TriggerManager.sol:TriggerManager","label":"latestPrices","offset":0,"slot":"4","type":"t_mapping(t_uint32,t_struct(PriceData)5611_storage)"},{"astId":4110,"contract":"contracts/TriggerManager.sol:TriggerManager","label":"nextTriggerId","offset":0,"slot":"5","type":"t_uint256"},{"astId":4112,"contract":"contracts/TriggerManager.sol:TriggerManager","label":"totalActiveTriggers","offset":0,"slot":"6","type":"t_uint256"},{"astId":4115,"contract":"contracts/TriggerManager.sol:TriggerManager","label":"config","offset":0,"slot":"7","type":"t_struct(TriggerConfig)5625_storage"}],"types":{"t_address":{"encoding":"inplace","label":"address","numberOfBytes":"20"},"t_array(t_uint256)dyn_storage":{"base":"t_uint256","encoding":"dynamic_array","label":"uint256[]","numberOfBytes":"32"},"t_bool":{"encoding":"inplace","label":"bool","numberOfBytes":"1"},"t_enum(ActionType)5515":{"encoding":"inplace","label":"enum TriggerTypes.ActionType","numberOfBytes":"1"},"t_enum(ComparisonOperator)5511":{"encoding":"inplace","label":"enum TriggerTypes.ComparisonOperator","numberOfBytes":"1"},"t_enum(TriggerStatus)5522":{"encoding":"inplace","label":"enum TriggerTypes.TriggerStatus","numberOfBytes":"1"},"t_mapping(t_address,t_array(t_uint256)dyn_storage)":{"encoding":"mapping","key":"t_address","label":"mapping(address => uint256[])","numberOfBytes":"32","value":"t_array(t_uint256)dyn_storage"},"t_mapping(t_uint256,t_struct(ExecutionResult)5581_storage)":{"encoding":"mapping","key":"t_uint256","label":"mapping(uint256 => struct TriggerTypes.ExecutionResult)","numberOfBytes":"32","value":"t_struct(ExecutionResult)5581_storage"},"t_mapping(t_uint256,t_struct(Trigger)5559_storage)":{"encoding":"mapping","key":"t_uint256","label":"mapping(uint256 => struct TriggerTypes.Trigger)","numberOfBytes":"32","value":"t_struct(Trigger)5559_storage"},"t_mapping(t_uint32,t_struct(AssetInfo)5599_storage)":{"encoding":"mapping","key":"t_uint32","label":"mapping(uint32 => struct TriggerTypes.AssetInfo)","numberOfBytes":"32","value":"t_struct(AssetInfo)5599_storage"},"t_mapping(t_uint32,t_struct(PriceData)5611_storage)":{"encoding":"mapping","key":"t_uint32","label":"mapping(uint32 => struct TriggerTypes.PriceData)","numberOfBytes":"32","value":"t_struct(PriceData)5611_storage"},"t_string_storage":{"encoding":"bytes","label":"string","numberOfBytes":"32"},"t_struct(AssetInfo)5599_storage":{"encoding":"inplace","label":"struct TriggerTypes.AssetInfo","members":[{"astId":5584,"contract":"contracts/TriggerManager.sol:TriggerManager","label":"index","offset":0,"slot":"0","type":"t_uint32"},{"astId":5586,"contract":"contracts/TriggerManager.sol:TriggerManager","label":"symbol","offset":0,"slot":"1","type":"t_string_storage"},{"astId":5588,"contract":"contracts/TriggerManager.sol:TriggerManager","label":"tokenContract","offset":0,"slot":"2","type":"t_address"},{"astId":5590,"contract":"contracts/TriggerManager.sol:TriggerManager","label":"systemAddress","offset":0,"slot":"3","type":"t_address"},{"astId":5592,"contract":"contracts/TriggerManager.sol:TriggerManager","label":"decimals","offset":20,"slot":"3","type":"t_uint8"},{"astId":5594,"contract":"contracts/TriggerManager.sol:TriggerManager","label":"isActive","offset":21,"slot":"3","type":"t_bool"},{"astId":5596,"contract":"contracts/TriggerManager.sol:TriggerManager","label":"minTradeAmount","offset":0,"slot":"4","type":"t_uint256"},{"astId":5598,"contract":"contracts/TriggerManager.sol:TriggerManager","label":"maxTradeAmount","offset":0,"slot":"5","type":"t_uint256"}],"numberOfBytes":"192"},"t_struct(ExecutionResult)5581_storage":{"encoding":"inplace","label":"struct TriggerTypes.ExecutionResult","members":[{"astId":5562,"contract":"contracts/TriggerManager.sol:TriggerManager","label":"triggerId","offset":0,"slot":"0","type":"t_uint256"},{"astId":5564,"contract":"contracts/TriggerManager.sol:TriggerManager","label":"executionPrice","offset":0,"slot":"1","type":"t_uint256"},{"astId":5566,"contract":"contracts/TriggerManager.sol:TriggerManager","label":"amountIn","offset":0,"slot":"2","type":"t_uint256"},{"astId":5568,"contract":"contracts/TriggerManager.sol:TriggerManager","label":"amountOut","offset":0,"slot":"3","type":"t_uint256"},{"astId":5570,"contract":"contracts/TriggerManager.sol:TriggerManager","label":"slippageUsed","offset":0,"slot":"4","type":"t_uint256"},{"astId":5572,"contract":"contracts/TriggerManager.sol:TriggerManager","label":"executorReward","offset":0,"slot":"5","type":"t_uint256"},{"astId":5574,"contract":"contracts/TriggerManager.sol:TriggerManager","label":"executor","offset":0,"slot":"6","type":"t_address"},{"astId":5576,"contract":"contracts/TriggerManager.sol:TriggerManager","label":"executedAt","offset":0,"slot":"7","type":"t_uint256"},{"astId":5578,"contract":"contracts/TriggerManager.sol:TriggerManager","label":"successful","offset":0,"slot":"8","type":"t_bool"},{"astId":5580,"contract":"contracts/TriggerManager.sol:TriggerManager","label":"errorMessage","offset":0,"slot":"9","type":"t_string_storage"}],"numberOfBytes":"320"},"t_struct(PriceData)5611_storage":{"encoding":"inplace","label":"struct TriggerTypes.PriceData","members":[{"astId":5602,"contract":"contracts/TriggerManager.sol:TriggerManager","label":"price","offset":0,"slot":"0","type":"t_uint256"},{"astId":5604,"contract":"contracts/TriggerManager.sol:TriggerManager","label":"timestamp","offset":0,"slot":"1","type":"t_uint256"},{"astId":5606,"contract":"contracts/TriggerManager.sol:TriggerManager","label":"assetIndex","offset":0,"slot":"2","type":"t_uint32"},{"astId":5608,"contract":"contracts/TriggerManager.sol:TriggerManager","label":"confidence","offset":4,"slot":"2","type":"t_uint8"},{"astId":5610,"contract":"contracts/TriggerManager.sol:TriggerManager","label":"source","offset":0,"slot":"3","type":"t_string_storage"}],"numberOfBytes":"128"},"t_struct(Trigger)5559_storage":{"encoding":"inplace","label":"struct TriggerTypes.Trigger","members":[{"astId":5525,"contract":"contracts/TriggerManager.sol:TriggerManager","label":"id","offset":0,"slot":"0","type":"t_uint256"},{"astId":5527,"contract":"contracts/TriggerManager.sol:TriggerManager","label":"user","offset":0,"slot":"1","type":"t_address"},{"astId":5529,"contract":"contracts/TriggerManager.sol:TriggerManager","label":"baseAssetIndex","offset":20,"slot":"1","type":"t_uint32"},{"astId":5531,"contract":"contracts/TriggerManager.sol:TriggerManager","label":"targetFromAssetIndex","offset":24,"slot":"1","type":"t_uint32"},{"astId":5533,"contract":"contracts/TriggerManager.sol:TriggerManager","label":"targetToAssetIndex","offset":28,"slot":"1","type":"t_uint32"},{"astId":5536,"contract":"contracts/TriggerManager.sol:TriggerManager","label":"operator","offset":0,"slot":"2","type":"t_enum(ComparisonOperator)5511"},{"astId":5538,"contract":"contracts/TriggerManager.sol:TriggerManager","label":"triggerPrice","offset":0,"slot":"3","type":"t_uint256"},{"astId":5541,"contract":"contracts/TriggerManager.sol:TriggerManager","label":"action","offset":0,"slot":"4","type":"t_enum(ActionType)5515"},{"astId":5543,"contract":"contracts/TriggerManager.sol:TriggerManager","label":"amount","offset":0,"slot":"5","type":"t_uint256"},{"astId":5545,"contract":"contracts/TriggerManager.sol:TriggerManager","label":"slippageTolerance","offset":0,"slot":"6","type":"t_uint256"},{"astId":5547,"contract":"contracts/TriggerManager.sol:TriggerManager","label":"expiration","offset":0,"slot":"7","type":"t_uint256"},{"astId":5549,"contract":"contracts/TriggerManager.sol:TriggerManager","label":"executionReward","offset":0,"slot":"8","type":"t_uint256"},{"astId":5552,"contract":"contracts/TriggerManager.sol:TriggerManager","label":"status","offset":0,"slot":"9","type":"t_enum(TriggerStatus)5522"},{"astId":5554,"contract":"contracts/TriggerManager.sol:TriggerManager","label":"createdAt","offset":0,"slot":"10","type":"t_uint256"},{"astId":5556,"contract":"contracts/TriggerManager.sol:TriggerManager","label":"executedAt","offset":0,"slot":"11","type":"t_uint256"},{"astId":5558,"contract":"contracts/TriggerManager.sol:TriggerManager","label":"executor","offset":0,"slot":"12","type":"t_address"}],"numberOfBytes":"416"},"t_struct(TriggerConfig)5625_storage":{"encoding":"inplace","label":"struct TriggerTypes.TriggerConfig","members":[{"astId":5614,"contract":"contracts/TriggerManager.sol:TriggerManager","label":"minExecutionReward","offset":0,"slot":"0","type":"t_uint256"},{"astId":5616,"contract":"contracts/TriggerManager.sol:TriggerManager","label":"maxSlippageBps","offset":0,"slot":"1","type":"t_uint256"},{"astId":5618,"contract":"contracts/TriggerManager.sol:TriggerManager","label":"maxTriggerDuration","offset":0,"slot":"2","type":"t_uint256"},{"astId":5620,"contract":"contracts/TriggerManager.sol:TriggerManager","label":"priceValidityPeriod","offset":0,"slot":"3","type":"t_uint256"},{"astId":5622,"contract":"contracts/TriggerManager.sol:TriggerManager","label":"executionDelay","offset":0,"slot":"4","type":"t_uint256"},{"astId":5624,"contract":"contracts/TriggerManager.sol:TriggerManager","label":"paused","offset":0,"slot":"5","type":"t_bool"}],"numberOfBytes":"192"},"t_uint256":{"encoding":"inplace","label":"uint256","numberOfBytes":"32"},"t_uint32":{"encoding":"inplace","label":"uint32","numberOfBytes":"4"},"t_uint8":{"encoding":"inplace","label":"uint8","numberOfBytes":"1"}}}}}}