{"contracts/L1Read.sol":{"L1Read":{"abi":[{"inputs":[{"internalType":"address","name":"user","type":"address"}],"name":"delegations","outputs":[{"components":[{"internalType":"address","name":"validator","type":"address"},{"internalType":"uint64","name":"amount","type":"uint64"},{"internalType":"uint64","name":"lockedUntilTimestamp","type":"uint64"}],"internalType":"struct L1Read.Delegation[]","name":"","type":"tuple[]"}],"stateMutability":"view","type":"function"},{"inputs":[{"internalType":"address","name":"user","type":"address"}],"name":"delegatorSummary","outputs":[{"components":[{"internalType":"uint64","name":"delegated","type":"uint64"},{"internalType":"uint64","name":"undelegated","type":"uint64"},{"internalType":"uint64","name":"totalPendingWithdrawal","type":"uint64"},{"internalType":"uint64","name":"nPendingWithdrawals","type":"uint64"}],"internalType":"struct L1Read.DelegatorSummary","name":"","type":"tuple"}],"stateMutability":"view","type":"function"},{"inputs":[],"name":"l1BlockNumber","outputs":[{"internalType":"uint64","name":"","type":"uint64"}],"stateMutability":"view","type":"function"},{"inputs":[{"internalType":"uint32","name":"index","type":"uint32"}],"name":"markPx","outputs":[{"internalType":"uint64","name":"","type":"uint64"}],"stateMutability":"view","type":"function"},{"inputs":[{"internalType":"uint32","name":"index","type":"uint32"}],"name":"oraclePx","outputs":[{"internalType":"uint64","name":"","type":"uint64"}],"stateMutability":"view","type":"function"},{"inputs":[{"internalType":"uint32","name":"perp","type":"uint32"}],"name":"perpAssetInfo","outputs":[{"components":[{"internalType":"string","name":"coin","type":"string"},{"internalType":"uint32","name":"marginTableId","type":"uint32"},{"internalType":"uint8","name":"szDecimals","type":"uint8"},{"internalType":"uint8","name":"maxLeverage","type":"uint8"},{"internalType":"bool","name":"onlyIsolated","type":"bool"}],"internalType":"struct L1Read.PerpAssetInfo","name":"","type":"tuple"}],"stateMutability":"view","type":"function"},{"inputs":[{"internalType":"address","name":"user","type":"address"},{"internalType":"uint16","name":"perp","type":"uint16"}],"name":"position","outputs":[{"components":[{"internalType":"int64","name":"szi","type":"int64"},{"internalType":"uint64","name":"entryNtl","type":"uint64"},{"internalType":"int64","name":"isolatedRawUsd","type":"int64"},{"internalType":"uint32","name":"leverage","type":"uint32"},{"internalType":"bool","name":"isIsolated","type":"bool"}],"internalType":"struct L1Read.Position","name":"","type":"tuple"}],"stateMutability":"view","type":"function"},{"inputs":[{"internalType":"address","name":"user","type":"address"},{"internalType":"uint64","name":"token","type":"uint64"}],"name":"spotBalance","outputs":[{"components":[{"internalType":"uint64","name":"total","type":"uint64"},{"internalType":"uint64","name":"hold","type":"uint64"},{"internalType":"uint64","name":"entryNtl","type":"uint64"}],"internalType":"struct L1Read.SpotBalance","name":"","type":"tuple"}],"stateMutability":"view","type":"function"},{"inputs":[{"internalType":"uint32","name":"spot","type":"uint32"}],"name":"spotInfo","outputs":[{"components":[{"internalType":"string","name":"name","type":"string"},{"internalType":"uint64[2]","name":"tokens","type":"uint64[2]"}],"internalType":"struct L1Read.SpotInfo","name":"","type":"tuple"}],"stateMutability":"view","type":"function"},{"inputs":[{"internalType":"uint32","name":"index","type":"uint32"}],"name":"spotPx","outputs":[{"internalType":"uint64","name":"","type":"uint64"}],"stateMutability":"view","type":"function"},{"inputs":[{"internalType":"uint32","name":"token","type":"uint32"}],"name":"tokenInfo","outputs":[{"components":[{"internalType":"string","name":"name","type":"string"},{"internalType":"uint64[]","name":"spots","type":"uint64[]"},{"internalType":"uint64","name":"deployerTradingFeeShare","type":"uint64"},{"internalType":"address","name":"deployer","type":"address"},{"internalType":"address","name":"evmContract","type":"address"},{"internalType":"uint8","name":"szDecimals","type":"uint8"},{"internalType":"uint8","name":"weiDecimals","type":"uint8"},{"internalType":"int8","name":"evmExtraWeiDecimals","type":"int8"}],"internalType":"struct L1Read.TokenInfo","name":"","type":"tuple"}],"stateMutability":"view","type":"function"},{"inputs":[{"internalType":"address","name":"user","type":"address"},{"internalType":"address","name":"vault","type":"address"}],"name":"userVaultEquity","outputs":[{"components":[{"internalType":"uint64","name":"equity","type":"uint64"},{"internalType":"uint64","name":"lockedUntilTimestamp","type":"uint64"}],"internalType":"struct L1Read.UserVaultEquity","name":"","type":"tuple"}],"stateMutability":"view","type":"function"},{"inputs":[{"internalType":"address","name":"user","type":"address"}],"name":"withdrawable","outputs":[{"components":[{"internalType":"uint64","name":"withdrawable","type":"uint64"}],"internalType":"struct L1Read.Withdrawable","name":"","type":"tuple"}],"stateMutability":"view","type":"function"}],"evm":{"bytecode":{"linkReferences":{},"object":"6080806040523461001657611403908161001c8239f35b600080fdfe60806040908082526004908136101561001757600080fd5b600090813560e01c908163298c9005146110d75750806337f980a514610f9a5780634162cd3214610ded57806368fb110914610b3857806389cf7c89146109bf5780639070275914610908578063a69610d1146107d2578063b6dff0b514610615578063bffe348614610436578063c0f0f5ef1461037f578063c8eec8c6146102bc578063ce513b6f146101d45763ee1b5af1146100b457600080fd5b3461017f578260031936011261017f576100cc611187565b6024356001600160a01b038181169392918490036101d057829182918751956100f48761126d565b83875283602080980152885191878301931683528882015287815261011881611252565b51906108025afa926101286112df565b93156101825750838380518101031261017f57508251916101488361126d565b816101628561015883850161130f565b938487520161130f565b93019283528351926001600160401b038092168452511690820152f35b80fd5b845162461bcd60e51b8152908101839052602260248201527f5661756c7445717569747920707265636f6d70696c652063616c6c206661696c604482015261195960f21b6064820152608490fd5b8280fd5b5091346101d0576020928360031936011261017f5780806101f3611187565b8185516101ff81611288565b5284516001600160a01b03909116878201908152878252906102208161126d565b51906108035afa926102306112df565b931561026d5750838380518101031261017f575080610263846001600160401b0393519461025d86611288565b0161130f565b8093525191168152f35b825162461bcd60e51b8152908101859052602360248201527f576974686472617761626c6520707265636f6d70696c652063616c6c206661696044820152621b195960ea1b6064820152608490fd5b509190346101d0576020928360031936011261017f57813563ffffffff811680910361037b5781809185518781019182528781526102f98161126d565b51906108065afa916103096112df565b92156103385750838280518101031261017f5750610330836001600160401b03920161130f565b915191168152f35b835162461bcd60e51b8152908101859052601d60248201527f4d61726b507820707265636f6d70696c652063616c6c206661696c65640000006044820152606490fd5b5080fd5b509190346101d0576020928360031936011261017f57813563ffffffff811680910361037b5781809185518781019182528781526103bc8161126d565b51906108075afa916103cc6112df565b92156103f35750838280518101031261017f5750610330836001600160401b03920161130f565b835162461bcd60e51b8152908101859052601f60248201527f4f7261636c65507820707265636f6d70696c652063616c6c206661696c6564006044820152606490fd5b50823461037b576020806003193601126101d057610452611187565b92808084518481019060018060a01b0380981682528581526104738161126d565b51906108045afa946104836112df565b95156105c7575084518501928284019083878603126101d057838701516001600160401b03978882116105c357019682603f890112156105bf5784880151926104cb84611394565b966104d8845198896112a3565b84885286880190819a8560608098028201019384116105bb579480949a96959b9998979b01915b83831061055a575050505080519684880195858952518096528188019698935b86851061052c5788880389f35b895180518216895280870151831689880152830151821688840152988501989683019660019094019361051f565b858884849e9a9b9c9e9d9798999d0301126105bb57888791875161057d81611252565b610586866113ab565b815261059383870161130f565b838201526105a289870161130f565b898201528152019201919a9897969a99959493996104ff565b8780fd5b8380fd5b8480fd5b835162461bcd60e51b8152908101839052602260248201527f44656c65676174696f6e7320707265636f6d70696c652063616c6c206661696c604482015261195960f21b6064820152608490fd5b509190346101d057602090816003193601126105bf5783813563ffffffff811680910361037b57819085516106498161126d565b606081528587519161065a8361126d565b88368437015285518581019182528581526106748161126d565b519061080b5afa906106846112df565b911561078f5750805181019180830193818385031261078b5781830151926001600160401b03938481116105bb57606091018095031261078b578051946106ca8661126d565b828501518481116105bb5781846106e392880101611323565b865280605f86011215610787578151946106fc8661126d565b859060808101928311610783579280989301905b8282106107665750505081850193845261073a8651958387525160608488015260808701906111c5565b9351909585015b6002871061074f5785850386f35b828060019286855116815201920196019590610741565b848091610775849b969b61130f565b815201910190979297610710565b8880fd5b8680fd5b8580fd5b835162461bcd60e51b8152908101839052601f60248201527f53706f74496e666f20707265636f6d70696c652063616c6c206661696c6564006044820152606490fd5b5091346101d057806003193601126101d0576107ec611187565b602435846001600160401b039283831680930361037b57819085519361081185611252565b8285528287602096828882015201528651908582019260018060a01b031683528782015286815261084181611252565b51906108015afa936108516112df565b94156108bc57506060848051810103126105c3576060945082519061087582611252565b8261088182870161130f565b95868452856108a28961089583850161130f565b938688019485520161130f565b940193845281865197168752511690850152511690820152f35b60849184519162461bcd60e51b8352820152602260248201527f53706f7442616c616e636520707265636f6d70696c652063616c6c206661696c604482015261195960f21b6064820152fd5b509190346101d0576020928360031936011261017f57813563ffffffff811680910361037b5781809185518781019182528781526109458161126d565b51906108085afa916109556112df565b921561097c5750838280518101031261017f5750610330836001600160401b03920161130f565b835162461bcd60e51b8152908101859052601d60248201527f53706f74507820707265636f6d70696c652063616c6c206661696c65640000006044820152606490fd5b50823461037b578060031936011261037b576109d9611187565b916024359261ffff841680940361037b578180918451956109f98761121b565b828752826080602098828a820152828982015282606082015201528551908782019260018060a01b0316835286820152858152610a3581611252565b51906108005afa93610a456112df565b9415610af5575060a08480518101031261017f575063ffffffff60a093825192610a6e8461121b565b610a798583016113bf565b94858552610a8882840161130f565b908086019182526001600160401b03610aa3606086016113bf565b928488019384526080610ac98b610abb838a01611368565b9860608c01998a5201611387565b980197885284519860070b89525116908701525160070b90850152511660608301525115156080820152f35b825162461bcd60e51b8152908101849052601f60248201527f506f736974696f6e20707265636f6d70696c652063616c6c206661696c6564006044820152606490fd5b5091346101d0576020928360031936011261017f5782359063ffffffff821680920361017f578080845193610b6c85611236565b8160e0606096878152878b820152828982015282888201528260808201528260a08201528260c082015201528551888101918252888152610bac8161126d565b519061080c5afa93610bbc6112df565b9415610dac5750835184018581019086868203126101d057868601516001600160401b03968782116105c3570193849161010095869103126105bf57855196610c0488611236565b8883015181811161078b57848a610c1d92860101611323565b88528683015181811161078b5783019380603f8601121561078b5789850151610c4581611394565b95610c528a5197886112a3565b818752898c88019260051b8201019283116105bb578901905b828210610d95575050509188939188999389948501938452610c8e82840161130f565b898601908152610ca0608085016113ab565b9483870195865289610cb460a087016113ab565b956080890196875260a0610cca60c08301611379565b990198895260c0610cdd60e08301611379565b9e019d8e52015197888a0b8903610d9157908d60e0610d149e9f01998a528c519d8e91848352518d858401526101208301906111c5565b91519c601f198284030191015281808d5192838152019c01918a5b828110610d7b57505050509260ff95928b9c959287955116908c015260018060a01b038092511660808c0152511660a08a0152511660c0880152511660e086015251900b908301520390f35b835186168e529c81019c92810192600101610d2f565b8980fd5b8b8091610da18461130f565b815201910190610c6b565b606490868086519262461bcd60e51b845283015260248201527f546f6b656e496e666f20707265636f6d70696c652063616c6c206661696c65646044820152fd5b50823461037b576020806003193601126101d057833563ffffffff908181168091036105c3578480918160808751610e248161121b565b606081528288820152828982015282606082015201528551858101918252858152610e4e8161126d565b519061080a5afa94610e5e6112df565b9515610f4b5750845185019482818703126105c357828101516001600160401b039182821161078757019560a08782031261078b57845195610e9f8761121b565b8488015192831161017f575060ff92610ec360a09893868087950191860101611323565b8752610ed0868401611368565b95858801968752610ee360608501611379565b91818901928352610f2a610f0b8b610efd60808901611379565b9760608d0198895201611387565b9760808b0198895283519b8c9b828d5251918c015260c08b01906111c5565b97511690880152511660608601525116608084015251151560a08301520390f35b835162461bcd60e51b81529081018390526024808201527f506572704173736574496e666f20707265636f6d70696c652063616c6c2066616044820152631a5b195960e21b6064820152608490fd5b509190346101d057602091826003193601126105bf578380610fba611187565b8160608551610fc8816111ea565b82815282898201528287820152015283518681019160018060a01b03168252868152610ff38161126d565b51906108055afa916110036112df565b921561108557506080828051810103126105bf5760809350805190611027826111ea565b61103284840161130f565b80835261104082850161130f565b9385840194855260606110588861089583850161130f565b94019384528251956001600160401b03809681809516895251169087015251169084015251166060820152f35b83608492519162461bcd60e51b8352820152602860248201527f44656c656761746f727953756d6d61727920707265636f6d70696c652063616c6044820152671b0819985a5b195960c21b6064820152fd5b849291503461037b578160031936011261037b578181818093526110fa81611288565b6020815191016108095afa9261110e6112df565b9315611138575060208380518101031261017f57506001600160401b03610330602080940161130f565b608490602084519162461bcd60e51b83528201526024808201527f4c31426c6f636b4e756d62657220707265636f6d70696c652063616c6c2066616044820152631a5b195960e21b6064820152fd5b600435906001600160a01b038216820361119d57565b600080fd5b60005b8381106111b55750506000910152565b81810151838201526020016111a5565b906020916111de815180928185528580860191016111a2565b601f01601f1916010190565b608081019081106001600160401b0382111761120557604052565b634e487b7160e01b600052604160045260246000fd5b60a081019081106001600160401b0382111761120557604052565b61010081019081106001600160401b0382111761120557604052565b606081019081106001600160401b0382111761120557604052565b604081019081106001600160401b0382111761120557604052565b602081019081106001600160401b0382111761120557604052565b90601f801991011681019081106001600160401b0382111761120557604052565b6001600160401b03811161120557601f01601f191660200190565b3d1561130a573d906112f0826112c4565b916112fe60405193846112a3565b82523d6000602084013e565b606090565b51906001600160401b038216820361119d57565b81601f8201121561119d578051611339816112c4565b9261134760405194856112a3565b8184526020828401011161119d5761136591602080850191016111a2565b90565b519063ffffffff8216820361119d57565b519060ff8216820361119d57565b5190811515820361119d57565b6001600160401b0381116112055760051b60200190565b51906001600160a01b038216820361119d57565b51908160070b820361119d5756fea2646970667358221220942074472a69a8648038014c5767600386f5470e68008132127c4e942c964f2364736f6c63430008140033","opcodes":"PUSH1 0x80 DUP1 PUSH1 0x40 MSTORE CALLVALUE PUSH2 0x16 JUMPI PUSH2 0x1403 SWAP1 DUP2 PUSH2 0x1C DUP3 CODECOPY RETURN JUMPDEST PUSH1 0x0 DUP1 REVERT INVALID PUSH1 0x80 PUSH1 0x40 SWAP1 DUP1 DUP3 MSTORE PUSH1 0x4 SWAP1 DUP2 CALLDATASIZE LT ISZERO PUSH2 0x17 JUMPI PUSH1 0x0 DUP1 REVERT JUMPDEST PUSH1 0x0 SWAP1 DUP2 CALLDATALOAD PUSH1 0xE0 SHR SWAP1 DUP2 PUSH4 0x298C9005 EQ PUSH2 0x10D7 JUMPI POP DUP1 PUSH4 0x37F980A5 EQ PUSH2 0xF9A JUMPI DUP1 PUSH4 0x4162CD32 EQ PUSH2 0xDED JUMPI DUP1 PUSH4 0x68FB1109 EQ PUSH2 0xB38 JUMPI DUP1 PUSH4 0x89CF7C89 EQ PUSH2 0x9BF JUMPI DUP1 PUSH4 0x90702759 EQ PUSH2 0x908 JUMPI DUP1 PUSH4 0xA69610D1 EQ PUSH2 0x7D2 JUMPI DUP1 PUSH4 0xB6DFF0B5 EQ PUSH2 0x615 JUMPI DUP1 PUSH4 0xBFFE3486 EQ PUSH2 0x436 JUMPI DUP1 PUSH4 0xC0F0F5EF EQ PUSH2 0x37F JUMPI DUP1 PUSH4 0xC8EEC8C6 EQ PUSH2 0x2BC JUMPI DUP1 PUSH4 0xCE513B6F EQ PUSH2 0x1D4 JUMPI PUSH4 0xEE1B5AF1 EQ PUSH2 0xB4 JUMPI PUSH1 0x0 DUP1 REVERT JUMPDEST CALLVALUE PUSH2 0x17F JUMPI DUP3 PUSH1 0x3 NOT CALLDATASIZE ADD SLT PUSH2 0x17F JUMPI PUSH2 0xCC PUSH2 0x1187 JUMP JUMPDEST PUSH1 0x24 CALLDATALOAD PUSH1 0x1 PUSH1 0x1 PUSH1 0xA0 SHL SUB DUP2 DUP2 AND SWAP4 SWAP3 SWAP2 DUP5 SWAP1 SUB PUSH2 0x1D0 JUMPI DUP3 SWAP2 DUP3 SWAP2 DUP8 MLOAD SWAP6 PUSH2 0xF4 DUP8 PUSH2 0x126D JUMP JUMPDEST DUP4 DUP8 MSTORE DUP4 PUSH1 0x20 DUP1 SWAP9 ADD MSTORE DUP9 MLOAD SWAP2 DUP8 DUP4 ADD SWAP4 AND DUP4 MSTORE DUP9 DUP3 ADD MSTORE DUP8 DUP2 MSTORE PUSH2 0x118 DUP2 PUSH2 0x1252 JUMP JUMPDEST MLOAD SWAP1 PUSH2 0x802 GAS STATICCALL SWAP3 PUSH2 0x128 PUSH2 0x12DF JUMP JUMPDEST SWAP4 ISZERO PUSH2 0x182 JUMPI POP DUP4 DUP4 DUP1 MLOAD DUP2 ADD SUB SLT PUSH2 0x17F JUMPI POP DUP3 MLOAD SWAP2 PUSH2 0x148 DUP4 PUSH2 0x126D JUMP JUMPDEST DUP2 PUSH2 0x162 DUP6 PUSH2 0x158 DUP4 DUP6 ADD PUSH2 0x130F JUMP JUMPDEST SWAP4 DUP5 DUP8 MSTORE ADD PUSH2 0x130F JUMP JUMPDEST SWAP4 ADD SWAP3 DUP4 MSTORE DUP4 MLOAD SWAP3 PUSH1 0x1 PUSH1 0x1 PUSH1 0x40 SHL SUB DUP1 SWAP3 AND DUP5 MSTORE MLOAD AND SWAP1 DUP3 ADD MSTORE RETURN JUMPDEST DUP1 REVERT JUMPDEST DUP5 MLOAD PUSH3 0x461BCD PUSH1 0xE5 SHL DUP2 MSTORE SWAP1 DUP2 ADD DUP4 SWAP1 MSTORE PUSH1 0x22 PUSH1 0x24 DUP3 ADD MSTORE PUSH32 0x5661756C7445717569747920707265636F6D70696C652063616C6C206661696C PUSH1 0x44 DUP3 ADD MSTORE PUSH2 0x1959 PUSH1 0xF2 SHL PUSH1 0x64 DUP3 ADD MSTORE PUSH1 0x84 SWAP1 REVERT JUMPDEST DUP3 DUP1 REVERT JUMPDEST POP SWAP2 CALLVALUE PUSH2 0x1D0 JUMPI PUSH1 0x20 SWAP3 DUP4 PUSH1 0x3 NOT CALLDATASIZE ADD SLT PUSH2 0x17F JUMPI DUP1 DUP1 PUSH2 0x1F3 PUSH2 0x1187 JUMP JUMPDEST DUP2 DUP6 MLOAD PUSH2 0x1FF DUP2 PUSH2 0x1288 JUMP JUMPDEST MSTORE DUP5 MLOAD PUSH1 0x1 PUSH1 0x1 PUSH1 0xA0 SHL SUB SWAP1 SWAP2 AND DUP8 DUP3 ADD SWAP1 DUP2 MSTORE DUP8 DUP3 MSTORE SWAP1 PUSH2 0x220 DUP2 PUSH2 0x126D JUMP JUMPDEST MLOAD SWAP1 PUSH2 0x803 GAS STATICCALL SWAP3 PUSH2 0x230 PUSH2 0x12DF JUMP JUMPDEST SWAP4 ISZERO PUSH2 0x26D JUMPI POP DUP4 DUP4 DUP1 MLOAD DUP2 ADD SUB SLT PUSH2 0x17F JUMPI POP DUP1 PUSH2 0x263 DUP5 PUSH1 0x1 PUSH1 0x1 PUSH1 0x40 SHL SUB SWAP4 MLOAD SWAP5 PUSH2 0x25D DUP7 PUSH2 0x1288 JUMP JUMPDEST ADD PUSH2 0x130F JUMP JUMPDEST DUP1 SWAP4 MSTORE MLOAD SWAP2 AND DUP2 MSTORE RETURN JUMPDEST DUP3 MLOAD PUSH3 0x461BCD PUSH1 0xE5 SHL DUP2 MSTORE SWAP1 DUP2 ADD DUP6 SWAP1 MSTORE PUSH1 0x23 PUSH1 0x24 DUP3 ADD MSTORE PUSH32 0x576974686472617761626C6520707265636F6D70696C652063616C6C20666169 PUSH1 0x44 DUP3 ADD MSTORE PUSH3 0x1B1959 PUSH1 0xEA SHL PUSH1 0x64 DUP3 ADD MSTORE PUSH1 0x84 SWAP1 REVERT JUMPDEST POP SWAP2 SWAP1 CALLVALUE PUSH2 0x1D0 JUMPI PUSH1 0x20 SWAP3 DUP4 PUSH1 0x3 NOT CALLDATASIZE ADD SLT PUSH2 0x17F JUMPI DUP2 CALLDATALOAD PUSH4 0xFFFFFFFF DUP2 AND DUP1 SWAP2 SUB PUSH2 0x37B JUMPI DUP2 DUP1 SWAP2 DUP6 MLOAD DUP8 DUP2 ADD SWAP2 DUP3 MSTORE DUP8 DUP2 MSTORE PUSH2 0x2F9 DUP2 PUSH2 0x126D JUMP JUMPDEST MLOAD SWAP1 PUSH2 0x806 GAS STATICCALL SWAP2 PUSH2 0x309 PUSH2 0x12DF JUMP JUMPDEST SWAP3 ISZERO PUSH2 0x338 JUMPI POP DUP4 DUP3 DUP1 MLOAD DUP2 ADD SUB SLT PUSH2 0x17F JUMPI POP PUSH2 0x330 DUP4 PUSH1 0x1 PUSH1 0x1 PUSH1 0x40 SHL SUB SWAP3 ADD PUSH2 0x130F JUMP JUMPDEST SWAP2 MLOAD SWAP2 AND DUP2 MSTORE RETURN JUMPDEST DUP4 MLOAD PUSH3 0x461BCD PUSH1 0xE5 SHL DUP2 MSTORE SWAP1 DUP2 ADD DUP6 SWAP1 MSTORE PUSH1 0x1D PUSH1 0x24 DUP3 ADD MSTORE PUSH32 0x4D61726B507820707265636F6D70696C652063616C6C206661696C6564000000 PUSH1 0x44 DUP3 ADD MSTORE PUSH1 0x64 SWAP1 REVERT JUMPDEST POP DUP1 REVERT JUMPDEST POP SWAP2 SWAP1 CALLVALUE PUSH2 0x1D0 JUMPI PUSH1 0x20 SWAP3 DUP4 PUSH1 0x3 NOT CALLDATASIZE ADD SLT PUSH2 0x17F JUMPI DUP2 CALLDATALOAD PUSH4 0xFFFFFFFF DUP2 AND DUP1 SWAP2 SUB PUSH2 0x37B JUMPI DUP2 DUP1 SWAP2 DUP6 MLOAD DUP8 DUP2 ADD SWAP2 DUP3 MSTORE DUP8 DUP2 MSTORE PUSH2 0x3BC DUP2 PUSH2 0x126D JUMP JUMPDEST MLOAD SWAP1 PUSH2 0x807 GAS STATICCALL SWAP2 PUSH2 0x3CC PUSH2 0x12DF JUMP JUMPDEST SWAP3 ISZERO PUSH2 0x3F3 JUMPI POP DUP4 DUP3 DUP1 MLOAD DUP2 ADD SUB SLT PUSH2 0x17F JUMPI POP PUSH2 0x330 DUP4 PUSH1 0x1 PUSH1 0x1 PUSH1 0x40 SHL SUB SWAP3 ADD PUSH2 0x130F JUMP JUMPDEST DUP4 MLOAD PUSH3 0x461BCD PUSH1 0xE5 SHL DUP2 MSTORE SWAP1 DUP2 ADD DUP6 SWAP1 MSTORE PUSH1 0x1F PUSH1 0x24 DUP3 ADD MSTORE PUSH32 0x4F7261636C65507820707265636F6D70696C652063616C6C206661696C656400 PUSH1 0x44 DUP3 ADD MSTORE PUSH1 0x64 SWAP1 REVERT JUMPDEST POP DUP3 CALLVALUE PUSH2 0x37B JUMPI PUSH1 0x20 DUP1 PUSH1 0x3 NOT CALLDATASIZE ADD SLT PUSH2 0x1D0 JUMPI PUSH2 0x452 PUSH2 0x1187 JUMP JUMPDEST SWAP3 DUP1 DUP1 DUP5 MLOAD DUP5 DUP2 ADD SWAP1 PUSH1 0x1 DUP1 PUSH1 0xA0 SHL SUB DUP1 SWAP9 AND DUP3 MSTORE DUP6 DUP2 MSTORE PUSH2 0x473 DUP2 PUSH2 0x126D JUMP JUMPDEST MLOAD SWAP1 PUSH2 0x804 GAS STATICCALL SWAP5 PUSH2 0x483 PUSH2 0x12DF JUMP JUMPDEST SWAP6 ISZERO PUSH2 0x5C7 JUMPI POP DUP5 MLOAD DUP6 ADD SWAP3 DUP3 DUP5 ADD SWAP1 DUP4 DUP8 DUP7 SUB SLT PUSH2 0x1D0 JUMPI DUP4 DUP8 ADD MLOAD PUSH1 0x1 PUSH1 0x1 PUSH1 0x40 SHL SUB SWAP8 DUP9 DUP3 GT PUSH2 0x5C3 JUMPI ADD SWAP7 DUP3 PUSH1 0x3F DUP10 ADD SLT ISZERO PUSH2 0x5BF JUMPI DUP5 DUP9 ADD MLOAD SWAP3 PUSH2 0x4CB DUP5 PUSH2 0x1394 JUMP JUMPDEST SWAP7 PUSH2 0x4D8 DUP5 MLOAD SWAP9 DUP10 PUSH2 0x12A3 JUMP JUMPDEST DUP5 DUP9 MSTORE DUP7 DUP9 ADD SWAP1 DUP2 SWAP11 DUP6 PUSH1 0x60 DUP1 SWAP9 MUL DUP3 ADD ADD SWAP4 DUP5 GT PUSH2 0x5BB JUMPI SWAP5 DUP1 SWAP5 SWAP11 SWAP7 SWAP6 SWAP12 SWAP10 SWAP9 SWAP8 SWAP12 ADD SWAP2 JUMPDEST DUP4 DUP4 LT PUSH2 0x55A JUMPI POP POP POP POP DUP1 MLOAD SWAP7 DUP5 DUP9 ADD SWAP6 DUP6 DUP10 MSTORE MLOAD DUP1 SWAP7 MSTORE DUP2 DUP9 ADD SWAP7 SWAP9 SWAP4 JUMPDEST DUP7 DUP6 LT PUSH2 0x52C JUMPI DUP9 DUP9 SUB DUP10 RETURN JUMPDEST DUP10 MLOAD DUP1 MLOAD DUP3 AND DUP10 MSTORE DUP1 DUP8 ADD MLOAD DUP4 AND DUP10 DUP9 ADD MSTORE DUP4 ADD MLOAD DUP3 AND DUP9 DUP5 ADD MSTORE SWAP9 DUP6 ADD SWAP9 SWAP7 DUP4 ADD SWAP7 PUSH1 0x1 SWAP1 SWAP5 ADD SWAP4 PUSH2 0x51F JUMP JUMPDEST DUP6 DUP9 DUP5 DUP5 SWAP15 SWAP11 SWAP12 SWAP13 SWAP15 SWAP14 SWAP8 SWAP9 SWAP10 SWAP14 SUB ADD SLT PUSH2 0x5BB JUMPI DUP9 DUP8 SWAP2 DUP8 MLOAD PUSH2 0x57D DUP2 PUSH2 0x1252 JUMP JUMPDEST PUSH2 0x586 DUP7 PUSH2 0x13AB JUMP JUMPDEST DUP2 MSTORE PUSH2 0x593 DUP4 DUP8 ADD PUSH2 0x130F JUMP JUMPDEST DUP4 DUP3 ADD MSTORE PUSH2 0x5A2 DUP10 DUP8 ADD PUSH2 0x130F JUMP JUMPDEST DUP10 DUP3 ADD MSTORE DUP2 MSTORE ADD SWAP3 ADD SWAP2 SWAP11 SWAP9 SWAP8 SWAP7 SWAP11 SWAP10 SWAP6 SWAP5 SWAP4 SWAP10 PUSH2 0x4FF JUMP JUMPDEST DUP8 DUP1 REVERT JUMPDEST DUP4 DUP1 REVERT JUMPDEST DUP5 DUP1 REVERT JUMPDEST DUP4 MLOAD PUSH3 0x461BCD PUSH1 0xE5 SHL DUP2 MSTORE SWAP1 DUP2 ADD DUP4 SWAP1 MSTORE PUSH1 0x22 PUSH1 0x24 DUP3 ADD MSTORE PUSH32 0x44656C65676174696F6E7320707265636F6D70696C652063616C6C206661696C PUSH1 0x44 DUP3 ADD MSTORE PUSH2 0x1959 PUSH1 0xF2 SHL PUSH1 0x64 DUP3 ADD MSTORE PUSH1 0x84 SWAP1 REVERT JUMPDEST POP SWAP2 SWAP1 CALLVALUE PUSH2 0x1D0 JUMPI PUSH1 0x20 SWAP1 DUP2 PUSH1 0x3 NOT CALLDATASIZE ADD SLT PUSH2 0x5BF JUMPI DUP4 DUP2 CALLDATALOAD PUSH4 0xFFFFFFFF DUP2 AND DUP1 SWAP2 SUB PUSH2 0x37B JUMPI DUP2 SWAP1 DUP6 MLOAD PUSH2 0x649 DUP2 PUSH2 0x126D JUMP JUMPDEST PUSH1 0x60 DUP2 MSTORE DUP6 DUP8 MLOAD SWAP2 PUSH2 0x65A DUP4 PUSH2 0x126D JUMP JUMPDEST DUP9 CALLDATASIZE DUP5 CALLDATACOPY ADD MSTORE DUP6 MLOAD DUP6 DUP2 ADD SWAP2 DUP3 MSTORE DUP6 DUP2 MSTORE PUSH2 0x674 DUP2 PUSH2 0x126D JUMP JUMPDEST MLOAD SWAP1 PUSH2 0x80B GAS STATICCALL SWAP1 PUSH2 0x684 PUSH2 0x12DF JUMP JUMPDEST SWAP2 ISZERO PUSH2 0x78F JUMPI POP DUP1 MLOAD DUP2 ADD SWAP2 DUP1 DUP4 ADD SWAP4 DUP2 DUP4 DUP6 SUB SLT PUSH2 0x78B JUMPI DUP2 DUP4 ADD MLOAD SWAP3 PUSH1 0x1 PUSH1 0x1 PUSH1 0x40 SHL SUB SWAP4 DUP5 DUP2 GT PUSH2 0x5BB JUMPI PUSH1 0x60 SWAP2 ADD DUP1 SWAP6 SUB SLT PUSH2 0x78B JUMPI DUP1 MLOAD SWAP5 PUSH2 0x6CA DUP7 PUSH2 0x126D JUMP JUMPDEST DUP3 DUP6 ADD MLOAD DUP5 DUP2 GT PUSH2 0x5BB JUMPI DUP2 DUP5 PUSH2 0x6E3 SWAP3 DUP9 ADD ADD PUSH2 0x1323 JUMP JUMPDEST DUP7 MSTORE DUP1 PUSH1 0x5F DUP7 ADD SLT ISZERO PUSH2 0x787 JUMPI DUP2 MLOAD SWAP5 PUSH2 0x6FC DUP7 PUSH2 0x126D JUMP JUMPDEST DUP6 SWAP1 PUSH1 0x80 DUP2 ADD SWAP3 DUP4 GT PUSH2 0x783 JUMPI SWAP3 DUP1 SWAP9 SWAP4 ADD SWAP1 JUMPDEST DUP3 DUP3 LT PUSH2 0x766 JUMPI POP POP POP DUP2 DUP6 ADD SWAP4 DUP5 MSTORE PUSH2 0x73A DUP7 MLOAD SWAP6 DUP4 DUP8 MSTORE MLOAD PUSH1 0x60 DUP5 DUP9 ADD MSTORE PUSH1 0x80 DUP8 ADD SWAP1 PUSH2 0x11C5 JUMP JUMPDEST SWAP4 MLOAD SWAP1 SWAP6 DUP6 ADD JUMPDEST PUSH1 0x2 DUP8 LT PUSH2 0x74F JUMPI DUP6 DUP6 SUB DUP7 RETURN JUMPDEST DUP3 DUP1 PUSH1 0x1 SWAP3 DUP7 DUP6 MLOAD AND DUP2 MSTORE ADD SWAP3 ADD SWAP7 ADD SWAP6 SWAP1 PUSH2 0x741 JUMP JUMPDEST DUP5 DUP1 SWAP2 PUSH2 0x775 DUP5 SWAP12 SWAP7 SWAP12 PUSH2 0x130F JUMP JUMPDEST DUP2 MSTORE ADD SWAP2 ADD SWAP1 SWAP8 SWAP3 SWAP8 PUSH2 0x710 JUMP JUMPDEST DUP9 DUP1 REVERT JUMPDEST DUP7 DUP1 REVERT JUMPDEST DUP6 DUP1 REVERT JUMPDEST DUP4 MLOAD PUSH3 0x461BCD PUSH1 0xE5 SHL DUP2 MSTORE SWAP1 DUP2 ADD DUP4 SWAP1 MSTORE PUSH1 0x1F PUSH1 0x24 DUP3 ADD MSTORE PUSH32 0x53706F74496E666F20707265636F6D70696C652063616C6C206661696C656400 PUSH1 0x44 DUP3 ADD MSTORE PUSH1 0x64 SWAP1 REVERT JUMPDEST POP SWAP2 CALLVALUE PUSH2 0x1D0 JUMPI DUP1 PUSH1 0x3 NOT CALLDATASIZE ADD SLT PUSH2 0x1D0 JUMPI PUSH2 0x7EC PUSH2 0x1187 JUMP JUMPDEST PUSH1 0x24 CALLDATALOAD DUP5 PUSH1 0x1 PUSH1 0x1 PUSH1 0x40 SHL SUB SWAP3 DUP4 DUP4 AND DUP1 SWAP4 SUB PUSH2 0x37B JUMPI DUP2 SWAP1 DUP6 MLOAD SWAP4 PUSH2 0x811 DUP6 PUSH2 0x1252 JUMP JUMPDEST DUP3 DUP6 MSTORE DUP3 DUP8 PUSH1 0x20 SWAP7 DUP3 DUP9 DUP3 ADD MSTORE ADD MSTORE DUP7 MLOAD SWAP1 DUP6 DUP3 ADD SWAP3 PUSH1 0x1 DUP1 PUSH1 0xA0 SHL SUB AND DUP4 MSTORE DUP8 DUP3 ADD MSTORE DUP7 DUP2 MSTORE PUSH2 0x841 DUP2 PUSH2 0x1252 JUMP JUMPDEST MLOAD SWAP1 PUSH2 0x801 GAS STATICCALL SWAP4 PUSH2 0x851 PUSH2 0x12DF JUMP JUMPDEST SWAP5 ISZERO PUSH2 0x8BC JUMPI POP PUSH1 0x60 DUP5 DUP1 MLOAD DUP2 ADD SUB SLT PUSH2 0x5C3 JUMPI PUSH1 0x60 SWAP5 POP DUP3 MLOAD SWAP1 PUSH2 0x875 DUP3 PUSH2 0x1252 JUMP JUMPDEST DUP3 PUSH2 0x881 DUP3 DUP8 ADD PUSH2 0x130F JUMP JUMPDEST SWAP6 DUP7 DUP5 MSTORE DUP6 PUSH2 0x8A2 DUP10 PUSH2 0x895 DUP4 DUP6 ADD PUSH2 0x130F JUMP JUMPDEST SWAP4 DUP7 DUP9 ADD SWAP5 DUP6 MSTORE ADD PUSH2 0x130F JUMP JUMPDEST SWAP5 ADD SWAP4 DUP5 MSTORE DUP2 DUP7 MLOAD SWAP8 AND DUP8 MSTORE MLOAD AND SWAP1 DUP6 ADD MSTORE MLOAD AND SWAP1 DUP3 ADD MSTORE RETURN JUMPDEST PUSH1 0x84 SWAP2 DUP5 MLOAD SWAP2 PUSH3 0x461BCD PUSH1 0xE5 SHL DUP4 MSTORE DUP3 ADD MSTORE PUSH1 0x22 PUSH1 0x24 DUP3 ADD MSTORE PUSH32 0x53706F7442616C616E636520707265636F6D70696C652063616C6C206661696C PUSH1 0x44 DUP3 ADD MSTORE PUSH2 0x1959 PUSH1 0xF2 SHL PUSH1 0x64 DUP3 ADD MSTORE REVERT JUMPDEST POP SWAP2 SWAP1 CALLVALUE PUSH2 0x1D0 JUMPI PUSH1 0x20 SWAP3 DUP4 PUSH1 0x3 NOT CALLDATASIZE ADD SLT PUSH2 0x17F JUMPI DUP2 CALLDATALOAD PUSH4 0xFFFFFFFF DUP2 AND DUP1 SWAP2 SUB PUSH2 0x37B JUMPI DUP2 DUP1 SWAP2 DUP6 MLOAD DUP8 DUP2 ADD SWAP2 DUP3 MSTORE DUP8 DUP2 MSTORE PUSH2 0x945 DUP2 PUSH2 0x126D JUMP JUMPDEST MLOAD SWAP1 PUSH2 0x808 GAS STATICCALL SWAP2 PUSH2 0x955 PUSH2 0x12DF JUMP JUMPDEST SWAP3 ISZERO PUSH2 0x97C JUMPI POP DUP4 DUP3 DUP1 MLOAD DUP2 ADD SUB SLT PUSH2 0x17F JUMPI POP PUSH2 0x330 DUP4 PUSH1 0x1 PUSH1 0x1 PUSH1 0x40 SHL SUB SWAP3 ADD PUSH2 0x130F JUMP JUMPDEST DUP4 MLOAD PUSH3 0x461BCD PUSH1 0xE5 SHL DUP2 MSTORE SWAP1 DUP2 ADD DUP6 SWAP1 MSTORE PUSH1 0x1D PUSH1 0x24 DUP3 ADD MSTORE PUSH32 0x53706F74507820707265636F6D70696C652063616C6C206661696C6564000000 PUSH1 0x44 DUP3 ADD MSTORE PUSH1 0x64 SWAP1 REVERT JUMPDEST POP DUP3 CALLVALUE PUSH2 0x37B JUMPI DUP1 PUSH1 0x3 NOT CALLDATASIZE ADD SLT PUSH2 0x37B JUMPI PUSH2 0x9D9 PUSH2 0x1187 JUMP JUMPDEST SWAP2 PUSH1 0x24 CALLDATALOAD SWAP3 PUSH2 0xFFFF DUP5 AND DUP1 SWAP5 SUB PUSH2 0x37B JUMPI DUP2 DUP1 SWAP2 DUP5 MLOAD SWAP6 PUSH2 0x9F9 DUP8 PUSH2 0x121B JUMP JUMPDEST DUP3 DUP8 MSTORE DUP3 PUSH1 0x80 PUSH1 0x20 SWAP9 DUP3 DUP11 DUP3 ADD MSTORE DUP3 DUP10 DUP3 ADD MSTORE DUP3 PUSH1 0x60 DUP3 ADD MSTORE ADD MSTORE DUP6 MLOAD SWAP1 DUP8 DUP3 ADD SWAP3 PUSH1 0x1 DUP1 PUSH1 0xA0 SHL SUB AND DUP4 MSTORE DUP7 DUP3 ADD MSTORE DUP6 DUP2 MSTORE PUSH2 0xA35 DUP2 PUSH2 0x1252 JUMP JUMPDEST MLOAD SWAP1 PUSH2 0x800 GAS STATICCALL SWAP4 PUSH2 0xA45 PUSH2 0x12DF JUMP JUMPDEST SWAP5 ISZERO PUSH2 0xAF5 JUMPI POP PUSH1 0xA0 DUP5 DUP1 MLOAD DUP2 ADD SUB SLT PUSH2 0x17F JUMPI POP PUSH4 0xFFFFFFFF PUSH1 0xA0 SWAP4 DUP3 MLOAD SWAP3 PUSH2 0xA6E DUP5 PUSH2 0x121B JUMP JUMPDEST PUSH2 0xA79 DUP6 DUP4 ADD PUSH2 0x13BF JUMP JUMPDEST SWAP5 DUP6 DUP6 MSTORE PUSH2 0xA88 DUP3 DUP5 ADD PUSH2 0x130F JUMP JUMPDEST SWAP1 DUP1 DUP7 ADD SWAP2 DUP3 MSTORE PUSH1 0x1 PUSH1 0x1 PUSH1 0x40 SHL SUB PUSH2 0xAA3 PUSH1 0x60 DUP7 ADD PUSH2 0x13BF JUMP JUMPDEST SWAP3 DUP5 DUP9 ADD SWAP4 DUP5 MSTORE PUSH1 0x80 PUSH2 0xAC9 DUP12 PUSH2 0xABB DUP4 DUP11 ADD PUSH2 0x1368 JUMP JUMPDEST SWAP9 PUSH1 0x60 DUP13 ADD SWAP10 DUP11 MSTORE ADD PUSH2 0x1387 JUMP JUMPDEST SWAP9 ADD SWAP8 DUP9 MSTORE DUP5 MLOAD SWAP9 PUSH1 0x7 SIGNEXTEND DUP10 MSTORE MLOAD AND SWAP1 DUP8 ADD MSTORE MLOAD PUSH1 0x7 SIGNEXTEND SWAP1 DUP6 ADD MSTORE MLOAD AND PUSH1 0x60 DUP4 ADD MSTORE MLOAD ISZERO ISZERO PUSH1 0x80 DUP3 ADD MSTORE RETURN JUMPDEST DUP3 MLOAD PUSH3 0x461BCD PUSH1 0xE5 SHL DUP2 MSTORE SWAP1 DUP2 ADD DUP5 SWAP1 MSTORE PUSH1 0x1F PUSH1 0x24 DUP3 ADD MSTORE PUSH32 0x506F736974696F6E20707265636F6D70696C652063616C6C206661696C656400 PUSH1 0x44 DUP3 ADD MSTORE PUSH1 0x64 SWAP1 REVERT JUMPDEST POP SWAP2 CALLVALUE PUSH2 0x1D0 JUMPI PUSH1 0x20 SWAP3 DUP4 PUSH1 0x3 NOT CALLDATASIZE ADD SLT PUSH2 0x17F JUMPI DUP3 CALLDATALOAD SWAP1 PUSH4 0xFFFFFFFF DUP3 AND DUP1 SWAP3 SUB PUSH2 0x17F JUMPI DUP1 DUP1 DUP5 MLOAD SWAP4 PUSH2 0xB6C DUP6 PUSH2 0x1236 JUMP JUMPDEST DUP2 PUSH1 0xE0 PUSH1 0x60 SWAP7 DUP8 DUP2 MSTORE DUP8 DUP12 DUP3 ADD MSTORE DUP3 DUP10 DUP3 ADD MSTORE DUP3 DUP9 DUP3 ADD MSTORE DUP3 PUSH1 0x80 DUP3 ADD MSTORE DUP3 PUSH1 0xA0 DUP3 ADD MSTORE DUP3 PUSH1 0xC0 DUP3 ADD MSTORE ADD MSTORE DUP6 MLOAD DUP9 DUP2 ADD SWAP2 DUP3 MSTORE DUP9 DUP2 MSTORE PUSH2 0xBAC DUP2 PUSH2 0x126D JUMP JUMPDEST MLOAD SWAP1 PUSH2 0x80C GAS STATICCALL SWAP4 PUSH2 0xBBC PUSH2 0x12DF JUMP JUMPDEST SWAP5 ISZERO PUSH2 0xDAC JUMPI POP DUP4 MLOAD DUP5 ADD DUP6 DUP2 ADD SWAP1 DUP7 DUP7 DUP3 SUB SLT PUSH2 0x1D0 JUMPI DUP7 DUP7 ADD MLOAD PUSH1 0x1 PUSH1 0x1 PUSH1 0x40 SHL SUB SWAP7 DUP8 DUP3 GT PUSH2 0x5C3 JUMPI ADD SWAP4 DUP5 SWAP2 PUSH2 0x100 SWAP6 DUP7 SWAP2 SUB SLT PUSH2 0x5BF JUMPI DUP6 MLOAD SWAP7 PUSH2 0xC04 DUP9 PUSH2 0x1236 JUMP JUMPDEST DUP9 DUP4 ADD MLOAD DUP2 DUP2 GT PUSH2 0x78B JUMPI DUP5 DUP11 PUSH2 0xC1D SWAP3 DUP7 ADD ADD PUSH2 0x1323 JUMP JUMPDEST DUP9 MSTORE DUP7 DUP4 ADD MLOAD DUP2 DUP2 GT PUSH2 0x78B JUMPI DUP4 ADD SWAP4 DUP1 PUSH1 0x3F DUP7 ADD SLT ISZERO PUSH2 0x78B JUMPI DUP10 DUP6 ADD MLOAD PUSH2 0xC45 DUP2 PUSH2 0x1394 JUMP JUMPDEST SWAP6 PUSH2 0xC52 DUP11 MLOAD SWAP8 DUP9 PUSH2 0x12A3 JUMP JUMPDEST DUP2 DUP8 MSTORE DUP10 DUP13 DUP9 ADD SWAP3 PUSH1 0x5 SHL DUP3 ADD ADD SWAP3 DUP4 GT PUSH2 0x5BB JUMPI DUP10 ADD SWAP1 JUMPDEST DUP3 DUP3 LT PUSH2 0xD95 JUMPI POP POP POP SWAP2 DUP9 SWAP4 SWAP2 DUP9 SWAP10 SWAP4 DUP10 SWAP5 DUP6 ADD SWAP4 DUP5 MSTORE PUSH2 0xC8E DUP3 DUP5 ADD PUSH2 0x130F JUMP JUMPDEST DUP10 DUP7 ADD SWAP1 DUP2 MSTORE PUSH2 0xCA0 PUSH1 0x80 DUP6 ADD PUSH2 0x13AB JUMP JUMPDEST SWAP5 DUP4 DUP8 ADD SWAP6 DUP7 MSTORE DUP10 PUSH2 0xCB4 PUSH1 0xA0 DUP8 ADD PUSH2 0x13AB JUMP JUMPDEST SWAP6 PUSH1 0x80 DUP10 ADD SWAP7 DUP8 MSTORE PUSH1 0xA0 PUSH2 0xCCA PUSH1 0xC0 DUP4 ADD PUSH2 0x1379 JUMP JUMPDEST SWAP10 ADD SWAP9 DUP10 MSTORE PUSH1 0xC0 PUSH2 0xCDD PUSH1 0xE0 DUP4 ADD PUSH2 0x1379 JUMP JUMPDEST SWAP15 ADD SWAP14 DUP15 MSTORE ADD MLOAD SWAP8 DUP9 DUP11 SIGNEXTEND DUP10 SUB PUSH2 0xD91 JUMPI SWAP1 DUP14 PUSH1 0xE0 PUSH2 0xD14 SWAP15 SWAP16 ADD SWAP10 DUP11 MSTORE DUP13 MLOAD SWAP14 DUP15 SWAP2 DUP5 DUP4 MSTORE MLOAD DUP14 DUP6 DUP5 ADD MSTORE PUSH2 0x120 DUP4 ADD SWAP1 PUSH2 0x11C5 JUMP JUMPDEST SWAP2 MLOAD SWAP13 PUSH1 0x1F NOT DUP3 DUP5 SUB ADD SWAP2 ADD MSTORE DUP2 DUP1 DUP14 MLOAD SWAP3 DUP4 DUP2 MSTORE ADD SWAP13 ADD SWAP2 DUP11 JUMPDEST DUP3 DUP2 LT PUSH2 0xD7B JUMPI POP POP POP POP SWAP3 PUSH1 0xFF SWAP6 SWAP3 DUP12 SWAP13 SWAP6 SWAP3 DUP8 SWAP6 MLOAD AND SWAP1 DUP13 ADD MSTORE PUSH1 0x1 DUP1 PUSH1 0xA0 SHL SUB DUP1 SWAP3 MLOAD AND PUSH1 0x80 DUP13 ADD MSTORE MLOAD AND PUSH1 0xA0 DUP11 ADD MSTORE MLOAD AND PUSH1 0xC0 DUP9 ADD MSTORE MLOAD AND PUSH1 0xE0 DUP7 ADD MSTORE MLOAD SWAP1 SIGNEXTEND SWAP1 DUP4 ADD MSTORE SUB SWAP1 RETURN JUMPDEST DUP4 MLOAD DUP7 AND DUP15 MSTORE SWAP13 DUP2 ADD SWAP13 SWAP3 DUP2 ADD SWAP3 PUSH1 0x1 ADD PUSH2 0xD2F JUMP JUMPDEST DUP10 DUP1 REVERT JUMPDEST DUP12 DUP1 SWAP2 PUSH2 0xDA1 DUP5 PUSH2 0x130F JUMP JUMPDEST DUP2 MSTORE ADD SWAP2 ADD SWAP1 PUSH2 0xC6B JUMP JUMPDEST PUSH1 0x64 SWAP1 DUP7 DUP1 DUP7 MLOAD SWAP3 PUSH3 0x461BCD PUSH1 0xE5 SHL DUP5 MSTORE DUP4 ADD MSTORE PUSH1 0x24 DUP3 ADD MSTORE PUSH32 0x546F6B656E496E666F20707265636F6D70696C652063616C6C206661696C6564 PUSH1 0x44 DUP3 ADD MSTORE REVERT JUMPDEST POP DUP3 CALLVALUE PUSH2 0x37B JUMPI PUSH1 0x20 DUP1 PUSH1 0x3 NOT CALLDATASIZE ADD SLT PUSH2 0x1D0 JUMPI DUP4 CALLDATALOAD PUSH4 0xFFFFFFFF SWAP1 DUP2 DUP2 AND DUP1 SWAP2 SUB PUSH2 0x5C3 JUMPI DUP5 DUP1 SWAP2 DUP2 PUSH1 0x80 DUP8 MLOAD PUSH2 0xE24 DUP2 PUSH2 0x121B JUMP JUMPDEST PUSH1 0x60 DUP2 MSTORE DUP3 DUP9 DUP3 ADD MSTORE DUP3 DUP10 DUP3 ADD MSTORE DUP3 PUSH1 0x60 DUP3 ADD MSTORE ADD MSTORE DUP6 MLOAD DUP6 DUP2 ADD SWAP2 DUP3 MSTORE DUP6 DUP2 MSTORE PUSH2 0xE4E DUP2 PUSH2 0x126D JUMP JUMPDEST MLOAD SWAP1 PUSH2 0x80A GAS STATICCALL SWAP5 PUSH2 0xE5E PUSH2 0x12DF JUMP JUMPDEST SWAP6 ISZERO PUSH2 0xF4B JUMPI POP DUP5 MLOAD DUP6 ADD SWAP5 DUP3 DUP2 DUP8 SUB SLT PUSH2 0x5C3 JUMPI DUP3 DUP2 ADD MLOAD PUSH1 0x1 PUSH1 0x1 PUSH1 0x40 SHL SUB SWAP2 DUP3 DUP3 GT PUSH2 0x787 JUMPI ADD SWAP6 PUSH1 0xA0 DUP8 DUP3 SUB SLT PUSH2 0x78B JUMPI DUP5 MLOAD SWAP6 PUSH2 0xE9F DUP8 PUSH2 0x121B JUMP JUMPDEST DUP5 DUP9 ADD MLOAD SWAP3 DUP4 GT PUSH2 0x17F JUMPI POP PUSH1 0xFF SWAP3 PUSH2 0xEC3 PUSH1 0xA0 SWAP9 SWAP4 DUP7 DUP1 DUP8 SWAP6 ADD SWAP2 DUP7 ADD ADD PUSH2 0x1323 JUMP JUMPDEST DUP8 MSTORE PUSH2 0xED0 DUP7 DUP5 ADD PUSH2 0x1368 JUMP JUMPDEST SWAP6 DUP6 DUP9 ADD SWAP7 DUP8 MSTORE PUSH2 0xEE3 PUSH1 0x60 DUP6 ADD PUSH2 0x1379 JUMP JUMPDEST SWAP2 DUP2 DUP10 ADD SWAP3 DUP4 MSTORE PUSH2 0xF2A PUSH2 0xF0B DUP12 PUSH2 0xEFD PUSH1 0x80 DUP10 ADD PUSH2 0x1379 JUMP JUMPDEST SWAP8 PUSH1 0x60 DUP14 ADD SWAP9 DUP10 MSTORE ADD PUSH2 0x1387 JUMP JUMPDEST SWAP8 PUSH1 0x80 DUP12 ADD SWAP9 DUP10 MSTORE DUP4 MLOAD SWAP12 DUP13 SWAP12 DUP3 DUP14 MSTORE MLOAD SWAP2 DUP13 ADD MSTORE PUSH1 0xC0 DUP12 ADD SWAP1 PUSH2 0x11C5 JUMP JUMPDEST SWAP8 MLOAD AND SWAP1 DUP9 ADD MSTORE MLOAD AND PUSH1 0x60 DUP7 ADD MSTORE MLOAD AND PUSH1 0x80 DUP5 ADD MSTORE MLOAD ISZERO ISZERO PUSH1 0xA0 DUP4 ADD MSTORE SUB SWAP1 RETURN JUMPDEST DUP4 MLOAD PUSH3 0x461BCD PUSH1 0xE5 SHL DUP2 MSTORE SWAP1 DUP2 ADD DUP4 SWAP1 MSTORE PUSH1 0x24 DUP1 DUP3 ADD MSTORE PUSH32 0x506572704173736574496E666F20707265636F6D70696C652063616C6C206661 PUSH1 0x44 DUP3 ADD MSTORE PUSH4 0x1A5B1959 PUSH1 0xE2 SHL PUSH1 0x64 DUP3 ADD MSTORE PUSH1 0x84 SWAP1 REVERT JUMPDEST POP SWAP2 SWAP1 CALLVALUE PUSH2 0x1D0 JUMPI PUSH1 0x20 SWAP2 DUP3 PUSH1 0x3 NOT CALLDATASIZE ADD SLT PUSH2 0x5BF JUMPI DUP4 DUP1 PUSH2 0xFBA PUSH2 0x1187 JUMP JUMPDEST DUP2 PUSH1 0x60 DUP6 MLOAD PUSH2 0xFC8 DUP2 PUSH2 0x11EA JUMP JUMPDEST DUP3 DUP2 MSTORE DUP3 DUP10 DUP3 ADD MSTORE DUP3 DUP8 DUP3 ADD MSTORE ADD MSTORE DUP4 MLOAD DUP7 DUP2 ADD SWAP2 PUSH1 0x1 DUP1 PUSH1 0xA0 SHL SUB AND DUP3 MSTORE DUP7 DUP2 MSTORE PUSH2 0xFF3 DUP2 PUSH2 0x126D JUMP JUMPDEST MLOAD SWAP1 PUSH2 0x805 GAS STATICCALL SWAP2 PUSH2 0x1003 PUSH2 0x12DF JUMP JUMPDEST SWAP3 ISZERO PUSH2 0x1085 JUMPI POP PUSH1 0x80 DUP3 DUP1 MLOAD DUP2 ADD SUB SLT PUSH2 0x5BF JUMPI PUSH1 0x80 SWAP4 POP DUP1 MLOAD SWAP1 PUSH2 0x1027 DUP3 PUSH2 0x11EA JUMP JUMPDEST PUSH2 0x1032 DUP5 DUP5 ADD PUSH2 0x130F JUMP JUMPDEST DUP1 DUP4 MSTORE PUSH2 0x1040 DUP3 DUP6 ADD PUSH2 0x130F JUMP JUMPDEST SWAP4 DUP6 DUP5 ADD SWAP5 DUP6 MSTORE PUSH1 0x60 PUSH2 0x1058 DUP9 PUSH2 0x895 DUP4 DUP6 ADD PUSH2 0x130F JUMP JUMPDEST SWAP5 ADD SWAP4 DUP5 MSTORE DUP3 MLOAD SWAP6 PUSH1 0x1 PUSH1 0x1 PUSH1 0x40 SHL SUB DUP1 SWAP7 DUP2 DUP1 SWAP6 AND DUP10 MSTORE MLOAD AND SWAP1 DUP8 ADD MSTORE MLOAD AND SWAP1 DUP5 ADD MSTORE MLOAD AND PUSH1 0x60 DUP3 ADD MSTORE RETURN JUMPDEST DUP4 PUSH1 0x84 SWAP3 MLOAD SWAP2 PUSH3 0x461BCD PUSH1 0xE5 SHL DUP4 MSTORE DUP3 ADD MSTORE PUSH1 0x28 PUSH1 0x24 DUP3 ADD MSTORE PUSH32 0x44656C656761746F727953756D6D61727920707265636F6D70696C652063616C PUSH1 0x44 DUP3 ADD MSTORE PUSH8 0x1B0819985A5B1959 PUSH1 0xC2 SHL PUSH1 0x64 DUP3 ADD MSTORE REVERT JUMPDEST DUP5 SWAP3 SWAP2 POP CALLVALUE PUSH2 0x37B JUMPI DUP2 PUSH1 0x3 NOT CALLDATASIZE ADD SLT PUSH2 0x37B JUMPI DUP2 DUP2 DUP2 DUP1 SWAP4 MSTORE PUSH2 0x10FA DUP2 PUSH2 0x1288 JUMP JUMPDEST PUSH1 0x20 DUP2 MLOAD SWAP2 ADD PUSH2 0x809 GAS STATICCALL SWAP3 PUSH2 0x110E PUSH2 0x12DF JUMP JUMPDEST SWAP4 ISZERO PUSH2 0x1138 JUMPI POP PUSH1 0x20 DUP4 DUP1 MLOAD DUP2 ADD SUB SLT PUSH2 0x17F JUMPI POP PUSH1 0x1 PUSH1 0x1 PUSH1 0x40 SHL SUB PUSH2 0x330 PUSH1 0x20 DUP1 SWAP5 ADD PUSH2 0x130F JUMP JUMPDEST PUSH1 0x84 SWAP1 PUSH1 0x20 DUP5 MLOAD SWAP2 PUSH3 0x461BCD PUSH1 0xE5 SHL DUP4 MSTORE DUP3 ADD MSTORE PUSH1 0x24 DUP1 DUP3 ADD MSTORE PUSH32 0x4C31426C6F636B4E756D62657220707265636F6D70696C652063616C6C206661 PUSH1 0x44 DUP3 ADD MSTORE PUSH4 0x1A5B1959 PUSH1 0xE2 SHL PUSH1 0x64 DUP3 ADD MSTORE REVERT JUMPDEST PUSH1 0x4 CALLDATALOAD SWAP1 PUSH1 0x1 PUSH1 0x1 PUSH1 0xA0 SHL SUB DUP3 AND DUP3 SUB PUSH2 0x119D JUMPI JUMP JUMPDEST PUSH1 0x0 DUP1 REVERT JUMPDEST PUSH1 0x0 JUMPDEST DUP4 DUP2 LT PUSH2 0x11B5 JUMPI POP POP PUSH1 0x0 SWAP2 ADD MSTORE JUMP JUMPDEST DUP2 DUP2 ADD MLOAD DUP4 DUP3 ADD MSTORE PUSH1 0x20 ADD PUSH2 0x11A5 JUMP JUMPDEST SWAP1 PUSH1 0x20 SWAP2 PUSH2 0x11DE DUP2 MLOAD DUP1 SWAP3 DUP2 DUP6 MSTORE DUP6 DUP1 DUP7 ADD SWAP2 ADD PUSH2 0x11A2 JUMP JUMPDEST PUSH1 0x1F ADD PUSH1 0x1F NOT AND ADD ADD SWAP1 JUMP JUMPDEST PUSH1 0x80 DUP2 ADD SWAP1 DUP2 LT PUSH1 0x1 PUSH1 0x1 PUSH1 0x40 SHL SUB DUP3 GT OR PUSH2 0x1205 JUMPI PUSH1 0x40 MSTORE JUMP JUMPDEST PUSH4 0x4E487B71 PUSH1 0xE0 SHL PUSH1 0x0 MSTORE PUSH1 0x41 PUSH1 0x4 MSTORE PUSH1 0x24 PUSH1 0x0 REVERT JUMPDEST PUSH1 0xA0 DUP2 ADD SWAP1 DUP2 LT PUSH1 0x1 PUSH1 0x1 PUSH1 0x40 SHL SUB DUP3 GT OR PUSH2 0x1205 JUMPI PUSH1 0x40 MSTORE JUMP JUMPDEST PUSH2 0x100 DUP2 ADD SWAP1 DUP2 LT PUSH1 0x1 PUSH1 0x1 PUSH1 0x40 SHL SUB DUP3 GT OR PUSH2 0x1205 JUMPI PUSH1 0x40 MSTORE JUMP JUMPDEST PUSH1 0x60 DUP2 ADD SWAP1 DUP2 LT PUSH1 0x1 PUSH1 0x1 PUSH1 0x40 SHL SUB DUP3 GT OR PUSH2 0x1205 JUMPI PUSH1 0x40 MSTORE JUMP JUMPDEST PUSH1 0x40 DUP2 ADD SWAP1 DUP2 LT PUSH1 0x1 PUSH1 0x1 PUSH1 0x40 SHL SUB DUP3 GT OR PUSH2 0x1205 JUMPI PUSH1 0x40 MSTORE JUMP JUMPDEST PUSH1 0x20 DUP2 ADD SWAP1 DUP2 LT PUSH1 0x1 PUSH1 0x1 PUSH1 0x40 SHL SUB DUP3 GT OR PUSH2 0x1205 JUMPI PUSH1 0x40 MSTORE JUMP JUMPDEST SWAP1 PUSH1 0x1F DUP1 NOT SWAP2 ADD AND DUP2 ADD SWAP1 DUP2 LT PUSH1 0x1 PUSH1 0x1 PUSH1 0x40 SHL SUB DUP3 GT OR PUSH2 0x1205 JUMPI PUSH1 0x40 MSTORE JUMP JUMPDEST PUSH1 0x1 PUSH1 0x1 PUSH1 0x40 SHL SUB DUP2 GT PUSH2 0x1205 JUMPI PUSH1 0x1F ADD PUSH1 0x1F NOT AND PUSH1 0x20 ADD SWAP1 JUMP JUMPDEST RETURNDATASIZE ISZERO PUSH2 0x130A JUMPI RETURNDATASIZE SWAP1 PUSH2 0x12F0 DUP3 PUSH2 0x12C4 JUMP JUMPDEST SWAP2 PUSH2 0x12FE PUSH1 0x40 MLOAD SWAP4 DUP5 PUSH2 0x12A3 JUMP JUMPDEST DUP3 MSTORE RETURNDATASIZE PUSH1 0x0 PUSH1 0x20 DUP5 ADD RETURNDATACOPY JUMP JUMPDEST PUSH1 0x60 SWAP1 JUMP JUMPDEST MLOAD SWAP1 PUSH1 0x1 PUSH1 0x1 PUSH1 0x40 SHL SUB DUP3 AND DUP3 SUB PUSH2 0x119D JUMPI JUMP JUMPDEST DUP2 PUSH1 0x1F DUP3 ADD SLT ISZERO PUSH2 0x119D JUMPI DUP1 MLOAD PUSH2 0x1339 DUP2 PUSH2 0x12C4 JUMP JUMPDEST SWAP3 PUSH2 0x1347 PUSH1 0x40 MLOAD SWAP5 DUP6 PUSH2 0x12A3 JUMP JUMPDEST DUP2 DUP5 MSTORE PUSH1 0x20 DUP3 DUP5 ADD ADD GT PUSH2 0x119D JUMPI PUSH2 0x1365 SWAP2 PUSH1 0x20 DUP1 DUP6 ADD SWAP2 ADD PUSH2 0x11A2 JUMP JUMPDEST SWAP1 JUMP JUMPDEST MLOAD SWAP1 PUSH4 0xFFFFFFFF DUP3 AND DUP3 SUB PUSH2 0x119D JUMPI JUMP JUMPDEST MLOAD SWAP1 PUSH1 0xFF DUP3 AND DUP3 SUB PUSH2 0x119D JUMPI JUMP JUMPDEST MLOAD SWAP1 DUP2 ISZERO ISZERO DUP3 SUB PUSH2 0x119D JUMPI JUMP JUMPDEST PUSH1 0x1 PUSH1 0x1 PUSH1 0x40 SHL SUB DUP2 GT PUSH2 0x1205 JUMPI PUSH1 0x5 SHL PUSH1 0x20 ADD SWAP1 JUMP JUMPDEST MLOAD SWAP1 PUSH1 0x1 PUSH1 0x1 PUSH1 0xA0 SHL SUB DUP3 AND DUP3 SUB PUSH2 0x119D JUMPI JUMP JUMPDEST MLOAD SWAP1 DUP2 PUSH1 0x7 SIGNEXTEND DUP3 SUB PUSH2 0x119D JUMPI JUMP INVALID LOG2 PUSH5 0x6970667358 0x22 SLT KECCAK256 SWAP5 KECCAK256 PUSH21 0x472A69A8648038014C5767600386F5470E68008132 SLT PUSH29 0x4E942C964F2364736F6C63430008140033000000000000000000000000 "},"methodIdentifiers":{"delegations(address)":"bffe3486","delegatorSummary(address)":"37f980a5","l1BlockNumber()":"298c9005","markPx(uint32)":"c8eec8c6","oraclePx(uint32)":"c0f0f5ef","perpAssetInfo(uint32)":"4162cd32","position(address,uint16)":"89cf7c89","spotBalance(address,uint64)":"a69610d1","spotInfo(uint32)":"b6dff0b5","spotPx(uint32)":"90702759","tokenInfo(uint32)":"68fb1109","userVaultEquity(address,address)":"ee1b5af1","withdrawable(address)":"ce513b6f"}},"storageLayout":{"storage":[],"types":null}}}}